{
	"contracts/TurtleDocumentation.sol": {
		"TurtleDocumentation": {
			"abi": [
				{
					"anonymous": false,
					"inputs": [
						{
							"indexed": true,
							"internalType": "string",
							"name": "turtleId",
							"type": "string"
						},
						{
							"indexed": true,
							"internalType": "bytes32",
							"name": "documentHash",
							"type": "bytes32"
						}
					],
					"name": "CurrentTurtleDocument",
					"type": "event"
				},
				{
					"anonymous": false,
					"inputs": [
						{
							"indexed": true,
							"internalType": "address",
							"name": "previousOwner",
							"type": "address"
						},
						{
							"indexed": true,
							"internalType": "address",
							"name": "newOwner",
							"type": "address"
						}
					],
					"name": "OwnershipTransferred",
					"type": "event"
				},
				{
					"anonymous": false,
					"inputs": [
						{
							"indexed": true,
							"internalType": "string",
							"name": "turtleId",
							"type": "string"
						},
						{
							"indexed": true,
							"internalType": "string",
							"name": "applicant",
							"type": "string"
						},
						{
							"indexed": true,
							"internalType": "bytes32",
							"name": "documentHash",
							"type": "bytes32"
						}
					],
					"name": "TurtleDeath",
					"type": "event"
				},
				{
					"anonymous": false,
					"inputs": [
						{
							"indexed": true,
							"internalType": "string",
							"name": "turtleId",
							"type": "string"
						},
						{
							"indexed": true,
							"internalType": "string",
							"name": "applicant",
							"type": "string"
						},
						{
							"indexed": true,
							"internalType": "bytes32",
							"name": "documentHash",
							"type": "bytes32"
						}
					],
					"name": "TurtleMultiplication",
					"type": "event"
				},
				{
					"anonymous": false,
					"inputs": [
						{
							"indexed": true,
							"internalType": "string",
							"name": "turtleId",
							"type": "string"
						},
						{
							"indexed": true,
							"internalType": "string",
							"name": "oldOwner",
							"type": "string"
						},
						{
							"indexed": true,
							"internalType": "string",
							"name": "newOwner",
							"type": "string"
						}
					],
					"name": "TurtleOwnerChanged",
					"type": "event"
				},
				{
					"anonymous": false,
					"inputs": [
						{
							"indexed": true,
							"internalType": "string",
							"name": "turtleId",
							"type": "string"
						},
						{
							"indexed": true,
							"internalType": "string",
							"name": "applicant",
							"type": "string"
						}
					],
					"name": "TurtleRegistered",
					"type": "event"
				},
				{
					"anonymous": false,
					"inputs": [
						{
							"indexed": true,
							"internalType": "string",
							"name": "turtleId",
							"type": "string"
						},
						{
							"indexed": false,
							"internalType": "string",
							"name": "grantApplicant",
							"type": "string"
						},
						{
							"indexed": false,
							"internalType": "string",
							"name": "assignApplicant",
							"type": "string"
						},
						{
							"indexed": true,
							"internalType": "bytes32",
							"name": "documentHash",
							"type": "bytes32"
						}
					],
					"name": "TurtleTransferred",
					"type": "event"
				},
				{
					"inputs": [
						{
							"internalType": "string",
							"name": "_turtleId",
							"type": "string"
						},
						{
							"internalType": "bytes32",
							"name": "_documentHash",
							"type": "bytes32"
						}
					],
					"name": "approveMultiplicationDocByReviewer",
					"outputs": [
						{
							"internalType": "bytes32",
							"name": "",
							"type": "bytes32"
						}
					],
					"stateMutability": "nonpayable",
					"type": "function"
				},
				{
					"inputs": [
						{
							"internalType": "string",
							"name": "_turtleId",
							"type": "string"
						},
						{
							"internalType": "bytes32",
							"name": "_documentHash",
							"type": "bytes32"
						}
					],
					"name": "approveTransferDocByReviewer",
					"outputs": [
						{
							"internalType": "bytes32",
							"name": "",
							"type": "bytes32"
						}
					],
					"stateMutability": "nonpayable",
					"type": "function"
				},
				{
					"inputs": [
						{
							"internalType": "string",
							"name": "_turtleId",
							"type": "string"
						},
						{
							"internalType": "string",
							"name": "_oldOwner",
							"type": "string"
						},
						{
							"internalType": "string",
							"name": "_newOwner",
							"type": "string"
						}
					],
					"name": "changeTurtleOwner",
					"outputs": [],
					"stateMutability": "nonpayable",
					"type": "function"
				},
				{
					"inputs": [],
					"name": "owner",
					"outputs": [
						{
							"internalType": "address",
							"name": "",
							"type": "address"
						}
					],
					"stateMutability": "view",
					"type": "function"
				},
				{
					"inputs": [
						{
							"internalType": "string",
							"name": "_turtleId",
							"type": "string"
						},
						{
							"internalType": "string",
							"name": "_applicant",
							"type": "string"
						}
					],
					"name": "registerTurtle",
					"outputs": [],
					"stateMutability": "nonpayable",
					"type": "function"
				},
				{
					"inputs": [
						{
							"internalType": "string",
							"name": "_turtleId",
							"type": "string"
						},
						{
							"internalType": "string",
							"name": "_applicant",
							"type": "string"
						},
						{
							"internalType": "bytes32",
							"name": "_documentHash",
							"type": "bytes32"
						},
						{
							"internalType": "string",
							"name": "_assigneeId",
							"type": "string"
						},
						{
							"internalType": "uint8",
							"name": "_count",
							"type": "uint8"
						},
						{
							"internalType": "string",
							"name": "_transferReason",
							"type": "string"
						},
						{
							"internalType": "string",
							"name": "_purpose",
							"type": "string"
						}
					],
					"name": "registerTurtleAssigneeDocument",
					"outputs": [
						{
							"internalType": "bytes32",
							"name": "",
							"type": "bytes32"
						}
					],
					"stateMutability": "nonpayable",
					"type": "function"
				},
				{
					"inputs": [
						{
							"internalType": "string",
							"name": "_turtleId",
							"type": "string"
						},
						{
							"internalType": "string",
							"name": "_applicant",
							"type": "string"
						},
						{
							"internalType": "bytes32",
							"name": "_documentHash",
							"type": "bytes32"
						},
						{
							"internalType": "string",
							"name": "_shelter",
							"type": "string"
						},
						{
							"internalType": "uint8",
							"name": "_count",
							"type": "uint8"
						},
						{
							"internalType": "string",
							"name": "_deathReason",
							"type": "string"
						},
						{
							"internalType": "string",
							"name": "_plan",
							"type": "string"
						},
						{
							"internalType": "string",
							"name": "_deathImage",
							"type": "string"
						},
						{
							"internalType": "string",
							"name": "_diagnosis",
							"type": "string"
						}
					],
					"name": "registerTurtleDeathDocument",
					"outputs": [
						{
							"internalType": "bytes32",
							"name": "",
							"type": "bytes32"
						}
					],
					"stateMutability": "nonpayable",
					"type": "function"
				},
				{
					"inputs": [
						{
							"internalType": "string",
							"name": "_turtleId",
							"type": "string"
						},
						{
							"internalType": "string",
							"name": "_applicant",
							"type": "string"
						},
						{
							"internalType": "bytes32",
							"name": "_documentHash",
							"type": "bytes32"
						},
						{
							"internalType": "string",
							"name": "_grantorId",
							"type": "string"
						},
						{
							"internalType": "string",
							"name": "_aquisition",
							"type": "string"
						},
						{
							"internalType": "string",
							"name": "_fatherId",
							"type": "string"
						},
						{
							"internalType": "string",
							"name": "_motherId",
							"type": "string"
						}
					],
					"name": "registerTurtleGrantorDocument",
					"outputs": [
						{
							"internalType": "bytes32",
							"name": "",
							"type": "bytes32"
						}
					],
					"stateMutability": "nonpayable",
					"type": "function"
				},
				{
					"inputs": [
						{
							"internalType": "string",
							"name": "_turtleId",
							"type": "string"
						},
						{
							"internalType": "string",
							"name": "_applicant",
							"type": "string"
						},
						{
							"internalType": "bytes32",
							"name": "_documentHash",
							"type": "bytes32"
						},
						{
							"internalType": "uint8",
							"name": "_count",
							"type": "uint8"
						},
						{
							"internalType": "string",
							"name": "_area",
							"type": "string"
						},
						{
							"internalType": "string",
							"name": "_purpose",
							"type": "string"
						},
						{
							"internalType": "string",
							"name": "_location",
							"type": "string"
						},
						{
							"internalType": "string",
							"name": "_fatherId",
							"type": "string"
						},
						{
							"internalType": "string",
							"name": "_motherId",
							"type": "string"
						},
						{
							"internalType": "string",
							"name": "_birth",
							"type": "string"
						},
						{
							"internalType": "string",
							"name": "_name",
							"type": "string"
						},
						{
							"internalType": "uint256",
							"name": "_weight",
							"type": "uint256"
						},
						{
							"internalType": "string",
							"name": "_gender",
							"type": "string"
						},
						{
							"internalType": "string",
							"name": "_locationSpecification",
							"type": "string"
						},
						{
							"internalType": "string",
							"name": "_multiplicationMethod",
							"type": "string"
						},
						{
							"internalType": "string",
							"name": "_shelterSpecification",
							"type": "string"
						},
						{
							"internalType": "bytes32",
							"name": "_turtleHash",
							"type": "bytes32"
						}
					],
					"name": "registerTurtleMultiplicationDocument",
					"outputs": [
						{
							"internalType": "bytes32",
							"name": "",
							"type": "bytes32"
						}
					],
					"stateMutability": "nonpayable",
					"type": "function"
				},
				{
					"inputs": [],
					"name": "renounceOwnership",
					"outputs": [],
					"stateMutability": "nonpayable",
					"type": "function"
				},
				{
					"inputs": [
						{
							"internalType": "string",
							"name": "_turtleId",
							"type": "string"
						}
					],
					"name": "searchCurrentDocumentHash",
					"outputs": [
						{
							"internalType": "bytes32",
							"name": "",
							"type": "bytes32"
						}
					],
					"stateMutability": "view",
					"type": "function"
				},
				{
					"inputs": [
						{
							"internalType": "string",
							"name": "_turtleId",
							"type": "string"
						},
						{
							"internalType": "bytes32",
							"name": "_documentHash",
							"type": "bytes32"
						}
					],
					"name": "searchTurtleDeathDocument",
					"outputs": [
						{
							"components": [
								{
									"internalType": "string",
									"name": "applicant",
									"type": "string"
								},
								{
									"internalType": "string",
									"name": "shelter",
									"type": "string"
								},
								{
									"internalType": "uint8",
									"name": "count",
									"type": "uint8"
								},
								{
									"internalType": "string",
									"name": "deathReason",
									"type": "string"
								},
								{
									"internalType": "string",
									"name": "plan",
									"type": "string"
								},
								{
									"internalType": "string",
									"name": "deathImage",
									"type": "string"
								},
								{
									"internalType": "string",
									"name": "diagnosis",
									"type": "string"
								}
							],
							"internalType": "struct TurtleDocumentation.Death",
							"name": "",
							"type": "tuple"
						}
					],
					"stateMutability": "view",
					"type": "function"
				},
				{
					"inputs": [
						{
							"internalType": "string",
							"name": "_turtleId",
							"type": "string"
						},
						{
							"internalType": "bytes32",
							"name": "_documentHash",
							"type": "bytes32"
						}
					],
					"name": "searchTurtleMultiplicationDocument",
					"outputs": [
						{
							"components": [
								{
									"internalType": "string",
									"name": "applicant",
									"type": "string"
								},
								{
									"internalType": "uint8",
									"name": "count",
									"type": "uint8"
								},
								{
									"internalType": "string",
									"name": "area",
									"type": "string"
								},
								{
									"internalType": "string",
									"name": "purpose",
									"type": "string"
								},
								{
									"internalType": "string",
									"name": "location",
									"type": "string"
								},
								{
									"internalType": "string",
									"name": "fatherId",
									"type": "string"
								},
								{
									"internalType": "string",
									"name": "motherId",
									"type": "string"
								},
								{
									"internalType": "string",
									"name": "birth",
									"type": "string"
								},
								{
									"internalType": "string",
									"name": "name",
									"type": "string"
								},
								{
									"internalType": "uint256",
									"name": "weight",
									"type": "uint256"
								},
								{
									"internalType": "string",
									"name": "gender",
									"type": "string"
								},
								{
									"internalType": "string",
									"name": "locationSpecification",
									"type": "string"
								},
								{
									"internalType": "string",
									"name": "multiplicationMethod",
									"type": "string"
								},
								{
									"internalType": "string",
									"name": "shelterSpecification",
									"type": "string"
								}
							],
							"internalType": "struct TurtleDocumentation.Multiplication",
							"name": "",
							"type": "tuple"
						}
					],
					"stateMutability": "view",
					"type": "function"
				},
				{
					"inputs": [
						{
							"internalType": "string",
							"name": "_turtleId",
							"type": "string"
						},
						{
							"internalType": "bytes32",
							"name": "_documentHash",
							"type": "bytes32"
						}
					],
					"name": "searchTurtleTransferDocument",
					"outputs": [
						{
							"components": [
								{
									"internalType": "string",
									"name": "grantApplicant",
									"type": "string"
								},
								{
									"internalType": "string",
									"name": "assignApplicant",
									"type": "string"
								},
								{
									"internalType": "string",
									"name": "grantorId",
									"type": "string"
								},
								{
									"internalType": "string",
									"name": "assigneeId",
									"type": "string"
								},
								{
									"internalType": "uint8",
									"name": "count",
									"type": "uint8"
								},
								{
									"internalType": "string",
									"name": "transferReason",
									"type": "string"
								},
								{
									"internalType": "string",
									"name": "purpose",
									"type": "string"
								},
								{
									"internalType": "string",
									"name": "aquisition",
									"type": "string"
								},
								{
									"internalType": "string",
									"name": "fatherId",
									"type": "string"
								},
								{
									"internalType": "string",
									"name": "motherId",
									"type": "string"
								}
							],
							"internalType": "struct TurtleDocumentation.Transfer",
							"name": "",
							"type": "tuple"
						}
					],
					"stateMutability": "view",
					"type": "function"
				},
				{
					"inputs": [
						{
							"internalType": "address",
							"name": "newOwner",
							"type": "address"
						}
					],
					"name": "transferOwnership",
					"outputs": [],
					"stateMutability": "nonpayable",
					"type": "function"
				},
				{
					"inputs": [
						{
							"internalType": "string",
							"name": "_turtleId",
							"type": "string"
						},
						{
							"internalType": "bytes32",
							"name": "_hash",
							"type": "bytes32"
						}
					],
					"name": "turtleValid",
					"outputs": [
						{
							"internalType": "bool",
							"name": "",
							"type": "bool"
						}
					],
					"stateMutability": "view",
					"type": "function"
				}
			],
			"devdoc": {
				"kind": "dev",
				"methods": {
					"owner()": {
						"details": "Returns the address of the current owner."
					},
					"renounceOwnership()": {
						"details": "Leaves the contract without owner. It will not be possible to call `onlyOwner` functions. Can only be called by the current owner. NOTE: Renouncing ownership will leave the contract without an owner, thereby disabling any functionality that is only available to the owner."
					},
					"transferOwnership(address)": {
						"details": "Transfers ownership of the contract to a new account (`newOwner`). Can only be called by the current owner."
					}
				},
				"version": 1
			},
			"evm": {
				"assembly": "    /* \"contracts/TurtleDocumentation.sol\":124:11610  contract TurtleDocumentation is Ownable {... */\n  0x80\n  dup1\n  0x40\n  mstore\n  jumpi(tag_1, callvalue)\n    /* \"@openzeppelin/contracts/access/Ownable.sol\":2518:2524  _owner */\n  0x00\n    /* \"contracts/TurtleDocumentation.sol\":124:11610  contract TurtleDocumentation is Ownable {... */\n  dup1\n  sload\n    /* \"@openzeppelin/contracts/utils/Context.sol\":734:744  msg.sender */\n  caller\n  not(sub(shl(0xa0, 0x01), 0x01))\n    /* \"contracts/TurtleDocumentation.sol\":124:11610  contract TurtleDocumentation is Ownable {... */\n  dup3\n  and\n  dup2\n  or\n  dup4\n  sstore\n    /* \"@openzeppelin/contracts/utils/Context.sol\":734:744  msg.sender */\n  swap2\n  sub(shl(0xa0, 0x01), 0x01)\n    /* \"contracts/TurtleDocumentation.sol\":124:11610  contract TurtleDocumentation is Ownable {... */\n  swap1\n  swap2\n  and\n  swap1\n    /* \"@openzeppelin/contracts/access/Ownable.sol\":2566:2606  OwnershipTransferred(oldOwner, newOwner) */\n  0x8be0079c531659141344cd1fd0a4f28419497f9722a3daafe3b4186f6b6457e0\n  swap1\n    /* \"@openzeppelin/contracts/access/Ownable.sol\":2518:2524  _owner */\n  dup1\n    /* \"@openzeppelin/contracts/access/Ownable.sol\":2566:2606  OwnershipTransferred(oldOwner, newOwner) */\n  log3\n    /* \"contracts/TurtleDocumentation.sol\":124:11610  contract TurtleDocumentation is Ownable {... */\n  dataSize(sub_0)\n  swap1\n  dup2\n  dataOffset(sub_0)\n  dup3\n  codecopy\n  return\ntag_1:\n  0x00\n  dup1\n  revert\nstop\n\nsub_0: assembly {\n        /* \"contracts/TurtleDocumentation.sol\":124:11610  contract TurtleDocumentation is Ownable {... */\n      mstore(0x40, 0x80)\n      jumpi(tag_25, iszero(lt(calldatasize, 0x04)))\n      0x00\n      dup1\n      revert\n    tag_25:\n      shr(0xe0, calldataload(0x00))\n      dup1\n      0x17aa1f48\n      eq\n      tag_27\n      jumpi\n      dup1\n      0x18e1a28a\n      eq\n      tag_29\n      jumpi\n      dup1\n      0x1a0642ef\n      eq\n      tag_31\n      jumpi\n      dup1\n      0x1b979af1\n      eq\n      tag_33\n      jumpi\n      dup1\n      0x229aa914\n      eq\n      tag_35\n      jumpi\n      dup1\n      0x358a3d37\n      eq\n      tag_37\n      jumpi\n      dup1\n      0x482346bd\n      eq\n      tag_39\n      jumpi\n      dup1\n      0x596c442a\n      eq\n      tag_41\n      jumpi\n      dup1\n      0x5c493eaa\n      eq\n      tag_43\n      jumpi\n      dup1\n      0x673ae4c1\n      eq\n      tag_45\n      jumpi\n      dup1\n      0x6c1dcaf8\n      eq\n      tag_47\n      jumpi\n      dup1\n      0x715018a6\n      eq\n      tag_49\n      jumpi\n      dup1\n      0x8da5cb5b\n      eq\n      tag_51\n      jumpi\n      dup1\n      0xce5f0b7d\n      eq\n      tag_53\n      jumpi\n      dup1\n      0xf2fde38b\n      eq\n      tag_55\n      jumpi\n      0xf3cb197d\n      eq\n      tag_57\n      jumpi\n      0x00\n      dup1\n      revert\n    tag_57:\n      jumpi(tag_63, callvalue)\n      jumpi(tag_63, slt(add(not(0x03), calldatasize), 0x20))\n      calldataload(0x04)\n      sub(shl(0x40, 0x01), 0x01)\n      dup2\n      gt\n      tag_63\n      jumpi\n      0x04\n      tag_65\n      0x20\n      tag_66\n      dup2\n      swap5\n      calldatasize\n      swap1\n      dup6\n      add\n      tag_5\n      jump\t// in\n    tag_66:\n      dup2\n      mload(0x40)\n      swap4\n      dup3\n      dup6\n      dup1\n      swap5\n      mload\n      swap4\n      dup5\n      swap3\n      add\n      tag_7\n      jump\t// in\n    tag_65:\n      dup2\n      add\n        /* \"contracts/TurtleDocumentation.sol\":11304:11311  turtles */\n      0x01\n        /* \"contracts/TurtleDocumentation.sol\":124:11610  contract TurtleDocumentation is Ownable {... */\n      dup2\n      mstore\n      sub\n      add\n      swap1\n      keccak256\n        /* \"contracts/TurtleDocumentation.sol\":11304:11342  turtles[_turtleId].currentDocumentHash */\n      add\n        /* \"contracts/TurtleDocumentation.sol\":124:11610  contract TurtleDocumentation is Ownable {... */\n      sload\n      mload(0x40)\n      swap1\n      dup2\n      mstore\n      return\n    tag_63:\n      0x00\n      dup1\n      revert\n    tag_55:\n      jumpi(tag_63, callvalue)\n      jumpi(tag_63, slt(add(not(0x03), calldatasize), 0x20))\n      calldataload(0x04)\n      sub(shl(0xa0, 0x01), 0x01)\n      dup2\n      dup2\n      and\n      swap2\n      dup3\n      swap1\n      sub\n      tag_63\n      jumpi\n        /* \"@openzeppelin/contracts/access/Ownable.sol\":1063:1125  modifier onlyOwner() {... */\n      tag_73\n      tag_10\n      jump\t// in\n    tag_73:\n        /* \"@openzeppelin/contracts/access/Ownable.sol\":2162:2184  newOwner != address(0) */\n      dup2\n      iszero\n        /* \"contracts/TurtleDocumentation.sol\":124:11610  contract TurtleDocumentation is Ownable {... */\n      tag_74\n      jumpi\n      sload(0x00)\n      dup3\n      shl(0xa0, 0xffffffffffffffffffffffff)\n      dup3\n      and\n      or\n      0x00\n      sstore\n      and\n        /* \"@openzeppelin/contracts/access/Ownable.sol\":2566:2606  OwnershipTransferred(oldOwner, newOwner) */\n      0x8be0079c531659141344cd1fd0a4f28419497f9722a3daafe3b4186f6b6457e0\n        /* \"contracts/TurtleDocumentation.sol\":124:11610  contract TurtleDocumentation is Ownable {... */\n      0x00\n        /* \"@openzeppelin/contracts/access/Ownable.sol\":2566:2606  OwnershipTransferred(oldOwner, newOwner) */\n      dup1\n      log3\n        /* \"contracts/TurtleDocumentation.sol\":124:11610  contract TurtleDocumentation is Ownable {... */\n      stop\n    tag_74:\n      mload(0x40)\n      shl(0xe5, 0x461bcd)\n      dup2\n      mstore\n      0x20\n      0x04\n      dup3\n      add\n      mstore\n      0x26\n      0x24\n      dup3\n      add\n      mstore\n      0x4f776e61626c653a206e6577206f776e657220697320746865207a65726f2061\n      0x44\n      dup3\n      add\n      mstore\n      shl(0xd0, 0x646472657373)\n      0x64\n      dup3\n      add\n      mstore\n      0x84\n      swap1\n      revert\n    tag_53:\n      jumpi(tag_63, callvalue)\n      jumpi(tag_63, slt(add(not(0x03), calldatasize), 0x60))\n      sub(shl(0x40, 0x01), 0x01)\n      calldataload(0x04)\n      dup2\n      dup2\n      gt\n      tag_63\n      jumpi\n      tag_82\n      swap1\n      calldatasize\n      swap1\n      0x04\n      add\n      tag_5\n      jump\t// in\n    tag_82:\n      0x24\n      swap1\n      dup2\n      calldataload\n      dup4\n      dup2\n      gt\n      tag_63\n      jumpi\n      tag_85\n      swap1\n      calldatasize\n      swap1\n      0x04\n      add\n      tag_5\n      jump\t// in\n    tag_85:\n      swap3\n      calldataload(0x44)\n      swap1\n      dup2\n      gt\n      tag_63\n      jumpi\n      tag_88\n      swap1\n      calldatasize\n      swap1\n      0x04\n      add\n      tag_5\n      jump\t// in\n    tag_88:\n      swap2\n      mload(0x40)\n      dup3\n      mload\n      swap2\n      0x20\n      swap2\n        /* \"contracts/TurtleDocumentation.sol\":9018:9077  require(turtles[_turtleId].exists, \"Turtle does not exist\") */\n      tag_89\n        /* \"contracts/TurtleDocumentation.sol\":124:11610  contract TurtleDocumentation is Ownable {... */\n      0xff\n        /* \"contracts/TurtleDocumentation.sol\":9026:9051  turtles[_turtleId].exists */\n      0x06\n        /* \"contracts/TurtleDocumentation.sol\":124:11610  contract TurtleDocumentation is Ownable {... */\n      dup6\n      dup9\n      add\n      swap7\n      tag_90\n      dup2\n      dup7\n      dup11\n      tag_7\n      jump\t// in\n    tag_90:\n      dup5\n      add\n        /* \"contracts/TurtleDocumentation.sol\":9026:9033  turtles */\n      swap4\n      dup7\n      dup2\n      0x01\n        /* \"contracts/TurtleDocumentation.sol\":124:11610  contract TurtleDocumentation is Ownable {... */\n      swap7\n      dup8\n      dup2\n      mstore\n      sub\n      add\n      swap1\n      keccak256\n        /* \"contracts/TurtleDocumentation.sol\":9026:9051  turtles[_turtleId].exists */\n      add\n        /* \"contracts/TurtleDocumentation.sol\":124:11610  contract TurtleDocumentation is Ownable {... */\n      sload\n      and\n        /* \"contracts/TurtleDocumentation.sol\":9018:9077  require(turtles[_turtleId].exists, \"Turtle does not exist\") */\n      tag_21\n      jump\t// in\n    tag_89:\n        /* \"contracts/TurtleDocumentation.sol\":124:11610  contract TurtleDocumentation is Ownable {... */\n      mload(0x40)\n      swap4\n      dup8\n      mload\n      dup5\n      dup10\n      add\n      swap1\n      tag_91\n      dup2\n      dup9\n      dup5\n      tag_7\n      jump\t// in\n    tag_91:\n      dup7\n      add\n        /* \"contracts/TurtleDocumentation.sol\":9096:9112  ownerToTurtleIds */\n      swap6\n      dup6\n      dup2\n      0x02\n        /* \"contracts/TurtleDocumentation.sol\":124:11610  contract TurtleDocumentation is Ownable {... */\n      swap9\n      dup10\n      dup2\n      mstore\n      sub\n      add\n      swap1\n      keccak256\n      sload\n        /* \"contracts/TurtleDocumentation.sol\":9096:9134  ownerToTurtleIds[_oldOwner].length > 0 */\n      iszero\n        /* \"contracts/TurtleDocumentation.sol\":124:11610  contract TurtleDocumentation is Ownable {... */\n      tag_92\n      jumpi\n      0x00\n        /* \"contracts/TurtleDocumentation.sol\":9313:9326  uint256 i = 0 */\n      dup4\n        /* \"contracts/TurtleDocumentation.sol\":124:11610  contract TurtleDocumentation is Ownable {... */\n      dup2\n        /* \"contracts/TurtleDocumentation.sol\":9313:9326  uint256 i = 0 */\n      dup2\n        /* \"contracts/TurtleDocumentation.sol\":9026:9033  turtles */\n    tag_94:\n      tag_95\n      jumpi\n        /* \"contracts/TurtleDocumentation.sol\":9308:9577  for (uint256 i = 0; i < ownerToTurtleIds[_oldOwner].length; i++) {... */\n    tag_96:\n        /* \"contracts/TurtleDocumentation.sol\":124:11610  contract TurtleDocumentation is Ownable {... */\n      pop\n      pop\n      iszero\n      tag_97\n      jumpi\n      dup5\n      tag_99\n      swap2\n      mload(0x40)\n      dup1\n      swap4\n      dup2\n      swap3\n      dup14\n      mload\n      swap3\n      dup4\n      swap2\n      tag_7\n      jump\t// in\n    tag_99:\n      dup2\n      add\n      dup9\n      dup2\n      mstore\n      sub\n      add\n      swap1\n      keccak256\n      swap1\n      0x00\n        /* \"contracts/TurtleDocumentation.sol\":9819:9832  uint256 i = 0 */\n      dup4\n        /* \"contracts/TurtleDocumentation.sol\":9026:9033  turtles */\n    tag_100:\n      tag_101\n      jumpi\n        /* \"contracts/TurtleDocumentation.sol\":9814:10127  for (uint256 i = 0; i < oldOwnerTurtles.length; i++) {... */\n    tag_102:\n        /* \"contracts/TurtleDocumentation.sol\":124:11610  contract TurtleDocumentation is Ownable {... */\n      dup10\n      dup10\n        /* \"contracts/TurtleDocumentation.sol\":10289:10340  TurtleOwnerChanged(_turtleId, _oldOwner, _newOwner) */\n      tag_103\n      tag_104\n      tag_105\n        /* \"contracts/TurtleDocumentation.sol\":124:11610  contract TurtleDocumentation is Ownable {... */\n      dup13\n        /* \"contracts/TurtleDocumentation.sol\":10228:10271  ownerToTurtleIds[_newOwner].push(_turtleId) */\n      tag_106\n        /* \"contracts/TurtleDocumentation.sol\":124:11610  contract TurtleDocumentation is Ownable {... */\n      dup2\n      dup15\n      dup15\n      mload(0x40)\n      dup1\n      swap3\n      dup3\n      tag_107\n      dup13\n      dup5\n      dup2\n      mload\n      swap4\n      dup5\n      swap3\n      add\n      tag_7\n      jump\t// in\n    tag_107:\n      dup3\n      add\n      swap1\n      dup2\n      mstore\n      sub\n      add\n      swap1\n      keccak256\n        /* \"contracts/TurtleDocumentation.sol\":10228:10271  ownerToTurtleIds[_newOwner].push(_turtleId) */\n      tag_17\n      jump\t// in\n    tag_106:\n        /* \"contracts/TurtleDocumentation.sol\":10289:10340  TurtleOwnerChanged(_turtleId, _oldOwner, _newOwner) */\n      tag_18\n      jump\t// in\n    tag_105:\n      swap4\n      tag_18\n      jump\t// in\n    tag_104:\n      swap2\n      tag_18\n      jump\t// in\n    tag_103:\n      swap2\n      0x80d739977bb0030fd7e876dc1ca9a667adfc1b71fea4820c4266de2ee6d6c657\n        /* \"contracts/TurtleDocumentation.sol\":124:11610  contract TurtleDocumentation is Ownable {... */\n      0x00\n        /* \"contracts/TurtleDocumentation.sol\":10289:10340  TurtleOwnerChanged(_turtleId, _oldOwner, _newOwner) */\n      dup1\n      log4\n        /* \"contracts/TurtleDocumentation.sol\":124:11610  contract TurtleDocumentation is Ownable {... */\n      stop\n        /* \"contracts/TurtleDocumentation.sol\":9862:9865  i++ */\n    tag_101:\n        /* \"contracts/TurtleDocumentation.sol\":124:11610  contract TurtleDocumentation is Ownable {... */\n      dup3\n      sload\n        /* \"contracts/TurtleDocumentation.sol\":9834:9860  i < oldOwnerTurtles.length */\n      dup1\n      dup3\n      lt\n      iszero\n      tag_108\n      jumpi\n        /* \"contracts/TurtleDocumentation.sol\":9913:9931  oldOwnerTurtles[i] */\n      swap1\n      dup4\n      swap3\n      swap2\n      tag_110\n      dup3\n      dup8\n      swap7\n      tag_12\n      jump\t// in\n    tag_110:\n        /* \"contracts/TurtleDocumentation.sol\":124:11610  contract TurtleDocumentation is Ownable {... */\n      pop\n      mload(0x40)\n        /* \"contracts/TurtleDocumentation.sol\":9896:9932  abi.encodePacked(oldOwnerTurtles[i]) */\n      tag_111\n      dup2\n        /* \"contracts/TurtleDocumentation.sol\":124:11610  contract TurtleDocumentation is Ownable {... */\n      tag_112\n        /* \"contracts/TurtleDocumentation.sol\":9896:9932  abi.encodePacked(oldOwnerTurtles[i]) */\n      dup13\n      dup3\n      add\n        /* \"contracts/TurtleDocumentation.sol\":124:11610  contract TurtleDocumentation is Ownable {... */\n      dup1\n      swap6\n      tag_23\n      jump\t// in\n    tag_112:\n        /* \"contracts/TurtleDocumentation.sol\":9896:9932  abi.encodePacked(oldOwnerTurtles[i]) */\n      sub\n        /* \"contracts/TurtleDocumentation.sol\":124:11610  contract TurtleDocumentation is Ownable {... */\n      not(0x1f)\n        /* \"contracts/TurtleDocumentation.sol\":9896:9932  abi.encodePacked(oldOwnerTurtles[i]) */\n      dup2\n      add\n      dup4\n      mstore\n      dup3\n      tag_4\n      jump\t// in\n    tag_111:\n        /* \"contracts/TurtleDocumentation.sol\":124:11610  contract TurtleDocumentation is Ownable {... */\n      mload\n        /* \"contracts/TurtleDocumentation.sol\":9886:9933  keccak256(abi.encodePacked(oldOwnerTurtles[i])) */\n      swap1\n      keccak256\n        /* \"contracts/TurtleDocumentation.sol\":124:11610  contract TurtleDocumentation is Ownable {... */\n      dup11\n      mload(0x40)\n        /* \"contracts/TurtleDocumentation.sol\":9947:9974  abi.encodePacked(_turtleId) */\n      tag_113\n      dup12\n      dup3\n      dup2\n      dup2\n      add\n        /* \"contracts/TurtleDocumentation.sol\":124:11610  contract TurtleDocumentation is Ownable {... */\n      swap5\n      mload\n      tag_114\n      dup2\n      dup8\n      dup13\n      tag_7\n      jump\t// in\n    tag_114:\n      dup2\n      add\n        /* \"contracts/TurtleDocumentation.sol\":9947:9974  abi.encodePacked(_turtleId) */\n      sub\n      dup1\n      dup5\n      mstore\n      add\n      dup3\n      tag_4\n      jump\t// in\n    tag_113:\n        /* \"contracts/TurtleDocumentation.sol\":124:11610  contract TurtleDocumentation is Ownable {... */\n      mload\n        /* \"contracts/TurtleDocumentation.sol\":9937:9975  keccak256(abi.encodePacked(_turtleId)) */\n      swap1\n      keccak256\n        /* \"contracts/TurtleDocumentation.sol\":9886:9975  keccak256(abi.encodePacked(oldOwnerTurtles[i])) == keccak256(abi.encodePacked(_turtleId)) */\n      eq\n        /* \"contracts/TurtleDocumentation.sol\":9882:10116  if (keccak256(abi.encodePacked(oldOwnerTurtles[i])) == keccak256(abi.encodePacked(_turtleId))) {... */\n      tag_115\n      jumpi\n        /* \"contracts/TurtleDocumentation.sol\":9862:9865  i++ */\n    tag_116:\n      pop\n      tag_117\n      swap1\n      tag_22\n      jump\t// in\n    tag_117:\n        /* \"contracts/TurtleDocumentation.sol\":9819:9832  uint256 i = 0 */\n      swap1\n      swap2\n      swap3\n      jump(tag_100)\n        /* \"contracts/TurtleDocumentation.sol\":9882:10116  if (keccak256(abi.encodePacked(oldOwnerTurtles[i])) == keccak256(abi.encodePacked(_turtleId))) {... */\n    tag_115:\n        /* \"contracts/TurtleDocumentation.sol\":124:11610  contract TurtleDocumentation is Ownable {... */\n      swap3\n      swap4\n      pop\n      swap1\n      swap2\n      not(0x00)\n      swap1\n      dup2\n      dup2\n      add\n      swap1\n      dup2\n      gt\n      tag_118\n      jumpi\n        /* \"contracts/TurtleDocumentation.sol\":10017:10060  oldOwnerTurtles[oldOwnerTurtles.length - 1] */\n      tag_120\n      swap1\n      dup6\n      tag_12\n      jump\t// in\n    tag_120:\n        /* \"contracts/TurtleDocumentation.sol\":9996:10014  oldOwnerTurtles[i] */\n      pop\n      tag_121\n      dup4\n      dup7\n      tag_12\n      jump\t// in\n    tag_121:\n        /* \"contracts/TurtleDocumentation.sol\":124:11610  contract TurtleDocumentation is Ownable {... */\n      tag_122\n      jumpi\n      swap1\n      tag_124\n      swap2\n      tag_24\n      jump\t// in\n    tag_124:\n      dup4\n      sload\n      dup1\n      iszero\n      tag_125\n      jumpi\n      add\n      tag_127\n      dup2\n      dup6\n      tag_12\n      jump\t// in\n    tag_127:\n      tag_128\n      jumpi\n      swap2\n        /* \"contracts/TurtleDocumentation.sol\":9862:9865  i++ */\n      tag_117\n        /* \"contracts/TurtleDocumentation.sol\":124:11610  contract TurtleDocumentation is Ownable {... */\n      swap2\n      dup4\n      tag_130\n      dup9\n      swap8\n      swap7\n      swap6\n      sload\n      tag_13\n      jump\t// in\n    tag_130:\n      swap1\n      dup2\n      tag_131\n      jumpi\n        /* \"contracts/TurtleDocumentation.sol\":9882:10116  if (keccak256(abi.encodePacked(oldOwnerTurtles[i])) == keccak256(abi.encodePacked(_turtleId))) {... */\n    tag_132:\n        /* \"contracts/TurtleDocumentation.sol\":124:11610  contract TurtleDocumentation is Ownable {... */\n      pop\n      pop\n      dup5\n      sstore\n        /* \"contracts/TurtleDocumentation.sol\":9882:10116  if (keccak256(abi.encodePacked(oldOwnerTurtles[i])) == keccak256(abi.encodePacked(_turtleId))) {... */\n      swap1\n      jump(tag_116)\n        /* \"contracts/TurtleDocumentation.sol\":124:11610  contract TurtleDocumentation is Ownable {... */\n    tag_131:\n      0x00\n      swap2\n      0x1f\n      dup13\n      dup2\n      dup4\n      gt\n      0x01\n      eq\n      tag_133\n      jumpi\n      pop\n      pop\n      pop\n      sstore\n    tag_135:\n      dup14\n      dup1\n      jump(tag_132)\n    tag_133:\n      dup4\n      swap2\n      tag_136\n      swap2\n      dup7\n      swap5\n      swap6\n      dup6\n      mstore\n      dup5\n      keccak256\n      swap5\n      add\n      0x05\n      shr\n      dup5\n      add\n      dup12\n      dup6\n      add\n      tag_14\n      jump\t// in\n    tag_136:\n      sstore\n      sstore\n      jump(tag_135)\n    tag_128:\n      dup7\n      mstore(0x00, shl(0xe0, 0x4e487b71))\n      mstore(0x04, 0x00)\n      0x00\n      revert\n    tag_125:\n      dup7\n      mstore(0x00, shl(0xe0, 0x4e487b71))\n      mstore(0x04, 0x31)\n      0x00\n      revert\n    tag_122:\n      dup8\n      mstore(0x00, shl(0xe0, 0x4e487b71))\n      mstore(0x04, 0x00)\n      0x00\n      revert\n    tag_118:\n      dup7\n      mstore(0x00, shl(0xe0, 0x4e487b71))\n      mstore(0x04, 0x11)\n      0x00\n      revert\n        /* \"contracts/TurtleDocumentation.sol\":9834:9860  i < oldOwnerTurtles.length */\n    tag_108:\n      pop\n      jump(tag_102)\n        /* \"contracts/TurtleDocumentation.sol\":124:11610  contract TurtleDocumentation is Ownable {... */\n    tag_97:\n      mload(0x40)\n      shl(0xe5, 0x461bcd)\n      dup2\n      mstore\n      0x04\n      dup2\n      add\n      dup7\n      swap1\n      mstore\n      0x22\n      dup2\n      dup7\n      add\n      mstore\n      0x4f6c64206f776e657220646f6573206e6f74206f776e20746869732074757274\n      0x44\n      dup3\n      add\n      mstore\n      shl(0xf0, 0x6c65)\n      0x64\n      dup3\n      add\n      mstore\n      0x84\n      swap1\n      revert\n        /* \"contracts/TurtleDocumentation.sol\":9368:9371  i++ */\n    tag_95:\n        /* \"contracts/TurtleDocumentation.sol\":124:11610  contract TurtleDocumentation is Ownable {... */\n      dup8\n      dup13\n      dup11\n      mload(0x40)\n      dup4\n      dup2\n      dup5\n      mload\n      tag_137\n      dup2\n      dup4\n      dup14\n      tag_7\n      jump\t// in\n    tag_137:\n      dup2\n      add\n      dup5\n      dup2\n      mstore\n      sub\n      add\n      swap1\n      keccak256\n      sload\n        /* \"contracts/TurtleDocumentation.sol\":9328:9366  i < ownerToTurtleIds[_oldOwner].length */\n      dup5\n      lt\n      iszero\n      tag_138\n      jumpi\n        /* \"contracts/TurtleDocumentation.sol\":9419:9449  ownerToTurtleIds[_oldOwner][i] */\n      tag_140\n        /* \"contracts/TurtleDocumentation.sol\":124:11610  contract TurtleDocumentation is Ownable {... */\n      swap3\n      dup5\n      swap3\n      mload(0x40)\n      swap3\n      dup4\n      swap2\n      mload\n      tag_141\n      dup2\n      dup5\n      dup14\n      tag_7\n      jump\t// in\n    tag_141:\n      dup3\n      add\n      swap1\n      dup2\n      mstore\n      sub\n      add\n      swap1\n      keccak256\n        /* \"contracts/TurtleDocumentation.sol\":9419:9449  ownerToTurtleIds[_oldOwner][i] */\n      tag_12\n      jump\t// in\n    tag_140:\n        /* \"contracts/TurtleDocumentation.sol\":124:11610  contract TurtleDocumentation is Ownable {... */\n      pop\n      mload(0x40)\n        /* \"contracts/TurtleDocumentation.sol\":9402:9450  abi.encodePacked(ownerToTurtleIds[_oldOwner][i]) */\n      tag_142\n      dup2\n        /* \"contracts/TurtleDocumentation.sol\":124:11610  contract TurtleDocumentation is Ownable {... */\n      tag_112\n        /* \"contracts/TurtleDocumentation.sol\":9402:9450  abi.encodePacked(ownerToTurtleIds[_oldOwner][i]) */\n      dup13\n      dup3\n      add\n        /* \"contracts/TurtleDocumentation.sol\":124:11610  contract TurtleDocumentation is Ownable {... */\n      dup1\n      swap6\n      tag_23\n      jump\t// in\n        /* \"contracts/TurtleDocumentation.sol\":9402:9450  abi.encodePacked(ownerToTurtleIds[_oldOwner][i]) */\n    tag_142:\n        /* \"contracts/TurtleDocumentation.sol\":124:11610  contract TurtleDocumentation is Ownable {... */\n      mload\n        /* \"contracts/TurtleDocumentation.sol\":9392:9451  keccak256(abi.encodePacked(ownerToTurtleIds[_oldOwner][i])) */\n      swap1\n      keccak256\n        /* \"contracts/TurtleDocumentation.sol\":124:11610  contract TurtleDocumentation is Ownable {... */\n      dup6\n      dup12\n        /* \"contracts/TurtleDocumentation.sol\":9465:9492  abi.encodePacked(_turtleId) */\n      tag_144\n        /* \"contracts/TurtleDocumentation.sol\":124:11610  contract TurtleDocumentation is Ownable {... */\n      dup12\n      mload(0x40)\n        /* \"contracts/TurtleDocumentation.sol\":9465:9492  abi.encodePacked(_turtleId) */\n      dup1\n      swap4\n        /* \"contracts/TurtleDocumentation.sol\":124:11610  contract TurtleDocumentation is Ownable {... */\n      tag_114\n        /* \"contracts/TurtleDocumentation.sol\":9465:9492  abi.encodePacked(_turtleId) */\n      dup4\n      dup4\n      add\n        /* \"contracts/TurtleDocumentation.sol\":124:11610  contract TurtleDocumentation is Ownable {... */\n      swap7\n      dup8\n      swap3\n      mload\n      swap3\n      dup4\n      swap2\n      tag_7\n      jump\t// in\n        /* \"contracts/TurtleDocumentation.sol\":9465:9492  abi.encodePacked(_turtleId) */\n    tag_144:\n        /* \"contracts/TurtleDocumentation.sol\":124:11610  contract TurtleDocumentation is Ownable {... */\n      mload\n        /* \"contracts/TurtleDocumentation.sol\":9455:9493  keccak256(abi.encodePacked(_turtleId)) */\n      swap1\n      keccak256\n        /* \"contracts/TurtleDocumentation.sol\":9392:9493  keccak256(abi.encodePacked(ownerToTurtleIds[_oldOwner][i])) == keccak256(abi.encodePacked(_turtleId)) */\n      eq\n        /* \"contracts/TurtleDocumentation.sol\":9388:9566  if (keccak256(abi.encodePacked(ownerToTurtleIds[_oldOwner][i])) == keccak256(abi.encodePacked(_turtleId))) {... */\n      tag_146\n      jumpi\n        /* \"contracts/TurtleDocumentation.sol\":9368:9371  i++ */\n      tag_148\n      swap1\n      tag_22\n      jump\t// in\n    tag_148:\n        /* \"contracts/TurtleDocumentation.sol\":9313:9326  uint256 i = 0 */\n      dup2\n      jump(tag_94)\n        /* \"contracts/TurtleDocumentation.sol\":9388:9566  if (keccak256(abi.encodePacked(ownerToTurtleIds[_oldOwner][i])) == keccak256(abi.encodePacked(_turtleId))) {... */\n    tag_146:\n        /* \"contracts/TurtleDocumentation.sol\":9514:9526  found = true */\n      pop\n      swap1\n      pop\n        /* \"contracts/TurtleDocumentation.sol\":9545:9550  break */\n      dup4\n      dup12\n      jump(tag_96)\n        /* \"contracts/TurtleDocumentation.sol\":9328:9366  i < ownerToTurtleIds[_oldOwner].length */\n    tag_138:\n      pop\n      pop\n      pop\n      jump(tag_96)\n        /* \"contracts/TurtleDocumentation.sol\":124:11610  contract TurtleDocumentation is Ownable {... */\n    tag_92:\n      mload(0x40)\n      shl(0xe5, 0x461bcd)\n      dup2\n      mstore\n      0x04\n      dup2\n      add\n      dup7\n      swap1\n      mstore\n      0x22\n      dup2\n      dup7\n      add\n      mstore\n      0x4f6c64206f776e657220646f6573206e6f74206f776e20616e7920747572746c\n      0x44\n      dup3\n      add\n      mstore\n      shl(0xf0, 0x6573)\n      0x64\n      dup3\n      add\n      mstore\n      0x84\n      swap1\n      revert\n    tag_51:\n      jumpi(tag_63, callvalue)\n      jumpi(tag_63, slt(add(not(0x03), calldatasize), 0x00))\n      sload(0x00)\n      mload(0x40)\n      sub(shl(0xa0, 0x01), 0x01)\n      swap1\n      swap2\n      and\n      dup2\n      mstore\n      0x20\n      swap1\n      return\n    tag_49:\n      jumpi(tag_63, callvalue)\n      jumpi(tag_63, slt(add(not(0x03), calldatasize), 0x00))\n        /* \"@openzeppelin/contracts/access/Ownable.sol\":1063:1125  modifier onlyOwner() {... */\n      tag_157\n      tag_10\n      jump\t// in\n    tag_157:\n        /* \"contracts/TurtleDocumentation.sol\":124:11610  contract TurtleDocumentation is Ownable {... */\n      0x00\n      dup1\n      sload\n      not(sub(shl(0xa0, 0x01), 0x01))\n      dup2\n      and\n      dup3\n      sstore\n      sub(shl(0xa0, 0x01), 0x01)\n      and\n        /* \"@openzeppelin/contracts/access/Ownable.sol\":2566:2606  OwnershipTransferred(oldOwner, newOwner) */\n      0x8be0079c531659141344cd1fd0a4f28419497f9722a3daafe3b4186f6b6457e0\n        /* \"contracts/TurtleDocumentation.sol\":124:11610  contract TurtleDocumentation is Ownable {... */\n      dup3\n      dup1\n        /* \"@openzeppelin/contracts/access/Ownable.sol\":2566:2606  OwnershipTransferred(oldOwner, newOwner) */\n      log3\n        /* \"contracts/TurtleDocumentation.sol\":124:11610  contract TurtleDocumentation is Ownable {... */\n      stop\n    tag_47:\n      jumpi(tag_63, callvalue)\n      jumpi(tag_63, slt(add(not(0x03), calldatasize), 0x0120))\n      sub(shl(0x40, 0x01), 0x01)\n      calldataload(0x04)\n      dup2\n      dup2\n      gt\n      tag_63\n      jumpi\n      tag_164\n      swap1\n      calldatasize\n      swap1\n      0x04\n      add\n      tag_5\n      jump\t// in\n    tag_164:\n      swap1\n      calldataload(0x24)\n      dup2\n      dup2\n      gt\n      tag_63\n      jumpi\n      tag_167\n      swap1\n      calldatasize\n      swap1\n      0x04\n      add\n      tag_5\n      jump\t// in\n    tag_167:\n      swap1\n      calldataload(0x64)\n      dup2\n      dup2\n      gt\n      tag_63\n      jumpi\n      tag_170\n      swap1\n      calldatasize\n      swap1\n      0x04\n      add\n      tag_5\n      jump\t// in\n    tag_170:\n      tag_171\n      tag_9\n      jump\t// in\n    tag_171:\n      swap4\n      calldataload(0xa4)\n      dup4\n      dup2\n      gt\n      tag_63\n      jumpi\n      tag_174\n      swap1\n      calldatasize\n      swap1\n      0x04\n      add\n      tag_5\n      jump\t// in\n    tag_174:\n      swap2\n      calldataload(0xc4)\n      dup5\n      dup2\n      gt\n      tag_63\n      jumpi\n      tag_177\n      swap1\n      calldatasize\n      swap1\n      0x04\n      add\n      tag_5\n      jump\t// in\n    tag_177:\n      swap3\n      calldataload(0xe4)\n      dup6\n      dup2\n      gt\n      tag_63\n      jumpi\n      tag_180\n      swap1\n      calldatasize\n      swap1\n      0x04\n      add\n      tag_5\n      jump\t// in\n    tag_180:\n      swap7\n      calldataload(0x0104)\n      swap6\n      dup7\n      gt\n      tag_63\n      jumpi\n      0x20\n      swap8\n      tag_183\n        /* \"contracts/TurtleDocumentation.sol\":8526:8575  TurtleDeath(_turtleId, _applicant, _documentHash) */\n      tag_104\n        /* \"contracts/TurtleDocumentation.sol\":124:11610  contract TurtleDocumentation is Ownable {... */\n      swap7\n      tag_185\n      dup11\n      swap6\n      tag_186\n      swap6\n      tag_187\n      tag_106\n      swap10\n      dup16\n      tag_189\n        /* \"contracts/TurtleDocumentation.sol\":8526:8575  TurtleDeath(_turtleId, _applicant, _documentHash) */\n      tag_190\n        /* \"contracts/TurtleDocumentation.sol\":124:11610  contract TurtleDocumentation is Ownable {... */\n      swap16\n      swap2\n      dup15\n      tag_66\n      tag_192\n        /* \"contracts/TurtleDocumentation.sol\":8003:8030  turtles[_turtleId].deathDoc */\n      0x02\n        /* \"contracts/TurtleDocumentation.sol\":124:11610  contract TurtleDocumentation is Ownable {... */\n      swap6\n      calldatasize\n      swap1\n      0x04\n      add\n      tag_5\n      jump\t// in\n    tag_192:\n      swap15\n      dup6\n      mload(0x40)\n      dup6\n      dup2\n      dup7\n      mload\n      tag_193\n      dup2\n      dup4\n      dup6\n      dup12\n      add\n      tag_7\n      jump\t// in\n    tag_193:\n      0x01\n      dup2\n      dup4\n      add\n      mstore\n      dup2\n      add\n      sub\n      add\n      swap1\n      keccak256\n        /* \"contracts/TurtleDocumentation.sol\":8003:8030  turtles[_turtleId].deathDoc */\n      add\n        /* \"contracts/TurtleDocumentation.sol\":124:11610  contract TurtleDocumentation is Ownable {... */\n      mstore(0x00, calldataload(0x44))\n      dup5\n      mstore\n      keccak256(0x00, 0x40)\n      tag_16\n      jump\t// in\n    tag_189:\n      dup2\n      add\n      0x01\n      dup2\n      mstore\n      sub\n      add\n      swap1\n      keccak256\n        /* \"contracts/TurtleDocumentation.sol\":8079:8106  turtles[_turtleId].deathDoc */\n      add\n        /* \"contracts/TurtleDocumentation.sol\":124:11610  contract TurtleDocumentation is Ownable {... */\n      mstore(0x00, calldataload(0x44))\n      0x20\n      mstore\n      0x01\n      keccak256(0x00, 0x40)\n        /* \"contracts/TurtleDocumentation.sol\":8079:8129  turtles[_turtleId].deathDoc[_documentHash].shelter */\n      add\n        /* \"contracts/TurtleDocumentation.sol\":124:11610  contract TurtleDocumentation is Ownable {... */\n      tag_16\n      jump\t// in\n    tag_187:\n        /* \"contracts/TurtleDocumentation.sol\":8003:8030  turtles[_turtleId].deathDoc */\n      0x02\n        /* \"contracts/TurtleDocumentation.sol\":124:11610  contract TurtleDocumentation is Ownable {... */\n      tag_194\n      dup16\n      dup13\n      dup2\n      mload(0x40)\n      swap4\n      dup3\n      dup6\n      dup1\n      swap5\n      mload\n      swap4\n      dup5\n      swap3\n      add\n      tag_7\n      jump\t// in\n    tag_194:\n      dup2\n      add\n      0x01\n      dup2\n      mstore\n      sub\n      add\n      swap1\n      keccak256\n        /* \"contracts/TurtleDocumentation.sol\":8151:8178  turtles[_turtleId].deathDoc */\n      add\n        /* \"contracts/TurtleDocumentation.sol\":124:11610  contract TurtleDocumentation is Ownable {... */\n      mstore(0x00, calldataload(0x44))\n      dup15\n      mstore\n      0xff\n        /* \"contracts/TurtleDocumentation.sol\":8003:8030  turtles[_turtleId].deathDoc */\n      0x02\n        /* \"contracts/TurtleDocumentation.sol\":124:11610  contract TurtleDocumentation is Ownable {... */\n      keccak256(0x00, 0x40)\n        /* \"contracts/TurtleDocumentation.sol\":8151:8199  turtles[_turtleId].deathDoc[_documentHash].count */\n      add\n        /* \"contracts/TurtleDocumentation.sol\":124:11610  contract TurtleDocumentation is Ownable {... */\n      swap2\n      and\n      not(0xff)\n      dup3\n      sload\n      and\n      or\n      swap1\n      sstore\n        /* \"contracts/TurtleDocumentation.sol\":8003:8030  turtles[_turtleId].deathDoc */\n      0x02\n        /* \"contracts/TurtleDocumentation.sol\":124:11610  contract TurtleDocumentation is Ownable {... */\n      tag_195\n      dup15\n      dup12\n      dup2\n      mload(0x40)\n      swap4\n      dup3\n      dup6\n      dup1\n      swap5\n      mload\n      swap4\n      dup5\n      swap3\n      add\n      tag_7\n      jump\t// in\n    tag_195:\n      dup2\n      add\n      0x01\n      dup2\n      mstore\n      sub\n      add\n      swap1\n      keccak256\n        /* \"contracts/TurtleDocumentation.sol\":8219:8246  turtles[_turtleId].deathDoc */\n      add\n        /* \"contracts/TurtleDocumentation.sol\":124:11610  contract TurtleDocumentation is Ownable {... */\n      mstore(0x00, calldataload(0x44))\n      dup14\n      mstore\n      0x03\n      keccak256(0x00, 0x40)\n        /* \"contracts/TurtleDocumentation.sol\":8219:8273  turtles[_turtleId].deathDoc[_documentHash].deathReason */\n      add\n        /* \"contracts/TurtleDocumentation.sol\":124:11610  contract TurtleDocumentation is Ownable {... */\n      tag_16\n      jump\t// in\n    tag_185:\n        /* \"contracts/TurtleDocumentation.sol\":8003:8030  turtles[_turtleId].deathDoc */\n      0x02\n        /* \"contracts/TurtleDocumentation.sol\":124:11610  contract TurtleDocumentation is Ownable {... */\n      mload(0x40)\n      dup13\n      dup2\n      dup2\n      tag_196\n      dup13\n      dup4\n      dup2\n      mload\n      swap4\n      dup5\n      swap3\n      add\n      tag_7\n      jump\t// in\n    tag_196:\n      dup2\n      add\n      0x01\n      dup2\n      mstore\n      sub\n      add\n      swap1\n      keccak256\n        /* \"contracts/TurtleDocumentation.sol\":8299:8326  turtles[_turtleId].deathDoc */\n      add\n        /* \"contracts/TurtleDocumentation.sol\":124:11610  contract TurtleDocumentation is Ownable {... */\n      mstore(0x00, calldataload(0x44))\n      dup12\n      mstore\n      0x04\n      keccak256(0x00, 0x40)\n        /* \"contracts/TurtleDocumentation.sol\":8299:8346  turtles[_turtleId].deathDoc[_documentHash].plan */\n      add\n        /* \"contracts/TurtleDocumentation.sol\":124:11610  contract TurtleDocumentation is Ownable {... */\n      tag_16\n      jump\t// in\n    tag_183:\n        /* \"contracts/TurtleDocumentation.sol\":8003:8030  turtles[_turtleId].deathDoc */\n      0x02\n        /* \"contracts/TurtleDocumentation.sol\":124:11610  contract TurtleDocumentation is Ownable {... */\n      mload(0x40)\n      dup11\n      dup2\n      dup9\n      mload\n      tag_197\n      dup2\n      dup4\n      dup6\n      dup14\n      add\n      tag_7\n      jump\t// in\n    tag_197:\n      dup2\n      add\n      0x01\n      dup2\n      mstore\n      sub\n      add\n      swap1\n      keccak256\n        /* \"contracts/TurtleDocumentation.sol\":8365:8392  turtles[_turtleId].deathDoc */\n      add\n        /* \"contracts/TurtleDocumentation.sol\":124:11610  contract TurtleDocumentation is Ownable {... */\n      mstore(0x00, calldataload(0x44))\n      dup10\n      mstore\n        /* \"contracts/TurtleDocumentation.sol\":8365:8418  turtles[_turtleId].deathDoc[_documentHash].deathImage */\n      0x05\n        /* \"contracts/TurtleDocumentation.sol\":124:11610  contract TurtleDocumentation is Ownable {... */\n      keccak256(0x00, 0x40)\n        /* \"contracts/TurtleDocumentation.sol\":8365:8418  turtles[_turtleId].deathDoc[_documentHash].deathImage */\n      add\n        /* \"contracts/TurtleDocumentation.sol\":124:11610  contract TurtleDocumentation is Ownable {... */\n      tag_16\n      jump\t// in\n    tag_186:\n        /* \"contracts/TurtleDocumentation.sol\":8003:8030  turtles[_turtleId].deathDoc */\n      0x02\n        /* \"contracts/TurtleDocumentation.sol\":124:11610  contract TurtleDocumentation is Ownable {... */\n      mload(0x40)\n      dup9\n      dup2\n      dup7\n      mload\n      tag_198\n      dup2\n      dup4\n      dup6\n      dup12\n      add\n      tag_7\n      jump\t// in\n    tag_198:\n      dup2\n      add\n      0x01\n      dup2\n      mstore\n      sub\n      add\n      swap1\n      keccak256\n        /* \"contracts/TurtleDocumentation.sol\":8443:8470  turtles[_turtleId].deathDoc */\n      add\n        /* \"contracts/TurtleDocumentation.sol\":124:11610  contract TurtleDocumentation is Ownable {... */\n      mstore(0x00, calldataload(0x44))\n      dup8\n      mstore\n        /* \"contracts/TurtleDocumentation.sol\":8443:8495  turtles[_turtleId].deathDoc[_documentHash].diagnosis */\n      0x06\n        /* \"contracts/TurtleDocumentation.sol\":124:11610  contract TurtleDocumentation is Ownable {... */\n      keccak256(0x00, 0x40)\n        /* \"contracts/TurtleDocumentation.sol\":8443:8495  turtles[_turtleId].deathDoc[_documentHash].diagnosis */\n      add\n        /* \"contracts/TurtleDocumentation.sol\":124:11610  contract TurtleDocumentation is Ownable {... */\n      tag_16\n      jump\t// in\n        /* \"contracts/TurtleDocumentation.sol\":8526:8575  TurtleDeath(_turtleId, _applicant, _documentHash) */\n    tag_190:\n        /* \"contracts/TurtleDocumentation.sol\":124:11610  contract TurtleDocumentation is Ownable {... */\n      swap1\n      mload(0x40)\n      swap2\n      calldataload(0x44)\n        /* \"contracts/TurtleDocumentation.sol\":8526:8575  TurtleDeath(_turtleId, _applicant, _documentHash) */\n      swap2\n      0xbf4ff8efb9c111a99679d7a6a4263272c5fa30a2fa39bec8f6e4ce26902fc0be\n        /* \"contracts/TurtleDocumentation.sol\":124:11610  contract TurtleDocumentation is Ownable {... */\n      0x00\n        /* \"contracts/TurtleDocumentation.sol\":8526:8575  TurtleDeath(_turtleId, _applicant, _documentHash) */\n      dup1\n      log4\n        /* \"contracts/TurtleDocumentation.sol\":124:11610  contract TurtleDocumentation is Ownable {... */\n      calldataload(0x44)\n      dup2\n      mstore\n      return\n    tag_45:\n      jumpi(tag_63, callvalue)\n      0x20\n      tag_201\n      tag_202\n      calldatasize\n      tag_6\n      jump\t// in\n    tag_202:\n      swap3\n      swap1\n      0x60\n      0x01a0\n      mload(0x40)\n      tag_203\n      dup2\n      tag_3\n      jump\t// in\n    tag_203:\n      dup3\n      dup2\n      mstore\n      0x00\n      dup6\n      dup3\n      add\n      mstore\n      dup3\n      0x40\n      dup3\n      add\n      mstore\n      dup3\n      dup1\n      dup3\n      add\n      mstore\n      dup3\n      0x80\n      dup3\n      add\n      mstore\n      dup3\n      0xa0\n      dup3\n      add\n      mstore\n      dup3\n      0xc0\n      dup3\n      add\n      mstore\n      dup3\n      0xe0\n      dup3\n      add\n      mstore\n      dup3\n      0x0100\n      dup3\n      add\n      mstore\n      0x00\n      0x0120\n      dup3\n      add\n      mstore\n      dup3\n      0x0140\n      dup3\n      add\n      mstore\n      dup3\n      0x0160\n      dup3\n      add\n      mstore\n      dup3\n      0x0180\n      dup3\n      add\n      mstore\n      add\n      mstore\n      dup2\n      mload(0x40)\n      swap4\n      dup3\n      dup6\n      dup1\n      swap5\n      mload\n      swap4\n      dup5\n      swap3\n      add\n      tag_7\n      jump\t// in\n    tag_201:\n      dup2\n      add\n        /* \"contracts/TurtleDocumentation.sol\":5495:5502  turtles */\n      0x01\n        /* \"contracts/TurtleDocumentation.sol\":124:11610  contract TurtleDocumentation is Ownable {... */\n      dup2\n      mstore\n      sub\n      add\n      swap1\n      keccak256\n      swap1\n      0x00\n      mstore\n      0x20\n      mstore\n      tag_204\n      keccak256(0x00, 0x40)\n      tag_205\n      0x0d\n      mload(0x40)\n      swap3\n      tag_206\n      dup5\n      tag_3\n      jump\t// in\n    tag_206:\n      tag_207\n      dup2\n      tag_19\n      jump\t// in\n    tag_207:\n      dup5\n      mstore\n      0xff\n        /* \"contracts/TurtleDocumentation.sol\":5495:5502  turtles */\n      0x01\n        /* \"contracts/TurtleDocumentation.sol\":124:11610  contract TurtleDocumentation is Ownable {... */\n      dup3\n      add\n      sload\n      and\n      0x20\n      dup6\n      add\n      mstore\n      tag_208\n      0x02\n      dup3\n      add\n      tag_19\n      jump\t// in\n    tag_208:\n      0x40\n      dup6\n      add\n      mstore\n      tag_209\n      0x03\n      dup3\n      add\n      tag_19\n      jump\t// in\n    tag_209:\n      0x60\n      dup6\n      add\n      mstore\n      tag_210\n      0x04\n      dup3\n      add\n      tag_19\n      jump\t// in\n    tag_210:\n      0x80\n      dup6\n      add\n      mstore\n      tag_211\n      0x05\n      dup3\n      add\n      tag_19\n      jump\t// in\n    tag_211:\n      0xa0\n      dup6\n      add\n      mstore\n      tag_212\n      0x06\n      dup3\n      add\n      tag_19\n      jump\t// in\n    tag_212:\n      0xc0\n      dup6\n      add\n      mstore\n      tag_213\n      0x07\n      dup3\n      add\n      tag_19\n      jump\t// in\n    tag_213:\n      0xe0\n      dup6\n      add\n      mstore\n      tag_214\n      0x08\n      dup3\n      add\n      tag_19\n      jump\t// in\n    tag_214:\n      0x0100\n      dup6\n      add\n      mstore\n      0x09\n      dup2\n      add\n      sload\n      0x0120\n      dup6\n      add\n      mstore\n      tag_215\n      0x0a\n      dup3\n      add\n      tag_19\n      jump\t// in\n    tag_215:\n      0x0140\n      dup6\n      add\n      mstore\n      tag_216\n      0x0b\n      dup3\n      add\n      tag_19\n      jump\t// in\n    tag_216:\n      0x0160\n      dup6\n      add\n      mstore\n      tag_217\n      0x0c\n      dup3\n      add\n      tag_19\n      jump\t// in\n    tag_217:\n      0x0180\n      dup6\n      add\n      mstore\n      add\n      tag_19\n      jump\t// in\n    tag_205:\n      0x01a0\n      dup3\n      add\n      mstore\n      tag_218\n      dup2\n      0x01a0\n      tag_219\n      tag_220\n      tag_221\n      tag_222\n      tag_223\n      tag_224\n      tag_225\n      tag_226\n      tag_227\n      mload(0x40)\n      swap14\n      dup15\n      swap14\n      dup15\n      0x20\n      dup2\n      mstore\n      0x40\n      tag_228\n      dup4\n      mload\n      0x01c0\n      0x20\n      dup6\n      add\n      mstore\n      0x01e0\n      dup5\n      add\n      swap1\n      tag_8\n      jump\t// in\n    tag_228:\n      swap3\n      0xff\n      0x20\n      dup3\n      add\n      mload\n      and\n      dup3\n      dup5\n      add\n      mstore\n      add\n      mload\n      swap1\n      0x60\n      not(0x1f)\n      dup3\n      dup6\n      sub\n      add\n      swap2\n      add\n      mstore\n      tag_8\n      jump\t// in\n    tag_204:\n      dup14\n      0x60\n      dup14\n      add\n      mload\n      swap1\n      0x80\n      not(0x1f)\n      dup3\n      dup6\n      sub\n      add\n      swap2\n      add\n      mstore\n      tag_8\n      jump\t// in\n    tag_227:\n      0x80\n      dup12\n      add\n      mload\n      dup14\n      dup3\n      sub\n      not(0x1f)\n      add\n      0xa0\n      dup16\n      add\n      mstore\n      tag_8\n      jump\t// in\n    tag_226:\n      0xa0\n      dup11\n      add\n      mload\n      dup13\n      dup3\n      sub\n      not(0x1f)\n      add\n      0xc0\n      dup15\n      add\n      mstore\n      tag_8\n      jump\t// in\n    tag_225:\n      0xc0\n      dup10\n      add\n      mload\n      dup12\n      dup3\n      sub\n      not(0x1f)\n      add\n      0xe0\n      dup14\n      add\n      mstore\n      tag_8\n      jump\t// in\n    tag_224:\n      0xe0\n      dup9\n      add\n      mload\n      dup11\n      dup3\n      sub\n      not(0x1f)\n      add\n      0x0100\n      dup13\n      add\n      mstore\n      tag_8\n      jump\t// in\n    tag_223:\n      0x0100\n      dup8\n      add\n      mload\n      dup10\n      dup3\n      sub\n      not(0x1f)\n      add\n      0x0120\n      dup12\n      add\n      mstore\n      tag_8\n      jump\t// in\n    tag_222:\n      0x0120\n      dup7\n      add\n      mload\n      0x0140\n      dup10\n      add\n      mstore\n      0x0140\n      dup7\n      add\n      mload\n      not(0x1f)\n      dup10\n      dup4\n      sub\n      add\n      0x0160\n      dup11\n      add\n      mstore\n      tag_8\n      jump\t// in\n    tag_221:\n      0x0160\n      dup6\n      add\n      mload\n      dup8\n      dup3\n      sub\n      not(0x1f)\n      add\n      0x0180\n      dup10\n      add\n      mstore\n      tag_8\n      jump\t// in\n    tag_220:\n      0x0180\n      dup5\n      add\n      mload\n      dup7\n      dup3\n      sub\n      not(0x1f)\n      add\n      dup5\n      dup9\n      add\n      mstore\n      tag_8\n      jump\t// in\n    tag_219:\n      swap2\n      add\n      mload\n      dup4\n      dup3\n      sub\n      not(0x1f)\n      add\n      0x01c0\n      dup6\n      add\n      mstore\n      tag_8\n      jump\t// in\n    tag_218:\n      sub\n      swap1\n      return\n    tag_43:\n      jumpi(tag_63, callvalue)\n      jumpi(tag_63, slt(add(not(0x03), calldatasize), 0x40))\n      sub(shl(0x40, 0x01), 0x01)\n      calldataload(0x04)\n      dup2\n      dup2\n      gt\n      tag_63\n      jumpi\n      tag_235\n      swap1\n      calldatasize\n      swap1\n      0x04\n      add\n      tag_5\n      jump\t// in\n    tag_235:\n      swap1\n      calldataload(0x24)\n      swap1\n      dup2\n      gt\n      tag_63\n      jumpi\n        /* \"contracts/TurtleDocumentation.sol\":3076:3115  TurtleRegistered(_turtleId, _applicant) */\n      tag_104\n        /* \"contracts/TurtleDocumentation.sol\":124:11610  contract TurtleDocumentation is Ownable {... */\n      tag_239\n        /* \"contracts/TurtleDocumentation.sol\":3076:3115  TurtleRegistered(_turtleId, _applicant) */\n      tag_240\n        /* \"contracts/TurtleDocumentation.sol\":124:11610  contract TurtleDocumentation is Ownable {... */\n      swap3\n      calldatasize\n      swap1\n      0x04\n      add\n      tag_5\n      jump\t// in\n    tag_239:\n        /* \"@openzeppelin/contracts/access/Ownable.sol\":1063:1125  modifier onlyOwner() {... */\n      swap3\n      tag_241\n      tag_10\n      jump\t// in\n    tag_241:\n        /* \"contracts/TurtleDocumentation.sol\":2856:2881  turtles[_turtleId].exists */\n      0x06\n        /* \"contracts/TurtleDocumentation.sol\":124:11610  contract TurtleDocumentation is Ownable {... */\n      tag_242\n      0x20\n      mload(0x40)\n        /* \"contracts/TurtleDocumentation.sol\":2847:2911  require(!turtles[_turtleId].exists, \"Turtle already registered\") */\n      tag_243\n        /* \"contracts/TurtleDocumentation.sol\":124:11610  contract TurtleDocumentation is Ownable {... */\n      0xff\n      dup6\n      dup8\n      mload\n      swap4\n      dup6\n      dup2\n      dup2\n      dup12\n      add\n      swap7\n      tag_244\n      dup2\n      dup4\n      dup11\n      tag_7\n      jump\t// in\n    tag_244:\n      dup2\n      add\n        /* \"contracts/TurtleDocumentation.sol\":2856:2863  turtles */\n      0x01\n        /* \"contracts/TurtleDocumentation.sol\":124:11610  contract TurtleDocumentation is Ownable {... */\n      dup2\n      mstore\n      sub\n      add\n      swap1\n      keccak256\n        /* \"contracts/TurtleDocumentation.sol\":2856:2881  turtles[_turtleId].exists */\n      add\n        /* \"contracts/TurtleDocumentation.sol\":124:11610  contract TurtleDocumentation is Ownable {... */\n      sload\n      and\n        /* \"contracts/TurtleDocumentation.sol\":2855:2881  !turtles[_turtleId].exists */\n      iszero\n        /* \"contracts/TurtleDocumentation.sol\":2847:2911  require(!turtles[_turtleId].exists, \"Turtle already registered\") */\n      tag_11\n      jump\t// in\n    tag_243:\n        /* \"contracts/TurtleDocumentation.sol\":124:11610  contract TurtleDocumentation is Ownable {... */\n      mload(0x40)\n      dup1\n      swap4\n      dup2\n      swap3\n      dup8\n      mload\n      swap3\n      dup4\n      swap2\n      tag_7\n      jump\t// in\n    tag_242:\n      dup2\n      add\n        /* \"contracts/TurtleDocumentation.sol\":2856:2863  turtles */\n      0x01\n        /* \"contracts/TurtleDocumentation.sol\":124:11610  contract TurtleDocumentation is Ownable {... */\n      dup2\n      mstore\n      sub\n      add\n      swap1\n      keccak256\n        /* \"contracts/TurtleDocumentation.sol\":2980:2996  newTurtle.exists */\n      add\n        /* \"contracts/TurtleDocumentation.sol\":2856:2863  turtles */\n      0x01\n        /* \"contracts/TurtleDocumentation.sol\":124:11610  contract TurtleDocumentation is Ownable {... */\n      not(0xff)\n      dup3\n      sload\n      and\n      or\n      swap1\n      sstore\n        /* \"contracts/TurtleDocumentation.sol\":3014:3058  ownerToTurtleIds[_applicant].push(_turtleId) */\n      tag_106\n        /* \"contracts/TurtleDocumentation.sol\":124:11610  contract TurtleDocumentation is Ownable {... */\n      dup2\n      mload(0x40)\n      0x20\n      dup2\n      dup9\n      mload\n      tag_246\n      dup2\n      dup4\n      dup6\n      dup14\n      add\n      tag_7\n      jump\t// in\n    tag_246:\n      dup2\n      add\n        /* \"contracts/TurtleDocumentation.sol\":3014:3030  ownerToTurtleIds */\n      0x02\n        /* \"contracts/TurtleDocumentation.sol\":124:11610  contract TurtleDocumentation is Ownable {... */\n      dup2\n      mstore\n      sub\n      add\n      swap1\n      keccak256\n        /* \"contracts/TurtleDocumentation.sol\":3014:3058  ownerToTurtleIds[_applicant].push(_turtleId) */\n      tag_17\n      jump\t// in\n        /* \"contracts/TurtleDocumentation.sol\":3076:3115  TurtleRegistered(_turtleId, _applicant) */\n    tag_240:\n      swap1\n      0x7d904e478df0f515c7058df56a2295c88f46c97f269f153cb964c1574e4ad9e8\n        /* \"contracts/TurtleDocumentation.sol\":124:11610  contract TurtleDocumentation is Ownable {... */\n      0x00\n        /* \"contracts/TurtleDocumentation.sol\":3076:3115  TurtleRegistered(_turtleId, _applicant) */\n      dup1\n      log3\n        /* \"contracts/TurtleDocumentation.sol\":124:11610  contract TurtleDocumentation is Ownable {... */\n      stop\n    tag_41:\n      jumpi(tag_63, callvalue)\n      jumpi(tag_63, slt(add(not(0x03), calldatasize), 0xe0))\n      sub(shl(0x40, 0x01), 0x01)\n      calldataload(0x04)\n      dup2\n      dup2\n      gt\n      tag_63\n      jumpi\n      tag_253\n      swap1\n      calldatasize\n      swap1\n      0x04\n      add\n      tag_5\n      jump\t// in\n    tag_253:\n      swap1\n      calldataload(0x24)\n      dup2\n      dup2\n      gt\n      tag_63\n      jumpi\n      tag_256\n      swap1\n      calldatasize\n      swap1\n      0x04\n      add\n      tag_5\n      jump\t// in\n    tag_256:\n      swap1\n      calldataload(0x44)\n      swap2\n      calldataload(0x64)\n      dup3\n      dup2\n      gt\n      tag_63\n      jumpi\n      tag_259\n      swap1\n      calldatasize\n      swap1\n      0x04\n      add\n      tag_5\n      jump\t// in\n    tag_259:\n      swap1\n      calldataload(0x84)\n      dup4\n      dup2\n      gt\n      tag_63\n      jumpi\n      tag_262\n      swap1\n      calldatasize\n      swap1\n      0x04\n      add\n      tag_5\n      jump\t// in\n    tag_262:\n      swap5\n      calldataload(0xa4)\n      dup5\n      dup2\n      gt\n      tag_63\n      jumpi\n      tag_265\n      swap1\n      calldatasize\n      swap1\n      0x04\n      add\n      tag_5\n      jump\t// in\n    tag_265:\n      calldataload(0xc4)\n      swap5\n      dup6\n      gt\n      tag_63\n      jumpi\n      dup6\n      swap5\n      tag_268\n      swap1\n      calldatasize\n      swap1\n      0x04\n      add\n      tag_5\n      jump\t// in\n    tag_268:\n      swap1\n      mload(0x40)\n      swap1\n      dup4\n      mload\n      swap1\n      0x20\n      swap10\n      dup11\n      dup7\n      add\n      swap3\n      tag_269\n      dup2\n      dup7\n      dup7\n      tag_7\n      jump\t// in\n    tag_269:\n      dup5\n      add\n      dup5\n      dup13\n      0x01\n      swap7\n      dup4\n      dup9\n      dup1\n      swap6\n      mstore\n      sub\n      add\n      swap1\n      keccak256\n        /* \"contracts/TurtleDocumentation.sol\":6808:6839  turtles[_turtleId].transferDocs */\n      add\n        /* \"contracts/TurtleDocumentation.sol\":124:11610  contract TurtleDocumentation is Ownable {... */\n      dup10\n      0x00\n      mstore\n      dup12\n      mstore\n      dup7\n      keccak256(0x00, 0x40)\n      swap1\n      tag_270\n      swap2\n      tag_16\n      jump\t// in\n    tag_270:\n      dup4\n      mload(0x40)\n      dup13\n      dup2\n      dup10\n      mload\n      tag_271\n      dup2\n      dup4\n      dup11\n      tag_7\n      jump\t// in\n    tag_271:\n      dup2\n      add\n      dup5\n      dup2\n      mstore\n      sub\n      add\n      swap1\n      keccak256\n        /* \"contracts/TurtleDocumentation.sol\":6893:6924  turtles[_turtleId].transferDocs */\n      add\n        /* \"contracts/TurtleDocumentation.sol\":124:11610  contract TurtleDocumentation is Ownable {... */\n      dup10\n      0x00\n      mstore\n      dup12\n      mstore\n      dup8\n      keccak256(0x00, 0x40)\n        /* \"contracts/TurtleDocumentation.sol\":6893:6949  turtles[_turtleId].transferDocs[_documentHash].grantorId */\n      0x02\n      add\n        /* \"contracts/TurtleDocumentation.sol\":124:11610  contract TurtleDocumentation is Ownable {... */\n      swap1\n      tag_272\n      swap2\n      tag_16\n      jump\t// in\n    tag_272:\n      dup4\n      mload(0x40)\n      dup13\n      dup2\n      dup10\n      mload\n      tag_273\n      dup2\n      dup4\n      dup11\n      tag_7\n      jump\t// in\n    tag_273:\n      dup2\n      add\n      dup5\n      dup2\n      mstore\n      sub\n      add\n      swap1\n      keccak256\n        /* \"contracts/TurtleDocumentation.sol\":6973:7004  turtles[_turtleId].transferDocs */\n      add\n        /* \"contracts/TurtleDocumentation.sol\":124:11610  contract TurtleDocumentation is Ownable {... */\n      dup10\n      0x00\n      mstore\n      dup12\n      mstore\n      keccak256(0x00, 0x40)\n        /* \"contracts/TurtleDocumentation.sol\":6973:7030  turtles[_turtleId].transferDocs[_documentHash].aquisition */\n      0x07\n      add\n        /* \"contracts/TurtleDocumentation.sol\":124:11610  contract TurtleDocumentation is Ownable {... */\n      swap1\n      tag_274\n      swap2\n      tag_16\n      jump\t// in\n    tag_274:\n      dup3\n      mload(0x40)\n      dup12\n      dup2\n      dup9\n      mload\n      tag_275\n      dup2\n      dup4\n      dup10\n      tag_7\n      jump\t// in\n    tag_275:\n      dup2\n      add\n      dup5\n      dup2\n      mstore\n      sub\n      add\n      swap1\n      keccak256\n        /* \"contracts/TurtleDocumentation.sol\":7055:7086  turtles[_turtleId].transferDocs */\n      add\n        /* \"contracts/TurtleDocumentation.sol\":124:11610  contract TurtleDocumentation is Ownable {... */\n      dup9\n      0x00\n      mstore\n      dup11\n      mstore\n      keccak256(0x00, 0x40)\n        /* \"contracts/TurtleDocumentation.sol\":7055:7110  turtles[_turtleId].transferDocs[_documentHash].fatherId */\n      0x08\n      add\n        /* \"contracts/TurtleDocumentation.sol\":124:11610  contract TurtleDocumentation is Ownable {... */\n      swap1\n      tag_276\n      swap2\n      tag_16\n      jump\t// in\n    tag_276:\n      dup9\n      mload(0x40)\n      dup1\n      dup1\n      swap4\n      dup8\n      mload\n      dup1\n      swap3\n      tag_277\n      swap3\n      tag_7\n      jump\t// in\n    tag_277:\n      dup2\n      add\n      dup5\n      dup2\n      mstore\n      sub\n      add\n      swap1\n      keccak256\n        /* \"contracts/TurtleDocumentation.sol\":7133:7164  turtles[_turtleId].transferDocs */\n      add\n        /* \"contracts/TurtleDocumentation.sol\":124:11610  contract TurtleDocumentation is Ownable {... */\n      dup6\n      0x00\n      mstore\n      dup8\n      mstore\n      keccak256(0x00, 0x40)\n        /* \"contracts/TurtleDocumentation.sol\":7133:7188  turtles[_turtleId].transferDocs[_documentHash].motherId */\n      0x09\n      add\n        /* \"contracts/TurtleDocumentation.sol\":124:11610  contract TurtleDocumentation is Ownable {... */\n      swap1\n      tag_278\n      swap2\n      tag_16\n      jump\t// in\n    tag_278:\n        /* \"contracts/TurtleDocumentation.sol\":7218:7285  TurtleTransferred(_turtleId, _applicant, _grantorId, _documentHash) */\n      tag_279\n      swap1\n      tag_18\n      jump\t// in\n    tag_279:\n        /* \"contracts/TurtleDocumentation.sol\":124:11610  contract TurtleDocumentation is Ownable {... */\n      swap2\n      mload(0x40)\n        /* \"contracts/TurtleDocumentation.sol\":7218:7285  TurtleTransferred(_turtleId, _applicant, _grantorId, _documentHash) */\n      swap2\n      dup3\n      swap2\n      tag_280\n      swap2\n      dup4\n      tag_20\n      jump\t// in\n    tag_280:\n      sub\n      0x5900e70e78483b52bbe5c26fe3eddc846f885a9fe48efe16abcda778278f4f12\n      swap2\n      log3\n        /* \"contracts/TurtleDocumentation.sol\":124:11610  contract TurtleDocumentation is Ownable {... */\n      mload(0x40)\n      swap1\n      dup2\n      mstore\n      return\n    tag_39:\n      jumpi(tag_63, callvalue)\n      0x20\n      dup1\n      tag_283\n      0x04\n      tag_284\n      calldatasize\n      tag_6\n      jump\t// in\n    tag_284:\n      swap4\n      dup5\n      swap4\n      swap2\n      mload(0x40)\n      swap1\n      dup6\n        /* \"contracts/TurtleDocumentation.sol\":10558:10595  turtles[_turtleId].beforeDocumentHash */\n      0x03\n        /* \"contracts/TurtleDocumentation.sol\":124:11610  contract TurtleDocumentation is Ownable {... */\n      dup3\n      mload\n      swap4\n      dup6\n      dup2\n      dup2\n      dup7\n      add\n      swap7\n      tag_285\n      dup2\n      dup4\n      dup11\n      tag_7\n      jump\t// in\n    tag_285:\n      dup2\n      add\n        /* \"contracts/TurtleDocumentation.sol\":10558:10565  turtles */\n      0x01\n        /* \"contracts/TurtleDocumentation.sol\":124:11610  contract TurtleDocumentation is Ownable {... */\n      dup2\n      mstore\n      sub\n      add\n      swap1\n      keccak256\n        /* \"contracts/TurtleDocumentation.sol\":10558:10595  turtles[_turtleId].beforeDocumentHash */\n      add\n        /* \"contracts/TurtleDocumentation.sol\":124:11610  contract TurtleDocumentation is Ownable {... */\n      sstore\n      mload(0x40)\n      swap4\n      dup5\n      swap3\n      dup4\n      swap3\n      mload\n      swap3\n      dup4\n      swap2\n      tag_7\n      jump\t// in\n    tag_283:\n      dup2\n      add\n        /* \"contracts/TurtleDocumentation.sol\":10558:10565  turtles */\n      0x01\n        /* \"contracts/TurtleDocumentation.sol\":124:11610  contract TurtleDocumentation is Ownable {... */\n      dup2\n      mstore\n      sub\n      add\n      swap1\n      keccak256\n        /* \"contracts/TurtleDocumentation.sol\":10622:10660  turtles[_turtleId].currentDocumentHash */\n      add\n        /* \"contracts/TurtleDocumentation.sol\":124:11610  contract TurtleDocumentation is Ownable {... */\n      sstore\n      mload(0x40)\n      swap1\n      dup2\n      mstore\n      return\n    tag_37:\n      jumpi(tag_63, callvalue)\n      jumpi(tag_63, slt(add(not(0x03), calldatasize), 0x0220))\n      sub(shl(0x40, 0x01), 0x01)\n      calldataload(0x04)\n      dup2\n      dup2\n      gt\n      tag_63\n      jumpi\n      tag_292\n      swap1\n      calldatasize\n      swap1\n      0x04\n      add\n      tag_5\n      jump\t// in\n    tag_292:\n      calldataload(0x24)\n      dup3\n      dup2\n      gt\n      tag_63\n      jumpi\n      tag_295\n      swap1\n      calldatasize\n      swap1\n      0x04\n      add\n      tag_5\n      jump\t// in\n    tag_295:\n      swap2\n      calldataload(0x64)\n      0xff\n      dup2\n      and\n      dup2\n      sub\n      tag_63\n      jumpi\n      calldataload(0x84)\n      dup3\n      dup2\n      gt\n      tag_63\n      jumpi\n      tag_300\n      swap1\n      calldatasize\n      swap1\n      0x04\n      add\n      tag_5\n      jump\t// in\n    tag_300:\n      calldataload(0xa4)\n      dup4\n      dup2\n      gt\n      tag_63\n      jumpi\n      tag_303\n      swap1\n      calldatasize\n      swap1\n      0x04\n      add\n      tag_5\n      jump\t// in\n    tag_303:\n      calldataload(0xc4)\n      dup5\n      dup2\n      gt\n      tag_63\n      jumpi\n      tag_306\n      swap1\n      calldatasize\n      swap1\n      0x04\n      add\n      tag_5\n      jump\t// in\n    tag_306:\n      calldataload(0xe4)\n      dup6\n      dup2\n      gt\n      tag_63\n      jumpi\n      tag_309\n      swap1\n      calldatasize\n      swap1\n      0x04\n      add\n      tag_5\n      jump\t// in\n    tag_309:\n      calldataload(0x0104)\n      dup7\n      dup2\n      gt\n      tag_63\n      jumpi\n      tag_312\n      swap1\n      calldatasize\n      swap1\n      0x04\n      add\n      tag_5\n      jump\t// in\n    tag_312:\n      calldataload(0x0124)\n      dup8\n      dup2\n      gt\n      tag_63\n      jumpi\n      tag_315\n      swap1\n      calldatasize\n      swap1\n      0x04\n      add\n      tag_5\n      jump\t// in\n    tag_315:\n      swap1\n      calldataload(0x0144)\n      dup9\n      dup2\n      gt\n      tag_63\n      jumpi\n      tag_318\n      swap1\n      calldatasize\n      swap1\n      0x04\n      add\n      tag_5\n      jump\t// in\n    tag_318:\n      swap3\n      calldataload(0x0184)\n      dup10\n      dup2\n      gt\n      tag_63\n      jumpi\n      tag_321\n      swap1\n      calldatasize\n      swap1\n      0x04\n      add\n      tag_5\n      jump\t// in\n    tag_321:\n      swap5\n      calldataload(0x01a4)\n      dup11\n      dup2\n      gt\n      tag_63\n      jumpi\n      tag_324\n      swap1\n      calldatasize\n      swap1\n      0x04\n      add\n      tag_5\n      jump\t// in\n    tag_324:\n      swap7\n      calldataload(0x01c4)\n      dup12\n      dup2\n      gt\n      tag_63\n      jumpi\n      tag_327\n      swap1\n      calldatasize\n      swap1\n      0x04\n      add\n      tag_5\n      jump\t// in\n    tag_327:\n      swap9\n      calldataload(0x01e4)\n      swap12\n      dup13\n      gt\n      tag_63\n      jumpi\n      dup14\n      swap12\n      tag_330\n      swap1\n      calldatasize\n      swap1\n      0x04\n      add\n      tag_5\n      jump\t// in\n    tag_330:\n      swap11\n      dup14\n      mload(0x40)\n      swap1\n      dup1\n      mload\n      swap2\n      dup1\n      0x20\n      dup4\n      add\n      swap4\n      tag_331\n      dup2\n      dup4\n      dup8\n      tag_7\n      jump\t// in\n    tag_331:\n      dup2\n      add\n      0x01\n      dup2\n      mstore\n      sub\n      0x20\n      add\n      swap1\n      keccak256\n        /* \"contracts/TurtleDocumentation.sol\":3848:3873  turtles[_turtleId].exists */\n      0x06\n      add\n        /* \"contracts/TurtleDocumentation.sol\":124:11610  contract TurtleDocumentation is Ownable {... */\n      sload\n      0xff\n      and\n        /* \"contracts/TurtleDocumentation.sol\":3847:3873  !turtles[_turtleId].exists */\n      iszero\n        /* \"contracts/TurtleDocumentation.sol\":3839:3903  require(!turtles[_turtleId].exists, \"Turtle already registered\") */\n      tag_332\n      swap1\n      tag_11\n      jump\t// in\n    tag_332:\n        /* \"contracts/TurtleDocumentation.sol\":124:11610  contract TurtleDocumentation is Ownable {... */\n      mload(0x40)\n      dup1\n      swap3\n      dup2\n      swap3\n      mload\n      dup1\n      swap3\n      tag_333\n      swap3\n      tag_7\n      jump\t// in\n    tag_333:\n      dup2\n      add\n      0x01\n      dup2\n      mstore\n      sub\n      0x20\n      add\n      swap1\n      keccak256\n      swap13\n      mstore(0x00, calldataload(0x44))\n      dup14\n      0x20\n      mstore\n      keccak256(0x00, 0x40)\n      swap1\n      tag_334\n      swap2\n      tag_16\n      jump\t// in\n    tag_334:\n      mstore(0x00, calldataload(0x44))\n      dup13\n      0x20\n      mstore\n      keccak256(0x00, 0x40)\n      swap1\n      0xff\n      and\n      not(0xff)\n      0x01\n        /* \"contracts/TurtleDocumentation.sol\":4048:4096  newTurtle.multiplicationDoc[_documentHash].count */\n      dup4\n      add\n        /* \"contracts/TurtleDocumentation.sol\":124:11610  contract TurtleDocumentation is Ownable {... */\n      sload\n      and\n      or\n      0x01\n        /* \"contracts/TurtleDocumentation.sol\":4048:4096  newTurtle.multiplicationDoc[_documentHash].count */\n      dup3\n      add\n        /* \"contracts/TurtleDocumentation.sol\":124:11610  contract TurtleDocumentation is Ownable {... */\n      sstore\n        /* \"contracts/TurtleDocumentation.sol\":4116:4163  newTurtle.multiplicationDoc[_documentHash].area */\n      0x02\n      add\n        /* \"contracts/TurtleDocumentation.sol\":124:11610  contract TurtleDocumentation is Ownable {... */\n      swap1\n      tag_335\n      swap2\n      tag_16\n      jump\t// in\n    tag_335:\n      mstore(0x00, calldataload(0x44))\n      dup11\n      0x20\n      mstore\n      keccak256(0x00, 0x40)\n      0x03\n        /* \"contracts/TurtleDocumentation.sol\":4182:4232  newTurtle.multiplicationDoc[_documentHash].purpose */\n      add\n        /* \"contracts/TurtleDocumentation.sol\":124:11610  contract TurtleDocumentation is Ownable {... */\n      swap1\n      tag_336\n      swap2\n      tag_16\n      jump\t// in\n    tag_336:\n      mstore(0x00, calldataload(0x44))\n      dup10\n      0x20\n      mstore\n      keccak256(0x00, 0x40)\n      0x04\n        /* \"contracts/TurtleDocumentation.sol\":4254:4305  newTurtle.multiplicationDoc[_documentHash].location */\n      add\n        /* \"contracts/TurtleDocumentation.sol\":124:11610  contract TurtleDocumentation is Ownable {... */\n      swap1\n      tag_337\n      swap2\n      tag_16\n      jump\t// in\n    tag_337:\n      mstore(0x00, calldataload(0x44))\n      dup9\n      0x20\n      mstore\n      keccak256(0x00, 0x40)\n        /* \"contracts/TurtleDocumentation.sol\":4328:4379  newTurtle.multiplicationDoc[_documentHash].fatherId */\n      0x05\n      add\n        /* \"contracts/TurtleDocumentation.sol\":124:11610  contract TurtleDocumentation is Ownable {... */\n      swap1\n      tag_338\n      swap2\n      tag_16\n      jump\t// in\n    tag_338:\n      mstore(0x00, calldataload(0x44))\n      dup8\n      0x20\n      mstore\n      keccak256(0x00, 0x40)\n        /* \"contracts/TurtleDocumentation.sol\":3848:3873  turtles[_turtleId].exists */\n      0x06\n        /* \"contracts/TurtleDocumentation.sol\":4402:4453  newTurtle.multiplicationDoc[_documentHash].motherId */\n      add\n        /* \"contracts/TurtleDocumentation.sol\":124:11610  contract TurtleDocumentation is Ownable {... */\n      swap1\n      tag_339\n      swap2\n      tag_16\n      jump\t// in\n    tag_339:\n      mstore(0x00, calldataload(0x44))\n      dup7\n      0x20\n      mstore\n      keccak256(0x00, 0x40)\n        /* \"contracts/TurtleDocumentation.sol\":4476:4524  newTurtle.multiplicationDoc[_documentHash].birth */\n      0x07\n      add\n        /* \"contracts/TurtleDocumentation.sol\":124:11610  contract TurtleDocumentation is Ownable {... */\n      swap1\n      tag_340\n      swap2\n      tag_16\n      jump\t// in\n    tag_340:\n      mstore(0x00, calldataload(0x44))\n      dup6\n      0x20\n      mstore\n      keccak256(0x00, 0x40)\n        /* \"contracts/TurtleDocumentation.sol\":4544:4591  newTurtle.multiplicationDoc[_documentHash].name */\n      0x08\n      add\n        /* \"contracts/TurtleDocumentation.sol\":124:11610  contract TurtleDocumentation is Ownable {... */\n      swap1\n      tag_341\n      swap2\n      tag_16\n      jump\t// in\n    tag_341:\n      mstore(0x00, calldataload(0x44))\n      dup5\n      0x20\n      mstore\n      keccak256(0x00, 0x40)\n      calldataload(0x0164)\n        /* \"contracts/TurtleDocumentation.sol\":4610:4659  newTurtle.multiplicationDoc[_documentHash].weight */\n      0x09\n      dup3\n      add\n        /* \"contracts/TurtleDocumentation.sol\":124:11610  contract TurtleDocumentation is Ownable {... */\n      sstore\n        /* \"contracts/TurtleDocumentation.sol\":4680:4729  newTurtle.multiplicationDoc[_documentHash].gender */\n      0x0a\n      add\n        /* \"contracts/TurtleDocumentation.sol\":124:11610  contract TurtleDocumentation is Ownable {... */\n      swap1\n      tag_342\n      swap2\n      tag_16\n      jump\t// in\n    tag_342:\n      mstore(0x00, calldataload(0x44))\n      dup4\n      0x20\n      mstore\n      keccak256(0x00, 0x40)\n        /* \"contracts/TurtleDocumentation.sol\":4750:4814  newTurtle.multiplicationDoc[_documentHash].locationSpecification */\n      0x0b\n      add\n        /* \"contracts/TurtleDocumentation.sol\":124:11610  contract TurtleDocumentation is Ownable {... */\n      swap1\n      tag_343\n      swap2\n      tag_16\n      jump\t// in\n    tag_343:\n      mstore(0x00, calldataload(0x44))\n      dup3\n      0x20\n      mstore\n      keccak256(0x00, 0x40)\n        /* \"contracts/TurtleDocumentation.sol\":4850:4913  newTurtle.multiplicationDoc[_documentHash].multiplicationMethod */\n      0x0c\n      add\n        /* \"contracts/TurtleDocumentation.sol\":124:11610  contract TurtleDocumentation is Ownable {... */\n      swap1\n      tag_344\n      swap2\n      tag_16\n      jump\t// in\n    tag_344:\n      mstore(0x00, calldataload(0x44))\n      dup2\n      0x20\n      mstore\n      keccak256(0x00, 0x40)\n        /* \"contracts/TurtleDocumentation.sol\":4948:5011  newTurtle.multiplicationDoc[_documentHash].shelterSpecification */\n      0x0d\n      add\n        /* \"contracts/TurtleDocumentation.sol\":124:11610  contract TurtleDocumentation is Ownable {... */\n      swap1\n      tag_345\n      swap2\n      tag_16\n      jump\t// in\n    tag_345:\n      calldataload(0x0204)\n        /* \"contracts/TurtleDocumentation.sol\":4328:4379  newTurtle.multiplicationDoc[_documentHash].fatherId */\n      0x05\n        /* \"contracts/TurtleDocumentation.sol\":5046:5066  newTurtle.turtleHash */\n      dup3\n      add\n        /* \"contracts/TurtleDocumentation.sol\":124:11610  contract TurtleDocumentation is Ownable {... */\n      sstore\n        /* \"contracts/TurtleDocumentation.sol\":3848:3873  turtles[_turtleId].exists */\n      0x06\n        /* \"contracts/TurtleDocumentation.sol\":5091:5107  newTurtle.exists */\n      add\n        /* \"contracts/TurtleDocumentation.sol\":124:11610  contract TurtleDocumentation is Ownable {... */\n      not(0xff)\n      dup2\n      sload\n      and\n      0x01\n      or\n      swap1\n      sstore\n      dup1\n      mload(0x40)\n      dup1\n      dup5\n      mload\n      dup2\n      dup2\n      0x20\n      dup9\n      add\n      swap2\n      tag_346\n      swap3\n      tag_7\n      jump\t// in\n    tag_346:\n      dup2\n      add\n        /* \"contracts/TurtleDocumentation.sol\":4116:4163  newTurtle.multiplicationDoc[_documentHash].area */\n      0x02\n        /* \"contracts/TurtleDocumentation.sol\":124:11610  contract TurtleDocumentation is Ownable {... */\n      dup2\n      mstore\n      sub\n      0x20\n      add\n      swap1\n      keccak256\n        /* \"contracts/TurtleDocumentation.sol\":5127:5171  ownerToTurtleIds[_applicant].push(_turtleId) */\n      swap1\n      tag_347\n      swap2\n      tag_17\n      jump\t// in\n    tag_347:\n        /* \"contracts/TurtleDocumentation.sol\":5189:5247  TurtleMultiplication(_turtleId, _applicant, _documentHash) */\n      tag_348\n      swap1\n      tag_18\n      jump\t// in\n    tag_348:\n      swap1\n      tag_349\n      swap1\n      tag_18\n      jump\t// in\n    tag_349:\n        /* \"contracts/TurtleDocumentation.sol\":124:11610  contract TurtleDocumentation is Ownable {... */\n      swap1\n      mload(0x40)\n      swap2\n      calldataload(0x44)\n        /* \"contracts/TurtleDocumentation.sol\":5189:5247  TurtleMultiplication(_turtleId, _applicant, _documentHash) */\n      swap2\n      0x406d6a39963b189ae4d4ba0b53780ecdf05dc013e196662687a246b0a2b70548\n        /* \"contracts/TurtleDocumentation.sol\":124:11610  contract TurtleDocumentation is Ownable {... */\n      0x00\n        /* \"contracts/TurtleDocumentation.sol\":5189:5247  TurtleMultiplication(_turtleId, _applicant, _documentHash) */\n      dup1\n      log4\n        /* \"contracts/TurtleDocumentation.sol\":124:11610  contract TurtleDocumentation is Ownable {... */\n      calldataload(0x44)\n      dup2\n      mstore\n      0x20\n      swap1\n      return\n    tag_35:\n      jumpi(tag_63, callvalue)\n      0x20\n      dup1\n      tag_283\n      0x04\n      tag_353\n      calldatasize\n      tag_6\n      jump\t// in\n    tag_353:\n      swap4\n      dup5\n      swap4\n      swap2\n      mload(0x40)\n      swap1\n      dup5\n      dup2\n      mload\n      swap3\n      dup5\n      dup2\n      dup2\n      dup6\n      add\n      swap6\n      tag_354\n      dup2\n      dup4\n      dup10\n      tag_7\n      jump\t// in\n    tag_354:\n      dup2\n      add\n        /* \"contracts/TurtleDocumentation.sol\":10922:10929  turtles */\n      0x01\n        /* \"contracts/TurtleDocumentation.sol\":124:11610  contract TurtleDocumentation is Ownable {... */\n      dup2\n      mstore\n      sub\n      add\n      swap1\n      keccak256\n        /* \"contracts/TurtleDocumentation.sol\":10922:10960  turtles[_turtleId].currentDocumentHash */\n      add\n        /* \"contracts/TurtleDocumentation.sol\":124:11610  contract TurtleDocumentation is Ownable {... */\n      sload\n        /* \"contracts/TurtleDocumentation.sol\":10882:10919  turtles[_turtleId].beforeDocumentHash */\n      0x03\n        /* \"contracts/TurtleDocumentation.sol\":124:11610  contract TurtleDocumentation is Ownable {... */\n      mload(0x40)\n      dup6\n      dup2\n      dup6\n      mload\n      tag_285\n      dup2\n      dup4\n      dup11\n      tag_7\n      jump\t// in\n    tag_33:\n      jumpi(tag_63, callvalue)\n      0x20\n      dup1\n        /* \"contracts/TurtleDocumentation.sol\":11561:11590  turtles[_turtleId].turtleHash */\n      0x05\n        /* \"contracts/TurtleDocumentation.sol\":124:11610  contract TurtleDocumentation is Ownable {... */\n      tag_358\n      tag_359\n      calldatasize\n      tag_6\n      jump\t// in\n    tag_359:\n      swap4\n      swap1\n      mload(0x40)\n      swap1\n        /* \"contracts/TurtleDocumentation.sol\":11482:11541  require(turtles[_turtleId].exists, \"Turtle does not exist\") */\n      tag_360\n        /* \"contracts/TurtleDocumentation.sol\":124:11610  contract TurtleDocumentation is Ownable {... */\n      0xff\n        /* \"contracts/TurtleDocumentation.sol\":11490:11515  turtles[_turtleId].exists */\n      0x06\n        /* \"contracts/TurtleDocumentation.sol\":124:11610  contract TurtleDocumentation is Ownable {... */\n      dup4\n      mload\n      swap5\n      dup7\n      dup2\n      dup2\n      dup8\n      add\n      swap8\n      tag_361\n      dup2\n      dup4\n      dup12\n      tag_7\n      jump\t// in\n    tag_361:\n      dup2\n      add\n        /* \"contracts/TurtleDocumentation.sol\":11490:11497  turtles */\n      0x01\n        /* \"contracts/TurtleDocumentation.sol\":124:11610  contract TurtleDocumentation is Ownable {... */\n      dup2\n      mstore\n      sub\n      add\n      swap1\n      keccak256\n        /* \"contracts/TurtleDocumentation.sol\":11490:11515  turtles[_turtleId].exists */\n      add\n        /* \"contracts/TurtleDocumentation.sol\":124:11610  contract TurtleDocumentation is Ownable {... */\n      sload\n      and\n        /* \"contracts/TurtleDocumentation.sol\":11482:11541  require(turtles[_turtleId].exists, \"Turtle does not exist\") */\n      tag_21\n      jump\t// in\n    tag_360:\n        /* \"contracts/TurtleDocumentation.sol\":124:11610  contract TurtleDocumentation is Ownable {... */\n      mload(0x40)\n      swap4\n      dup5\n      swap3\n      dup4\n      swap3\n      mload\n      swap3\n      dup4\n      swap2\n      tag_7\n      jump\t// in\n    tag_358:\n      dup2\n      add\n        /* \"contracts/TurtleDocumentation.sol\":11490:11497  turtles */\n      0x01\n        /* \"contracts/TurtleDocumentation.sol\":124:11610  contract TurtleDocumentation is Ownable {... */\n      dup2\n      mstore\n      sub\n      add\n      swap1\n      keccak256\n        /* \"contracts/TurtleDocumentation.sol\":11561:11590  turtles[_turtleId].turtleHash */\n      add\n        /* \"contracts/TurtleDocumentation.sol\":124:11610  contract TurtleDocumentation is Ownable {... */\n      sload\n        /* \"contracts/TurtleDocumentation.sol\":11561:11599  turtles[_turtleId].turtleHash == _hash */\n      eq\n        /* \"contracts/TurtleDocumentation.sol\":124:11610  contract TurtleDocumentation is Ownable {... */\n      mload(0x40)\n      swap1\n      dup2\n      mstore\n      return\n    tag_31:\n      jumpi(tag_63, callvalue)\n      0x20\n        /* \"contracts/TurtleDocumentation.sol\":7521:7528  turtles */\n      0x01\n        /* \"contracts/TurtleDocumentation.sol\":124:11610  contract TurtleDocumentation is Ownable {... */\n      tag_364\n      tag_365\n      calldatasize\n      tag_6\n      jump\t// in\n    tag_365:\n      swap4\n      swap1\n      0x60\n      0x0120\n      mload(0x40)\n      tag_366\n      dup2\n      tag_2\n      jump\t// in\n    tag_366:\n      dup3\n      dup2\n      mstore\n      dup3\n      dup6\n      dup3\n      add\n      mstore\n      dup3\n      0x40\n      dup3\n      add\n      mstore\n      dup3\n      dup1\n      dup3\n      add\n      mstore\n      0x00\n      0x80\n      dup3\n      add\n      mstore\n      dup3\n      0xa0\n      dup3\n      add\n      mstore\n      dup3\n      0xc0\n      dup3\n      add\n      mstore\n      dup3\n      0xe0\n      dup3\n      add\n      mstore\n      dup3\n      0x0100\n      dup3\n      add\n      mstore\n      add\n      mstore\n      dup2\n      mload(0x40)\n      swap4\n      dup3\n      dup6\n      dup1\n      swap5\n      mload\n      swap4\n      dup5\n      swap3\n      add\n      tag_7\n      jump\t// in\n    tag_364:\n      dup2\n      add\n      dup5\n      dup2\n      mstore\n      sub\n      add\n      swap1\n      keccak256\n        /* \"contracts/TurtleDocumentation.sol\":7521:7552  turtles[_turtleId].transferDocs */\n      add\n        /* \"contracts/TurtleDocumentation.sol\":124:11610  contract TurtleDocumentation is Ownable {... */\n      swap1\n      0x00\n      mstore\n      0x20\n      mstore\n      tag_218\n      keccak256(0x00, 0x40)\n      tag_368\n      0x09\n      mload(0x40)\n      swap3\n      tag_369\n      dup5\n      tag_2\n      jump\t// in\n    tag_369:\n      tag_370\n      dup2\n      tag_19\n      jump\t// in\n    tag_370:\n      dup5\n      mstore\n      tag_371\n        /* \"contracts/TurtleDocumentation.sol\":7521:7528  turtles */\n      0x01\n        /* \"contracts/TurtleDocumentation.sol\":124:11610  contract TurtleDocumentation is Ownable {... */\n      dup3\n      add\n      tag_19\n      jump\t// in\n    tag_371:\n      0x20\n      dup6\n      add\n      mstore\n      tag_372\n      0x02\n      dup3\n      add\n      tag_19\n      jump\t// in\n    tag_372:\n      0x40\n      dup6\n      add\n      mstore\n      tag_373\n      0x03\n      dup3\n      add\n      tag_19\n      jump\t// in\n    tag_373:\n      0x60\n      dup6\n      add\n      mstore\n      0xff\n      0x04\n      dup3\n      add\n      sload\n      and\n      0x80\n      dup6\n      add\n      mstore\n      tag_374\n      0x05\n      dup3\n      add\n      tag_19\n      jump\t// in\n    tag_374:\n      0xa0\n      dup6\n      add\n      mstore\n      tag_375\n      0x06\n      dup3\n      add\n      tag_19\n      jump\t// in\n    tag_375:\n      0xc0\n      dup6\n      add\n      mstore\n      tag_376\n      0x07\n      dup3\n      add\n      tag_19\n      jump\t// in\n    tag_376:\n      0xe0\n      dup6\n      add\n      mstore\n      tag_377\n      0x08\n      dup3\n      add\n      tag_19\n      jump\t// in\n    tag_377:\n      0x0100\n      dup6\n      add\n      mstore\n      add\n      tag_19\n      jump\t// in\n    tag_368:\n      0x0120\n      dup3\n      add\n      mstore\n      mload(0x40)\n      swap2\n      dup3\n      swap2\n      0x20\n      dup4\n      mstore\n      0x0120\n      tag_378\n      tag_379\n      tag_380\n      tag_381\n      tag_382\n      tag_383\n      tag_384\n      tag_385\n      dup12\n      0x0140\n      0x20\n      dup13\n      mload\n      swap3\n      add\n      mstore\n      0x0160\n      dup14\n      add\n      swap1\n      tag_8\n      jump\t// in\n    tag_385:\n      0x20\n      dup11\n      add\n      mload\n      dup13\n      dup3\n      sub\n      not(0x1f)\n      add\n      0x40\n      dup15\n      add\n      mstore\n      tag_8\n      jump\t// in\n    tag_384:\n      0x40\n      dup10\n      add\n      mload\n      dup12\n      dup3\n      sub\n      not(0x1f)\n      add\n      0x60\n      dup14\n      add\n      mstore\n      tag_8\n      jump\t// in\n    tag_383:\n      0x60\n      dup9\n      add\n      mload\n      dup11\n      dup3\n      sub\n      not(0x1f)\n      add\n      0x80\n      dup13\n      add\n      mstore\n      tag_8\n      jump\t// in\n    tag_382:\n      0xff\n      0x80\n      dup9\n      add\n      mload\n      and\n      0xa0\n      dup11\n      add\n      mstore\n      0xa0\n      dup8\n      add\n      mload\n      not(0x1f)\n      dup11\n      dup4\n      sub\n      add\n      0xc0\n      dup12\n      add\n      mstore\n      tag_8\n      jump\t// in\n    tag_381:\n      0xc0\n      dup7\n      add\n      mload\n      dup9\n      dup3\n      sub\n      not(0x1f)\n      add\n      0xe0\n      dup11\n      add\n      mstore\n      tag_8\n      jump\t// in\n    tag_380:\n      0xe0\n      dup6\n      add\n      mload\n      dup8\n      dup3\n      sub\n      not(0x1f)\n      add\n      0x0100\n      dup10\n      add\n      mstore\n      tag_8\n      jump\t// in\n    tag_379:\n      0x0100\n      dup5\n      add\n      mload\n      dup7\n      dup3\n      sub\n      not(0x1f)\n      add\n      dup5\n      dup9\n      add\n      mstore\n      tag_8\n      jump\t// in\n    tag_378:\n      swap2\n      add\n      mload\n      dup4\n      dup3\n      sub\n      not(0x1f)\n      add\n      0x0140\n      dup6\n      add\n      mstore\n      tag_8\n      jump\t// in\n    tag_29:\n      jumpi(tag_63, callvalue)\n      jumpi(tag_63, slt(add(not(0x03), calldatasize), 0xe0))\n      sub(shl(0x40, 0x01), 0x01)\n      calldataload(0x04)\n      dup2\n      dup2\n      gt\n      tag_63\n      jumpi\n      tag_392\n      swap1\n      calldatasize\n      swap1\n      0x04\n      add\n      tag_5\n      jump\t// in\n    tag_392:\n      swap1\n      calldataload(0x24)\n      dup2\n      dup2\n      gt\n      tag_63\n      jumpi\n      tag_395\n      swap1\n      calldatasize\n      swap1\n      0x04\n      add\n      tag_5\n      jump\t// in\n    tag_395:\n      swap1\n      calldataload(0x44)\n      swap2\n      calldataload(0x64)\n      dup3\n      dup2\n      gt\n      tag_63\n      jumpi\n      tag_398\n      swap1\n      calldatasize\n      swap1\n      0x04\n      add\n      tag_5\n      jump\t// in\n    tag_398:\n      swap1\n      tag_399\n      tag_9\n      jump\t// in\n    tag_399:\n      swap5\n      calldataload(0xa4)\n      dup5\n      dup2\n      gt\n      tag_63\n      jumpi\n      tag_402\n      swap1\n      calldatasize\n      swap1\n      0x04\n      add\n      tag_5\n      jump\t// in\n    tag_402:\n      calldataload(0xc4)\n      swap5\n      dup6\n      gt\n      tag_63\n      jumpi\n      dup6\n      swap5\n      tag_405\n      swap1\n      calldatasize\n      swap1\n      0x04\n      add\n      tag_5\n      jump\t// in\n    tag_405:\n      swap1\n      mload(0x40)\n      swap1\n      dup4\n      mload\n      swap1\n      0x20\n      swap10\n      dup11\n      dup7\n      add\n      swap3\n      tag_406\n      dup2\n      dup7\n      dup7\n      tag_7\n      jump\t// in\n    tag_406:\n      dup5\n      add\n      dup5\n      dup13\n      0x01\n      swap7\n      dup4\n      dup9\n      dup1\n      swap6\n      mstore\n      sub\n      add\n      swap1\n      keccak256\n        /* \"contracts/TurtleDocumentation.sol\":5917:5948  turtles[_turtleId].transferDocs */\n      add\n        /* \"contracts/TurtleDocumentation.sol\":124:11610  contract TurtleDocumentation is Ownable {... */\n      dup10\n      0x00\n      mstore\n      dup12\n      mstore\n      dup7\n      dup5\n      keccak256(0x00, 0x40)\n        /* \"contracts/TurtleDocumentation.sol\":5917:5979  turtles[_turtleId].transferDocs[_documentHash].assignApplicant */\n      add\n        /* \"contracts/TurtleDocumentation.sol\":124:11610  contract TurtleDocumentation is Ownable {... */\n      swap1\n      tag_407\n      swap2\n      tag_16\n      jump\t// in\n    tag_407:\n      dup4\n      mload(0x40)\n      dup13\n      dup2\n      dup10\n      mload\n      tag_408\n      dup2\n      dup4\n      dup11\n      tag_7\n      jump\t// in\n    tag_408:\n      dup2\n      add\n      dup5\n      dup2\n      mstore\n      sub\n      add\n      swap1\n      keccak256\n        /* \"contracts/TurtleDocumentation.sol\":6003:6034  turtles[_turtleId].transferDocs */\n      add\n        /* \"contracts/TurtleDocumentation.sol\":124:11610  contract TurtleDocumentation is Ownable {... */\n      dup10\n      0x00\n      mstore\n      dup12\n      mstore\n      dup8\n      keccak256(0x00, 0x40)\n      0x03\n        /* \"contracts/TurtleDocumentation.sol\":6003:6060  turtles[_turtleId].transferDocs[_documentHash].assigneeId */\n      add\n        /* \"contracts/TurtleDocumentation.sol\":124:11610  contract TurtleDocumentation is Ownable {... */\n      swap1\n      tag_409\n      swap2\n      tag_16\n      jump\t// in\n    tag_409:\n      dup4\n      mload(0x40)\n      dup13\n      dup2\n      dup10\n      mload\n      tag_410\n      dup2\n      dup4\n      dup11\n      tag_7\n      jump\t// in\n    tag_410:\n      dup2\n      add\n      dup5\n      dup2\n      mstore\n      sub\n      add\n      swap1\n      keccak256\n        /* \"contracts/TurtleDocumentation.sol\":6085:6116  turtles[_turtleId].transferDocs */\n      add\n        /* \"contracts/TurtleDocumentation.sol\":124:11610  contract TurtleDocumentation is Ownable {... */\n      dup10\n      0x00\n      mstore\n      dup12\n      mstore\n      keccak256(0x00, 0x40)\n      0x04\n        /* \"contracts/TurtleDocumentation.sol\":6085:6137  turtles[_turtleId].transferDocs[_documentHash].count */\n      add\n        /* \"contracts/TurtleDocumentation.sol\":124:11610  contract TurtleDocumentation is Ownable {... */\n      swap1\n      0xff\n      and\n      not(0xff)\n      dup3\n      sload\n      and\n      or\n      swap1\n      sstore\n      dup3\n      mload(0x40)\n      dup12\n      dup2\n      dup9\n      mload\n      tag_411\n      dup2\n      dup4\n      dup10\n      tag_7\n      jump\t// in\n    tag_411:\n      dup2\n      add\n      dup5\n      dup2\n      mstore\n      sub\n      add\n      swap1\n      keccak256\n        /* \"contracts/TurtleDocumentation.sol\":6157:6188  turtles[_turtleId].transferDocs */\n      add\n        /* \"contracts/TurtleDocumentation.sol\":124:11610  contract TurtleDocumentation is Ownable {... */\n      dup9\n      0x00\n      mstore\n      dup11\n      mstore\n      keccak256(0x00, 0x40)\n        /* \"contracts/TurtleDocumentation.sol\":6157:6218  turtles[_turtleId].transferDocs[_documentHash].transferReason */\n      0x05\n      add\n        /* \"contracts/TurtleDocumentation.sol\":124:11610  contract TurtleDocumentation is Ownable {... */\n      swap1\n      tag_412\n      swap2\n      tag_16\n      jump\t// in\n    tag_412:\n      dup9\n      mload(0x40)\n      dup1\n      dup1\n      swap4\n      dup8\n      mload\n      dup1\n      swap3\n      tag_413\n      swap3\n      tag_7\n      jump\t// in\n    tag_413:\n      dup2\n      add\n      dup5\n      dup2\n      mstore\n      sub\n      add\n      swap1\n      keccak256\n        /* \"contracts/TurtleDocumentation.sol\":6247:6278  turtles[_turtleId].transferDocs */\n      add\n        /* \"contracts/TurtleDocumentation.sol\":124:11610  contract TurtleDocumentation is Ownable {... */\n      dup6\n      0x00\n      mstore\n      dup8\n      mstore\n      keccak256(0x00, 0x40)\n        /* \"contracts/TurtleDocumentation.sol\":6247:6301  turtles[_turtleId].transferDocs[_documentHash].purpose */\n      0x06\n      add\n        /* \"contracts/TurtleDocumentation.sol\":124:11610  contract TurtleDocumentation is Ownable {... */\n      swap1\n      tag_278\n      swap2\n      tag_16\n      jump\t// in\n    tag_27:\n      jumpi(tag_63, callvalue)\n      tag_419\n      calldatasize\n      tag_6\n      jump\t// in\n    tag_419:\n      mload(0x40)\n      swap1\n      tag_420\n      dup3\n      tag_1\n      jump\t// in\n    tag_420:\n      0x60\n      dup3\n      dup2\n      dup1\n      swap5\n      mstore\n      0x20\n      swap5\n      dup3\n      dup3\n      dup8\n      swap5\n      dup6\n      dup1\n      swap6\n      add\n      mstore\n      0x40\n      dup2\n      add\n      0x00\n      swap1\n      mstore\n      dup2\n      dup1\n      dup3\n      add\n      mstore\n      dup2\n      0x80\n      dup3\n      add\n      mstore\n      dup2\n      0xa0\n      dup3\n      add\n      mstore\n      0xc0\n      add\n      mstore\n      mload(0x40)\n      swap3\n      dup4\n      dup3\n      dup2\n      swap4\n      mload\n      swap3\n      dup4\n      swap2\n      add\n      swap2\n      tag_421\n      swap3\n      tag_7\n      jump\t// in\n    tag_421:\n      dup2\n      add\n        /* \"contracts/TurtleDocumentation.sol\":8805:8812  turtles */\n      0x01\n        /* \"contracts/TurtleDocumentation.sol\":124:11610  contract TurtleDocumentation is Ownable {... */\n      dup2\n      mstore\n      sub\n      add\n      swap1\n      keccak256\n        /* \"contracts/TurtleDocumentation.sol\":8805:8832  turtles[_turtleId].deathDoc */\n      0x02\n      add\n        /* \"contracts/TurtleDocumentation.sol\":124:11610  contract TurtleDocumentation is Ownable {... */\n      swap1\n      0x00\n      mstore\n      dup3\n      mstore\n      keccak256(0x00, 0x40)\n      mload(0x40)\n      swap2\n      tag_422\n      dup4\n      tag_1\n      jump\t// in\n    tag_422:\n      tag_423\n      dup3\n      tag_19\n      jump\t// in\n    tag_423:\n      dup4\n      mstore\n      tag_424\n        /* \"contracts/TurtleDocumentation.sol\":8805:8812  turtles */\n      0x01\n        /* \"contracts/TurtleDocumentation.sol\":124:11610  contract TurtleDocumentation is Ownable {... */\n      dup4\n      add\n      tag_19\n      jump\t// in\n    tag_424:\n      swap2\n      dup5\n      dup5\n      add\n      swap3\n      dup4\n      mstore\n        /* \"contracts/TurtleDocumentation.sol\":8805:8832  turtles[_turtleId].deathDoc */\n      0x02\n        /* \"contracts/TurtleDocumentation.sol\":124:11610  contract TurtleDocumentation is Ownable {... */\n      dup2\n      add\n      sload\n      0xff\n      and\n      0x40\n      dup6\n      add\n      swap1\n      dup2\n      mstore\n      0x03\n      dup3\n      add\n      tag_425\n      swap1\n      tag_19\n      jump\t// in\n    tag_425:\n      dup6\n      dup5\n      add\n      swap1\n      dup2\n      mstore\n      swap1\n      tag_426\n      0x04\n      dup5\n      add\n      tag_19\n      jump\t// in\n    tag_426:\n      0x80\n      dup8\n      add\n      swap1\n      dup2\n      mstore\n      swap2\n      tag_427\n      0x05\n      dup6\n      add\n      tag_19\n      jump\t// in\n    tag_427:\n      swap4\n      0xa0\n      dup9\n      add\n      swap5\n      dup6\n      mstore\n      0x06\n      add\n      tag_428\n      swap1\n      tag_19\n      jump\t// in\n    tag_428:\n      swap5\n      0xc0\n      dup9\n      add\n      swap6\n      dup7\n      mstore\n      mload(0x40)\n      swap9\n      dup10\n      swap9\n      dup2\n      dup11\n      mstore\n      mload\n      swap1\n      dup10\n      add\n      0xe0\n      swap1\n      mstore\n      0x0100\n      dup10\n      add\n      tag_429\n      swap2\n      tag_8\n      jump\t// in\n    tag_429:\n      swap7\n      mload\n      not(0x1f)\n      swap8\n      dup9\n      dup11\n      dup3\n      sub\n      add\n      0x40\n      dup12\n      add\n      mstore\n      tag_430\n      swap2\n      tag_8\n      jump\t// in\n    tag_430:\n      swap3\n      mload\n      0xff\n      and\n      swap1\n      dup9\n      add\n      mstore\n      mload\n      swap1\n      dup6\n      dup8\n      dup3\n      sub\n      add\n      0x80\n      dup9\n      add\n      mstore\n      tag_431\n      swap2\n      tag_8\n      jump\t// in\n    tag_431:\n      swap1\n      mload\n      swap1\n      dup5\n      dup7\n      dup3\n      sub\n      add\n      0xa0\n      dup8\n      add\n      mstore\n      tag_432\n      swap2\n      tag_8\n      jump\t// in\n    tag_432:\n      swap1\n      mload\n      swap1\n      dup4\n      dup6\n      dup3\n      sub\n      add\n      0xc0\n      dup7\n      add\n      mstore\n      tag_433\n      swap2\n      tag_8\n      jump\t// in\n    tag_433:\n      swap1\n      mload\n      swap2\n      dup4\n      dup3\n      sub\n      add\n      0xe0\n      dup5\n      add\n      mstore\n      tag_218\n      swap2\n      tag_8\n      jump\t// in\n    tag_1:\n      0xe0\n      dup2\n      add\n      swap1\n      dup2\n      lt\n      sub(shl(0x40, 0x01), 0x01)\n      dup3\n      gt\n      or\n      tag_435\n      jumpi\n      0x40\n      mstore\n      jump\t// out\n    tag_435:\n      mstore(0x00, shl(0xe0, 0x4e487b71))\n      mstore(0x04, 0x41)\n      revert(0x00, 0x24)\n    tag_2:\n      0x0140\n      dup2\n      add\n      swap1\n      dup2\n      lt\n      sub(shl(0x40, 0x01), 0x01)\n      dup3\n      gt\n      or\n      tag_435\n      jumpi\n      0x40\n      mstore\n      jump\t// out\n    tag_3:\n      0x01c0\n      dup2\n      add\n      swap1\n      dup2\n      lt\n      sub(shl(0x40, 0x01), 0x01)\n      dup3\n      gt\n      or\n      tag_435\n      jumpi\n      0x40\n      mstore\n      jump\t// out\n    tag_4:\n      swap1\n      0x1f\n      dup1\n      not\n      swap2\n      add\n      and\n      dup2\n      add\n      swap1\n      dup2\n      lt\n      sub(shl(0x40, 0x01), 0x01)\n      dup3\n      gt\n      or\n      tag_435\n      jumpi\n      0x40\n      mstore\n      jump\t// out\n    tag_5:\n      dup2\n      0x1f\n      dup3\n      add\n      slt\n      iszero\n      tag_63\n      jumpi\n      dup1\n      calldataload\n      swap1\n      sub(shl(0x40, 0x01), 0x01)\n      dup3\n      gt\n      tag_435\n      jumpi\n      mload(0x40)\n      swap3\n      tag_447\n      0x1f\n      dup5\n      add\n      not(0x1f)\n      and\n      0x20\n      add\n      dup6\n      tag_4\n      jump\t// in\n    tag_447:\n      dup3\n      dup5\n      mstore\n      0x20\n      dup4\n      dup4\n      add\n      add\n      gt\n      tag_63\n      jumpi\n      dup2\n      0x00\n      swap3\n      0x20\n      dup1\n      swap4\n      add\n      dup4\n      dup7\n      add\n      calldatacopy\n      dup4\n      add\n      add\n      mstore\n      swap1\n      jump\t// out\n    tag_6:\n      0x40\n      not(0x03)\n      dup3\n      add\n      slt\n      tag_63\n      jumpi\n      calldataload(0x04)\n      swap1\n      sub(shl(0x40, 0x01), 0x01)\n      dup3\n      gt\n      tag_63\n      jumpi\n      tag_454\n      swap2\n      0x04\n      add\n      tag_5\n      jump\t// in\n    tag_454:\n      swap1\n      calldataload(0x24)\n      swap1\n      jump\t// out\n    tag_7:\n      0x00\n    tag_455:\n      dup4\n      dup2\n      lt\n      tag_456\n      jumpi\n      pop\n      pop\n      0x00\n      swap2\n      add\n      mstore\n      jump\t// out\n    tag_456:\n      dup2\n      dup2\n      add\n      mload\n      dup4\n      dup3\n      add\n      mstore\n      0x20\n      add\n      jump(tag_455)\n    tag_8:\n      swap1\n      0x20\n      swap2\n      tag_458\n      dup2\n      mload\n      dup1\n      swap3\n      dup2\n      dup6\n      mstore\n      dup6\n      dup1\n      dup7\n      add\n      swap2\n      add\n      tag_7\n      jump\t// in\n    tag_458:\n      0x1f\n      add\n      not(0x1f)\n      and\n      add\n      add\n      swap1\n      jump\t// out\n    tag_9:\n      calldataload(0x84)\n      swap1\n      0xff\n      dup3\n      and\n      dup3\n      sub\n      tag_63\n      jumpi\n      jump\t// out\n        /* \"@openzeppelin/contracts/access/Ownable.sol\":1359:1489  function _checkOwner() internal view virtual {... */\n    tag_10:\n        /* \"@openzeppelin/contracts/access/Ownable.sol\":1273:1279  _owner */\n      0x00\n        /* \"contracts/TurtleDocumentation.sol\":124:11610  contract TurtleDocumentation is Ownable {... */\n      sload\n      sub(shl(0xa0, 0x01), 0x01)\n      and\n        /* \"@openzeppelin/contracts/utils/Context.sol\":734:744  msg.sender */\n      caller\n        /* \"@openzeppelin/contracts/access/Ownable.sol\":1422:1445  owner() == _msgSender() */\n      sub\n        /* \"contracts/TurtleDocumentation.sol\":124:11610  contract TurtleDocumentation is Ownable {... */\n      tag_461\n      jumpi\n        /* \"@openzeppelin/contracts/access/Ownable.sol\":1359:1489  function _checkOwner() internal view virtual {... */\n      jump\t// out\n        /* \"contracts/TurtleDocumentation.sol\":124:11610  contract TurtleDocumentation is Ownable {... */\n    tag_461:\n      0x64\n      mload(0x40)\n      shl(0xe5, 0x461bcd)\n      dup2\n      mstore\n      0x20\n      0x04\n      dup3\n      add\n      mstore\n      0x20\n      0x24\n      dup3\n      add\n      mstore\n      0x4f776e61626c653a2063616c6c6572206973206e6f7420746865206f776e6572\n      0x44\n      dup3\n      add\n      mstore\n      revert\n    tag_11:\n      iszero\n      tag_463\n      jumpi\n      jump\t// out\n    tag_463:\n      mload(0x40)\n      shl(0xe5, 0x461bcd)\n      dup2\n      mstore\n      0x20\n      0x04\n      dup3\n      add\n      mstore\n      0x19\n      0x24\n      dup3\n      add\n      mstore\n      0x547572746c6520616c7265616479207265676973746572656400000000000000\n      0x44\n      dup3\n      add\n      mstore\n      0x64\n      swap1\n      revert\n    tag_12:\n      dup1\n      sload\n      dup3\n      lt\n      iszero\n      tag_465\n      jumpi\n      0x00\n      mstore\n      keccak256(0x00, 0x20)\n      add\n      swap1\n      0x00\n      swap1\n      jump\t// out\n    tag_465:\n      mstore(0x00, shl(0xe0, 0x4e487b71))\n      mstore(0x04, 0x32)\n      revert(0x00, 0x24)\n    tag_13:\n      swap1\n      0x01\n      dup3\n      dup2\n      shr\n      swap3\n      and\n      dup1\n      iszero\n      tag_467\n      jumpi\n    tag_468:\n      0x20\n      dup4\n      lt\n      eq\n      tag_469\n      jumpi\n      jump\t// out\n    tag_469:\n      mstore(0x00, shl(0xe0, 0x4e487b71))\n      mstore(0x04, 0x22)\n      revert(0x00, 0x24)\n    tag_467:\n      swap2\n      0x7f\n      and\n      swap2\n      jump(tag_468)\n    tag_14:\n      dup2\n      dup2\n      lt\n      tag_472\n      jumpi\n      pop\n      pop\n      jump\t// out\n    tag_472:\n      0x00\n      dup2\n      sstore\n      0x01\n      add\n      jump(tag_14)\n    tag_15:\n      swap2\n      swap1\n      0x1f\n      dup2\n      gt\n      tag_474\n      jumpi\n      pop\n      pop\n      pop\n      jump\t// out\n    tag_474:\n      tag_476\n      swap3\n      0x00\n      mstore\n      keccak256(0x00, 0x20)\n      swap1\n      0x20\n      0x1f\n      dup5\n      add\n      0x05\n      shr\n      dup4\n      add\n      swap4\n      lt\n      tag_477\n      jumpi\n    tag_478:\n      0x1f\n      add\n      0x05\n      shr\n      add\n      swap1\n      tag_14\n      jump\t// in\n    tag_476:\n      jump\t// out\n    tag_477:\n      swap1\n      swap2\n      pop\n      dup2\n      swap1\n      jump(tag_478)\n    tag_16:\n      swap2\n      swap1\n      swap2\n      dup3\n      mload\n      sub(shl(0x40, 0x01), 0x01)\n      dup2\n      gt\n      tag_435\n      jumpi\n      tag_481\n      dup2\n      tag_482\n      dup5\n      sload\n      tag_13\n      jump\t// in\n    tag_482:\n      dup5\n      tag_15\n      jump\t// in\n    tag_481:\n      0x20\n      dup1\n      0x1f\n      dup4\n      gt\n      0x01\n      eq\n      tag_483\n      jumpi\n      pop\n      dup2\n      swap3\n      swap4\n      swap5\n      0x00\n      swap3\n      tag_485\n      jumpi\n    tag_486:\n      pop\n      pop\n      dup2\n      0x01\n      shl\n      swap2\n      not(0x00)\n      swap1\n      0x03\n      shl\n      shr\n      not\n      and\n      or\n      swap1\n      sstore\n      jump\t// out\n    tag_485:\n      add\n      mload\n      swap1\n      pop\n      codesize\n      dup1\n      jump(tag_486)\n    tag_483:\n      swap1\n      not(0x1f)\n      dup4\n      and\n      swap6\n      dup5\n      0x00\n      mstore\n      dup3\n      0x00\n      keccak256\n      swap3\n      0x00\n      swap1\n    tag_488:\n      dup9\n      dup3\n      lt\n      tag_489\n      jumpi\n      pop\n      pop\n      dup4\n      0x01\n      swap6\n      swap7\n      swap8\n      lt\n      tag_491\n      jumpi\n    tag_492:\n      pop\n      pop\n      pop\n      dup2\n      shl\n      add\n      swap1\n      sstore\n      jump\t// out\n    tag_491:\n      add\n      mload\n      not(0x00)\n      0xf8\n      dup5\n      0x03\n      shl\n      and\n      shr\n      not\n      and\n      swap1\n      sstore\n      codesize\n      dup1\n      dup1\n      jump(tag_492)\n    tag_489:\n      dup1\n      0x01\n      dup6\n      swap7\n      dup3\n      swap5\n      swap7\n      dup7\n      add\n      mload\n      dup2\n      sstore\n      add\n      swap6\n      add\n      swap4\n      add\n      swap1\n      jump(tag_488)\n    tag_17:\n      dup1\n      sload\n      0x010000000000000000\n      dup2\n      lt\n      iszero\n      tag_435\n      jumpi\n      tag_495\n      swap2\n      0x01\n      dup3\n      add\n      dup2\n      sstore\n      tag_12\n      jump\t// in\n    tag_495:\n      swap2\n      swap1\n      swap2\n      tag_496\n      jumpi\n      tag_476\n      swap2\n      tag_16\n      jump\t// in\n    tag_496:\n      mstore(0x00, shl(0xe0, 0x4e487b71))\n      mstore(0x04, 0x00)\n      revert(0x00, 0x24)\n    tag_18:\n      tag_499\n      swap1\n      0x20\n      mload(0x40)\n      swap3\n      dup3\n      dup5\n      dup1\n      swap5\n      mload\n      swap4\n      dup5\n      swap3\n      add\n      tag_7\n      jump\t// in\n    tag_499:\n      dup2\n      add\n      sub\n      swap1\n      keccak256\n      swap1\n      jump\t// out\n    tag_19:\n      swap1\n      mload(0x40)\n      swap2\n      dup3\n      0x00\n      dup3\n      sload\n      swap3\n      tag_500\n      dup5\n      tag_13\n      jump\t// in\n    tag_500:\n      swap1\n      dup2\n      dup5\n      mstore\n      0x01\n      swap5\n      dup6\n      dup2\n      and\n      swap1\n      dup2\n      0x00\n      eq\n      tag_501\n      jumpi\n      pop\n      0x01\n      eq\n      tag_503\n      jumpi\n    tag_504:\n      pop\n      pop\n      tag_476\n      swap3\n      pop\n      sub\n      dup4\n      tag_4\n      jump\t// in\n    tag_503:\n      swap1\n      swap4\n      swap2\n      pop\n      0x00\n      mstore\n      0x20\n      swap1\n      dup2\n      0x00\n      keccak256\n      swap4\n      0x00\n      swap2\n    tag_506:\n      dup2\n      dup4\n      lt\n      tag_507\n      jumpi\n      pop\n      pop\n      tag_476\n      swap4\n      pop\n      dup3\n      add\n      add\n      codesize\n      dup1\n      jump(tag_504)\n    tag_507:\n      dup6\n      sload\n      dup9\n      dup5\n      add\n      dup6\n      add\n      mstore\n      swap5\n      dup6\n      add\n      swap5\n      dup8\n      swap5\n      pop\n      swap2\n      dup4\n      add\n      swap2\n      jump(tag_506)\n    tag_501:\n      swap2\n      pop\n      pop\n      tag_476\n      swap5\n      pop\n      0x20\n      swap3\n      pop\n      not(0xff)\n      and\n      dup3\n      dup5\n      add\n      mstore\n      iszero\n      iszero\n      0x05\n      shl\n      dup3\n      add\n      add\n      codesize\n      dup1\n      jump(tag_504)\n    tag_20:\n      swap1\n      swap2\n      tag_509\n      tag_510\n      swap4\n      0x40\n      dup5\n      mstore\n      0x40\n      dup5\n      add\n      swap1\n      tag_8\n      jump\t// in\n    tag_509:\n      swap2\n      0x20\n      dup2\n      dup5\n      sub\n      swap2\n      add\n      mstore\n      tag_8\n      jump\t// in\n    tag_510:\n      swap1\n      jump\t// out\n    tag_21:\n      iszero\n      tag_511\n      jumpi\n      jump\t// out\n    tag_511:\n      mload(0x40)\n      shl(0xe5, 0x461bcd)\n      dup2\n      mstore\n      0x20\n      0x04\n      dup3\n      add\n      mstore\n      0x15\n      0x24\n      dup3\n      add\n      mstore\n      shl(0x5a, 0x151d5c9d1b1948191bd95cc81b9bdd08195e1a5cdd)\n      0x44\n      dup3\n      add\n      mstore\n      0x64\n      swap1\n      revert\n    tag_22:\n      not(0x00)\n      dup2\n      eq\n      tag_513\n      jumpi\n      0x01\n      add\n      swap1\n      jump\t// out\n    tag_513:\n      mstore(0x00, shl(0xe0, 0x4e487b71))\n      mstore(0x04, 0x11)\n      revert(0x00, 0x24)\n    tag_23:\n      0x00\n      swap3\n      swap2\n      dup2\n      sload\n      tag_515\n      dup2\n      tag_13\n      jump\t// in\n    tag_515:\n      swap3\n      0x01\n      swap2\n      dup1\n      dup4\n      and\n      swap1\n      dup2\n      iszero\n      tag_516\n      jumpi\n      pop\n      0x01\n      eq\n      tag_518\n      jumpi\n    tag_519:\n      pop\n      pop\n      pop\n      pop\n      jump\t// out\n    tag_518:\n      swap1\n      swap2\n      swap3\n      swap4\n      swap5\n      pop\n      0x00\n      mstore\n      0x20\n      swap1\n      dup2\n      0x00\n      keccak256\n      swap1\n      0x00\n      swap2\n    tag_520:\n      dup6\n      dup4\n      lt\n      tag_521\n      jumpi\n      pop\n      pop\n      pop\n      pop\n      add\n      swap1\n      codesize\n      dup1\n      dup1\n      dup1\n      jump(tag_519)\n    tag_521:\n      dup1\n      sload\n      dup6\n      dup5\n      add\n      mstore\n      swap2\n      dup4\n      add\n      swap2\n      dup2\n      add\n      jump(tag_520)\n    tag_516:\n      not(0xff)\n      and\n      dup5\n      mstore\n      pop\n      pop\n      pop\n      dup2\n      iszero\n      iszero\n      swap1\n      swap2\n      mul\n      add\n      swap2\n      pop\n      codesize\n      dup1\n      dup1\n      dup1\n      jump(tag_519)\n    tag_24:\n      swap1\n      dup1\n      dup3\n      eq\n      tag_523\n      jumpi\n      tag_525\n      dup2\n      sload\n      tag_13\n      jump\t// in\n    tag_525:\n      swap1\n      sub(shl(0x40, 0x01), 0x01)\n      dup3\n      gt\n      tag_435\n      jumpi\n      dup2\n      swap1\n      tag_528\n      dup3\n      tag_529\n      dup7\n      sload\n      tag_13\n      jump\t// in\n    tag_529:\n      dup7\n      tag_15\n      jump\t// in\n    tag_528:\n      0x00\n      swap1\n      0x1f\n      dup4\n      gt\n      0x01\n      eq\n      tag_530\n      jumpi\n      0x00\n      swap3\n      tag_532\n      jumpi\n      pop\n      pop\n      dup2\n      0x01\n      shl\n      swap2\n      not(0x00)\n      swap1\n      0x03\n      shl\n      shr\n      not\n      and\n      or\n      swap1\n      sstore\n      jump\t// out\n    tag_532:\n      add\n      sload\n      swap1\n      pop\n      codesize\n      dup1\n      jump(tag_486)\n    tag_530:\n      dup2\n      mstore\n      0x20\n      dup1\n      dup3\n      keccak256\n      dup6\n      dup4\n      mstore\n      dup2\n      dup4\n      keccak256\n      swap4\n      pop\n      swap1\n      not(0x1f)\n      dup6\n      and\n      swap1\n      dup4\n      swap1\n    tag_535:\n      dup3\n      dup3\n      lt\n      tag_536\n      jumpi\n      pop\n      pop\n      swap1\n      dup5\n      0x01\n      swap6\n      swap5\n      swap4\n      swap3\n      lt\n      tag_538\n      jumpi\n      pop\n      pop\n      pop\n      dup2\n      shl\n      add\n      swap1\n      sstore\n      jump\t// out\n    tag_538:\n      add\n      sload\n      not(0x00)\n      0xf8\n      dup5\n      0x03\n      shl\n      and\n      shr\n      not\n      and\n      swap1\n      sstore\n      codesize\n      dup1\n      dup1\n      jump(tag_492)\n    tag_536:\n      dup5\n      swap6\n      dup2\n      swap3\n      swap6\n      dup6\n      add\n      sload\n      dup2\n      sstore\n      0x01\n      dup1\n      swap2\n      add\n      swap7\n      add\n      swap5\n      add\n      swap1\n      jump(tag_535)\n    tag_523:\n      pop\n      pop\n      jump\t// out\n\n    auxdata: 0xa2646970667358221220fdc11c7b1b9d50febd115e56ca8f1fce9cd89f4681c7c4cf66b598937e2ababd64736f6c63430008120033\n}\n",
				"bytecode": {
					"linkReferences": {},
					"object": "6080806040523461005b5760008054336001600160a01b0319821681178355916001600160a01b03909116907f8be0079c531659141344cd1fd0a4f28419497f9722a3daafe3b4186f6b6457e09080a36120a290816100618239f35b600080fdfe6080604052600436101561001257600080fd5b60003560e01c806317aa1f481461183b57806318e1a28a1461167c5780631a0642ef1461144d5780631b979af1146113de578063229aa9141461138b578063358a3d3714610fce578063482346bd14610f68578063596c442a14610d585780635c493eaa14610c51578063673ae4c1146109625780636c1dcaf8146106bd578063715018a6146106645780638da5cb5b1461063b578063ce5f0b7d146101fa578063f2fde38b1461012f5763f3cb197d146100cc57600080fd5b3461012a57602036600319011261012a576004356001600160401b03811161012a5760046101166020610103819436908501611a60565b8160405193828580945193849201611ae7565b810160018152030190200154604051908152f35b600080fd5b3461012a57602036600319011261012a576004356001600160a01b038181169182900361012a5761015e611b3f565b81156101a657600054826bffffffffffffffffffffffff60a01b821617600055167f8be0079c531659141344cd1fd0a4f28419497f9722a3daafe3b4186f6b6457e0600080a3005b60405162461bcd60e51b815260206004820152602660248201527f4f776e61626c653a206e6577206f776e657220697320746865207a65726f206160448201526564647265737360d01b6064820152608490fd5b3461012a57606036600319011261012a576001600160401b0360043581811161012a5761022b903690600401611a60565b602490813583811161012a57610245903690600401611a60565b9260443590811161012a5761025e903690600401611a60565b9160405182519160209161029560ff60068588019661027e81868a611ae7565b840193868160019687815203019020015416611ea4565b604051938751848901906102aa818884611ae7565b86019585816002988981520301902054156105ec5760008381815b610542575b5050156104f357846102e791604051809381928d51928391611ae7565b810188815203019020906000835b610369575b898961034161033b6103358c610330818e8e6040518092826103228c84815193849201611ae7565b820190815203019020611d70565b611db8565b93611db8565b91611db8565b917f80d739977bb0030fd7e876dc1ca9a667adfc1b71fea4820c4266de2ee6d6c657600080a4005b8254808210156104ed5790839291610382828796611be3565b506040516103a5816103978c82018095611f0d565b03601f198101835282611a3f565b5190208a6040516103ce8b8281810194516103c181878c611ae7565b8101038084520182611a3f565b519020146103e9575b506103e190611ee8565b9091926102f5565b9293509091600019908181019081116104d8576104069085611be3565b506104118386611be3565b6104c3579061041f91611f90565b835480156104ae57016104328185611be3565b61049957916103e191836104498897969554611c11565b908161045a575b50508455906103d7565b600091601f8c81831160011461047657505050555b8d80610450565b83916104929186949585528420940160051c84018b8501611c4b565b555561046f565b86634e487b7160e01b60005260006004526000fd5b86634e487b7160e01b60005260316004526000fd5b87634e487b7160e01b60005260006004526000fd5b86634e487b7160e01b60005260116004526000fd5b506102fa565b60405162461bcd60e51b8152600481018690526022818601527f4f6c64206f776e657220646f6573206e6f74206f776e207468697320747572746044820152616c6560f01b6064820152608490fd5b878c8a6040518381845161055781838d611ae7565b810184815203019020548410156105e45761058e9284926040519283915161058081848d611ae7565b820190815203019020611be3565b506040516105a3816103978c82018095611f0d565b519020858b6105c38b60405180936103c183830196879251928391611ae7565b519020146105da576105d490611ee8565b816102c5565b509050838b6102ca565b5050506102ca565b60405162461bcd60e51b8152600481018690526022818601527f4f6c64206f776e657220646f6573206e6f74206f776e20616e7920747572746c604482015261657360f01b6064820152608490fd5b3461012a57600036600319011261012a576000546040516001600160a01b039091168152602090f35b3461012a57600036600319011261012a5761067d611b3f565b600080546001600160a01b0319811682556001600160a01b03167f8be0079c531659141344cd1fd0a4f28419497f9722a3daafe3b4186f6b6457e08280a3005b3461012a5761012036600319011261012a576001600160401b0360043581811161012a576106ef903690600401611a60565b9060243581811161012a57610708903690600401611a60565b9060643581811161012a57610721903690600401611a60565b610729611b2f565b9360a43583811161012a57610742903690600401611a60565b9160c43584811161012a5761075b903690600401611a60565b9260e43585811161012a57610774903690600401611a60565b966101043595861161012a576020976108c161033b966108898a956108f79561080d610330998f6107ec61092d9f918e6101036107b76002953690600401611a60565b9e85604051858186516107cd8183858b01611ae7565b6001818301528101030190200160443560005284526040600020611ca9565b81016001815203019020016044356000526020526001604060002001611ca9565b60026108278f8c8160405193828580945193849201611ae7565b81016001815203019020016044356000528e5260ff6002604060002001911660ff1982541617905560026108698e8b8160405193828580945193849201611ae7565b81016001815203019020016044356000528d526003604060002001611ca9565b60026040518c81816108a18c83815193849201611ae7565b81016001815203019020016044356000528b526004604060002001611ca9565b60026040518a8188516108d78183858d01611ae7565b810160018152030190200160443560005289526005604060002001611ca9565b60026040518881865161090d8183858b01611ae7565b810160018152030190200160443560005287526006604060002001611ca9565b9060405191604435917fbf4ff8efb9c111a99679d7a6a4263272c5fa30a2fa39bec8f6e4ce26902fc0be600080a46044358152f35b3461012a5760206109ed61097536611ab6565b929060606101a060405161098881611a23565b82815260008582015282604082015282808201528260808201528260a08201528260c08201528260e082015282610100820152600061012082015282610140820152826101608201528261018082015201528160405193828580945193849201611ae7565b8101600181520301902090600052602052610b5d6040600020610aef600d60405192610a1884611a23565b610a2181611dd8565b845260ff6001820154166020850152610a3c60028201611dd8565b6040850152610a4d60038201611dd8565b6060850152610a5e60048201611dd8565b6080850152610a6f60058201611dd8565b60a0850152610a8060068201611dd8565b60c0850152610a9160078201611dd8565b60e0850152610aa260088201611dd8565b6101008501526009810154610120850152610abf600a8201611dd8565b610140850152610ad1600b8201611dd8565b610160850152610ae3600c8201611dd8565b61018085015201611dd8565b6101a0820152610c4d816101a0610c38610c22610c0a610be6610bce610bb7610ba1610b8b610b756040519d8e9d8e602081526040610b3c83516101c060208501526101e0840190611b0a565b9260ff602082015116828401520151906060601f1982850301910152611b0a565b8d60608d0151906080601f1982850301910152611b0a565b60808b01518d8203601f190160a08f0152611b0a565b60a08a01518c8203601f190160c08e0152611b0a565b60c08901518b8203601f190160e08d0152611b0a565b60e08801518a8203601f19016101008c0152611b0a565b610100870151898203601f19016101208b0152611b0a565b610120860151610140890152610140860151601f19898303016101608a0152611b0a565b610160850151878203601f1901610180890152611b0a565b610180840151868203601f190184880152611b0a565b910151838203601f19016101c0850152611b0a565b0390f35b3461012a57604036600319011261012a576001600160401b0360043581811161012a57610c82903690600401611a60565b9060243590811161012a5761033b610ca1610d30923690600401611a60565b92610caa611b3f565b6006610cf26020604051610ce160ff858751938581818b0196610cce81838a611ae7565b8101600181520301902001541615611b97565b604051809381928751928391611ae7565b8101600181520301902001600160ff19825416179055610330816040516020818851610d218183858d01611ae7565b81016002815203019020611d70565b907f7d904e478df0f515c7058df56a2295c88f46c97f269f153cb964c1574e4ad9e8600080a3005b3461012a5760e036600319011261012a576001600160401b0360043581811161012a57610d89903690600401611a60565b9060243581811161012a57610da2903690600401611a60565b906044359160643582811161012a57610dbf903690600401611a60565b9060843583811161012a57610dd8903690600401611a60565b9460a43584811161012a57610df1903690600401611a60565b60c43594851161012a578594610e0b903690600401611a60565b90604051908351906020998a860192610e25818686611ae7565b8401848c60019683888095520301902001896000528b5286604060002090610e4c91611ca9565b836040518c818951610e5f81838a611ae7565b81018481520301902001896000528b5287604060002060020190610e8291611ca9565b836040518c818951610e9581838a611ae7565b81018481520301902001896000528b52604060002060070190610eb791611ca9565b826040518b818851610eca818389611ae7565b81018481520301902001886000528a52604060002060080190610eec91611ca9565b8860405180809387518092610f0092611ae7565b81018481520301902001856000528752604060002060090190610f2291611ca9565b610f2b90611db8565b91604051918291610f3c9183611e7c565b037f5900e70e78483b52bbe5c26fe3eddc846f885a9fe48efe16abcda778278f4f1291a3604051908152f35b3461012a57602080610fba6004610f7e36611ab6565b9384939160405190856003825193858181860196610f9d81838a611ae7565b810160018152030190200155604051938492839251928391611ae7565b810160018152030190200155604051908152f35b3461012a5761022036600319011261012a576001600160401b0360043581811161012a57611000903690600401611a60565b60243582811161012a57611018903690600401611a60565b9160643560ff8116810361012a5760843582811161012a5761103e903690600401611a60565b60a43583811161012a57611056903690600401611a60565b60c43584811161012a5761106e903690600401611a60565b60e43585811161012a57611086903690600401611a60565b6101043586811161012a5761109f903690600401611a60565b6101243587811161012a576110b8903690600401611a60565b906101443588811161012a576110d2903690600401611a60565b926101843589811161012a576110ec903690600401611a60565b946101a4358a811161012a57611106903690600401611a60565b966101c4358b811161012a57611120903690600401611a60565b986101e4359b8c1161012a578d9b61113c903690600401611a60565b9a8d60405190805191806020830193611156818387611ae7565b8101600181520360200190206006015460ff161561117390611b97565b6040518092819251809261118692611ae7565b8101600181520360200190209c6044356000528d6020526040600020906111ac91611ca9565b6044356000528c60205260406000209060ff1660ff19600183015416176001820155600201906111db91611ca9565b6044356000528a6020526040600020600301906111f791611ca9565b6044356000528960205260406000206004019061121391611ca9565b6044356000528860205260406000206005019061122f91611ca9565b6044356000528760205260406000206006019061124b91611ca9565b6044356000528660205260406000206007019061126791611ca9565b6044356000528560205260406000206008019061128391611ca9565b604435600052846020526040600020610164356009820155600a01906112a891611ca9565b604435600052836020526040600020600b01906112c491611ca9565b604435600052826020526040600020600c01906112e091611ca9565b604435600052816020526040600020600d01906112fc91611ca9565b61020435600582015560060160ff198154166001179055806040518084518181602088019161132a92611ae7565b8101600281520360200190209061134091611d70565b61134990611db8565b9061135390611db8565b9060405191604435917f406d6a39963b189ae4d4ba0b53780ecdf05dc013e196662687a246b0a2b70548600080a46044358152602090f35b3461012a57602080610fba60046113a136611ab6565b9384939160405190848151928481818501956113be818389611ae7565b810160018152030190200154600360405185818551610f9d81838a611ae7565b3461012a5760208060056114386113f436611ab6565b93906040519061142760ff600683519486818187019761141581838b611ae7565b81016001815203019020015416611ea4565b604051938492839251928391611ae7565b81016001815203019020015414604051908152f35b3461012a57602060016114bd61146236611ab6565b9390606061012060405161147581611a07565b82815282858201528260408201528280820152600060808201528260a08201528260c08201528260e08201528261010082015201528160405193828580945193849201611ae7565b8101848152030190200190600052602052610c4d604060002061157e6009604051926114e884611a07565b6114f181611dd8565b84526114ff60018201611dd8565b602085015261151060028201611dd8565b604085015261152160038201611dd8565b606085015260ff600482015416608085015261153f60058201611dd8565b60a085015261155060068201611dd8565b60c085015261156160078201611dd8565b60e085015261157260088201611dd8565b61010085015201611dd8565b6101208201526040519182916020835261012061166761165161163a6116246116016115eb6115d56115bf8b61014060208c519201526101608d0190611b0a565b60208a01518c8203601f190160408e0152611b0a565b60408901518b8203601f190160608d0152611b0a565b60608801518a8203601f190160808c0152611b0a565b60ff60808801511660a08a015260a0870151601f198a83030160c08b0152611b0a565b60c0860151888203601f190160e08a0152611b0a565b60e0850151878203601f1901610100890152611b0a565b610100840151868203601f190184880152611b0a565b910151838203601f1901610140850152611b0a565b3461012a5760e036600319011261012a576001600160401b0360043581811161012a576116ad903690600401611a60565b9060243581811161012a576116c6903690600401611a60565b906044359160643582811161012a576116e3903690600401611a60565b906116ec611b2f565b9460a43584811161012a57611705903690600401611a60565b60c43594851161012a57859461171f903690600401611a60565b90604051908351906020998a860192611739818686611ae7565b8401848c60019683888095520301902001896000528b5286846040600020019061176291611ca9565b836040518c81895161177581838a611ae7565b81018481520301902001896000528b528760406000206003019061179891611ca9565b836040518c8189516117ab81838a611ae7565b81018481520301902001896000528b5260406000206004019060ff1660ff19825416179055826040518b8188516117e3818389611ae7565b81018481520301902001886000528a5260406000206005019061180591611ca9565b886040518080938751809261181992611ae7565b81018481520301902001856000528752604060002060060190610f2291611ca9565b3461012a5761184936611ab6565b60405190611856826119d6565b60608281809452602094828287948580950152604081016000905281808201528160808201528160a082015260c00152604051928382819351928391019161189d92611ae7565b810160018152030190206002019060005282526040600020604051916118c2836119d6565b6118cb82611dd8565b83526118d960018301611dd8565b91848401928352600281015460ff1660408501908152600382016118fc90611dd8565b8584019081529061190f60048401611dd8565b608087019081529161192360058501611dd8565b9360a0880194855260060161193790611dd8565b9460c08801958652604051988998818a525190890160e09052610100890161195e91611b0a565b9651601f1997888a82030160408b015261197791611b0a565b925160ff169088015251908587820301608088015261199591611b0a565b905190848682030160a08701526119ab91611b0a565b905190838582030160c08601526119c191611b0a565b9051918382030160e0840152610c4d91611b0a565b60e081019081106001600160401b038211176119f157604052565b634e487b7160e01b600052604160045260246000fd5b61014081019081106001600160401b038211176119f157604052565b6101c081019081106001600160401b038211176119f157604052565b90601f801991011681019081106001600160401b038211176119f157604052565b81601f8201121561012a578035906001600160401b0382116119f15760405192611a94601f8401601f191660200185611a3f565b8284526020838301011161012a57816000926020809301838601378301015290565b604060031982011261012a57600435906001600160401b03821161012a57611ae091600401611a60565b9060243590565b60005b838110611afa5750506000910152565b8181015183820152602001611aea565b90602091611b2381518092818552858086019101611ae7565b601f01601f1916010190565b6084359060ff8216820361012a57565b6000546001600160a01b03163303611b5357565b606460405162461bcd60e51b815260206004820152602060248201527f4f776e61626c653a2063616c6c6572206973206e6f7420746865206f776e65726044820152fd5b15611b9e57565b60405162461bcd60e51b815260206004820152601960248201527f547572746c6520616c72656164792072656769737465726564000000000000006044820152606490fd5b8054821015611bfb5760005260206000200190600090565b634e487b7160e01b600052603260045260246000fd5b90600182811c92168015611c41575b6020831014611c2b57565b634e487b7160e01b600052602260045260246000fd5b91607f1691611c20565b818110611c56575050565b60008155600101611c4b565b9190601f8111611c7157505050565b611c9d926000526020600020906020601f840160051c83019310611c9f575b601f0160051c0190611c4b565b565b9091508190611c90565b91909182516001600160401b0381116119f157611cd081611cca8454611c11565b84611c62565b602080601f8311600114611d0c575081929394600092611d01575b50508160011b916000199060031b1c1916179055565b015190503880611ceb565b90601f198316958460005282600020926000905b888210611d5857505083600195969710611d3f575b505050811b019055565b015160001960f88460031b161c19169055388080611d35565b80600185968294968601518155019501930190611d20565b8054680100000000000000008110156119f157611d9291600182018155611be3565b919091611da257611c9d91611ca9565b634e487b7160e01b600052600060045260246000fd5b611dd090602060405192828480945193849201611ae7565b810103902090565b9060405191826000825492611dec84611c11565b908184526001948581169081600014611e595750600114611e16575b5050611c9d92500383611a3f565b9093915060005260209081600020936000915b818310611e41575050611c9d93508201013880611e08565b85548884018501529485019487945091830191611e29565b915050611c9d94506020925060ff191682840152151560051b8201013880611e08565b9091611e93611ea193604084526040840190611b0a565b916020818403910152611b0a565b90565b15611eab57565b60405162461bcd60e51b8152602060048201526015602482015274151d5c9d1b1948191bd95cc81b9bdd08195e1a5cdd605a1b6044820152606490fd5b6000198114611ef75760010190565b634e487b7160e01b600052601160045260246000fd5b600092918154611f1c81611c11565b92600191808316908115611f755750600114611f39575b50505050565b90919293945060005260209081600020906000915b858310611f645750505050019038808080611f33565b805485840152918301918101611f4e565b60ff1916845250505081151590910201915038808080611f33565b9080821461206857611fa28154611c11565b906001600160401b0382116119f1578190611fc782611fc18654611c11565b86611c62565b600090601f8311600114611ffd57600092611ff25750508160011b916000199060031b1c1916179055565b015490503880611ceb565b81526020808220858352818320935090601f1985169083905b82821061204f57505090846001959493921061203657505050811b019055565b015460001960f88460031b161c19169055388080611d35565b8495819295850154815560018091019601940190612016565b505056fea2646970667358221220fdc11c7b1b9d50febd115e56ca8f1fce9cd89f4681c7c4cf66b598937e2ababd64736f6c63430008120033",
					"opcodes": "PUSH1 0x80 DUP1 PUSH1 0x40 MSTORE CALLVALUE PUSH2 0x5B JUMPI PUSH1 0x0 DUP1 SLOAD CALLER PUSH1 0x1 PUSH1 0x1 PUSH1 0xA0 SHL SUB NOT DUP3 AND DUP2 OR DUP4 SSTORE SWAP2 PUSH1 0x1 PUSH1 0x1 PUSH1 0xA0 SHL SUB SWAP1 SWAP2 AND SWAP1 PUSH32 0x8BE0079C531659141344CD1FD0A4F28419497F9722A3DAAFE3B4186F6B6457E0 SWAP1 DUP1 LOG3 PUSH2 0x20A2 SWAP1 DUP2 PUSH2 0x61 DUP3 CODECOPY RETURN JUMPDEST PUSH1 0x0 DUP1 REVERT INVALID PUSH1 0x80 PUSH1 0x40 MSTORE PUSH1 0x4 CALLDATASIZE LT ISZERO PUSH2 0x12 JUMPI PUSH1 0x0 DUP1 REVERT JUMPDEST PUSH1 0x0 CALLDATALOAD PUSH1 0xE0 SHR DUP1 PUSH4 0x17AA1F48 EQ PUSH2 0x183B JUMPI DUP1 PUSH4 0x18E1A28A EQ PUSH2 0x167C JUMPI DUP1 PUSH4 0x1A0642EF EQ PUSH2 0x144D JUMPI DUP1 PUSH4 0x1B979AF1 EQ PUSH2 0x13DE JUMPI DUP1 PUSH4 0x229AA914 EQ PUSH2 0x138B JUMPI DUP1 PUSH4 0x358A3D37 EQ PUSH2 0xFCE JUMPI DUP1 PUSH4 0x482346BD EQ PUSH2 0xF68 JUMPI DUP1 PUSH4 0x596C442A EQ PUSH2 0xD58 JUMPI DUP1 PUSH4 0x5C493EAA EQ PUSH2 0xC51 JUMPI DUP1 PUSH4 0x673AE4C1 EQ PUSH2 0x962 JUMPI DUP1 PUSH4 0x6C1DCAF8 EQ PUSH2 0x6BD JUMPI DUP1 PUSH4 0x715018A6 EQ PUSH2 0x664 JUMPI DUP1 PUSH4 0x8DA5CB5B EQ PUSH2 0x63B JUMPI DUP1 PUSH4 0xCE5F0B7D EQ PUSH2 0x1FA JUMPI DUP1 PUSH4 0xF2FDE38B EQ PUSH2 0x12F JUMPI PUSH4 0xF3CB197D EQ PUSH2 0xCC JUMPI PUSH1 0x0 DUP1 REVERT JUMPDEST CALLVALUE PUSH2 0x12A JUMPI PUSH1 0x20 CALLDATASIZE PUSH1 0x3 NOT ADD SLT PUSH2 0x12A JUMPI PUSH1 0x4 CALLDATALOAD PUSH1 0x1 PUSH1 0x1 PUSH1 0x40 SHL SUB DUP2 GT PUSH2 0x12A JUMPI PUSH1 0x4 PUSH2 0x116 PUSH1 0x20 PUSH2 0x103 DUP2 SWAP5 CALLDATASIZE SWAP1 DUP6 ADD PUSH2 0x1A60 JUMP JUMPDEST DUP2 PUSH1 0x40 MLOAD SWAP4 DUP3 DUP6 DUP1 SWAP5 MLOAD SWAP4 DUP5 SWAP3 ADD PUSH2 0x1AE7 JUMP JUMPDEST DUP2 ADD PUSH1 0x1 DUP2 MSTORE SUB ADD SWAP1 KECCAK256 ADD SLOAD PUSH1 0x40 MLOAD SWAP1 DUP2 MSTORE RETURN JUMPDEST PUSH1 0x0 DUP1 REVERT JUMPDEST CALLVALUE PUSH2 0x12A JUMPI PUSH1 0x20 CALLDATASIZE PUSH1 0x3 NOT ADD SLT PUSH2 0x12A JUMPI PUSH1 0x4 CALLDATALOAD PUSH1 0x1 PUSH1 0x1 PUSH1 0xA0 SHL SUB DUP2 DUP2 AND SWAP2 DUP3 SWAP1 SUB PUSH2 0x12A JUMPI PUSH2 0x15E PUSH2 0x1B3F JUMP JUMPDEST DUP2 ISZERO PUSH2 0x1A6 JUMPI PUSH1 0x0 SLOAD DUP3 PUSH12 0xFFFFFFFFFFFFFFFFFFFFFFFF PUSH1 0xA0 SHL DUP3 AND OR PUSH1 0x0 SSTORE AND PUSH32 0x8BE0079C531659141344CD1FD0A4F28419497F9722A3DAAFE3B4186F6B6457E0 PUSH1 0x0 DUP1 LOG3 STOP JUMPDEST PUSH1 0x40 MLOAD PUSH3 0x461BCD PUSH1 0xE5 SHL DUP2 MSTORE PUSH1 0x20 PUSH1 0x4 DUP3 ADD MSTORE PUSH1 0x26 PUSH1 0x24 DUP3 ADD MSTORE PUSH32 0x4F776E61626C653A206E6577206F776E657220697320746865207A65726F2061 PUSH1 0x44 DUP3 ADD MSTORE PUSH6 0x646472657373 PUSH1 0xD0 SHL PUSH1 0x64 DUP3 ADD MSTORE PUSH1 0x84 SWAP1 REVERT JUMPDEST CALLVALUE PUSH2 0x12A JUMPI PUSH1 0x60 CALLDATASIZE PUSH1 0x3 NOT ADD SLT PUSH2 0x12A JUMPI PUSH1 0x1 PUSH1 0x1 PUSH1 0x40 SHL SUB PUSH1 0x4 CALLDATALOAD DUP2 DUP2 GT PUSH2 0x12A JUMPI PUSH2 0x22B SWAP1 CALLDATASIZE SWAP1 PUSH1 0x4 ADD PUSH2 0x1A60 JUMP JUMPDEST PUSH1 0x24 SWAP1 DUP2 CALLDATALOAD DUP4 DUP2 GT PUSH2 0x12A JUMPI PUSH2 0x245 SWAP1 CALLDATASIZE SWAP1 PUSH1 0x4 ADD PUSH2 0x1A60 JUMP JUMPDEST SWAP3 PUSH1 0x44 CALLDATALOAD SWAP1 DUP2 GT PUSH2 0x12A JUMPI PUSH2 0x25E SWAP1 CALLDATASIZE SWAP1 PUSH1 0x4 ADD PUSH2 0x1A60 JUMP JUMPDEST SWAP2 PUSH1 0x40 MLOAD DUP3 MLOAD SWAP2 PUSH1 0x20 SWAP2 PUSH2 0x295 PUSH1 0xFF PUSH1 0x6 DUP6 DUP9 ADD SWAP7 PUSH2 0x27E DUP2 DUP7 DUP11 PUSH2 0x1AE7 JUMP JUMPDEST DUP5 ADD SWAP4 DUP7 DUP2 PUSH1 0x1 SWAP7 DUP8 DUP2 MSTORE SUB ADD SWAP1 KECCAK256 ADD SLOAD AND PUSH2 0x1EA4 JUMP JUMPDEST PUSH1 0x40 MLOAD SWAP4 DUP8 MLOAD DUP5 DUP10 ADD SWAP1 PUSH2 0x2AA DUP2 DUP9 DUP5 PUSH2 0x1AE7 JUMP JUMPDEST DUP7 ADD SWAP6 DUP6 DUP2 PUSH1 0x2 SWAP9 DUP10 DUP2 MSTORE SUB ADD SWAP1 KECCAK256 SLOAD ISZERO PUSH2 0x5EC JUMPI PUSH1 0x0 DUP4 DUP2 DUP2 JUMPDEST PUSH2 0x542 JUMPI JUMPDEST POP POP ISZERO PUSH2 0x4F3 JUMPI DUP5 PUSH2 0x2E7 SWAP2 PUSH1 0x40 MLOAD DUP1 SWAP4 DUP2 SWAP3 DUP14 MLOAD SWAP3 DUP4 SWAP2 PUSH2 0x1AE7 JUMP JUMPDEST DUP2 ADD DUP9 DUP2 MSTORE SUB ADD SWAP1 KECCAK256 SWAP1 PUSH1 0x0 DUP4 JUMPDEST PUSH2 0x369 JUMPI JUMPDEST DUP10 DUP10 PUSH2 0x341 PUSH2 0x33B PUSH2 0x335 DUP13 PUSH2 0x330 DUP2 DUP15 DUP15 PUSH1 0x40 MLOAD DUP1 SWAP3 DUP3 PUSH2 0x322 DUP13 DUP5 DUP2 MLOAD SWAP4 DUP5 SWAP3 ADD PUSH2 0x1AE7 JUMP JUMPDEST DUP3 ADD SWAP1 DUP2 MSTORE SUB ADD SWAP1 KECCAK256 PUSH2 0x1D70 JUMP JUMPDEST PUSH2 0x1DB8 JUMP JUMPDEST SWAP4 PUSH2 0x1DB8 JUMP JUMPDEST SWAP2 PUSH2 0x1DB8 JUMP JUMPDEST SWAP2 PUSH32 0x80D739977BB0030FD7E876DC1CA9A667ADFC1B71FEA4820C4266DE2EE6D6C657 PUSH1 0x0 DUP1 LOG4 STOP JUMPDEST DUP3 SLOAD DUP1 DUP3 LT ISZERO PUSH2 0x4ED JUMPI SWAP1 DUP4 SWAP3 SWAP2 PUSH2 0x382 DUP3 DUP8 SWAP7 PUSH2 0x1BE3 JUMP JUMPDEST POP PUSH1 0x40 MLOAD PUSH2 0x3A5 DUP2 PUSH2 0x397 DUP13 DUP3 ADD DUP1 SWAP6 PUSH2 0x1F0D JUMP JUMPDEST SUB PUSH1 0x1F NOT DUP2 ADD DUP4 MSTORE DUP3 PUSH2 0x1A3F JUMP JUMPDEST MLOAD SWAP1 KECCAK256 DUP11 PUSH1 0x40 MLOAD PUSH2 0x3CE DUP12 DUP3 DUP2 DUP2 ADD SWAP5 MLOAD PUSH2 0x3C1 DUP2 DUP8 DUP13 PUSH2 0x1AE7 JUMP JUMPDEST DUP2 ADD SUB DUP1 DUP5 MSTORE ADD DUP3 PUSH2 0x1A3F JUMP JUMPDEST MLOAD SWAP1 KECCAK256 EQ PUSH2 0x3E9 JUMPI JUMPDEST POP PUSH2 0x3E1 SWAP1 PUSH2 0x1EE8 JUMP JUMPDEST SWAP1 SWAP2 SWAP3 PUSH2 0x2F5 JUMP JUMPDEST SWAP3 SWAP4 POP SWAP1 SWAP2 PUSH1 0x0 NOT SWAP1 DUP2 DUP2 ADD SWAP1 DUP2 GT PUSH2 0x4D8 JUMPI PUSH2 0x406 SWAP1 DUP6 PUSH2 0x1BE3 JUMP JUMPDEST POP PUSH2 0x411 DUP4 DUP7 PUSH2 0x1BE3 JUMP JUMPDEST PUSH2 0x4C3 JUMPI SWAP1 PUSH2 0x41F SWAP2 PUSH2 0x1F90 JUMP JUMPDEST DUP4 SLOAD DUP1 ISZERO PUSH2 0x4AE JUMPI ADD PUSH2 0x432 DUP2 DUP6 PUSH2 0x1BE3 JUMP JUMPDEST PUSH2 0x499 JUMPI SWAP2 PUSH2 0x3E1 SWAP2 DUP4 PUSH2 0x449 DUP9 SWAP8 SWAP7 SWAP6 SLOAD PUSH2 0x1C11 JUMP JUMPDEST SWAP1 DUP2 PUSH2 0x45A JUMPI JUMPDEST POP POP DUP5 SSTORE SWAP1 PUSH2 0x3D7 JUMP JUMPDEST PUSH1 0x0 SWAP2 PUSH1 0x1F DUP13 DUP2 DUP4 GT PUSH1 0x1 EQ PUSH2 0x476 JUMPI POP POP POP SSTORE JUMPDEST DUP14 DUP1 PUSH2 0x450 JUMP JUMPDEST DUP4 SWAP2 PUSH2 0x492 SWAP2 DUP7 SWAP5 SWAP6 DUP6 MSTORE DUP5 KECCAK256 SWAP5 ADD PUSH1 0x5 SHR DUP5 ADD DUP12 DUP6 ADD PUSH2 0x1C4B JUMP JUMPDEST SSTORE SSTORE PUSH2 0x46F JUMP JUMPDEST DUP7 PUSH4 0x4E487B71 PUSH1 0xE0 SHL PUSH1 0x0 MSTORE PUSH1 0x0 PUSH1 0x4 MSTORE PUSH1 0x0 REVERT JUMPDEST DUP7 PUSH4 0x4E487B71 PUSH1 0xE0 SHL PUSH1 0x0 MSTORE PUSH1 0x31 PUSH1 0x4 MSTORE PUSH1 0x0 REVERT JUMPDEST DUP8 PUSH4 0x4E487B71 PUSH1 0xE0 SHL PUSH1 0x0 MSTORE PUSH1 0x0 PUSH1 0x4 MSTORE PUSH1 0x0 REVERT JUMPDEST DUP7 PUSH4 0x4E487B71 PUSH1 0xE0 SHL PUSH1 0x0 MSTORE PUSH1 0x11 PUSH1 0x4 MSTORE PUSH1 0x0 REVERT JUMPDEST POP PUSH2 0x2FA JUMP JUMPDEST PUSH1 0x40 MLOAD PUSH3 0x461BCD PUSH1 0xE5 SHL DUP2 MSTORE PUSH1 0x4 DUP2 ADD DUP7 SWAP1 MSTORE PUSH1 0x22 DUP2 DUP7 ADD MSTORE PUSH32 0x4F6C64206F776E657220646F6573206E6F74206F776E20746869732074757274 PUSH1 0x44 DUP3 ADD MSTORE PUSH2 0x6C65 PUSH1 0xF0 SHL PUSH1 0x64 DUP3 ADD MSTORE PUSH1 0x84 SWAP1 REVERT JUMPDEST DUP8 DUP13 DUP11 PUSH1 0x40 MLOAD DUP4 DUP2 DUP5 MLOAD PUSH2 0x557 DUP2 DUP4 DUP14 PUSH2 0x1AE7 JUMP JUMPDEST DUP2 ADD DUP5 DUP2 MSTORE SUB ADD SWAP1 KECCAK256 SLOAD DUP5 LT ISZERO PUSH2 0x5E4 JUMPI PUSH2 0x58E SWAP3 DUP5 SWAP3 PUSH1 0x40 MLOAD SWAP3 DUP4 SWAP2 MLOAD PUSH2 0x580 DUP2 DUP5 DUP14 PUSH2 0x1AE7 JUMP JUMPDEST DUP3 ADD SWAP1 DUP2 MSTORE SUB ADD SWAP1 KECCAK256 PUSH2 0x1BE3 JUMP JUMPDEST POP PUSH1 0x40 MLOAD PUSH2 0x5A3 DUP2 PUSH2 0x397 DUP13 DUP3 ADD DUP1 SWAP6 PUSH2 0x1F0D JUMP JUMPDEST MLOAD SWAP1 KECCAK256 DUP6 DUP12 PUSH2 0x5C3 DUP12 PUSH1 0x40 MLOAD DUP1 SWAP4 PUSH2 0x3C1 DUP4 DUP4 ADD SWAP7 DUP8 SWAP3 MLOAD SWAP3 DUP4 SWAP2 PUSH2 0x1AE7 JUMP JUMPDEST MLOAD SWAP1 KECCAK256 EQ PUSH2 0x5DA JUMPI PUSH2 0x5D4 SWAP1 PUSH2 0x1EE8 JUMP JUMPDEST DUP2 PUSH2 0x2C5 JUMP JUMPDEST POP SWAP1 POP DUP4 DUP12 PUSH2 0x2CA JUMP JUMPDEST POP POP POP PUSH2 0x2CA JUMP JUMPDEST PUSH1 0x40 MLOAD PUSH3 0x461BCD PUSH1 0xE5 SHL DUP2 MSTORE PUSH1 0x4 DUP2 ADD DUP7 SWAP1 MSTORE PUSH1 0x22 DUP2 DUP7 ADD MSTORE PUSH32 0x4F6C64206F776E657220646F6573206E6F74206F776E20616E7920747572746C PUSH1 0x44 DUP3 ADD MSTORE PUSH2 0x6573 PUSH1 0xF0 SHL PUSH1 0x64 DUP3 ADD MSTORE PUSH1 0x84 SWAP1 REVERT JUMPDEST CALLVALUE PUSH2 0x12A JUMPI PUSH1 0x0 CALLDATASIZE PUSH1 0x3 NOT ADD SLT PUSH2 0x12A JUMPI PUSH1 0x0 SLOAD PUSH1 0x40 MLOAD PUSH1 0x1 PUSH1 0x1 PUSH1 0xA0 SHL SUB SWAP1 SWAP2 AND DUP2 MSTORE PUSH1 0x20 SWAP1 RETURN JUMPDEST CALLVALUE PUSH2 0x12A JUMPI PUSH1 0x0 CALLDATASIZE PUSH1 0x3 NOT ADD SLT PUSH2 0x12A JUMPI PUSH2 0x67D PUSH2 0x1B3F JUMP JUMPDEST PUSH1 0x0 DUP1 SLOAD PUSH1 0x1 PUSH1 0x1 PUSH1 0xA0 SHL SUB NOT DUP2 AND DUP3 SSTORE PUSH1 0x1 PUSH1 0x1 PUSH1 0xA0 SHL SUB AND PUSH32 0x8BE0079C531659141344CD1FD0A4F28419497F9722A3DAAFE3B4186F6B6457E0 DUP3 DUP1 LOG3 STOP JUMPDEST CALLVALUE PUSH2 0x12A JUMPI PUSH2 0x120 CALLDATASIZE PUSH1 0x3 NOT ADD SLT PUSH2 0x12A JUMPI PUSH1 0x1 PUSH1 0x1 PUSH1 0x40 SHL SUB PUSH1 0x4 CALLDATALOAD DUP2 DUP2 GT PUSH2 0x12A JUMPI PUSH2 0x6EF SWAP1 CALLDATASIZE SWAP1 PUSH1 0x4 ADD PUSH2 0x1A60 JUMP JUMPDEST SWAP1 PUSH1 0x24 CALLDATALOAD DUP2 DUP2 GT PUSH2 0x12A JUMPI PUSH2 0x708 SWAP1 CALLDATASIZE SWAP1 PUSH1 0x4 ADD PUSH2 0x1A60 JUMP JUMPDEST SWAP1 PUSH1 0x64 CALLDATALOAD DUP2 DUP2 GT PUSH2 0x12A JUMPI PUSH2 0x721 SWAP1 CALLDATASIZE SWAP1 PUSH1 0x4 ADD PUSH2 0x1A60 JUMP JUMPDEST PUSH2 0x729 PUSH2 0x1B2F JUMP JUMPDEST SWAP4 PUSH1 0xA4 CALLDATALOAD DUP4 DUP2 GT PUSH2 0x12A JUMPI PUSH2 0x742 SWAP1 CALLDATASIZE SWAP1 PUSH1 0x4 ADD PUSH2 0x1A60 JUMP JUMPDEST SWAP2 PUSH1 0xC4 CALLDATALOAD DUP5 DUP2 GT PUSH2 0x12A JUMPI PUSH2 0x75B SWAP1 CALLDATASIZE SWAP1 PUSH1 0x4 ADD PUSH2 0x1A60 JUMP JUMPDEST SWAP3 PUSH1 0xE4 CALLDATALOAD DUP6 DUP2 GT PUSH2 0x12A JUMPI PUSH2 0x774 SWAP1 CALLDATASIZE SWAP1 PUSH1 0x4 ADD PUSH2 0x1A60 JUMP JUMPDEST SWAP7 PUSH2 0x104 CALLDATALOAD SWAP6 DUP7 GT PUSH2 0x12A JUMPI PUSH1 0x20 SWAP8 PUSH2 0x8C1 PUSH2 0x33B SWAP7 PUSH2 0x889 DUP11 SWAP6 PUSH2 0x8F7 SWAP6 PUSH2 0x80D PUSH2 0x330 SWAP10 DUP16 PUSH2 0x7EC PUSH2 0x92D SWAP16 SWAP2 DUP15 PUSH2 0x103 PUSH2 0x7B7 PUSH1 0x2 SWAP6 CALLDATASIZE SWAP1 PUSH1 0x4 ADD PUSH2 0x1A60 JUMP JUMPDEST SWAP15 DUP6 PUSH1 0x40 MLOAD DUP6 DUP2 DUP7 MLOAD PUSH2 0x7CD DUP2 DUP4 DUP6 DUP12 ADD PUSH2 0x1AE7 JUMP JUMPDEST PUSH1 0x1 DUP2 DUP4 ADD MSTORE DUP2 ADD SUB ADD SWAP1 KECCAK256 ADD PUSH1 0x44 CALLDATALOAD PUSH1 0x0 MSTORE DUP5 MSTORE PUSH1 0x40 PUSH1 0x0 KECCAK256 PUSH2 0x1CA9 JUMP JUMPDEST DUP2 ADD PUSH1 0x1 DUP2 MSTORE SUB ADD SWAP1 KECCAK256 ADD PUSH1 0x44 CALLDATALOAD PUSH1 0x0 MSTORE PUSH1 0x20 MSTORE PUSH1 0x1 PUSH1 0x40 PUSH1 0x0 KECCAK256 ADD PUSH2 0x1CA9 JUMP JUMPDEST PUSH1 0x2 PUSH2 0x827 DUP16 DUP13 DUP2 PUSH1 0x40 MLOAD SWAP4 DUP3 DUP6 DUP1 SWAP5 MLOAD SWAP4 DUP5 SWAP3 ADD PUSH2 0x1AE7 JUMP JUMPDEST DUP2 ADD PUSH1 0x1 DUP2 MSTORE SUB ADD SWAP1 KECCAK256 ADD PUSH1 0x44 CALLDATALOAD PUSH1 0x0 MSTORE DUP15 MSTORE PUSH1 0xFF PUSH1 0x2 PUSH1 0x40 PUSH1 0x0 KECCAK256 ADD SWAP2 AND PUSH1 0xFF NOT DUP3 SLOAD AND OR SWAP1 SSTORE PUSH1 0x2 PUSH2 0x869 DUP15 DUP12 DUP2 PUSH1 0x40 MLOAD SWAP4 DUP3 DUP6 DUP1 SWAP5 MLOAD SWAP4 DUP5 SWAP3 ADD PUSH2 0x1AE7 JUMP JUMPDEST DUP2 ADD PUSH1 0x1 DUP2 MSTORE SUB ADD SWAP1 KECCAK256 ADD PUSH1 0x44 CALLDATALOAD PUSH1 0x0 MSTORE DUP14 MSTORE PUSH1 0x3 PUSH1 0x40 PUSH1 0x0 KECCAK256 ADD PUSH2 0x1CA9 JUMP JUMPDEST PUSH1 0x2 PUSH1 0x40 MLOAD DUP13 DUP2 DUP2 PUSH2 0x8A1 DUP13 DUP4 DUP2 MLOAD SWAP4 DUP5 SWAP3 ADD PUSH2 0x1AE7 JUMP JUMPDEST DUP2 ADD PUSH1 0x1 DUP2 MSTORE SUB ADD SWAP1 KECCAK256 ADD PUSH1 0x44 CALLDATALOAD PUSH1 0x0 MSTORE DUP12 MSTORE PUSH1 0x4 PUSH1 0x40 PUSH1 0x0 KECCAK256 ADD PUSH2 0x1CA9 JUMP JUMPDEST PUSH1 0x2 PUSH1 0x40 MLOAD DUP11 DUP2 DUP9 MLOAD PUSH2 0x8D7 DUP2 DUP4 DUP6 DUP14 ADD PUSH2 0x1AE7 JUMP JUMPDEST DUP2 ADD PUSH1 0x1 DUP2 MSTORE SUB ADD SWAP1 KECCAK256 ADD PUSH1 0x44 CALLDATALOAD PUSH1 0x0 MSTORE DUP10 MSTORE PUSH1 0x5 PUSH1 0x40 PUSH1 0x0 KECCAK256 ADD PUSH2 0x1CA9 JUMP JUMPDEST PUSH1 0x2 PUSH1 0x40 MLOAD DUP9 DUP2 DUP7 MLOAD PUSH2 0x90D DUP2 DUP4 DUP6 DUP12 ADD PUSH2 0x1AE7 JUMP JUMPDEST DUP2 ADD PUSH1 0x1 DUP2 MSTORE SUB ADD SWAP1 KECCAK256 ADD PUSH1 0x44 CALLDATALOAD PUSH1 0x0 MSTORE DUP8 MSTORE PUSH1 0x6 PUSH1 0x40 PUSH1 0x0 KECCAK256 ADD PUSH2 0x1CA9 JUMP JUMPDEST SWAP1 PUSH1 0x40 MLOAD SWAP2 PUSH1 0x44 CALLDATALOAD SWAP2 PUSH32 0xBF4FF8EFB9C111A99679D7A6A4263272C5FA30A2FA39BEC8F6E4CE26902FC0BE PUSH1 0x0 DUP1 LOG4 PUSH1 0x44 CALLDATALOAD DUP2 MSTORE RETURN JUMPDEST CALLVALUE PUSH2 0x12A JUMPI PUSH1 0x20 PUSH2 0x9ED PUSH2 0x975 CALLDATASIZE PUSH2 0x1AB6 JUMP JUMPDEST SWAP3 SWAP1 PUSH1 0x60 PUSH2 0x1A0 PUSH1 0x40 MLOAD PUSH2 0x988 DUP2 PUSH2 0x1A23 JUMP JUMPDEST DUP3 DUP2 MSTORE PUSH1 0x0 DUP6 DUP3 ADD MSTORE DUP3 PUSH1 0x40 DUP3 ADD MSTORE DUP3 DUP1 DUP3 ADD MSTORE DUP3 PUSH1 0x80 DUP3 ADD MSTORE DUP3 PUSH1 0xA0 DUP3 ADD MSTORE DUP3 PUSH1 0xC0 DUP3 ADD MSTORE DUP3 PUSH1 0xE0 DUP3 ADD MSTORE DUP3 PUSH2 0x100 DUP3 ADD MSTORE PUSH1 0x0 PUSH2 0x120 DUP3 ADD MSTORE DUP3 PUSH2 0x140 DUP3 ADD MSTORE DUP3 PUSH2 0x160 DUP3 ADD MSTORE DUP3 PUSH2 0x180 DUP3 ADD MSTORE ADD MSTORE DUP2 PUSH1 0x40 MLOAD SWAP4 DUP3 DUP6 DUP1 SWAP5 MLOAD SWAP4 DUP5 SWAP3 ADD PUSH2 0x1AE7 JUMP JUMPDEST DUP2 ADD PUSH1 0x1 DUP2 MSTORE SUB ADD SWAP1 KECCAK256 SWAP1 PUSH1 0x0 MSTORE PUSH1 0x20 MSTORE PUSH2 0xB5D PUSH1 0x40 PUSH1 0x0 KECCAK256 PUSH2 0xAEF PUSH1 0xD PUSH1 0x40 MLOAD SWAP3 PUSH2 0xA18 DUP5 PUSH2 0x1A23 JUMP JUMPDEST PUSH2 0xA21 DUP2 PUSH2 0x1DD8 JUMP JUMPDEST DUP5 MSTORE PUSH1 0xFF PUSH1 0x1 DUP3 ADD SLOAD AND PUSH1 0x20 DUP6 ADD MSTORE PUSH2 0xA3C PUSH1 0x2 DUP3 ADD PUSH2 0x1DD8 JUMP JUMPDEST PUSH1 0x40 DUP6 ADD MSTORE PUSH2 0xA4D PUSH1 0x3 DUP3 ADD PUSH2 0x1DD8 JUMP JUMPDEST PUSH1 0x60 DUP6 ADD MSTORE PUSH2 0xA5E PUSH1 0x4 DUP3 ADD PUSH2 0x1DD8 JUMP JUMPDEST PUSH1 0x80 DUP6 ADD MSTORE PUSH2 0xA6F PUSH1 0x5 DUP3 ADD PUSH2 0x1DD8 JUMP JUMPDEST PUSH1 0xA0 DUP6 ADD MSTORE PUSH2 0xA80 PUSH1 0x6 DUP3 ADD PUSH2 0x1DD8 JUMP JUMPDEST PUSH1 0xC0 DUP6 ADD MSTORE PUSH2 0xA91 PUSH1 0x7 DUP3 ADD PUSH2 0x1DD8 JUMP JUMPDEST PUSH1 0xE0 DUP6 ADD MSTORE PUSH2 0xAA2 PUSH1 0x8 DUP3 ADD PUSH2 0x1DD8 JUMP JUMPDEST PUSH2 0x100 DUP6 ADD MSTORE PUSH1 0x9 DUP2 ADD SLOAD PUSH2 0x120 DUP6 ADD MSTORE PUSH2 0xABF PUSH1 0xA DUP3 ADD PUSH2 0x1DD8 JUMP JUMPDEST PUSH2 0x140 DUP6 ADD MSTORE PUSH2 0xAD1 PUSH1 0xB DUP3 ADD PUSH2 0x1DD8 JUMP JUMPDEST PUSH2 0x160 DUP6 ADD MSTORE PUSH2 0xAE3 PUSH1 0xC DUP3 ADD PUSH2 0x1DD8 JUMP JUMPDEST PUSH2 0x180 DUP6 ADD MSTORE ADD PUSH2 0x1DD8 JUMP JUMPDEST PUSH2 0x1A0 DUP3 ADD MSTORE PUSH2 0xC4D DUP2 PUSH2 0x1A0 PUSH2 0xC38 PUSH2 0xC22 PUSH2 0xC0A PUSH2 0xBE6 PUSH2 0xBCE PUSH2 0xBB7 PUSH2 0xBA1 PUSH2 0xB8B PUSH2 0xB75 PUSH1 0x40 MLOAD SWAP14 DUP15 SWAP14 DUP15 PUSH1 0x20 DUP2 MSTORE PUSH1 0x40 PUSH2 0xB3C DUP4 MLOAD PUSH2 0x1C0 PUSH1 0x20 DUP6 ADD MSTORE PUSH2 0x1E0 DUP5 ADD SWAP1 PUSH2 0x1B0A JUMP JUMPDEST SWAP3 PUSH1 0xFF PUSH1 0x20 DUP3 ADD MLOAD AND DUP3 DUP5 ADD MSTORE ADD MLOAD SWAP1 PUSH1 0x60 PUSH1 0x1F NOT DUP3 DUP6 SUB ADD SWAP2 ADD MSTORE PUSH2 0x1B0A JUMP JUMPDEST DUP14 PUSH1 0x60 DUP14 ADD MLOAD SWAP1 PUSH1 0x80 PUSH1 0x1F NOT DUP3 DUP6 SUB ADD SWAP2 ADD MSTORE PUSH2 0x1B0A JUMP JUMPDEST PUSH1 0x80 DUP12 ADD MLOAD DUP14 DUP3 SUB PUSH1 0x1F NOT ADD PUSH1 0xA0 DUP16 ADD MSTORE PUSH2 0x1B0A JUMP JUMPDEST PUSH1 0xA0 DUP11 ADD MLOAD DUP13 DUP3 SUB PUSH1 0x1F NOT ADD PUSH1 0xC0 DUP15 ADD MSTORE PUSH2 0x1B0A JUMP JUMPDEST PUSH1 0xC0 DUP10 ADD MLOAD DUP12 DUP3 SUB PUSH1 0x1F NOT ADD PUSH1 0xE0 DUP14 ADD MSTORE PUSH2 0x1B0A JUMP JUMPDEST PUSH1 0xE0 DUP9 ADD MLOAD DUP11 DUP3 SUB PUSH1 0x1F NOT ADD PUSH2 0x100 DUP13 ADD MSTORE PUSH2 0x1B0A JUMP JUMPDEST PUSH2 0x100 DUP8 ADD MLOAD DUP10 DUP3 SUB PUSH1 0x1F NOT ADD PUSH2 0x120 DUP12 ADD MSTORE PUSH2 0x1B0A JUMP JUMPDEST PUSH2 0x120 DUP7 ADD MLOAD PUSH2 0x140 DUP10 ADD MSTORE PUSH2 0x140 DUP7 ADD MLOAD PUSH1 0x1F NOT DUP10 DUP4 SUB ADD PUSH2 0x160 DUP11 ADD MSTORE PUSH2 0x1B0A JUMP JUMPDEST PUSH2 0x160 DUP6 ADD MLOAD DUP8 DUP3 SUB PUSH1 0x1F NOT ADD PUSH2 0x180 DUP10 ADD MSTORE PUSH2 0x1B0A JUMP JUMPDEST PUSH2 0x180 DUP5 ADD MLOAD DUP7 DUP3 SUB PUSH1 0x1F NOT ADD DUP5 DUP9 ADD MSTORE PUSH2 0x1B0A JUMP JUMPDEST SWAP2 ADD MLOAD DUP4 DUP3 SUB PUSH1 0x1F NOT ADD PUSH2 0x1C0 DUP6 ADD MSTORE PUSH2 0x1B0A JUMP JUMPDEST SUB SWAP1 RETURN JUMPDEST CALLVALUE PUSH2 0x12A JUMPI PUSH1 0x40 CALLDATASIZE PUSH1 0x3 NOT ADD SLT PUSH2 0x12A JUMPI PUSH1 0x1 PUSH1 0x1 PUSH1 0x40 SHL SUB PUSH1 0x4 CALLDATALOAD DUP2 DUP2 GT PUSH2 0x12A JUMPI PUSH2 0xC82 SWAP1 CALLDATASIZE SWAP1 PUSH1 0x4 ADD PUSH2 0x1A60 JUMP JUMPDEST SWAP1 PUSH1 0x24 CALLDATALOAD SWAP1 DUP2 GT PUSH2 0x12A JUMPI PUSH2 0x33B PUSH2 0xCA1 PUSH2 0xD30 SWAP3 CALLDATASIZE SWAP1 PUSH1 0x4 ADD PUSH2 0x1A60 JUMP JUMPDEST SWAP3 PUSH2 0xCAA PUSH2 0x1B3F JUMP JUMPDEST PUSH1 0x6 PUSH2 0xCF2 PUSH1 0x20 PUSH1 0x40 MLOAD PUSH2 0xCE1 PUSH1 0xFF DUP6 DUP8 MLOAD SWAP4 DUP6 DUP2 DUP2 DUP12 ADD SWAP7 PUSH2 0xCCE DUP2 DUP4 DUP11 PUSH2 0x1AE7 JUMP JUMPDEST DUP2 ADD PUSH1 0x1 DUP2 MSTORE SUB ADD SWAP1 KECCAK256 ADD SLOAD AND ISZERO PUSH2 0x1B97 JUMP JUMPDEST PUSH1 0x40 MLOAD DUP1 SWAP4 DUP2 SWAP3 DUP8 MLOAD SWAP3 DUP4 SWAP2 PUSH2 0x1AE7 JUMP JUMPDEST DUP2 ADD PUSH1 0x1 DUP2 MSTORE SUB ADD SWAP1 KECCAK256 ADD PUSH1 0x1 PUSH1 0xFF NOT DUP3 SLOAD AND OR SWAP1 SSTORE PUSH2 0x330 DUP2 PUSH1 0x40 MLOAD PUSH1 0x20 DUP2 DUP9 MLOAD PUSH2 0xD21 DUP2 DUP4 DUP6 DUP14 ADD PUSH2 0x1AE7 JUMP JUMPDEST DUP2 ADD PUSH1 0x2 DUP2 MSTORE SUB ADD SWAP1 KECCAK256 PUSH2 0x1D70 JUMP JUMPDEST SWAP1 PUSH32 0x7D904E478DF0F515C7058DF56A2295C88F46C97F269F153CB964C1574E4AD9E8 PUSH1 0x0 DUP1 LOG3 STOP JUMPDEST CALLVALUE PUSH2 0x12A JUMPI PUSH1 0xE0 CALLDATASIZE PUSH1 0x3 NOT ADD SLT PUSH2 0x12A JUMPI PUSH1 0x1 PUSH1 0x1 PUSH1 0x40 SHL SUB PUSH1 0x4 CALLDATALOAD DUP2 DUP2 GT PUSH2 0x12A JUMPI PUSH2 0xD89 SWAP1 CALLDATASIZE SWAP1 PUSH1 0x4 ADD PUSH2 0x1A60 JUMP JUMPDEST SWAP1 PUSH1 0x24 CALLDATALOAD DUP2 DUP2 GT PUSH2 0x12A JUMPI PUSH2 0xDA2 SWAP1 CALLDATASIZE SWAP1 PUSH1 0x4 ADD PUSH2 0x1A60 JUMP JUMPDEST SWAP1 PUSH1 0x44 CALLDATALOAD SWAP2 PUSH1 0x64 CALLDATALOAD DUP3 DUP2 GT PUSH2 0x12A JUMPI PUSH2 0xDBF SWAP1 CALLDATASIZE SWAP1 PUSH1 0x4 ADD PUSH2 0x1A60 JUMP JUMPDEST SWAP1 PUSH1 0x84 CALLDATALOAD DUP4 DUP2 GT PUSH2 0x12A JUMPI PUSH2 0xDD8 SWAP1 CALLDATASIZE SWAP1 PUSH1 0x4 ADD PUSH2 0x1A60 JUMP JUMPDEST SWAP5 PUSH1 0xA4 CALLDATALOAD DUP5 DUP2 GT PUSH2 0x12A JUMPI PUSH2 0xDF1 SWAP1 CALLDATASIZE SWAP1 PUSH1 0x4 ADD PUSH2 0x1A60 JUMP JUMPDEST PUSH1 0xC4 CALLDATALOAD SWAP5 DUP6 GT PUSH2 0x12A JUMPI DUP6 SWAP5 PUSH2 0xE0B SWAP1 CALLDATASIZE SWAP1 PUSH1 0x4 ADD PUSH2 0x1A60 JUMP JUMPDEST SWAP1 PUSH1 0x40 MLOAD SWAP1 DUP4 MLOAD SWAP1 PUSH1 0x20 SWAP10 DUP11 DUP7 ADD SWAP3 PUSH2 0xE25 DUP2 DUP7 DUP7 PUSH2 0x1AE7 JUMP JUMPDEST DUP5 ADD DUP5 DUP13 PUSH1 0x1 SWAP7 DUP4 DUP9 DUP1 SWAP6 MSTORE SUB ADD SWAP1 KECCAK256 ADD DUP10 PUSH1 0x0 MSTORE DUP12 MSTORE DUP7 PUSH1 0x40 PUSH1 0x0 KECCAK256 SWAP1 PUSH2 0xE4C SWAP2 PUSH2 0x1CA9 JUMP JUMPDEST DUP4 PUSH1 0x40 MLOAD DUP13 DUP2 DUP10 MLOAD PUSH2 0xE5F DUP2 DUP4 DUP11 PUSH2 0x1AE7 JUMP JUMPDEST DUP2 ADD DUP5 DUP2 MSTORE SUB ADD SWAP1 KECCAK256 ADD DUP10 PUSH1 0x0 MSTORE DUP12 MSTORE DUP8 PUSH1 0x40 PUSH1 0x0 KECCAK256 PUSH1 0x2 ADD SWAP1 PUSH2 0xE82 SWAP2 PUSH2 0x1CA9 JUMP JUMPDEST DUP4 PUSH1 0x40 MLOAD DUP13 DUP2 DUP10 MLOAD PUSH2 0xE95 DUP2 DUP4 DUP11 PUSH2 0x1AE7 JUMP JUMPDEST DUP2 ADD DUP5 DUP2 MSTORE SUB ADD SWAP1 KECCAK256 ADD DUP10 PUSH1 0x0 MSTORE DUP12 MSTORE PUSH1 0x40 PUSH1 0x0 KECCAK256 PUSH1 0x7 ADD SWAP1 PUSH2 0xEB7 SWAP2 PUSH2 0x1CA9 JUMP JUMPDEST DUP3 PUSH1 0x40 MLOAD DUP12 DUP2 DUP9 MLOAD PUSH2 0xECA DUP2 DUP4 DUP10 PUSH2 0x1AE7 JUMP JUMPDEST DUP2 ADD DUP5 DUP2 MSTORE SUB ADD SWAP1 KECCAK256 ADD DUP9 PUSH1 0x0 MSTORE DUP11 MSTORE PUSH1 0x40 PUSH1 0x0 KECCAK256 PUSH1 0x8 ADD SWAP1 PUSH2 0xEEC SWAP2 PUSH2 0x1CA9 JUMP JUMPDEST DUP9 PUSH1 0x40 MLOAD DUP1 DUP1 SWAP4 DUP8 MLOAD DUP1 SWAP3 PUSH2 0xF00 SWAP3 PUSH2 0x1AE7 JUMP JUMPDEST DUP2 ADD DUP5 DUP2 MSTORE SUB ADD SWAP1 KECCAK256 ADD DUP6 PUSH1 0x0 MSTORE DUP8 MSTORE PUSH1 0x40 PUSH1 0x0 KECCAK256 PUSH1 0x9 ADD SWAP1 PUSH2 0xF22 SWAP2 PUSH2 0x1CA9 JUMP JUMPDEST PUSH2 0xF2B SWAP1 PUSH2 0x1DB8 JUMP JUMPDEST SWAP2 PUSH1 0x40 MLOAD SWAP2 DUP3 SWAP2 PUSH2 0xF3C SWAP2 DUP4 PUSH2 0x1E7C JUMP JUMPDEST SUB PUSH32 0x5900E70E78483B52BBE5C26FE3EDDC846F885A9FE48EFE16ABCDA778278F4F12 SWAP2 LOG3 PUSH1 0x40 MLOAD SWAP1 DUP2 MSTORE RETURN JUMPDEST CALLVALUE PUSH2 0x12A JUMPI PUSH1 0x20 DUP1 PUSH2 0xFBA PUSH1 0x4 PUSH2 0xF7E CALLDATASIZE PUSH2 0x1AB6 JUMP JUMPDEST SWAP4 DUP5 SWAP4 SWAP2 PUSH1 0x40 MLOAD SWAP1 DUP6 PUSH1 0x3 DUP3 MLOAD SWAP4 DUP6 DUP2 DUP2 DUP7 ADD SWAP7 PUSH2 0xF9D DUP2 DUP4 DUP11 PUSH2 0x1AE7 JUMP JUMPDEST DUP2 ADD PUSH1 0x1 DUP2 MSTORE SUB ADD SWAP1 KECCAK256 ADD SSTORE PUSH1 0x40 MLOAD SWAP4 DUP5 SWAP3 DUP4 SWAP3 MLOAD SWAP3 DUP4 SWAP2 PUSH2 0x1AE7 JUMP JUMPDEST DUP2 ADD PUSH1 0x1 DUP2 MSTORE SUB ADD SWAP1 KECCAK256 ADD SSTORE PUSH1 0x40 MLOAD SWAP1 DUP2 MSTORE RETURN JUMPDEST CALLVALUE PUSH2 0x12A JUMPI PUSH2 0x220 CALLDATASIZE PUSH1 0x3 NOT ADD SLT PUSH2 0x12A JUMPI PUSH1 0x1 PUSH1 0x1 PUSH1 0x40 SHL SUB PUSH1 0x4 CALLDATALOAD DUP2 DUP2 GT PUSH2 0x12A JUMPI PUSH2 0x1000 SWAP1 CALLDATASIZE SWAP1 PUSH1 0x4 ADD PUSH2 0x1A60 JUMP JUMPDEST PUSH1 0x24 CALLDATALOAD DUP3 DUP2 GT PUSH2 0x12A JUMPI PUSH2 0x1018 SWAP1 CALLDATASIZE SWAP1 PUSH1 0x4 ADD PUSH2 0x1A60 JUMP JUMPDEST SWAP2 PUSH1 0x64 CALLDATALOAD PUSH1 0xFF DUP2 AND DUP2 SUB PUSH2 0x12A JUMPI PUSH1 0x84 CALLDATALOAD DUP3 DUP2 GT PUSH2 0x12A JUMPI PUSH2 0x103E SWAP1 CALLDATASIZE SWAP1 PUSH1 0x4 ADD PUSH2 0x1A60 JUMP JUMPDEST PUSH1 0xA4 CALLDATALOAD DUP4 DUP2 GT PUSH2 0x12A JUMPI PUSH2 0x1056 SWAP1 CALLDATASIZE SWAP1 PUSH1 0x4 ADD PUSH2 0x1A60 JUMP JUMPDEST PUSH1 0xC4 CALLDATALOAD DUP5 DUP2 GT PUSH2 0x12A JUMPI PUSH2 0x106E SWAP1 CALLDATASIZE SWAP1 PUSH1 0x4 ADD PUSH2 0x1A60 JUMP JUMPDEST PUSH1 0xE4 CALLDATALOAD DUP6 DUP2 GT PUSH2 0x12A JUMPI PUSH2 0x1086 SWAP1 CALLDATASIZE SWAP1 PUSH1 0x4 ADD PUSH2 0x1A60 JUMP JUMPDEST PUSH2 0x104 CALLDATALOAD DUP7 DUP2 GT PUSH2 0x12A JUMPI PUSH2 0x109F SWAP1 CALLDATASIZE SWAP1 PUSH1 0x4 ADD PUSH2 0x1A60 JUMP JUMPDEST PUSH2 0x124 CALLDATALOAD DUP8 DUP2 GT PUSH2 0x12A JUMPI PUSH2 0x10B8 SWAP1 CALLDATASIZE SWAP1 PUSH1 0x4 ADD PUSH2 0x1A60 JUMP JUMPDEST SWAP1 PUSH2 0x144 CALLDATALOAD DUP9 DUP2 GT PUSH2 0x12A JUMPI PUSH2 0x10D2 SWAP1 CALLDATASIZE SWAP1 PUSH1 0x4 ADD PUSH2 0x1A60 JUMP JUMPDEST SWAP3 PUSH2 0x184 CALLDATALOAD DUP10 DUP2 GT PUSH2 0x12A JUMPI PUSH2 0x10EC SWAP1 CALLDATASIZE SWAP1 PUSH1 0x4 ADD PUSH2 0x1A60 JUMP JUMPDEST SWAP5 PUSH2 0x1A4 CALLDATALOAD DUP11 DUP2 GT PUSH2 0x12A JUMPI PUSH2 0x1106 SWAP1 CALLDATASIZE SWAP1 PUSH1 0x4 ADD PUSH2 0x1A60 JUMP JUMPDEST SWAP7 PUSH2 0x1C4 CALLDATALOAD DUP12 DUP2 GT PUSH2 0x12A JUMPI PUSH2 0x1120 SWAP1 CALLDATASIZE SWAP1 PUSH1 0x4 ADD PUSH2 0x1A60 JUMP JUMPDEST SWAP9 PUSH2 0x1E4 CALLDATALOAD SWAP12 DUP13 GT PUSH2 0x12A JUMPI DUP14 SWAP12 PUSH2 0x113C SWAP1 CALLDATASIZE SWAP1 PUSH1 0x4 ADD PUSH2 0x1A60 JUMP JUMPDEST SWAP11 DUP14 PUSH1 0x40 MLOAD SWAP1 DUP1 MLOAD SWAP2 DUP1 PUSH1 0x20 DUP4 ADD SWAP4 PUSH2 0x1156 DUP2 DUP4 DUP8 PUSH2 0x1AE7 JUMP JUMPDEST DUP2 ADD PUSH1 0x1 DUP2 MSTORE SUB PUSH1 0x20 ADD SWAP1 KECCAK256 PUSH1 0x6 ADD SLOAD PUSH1 0xFF AND ISZERO PUSH2 0x1173 SWAP1 PUSH2 0x1B97 JUMP JUMPDEST PUSH1 0x40 MLOAD DUP1 SWAP3 DUP2 SWAP3 MLOAD DUP1 SWAP3 PUSH2 0x1186 SWAP3 PUSH2 0x1AE7 JUMP JUMPDEST DUP2 ADD PUSH1 0x1 DUP2 MSTORE SUB PUSH1 0x20 ADD SWAP1 KECCAK256 SWAP13 PUSH1 0x44 CALLDATALOAD PUSH1 0x0 MSTORE DUP14 PUSH1 0x20 MSTORE PUSH1 0x40 PUSH1 0x0 KECCAK256 SWAP1 PUSH2 0x11AC SWAP2 PUSH2 0x1CA9 JUMP JUMPDEST PUSH1 0x44 CALLDATALOAD PUSH1 0x0 MSTORE DUP13 PUSH1 0x20 MSTORE PUSH1 0x40 PUSH1 0x0 KECCAK256 SWAP1 PUSH1 0xFF AND PUSH1 0xFF NOT PUSH1 0x1 DUP4 ADD SLOAD AND OR PUSH1 0x1 DUP3 ADD SSTORE PUSH1 0x2 ADD SWAP1 PUSH2 0x11DB SWAP2 PUSH2 0x1CA9 JUMP JUMPDEST PUSH1 0x44 CALLDATALOAD PUSH1 0x0 MSTORE DUP11 PUSH1 0x20 MSTORE PUSH1 0x40 PUSH1 0x0 KECCAK256 PUSH1 0x3 ADD SWAP1 PUSH2 0x11F7 SWAP2 PUSH2 0x1CA9 JUMP JUMPDEST PUSH1 0x44 CALLDATALOAD PUSH1 0x0 MSTORE DUP10 PUSH1 0x20 MSTORE PUSH1 0x40 PUSH1 0x0 KECCAK256 PUSH1 0x4 ADD SWAP1 PUSH2 0x1213 SWAP2 PUSH2 0x1CA9 JUMP JUMPDEST PUSH1 0x44 CALLDATALOAD PUSH1 0x0 MSTORE DUP9 PUSH1 0x20 MSTORE PUSH1 0x40 PUSH1 0x0 KECCAK256 PUSH1 0x5 ADD SWAP1 PUSH2 0x122F SWAP2 PUSH2 0x1CA9 JUMP JUMPDEST PUSH1 0x44 CALLDATALOAD PUSH1 0x0 MSTORE DUP8 PUSH1 0x20 MSTORE PUSH1 0x40 PUSH1 0x0 KECCAK256 PUSH1 0x6 ADD SWAP1 PUSH2 0x124B SWAP2 PUSH2 0x1CA9 JUMP JUMPDEST PUSH1 0x44 CALLDATALOAD PUSH1 0x0 MSTORE DUP7 PUSH1 0x20 MSTORE PUSH1 0x40 PUSH1 0x0 KECCAK256 PUSH1 0x7 ADD SWAP1 PUSH2 0x1267 SWAP2 PUSH2 0x1CA9 JUMP JUMPDEST PUSH1 0x44 CALLDATALOAD PUSH1 0x0 MSTORE DUP6 PUSH1 0x20 MSTORE PUSH1 0x40 PUSH1 0x0 KECCAK256 PUSH1 0x8 ADD SWAP1 PUSH2 0x1283 SWAP2 PUSH2 0x1CA9 JUMP JUMPDEST PUSH1 0x44 CALLDATALOAD PUSH1 0x0 MSTORE DUP5 PUSH1 0x20 MSTORE PUSH1 0x40 PUSH1 0x0 KECCAK256 PUSH2 0x164 CALLDATALOAD PUSH1 0x9 DUP3 ADD SSTORE PUSH1 0xA ADD SWAP1 PUSH2 0x12A8 SWAP2 PUSH2 0x1CA9 JUMP JUMPDEST PUSH1 0x44 CALLDATALOAD PUSH1 0x0 MSTORE DUP4 PUSH1 0x20 MSTORE PUSH1 0x40 PUSH1 0x0 KECCAK256 PUSH1 0xB ADD SWAP1 PUSH2 0x12C4 SWAP2 PUSH2 0x1CA9 JUMP JUMPDEST PUSH1 0x44 CALLDATALOAD PUSH1 0x0 MSTORE DUP3 PUSH1 0x20 MSTORE PUSH1 0x40 PUSH1 0x0 KECCAK256 PUSH1 0xC ADD SWAP1 PUSH2 0x12E0 SWAP2 PUSH2 0x1CA9 JUMP JUMPDEST PUSH1 0x44 CALLDATALOAD PUSH1 0x0 MSTORE DUP2 PUSH1 0x20 MSTORE PUSH1 0x40 PUSH1 0x0 KECCAK256 PUSH1 0xD ADD SWAP1 PUSH2 0x12FC SWAP2 PUSH2 0x1CA9 JUMP JUMPDEST PUSH2 0x204 CALLDATALOAD PUSH1 0x5 DUP3 ADD SSTORE PUSH1 0x6 ADD PUSH1 0xFF NOT DUP2 SLOAD AND PUSH1 0x1 OR SWAP1 SSTORE DUP1 PUSH1 0x40 MLOAD DUP1 DUP5 MLOAD DUP2 DUP2 PUSH1 0x20 DUP9 ADD SWAP2 PUSH2 0x132A SWAP3 PUSH2 0x1AE7 JUMP JUMPDEST DUP2 ADD PUSH1 0x2 DUP2 MSTORE SUB PUSH1 0x20 ADD SWAP1 KECCAK256 SWAP1 PUSH2 0x1340 SWAP2 PUSH2 0x1D70 JUMP JUMPDEST PUSH2 0x1349 SWAP1 PUSH2 0x1DB8 JUMP JUMPDEST SWAP1 PUSH2 0x1353 SWAP1 PUSH2 0x1DB8 JUMP JUMPDEST SWAP1 PUSH1 0x40 MLOAD SWAP2 PUSH1 0x44 CALLDATALOAD SWAP2 PUSH32 0x406D6A39963B189AE4D4BA0B53780ECDF05DC013E196662687A246B0A2B70548 PUSH1 0x0 DUP1 LOG4 PUSH1 0x44 CALLDATALOAD DUP2 MSTORE PUSH1 0x20 SWAP1 RETURN JUMPDEST CALLVALUE PUSH2 0x12A JUMPI PUSH1 0x20 DUP1 PUSH2 0xFBA PUSH1 0x4 PUSH2 0x13A1 CALLDATASIZE PUSH2 0x1AB6 JUMP JUMPDEST SWAP4 DUP5 SWAP4 SWAP2 PUSH1 0x40 MLOAD SWAP1 DUP5 DUP2 MLOAD SWAP3 DUP5 DUP2 DUP2 DUP6 ADD SWAP6 PUSH2 0x13BE DUP2 DUP4 DUP10 PUSH2 0x1AE7 JUMP JUMPDEST DUP2 ADD PUSH1 0x1 DUP2 MSTORE SUB ADD SWAP1 KECCAK256 ADD SLOAD PUSH1 0x3 PUSH1 0x40 MLOAD DUP6 DUP2 DUP6 MLOAD PUSH2 0xF9D DUP2 DUP4 DUP11 PUSH2 0x1AE7 JUMP JUMPDEST CALLVALUE PUSH2 0x12A JUMPI PUSH1 0x20 DUP1 PUSH1 0x5 PUSH2 0x1438 PUSH2 0x13F4 CALLDATASIZE PUSH2 0x1AB6 JUMP JUMPDEST SWAP4 SWAP1 PUSH1 0x40 MLOAD SWAP1 PUSH2 0x1427 PUSH1 0xFF PUSH1 0x6 DUP4 MLOAD SWAP5 DUP7 DUP2 DUP2 DUP8 ADD SWAP8 PUSH2 0x1415 DUP2 DUP4 DUP12 PUSH2 0x1AE7 JUMP JUMPDEST DUP2 ADD PUSH1 0x1 DUP2 MSTORE SUB ADD SWAP1 KECCAK256 ADD SLOAD AND PUSH2 0x1EA4 JUMP JUMPDEST PUSH1 0x40 MLOAD SWAP4 DUP5 SWAP3 DUP4 SWAP3 MLOAD SWAP3 DUP4 SWAP2 PUSH2 0x1AE7 JUMP JUMPDEST DUP2 ADD PUSH1 0x1 DUP2 MSTORE SUB ADD SWAP1 KECCAK256 ADD SLOAD EQ PUSH1 0x40 MLOAD SWAP1 DUP2 MSTORE RETURN JUMPDEST CALLVALUE PUSH2 0x12A JUMPI PUSH1 0x20 PUSH1 0x1 PUSH2 0x14BD PUSH2 0x1462 CALLDATASIZE PUSH2 0x1AB6 JUMP JUMPDEST SWAP4 SWAP1 PUSH1 0x60 PUSH2 0x120 PUSH1 0x40 MLOAD PUSH2 0x1475 DUP2 PUSH2 0x1A07 JUMP JUMPDEST DUP3 DUP2 MSTORE DUP3 DUP6 DUP3 ADD MSTORE DUP3 PUSH1 0x40 DUP3 ADD MSTORE DUP3 DUP1 DUP3 ADD MSTORE PUSH1 0x0 PUSH1 0x80 DUP3 ADD MSTORE DUP3 PUSH1 0xA0 DUP3 ADD MSTORE DUP3 PUSH1 0xC0 DUP3 ADD MSTORE DUP3 PUSH1 0xE0 DUP3 ADD MSTORE DUP3 PUSH2 0x100 DUP3 ADD MSTORE ADD MSTORE DUP2 PUSH1 0x40 MLOAD SWAP4 DUP3 DUP6 DUP1 SWAP5 MLOAD SWAP4 DUP5 SWAP3 ADD PUSH2 0x1AE7 JUMP JUMPDEST DUP2 ADD DUP5 DUP2 MSTORE SUB ADD SWAP1 KECCAK256 ADD SWAP1 PUSH1 0x0 MSTORE PUSH1 0x20 MSTORE PUSH2 0xC4D PUSH1 0x40 PUSH1 0x0 KECCAK256 PUSH2 0x157E PUSH1 0x9 PUSH1 0x40 MLOAD SWAP3 PUSH2 0x14E8 DUP5 PUSH2 0x1A07 JUMP JUMPDEST PUSH2 0x14F1 DUP2 PUSH2 0x1DD8 JUMP JUMPDEST DUP5 MSTORE PUSH2 0x14FF PUSH1 0x1 DUP3 ADD PUSH2 0x1DD8 JUMP JUMPDEST PUSH1 0x20 DUP6 ADD MSTORE PUSH2 0x1510 PUSH1 0x2 DUP3 ADD PUSH2 0x1DD8 JUMP JUMPDEST PUSH1 0x40 DUP6 ADD MSTORE PUSH2 0x1521 PUSH1 0x3 DUP3 ADD PUSH2 0x1DD8 JUMP JUMPDEST PUSH1 0x60 DUP6 ADD MSTORE PUSH1 0xFF PUSH1 0x4 DUP3 ADD SLOAD AND PUSH1 0x80 DUP6 ADD MSTORE PUSH2 0x153F PUSH1 0x5 DUP3 ADD PUSH2 0x1DD8 JUMP JUMPDEST PUSH1 0xA0 DUP6 ADD MSTORE PUSH2 0x1550 PUSH1 0x6 DUP3 ADD PUSH2 0x1DD8 JUMP JUMPDEST PUSH1 0xC0 DUP6 ADD MSTORE PUSH2 0x1561 PUSH1 0x7 DUP3 ADD PUSH2 0x1DD8 JUMP JUMPDEST PUSH1 0xE0 DUP6 ADD MSTORE PUSH2 0x1572 PUSH1 0x8 DUP3 ADD PUSH2 0x1DD8 JUMP JUMPDEST PUSH2 0x100 DUP6 ADD MSTORE ADD PUSH2 0x1DD8 JUMP JUMPDEST PUSH2 0x120 DUP3 ADD MSTORE PUSH1 0x40 MLOAD SWAP2 DUP3 SWAP2 PUSH1 0x20 DUP4 MSTORE PUSH2 0x120 PUSH2 0x1667 PUSH2 0x1651 PUSH2 0x163A PUSH2 0x1624 PUSH2 0x1601 PUSH2 0x15EB PUSH2 0x15D5 PUSH2 0x15BF DUP12 PUSH2 0x140 PUSH1 0x20 DUP13 MLOAD SWAP3 ADD MSTORE PUSH2 0x160 DUP14 ADD SWAP1 PUSH2 0x1B0A JUMP JUMPDEST PUSH1 0x20 DUP11 ADD MLOAD DUP13 DUP3 SUB PUSH1 0x1F NOT ADD PUSH1 0x40 DUP15 ADD MSTORE PUSH2 0x1B0A JUMP JUMPDEST PUSH1 0x40 DUP10 ADD MLOAD DUP12 DUP3 SUB PUSH1 0x1F NOT ADD PUSH1 0x60 DUP14 ADD MSTORE PUSH2 0x1B0A JUMP JUMPDEST PUSH1 0x60 DUP9 ADD MLOAD DUP11 DUP3 SUB PUSH1 0x1F NOT ADD PUSH1 0x80 DUP13 ADD MSTORE PUSH2 0x1B0A JUMP JUMPDEST PUSH1 0xFF PUSH1 0x80 DUP9 ADD MLOAD AND PUSH1 0xA0 DUP11 ADD MSTORE PUSH1 0xA0 DUP8 ADD MLOAD PUSH1 0x1F NOT DUP11 DUP4 SUB ADD PUSH1 0xC0 DUP12 ADD MSTORE PUSH2 0x1B0A JUMP JUMPDEST PUSH1 0xC0 DUP7 ADD MLOAD DUP9 DUP3 SUB PUSH1 0x1F NOT ADD PUSH1 0xE0 DUP11 ADD MSTORE PUSH2 0x1B0A JUMP JUMPDEST PUSH1 0xE0 DUP6 ADD MLOAD DUP8 DUP3 SUB PUSH1 0x1F NOT ADD PUSH2 0x100 DUP10 ADD MSTORE PUSH2 0x1B0A JUMP JUMPDEST PUSH2 0x100 DUP5 ADD MLOAD DUP7 DUP3 SUB PUSH1 0x1F NOT ADD DUP5 DUP9 ADD MSTORE PUSH2 0x1B0A JUMP JUMPDEST SWAP2 ADD MLOAD DUP4 DUP3 SUB PUSH1 0x1F NOT ADD PUSH2 0x140 DUP6 ADD MSTORE PUSH2 0x1B0A JUMP JUMPDEST CALLVALUE PUSH2 0x12A JUMPI PUSH1 0xE0 CALLDATASIZE PUSH1 0x3 NOT ADD SLT PUSH2 0x12A JUMPI PUSH1 0x1 PUSH1 0x1 PUSH1 0x40 SHL SUB PUSH1 0x4 CALLDATALOAD DUP2 DUP2 GT PUSH2 0x12A JUMPI PUSH2 0x16AD SWAP1 CALLDATASIZE SWAP1 PUSH1 0x4 ADD PUSH2 0x1A60 JUMP JUMPDEST SWAP1 PUSH1 0x24 CALLDATALOAD DUP2 DUP2 GT PUSH2 0x12A JUMPI PUSH2 0x16C6 SWAP1 CALLDATASIZE SWAP1 PUSH1 0x4 ADD PUSH2 0x1A60 JUMP JUMPDEST SWAP1 PUSH1 0x44 CALLDATALOAD SWAP2 PUSH1 0x64 CALLDATALOAD DUP3 DUP2 GT PUSH2 0x12A JUMPI PUSH2 0x16E3 SWAP1 CALLDATASIZE SWAP1 PUSH1 0x4 ADD PUSH2 0x1A60 JUMP JUMPDEST SWAP1 PUSH2 0x16EC PUSH2 0x1B2F JUMP JUMPDEST SWAP5 PUSH1 0xA4 CALLDATALOAD DUP5 DUP2 GT PUSH2 0x12A JUMPI PUSH2 0x1705 SWAP1 CALLDATASIZE SWAP1 PUSH1 0x4 ADD PUSH2 0x1A60 JUMP JUMPDEST PUSH1 0xC4 CALLDATALOAD SWAP5 DUP6 GT PUSH2 0x12A JUMPI DUP6 SWAP5 PUSH2 0x171F SWAP1 CALLDATASIZE SWAP1 PUSH1 0x4 ADD PUSH2 0x1A60 JUMP JUMPDEST SWAP1 PUSH1 0x40 MLOAD SWAP1 DUP4 MLOAD SWAP1 PUSH1 0x20 SWAP10 DUP11 DUP7 ADD SWAP3 PUSH2 0x1739 DUP2 DUP7 DUP7 PUSH2 0x1AE7 JUMP JUMPDEST DUP5 ADD DUP5 DUP13 PUSH1 0x1 SWAP7 DUP4 DUP9 DUP1 SWAP6 MSTORE SUB ADD SWAP1 KECCAK256 ADD DUP10 PUSH1 0x0 MSTORE DUP12 MSTORE DUP7 DUP5 PUSH1 0x40 PUSH1 0x0 KECCAK256 ADD SWAP1 PUSH2 0x1762 SWAP2 PUSH2 0x1CA9 JUMP JUMPDEST DUP4 PUSH1 0x40 MLOAD DUP13 DUP2 DUP10 MLOAD PUSH2 0x1775 DUP2 DUP4 DUP11 PUSH2 0x1AE7 JUMP JUMPDEST DUP2 ADD DUP5 DUP2 MSTORE SUB ADD SWAP1 KECCAK256 ADD DUP10 PUSH1 0x0 MSTORE DUP12 MSTORE DUP8 PUSH1 0x40 PUSH1 0x0 KECCAK256 PUSH1 0x3 ADD SWAP1 PUSH2 0x1798 SWAP2 PUSH2 0x1CA9 JUMP JUMPDEST DUP4 PUSH1 0x40 MLOAD DUP13 DUP2 DUP10 MLOAD PUSH2 0x17AB DUP2 DUP4 DUP11 PUSH2 0x1AE7 JUMP JUMPDEST DUP2 ADD DUP5 DUP2 MSTORE SUB ADD SWAP1 KECCAK256 ADD DUP10 PUSH1 0x0 MSTORE DUP12 MSTORE PUSH1 0x40 PUSH1 0x0 KECCAK256 PUSH1 0x4 ADD SWAP1 PUSH1 0xFF AND PUSH1 0xFF NOT DUP3 SLOAD AND OR SWAP1 SSTORE DUP3 PUSH1 0x40 MLOAD DUP12 DUP2 DUP9 MLOAD PUSH2 0x17E3 DUP2 DUP4 DUP10 PUSH2 0x1AE7 JUMP JUMPDEST DUP2 ADD DUP5 DUP2 MSTORE SUB ADD SWAP1 KECCAK256 ADD DUP9 PUSH1 0x0 MSTORE DUP11 MSTORE PUSH1 0x40 PUSH1 0x0 KECCAK256 PUSH1 0x5 ADD SWAP1 PUSH2 0x1805 SWAP2 PUSH2 0x1CA9 JUMP JUMPDEST DUP9 PUSH1 0x40 MLOAD DUP1 DUP1 SWAP4 DUP8 MLOAD DUP1 SWAP3 PUSH2 0x1819 SWAP3 PUSH2 0x1AE7 JUMP JUMPDEST DUP2 ADD DUP5 DUP2 MSTORE SUB ADD SWAP1 KECCAK256 ADD DUP6 PUSH1 0x0 MSTORE DUP8 MSTORE PUSH1 0x40 PUSH1 0x0 KECCAK256 PUSH1 0x6 ADD SWAP1 PUSH2 0xF22 SWAP2 PUSH2 0x1CA9 JUMP JUMPDEST CALLVALUE PUSH2 0x12A JUMPI PUSH2 0x1849 CALLDATASIZE PUSH2 0x1AB6 JUMP JUMPDEST PUSH1 0x40 MLOAD SWAP1 PUSH2 0x1856 DUP3 PUSH2 0x19D6 JUMP JUMPDEST PUSH1 0x60 DUP3 DUP2 DUP1 SWAP5 MSTORE PUSH1 0x20 SWAP5 DUP3 DUP3 DUP8 SWAP5 DUP6 DUP1 SWAP6 ADD MSTORE PUSH1 0x40 DUP2 ADD PUSH1 0x0 SWAP1 MSTORE DUP2 DUP1 DUP3 ADD MSTORE DUP2 PUSH1 0x80 DUP3 ADD MSTORE DUP2 PUSH1 0xA0 DUP3 ADD MSTORE PUSH1 0xC0 ADD MSTORE PUSH1 0x40 MLOAD SWAP3 DUP4 DUP3 DUP2 SWAP4 MLOAD SWAP3 DUP4 SWAP2 ADD SWAP2 PUSH2 0x189D SWAP3 PUSH2 0x1AE7 JUMP JUMPDEST DUP2 ADD PUSH1 0x1 DUP2 MSTORE SUB ADD SWAP1 KECCAK256 PUSH1 0x2 ADD SWAP1 PUSH1 0x0 MSTORE DUP3 MSTORE PUSH1 0x40 PUSH1 0x0 KECCAK256 PUSH1 0x40 MLOAD SWAP2 PUSH2 0x18C2 DUP4 PUSH2 0x19D6 JUMP JUMPDEST PUSH2 0x18CB DUP3 PUSH2 0x1DD8 JUMP JUMPDEST DUP4 MSTORE PUSH2 0x18D9 PUSH1 0x1 DUP4 ADD PUSH2 0x1DD8 JUMP JUMPDEST SWAP2 DUP5 DUP5 ADD SWAP3 DUP4 MSTORE PUSH1 0x2 DUP2 ADD SLOAD PUSH1 0xFF AND PUSH1 0x40 DUP6 ADD SWAP1 DUP2 MSTORE PUSH1 0x3 DUP3 ADD PUSH2 0x18FC SWAP1 PUSH2 0x1DD8 JUMP JUMPDEST DUP6 DUP5 ADD SWAP1 DUP2 MSTORE SWAP1 PUSH2 0x190F PUSH1 0x4 DUP5 ADD PUSH2 0x1DD8 JUMP JUMPDEST PUSH1 0x80 DUP8 ADD SWAP1 DUP2 MSTORE SWAP2 PUSH2 0x1923 PUSH1 0x5 DUP6 ADD PUSH2 0x1DD8 JUMP JUMPDEST SWAP4 PUSH1 0xA0 DUP9 ADD SWAP5 DUP6 MSTORE PUSH1 0x6 ADD PUSH2 0x1937 SWAP1 PUSH2 0x1DD8 JUMP JUMPDEST SWAP5 PUSH1 0xC0 DUP9 ADD SWAP6 DUP7 MSTORE PUSH1 0x40 MLOAD SWAP9 DUP10 SWAP9 DUP2 DUP11 MSTORE MLOAD SWAP1 DUP10 ADD PUSH1 0xE0 SWAP1 MSTORE PUSH2 0x100 DUP10 ADD PUSH2 0x195E SWAP2 PUSH2 0x1B0A JUMP JUMPDEST SWAP7 MLOAD PUSH1 0x1F NOT SWAP8 DUP9 DUP11 DUP3 SUB ADD PUSH1 0x40 DUP12 ADD MSTORE PUSH2 0x1977 SWAP2 PUSH2 0x1B0A JUMP JUMPDEST SWAP3 MLOAD PUSH1 0xFF AND SWAP1 DUP9 ADD MSTORE MLOAD SWAP1 DUP6 DUP8 DUP3 SUB ADD PUSH1 0x80 DUP9 ADD MSTORE PUSH2 0x1995 SWAP2 PUSH2 0x1B0A JUMP JUMPDEST SWAP1 MLOAD SWAP1 DUP5 DUP7 DUP3 SUB ADD PUSH1 0xA0 DUP8 ADD MSTORE PUSH2 0x19AB SWAP2 PUSH2 0x1B0A JUMP JUMPDEST SWAP1 MLOAD SWAP1 DUP4 DUP6 DUP3 SUB ADD PUSH1 0xC0 DUP7 ADD MSTORE PUSH2 0x19C1 SWAP2 PUSH2 0x1B0A JUMP JUMPDEST SWAP1 MLOAD SWAP2 DUP4 DUP3 SUB ADD PUSH1 0xE0 DUP5 ADD MSTORE PUSH2 0xC4D SWAP2 PUSH2 0x1B0A JUMP JUMPDEST PUSH1 0xE0 DUP2 ADD SWAP1 DUP2 LT PUSH1 0x1 PUSH1 0x1 PUSH1 0x40 SHL SUB DUP3 GT OR PUSH2 0x19F1 JUMPI PUSH1 0x40 MSTORE JUMP JUMPDEST PUSH4 0x4E487B71 PUSH1 0xE0 SHL PUSH1 0x0 MSTORE PUSH1 0x41 PUSH1 0x4 MSTORE PUSH1 0x24 PUSH1 0x0 REVERT JUMPDEST PUSH2 0x140 DUP2 ADD SWAP1 DUP2 LT PUSH1 0x1 PUSH1 0x1 PUSH1 0x40 SHL SUB DUP3 GT OR PUSH2 0x19F1 JUMPI PUSH1 0x40 MSTORE JUMP JUMPDEST PUSH2 0x1C0 DUP2 ADD SWAP1 DUP2 LT PUSH1 0x1 PUSH1 0x1 PUSH1 0x40 SHL SUB DUP3 GT OR PUSH2 0x19F1 JUMPI PUSH1 0x40 MSTORE JUMP JUMPDEST SWAP1 PUSH1 0x1F DUP1 NOT SWAP2 ADD AND DUP2 ADD SWAP1 DUP2 LT PUSH1 0x1 PUSH1 0x1 PUSH1 0x40 SHL SUB DUP3 GT OR PUSH2 0x19F1 JUMPI PUSH1 0x40 MSTORE JUMP JUMPDEST DUP2 PUSH1 0x1F DUP3 ADD SLT ISZERO PUSH2 0x12A JUMPI DUP1 CALLDATALOAD SWAP1 PUSH1 0x1 PUSH1 0x1 PUSH1 0x40 SHL SUB DUP3 GT PUSH2 0x19F1 JUMPI PUSH1 0x40 MLOAD SWAP3 PUSH2 0x1A94 PUSH1 0x1F DUP5 ADD PUSH1 0x1F NOT AND PUSH1 0x20 ADD DUP6 PUSH2 0x1A3F JUMP JUMPDEST DUP3 DUP5 MSTORE PUSH1 0x20 DUP4 DUP4 ADD ADD GT PUSH2 0x12A JUMPI DUP2 PUSH1 0x0 SWAP3 PUSH1 0x20 DUP1 SWAP4 ADD DUP4 DUP7 ADD CALLDATACOPY DUP4 ADD ADD MSTORE SWAP1 JUMP JUMPDEST PUSH1 0x40 PUSH1 0x3 NOT DUP3 ADD SLT PUSH2 0x12A JUMPI PUSH1 0x4 CALLDATALOAD SWAP1 PUSH1 0x1 PUSH1 0x1 PUSH1 0x40 SHL SUB DUP3 GT PUSH2 0x12A JUMPI PUSH2 0x1AE0 SWAP2 PUSH1 0x4 ADD PUSH2 0x1A60 JUMP JUMPDEST SWAP1 PUSH1 0x24 CALLDATALOAD SWAP1 JUMP JUMPDEST PUSH1 0x0 JUMPDEST DUP4 DUP2 LT PUSH2 0x1AFA JUMPI POP POP PUSH1 0x0 SWAP2 ADD MSTORE JUMP JUMPDEST DUP2 DUP2 ADD MLOAD DUP4 DUP3 ADD MSTORE PUSH1 0x20 ADD PUSH2 0x1AEA JUMP JUMPDEST SWAP1 PUSH1 0x20 SWAP2 PUSH2 0x1B23 DUP2 MLOAD DUP1 SWAP3 DUP2 DUP6 MSTORE DUP6 DUP1 DUP7 ADD SWAP2 ADD PUSH2 0x1AE7 JUMP JUMPDEST PUSH1 0x1F ADD PUSH1 0x1F NOT AND ADD ADD SWAP1 JUMP JUMPDEST PUSH1 0x84 CALLDATALOAD SWAP1 PUSH1 0xFF DUP3 AND DUP3 SUB PUSH2 0x12A JUMPI JUMP JUMPDEST PUSH1 0x0 SLOAD PUSH1 0x1 PUSH1 0x1 PUSH1 0xA0 SHL SUB AND CALLER SUB PUSH2 0x1B53 JUMPI JUMP JUMPDEST PUSH1 0x64 PUSH1 0x40 MLOAD PUSH3 0x461BCD PUSH1 0xE5 SHL DUP2 MSTORE PUSH1 0x20 PUSH1 0x4 DUP3 ADD MSTORE PUSH1 0x20 PUSH1 0x24 DUP3 ADD MSTORE PUSH32 0x4F776E61626C653A2063616C6C6572206973206E6F7420746865206F776E6572 PUSH1 0x44 DUP3 ADD MSTORE REVERT JUMPDEST ISZERO PUSH2 0x1B9E JUMPI JUMP JUMPDEST PUSH1 0x40 MLOAD PUSH3 0x461BCD PUSH1 0xE5 SHL DUP2 MSTORE PUSH1 0x20 PUSH1 0x4 DUP3 ADD MSTORE PUSH1 0x19 PUSH1 0x24 DUP3 ADD MSTORE PUSH32 0x547572746C6520616C7265616479207265676973746572656400000000000000 PUSH1 0x44 DUP3 ADD MSTORE PUSH1 0x64 SWAP1 REVERT JUMPDEST DUP1 SLOAD DUP3 LT ISZERO PUSH2 0x1BFB JUMPI PUSH1 0x0 MSTORE PUSH1 0x20 PUSH1 0x0 KECCAK256 ADD SWAP1 PUSH1 0x0 SWAP1 JUMP JUMPDEST PUSH4 0x4E487B71 PUSH1 0xE0 SHL PUSH1 0x0 MSTORE PUSH1 0x32 PUSH1 0x4 MSTORE PUSH1 0x24 PUSH1 0x0 REVERT JUMPDEST SWAP1 PUSH1 0x1 DUP3 DUP2 SHR SWAP3 AND DUP1 ISZERO PUSH2 0x1C41 JUMPI JUMPDEST PUSH1 0x20 DUP4 LT EQ PUSH2 0x1C2B JUMPI JUMP JUMPDEST PUSH4 0x4E487B71 PUSH1 0xE0 SHL PUSH1 0x0 MSTORE PUSH1 0x22 PUSH1 0x4 MSTORE PUSH1 0x24 PUSH1 0x0 REVERT JUMPDEST SWAP2 PUSH1 0x7F AND SWAP2 PUSH2 0x1C20 JUMP JUMPDEST DUP2 DUP2 LT PUSH2 0x1C56 JUMPI POP POP JUMP JUMPDEST PUSH1 0x0 DUP2 SSTORE PUSH1 0x1 ADD PUSH2 0x1C4B JUMP JUMPDEST SWAP2 SWAP1 PUSH1 0x1F DUP2 GT PUSH2 0x1C71 JUMPI POP POP POP JUMP JUMPDEST PUSH2 0x1C9D SWAP3 PUSH1 0x0 MSTORE PUSH1 0x20 PUSH1 0x0 KECCAK256 SWAP1 PUSH1 0x20 PUSH1 0x1F DUP5 ADD PUSH1 0x5 SHR DUP4 ADD SWAP4 LT PUSH2 0x1C9F JUMPI JUMPDEST PUSH1 0x1F ADD PUSH1 0x5 SHR ADD SWAP1 PUSH2 0x1C4B JUMP JUMPDEST JUMP JUMPDEST SWAP1 SWAP2 POP DUP2 SWAP1 PUSH2 0x1C90 JUMP JUMPDEST SWAP2 SWAP1 SWAP2 DUP3 MLOAD PUSH1 0x1 PUSH1 0x1 PUSH1 0x40 SHL SUB DUP2 GT PUSH2 0x19F1 JUMPI PUSH2 0x1CD0 DUP2 PUSH2 0x1CCA DUP5 SLOAD PUSH2 0x1C11 JUMP JUMPDEST DUP5 PUSH2 0x1C62 JUMP JUMPDEST PUSH1 0x20 DUP1 PUSH1 0x1F DUP4 GT PUSH1 0x1 EQ PUSH2 0x1D0C JUMPI POP DUP2 SWAP3 SWAP4 SWAP5 PUSH1 0x0 SWAP3 PUSH2 0x1D01 JUMPI JUMPDEST POP POP DUP2 PUSH1 0x1 SHL SWAP2 PUSH1 0x0 NOT SWAP1 PUSH1 0x3 SHL SHR NOT AND OR SWAP1 SSTORE JUMP JUMPDEST ADD MLOAD SWAP1 POP CODESIZE DUP1 PUSH2 0x1CEB JUMP JUMPDEST SWAP1 PUSH1 0x1F NOT DUP4 AND SWAP6 DUP5 PUSH1 0x0 MSTORE DUP3 PUSH1 0x0 KECCAK256 SWAP3 PUSH1 0x0 SWAP1 JUMPDEST DUP9 DUP3 LT PUSH2 0x1D58 JUMPI POP POP DUP4 PUSH1 0x1 SWAP6 SWAP7 SWAP8 LT PUSH2 0x1D3F JUMPI JUMPDEST POP POP POP DUP2 SHL ADD SWAP1 SSTORE JUMP JUMPDEST ADD MLOAD PUSH1 0x0 NOT PUSH1 0xF8 DUP5 PUSH1 0x3 SHL AND SHR NOT AND SWAP1 SSTORE CODESIZE DUP1 DUP1 PUSH2 0x1D35 JUMP JUMPDEST DUP1 PUSH1 0x1 DUP6 SWAP7 DUP3 SWAP5 SWAP7 DUP7 ADD MLOAD DUP2 SSTORE ADD SWAP6 ADD SWAP4 ADD SWAP1 PUSH2 0x1D20 JUMP JUMPDEST DUP1 SLOAD PUSH9 0x10000000000000000 DUP2 LT ISZERO PUSH2 0x19F1 JUMPI PUSH2 0x1D92 SWAP2 PUSH1 0x1 DUP3 ADD DUP2 SSTORE PUSH2 0x1BE3 JUMP JUMPDEST SWAP2 SWAP1 SWAP2 PUSH2 0x1DA2 JUMPI PUSH2 0x1C9D SWAP2 PUSH2 0x1CA9 JUMP JUMPDEST PUSH4 0x4E487B71 PUSH1 0xE0 SHL PUSH1 0x0 MSTORE PUSH1 0x0 PUSH1 0x4 MSTORE PUSH1 0x24 PUSH1 0x0 REVERT JUMPDEST PUSH2 0x1DD0 SWAP1 PUSH1 0x20 PUSH1 0x40 MLOAD SWAP3 DUP3 DUP5 DUP1 SWAP5 MLOAD SWAP4 DUP5 SWAP3 ADD PUSH2 0x1AE7 JUMP JUMPDEST DUP2 ADD SUB SWAP1 KECCAK256 SWAP1 JUMP JUMPDEST SWAP1 PUSH1 0x40 MLOAD SWAP2 DUP3 PUSH1 0x0 DUP3 SLOAD SWAP3 PUSH2 0x1DEC DUP5 PUSH2 0x1C11 JUMP JUMPDEST SWAP1 DUP2 DUP5 MSTORE PUSH1 0x1 SWAP5 DUP6 DUP2 AND SWAP1 DUP2 PUSH1 0x0 EQ PUSH2 0x1E59 JUMPI POP PUSH1 0x1 EQ PUSH2 0x1E16 JUMPI JUMPDEST POP POP PUSH2 0x1C9D SWAP3 POP SUB DUP4 PUSH2 0x1A3F JUMP JUMPDEST SWAP1 SWAP4 SWAP2 POP PUSH1 0x0 MSTORE PUSH1 0x20 SWAP1 DUP2 PUSH1 0x0 KECCAK256 SWAP4 PUSH1 0x0 SWAP2 JUMPDEST DUP2 DUP4 LT PUSH2 0x1E41 JUMPI POP POP PUSH2 0x1C9D SWAP4 POP DUP3 ADD ADD CODESIZE DUP1 PUSH2 0x1E08 JUMP JUMPDEST DUP6 SLOAD DUP9 DUP5 ADD DUP6 ADD MSTORE SWAP5 DUP6 ADD SWAP5 DUP8 SWAP5 POP SWAP2 DUP4 ADD SWAP2 PUSH2 0x1E29 JUMP JUMPDEST SWAP2 POP POP PUSH2 0x1C9D SWAP5 POP PUSH1 0x20 SWAP3 POP PUSH1 0xFF NOT AND DUP3 DUP5 ADD MSTORE ISZERO ISZERO PUSH1 0x5 SHL DUP3 ADD ADD CODESIZE DUP1 PUSH2 0x1E08 JUMP JUMPDEST SWAP1 SWAP2 PUSH2 0x1E93 PUSH2 0x1EA1 SWAP4 PUSH1 0x40 DUP5 MSTORE PUSH1 0x40 DUP5 ADD SWAP1 PUSH2 0x1B0A JUMP JUMPDEST SWAP2 PUSH1 0x20 DUP2 DUP5 SUB SWAP2 ADD MSTORE PUSH2 0x1B0A JUMP JUMPDEST SWAP1 JUMP JUMPDEST ISZERO PUSH2 0x1EAB JUMPI JUMP JUMPDEST PUSH1 0x40 MLOAD PUSH3 0x461BCD PUSH1 0xE5 SHL DUP2 MSTORE PUSH1 0x20 PUSH1 0x4 DUP3 ADD MSTORE PUSH1 0x15 PUSH1 0x24 DUP3 ADD MSTORE PUSH21 0x151D5C9D1B1948191BD95CC81B9BDD08195E1A5CDD PUSH1 0x5A SHL PUSH1 0x44 DUP3 ADD MSTORE PUSH1 0x64 SWAP1 REVERT JUMPDEST PUSH1 0x0 NOT DUP2 EQ PUSH2 0x1EF7 JUMPI PUSH1 0x1 ADD SWAP1 JUMP JUMPDEST PUSH4 0x4E487B71 PUSH1 0xE0 SHL PUSH1 0x0 MSTORE PUSH1 0x11 PUSH1 0x4 MSTORE PUSH1 0x24 PUSH1 0x0 REVERT JUMPDEST PUSH1 0x0 SWAP3 SWAP2 DUP2 SLOAD PUSH2 0x1F1C DUP2 PUSH2 0x1C11 JUMP JUMPDEST SWAP3 PUSH1 0x1 SWAP2 DUP1 DUP4 AND SWAP1 DUP2 ISZERO PUSH2 0x1F75 JUMPI POP PUSH1 0x1 EQ PUSH2 0x1F39 JUMPI JUMPDEST POP POP POP POP JUMP JUMPDEST SWAP1 SWAP2 SWAP3 SWAP4 SWAP5 POP PUSH1 0x0 MSTORE PUSH1 0x20 SWAP1 DUP2 PUSH1 0x0 KECCAK256 SWAP1 PUSH1 0x0 SWAP2 JUMPDEST DUP6 DUP4 LT PUSH2 0x1F64 JUMPI POP POP POP POP ADD SWAP1 CODESIZE DUP1 DUP1 DUP1 PUSH2 0x1F33 JUMP JUMPDEST DUP1 SLOAD DUP6 DUP5 ADD MSTORE SWAP2 DUP4 ADD SWAP2 DUP2 ADD PUSH2 0x1F4E JUMP JUMPDEST PUSH1 0xFF NOT AND DUP5 MSTORE POP POP POP DUP2 ISZERO ISZERO SWAP1 SWAP2 MUL ADD SWAP2 POP CODESIZE DUP1 DUP1 DUP1 PUSH2 0x1F33 JUMP JUMPDEST SWAP1 DUP1 DUP3 EQ PUSH2 0x2068 JUMPI PUSH2 0x1FA2 DUP2 SLOAD PUSH2 0x1C11 JUMP JUMPDEST SWAP1 PUSH1 0x1 PUSH1 0x1 PUSH1 0x40 SHL SUB DUP3 GT PUSH2 0x19F1 JUMPI DUP2 SWAP1 PUSH2 0x1FC7 DUP3 PUSH2 0x1FC1 DUP7 SLOAD PUSH2 0x1C11 JUMP JUMPDEST DUP7 PUSH2 0x1C62 JUMP JUMPDEST PUSH1 0x0 SWAP1 PUSH1 0x1F DUP4 GT PUSH1 0x1 EQ PUSH2 0x1FFD JUMPI PUSH1 0x0 SWAP3 PUSH2 0x1FF2 JUMPI POP POP DUP2 PUSH1 0x1 SHL SWAP2 PUSH1 0x0 NOT SWAP1 PUSH1 0x3 SHL SHR NOT AND OR SWAP1 SSTORE JUMP JUMPDEST ADD SLOAD SWAP1 POP CODESIZE DUP1 PUSH2 0x1CEB JUMP JUMPDEST DUP2 MSTORE PUSH1 0x20 DUP1 DUP3 KECCAK256 DUP6 DUP4 MSTORE DUP2 DUP4 KECCAK256 SWAP4 POP SWAP1 PUSH1 0x1F NOT DUP6 AND SWAP1 DUP4 SWAP1 JUMPDEST DUP3 DUP3 LT PUSH2 0x204F JUMPI POP POP SWAP1 DUP5 PUSH1 0x1 SWAP6 SWAP5 SWAP4 SWAP3 LT PUSH2 0x2036 JUMPI POP POP POP DUP2 SHL ADD SWAP1 SSTORE JUMP JUMPDEST ADD SLOAD PUSH1 0x0 NOT PUSH1 0xF8 DUP5 PUSH1 0x3 SHL AND SHR NOT AND SWAP1 SSTORE CODESIZE DUP1 DUP1 PUSH2 0x1D35 JUMP JUMPDEST DUP5 SWAP6 DUP2 SWAP3 SWAP6 DUP6 ADD SLOAD DUP2 SSTORE PUSH1 0x1 DUP1 SWAP2 ADD SWAP7 ADD SWAP5 ADD SWAP1 PUSH2 0x2016 JUMP JUMPDEST POP POP JUMP INVALID LOG2 PUSH5 0x6970667358 0x22 SLT KECCAK256 REVERT 0xC1 SHR PUSH28 0x1B9D50FEBD115E56CA8F1FCE9CD89F4681C7C4CF66B598937E2ABABD PUSH5 0x736F6C6343 STOP ADDMOD SLT STOP CALLER "
				},
				"gasEstimates": {
					"creation": {
						"codeDepositCost": "1670800",
						"executionCost": "27547",
						"totalCost": "1698347"
					},
					"external": {
						"approveMultiplicationDocByReviewer(string,bytes32)": "infinite",
						"approveTransferDocByReviewer(string,bytes32)": "infinite",
						"changeTurtleOwner(string,string,string)": "infinite",
						"owner()": "2538",
						"registerTurtle(string,string)": "infinite",
						"registerTurtleAssigneeDocument(string,string,bytes32,string,uint8,string,string)": "infinite",
						"registerTurtleDeathDocument(string,string,bytes32,string,uint8,string,string,string,string)": "infinite",
						"registerTurtleGrantorDocument(string,string,bytes32,string,string,string,string)": "infinite",
						"registerTurtleMultiplicationDocument(string,string,bytes32,uint8,string,string,string,string,string,string,string,uint256,string,string,string,string,bytes32)": "infinite",
						"renounceOwnership()": "28288",
						"searchCurrentDocumentHash(string)": "infinite",
						"searchTurtleDeathDocument(string,bytes32)": "infinite",
						"searchTurtleMultiplicationDocument(string,bytes32)": "infinite",
						"searchTurtleTransferDocument(string,bytes32)": "infinite",
						"transferOwnership(address)": "28407",
						"turtleValid(string,bytes32)": "infinite"
					}
				},
				"methodIdentifiers": {
					"approveMultiplicationDocByReviewer(string,bytes32)": "482346bd",
					"approveTransferDocByReviewer(string,bytes32)": "229aa914",
					"changeTurtleOwner(string,string,string)": "ce5f0b7d",
					"owner()": "8da5cb5b",
					"registerTurtle(string,string)": "5c493eaa",
					"registerTurtleAssigneeDocument(string,string,bytes32,string,uint8,string,string)": "18e1a28a",
					"registerTurtleDeathDocument(string,string,bytes32,string,uint8,string,string,string,string)": "6c1dcaf8",
					"registerTurtleGrantorDocument(string,string,bytes32,string,string,string,string)": "596c442a",
					"registerTurtleMultiplicationDocument(string,string,bytes32,uint8,string,string,string,string,string,string,string,uint256,string,string,string,string,bytes32)": "358a3d37",
					"renounceOwnership()": "715018a6",
					"searchCurrentDocumentHash(string)": "f3cb197d",
					"searchTurtleDeathDocument(string,bytes32)": "17aa1f48",
					"searchTurtleMultiplicationDocument(string,bytes32)": "673ae4c1",
					"searchTurtleTransferDocument(string,bytes32)": "1a0642ef",
					"transferOwnership(address)": "f2fde38b",
					"turtleValid(string,bytes32)": "1b979af1"
				}
			},
			"storageLayout": {
				"storage": [
					{
						"astId": 7,
						"contract": "contracts/TurtleDocumentation.sol:TurtleDocumentation",
						"label": "_owner",
						"offset": 0,
						"slot": "0",
						"type": "t_address"
					},
					{
						"astId": 241,
						"contract": "contracts/TurtleDocumentation.sol:TurtleDocumentation",
						"label": "turtles",
						"offset": 0,
						"slot": "1",
						"type": "t_mapping(t_string_memory_ptr,t_struct(Turtle)236_storage)"
					},
					{
						"astId": 246,
						"contract": "contracts/TurtleDocumentation.sol:TurtleDocumentation",
						"label": "ownerToTurtleIds",
						"offset": 0,
						"slot": "2",
						"type": "t_mapping(t_string_memory_ptr,t_array(t_string_storage)dyn_storage)"
					}
				],
				"types": {
					"t_address": {
						"encoding": "inplace",
						"label": "address",
						"numberOfBytes": "20"
					},
					"t_array(t_string_storage)dyn_storage": {
						"base": "t_string_storage",
						"encoding": "dynamic_array",
						"label": "string[]",
						"numberOfBytes": "32"
					},
					"t_bool": {
						"encoding": "inplace",
						"label": "bool",
						"numberOfBytes": "1"
					},
					"t_bytes32": {
						"encoding": "inplace",
						"label": "bytes32",
						"numberOfBytes": "32"
					},
					"t_mapping(t_bytes32,t_struct(Death)212_storage)": {
						"encoding": "mapping",
						"key": "t_bytes32",
						"label": "mapping(bytes32 => struct TurtleDocumentation.Death)",
						"numberOfBytes": "32",
						"value": "t_struct(Death)212_storage"
					},
					"t_mapping(t_bytes32,t_struct(Multiplication)176_storage)": {
						"encoding": "mapping",
						"key": "t_bytes32",
						"label": "mapping(bytes32 => struct TurtleDocumentation.Multiplication)",
						"numberOfBytes": "32",
						"value": "t_struct(Multiplication)176_storage"
					},
					"t_mapping(t_bytes32,t_struct(Transfer)197_storage)": {
						"encoding": "mapping",
						"key": "t_bytes32",
						"label": "mapping(bytes32 => struct TurtleDocumentation.Transfer)",
						"numberOfBytes": "32",
						"value": "t_struct(Transfer)197_storage"
					},
					"t_mapping(t_string_memory_ptr,t_array(t_string_storage)dyn_storage)": {
						"encoding": "mapping",
						"key": "t_string_memory_ptr",
						"label": "mapping(string => string[])",
						"numberOfBytes": "32",
						"value": "t_array(t_string_storage)dyn_storage"
					},
					"t_mapping(t_string_memory_ptr,t_struct(Turtle)236_storage)": {
						"encoding": "mapping",
						"key": "t_string_memory_ptr",
						"label": "mapping(string => struct TurtleDocumentation.Turtle)",
						"numberOfBytes": "32",
						"value": "t_struct(Turtle)236_storage"
					},
					"t_string_memory_ptr": {
						"encoding": "bytes",
						"label": "string",
						"numberOfBytes": "32"
					},
					"t_string_storage": {
						"encoding": "bytes",
						"label": "string",
						"numberOfBytes": "32"
					},
					"t_struct(Death)212_storage": {
						"encoding": "inplace",
						"label": "struct TurtleDocumentation.Death",
						"members": [
							{
								"astId": 199,
								"contract": "contracts/TurtleDocumentation.sol:TurtleDocumentation",
								"label": "applicant",
								"offset": 0,
								"slot": "0",
								"type": "t_string_storage"
							},
							{
								"astId": 201,
								"contract": "contracts/TurtleDocumentation.sol:TurtleDocumentation",
								"label": "shelter",
								"offset": 0,
								"slot": "1",
								"type": "t_string_storage"
							},
							{
								"astId": 203,
								"contract": "contracts/TurtleDocumentation.sol:TurtleDocumentation",
								"label": "count",
								"offset": 0,
								"slot": "2",
								"type": "t_uint8"
							},
							{
								"astId": 205,
								"contract": "contracts/TurtleDocumentation.sol:TurtleDocumentation",
								"label": "deathReason",
								"offset": 0,
								"slot": "3",
								"type": "t_string_storage"
							},
							{
								"astId": 207,
								"contract": "contracts/TurtleDocumentation.sol:TurtleDocumentation",
								"label": "plan",
								"offset": 0,
								"slot": "4",
								"type": "t_string_storage"
							},
							{
								"astId": 209,
								"contract": "contracts/TurtleDocumentation.sol:TurtleDocumentation",
								"label": "deathImage",
								"offset": 0,
								"slot": "5",
								"type": "t_string_storage"
							},
							{
								"astId": 211,
								"contract": "contracts/TurtleDocumentation.sol:TurtleDocumentation",
								"label": "diagnosis",
								"offset": 0,
								"slot": "6",
								"type": "t_string_storage"
							}
						],
						"numberOfBytes": "224"
					},
					"t_struct(Multiplication)176_storage": {
						"encoding": "inplace",
						"label": "struct TurtleDocumentation.Multiplication",
						"members": [
							{
								"astId": 149,
								"contract": "contracts/TurtleDocumentation.sol:TurtleDocumentation",
								"label": "applicant",
								"offset": 0,
								"slot": "0",
								"type": "t_string_storage"
							},
							{
								"astId": 151,
								"contract": "contracts/TurtleDocumentation.sol:TurtleDocumentation",
								"label": "count",
								"offset": 0,
								"slot": "1",
								"type": "t_uint8"
							},
							{
								"astId": 153,
								"contract": "contracts/TurtleDocumentation.sol:TurtleDocumentation",
								"label": "area",
								"offset": 0,
								"slot": "2",
								"type": "t_string_storage"
							},
							{
								"astId": 155,
								"contract": "contracts/TurtleDocumentation.sol:TurtleDocumentation",
								"label": "purpose",
								"offset": 0,
								"slot": "3",
								"type": "t_string_storage"
							},
							{
								"astId": 157,
								"contract": "contracts/TurtleDocumentation.sol:TurtleDocumentation",
								"label": "location",
								"offset": 0,
								"slot": "4",
								"type": "t_string_storage"
							},
							{
								"astId": 159,
								"contract": "contracts/TurtleDocumentation.sol:TurtleDocumentation",
								"label": "fatherId",
								"offset": 0,
								"slot": "5",
								"type": "t_string_storage"
							},
							{
								"astId": 161,
								"contract": "contracts/TurtleDocumentation.sol:TurtleDocumentation",
								"label": "motherId",
								"offset": 0,
								"slot": "6",
								"type": "t_string_storage"
							},
							{
								"astId": 163,
								"contract": "contracts/TurtleDocumentation.sol:TurtleDocumentation",
								"label": "birth",
								"offset": 0,
								"slot": "7",
								"type": "t_string_storage"
							},
							{
								"astId": 165,
								"contract": "contracts/TurtleDocumentation.sol:TurtleDocumentation",
								"label": "name",
								"offset": 0,
								"slot": "8",
								"type": "t_string_storage"
							},
							{
								"astId": 167,
								"contract": "contracts/TurtleDocumentation.sol:TurtleDocumentation",
								"label": "weight",
								"offset": 0,
								"slot": "9",
								"type": "t_uint256"
							},
							{
								"astId": 169,
								"contract": "contracts/TurtleDocumentation.sol:TurtleDocumentation",
								"label": "gender",
								"offset": 0,
								"slot": "10",
								"type": "t_string_storage"
							},
							{
								"astId": 171,
								"contract": "contracts/TurtleDocumentation.sol:TurtleDocumentation",
								"label": "locationSpecification",
								"offset": 0,
								"slot": "11",
								"type": "t_string_storage"
							},
							{
								"astId": 173,
								"contract": "contracts/TurtleDocumentation.sol:TurtleDocumentation",
								"label": "multiplicationMethod",
								"offset": 0,
								"slot": "12",
								"type": "t_string_storage"
							},
							{
								"astId": 175,
								"contract": "contracts/TurtleDocumentation.sol:TurtleDocumentation",
								"label": "shelterSpecification",
								"offset": 0,
								"slot": "13",
								"type": "t_string_storage"
							}
						],
						"numberOfBytes": "448"
					},
					"t_struct(Transfer)197_storage": {
						"encoding": "inplace",
						"label": "struct TurtleDocumentation.Transfer",
						"members": [
							{
								"astId": 178,
								"contract": "contracts/TurtleDocumentation.sol:TurtleDocumentation",
								"label": "grantApplicant",
								"offset": 0,
								"slot": "0",
								"type": "t_string_storage"
							},
							{
								"astId": 180,
								"contract": "contracts/TurtleDocumentation.sol:TurtleDocumentation",
								"label": "assignApplicant",
								"offset": 0,
								"slot": "1",
								"type": "t_string_storage"
							},
							{
								"astId": 182,
								"contract": "contracts/TurtleDocumentation.sol:TurtleDocumentation",
								"label": "grantorId",
								"offset": 0,
								"slot": "2",
								"type": "t_string_storage"
							},
							{
								"astId": 184,
								"contract": "contracts/TurtleDocumentation.sol:TurtleDocumentation",
								"label": "assigneeId",
								"offset": 0,
								"slot": "3",
								"type": "t_string_storage"
							},
							{
								"astId": 186,
								"contract": "contracts/TurtleDocumentation.sol:TurtleDocumentation",
								"label": "count",
								"offset": 0,
								"slot": "4",
								"type": "t_uint8"
							},
							{
								"astId": 188,
								"contract": "contracts/TurtleDocumentation.sol:TurtleDocumentation",
								"label": "transferReason",
								"offset": 0,
								"slot": "5",
								"type": "t_string_storage"
							},
							{
								"astId": 190,
								"contract": "contracts/TurtleDocumentation.sol:TurtleDocumentation",
								"label": "purpose",
								"offset": 0,
								"slot": "6",
								"type": "t_string_storage"
							},
							{
								"astId": 192,
								"contract": "contracts/TurtleDocumentation.sol:TurtleDocumentation",
								"label": "aquisition",
								"offset": 0,
								"slot": "7",
								"type": "t_string_storage"
							},
							{
								"astId": 194,
								"contract": "contracts/TurtleDocumentation.sol:TurtleDocumentation",
								"label": "fatherId",
								"offset": 0,
								"slot": "8",
								"type": "t_string_storage"
							},
							{
								"astId": 196,
								"contract": "contracts/TurtleDocumentation.sol:TurtleDocumentation",
								"label": "motherId",
								"offset": 0,
								"slot": "9",
								"type": "t_string_storage"
							}
						],
						"numberOfBytes": "320"
					},
					"t_struct(Turtle)236_storage": {
						"encoding": "inplace",
						"label": "struct TurtleDocumentation.Turtle",
						"members": [
							{
								"astId": 217,
								"contract": "contracts/TurtleDocumentation.sol:TurtleDocumentation",
								"label": "multiplicationDoc",
								"offset": 0,
								"slot": "0",
								"type": "t_mapping(t_bytes32,t_struct(Multiplication)176_storage)"
							},
							{
								"astId": 222,
								"contract": "contracts/TurtleDocumentation.sol:TurtleDocumentation",
								"label": "transferDocs",
								"offset": 0,
								"slot": "1",
								"type": "t_mapping(t_bytes32,t_struct(Transfer)197_storage)"
							},
							{
								"astId": 227,
								"contract": "contracts/TurtleDocumentation.sol:TurtleDocumentation",
								"label": "deathDoc",
								"offset": 0,
								"slot": "2",
								"type": "t_mapping(t_bytes32,t_struct(Death)212_storage)"
							},
							{
								"astId": 229,
								"contract": "contracts/TurtleDocumentation.sol:TurtleDocumentation",
								"label": "beforeDocumentHash",
								"offset": 0,
								"slot": "3",
								"type": "t_bytes32"
							},
							{
								"astId": 231,
								"contract": "contracts/TurtleDocumentation.sol:TurtleDocumentation",
								"label": "currentDocumentHash",
								"offset": 0,
								"slot": "4",
								"type": "t_bytes32"
							},
							{
								"astId": 233,
								"contract": "contracts/TurtleDocumentation.sol:TurtleDocumentation",
								"label": "turtleHash",
								"offset": 0,
								"slot": "5",
								"type": "t_bytes32"
							},
							{
								"astId": 235,
								"contract": "contracts/TurtleDocumentation.sol:TurtleDocumentation",
								"label": "exists",
								"offset": 0,
								"slot": "6",
								"type": "t_bool"
							}
						],
						"numberOfBytes": "224"
					},
					"t_uint256": {
						"encoding": "inplace",
						"label": "uint256",
						"numberOfBytes": "32"
					},
					"t_uint8": {
						"encoding": "inplace",
						"label": "uint8",
						"numberOfBytes": "1"
					}
				}
			},
			"userdoc": {
				"kind": "user",
				"methods": {},
				"version": 1
			}
		}
	}
}