{
	"contracts/TurtleEscrow.sol": {
		"TurtleEscrow": {
			"abi": [
				{
					"inputs": [
						{
							"internalType": "address",
							"name": "_token",
							"type": "address"
						}
					],
					"stateMutability": "nonpayable",
					"type": "constructor"
				},
				{
					"anonymous": false,
					"inputs": [
						{
							"indexed": true,
							"internalType": "address",
							"name": "previousOwner",
							"type": "address"
						},
						{
							"indexed": true,
							"internalType": "address",
							"name": "newOwner",
							"type": "address"
						}
					],
					"name": "OwnershipTransferred",
					"type": "event"
				},
				{
					"inputs": [],
					"name": "LOCK_PERIOD",
					"outputs": [
						{
							"internalType": "uint256",
							"name": "",
							"type": "uint256"
						}
					],
					"stateMutability": "view",
					"type": "function"
				},
				{
					"inputs": [],
					"name": "arbiter",
					"outputs": [
						{
							"internalType": "address",
							"name": "",
							"type": "address"
						}
					],
					"stateMutability": "view",
					"type": "function"
				},
				{
					"inputs": [
						{
							"internalType": "uint256",
							"name": "",
							"type": "uint256"
						}
					],
					"name": "auctionTransactions",
					"outputs": [
						{
							"internalType": "address",
							"name": "buyer",
							"type": "address"
						},
						{
							"internalType": "address",
							"name": "seller",
							"type": "address"
						},
						{
							"internalType": "uint256",
							"name": "amount",
							"type": "uint256"
						},
						{
							"internalType": "enum TurtleEscrow.State",
							"name": "state",
							"type": "uint8"
						},
						{
							"internalType": "uint256",
							"name": "createdAt",
							"type": "uint256"
						},
						{
							"internalType": "uint256",
							"name": "lockPeriod",
							"type": "uint256"
						}
					],
					"stateMutability": "view",
					"type": "function"
				},
				{
					"inputs": [
						{
							"internalType": "bool",
							"name": "_isAuction",
							"type": "bool"
						},
						{
							"internalType": "uint256",
							"name": "_transactionId",
							"type": "uint256"
						},
						{
							"internalType": "address",
							"name": "_seller",
							"type": "address"
						},
						{
							"internalType": "uint256",
							"name": "_amount",
							"type": "uint256"
						}
					],
					"name": "createTransaction",
					"outputs": [
						{
							"internalType": "bool",
							"name": "",
							"type": "bool"
						},
						{
							"internalType": "uint256",
							"name": "",
							"type": "uint256"
						}
					],
					"stateMutability": "nonpayable",
					"type": "function"
				},
				{
					"inputs": [
						{
							"internalType": "bool",
							"name": "_isAuction",
							"type": "bool"
						},
						{
							"internalType": "uint256",
							"name": "_transactionId",
							"type": "uint256"
						}
					],
					"name": "getTransactionDetails",
					"outputs": [
						{
							"internalType": "address",
							"name": "",
							"type": "address"
						},
						{
							"internalType": "address",
							"name": "",
							"type": "address"
						},
						{
							"internalType": "uint256",
							"name": "",
							"type": "uint256"
						},
						{
							"internalType": "enum TurtleEscrow.State",
							"name": "",
							"type": "uint8"
						},
						{
							"internalType": "uint256",
							"name": "",
							"type": "uint256"
						},
						{
							"internalType": "uint256",
							"name": "",
							"type": "uint256"
						}
					],
					"stateMutability": "view",
					"type": "function"
				},
				{
					"inputs": [
						{
							"internalType": "uint256",
							"name": "",
							"type": "uint256"
						}
					],
					"name": "normalTransactions",
					"outputs": [
						{
							"internalType": "address",
							"name": "buyer",
							"type": "address"
						},
						{
							"internalType": "address",
							"name": "seller",
							"type": "address"
						},
						{
							"internalType": "uint256",
							"name": "amount",
							"type": "uint256"
						},
						{
							"internalType": "enum TurtleEscrow.State",
							"name": "state",
							"type": "uint8"
						},
						{
							"internalType": "uint256",
							"name": "createdAt",
							"type": "uint256"
						},
						{
							"internalType": "uint256",
							"name": "lockPeriod",
							"type": "uint256"
						}
					],
					"stateMutability": "view",
					"type": "function"
				},
				{
					"inputs": [],
					"name": "owner",
					"outputs": [
						{
							"internalType": "address",
							"name": "",
							"type": "address"
						}
					],
					"stateMutability": "view",
					"type": "function"
				},
				{
					"inputs": [
						{
							"internalType": "bool",
							"name": "_isAuction",
							"type": "bool"
						},
						{
							"internalType": "uint256",
							"name": "_transactionId",
							"type": "uint256"
						}
					],
					"name": "refund",
					"outputs": [
						{
							"internalType": "bool",
							"name": "",
							"type": "bool"
						},
						{
							"internalType": "uint256",
							"name": "",
							"type": "uint256"
						}
					],
					"stateMutability": "nonpayable",
					"type": "function"
				},
				{
					"inputs": [
						{
							"internalType": "bool",
							"name": "_isAuction",
							"type": "bool"
						},
						{
							"internalType": "uint256",
							"name": "_transactionId",
							"type": "uint256"
						}
					],
					"name": "releaseFunds",
					"outputs": [
						{
							"internalType": "bool",
							"name": "",
							"type": "bool"
						},
						{
							"internalType": "uint256",
							"name": "",
							"type": "uint256"
						}
					],
					"stateMutability": "nonpayable",
					"type": "function"
				},
				{
					"inputs": [],
					"name": "renounceOwnership",
					"outputs": [],
					"stateMutability": "nonpayable",
					"type": "function"
				},
				{
					"inputs": [
						{
							"internalType": "address",
							"name": "_newArbiter",
							"type": "address"
						}
					],
					"name": "setArbiter",
					"outputs": [],
					"stateMutability": "nonpayable",
					"type": "function"
				},
				{
					"inputs": [],
					"name": "token",
					"outputs": [
						{
							"internalType": "contract IERC20",
							"name": "",
							"type": "address"
						}
					],
					"stateMutability": "view",
					"type": "function"
				},
				{
					"inputs": [
						{
							"internalType": "address",
							"name": "newOwner",
							"type": "address"
						}
					],
					"name": "transferOwnership",
					"outputs": [],
					"stateMutability": "nonpayable",
					"type": "function"
				},
				{
					"inputs": [
						{
							"internalType": "bool",
							"name": "_isAuction",
							"type": "bool"
						},
						{
							"internalType": "uint256",
							"name": "_transactionId",
							"type": "uint256"
						},
						{
							"internalType": "uint256",
							"name": "_newLockPeriod",
							"type": "uint256"
						}
					],
					"name": "updateLockPeriod",
					"outputs": [
						{
							"internalType": "bool",
							"name": "",
							"type": "bool"
						},
						{
							"internalType": "uint256",
							"name": "",
							"type": "uint256"
						}
					],
					"stateMutability": "nonpayable",
					"type": "function"
				}
			],
			"devdoc": {
				"author": "서규범",
				"kind": "dev",
				"methods": {
					"constructor": {
						"details": "생성자: 중재자 주소와 사용할 ERC20 토큰 주소 설정",
						"params": {
							"_token": "사용할 ERC20 토큰 주소"
						}
					},
					"createTransaction(bool,uint256,address,uint256)": {
						"details": "새로운 거래 생성",
						"params": {
							"_amount": "거래 금액",
							"_seller": "판매자 주소"
						},
						"returns": {
							"_0": "거래 ID"
						}
					},
					"getTransactionDetails(bool,uint256)": {
						"details": "거래 세부 정보 조회",
						"params": {
							"_transactionId": "거래 ID"
						},
						"returns": {
							"_0": "구매자 주소, 판매자 주소, 거래 금액, 거래 상태, 거래 생성 시간, 잠금 기간"
						}
					},
					"owner()": {
						"details": "Returns the address of the current owner."
					},
					"refund(bool,uint256)": {
						"details": "환불 (구매자에게 반환)",
						"params": {
							"_transactionId": "거래 ID"
						}
					},
					"releaseFunds(bool,uint256)": {
						"details": "자금 해제 (판매자에게 전송)",
						"params": {
							"_transactionId": "거래 ID"
						}
					},
					"renounceOwnership()": {
						"details": "Leaves the contract without owner. It will not be possible to call `onlyOwner` functions. Can only be called by the current owner. NOTE: Renouncing ownership will leave the contract without an owner, thereby disabling any functionality that is only available to the owner."
					},
					"setArbiter(address)": {
						"details": "중재자 주소 변경",
						"params": {
							"_newArbiter": "새로운 중재자 주소"
						}
					},
					"transferOwnership(address)": {
						"details": "Transfers ownership of the contract to a new account (`newOwner`). Can only be called by the current owner."
					},
					"updateLockPeriod(bool,uint256,uint256)": {
						"details": "잠금 기간 업데이트",
						"params": {
							"_newLockPeriod": "새로운 잠금 기간",
							"_transactionId": "거래 ID"
						}
					}
				},
				"title": "TurtleEscrow",
				"version": 1
			},
			"evm": {
				"assembly": "    /* \"contracts/TurtleEscrow.sol\":428:8692  contract TurtleEscrow is Ownable {... */\n  0x80\n  jumpi(tag_7, callvalue)\n  0x1f\n  bytecodeSize\n  codesize\n  dup2\n  swap1\n  sub\n  swap2\n  dup3\n  add\n  not(0x1f)\n  and\n  dup4\n  add\n  swap2\n  sub(shl(0x40, 0x01), 0x01)\n  dup4\n  gt\n  dup5\n  dup5\n  lt\n  or\n  tag_3\n  jumpi\n  dup1\n  dup5\n  swap3\n  0x20\n  swap5\n  0x40\n  mstore\n  dup4\n  codecopy\n  dup2\n  add\n  sub\n  slt\n  tag_7\n  jumpi\n  mload\n  sub(shl(0xa0, 0x01), 0x01)\n  swap1\n  dup2\n  dup2\n  and\n  swap1\n  dup2\n  swap1\n  sub\n  tag_7\n  jumpi\n  sload(0x00)\n  swap2\n  0x01\n  dup1\n  0xa0\n  shl\n  sub\n  not\n    /* \"@openzeppelin/contracts/utils/Context.sol\":734:744  msg.sender */\n  swap3\n  caller\n    /* \"contracts/TurtleEscrow.sol\":428:8692  contract TurtleEscrow is Ownable {... */\n  dup5\n  dup3\n  and\n  or\n  0x00\n  sstore\n  mload(0x40)\n    /* \"@openzeppelin/contracts/utils/Context.sol\":734:744  msg.sender */\n  swap2\n  caller\n    /* \"contracts/TurtleEscrow.sol\":428:8692  contract TurtleEscrow is Ownable {... */\n  swap2\n  and\n    /* \"@openzeppelin/contracts/access/Ownable.sol\":2566:2606  OwnershipTransferred(oldOwner, newOwner) */\n  0x8be0079c531659141344cd1fd0a4f28419497f9722a3daafe3b4186f6b6457e0\n  0x00\n  dup1\n  log3\n    /* \"contracts/TurtleEscrow.sol\":2482:2502  _token != address(0) */\n  dup2\n  iszero\n    /* \"contracts/TurtleEscrow.sol\":428:8692  contract TurtleEscrow is Ownable {... */\n  tag_9\n  jumpi\n  pop\n  dup2\n    /* \"contracts/TurtleEscrow.sol\":2533:2555  token = IERC20(_token) */\n  0x04\n    /* \"contracts/TurtleEscrow.sol\":428:8692  contract TurtleEscrow is Ownable {... */\n  sload\n  and\n  or\n    /* \"contracts/TurtleEscrow.sol\":2533:2555  token = IERC20(_token) */\n  0x04\n    /* \"contracts/TurtleEscrow.sol\":428:8692  contract TurtleEscrow is Ownable {... */\n  sstore\n    /* \"@openzeppelin/contracts/utils/Context.sol\":734:744  msg.sender */\n  caller\n    /* \"contracts/TurtleEscrow.sol\":428:8692  contract TurtleEscrow is Ownable {... */\n  swap1\n    /* \"contracts/TurtleEscrow.sol\":2566:2586  arbiter = msg.sender */\n  0x03\n    /* \"contracts/TurtleEscrow.sol\":428:8692  contract TurtleEscrow is Ownable {... */\n  sload\n  and\n  or\n    /* \"contracts/TurtleEscrow.sol\":2566:2586  arbiter = msg.sender */\n  0x03\n    /* \"contracts/TurtleEscrow.sol\":428:8692  contract TurtleEscrow is Ownable {... */\n  sstore\n  mload(0x40)\n  dataSize(sub_0)\n  swap1\n  dup2\n  dataOffset(sub_0)\n  dup3\n  codecopy\n  return\ntag_9:\n  shl(0xe5, 0x461bcd)\n  dup2\n  mstore\n  0x20\n  0x04\n  dup3\n  add\n  mstore\n  0x0f\n  0x24\n  dup3\n  add\n  mstore\n  shl(0x88, 0x496e76616c69642061646472657373)\n  0x44\n  dup3\n  add\n  mstore\n  0x64\n  swap1\n  revert\ntag_7:\n  0x00\n  dup1\n  revert\ntag_3:\n  mstore(0x00, shl(0xe0, 0x4e487b71))\n  mstore(0x04, 0x41)\n  revert(0x00, 0x24)\nstop\n\nsub_0: assembly {\n        /* \"contracts/TurtleEscrow.sol\":428:8692  contract TurtleEscrow is Ownable {... */\n      0x80\n      0x40\n      dup2\n      dup2\n      mstore\n      0x04\n      swap2\n      dup3\n      calldatasize\n      lt\n      iszero\n      tag_14\n      jumpi\n      0x00\n      dup1\n      revert\n    tag_14:\n      0x00\n      swap3\n      dup4\n      calldataload\n      0xe0\n      shr\n      swap2\n      dup3\n      0x1820cabb\n      eq\n      tag_16\n      jumpi\n      pop\n      dup2\n      0x1c9c088a\n      eq\n      tag_18\n      jumpi\n      dup2\n      0x35ba2e87\n      eq\n      tag_20\n      jumpi\n      dup2\n      0x3ceafc8c\n      eq\n      tag_22\n      jumpi\n      dup2\n      0x5ba48359\n      eq\n      tag_24\n      jumpi\n      dup2\n      0x715018a6\n      eq\n      tag_26\n      jumpi\n      dup2\n      0x899d7879\n      eq\n      tag_28\n      jumpi\n      dup2\n      0x8da5cb5b\n      eq\n      tag_30\n      jumpi\n      dup2\n      0xaa7f3bae\n      eq\n      tag_32\n      jumpi\n      dup2\n      0xce48dd4f\n      eq\n      tag_34\n      jumpi\n      dup2\n      0xd37d3437\n      eq\n      tag_36\n      jumpi\n      dup2\n      0xf2fde38b\n      eq\n      tag_38\n      jumpi\n      dup2\n      0xfc0c546a\n      eq\n      tag_40\n      jumpi\n      pop\n      0xfe25e00a\n      eq\n      tag_42\n      jumpi\n      0x00\n      dup1\n      revert\n    tag_42:\n      jumpi(tag_46, callvalue)\n      dup2\n      add(calldatasize, not(0x03))\n      slt\n      tag_46\n      jumpi\n      sload(0x03)\n      swap1\n      mload\n      sub(shl(0xa0, 0x01), 0x01)\n      swap1\n      swap2\n      and\n      dup2\n      mstore\n      0x20\n      swap1\n      return\n    tag_46:\n      pop\n      dup1\n      revert\n    tag_40:\n      swap1\n      pop\n      jumpi(tag_50, callvalue)\n      dup3\n      add(calldatasize, not(0x03))\n      slt\n      tag_50\n      jumpi\n      sload\n      swap1\n      mload\n      sub(shl(0xa0, 0x01), 0x01)\n      swap1\n      swap2\n      and\n      dup2\n      mstore\n      0x20\n      swap2\n      pop\n      return\n    tag_50:\n      dup3\n      dup1\n      revert\n    tag_38:\n      swap1\n      pop\n      jumpi(tag_50, callvalue)\n      jumpi(tag_50, slt(add(not(0x03), calldatasize), 0x20))\n      tag_56\n      tag_1\n      jump\t// in\n    tag_56:\n        /* \"@openzeppelin/contracts/access/Ownable.sol\":1063:1125  modifier onlyOwner() {... */\n      swap1\n      tag_57\n      tag_5\n      jump\t// in\n    tag_57:\n      sub(shl(0xa0, 0x01), 0x01)\n        /* \"contracts/TurtleEscrow.sol\":428:8692  contract TurtleEscrow is Ownable {... */\n      swap2\n      dup3\n      and\n      swap3\n        /* \"@openzeppelin/contracts/access/Ownable.sol\":2162:2184  newOwner != address(0) */\n      dup4\n      iszero\n        /* \"contracts/TurtleEscrow.sol\":428:8692  contract TurtleEscrow is Ownable {... */\n      tag_58\n      jumpi\n      pop\n      pop\n      dup3\n      sload\n      not(sub(shl(0xa0, 0x01), 0x01))\n      dup2\n      and\n      dup4\n      or\n      dup5\n      sstore\n      and\n        /* \"@openzeppelin/contracts/access/Ownable.sol\":2566:2606  OwnershipTransferred(oldOwner, newOwner) */\n      0x8be0079c531659141344cd1fd0a4f28419497f9722a3daafe3b4186f6b6457e0\n        /* \"contracts/TurtleEscrow.sol\":428:8692  contract TurtleEscrow is Ownable {... */\n      dup4\n      dup1\n        /* \"@openzeppelin/contracts/access/Ownable.sol\":2566:2606  OwnershipTransferred(oldOwner, newOwner) */\n      log3\n        /* \"contracts/TurtleEscrow.sol\":428:8692  contract TurtleEscrow is Ownable {... */\n      dup1\n      return\n    tag_58:\n      swap1\n      0x20\n      0x84\n      swap3\n      mload\n      swap2\n      shl(0xe5, 0x461bcd)\n      dup4\n      mstore\n      dup3\n      add\n      mstore\n      0x26\n      0x24\n      dup3\n      add\n      mstore\n      0x4f776e61626c653a206e6577206f776e657220697320746865207a65726f2061\n      0x44\n      dup3\n      add\n      mstore\n      shl(0xd0, 0x646472657373)\n      0x64\n      dup3\n      add\n      mstore\n      revert\n    tag_36:\n      dup4\n      dup4\n      jumpi(tag_46, callvalue)\n      jumpi(tag_46, slt(add(not(0x03), calldatasize), 0x80))\n      tag_64\n      tag_2\n      jump\t// in\n    tag_64:\n      0x24\n      dup1\n      calldataload\n      swap5\n      swap2\n      swap4\n      swap1\n      swap2\n      sub(shl(0xa0, 0x01), 0x01)\n      calldataload(0x44)\n      dup2\n      dup2\n      and\n      swap1\n      dup2\n      swap1\n      sub\n      tag_65\n      jumpi\n      calldataload(0x64)\n        /* \"contracts/TurtleEscrow.sol\":3165:3186  _seller != address(0) */\n      swap1\n      dup1\n      iszero\n        /* \"contracts/TurtleEscrow.sol\":428:8692  contract TurtleEscrow is Ownable {... */\n      tag_67\n      jumpi\n        /* \"contracts/TurtleEscrow.sol\":3232:3243  _amount > 0 */\n      dup2\n      iszero\n        /* \"contracts/TurtleEscrow.sol\":428:8692  contract TurtleEscrow is Ownable {... */\n      tag_69\n      jumpi\n        /* \"contracts/TurtleEscrow.sol\":3465:3469  1e18 */\n      0x0de0b6b3a7640000\n        /* \"contracts/TurtleEscrow.sol\":428:8692  contract TurtleEscrow is Ownable {... */\n      dup1\n      dup4\n      mul\n      swap3\n      dup4\n      div\n      sub\n      tag_71\n      jumpi\n        /* \"contracts/TurtleEscrow.sol\":3480:3929  if (_isAuction) {... */\n      dup8\n      iszero\n      tag_73\n      jumpi\n        /* \"contracts/TurtleEscrow.sol\":428:8692  contract TurtleEscrow is Ownable {... */\n      dup7\n      mload\n      swap1\n      tag_75\n      dup3\n      tag_6\n      jump\t// in\n    tag_75:\n        /* \"contracts/TurtleEscrow.sol\":3569:3579  msg.sender */\n      caller\n        /* \"contracts/TurtleEscrow.sol\":428:8692  contract TurtleEscrow is Ownable {... */\n      dup3\n      mstore\n      0x20\n        /* \"contracts/TurtleEscrow.sol\":3549:3698  Transaction({buyer: msg.sender, seller: _seller, amount: convertedAmount, state: State.Created, createdAt: block.timestamp, lockPeriod: LOCK_PERIOD}) */\n      dup3\n      add\n        /* \"contracts/TurtleEscrow.sol\":428:8692  contract TurtleEscrow is Ownable {... */\n      swap1\n      dup2\n      mstore\n        /* \"contracts/TurtleEscrow.sol\":3549:3698  Transaction({buyer: msg.sender, seller: _seller, amount: convertedAmount, state: State.Created, createdAt: block.timestamp, lockPeriod: LOCK_PERIOD}) */\n      dup8\n      dup3\n      add\n        /* \"contracts/TurtleEscrow.sol\":428:8692  contract TurtleEscrow is Ownable {... */\n      dup4\n      dup2\n      mstore\n      0x60\n        /* \"contracts/TurtleEscrow.sol\":3549:3698  Transaction({buyer: msg.sender, seller: _seller, amount: convertedAmount, state: State.Created, createdAt: block.timestamp, lockPeriod: LOCK_PERIOD}) */\n      dup4\n      add\n        /* \"contracts/TurtleEscrow.sol\":428:8692  contract TurtleEscrow is Ownable {... */\n      dup8\n      dup2\n      mstore\n      0x80\n        /* \"contracts/TurtleEscrow.sol\":3549:3698  Transaction({buyer: msg.sender, seller: _seller, amount: convertedAmount, state: State.Created, createdAt: block.timestamp, lockPeriod: LOCK_PERIOD}) */\n      dup5\n      add\n        /* \"contracts/TurtleEscrow.sol\":3656:3671  block.timestamp */\n      swap2\n      timestamp\n        /* \"contracts/TurtleEscrow.sol\":428:8692  contract TurtleEscrow is Ownable {... */\n      dup4\n      mstore\n      0xa0\n        /* \"contracts/TurtleEscrow.sol\":3549:3698  Transaction({buyer: msg.sender, seller: _seller, amount: convertedAmount, state: State.Created, createdAt: block.timestamp, lockPeriod: LOCK_PERIOD}) */\n      dup6\n      add\n        /* \"contracts/TurtleEscrow.sol\":428:8692  contract TurtleEscrow is Ownable {... */\n      swap4\n        /* \"contracts/TurtleEscrow.sol\":1846:1852  7 days */\n      0x093a80\n        /* \"contracts/TurtleEscrow.sol\":428:8692  contract TurtleEscrow is Ownable {... */\n      dup6\n      mstore\n      dup14\n      dup11\n      mstore\n      mstore(0x20, 0x01)\n      dup8\n      dup13\n      dup12\n      keccak256\n      swap7\n      mload\n      and\n      shl(0xa0, sub(shl(0x60, 0x01), 0x01))\n      swap1\n      dup2\n      dup9\n      sload\n      and\n      or\n      dup8\n      sstore\n      dup9\n      0x01\n      dup9\n      add\n      swap3\n      mload\n      and\n      swap1\n      dup3\n      sload\n      and\n      or\n      swap1\n      sstore\n      mload\n      0x02\n      dup6\n      add\n      sstore\n      mload\n      dup7\n      dup2\n      lt\n      iszero\n      tag_76\n      jumpi\n      swap2\n      0x05\n      swap2\n      tag_78\n      dup6\n      swap5\n      0x03\n      dup12\n      swap9\n      swap8\n      add\n      tag_8\n      jump\t// in\n    tag_78:\n      mload\n      dup8\n      dup5\n      add\n      sstore\n      mload\n      swap2\n      add\n      sstore\n        /* \"contracts/TurtleEscrow.sol\":3480:3929  if (_isAuction) {... */\n    tag_79:\n        /* \"contracts/TurtleEscrow.sol\":428:8692  contract TurtleEscrow is Ownable {... */\n      dup3\n      dup5\n      sload\n      and\n      dup8\n      mload\n      swap2\n      shl(0xe0, 0x23b872dd)\n        /* \"contracts/TurtleEscrow.sol\":3974:4036  token.transferFrom(msg.sender, address(this), convertedAmount) */\n      dup4\n      mstore\n        /* \"contracts/TurtleEscrow.sol\":3993:4003  msg.sender */\n      caller\n        /* \"contracts/TurtleEscrow.sol\":3974:4036  token.transferFrom(msg.sender, address(this), convertedAmount) */\n      dup7\n      dup5\n      add\n        /* \"contracts/TurtleEscrow.sol\":428:8692  contract TurtleEscrow is Ownable {... */\n      mstore\n        /* \"contracts/TurtleEscrow.sol\":4013:4017  this */\n      address\n        /* \"contracts/TurtleEscrow.sol\":428:8692  contract TurtleEscrow is Ownable {... */\n      dup9\n      dup5\n      add\n      mstore\n      0x44\n      dup4\n      add\n      mstore\n      dup2\n      0x64\n      dup2\n      0x20\n        /* \"contracts/TurtleEscrow.sol\":3974:4036  token.transferFrom(msg.sender, address(this), convertedAmount) */\n      swap6\n      dup7\n      swap5\n      gas\n      call\n      swap1\n      dup2\n      iszero\n      tag_80\n      jumpi\n      swap1\n        /* \"contracts/TurtleEscrow.sol\":3966:4062  require(token.transferFrom(msg.sender, address(this), convertedAmount), \"Token transfer failed\") */\n      tag_82\n        /* \"contracts/TurtleEscrow.sol\":3974:4036  token.transferFrom(msg.sender, address(this), convertedAmount) */\n      swap2\n      dup7\n      swap2\n      tag_83\n      jumpi\n        /* \"contracts/TurtleEscrow.sol\":3480:3929  if (_isAuction) {... */\n    tag_84:\n        /* \"contracts/TurtleEscrow.sol\":3966:4062  require(token.transferFrom(msg.sender, address(this), convertedAmount), \"Token transfer failed\") */\n      pop\n      tag_10\n      jump\t// in\n    tag_82:\n        /* \"contracts/TurtleEscrow.sol\":4674:4759  _isAuction ? auctionTransactions[_transactionId] : normalTransactions[_transactionId] */\n      dup7\n      iszero\n      tag_85\n      jumpi\n        /* \"contracts/TurtleEscrow.sol\":428:8692  contract TurtleEscrow is Ownable {... */\n      dup8\n      dup5\n      mstore\n      0x01\n      dup2\n      mstore\n      dup6\n      dup5\n      keccak256\n        /* \"contracts/TurtleEscrow.sol\":4674:4759  _isAuction ? auctionTransactions[_transactionId] : normalTransactions[_transactionId] */\n      swap2\n    tag_87:\n        /* \"contracts/TurtleEscrow.sol\":428:8692  contract TurtleEscrow is Ownable {... */\n      dup3\n      sload\n      and\n        /* \"contracts/TurtleEscrow.sol\":3993:4003  msg.sender */\n      caller\n        /* \"contracts/TurtleEscrow.sol\":4778:4809  msg.sender == transaction.buyer */\n      sub\n        /* \"contracts/TurtleEscrow.sol\":428:8692  contract TurtleEscrow is Ownable {... */\n      tag_88\n      jumpi\n        /* \"contracts/TurtleEscrow.sol\":4858:4875  transaction.state */\n      pop\n        /* \"contracts/TurtleEscrow.sol\":428:8692  contract TurtleEscrow is Ownable {... */\n      0x03\n        /* \"contracts/TurtleEscrow.sol\":4858:4875  transaction.state */\n      add\n        /* \"contracts/TurtleEscrow.sol\":428:8692  contract TurtleEscrow is Ownable {... */\n      swap3\n      dup4\n      sload\n      swap3\n      0xff\n      dup5\n      and\n      swap3\n      dup1\n      dup5\n      lt\n      iszero\n      tag_90\n      jumpi\n        /* \"contracts/TurtleEscrow.sol\":4858:4892  transaction.state == State.Created */\n      pop\n      pop\n      pop\n        /* \"contracts/TurtleEscrow.sol\":428:8692  contract TurtleEscrow is Ownable {... */\n      tag_92\n        /* \"contracts/TurtleEscrow.sol\":4858:4892  transaction.state == State.Created */\n      swap4\n      swap3\n      swap2\n        /* \"contracts/TurtleEscrow.sol\":4850:4910  require(transaction.state == State.Created, \"Invalid state\") */\n      tag_93\n        /* \"contracts/TurtleEscrow.sol\":428:8692  contract TurtleEscrow is Ownable {... */\n      0x01\n        /* \"contracts/TurtleEscrow.sol\":4858:4892  transaction.state == State.Created */\n      swap3\n      iszero\n        /* \"contracts/TurtleEscrow.sol\":4850:4910  require(transaction.state == State.Created, \"Invalid state\") */\n      tag_11\n      jump\t// in\n    tag_93:\n      not(0xff)\n        /* \"contracts/TurtleEscrow.sol\":428:8692  contract TurtleEscrow is Ownable {... */\n      and\n      or\n      swap1\n      sstore\n      mload\n      swap2\n      iszero\n      iszero\n      dup3\n      mstore\n      0x20\n      dup3\n      add\n      swap3\n      swap1\n      swap3\n      mstore\n      swap1\n      dup2\n      swap1\n      0x40\n      dup3\n      add\n      swap1\n      jump\n    tag_92:\n      sub\n      swap1\n      return\n    tag_90:\n      shl(0xe0, 0x4e487b71)\n      dup3\n      mstore\n      0x21\n      swap1\n      mstore\n      revert\n    tag_88:\n      dup3\n      0x19\n      dup7\n      0x64\n      swap4\n      dup10\n      mload\n      swap4\n      shl(0xe5, 0x461bcd)\n      dup6\n      mstore\n      dup5\n      add\n      mstore\n      dup3\n      add\n      mstore\n      0x4f6e6c792062757965722063616e206c6f636b2066756e647300000000000000\n      0x44\n      dup3\n      add\n      mstore\n      revert\n        /* \"contracts/TurtleEscrow.sol\":4674:4759  _isAuction ? auctionTransactions[_transactionId] : normalTransactions[_transactionId] */\n    tag_85:\n        /* \"contracts/TurtleEscrow.sol\":428:8692  contract TurtleEscrow is Ownable {... */\n      dup8\n      dup5\n      mstore\n        /* \"contracts/TurtleEscrow.sol\":4725:4743  normalTransactions */\n      0x02\n        /* \"contracts/TurtleEscrow.sol\":428:8692  contract TurtleEscrow is Ownable {... */\n      dup2\n      mstore\n      dup6\n      dup5\n      keccak256\n        /* \"contracts/TurtleEscrow.sol\":4674:4759  _isAuction ? auctionTransactions[_transactionId] : normalTransactions[_transactionId] */\n      swap2\n      jump(tag_87)\n        /* \"contracts/TurtleEscrow.sol\":3974:4036  token.transferFrom(msg.sender, address(this), convertedAmount) */\n    tag_83:\n      tag_94\n      swap2\n      pop\n      dup4\n      returndatasize\n      dup6\n      gt\n      tag_95\n      jumpi\n    tag_96:\n      tag_97\n      dup2\n      dup4\n      tag_7\n      jump\t// in\n    tag_97:\n      dup2\n      add\n      swap1\n      tag_9\n      jump\t// in\n    tag_94:\n      dup11\n      jump(tag_84)\n    tag_95:\n      pop\n      returndatasize\n      jump(tag_96)\n    tag_80:\n        /* \"contracts/TurtleEscrow.sol\":428:8692  contract TurtleEscrow is Ownable {... */\n      dup8\n      mload\n      returndatasize\n      dup8\n      dup3\n      returndatacopy\n      returndatasize\n      swap1\n      revert\n    tag_76:\n      shl(0xe0, 0x4e487b71)\n      dup9\n      mstore\n      0x21\n      dup8\n      mstore\n      dup9\n      dup9\n      revert\n        /* \"contracts/TurtleEscrow.sol\":3480:3929  if (_isAuction) {... */\n    tag_73:\n        /* \"contracts/TurtleEscrow.sol\":428:8692  contract TurtleEscrow is Ownable {... */\n      dup7\n      mload\n      swap1\n      tag_98\n      dup3\n      tag_6\n      jump\t// in\n    tag_98:\n        /* \"contracts/TurtleEscrow.sol\":3788:3798  msg.sender */\n      caller\n        /* \"contracts/TurtleEscrow.sol\":428:8692  contract TurtleEscrow is Ownable {... */\n      dup3\n      mstore\n      0x20\n        /* \"contracts/TurtleEscrow.sol\":3768:3917  Transaction({buyer: msg.sender, seller: _seller, amount: convertedAmount, state: State.Created, createdAt: block.timestamp, lockPeriod: LOCK_PERIOD}) */\n      dup3\n      add\n        /* \"contracts/TurtleEscrow.sol\":428:8692  contract TurtleEscrow is Ownable {... */\n      swap1\n      dup2\n      mstore\n        /* \"contracts/TurtleEscrow.sol\":3768:3917  Transaction({buyer: msg.sender, seller: _seller, amount: convertedAmount, state: State.Created, createdAt: block.timestamp, lockPeriod: LOCK_PERIOD}) */\n      dup8\n      dup3\n      add\n        /* \"contracts/TurtleEscrow.sol\":428:8692  contract TurtleEscrow is Ownable {... */\n      dup4\n      dup2\n      mstore\n      0x60\n        /* \"contracts/TurtleEscrow.sol\":3768:3917  Transaction({buyer: msg.sender, seller: _seller, amount: convertedAmount, state: State.Created, createdAt: block.timestamp, lockPeriod: LOCK_PERIOD}) */\n      dup4\n      add\n        /* \"contracts/TurtleEscrow.sol\":428:8692  contract TurtleEscrow is Ownable {... */\n      dup8\n      dup2\n      mstore\n      0x80\n        /* \"contracts/TurtleEscrow.sol\":3768:3917  Transaction({buyer: msg.sender, seller: _seller, amount: convertedAmount, state: State.Created, createdAt: block.timestamp, lockPeriod: LOCK_PERIOD}) */\n      dup5\n      add\n        /* \"contracts/TurtleEscrow.sol\":3875:3890  block.timestamp */\n      swap2\n      timestamp\n        /* \"contracts/TurtleEscrow.sol\":428:8692  contract TurtleEscrow is Ownable {... */\n      dup4\n      mstore\n      0xa0\n        /* \"contracts/TurtleEscrow.sol\":3768:3917  Transaction({buyer: msg.sender, seller: _seller, amount: convertedAmount, state: State.Created, createdAt: block.timestamp, lockPeriod: LOCK_PERIOD}) */\n      dup6\n      add\n        /* \"contracts/TurtleEscrow.sol\":428:8692  contract TurtleEscrow is Ownable {... */\n      swap4\n        /* \"contracts/TurtleEscrow.sol\":1846:1852  7 days */\n      0x093a80\n        /* \"contracts/TurtleEscrow.sol\":428:8692  contract TurtleEscrow is Ownable {... */\n      dup6\n      mstore\n      dup14\n      dup11\n      mstore\n        /* \"contracts/TurtleEscrow.sol\":3731:3749  normalTransactions */\n      0x02\n        /* \"contracts/TurtleEscrow.sol\":428:8692  contract TurtleEscrow is Ownable {... */\n      0x20\n      mstore\n      dup8\n      dup13\n      dup12\n      keccak256\n      swap7\n      mload\n      and\n      shl(0xa0, sub(shl(0x60, 0x01), 0x01))\n      swap1\n      dup2\n      dup9\n      sload\n      and\n      or\n      dup8\n      sstore\n      dup9\n      0x01\n      dup9\n      add\n      swap3\n      mload\n      and\n      swap1\n      dup3\n      sload\n      and\n      or\n      swap1\n      sstore\n      mload\n        /* \"contracts/TurtleEscrow.sol\":3731:3749  normalTransactions */\n      0x02\n        /* \"contracts/TurtleEscrow.sol\":428:8692  contract TurtleEscrow is Ownable {... */\n      dup6\n      add\n      sstore\n      mload\n      dup7\n      dup2\n      lt\n      iszero\n      tag_76\n      jumpi\n      swap2\n      0x05\n      swap2\n      tag_101\n      dup6\n      swap5\n      0x03\n      dup12\n      swap9\n      swap8\n      add\n      tag_8\n      jump\t// in\n    tag_101:\n      mload\n      dup8\n      dup5\n      add\n      sstore\n      mload\n      swap2\n      add\n      sstore\n        /* \"contracts/TurtleEscrow.sol\":3480:3929  if (_isAuction) {... */\n      jump(tag_79)\n        /* \"contracts/TurtleEscrow.sol\":428:8692  contract TurtleEscrow is Ownable {... */\n    tag_71:\n      pop\n      pop\n      shl(0xe0, 0x4e487b71)\n      dup4\n      mstore\n      pop\n      0x11\n      swap1\n      mstore\n      revert\n    tag_69:\n      dup7\n      mload\n      shl(0xe5, 0x461bcd)\n      dup2\n      mstore\n      0x20\n      dup2\n      dup7\n      add\n      mstore\n      0x2d\n      dup2\n      dup9\n      add\n      mstore\n      0x496e76616c696420616d6f756e742120416d6f756e74206d7573742062652067\n      0x44\n      dup3\n      add\n      mstore\n      shl(0x9c, 0x0726561746572207468616e203)\n      0x64\n      dup3\n      add\n      mstore\n      0x84\n      swap1\n      revert\n    tag_67:\n      dup7\n      mload\n      shl(0xe5, 0x461bcd)\n      dup2\n      mstore\n      0x20\n      dup2\n      dup7\n      add\n      mstore\n      0x16\n      dup2\n      dup9\n      add\n      mstore\n      shl(0x50, 0x496e76616c69642073656c6c65722061646472657373)\n      0x44\n      dup3\n      add\n      mstore\n      0x64\n      swap1\n      revert\n    tag_65:\n      dup4\n      dup1\n      revert\n    tag_34:\n      dup3\n      dup5\n      jumpi(tag_104, callvalue)\n      jumpi(tag_104, slt(add(not(0x03), calldatasize), 0x20))\n      dup2\n      tag_92\n      swap2\n      dup5\n      calldataload\n      dup2\n      mstore\n      mstore(0x20, 0x01)\n      keccak256\n      swap2\n      0x01\n      dup1\n      0xa0\n      shl\n      sub\n      swap3\n      dup4\n      dup2\n      sload\n      and\n        /* \"contracts/TurtleEscrow.sol\":1512:1570  mapping(uint256 => Transaction) public auctionTransactions */\n      swap4\n        /* \"contracts/TurtleEscrow.sol\":428:8692  contract TurtleEscrow is Ownable {... */\n      0x01\n        /* \"contracts/TurtleEscrow.sol\":1512:1570  mapping(uint256 => Transaction) public auctionTransactions */\n      dup3\n      add\n        /* \"contracts/TurtleEscrow.sol\":428:8692  contract TurtleEscrow is Ownable {... */\n      sload\n      and\n        /* \"contracts/TurtleEscrow.sol\":1512:1570  mapping(uint256 => Transaction) public auctionTransactions */\n      swap5\n      0x02\n      dup3\n      add\n        /* \"contracts/TurtleEscrow.sol\":428:8692  contract TurtleEscrow is Ownable {... */\n      sload\n        /* \"contracts/TurtleEscrow.sol\":1512:1570  mapping(uint256 => Transaction) public auctionTransactions */\n      0x05\n        /* \"contracts/TurtleEscrow.sol\":428:8692  contract TurtleEscrow is Ownable {... */\n      0xff\n      0x03\n        /* \"contracts/TurtleEscrow.sol\":1512:1570  mapping(uint256 => Transaction) public auctionTransactions */\n      dup6\n      add\n        /* \"contracts/TurtleEscrow.sol\":428:8692  contract TurtleEscrow is Ownable {... */\n      sload\n      and\n        /* \"contracts/TurtleEscrow.sol\":1512:1570  mapping(uint256 => Transaction) public auctionTransactions */\n      swap3\n      dup5\n      add\n        /* \"contracts/TurtleEscrow.sol\":428:8692  contract TurtleEscrow is Ownable {... */\n      sload\n        /* \"contracts/TurtleEscrow.sol\":1512:1570  mapping(uint256 => Transaction) public auctionTransactions */\n      swap4\n      add\n        /* \"contracts/TurtleEscrow.sol\":428:8692  contract TurtleEscrow is Ownable {... */\n      sload\n      swap4\n      mload\n      swap7\n      dup8\n      swap7\n      dup8\n      tag_4\n      jump\t// in\n    tag_104:\n      dup1\n      revert\n    tag_32:\n      dup3\n      dup5\n      jumpi(tag_104, callvalue)\n      jumpi(tag_104, slt(add(not(0x03), calldatasize), 0x20))\n      dup2\n      tag_92\n      swap2\n      dup5\n      calldataload\n      dup2\n      mstore\n        /* \"contracts/TurtleEscrow.sol\":1635:1692  mapping(uint256 => Transaction) public normalTransactions */\n      0x02\n        /* \"contracts/TurtleEscrow.sol\":428:8692  contract TurtleEscrow is Ownable {... */\n      0x20\n      mstore\n      keccak256\n      swap2\n      0x01\n      dup1\n      0xa0\n      shl\n      sub\n      swap3\n      dup4\n      dup2\n      sload\n      and\n        /* \"contracts/TurtleEscrow.sol\":1635:1692  mapping(uint256 => Transaction) public normalTransactions */\n      swap4\n        /* \"contracts/TurtleEscrow.sol\":428:8692  contract TurtleEscrow is Ownable {... */\n      0x01\n        /* \"contracts/TurtleEscrow.sol\":1635:1692  mapping(uint256 => Transaction) public normalTransactions */\n      dup3\n      add\n        /* \"contracts/TurtleEscrow.sol\":428:8692  contract TurtleEscrow is Ownable {... */\n      sload\n      and\n        /* \"contracts/TurtleEscrow.sol\":1635:1692  mapping(uint256 => Transaction) public normalTransactions */\n      swap5\n      0x02\n      dup3\n      add\n        /* \"contracts/TurtleEscrow.sol\":428:8692  contract TurtleEscrow is Ownable {... */\n      sload\n        /* \"contracts/TurtleEscrow.sol\":1635:1692  mapping(uint256 => Transaction) public normalTransactions */\n      0x05\n        /* \"contracts/TurtleEscrow.sol\":428:8692  contract TurtleEscrow is Ownable {... */\n      0xff\n      0x03\n        /* \"contracts/TurtleEscrow.sol\":1635:1692  mapping(uint256 => Transaction) public normalTransactions */\n      dup6\n      add\n        /* \"contracts/TurtleEscrow.sol\":428:8692  contract TurtleEscrow is Ownable {... */\n      sload\n      and\n        /* \"contracts/TurtleEscrow.sol\":1635:1692  mapping(uint256 => Transaction) public normalTransactions */\n      swap3\n      dup5\n      add\n        /* \"contracts/TurtleEscrow.sol\":428:8692  contract TurtleEscrow is Ownable {... */\n      sload\n        /* \"contracts/TurtleEscrow.sol\":1635:1692  mapping(uint256 => Transaction) public normalTransactions */\n      swap4\n      add\n        /* \"contracts/TurtleEscrow.sol\":428:8692  contract TurtleEscrow is Ownable {... */\n      sload\n      swap4\n      mload\n      swap7\n      dup8\n      swap7\n      dup8\n      tag_4\n      jump\t// in\n    tag_30:\n      pop\n      pop\n      jumpi(tag_46, callvalue)\n      dup2\n      add(calldatasize, not(0x03))\n      slt\n      tag_46\n      jumpi\n      swap1\n      sload\n      swap1\n      mload\n      sub(shl(0xa0, 0x01), 0x01)\n      swap1\n      swap2\n      and\n      dup2\n      mstore\n      0x20\n      swap1\n      return\n    tag_28:\n      dup4\n      dup4\n      jumpi(tag_46, callvalue)\n      dup1\n      add(calldatasize, not(0x03))\n      slt\n      tag_46\n      jumpi\n      tag_120\n      tag_2\n      jump\t// in\n    tag_120:\n      calldataload(0x24)\n      swap1\n        /* \"contracts/TurtleEscrow.sol\":7634:7719  _isAuction ? auctionTransactions[_transactionId] : normalTransactions[_transactionId] */\n      iszero\n      tag_121\n      jumpi\n        /* \"contracts/TurtleEscrow.sol\":428:8692  contract TurtleEscrow is Ownable {... */\n      dup3\n      mstore\n      mstore(0x20, 0x01)\n      dup1\n      dup3\n      keccak256\n        /* \"contracts/TurtleEscrow.sol\":7634:7719  _isAuction ? auctionTransactions[_transactionId] : normalTransactions[_transactionId] */\n    tag_123:\n        /* \"contracts/TurtleEscrow.sol\":428:8692  contract TurtleEscrow is Ownable {... */\n      dup2\n      mload\n      swap1\n      tag_124\n      dup3\n      tag_6\n      jump\t// in\n    tag_124:\n      0x01\n      dup1\n      0xa0\n      shl\n      sub\n      swap4\n      dup5\n      dup3\n      sload\n      and\n      dup4\n      mstore\n      dup5\n      0x01\n      dup4\n      add\n      sload\n      and\n      swap4\n      0x20\n      dup5\n      add\n      swap5\n      dup6\n      mstore\n      0x02\n      dup4\n      add\n      sload\n      swap6\n      dup2\n      dup6\n      add\n      swap7\n      dup8\n      mstore\n      0xff\n      0x03\n      dup6\n      add\n      sload\n      and\n      swap3\n      dup9\n      dup5\n      lt\n      iszero\n      tag_125\n      jumpi\n      pop\n      dup1\n      0x05\n      tag_92\n      swap8\n      swap9\n      swap10\n      dup6\n      0x60\n      dup10\n      add\n      mstore\n      dup7\n      add\n      sload\n      swap6\n      dup7\n      0x80\n      dup10\n      add\n      mstore\n      add\n      sload\n      swap6\n      dup7\n      0xa0\n      dup3\n      add\n      mstore\n      mload\n      and\n      swap7\n      mload\n      and\n      swap7\n      mload\n      swap1\n      mload\n      swap7\n      dup8\n      swap7\n      dup8\n      tag_4\n      jump\t// in\n    tag_125:\n      shl(0xe0, 0x4e487b71)\n      dup2\n      mstore\n      0x21\n      dup10\n      mstore\n      0x24\n      swap1\n      revert\n        /* \"contracts/TurtleEscrow.sol\":7634:7719  _isAuction ? auctionTransactions[_transactionId] : normalTransactions[_transactionId] */\n    tag_121:\n        /* \"contracts/TurtleEscrow.sol\":428:8692  contract TurtleEscrow is Ownable {... */\n      dup3\n      mstore\n        /* \"contracts/TurtleEscrow.sol\":7685:7703  normalTransactions */\n      0x02\n        /* \"contracts/TurtleEscrow.sol\":428:8692  contract TurtleEscrow is Ownable {... */\n      0x20\n      mstore\n      dup1\n      dup3\n      keccak256\n        /* \"contracts/TurtleEscrow.sol\":7634:7719  _isAuction ? auctionTransactions[_transactionId] : normalTransactions[_transactionId] */\n      jump(tag_123)\n        /* \"contracts/TurtleEscrow.sol\":428:8692  contract TurtleEscrow is Ownable {... */\n    tag_26:\n      dup4\n      jumpi(tag_104, callvalue)\n      dup1\n      add(calldatasize, not(0x03))\n      slt\n      tag_104\n      jumpi\n        /* \"@openzeppelin/contracts/access/Ownable.sol\":1063:1125  modifier onlyOwner() {... */\n      tag_132\n      tag_5\n      jump\t// in\n    tag_132:\n        /* \"contracts/TurtleEscrow.sol\":428:8692  contract TurtleEscrow is Ownable {... */\n      dup1\n      sload\n      not(sub(shl(0xa0, 0x01), 0x01))\n      dup2\n      and\n      dup3\n      sstore\n      dup2\n      swap1\n      sub(shl(0xa0, 0x01), 0x01)\n      and\n        /* \"@openzeppelin/contracts/access/Ownable.sol\":2566:2606  OwnershipTransferred(oldOwner, newOwner) */\n      0x8be0079c531659141344cd1fd0a4f28419497f9722a3daafe3b4186f6b6457e0\n        /* \"contracts/TurtleEscrow.sol\":428:8692  contract TurtleEscrow is Ownable {... */\n      dup3\n      dup1\n        /* \"@openzeppelin/contracts/access/Ownable.sol\":2566:2606  OwnershipTransferred(oldOwner, newOwner) */\n      log3\n        /* \"contracts/TurtleEscrow.sol\":428:8692  contract TurtleEscrow is Ownable {... */\n      dup1\n      return\n    tag_24:\n      dup4\n      dup4\n      jumpi(tag_46, callvalue)\n      dup1\n      add(calldatasize, not(0x03))\n      slt\n      tag_46\n      jumpi\n      tag_137\n      tag_2\n      jump\t// in\n    tag_137:\n      swap2\n      calldataload(0x24)\n        /* \"contracts/TurtleEscrow.sol\":5484:5569  _isAuction ? auctionTransactions[_transactionId] : normalTransactions[_transactionId] */\n      swap4\n      dup4\n      0x00\n      eq\n      tag_138\n      jumpi\n        /* \"contracts/TurtleEscrow.sol\":428:8692  contract TurtleEscrow is Ownable {... */\n      dup5\n      dup3\n      mstore\n      mstore(0x20, 0x01)\n      dup3\n      dup3\n      keccak256\n        /* \"contracts/TurtleEscrow.sol\":5484:5569  _isAuction ? auctionTransactions[_transactionId] : normalTransactions[_transactionId] */\n    tag_140:\n        /* \"contracts/TurtleEscrow.sol\":428:8692  contract TurtleEscrow is Ownable {... */\n      dup1\n      sload\n      sub(shl(0xa0, 0x01), 0x01)\n      swap2\n      swap1\n      dup3\n      and\n        /* \"contracts/TurtleEscrow.sol\":5588:5598  msg.sender */\n      caller\n        /* \"contracts/TurtleEscrow.sol\":5588:5619  msg.sender == transaction.buyer */\n      eq\n        /* \"contracts/TurtleEscrow.sol\":5588:5644  msg.sender == transaction.buyer || msg.sender == arbiter */\n      dup1\n      iszero\n      tag_141\n      jumpi\n        /* \"contracts/TurtleEscrow.sol\":5484:5569  _isAuction ? auctionTransactions[_transactionId] : normalTransactions[_transactionId] */\n    tag_142:\n        /* \"contracts/TurtleEscrow.sol\":5580:5661  require(msg.sender == transaction.buyer || msg.sender == arbiter, \"Unauthorized\") */\n      tag_143\n      swap1\n      tag_12\n      jump\t// in\n    tag_143:\n        /* \"contracts/TurtleEscrow.sol\":428:8692  contract TurtleEscrow is Ownable {... */\n      0x03\n        /* \"contracts/TurtleEscrow.sol\":5680:5697  transaction.state */\n      dup2\n      add\n        /* \"contracts/TurtleEscrow.sol\":428:8692  contract TurtleEscrow is Ownable {... */\n      dup1\n      sload\n      0xff\n      dup2\n      and\n      dup6\n      dup2\n      lt\n      iszero\n      tag_144\n      jumpi\n        /* \"contracts/TurtleEscrow.sol\":5680:5713  transaction.state == State.Locked */\n      swap2\n        /* \"contracts/TurtleEscrow.sol\":5784:5798  State.Released */\n      0x02\n        /* \"contracts/TurtleEscrow.sol\":5851:5905  token.transfer(transaction.seller, transaction.amount) */\n      tag_146\n        /* \"contracts/TurtleEscrow.sol\":5680:5713  transaction.state == State.Locked */\n      swap7\n      swap5\n      swap3\n        /* \"contracts/TurtleEscrow.sol\":5672:5731  require(transaction.state == State.Locked, \"Invalid state\") */\n      tag_147\n        /* \"contracts/TurtleEscrow.sol\":428:8692  contract TurtleEscrow is Ownable {... */\n      0x01\n      0x20\n        /* \"contracts/TurtleEscrow.sol\":5680:5713  transaction.state == State.Locked */\n      swap9\n      swap7\n      eq\n        /* \"contracts/TurtleEscrow.sol\":5672:5731  require(transaction.state == State.Locked, \"Invalid state\") */\n      tag_11\n      jump\t// in\n    tag_147:\n        /* \"contracts/TurtleEscrow.sol\":428:8692  contract TurtleEscrow is Ownable {... */\n      not(0xff)\n      and\n      or\n      swap1\n      sstore\n      dup6\n        /* \"contracts/TurtleEscrow.sol\":5784:5798  State.Released */\n      0x02\n        /* \"contracts/TurtleEscrow.sol\":428:8692  contract TurtleEscrow is Ownable {... */\n      dup4\n      dup6\n      sload\n      and\n        /* \"contracts/TurtleEscrow.sol\":5866:5884  transaction.seller */\n      swap4\n        /* \"contracts/TurtleEscrow.sol\":428:8692  contract TurtleEscrow is Ownable {... */\n      0x01\n        /* \"contracts/TurtleEscrow.sol\":5866:5884  transaction.seller */\n      dup5\n      add\n        /* \"contracts/TurtleEscrow.sol\":428:8692  contract TurtleEscrow is Ownable {... */\n      sload\n      and\n        /* \"contracts/TurtleEscrow.sol\":5886:5904  transaction.amount */\n      swap3\n      add\n        /* \"contracts/TurtleEscrow.sol\":428:8692  contract TurtleEscrow is Ownable {... */\n      sload\n      swap4\n      dup9\n      mload\n      swap7\n      dup8\n      swap6\n      dup7\n      swap5\n      dup6\n      swap4\n      shl(0xe0, 0xa9059cbb)\n        /* \"contracts/TurtleEscrow.sol\":5851:5905  token.transfer(transaction.seller, transaction.amount) */\n      dup6\n      mstore\n      dup5\n      add\n        /* \"contracts/TurtleEscrow.sol\":428:8692  contract TurtleEscrow is Ownable {... */\n      0x20\n      swap1\n      swap4\n      swap3\n      swap2\n      swap4\n      0x40\n      dup2\n      add\n      swap5\n      0x01\n      dup1\n      0xa0\n      shl\n      sub\n      and\n      dup2\n      mstore\n      add\n      mstore\n      jump\n        /* \"contracts/TurtleEscrow.sol\":5851:5905  token.transfer(transaction.seller, transaction.amount) */\n    tag_146:\n      sub\n      swap3\n      gas\n      call\n      swap2\n      dup3\n      iszero\n      tag_148\n      jumpi\n        /* \"contracts/TurtleEscrow.sol\":428:8692  contract TurtleEscrow is Ownable {... */\n      tag_92\n      swap4\n        /* \"contracts/TurtleEscrow.sol\":5851:5905  token.transfer(transaction.seller, transaction.amount) */\n      swap3\n        /* \"contracts/TurtleEscrow.sol\":5916:5957  require(success, \"Token transfer failed\") */\n      tag_150\n      swap3\n        /* \"contracts/TurtleEscrow.sol\":5851:5905  token.transfer(transaction.seller, transaction.amount) */\n      swap1\n      tag_152\n      jumpi\n        /* \"contracts/TurtleEscrow.sol\":5916:5957  require(success, \"Token transfer failed\") */\n      pop\n      tag_10\n      jump\t// in\n    tag_150:\n        /* \"contracts/TurtleEscrow.sol\":428:8692  contract TurtleEscrow is Ownable {... */\n      mload\n      swap2\n      iszero\n      iszero\n      dup3\n      mstore\n      0x20\n      dup3\n      add\n      swap3\n      swap1\n      swap3\n      mstore\n      swap1\n      dup2\n      swap1\n      0x40\n      dup3\n      add\n      swap1\n      jump\n        /* \"contracts/TurtleEscrow.sol\":5851:5905  token.transfer(transaction.seller, transaction.amount) */\n    tag_152:\n      tag_154\n      swap2\n      pop\n        /* \"contracts/TurtleEscrow.sol\":428:8692  contract TurtleEscrow is Ownable {... */\n      0x20\n        /* \"contracts/TurtleEscrow.sol\":5851:5905  token.transfer(transaction.seller, transaction.amount) */\n      returndatasize\n      dup2\n      gt\n      tag_95\n      jumpi\n      tag_97\n      dup2\n      dup4\n      tag_7\n      jump\t// in\n    tag_154:\n      dup7\n      jump(tag_84)\n    tag_148:\n        /* \"contracts/TurtleEscrow.sol\":428:8692  contract TurtleEscrow is Ownable {... */\n      dup4\n      mload\n      swap1\n      returndatasize\n      swap1\n      dup3\n      returndatacopy\n      returndatasize\n      swap1\n      revert\n    tag_144:\n      shl(0xe0, 0x4e487b71)\n      dup8\n      mstore\n      0x21\n      dup7\n      mstore\n      0x24\n      dup8\n      revert\n        /* \"contracts/TurtleEscrow.sol\":5588:5644  msg.sender == transaction.buyer || msg.sender == arbiter */\n    tag_141:\n      pop\n        /* \"contracts/TurtleEscrow.sol\":428:8692  contract TurtleEscrow is Ownable {... */\n      sload(0x03)\n      dup3\n      and\n        /* \"contracts/TurtleEscrow.sol\":5588:5598  msg.sender */\n      caller\n        /* \"contracts/TurtleEscrow.sol\":5623:5644  msg.sender == arbiter */\n      eq\n        /* \"contracts/TurtleEscrow.sol\":5588:5644  msg.sender == transaction.buyer || msg.sender == arbiter */\n      jump(tag_142)\n        /* \"contracts/TurtleEscrow.sol\":5484:5569  _isAuction ? auctionTransactions[_transactionId] : normalTransactions[_transactionId] */\n    tag_138:\n        /* \"contracts/TurtleEscrow.sol\":428:8692  contract TurtleEscrow is Ownable {... */\n      dup5\n      dup3\n      mstore\n        /* \"contracts/TurtleEscrow.sol\":5535:5553  normalTransactions */\n      0x02\n        /* \"contracts/TurtleEscrow.sol\":428:8692  contract TurtleEscrow is Ownable {... */\n      0x20\n      mstore\n      dup3\n      dup3\n      keccak256\n        /* \"contracts/TurtleEscrow.sol\":5484:5569  _isAuction ? auctionTransactions[_transactionId] : normalTransactions[_transactionId] */\n      jump(tag_140)\n        /* \"contracts/TurtleEscrow.sol\":428:8692  contract TurtleEscrow is Ownable {... */\n    tag_22:\n      dup4\n      dup4\n      jumpi(tag_46, callvalue)\n      dup1\n      add(calldatasize, not(0x03))\n      slt\n      tag_46\n      jumpi\n      tag_162\n      tag_2\n      jump\t// in\n    tag_162:\n      swap2\n      calldataload(0x24)\n        /* \"contracts/TurtleEscrow.sol\":6537:6622  _isAuction ? auctionTransactions[_transactionId] : normalTransactions[_transactionId] */\n      swap4\n      dup4\n      0x00\n      eq\n      tag_163\n      jumpi\n        /* \"contracts/TurtleEscrow.sol\":428:8692  contract TurtleEscrow is Ownable {... */\n      dup5\n      dup3\n      mstore\n      mstore(0x20, 0x01)\n      dup3\n      dup3\n      keccak256\n        /* \"contracts/TurtleEscrow.sol\":6537:6622  _isAuction ? auctionTransactions[_transactionId] : normalTransactions[_transactionId] */\n    tag_165:\n        /* \"contracts/TurtleEscrow.sol\":428:8692  contract TurtleEscrow is Ownable {... */\n      0x01\n        /* \"contracts/TurtleEscrow.sol\":6655:6673  transaction.seller */\n      dup2\n      add\n        /* \"contracts/TurtleEscrow.sol\":428:8692  contract TurtleEscrow is Ownable {... */\n      sload\n      sub(shl(0xa0, 0x01), 0x01)\n      swap2\n        /* \"contracts/TurtleEscrow.sol\":6655:6673  transaction.seller */\n      swap1\n        /* \"contracts/TurtleEscrow.sol\":428:8692  contract TurtleEscrow is Ownable {... */\n      dup3\n      and\n        /* \"contracts/TurtleEscrow.sol\":6641:6651  msg.sender */\n      caller\n        /* \"contracts/TurtleEscrow.sol\":6641:6673  msg.sender == transaction.seller */\n      eq\n        /* \"contracts/TurtleEscrow.sol\":6641:6698  msg.sender == transaction.seller || msg.sender == arbiter */\n      dup1\n      iszero\n      tag_166\n      jumpi\n        /* \"contracts/TurtleEscrow.sol\":6537:6622  _isAuction ? auctionTransactions[_transactionId] : normalTransactions[_transactionId] */\n    tag_167:\n        /* \"contracts/TurtleEscrow.sol\":6633:6715  require(msg.sender == transaction.seller || msg.sender == arbiter, \"Unauthorized\") */\n      tag_168\n      swap1\n      tag_12\n      jump\t// in\n    tag_168:\n        /* \"contracts/TurtleEscrow.sol\":428:8692  contract TurtleEscrow is Ownable {... */\n      0x03\n        /* \"contracts/TurtleEscrow.sol\":6734:6751  transaction.state */\n      dup2\n      add\n        /* \"contracts/TurtleEscrow.sol\":428:8692  contract TurtleEscrow is Ownable {... */\n      dup1\n      sload\n      0xff\n      dup2\n      and\n      dup6\n      dup2\n      lt\n      iszero\n      tag_144\n      jumpi\n      0x01\n        /* \"contracts/TurtleEscrow.sol\":6726:6785  require(transaction.state == State.Locked, \"Invalid state\") */\n      tag_171\n        /* \"contracts/TurtleEscrow.sol\":6734:6767  transaction.state == State.Locked */\n      swap2\n      eq\n        /* \"contracts/TurtleEscrow.sol\":6726:6785  require(transaction.state == State.Locked, \"Invalid state\") */\n      tag_11\n      jump\t// in\n    tag_171:\n        /* \"contracts/TurtleEscrow.sol\":6823:6844  transaction.createdAt */\n      dup5\n      dup4\n      add\n        /* \"contracts/TurtleEscrow.sol\":428:8692  contract TurtleEscrow is Ownable {... */\n      sload\n        /* \"contracts/TurtleEscrow.sol\":6847:6869  transaction.lockPeriod */\n      0x05\n      dup5\n      add\n        /* \"contracts/TurtleEscrow.sol\":428:8692  contract TurtleEscrow is Ownable {... */\n      sload\n      dup2\n      add\n      dup1\n      swap2\n      gt\n      tag_172\n      jumpi\n        /* \"contracts/TurtleEscrow.sol\":6804:6819  block.timestamp */\n      timestamp\n        /* \"contracts/TurtleEscrow.sol\":6804:6869  block.timestamp >= transaction.createdAt + transaction.lockPeriod */\n      lt\n      dup1\n      iszero\n        /* \"contracts/TurtleEscrow.sol\":6804:6894  block.timestamp >= transaction.createdAt + transaction.lockPeriod || msg.sender == arbiter */\n      swap1\n      tag_174\n      jumpi\n        /* \"contracts/TurtleEscrow.sol\":6537:6622  _isAuction ? auctionTransactions[_transactionId] : normalTransactions[_transactionId] */\n    tag_175:\n        /* \"contracts/TurtleEscrow.sol\":428:8692  contract TurtleEscrow is Ownable {... */\n      iszero\n      tag_176\n      jumpi\n      not(0xff)\n      and\n      0x03\n      or\n      swap1\n      sstore\n      dup3\n      sload\n      dup2\n      sload\n        /* \"contracts/TurtleEscrow.sol\":7069:7087  transaction.amount */\n      0x02\n      swap1\n      swap3\n      add\n        /* \"contracts/TurtleEscrow.sol\":428:8692  contract TurtleEscrow is Ownable {... */\n      sload\n      dup7\n      mload\n      shl(0xe0, 0xa9059cbb)\n        /* \"contracts/TurtleEscrow.sol\":7035:7088  token.transfer(transaction.buyer, transaction.amount) */\n      dup2\n      mstore\n      sub(shl(0xa0, 0x01), 0x01)\n        /* \"contracts/TurtleEscrow.sol\":428:8692  contract TurtleEscrow is Ownable {... */\n      swap4\n      dup6\n      and\n      swap4\n      swap1\n      swap4\n      and\n        /* \"contracts/TurtleEscrow.sol\":7035:7088  token.transfer(transaction.buyer, transaction.amount) */\n      swap5\n      dup4\n      add\n        /* \"contracts/TurtleEscrow.sol\":428:8692  contract TurtleEscrow is Ownable {... */\n      swap5\n      dup6\n      mstore\n      0x20\n      dup6\n      dup2\n      add\n      swap2\n      swap1\n      swap2\n      mstore\n      swap2\n      swap4\n      swap2\n      swap3\n      dup5\n      swap3\n      swap2\n      and\n      swap1\n      dup3\n      swap1\n      dup7\n      swap1\n      dup3\n      swap1\n      0x40\n      add\n        /* \"contracts/TurtleEscrow.sol\":7035:7088  token.transfer(transaction.buyer, transaction.amount) */\n      tag_146\n        /* \"contracts/TurtleEscrow.sol\":428:8692  contract TurtleEscrow is Ownable {... */\n      jump\n    tag_176:\n      dup7\n      mload\n      shl(0xe5, 0x461bcd)\n      dup2\n      mstore\n      0x20\n      dup2\n      dup8\n      add\n      mstore\n      0x17\n      0x24\n      dup3\n      add\n      mstore\n      0x4c6f636b20706572696f64206e6f742065787069726564000000000000000000\n      0x44\n      dup3\n      add\n      mstore\n      0x64\n      swap1\n      revert\n        /* \"contracts/TurtleEscrow.sol\":6804:6894  block.timestamp >= transaction.createdAt + transaction.lockPeriod || msg.sender == arbiter */\n    tag_174:\n        /* \"contracts/TurtleEscrow.sol\":428:8692  contract TurtleEscrow is Ownable {... */\n      pop\n      dup4\n      sload(0x03)\n      and\n        /* \"contracts/TurtleEscrow.sol\":6641:6651  msg.sender */\n      caller\n        /* \"contracts/TurtleEscrow.sol\":6873:6894  msg.sender == arbiter */\n      eq\n        /* \"contracts/TurtleEscrow.sol\":6804:6894  block.timestamp >= transaction.createdAt + transaction.lockPeriod || msg.sender == arbiter */\n      jump(tag_175)\n        /* \"contracts/TurtleEscrow.sol\":428:8692  contract TurtleEscrow is Ownable {... */\n    tag_172:\n      shl(0xe0, 0x4e487b71)\n      dup8\n      mstore\n      0x11\n      dup7\n      mstore\n      0x24\n      dup8\n      revert\n        /* \"contracts/TurtleEscrow.sol\":6641:6698  msg.sender == transaction.seller || msg.sender == arbiter */\n    tag_166:\n      pop\n        /* \"contracts/TurtleEscrow.sol\":428:8692  contract TurtleEscrow is Ownable {... */\n      sload(0x03)\n      dup3\n      and\n        /* \"contracts/TurtleEscrow.sol\":6641:6651  msg.sender */\n      caller\n        /* \"contracts/TurtleEscrow.sol\":6677:6698  msg.sender == arbiter */\n      eq\n        /* \"contracts/TurtleEscrow.sol\":6641:6698  msg.sender == transaction.seller || msg.sender == arbiter */\n      jump(tag_167)\n        /* \"contracts/TurtleEscrow.sol\":6537:6622  _isAuction ? auctionTransactions[_transactionId] : normalTransactions[_transactionId] */\n    tag_163:\n        /* \"contracts/TurtleEscrow.sol\":428:8692  contract TurtleEscrow is Ownable {... */\n      dup5\n      dup3\n      mstore\n        /* \"contracts/TurtleEscrow.sol\":6588:6606  normalTransactions */\n      0x02\n        /* \"contracts/TurtleEscrow.sol\":428:8692  contract TurtleEscrow is Ownable {... */\n      0x20\n      mstore\n      dup3\n      dup3\n      keccak256\n        /* \"contracts/TurtleEscrow.sol\":6537:6622  _isAuction ? auctionTransactions[_transactionId] : normalTransactions[_transactionId] */\n      jump(tag_165)\n        /* \"contracts/TurtleEscrow.sol\":428:8692  contract TurtleEscrow is Ownable {... */\n    tag_20:\n      swap2\n      swap1\n      pop\n      jumpi(tag_50, callvalue)\n      jumpi(tag_50, slt(add(not(0x03), calldatasize), 0x60))\n      tag_193\n      tag_2\n      jump\t// in\n    tag_193:\n      swap2\n      dup2\n      calldataload(0x24)\n        /* \"contracts/TurtleEscrow.sol\":8418:8503  _isAuction ? auctionTransactions[_transactionId] : normalTransactions[_transactionId] */\n      swap5\n      dup5\n      0x00\n      eq\n      tag_194\n      jumpi\n        /* \"contracts/TurtleEscrow.sol\":428:8692  contract TurtleEscrow is Ownable {... */\n      dup6\n      dup2\n      mstore\n      mstore(0x20, 0x01)\n      keccak256\n        /* \"contracts/TurtleEscrow.sol\":8418:8503  _isAuction ? auctionTransactions[_transactionId] : normalTransactions[_transactionId] */\n      swap1\n    tag_196:\n        /* \"contracts/TurtleEscrow.sol\":428:8692  contract TurtleEscrow is Ownable {... */\n      and(sub(shl(0xa0, 0x01), 0x01), sload(0x03))\n        /* \"contracts/TurtleEscrow.sol\":8522:8532  msg.sender */\n      caller\n        /* \"contracts/TurtleEscrow.sol\":8522:8543  msg.sender == arbiter */\n      sub\n        /* \"contracts/TurtleEscrow.sol\":428:8692  contract TurtleEscrow is Ownable {... */\n      tag_197\n      jumpi\n      pop\n      calldataload(0x44)\n        /* \"contracts/TurtleEscrow.sol\":8594:8616  transaction.lockPeriod */\n      0x05\n      swap2\n      swap1\n      swap2\n      add\n        /* \"contracts/TurtleEscrow.sol\":428:8692  contract TurtleEscrow is Ownable {... */\n      sstore\n      mload\n      swap1\n      iszero\n      iszero\n      dup2\n      mstore\n      0x20\n      dup2\n      add\n      swap2\n      swap1\n      swap2\n      mstore\n      0x40\n      swap1\n      return\n    tag_197:\n      0x84\n      swap1\n      0x20\n      dup5\n      mload\n      swap2\n      shl(0xe5, 0x461bcd)\n      dup4\n      mstore\n      dup3\n      add\n      mstore\n      0x23\n      0x24\n      dup3\n      add\n      mstore\n      0x4f6e6c7920617262697465722063616e20757064617465206c6f636b20706572\n      0x44\n      dup3\n      add\n      mstore\n      shl(0xea, 0x1a5bd9)\n      0x64\n      dup3\n      add\n      mstore\n      revert\n        /* \"contracts/TurtleEscrow.sol\":8418:8503  _isAuction ? auctionTransactions[_transactionId] : normalTransactions[_transactionId] */\n    tag_194:\n        /* \"contracts/TurtleEscrow.sol\":428:8692  contract TurtleEscrow is Ownable {... */\n      dup6\n      dup2\n      mstore\n        /* \"contracts/TurtleEscrow.sol\":8469:8487  normalTransactions */\n      0x02\n        /* \"contracts/TurtleEscrow.sol\":428:8692  contract TurtleEscrow is Ownable {... */\n      0x20\n      mstore\n      keccak256\n        /* \"contracts/TurtleEscrow.sol\":8418:8503  _isAuction ? auctionTransactions[_transactionId] : normalTransactions[_transactionId] */\n      swap1\n      jump(tag_196)\n        /* \"contracts/TurtleEscrow.sol\":428:8692  contract TurtleEscrow is Ownable {... */\n    tag_18:\n      dup4\n      jumpi(tag_104, callvalue)\n      jumpi(tag_104, slt(add(not(0x03), calldatasize), 0x20))\n      tag_204\n      tag_1\n      jump\t// in\n    tag_204:\n        /* \"@openzeppelin/contracts/access/Ownable.sol\":1063:1125  modifier onlyOwner() {... */\n      tag_205\n      tag_5\n      jump\t// in\n    tag_205:\n        /* \"contracts/TurtleEscrow.sol\":428:8692  contract TurtleEscrow is Ownable {... */\n      0x01\n      dup1\n      0xa0\n      shl\n      sub\n      and\n      and(sload(0x03), shl(0xa0, sub(shl(0x60, 0x01), 0x01)))\n      or\n      0x03\n      sstore\n      dup1\n      return\n    tag_16:\n      dup5\n      swap1\n      jumpi(tag_46, callvalue)\n      dup2\n      add(calldatasize, not(0x03))\n      slt\n      tag_46\n      jumpi\n      dup1\n        /* \"contracts/TurtleEscrow.sol\":1846:1852  7 days */\n      0x093a80\n        /* \"contracts/TurtleEscrow.sol\":428:8692  contract TurtleEscrow is Ownable {... */\n      0x20\n      swap3\n      mstore\n      return\n    tag_1:\n      calldataload(0x04)\n      swap1\n      sub(shl(0xa0, 0x01), 0x01)\n      dup3\n      and\n      dup3\n      sub\n      tag_210\n      jumpi\n      jump\t// out\n    tag_210:\n      0x00\n      dup1\n      revert\n    tag_2:\n      calldataload(0x04)\n      swap1\n      dup2\n      iszero\n      iszero\n      dup3\n      sub\n      tag_210\n      jumpi\n      jump\t// out\n    tag_4:\n      sub(shl(0xa0, 0x01), 0x01)\n      swap2\n      dup3\n      and\n      dup2\n      mstore\n      swap2\n      and\n      0x20\n      dup3\n      add\n      mstore\n      0x40\n      dup2\n      add\n      swap2\n      swap1\n      swap2\n      mstore\n      0xc0\n      dup2\n      add\n      swap5\n      swap4\n      swap3\n      0x04\n      dup4\n      lt\n      iszero\n      tag_214\n      jumpi\n      0xa0\n      swap3\n      0x60\n      dup4\n      add\n      mstore\n      0x80\n      dup3\n      add\n      mstore\n      add\n      mstore\n      jump\t// out\n    tag_214:\n      mstore(0x00, shl(0xe0, 0x4e487b71))\n      mstore(0x04, 0x21)\n      revert(0x00, 0x24)\n        /* \"@openzeppelin/contracts/access/Ownable.sol\":1359:1489  function _checkOwner() internal view virtual {... */\n    tag_5:\n        /* \"@openzeppelin/contracts/access/Ownable.sol\":1273:1279  _owner */\n      0x00\n        /* \"contracts/TurtleEscrow.sol\":428:8692  contract TurtleEscrow is Ownable {... */\n      sload\n      sub(shl(0xa0, 0x01), 0x01)\n      and\n        /* \"@openzeppelin/contracts/utils/Context.sol\":734:744  msg.sender */\n      caller\n        /* \"@openzeppelin/contracts/access/Ownable.sol\":1422:1445  owner() == _msgSender() */\n      sub\n        /* \"contracts/TurtleEscrow.sol\":428:8692  contract TurtleEscrow is Ownable {... */\n      tag_216\n      jumpi\n        /* \"@openzeppelin/contracts/access/Ownable.sol\":1359:1489  function _checkOwner() internal view virtual {... */\n      jump\t// out\n        /* \"contracts/TurtleEscrow.sol\":428:8692  contract TurtleEscrow is Ownable {... */\n    tag_216:\n      0x64\n      mload(0x40)\n      shl(0xe5, 0x461bcd)\n      dup2\n      mstore\n      0x20\n      0x04\n      dup3\n      add\n      mstore\n      0x20\n      0x24\n      dup3\n      add\n      mstore\n      0x4f776e61626c653a2063616c6c6572206973206e6f7420746865206f776e6572\n      0x44\n      dup3\n      add\n      mstore\n      revert\n    tag_6:\n      0xc0\n      dup2\n      add\n      swap1\n      dup2\n      lt\n      0xffffffffffffffff\n      dup3\n      gt\n      or\n      tag_218\n      jumpi\n      0x40\n      mstore\n      jump\t// out\n    tag_218:\n      mstore(0x00, shl(0xe0, 0x4e487b71))\n      mstore(0x04, 0x41)\n      revert(0x00, 0x24)\n    tag_7:\n      swap1\n      0x1f\n      dup1\n      not\n      swap2\n      add\n      and\n      dup2\n      add\n      swap1\n      dup2\n      lt\n      0xffffffffffffffff\n      dup3\n      gt\n      or\n      tag_218\n      jumpi\n      0x40\n      mstore\n      jump\t// out\n    tag_8:\n      swap1\n      0x04\n      dup2\n      lt\n      iszero\n      tag_214\n      jumpi\n      0xff\n      dup1\n      not\n      dup4\n      sload\n      and\n      swap2\n      and\n      or\n      swap1\n      sstore\n      jump\t// out\n    tag_9:\n      swap1\n      dup2\n      0x20\n      swap2\n      sub\n      slt\n      tag_210\n      jumpi\n      mload\n      dup1\n      iszero\n      iszero\n      dup2\n      sub\n      tag_210\n      jumpi\n      swap1\n      jump\t// out\n    tag_10:\n      iszero\n      tag_228\n      jumpi\n      jump\t// out\n    tag_228:\n      mload(0x40)\n      shl(0xe5, 0x461bcd)\n      dup2\n      mstore\n      0x20\n      0x04\n      dup3\n      add\n      mstore\n      0x15\n      0x24\n      dup3\n      add\n      mstore\n      shl(0x5a, 0x151bdad95b881d1c985b9cd9995c8819985a5b1959)\n      0x44\n      dup3\n      add\n      mstore\n      0x64\n      swap1\n      revert\n    tag_11:\n      iszero\n      tag_230\n      jumpi\n      jump\t// out\n    tag_230:\n      mload(0x40)\n      shl(0xe5, 0x461bcd)\n      dup2\n      mstore\n      0x20\n      0x04\n      dup3\n      add\n      mstore\n      0x0d\n      0x24\n      dup3\n      add\n      mstore\n      shl(0x98, 0x496e76616c6964207374617465)\n      0x44\n      dup3\n      add\n      mstore\n      0x64\n      swap1\n      revert\n    tag_12:\n      iszero\n      tag_232\n      jumpi\n      jump\t// out\n    tag_232:\n      mload(0x40)\n      shl(0xe5, 0x461bcd)\n      dup2\n      mstore\n      0x20\n      0x04\n      dup3\n      add\n      mstore\n      0x0c\n      0x24\n      dup3\n      add\n      mstore\n      shl(0xa2, 0x155b985d5d1a1bdc9a5e9959)\n      0x44\n      dup3\n      add\n      mstore\n      0x64\n      swap1\n      revert\n\n    auxdata: 0xa264697066735822122014b273cd06a5dde4f32d4423567d4193d9d567504d379293640803898df6024864736f6c63430008120033\n}\n",
				"bytecode": {
					"linkReferences": {},
					"object": "6080346100f157601f610e9e38819003918201601f19168301916001600160401b038311848410176100f6578084926020946040528339810103126100f157516001600160a01b0390818116908190036100f1576000549160018060a01b0319923384821617600055604051913391167f8be0079c531659141344cd1fd0a4f28419497f9722a3daafe3b4186f6b6457e0600080a381156100bd575081600454161760045533906003541617600355604051610d91908161010d8239f35b62461bcd60e51b815260206004820152600f60248201526e496e76616c6964206164647265737360881b6044820152606490fd5b600080fd5b634e487b7160e01b600052604160045260246000fdfe608060408181526004918236101561001657600080fd5b600092833560e01c9182631820cabb14610b2a575081631c9c088a14610aea57816335ba2e8714610a275781633ceafc8c146108be5781635ba4835914610769578163715018a61461070f578163899d7879146106445781638da5cb5b1461061c578163aa7f3bae146105c4578163ce48dd4f14610569578163d37d3437146101d9578163f2fde38b14610116578163fc0c546a146100ea575063fe25e00a146100bf57600080fd5b346100e657816003193601126100e65760035490516001600160a01b039091168152602090f35b5080fd5b9050346101125782600319360112610112575490516001600160a01b03909116815260209150f35b8280fd5b90503461011257602036600319011261011257610131610b47565b9061013a610bc4565b6001600160a01b0391821692831561018757505082546001600160a01b0319811683178455167f8be0079c531659141344cd1fd0a4f28419497f9722a3daafe3b4186f6b6457e08380a380f35b906020608492519162461bcd60e51b8352820152602660248201527f4f776e61626c653a206e6577206f776e657220697320746865207a65726f206160448201526564647265737360d01b6064820152fd5b8383346100e65760803660031901126100e6576101f4610b62565b6024803594919390916001600160a01b03604435818116908190036105655760643590801561052a5781156104d257670de0b6b3a7640000808302928304036104bf5787156104275786519061024982610c1c565b3382526020820190815287820183815260608301878152608084019142835260a085019362093a8085528d8a526001602052878c8b209651166001600160601b0360a01b9081885416178755886001880192511690825416179055516002850155518681101561041557916005916102c7859460038b989701610c70565b5187840155519101555b828454168751916323b872dd60e01b83523386840152308884015260448301528160648160209586945af190811561040b57906103159186916103de575b50610ca0565b86156103ce5787845260018152858420915b825416330361038d57506003019283549260ff8416928084101561037d5750505061037993929161035a60019215610ce4565b60ff191617905551911515825260208201929092529081906040820190565b0390f35b634e487b7160e01b825260219052fd5b8260198660649389519362461bcd60e51b85528401528201527f4f6e6c792062757965722063616e206c6f636b2066756e6473000000000000006044820152fd5b8784526002815285842091610327565b6103fe9150833d8511610404575b6103f68183610c4e565b810190610c88565b8a61030f565b503d6103ec565b87513d87823e3d90fd5b634e487b7160e01b8852602187528888fd5b86519061043382610c1c565b3382526020820190815287820183815260608301878152608084019142835260a085019362093a8085528d8a526002602052878c8b209651166001600160601b0360a01b9081885416178755886001880192511690825416179055516002850155518681101561041557916005916104b1859460038b989701610c70565b5187840155519101556102d1565b5050634e487b7160e01b83525060119052fd5b865162461bcd60e51b8152602081860152602d818801527f496e76616c696420616d6f756e742120416d6f756e74206d757374206265206760448201526c0726561746572207468616e203609c1b6064820152608490fd5b865162461bcd60e51b815260208186015260168188015275496e76616c69642073656c6c6572206164647265737360501b6044820152606490fd5b8380fd5b8284346105c15760203660031901126105c1578161037991843581526001602052209160018060a01b03928381541693600182015416946002820154600560ff60038501541692840154930154935196879687610b71565b80fd5b8284346105c15760203660031901126105c1578161037991843581526002602052209160018060a01b03928381541693600182015416946002820154600560ff60038501541692840154930154935196879687610b71565b5050346100e657816003193601126100e657905490516001600160a01b039091168152602090f35b8383346100e657806003193601126100e65761065e610b62565b602435901561070057825260016020528082205b81519061067e82610c1c565b60018060a01b039384825416835284600183015416936020840194855260028301549581850196875260ff60038501541692888410156106ed5750806005610379979899856060890152860154958660808901520154958660a082015251169651169651905196879687610b71565b634e487b7160e01b815260218952602490fd5b82526002602052808220610672565b83346105c157806003193601126105c157610728610bc4565b80546001600160a01b03198116825581906001600160a01b03167f8be0079c531659141344cd1fd0a4f28419497f9722a3daafe3b4186f6b6457e08280a380f35b8383346100e657806003193601126100e657610783610b62565b9160243593836000146108ae5784825260016020528282205b80546001600160a01b0391908216331480156108a1575b6107bc90610d20565b60038101805460ff81168581101561088e5791600261082e9694926107e660016020989614610ce4565b60ff191617905585600283855416936001840154169201549388519687958694859363a9059cbb60e01b8552840160209093929193604081019460018060a01b031681520152565b03925af191821561088357610379939261084d92906108655750610ca0565b51911515825260208201929092529081906040820190565b61087d915060203d8111610404576103f68183610c4e565b8661030f565b8351903d90823e3d90fd5b634e487b7160e01b875260218652602487fd5b50600354821633146107b3565b848252600260205282822061079c565b8383346100e657806003193601126100e6576108d8610b62565b916024359383600014610a175784825260016020528282205b60018101546001600160a01b039190821633148015610a0a575b61091490610d20565b60038101805460ff81168581101561088e5760016109329114610ce4565b84830154600584015481018091116109f75742108015906109ea575b156109a75760ff1916600317905582548154600290920154865163a9059cbb60e01b81526001600160a01b039385169390931694830194855260208581019190915291939192849291169082908690829060400161082e565b865162461bcd60e51b8152602081870152601760248201527f4c6f636b20706572696f64206e6f7420657870697265640000000000000000006044820152606490fd5b508360035416331461094e565b634e487b7160e01b875260118652602487fd5b506003548216331461090b565b84825260026020528282206108f1565b9190503461011257606036600319011261011257610a43610b62565b91816024359484600014610adb57858152600160205220905b6003546001600160a01b03163303610a8c5750604435600591909101555190151581526020810191909152604090f35b608490602084519162461bcd60e51b8352820152602360248201527f4f6e6c7920617262697465722063616e20757064617465206c6f636b207065726044820152621a5bd960ea1b6064820152fd5b85815260026020522090610a5c565b83346105c15760203660031901126105c157610b04610b47565b610b0c610bc4565b60018060a01b03166001600160601b0360a01b600354161760035580f35b8490346100e657816003193601126100e6578062093a8060209252f35b600435906001600160a01b0382168203610b5d57565b600080fd5b600435908115158203610b5d57565b6001600160a01b03918216815291166020820152604081019190915260c081019493926004831015610bae5760a092606083015260808201520152565b634e487b7160e01b600052602160045260246000fd5b6000546001600160a01b03163303610bd857565b606460405162461bcd60e51b815260206004820152602060248201527f4f776e61626c653a2063616c6c6572206973206e6f7420746865206f776e65726044820152fd5b60c0810190811067ffffffffffffffff821117610c3857604052565b634e487b7160e01b600052604160045260246000fd5b90601f8019910116810190811067ffffffffffffffff821117610c3857604052565b906004811015610bae5760ff80198354169116179055565b90816020910312610b5d57518015158103610b5d5790565b15610ca757565b60405162461bcd60e51b8152602060048201526015602482015274151bdad95b881d1c985b9cd9995c8819985a5b1959605a1b6044820152606490fd5b15610ceb57565b60405162461bcd60e51b815260206004820152600d60248201526c496e76616c696420737461746560981b6044820152606490fd5b15610d2757565b60405162461bcd60e51b815260206004820152600c60248201526b155b985d5d1a1bdc9a5e995960a21b6044820152606490fdfea264697066735822122014b273cd06a5dde4f32d4423567d4193d9d567504d379293640803898df6024864736f6c63430008120033",
					"opcodes": "PUSH1 0x80 CALLVALUE PUSH2 0xF1 JUMPI PUSH1 0x1F PUSH2 0xE9E CODESIZE DUP2 SWAP1 SUB SWAP2 DUP3 ADD PUSH1 0x1F NOT AND DUP4 ADD SWAP2 PUSH1 0x1 PUSH1 0x1 PUSH1 0x40 SHL SUB DUP4 GT DUP5 DUP5 LT OR PUSH2 0xF6 JUMPI DUP1 DUP5 SWAP3 PUSH1 0x20 SWAP5 PUSH1 0x40 MSTORE DUP4 CODECOPY DUP2 ADD SUB SLT PUSH2 0xF1 JUMPI MLOAD PUSH1 0x1 PUSH1 0x1 PUSH1 0xA0 SHL SUB SWAP1 DUP2 DUP2 AND SWAP1 DUP2 SWAP1 SUB PUSH2 0xF1 JUMPI PUSH1 0x0 SLOAD SWAP2 PUSH1 0x1 DUP1 PUSH1 0xA0 SHL SUB NOT SWAP3 CALLER DUP5 DUP3 AND OR PUSH1 0x0 SSTORE PUSH1 0x40 MLOAD SWAP2 CALLER SWAP2 AND PUSH32 0x8BE0079C531659141344CD1FD0A4F28419497F9722A3DAAFE3B4186F6B6457E0 PUSH1 0x0 DUP1 LOG3 DUP2 ISZERO PUSH2 0xBD JUMPI POP DUP2 PUSH1 0x4 SLOAD AND OR PUSH1 0x4 SSTORE CALLER SWAP1 PUSH1 0x3 SLOAD AND OR PUSH1 0x3 SSTORE PUSH1 0x40 MLOAD PUSH2 0xD91 SWAP1 DUP2 PUSH2 0x10D DUP3 CODECOPY RETURN JUMPDEST PUSH3 0x461BCD PUSH1 0xE5 SHL DUP2 MSTORE PUSH1 0x20 PUSH1 0x4 DUP3 ADD MSTORE PUSH1 0xF PUSH1 0x24 DUP3 ADD MSTORE PUSH15 0x496E76616C69642061646472657373 PUSH1 0x88 SHL PUSH1 0x44 DUP3 ADD MSTORE PUSH1 0x64 SWAP1 REVERT JUMPDEST PUSH1 0x0 DUP1 REVERT JUMPDEST PUSH4 0x4E487B71 PUSH1 0xE0 SHL PUSH1 0x0 MSTORE PUSH1 0x41 PUSH1 0x4 MSTORE PUSH1 0x24 PUSH1 0x0 REVERT INVALID PUSH1 0x80 PUSH1 0x40 DUP2 DUP2 MSTORE PUSH1 0x4 SWAP2 DUP3 CALLDATASIZE LT ISZERO PUSH2 0x16 JUMPI PUSH1 0x0 DUP1 REVERT JUMPDEST PUSH1 0x0 SWAP3 DUP4 CALLDATALOAD PUSH1 0xE0 SHR SWAP2 DUP3 PUSH4 0x1820CABB EQ PUSH2 0xB2A JUMPI POP DUP2 PUSH4 0x1C9C088A EQ PUSH2 0xAEA JUMPI DUP2 PUSH4 0x35BA2E87 EQ PUSH2 0xA27 JUMPI DUP2 PUSH4 0x3CEAFC8C EQ PUSH2 0x8BE JUMPI DUP2 PUSH4 0x5BA48359 EQ PUSH2 0x769 JUMPI DUP2 PUSH4 0x715018A6 EQ PUSH2 0x70F JUMPI DUP2 PUSH4 0x899D7879 EQ PUSH2 0x644 JUMPI DUP2 PUSH4 0x8DA5CB5B EQ PUSH2 0x61C JUMPI DUP2 PUSH4 0xAA7F3BAE EQ PUSH2 0x5C4 JUMPI DUP2 PUSH4 0xCE48DD4F EQ PUSH2 0x569 JUMPI DUP2 PUSH4 0xD37D3437 EQ PUSH2 0x1D9 JUMPI DUP2 PUSH4 0xF2FDE38B EQ PUSH2 0x116 JUMPI DUP2 PUSH4 0xFC0C546A EQ PUSH2 0xEA JUMPI POP PUSH4 0xFE25E00A EQ PUSH2 0xBF JUMPI PUSH1 0x0 DUP1 REVERT JUMPDEST CALLVALUE PUSH2 0xE6 JUMPI DUP2 PUSH1 0x3 NOT CALLDATASIZE ADD SLT PUSH2 0xE6 JUMPI PUSH1 0x3 SLOAD SWAP1 MLOAD PUSH1 0x1 PUSH1 0x1 PUSH1 0xA0 SHL SUB SWAP1 SWAP2 AND DUP2 MSTORE PUSH1 0x20 SWAP1 RETURN JUMPDEST POP DUP1 REVERT JUMPDEST SWAP1 POP CALLVALUE PUSH2 0x112 JUMPI DUP3 PUSH1 0x3 NOT CALLDATASIZE ADD SLT PUSH2 0x112 JUMPI SLOAD SWAP1 MLOAD PUSH1 0x1 PUSH1 0x1 PUSH1 0xA0 SHL SUB SWAP1 SWAP2 AND DUP2 MSTORE PUSH1 0x20 SWAP2 POP RETURN JUMPDEST DUP3 DUP1 REVERT JUMPDEST SWAP1 POP CALLVALUE PUSH2 0x112 JUMPI PUSH1 0x20 CALLDATASIZE PUSH1 0x3 NOT ADD SLT PUSH2 0x112 JUMPI PUSH2 0x131 PUSH2 0xB47 JUMP JUMPDEST SWAP1 PUSH2 0x13A PUSH2 0xBC4 JUMP JUMPDEST PUSH1 0x1 PUSH1 0x1 PUSH1 0xA0 SHL SUB SWAP2 DUP3 AND SWAP3 DUP4 ISZERO PUSH2 0x187 JUMPI POP POP DUP3 SLOAD PUSH1 0x1 PUSH1 0x1 PUSH1 0xA0 SHL SUB NOT DUP2 AND DUP4 OR DUP5 SSTORE AND PUSH32 0x8BE0079C531659141344CD1FD0A4F28419497F9722A3DAAFE3B4186F6B6457E0 DUP4 DUP1 LOG3 DUP1 RETURN JUMPDEST SWAP1 PUSH1 0x20 PUSH1 0x84 SWAP3 MLOAD SWAP2 PUSH3 0x461BCD PUSH1 0xE5 SHL DUP4 MSTORE DUP3 ADD MSTORE PUSH1 0x26 PUSH1 0x24 DUP3 ADD MSTORE PUSH32 0x4F776E61626C653A206E6577206F776E657220697320746865207A65726F2061 PUSH1 0x44 DUP3 ADD MSTORE PUSH6 0x646472657373 PUSH1 0xD0 SHL PUSH1 0x64 DUP3 ADD MSTORE REVERT JUMPDEST DUP4 DUP4 CALLVALUE PUSH2 0xE6 JUMPI PUSH1 0x80 CALLDATASIZE PUSH1 0x3 NOT ADD SLT PUSH2 0xE6 JUMPI PUSH2 0x1F4 PUSH2 0xB62 JUMP JUMPDEST PUSH1 0x24 DUP1 CALLDATALOAD SWAP5 SWAP2 SWAP4 SWAP1 SWAP2 PUSH1 0x1 PUSH1 0x1 PUSH1 0xA0 SHL SUB PUSH1 0x44 CALLDATALOAD DUP2 DUP2 AND SWAP1 DUP2 SWAP1 SUB PUSH2 0x565 JUMPI PUSH1 0x64 CALLDATALOAD SWAP1 DUP1 ISZERO PUSH2 0x52A JUMPI DUP2 ISZERO PUSH2 0x4D2 JUMPI PUSH8 0xDE0B6B3A7640000 DUP1 DUP4 MUL SWAP3 DUP4 DIV SUB PUSH2 0x4BF JUMPI DUP8 ISZERO PUSH2 0x427 JUMPI DUP7 MLOAD SWAP1 PUSH2 0x249 DUP3 PUSH2 0xC1C JUMP JUMPDEST CALLER DUP3 MSTORE PUSH1 0x20 DUP3 ADD SWAP1 DUP2 MSTORE DUP8 DUP3 ADD DUP4 DUP2 MSTORE PUSH1 0x60 DUP4 ADD DUP8 DUP2 MSTORE PUSH1 0x80 DUP5 ADD SWAP2 TIMESTAMP DUP4 MSTORE PUSH1 0xA0 DUP6 ADD SWAP4 PUSH3 0x93A80 DUP6 MSTORE DUP14 DUP11 MSTORE PUSH1 0x1 PUSH1 0x20 MSTORE DUP8 DUP13 DUP12 KECCAK256 SWAP7 MLOAD AND PUSH1 0x1 PUSH1 0x1 PUSH1 0x60 SHL SUB PUSH1 0xA0 SHL SWAP1 DUP2 DUP9 SLOAD AND OR DUP8 SSTORE DUP9 PUSH1 0x1 DUP9 ADD SWAP3 MLOAD AND SWAP1 DUP3 SLOAD AND OR SWAP1 SSTORE MLOAD PUSH1 0x2 DUP6 ADD SSTORE MLOAD DUP7 DUP2 LT ISZERO PUSH2 0x415 JUMPI SWAP2 PUSH1 0x5 SWAP2 PUSH2 0x2C7 DUP6 SWAP5 PUSH1 0x3 DUP12 SWAP9 SWAP8 ADD PUSH2 0xC70 JUMP JUMPDEST MLOAD DUP8 DUP5 ADD SSTORE MLOAD SWAP2 ADD SSTORE JUMPDEST DUP3 DUP5 SLOAD AND DUP8 MLOAD SWAP2 PUSH4 0x23B872DD PUSH1 0xE0 SHL DUP4 MSTORE CALLER DUP7 DUP5 ADD MSTORE ADDRESS DUP9 DUP5 ADD MSTORE PUSH1 0x44 DUP4 ADD MSTORE DUP2 PUSH1 0x64 DUP2 PUSH1 0x20 SWAP6 DUP7 SWAP5 GAS CALL SWAP1 DUP2 ISZERO PUSH2 0x40B JUMPI SWAP1 PUSH2 0x315 SWAP2 DUP7 SWAP2 PUSH2 0x3DE JUMPI JUMPDEST POP PUSH2 0xCA0 JUMP JUMPDEST DUP7 ISZERO PUSH2 0x3CE JUMPI DUP8 DUP5 MSTORE PUSH1 0x1 DUP2 MSTORE DUP6 DUP5 KECCAK256 SWAP2 JUMPDEST DUP3 SLOAD AND CALLER SUB PUSH2 0x38D JUMPI POP PUSH1 0x3 ADD SWAP3 DUP4 SLOAD SWAP3 PUSH1 0xFF DUP5 AND SWAP3 DUP1 DUP5 LT ISZERO PUSH2 0x37D JUMPI POP POP POP PUSH2 0x379 SWAP4 SWAP3 SWAP2 PUSH2 0x35A PUSH1 0x1 SWAP3 ISZERO PUSH2 0xCE4 JUMP JUMPDEST PUSH1 0xFF NOT AND OR SWAP1 SSTORE MLOAD SWAP2 ISZERO ISZERO DUP3 MSTORE PUSH1 0x20 DUP3 ADD SWAP3 SWAP1 SWAP3 MSTORE SWAP1 DUP2 SWAP1 PUSH1 0x40 DUP3 ADD SWAP1 JUMP JUMPDEST SUB SWAP1 RETURN JUMPDEST PUSH4 0x4E487B71 PUSH1 0xE0 SHL DUP3 MSTORE PUSH1 0x21 SWAP1 MSTORE REVERT JUMPDEST DUP3 PUSH1 0x19 DUP7 PUSH1 0x64 SWAP4 DUP10 MLOAD SWAP4 PUSH3 0x461BCD PUSH1 0xE5 SHL DUP6 MSTORE DUP5 ADD MSTORE DUP3 ADD MSTORE PUSH32 0x4F6E6C792062757965722063616E206C6F636B2066756E647300000000000000 PUSH1 0x44 DUP3 ADD MSTORE REVERT JUMPDEST DUP8 DUP5 MSTORE PUSH1 0x2 DUP2 MSTORE DUP6 DUP5 KECCAK256 SWAP2 PUSH2 0x327 JUMP JUMPDEST PUSH2 0x3FE SWAP2 POP DUP4 RETURNDATASIZE DUP6 GT PUSH2 0x404 JUMPI JUMPDEST PUSH2 0x3F6 DUP2 DUP4 PUSH2 0xC4E JUMP JUMPDEST DUP2 ADD SWAP1 PUSH2 0xC88 JUMP JUMPDEST DUP11 PUSH2 0x30F JUMP JUMPDEST POP RETURNDATASIZE PUSH2 0x3EC JUMP JUMPDEST DUP8 MLOAD RETURNDATASIZE DUP8 DUP3 RETURNDATACOPY RETURNDATASIZE SWAP1 REVERT JUMPDEST PUSH4 0x4E487B71 PUSH1 0xE0 SHL DUP9 MSTORE PUSH1 0x21 DUP8 MSTORE DUP9 DUP9 REVERT JUMPDEST DUP7 MLOAD SWAP1 PUSH2 0x433 DUP3 PUSH2 0xC1C JUMP JUMPDEST CALLER DUP3 MSTORE PUSH1 0x20 DUP3 ADD SWAP1 DUP2 MSTORE DUP8 DUP3 ADD DUP4 DUP2 MSTORE PUSH1 0x60 DUP4 ADD DUP8 DUP2 MSTORE PUSH1 0x80 DUP5 ADD SWAP2 TIMESTAMP DUP4 MSTORE PUSH1 0xA0 DUP6 ADD SWAP4 PUSH3 0x93A80 DUP6 MSTORE DUP14 DUP11 MSTORE PUSH1 0x2 PUSH1 0x20 MSTORE DUP8 DUP13 DUP12 KECCAK256 SWAP7 MLOAD AND PUSH1 0x1 PUSH1 0x1 PUSH1 0x60 SHL SUB PUSH1 0xA0 SHL SWAP1 DUP2 DUP9 SLOAD AND OR DUP8 SSTORE DUP9 PUSH1 0x1 DUP9 ADD SWAP3 MLOAD AND SWAP1 DUP3 SLOAD AND OR SWAP1 SSTORE MLOAD PUSH1 0x2 DUP6 ADD SSTORE MLOAD DUP7 DUP2 LT ISZERO PUSH2 0x415 JUMPI SWAP2 PUSH1 0x5 SWAP2 PUSH2 0x4B1 DUP6 SWAP5 PUSH1 0x3 DUP12 SWAP9 SWAP8 ADD PUSH2 0xC70 JUMP JUMPDEST MLOAD DUP8 DUP5 ADD SSTORE MLOAD SWAP2 ADD SSTORE PUSH2 0x2D1 JUMP JUMPDEST POP POP PUSH4 0x4E487B71 PUSH1 0xE0 SHL DUP4 MSTORE POP PUSH1 0x11 SWAP1 MSTORE REVERT JUMPDEST DUP7 MLOAD PUSH3 0x461BCD PUSH1 0xE5 SHL DUP2 MSTORE PUSH1 0x20 DUP2 DUP7 ADD MSTORE PUSH1 0x2D DUP2 DUP9 ADD MSTORE PUSH32 0x496E76616C696420616D6F756E742120416D6F756E74206D7573742062652067 PUSH1 0x44 DUP3 ADD MSTORE PUSH13 0x726561746572207468616E203 PUSH1 0x9C SHL PUSH1 0x64 DUP3 ADD MSTORE PUSH1 0x84 SWAP1 REVERT JUMPDEST DUP7 MLOAD PUSH3 0x461BCD PUSH1 0xE5 SHL DUP2 MSTORE PUSH1 0x20 DUP2 DUP7 ADD MSTORE PUSH1 0x16 DUP2 DUP9 ADD MSTORE PUSH22 0x496E76616C69642073656C6C65722061646472657373 PUSH1 0x50 SHL PUSH1 0x44 DUP3 ADD MSTORE PUSH1 0x64 SWAP1 REVERT JUMPDEST DUP4 DUP1 REVERT JUMPDEST DUP3 DUP5 CALLVALUE PUSH2 0x5C1 JUMPI PUSH1 0x20 CALLDATASIZE PUSH1 0x3 NOT ADD SLT PUSH2 0x5C1 JUMPI DUP2 PUSH2 0x379 SWAP2 DUP5 CALLDATALOAD DUP2 MSTORE PUSH1 0x1 PUSH1 0x20 MSTORE KECCAK256 SWAP2 PUSH1 0x1 DUP1 PUSH1 0xA0 SHL SUB SWAP3 DUP4 DUP2 SLOAD AND SWAP4 PUSH1 0x1 DUP3 ADD SLOAD AND SWAP5 PUSH1 0x2 DUP3 ADD SLOAD PUSH1 0x5 PUSH1 0xFF PUSH1 0x3 DUP6 ADD SLOAD AND SWAP3 DUP5 ADD SLOAD SWAP4 ADD SLOAD SWAP4 MLOAD SWAP7 DUP8 SWAP7 DUP8 PUSH2 0xB71 JUMP JUMPDEST DUP1 REVERT JUMPDEST DUP3 DUP5 CALLVALUE PUSH2 0x5C1 JUMPI PUSH1 0x20 CALLDATASIZE PUSH1 0x3 NOT ADD SLT PUSH2 0x5C1 JUMPI DUP2 PUSH2 0x379 SWAP2 DUP5 CALLDATALOAD DUP2 MSTORE PUSH1 0x2 PUSH1 0x20 MSTORE KECCAK256 SWAP2 PUSH1 0x1 DUP1 PUSH1 0xA0 SHL SUB SWAP3 DUP4 DUP2 SLOAD AND SWAP4 PUSH1 0x1 DUP3 ADD SLOAD AND SWAP5 PUSH1 0x2 DUP3 ADD SLOAD PUSH1 0x5 PUSH1 0xFF PUSH1 0x3 DUP6 ADD SLOAD AND SWAP3 DUP5 ADD SLOAD SWAP4 ADD SLOAD SWAP4 MLOAD SWAP7 DUP8 SWAP7 DUP8 PUSH2 0xB71 JUMP JUMPDEST POP POP CALLVALUE PUSH2 0xE6 JUMPI DUP2 PUSH1 0x3 NOT CALLDATASIZE ADD SLT PUSH2 0xE6 JUMPI SWAP1 SLOAD SWAP1 MLOAD PUSH1 0x1 PUSH1 0x1 PUSH1 0xA0 SHL SUB SWAP1 SWAP2 AND DUP2 MSTORE PUSH1 0x20 SWAP1 RETURN JUMPDEST DUP4 DUP4 CALLVALUE PUSH2 0xE6 JUMPI DUP1 PUSH1 0x3 NOT CALLDATASIZE ADD SLT PUSH2 0xE6 JUMPI PUSH2 0x65E PUSH2 0xB62 JUMP JUMPDEST PUSH1 0x24 CALLDATALOAD SWAP1 ISZERO PUSH2 0x700 JUMPI DUP3 MSTORE PUSH1 0x1 PUSH1 0x20 MSTORE DUP1 DUP3 KECCAK256 JUMPDEST DUP2 MLOAD SWAP1 PUSH2 0x67E DUP3 PUSH2 0xC1C JUMP JUMPDEST PUSH1 0x1 DUP1 PUSH1 0xA0 SHL SUB SWAP4 DUP5 DUP3 SLOAD AND DUP4 MSTORE DUP5 PUSH1 0x1 DUP4 ADD SLOAD AND SWAP4 PUSH1 0x20 DUP5 ADD SWAP5 DUP6 MSTORE PUSH1 0x2 DUP4 ADD SLOAD SWAP6 DUP2 DUP6 ADD SWAP7 DUP8 MSTORE PUSH1 0xFF PUSH1 0x3 DUP6 ADD SLOAD AND SWAP3 DUP9 DUP5 LT ISZERO PUSH2 0x6ED JUMPI POP DUP1 PUSH1 0x5 PUSH2 0x379 SWAP8 SWAP9 SWAP10 DUP6 PUSH1 0x60 DUP10 ADD MSTORE DUP7 ADD SLOAD SWAP6 DUP7 PUSH1 0x80 DUP10 ADD MSTORE ADD SLOAD SWAP6 DUP7 PUSH1 0xA0 DUP3 ADD MSTORE MLOAD AND SWAP7 MLOAD AND SWAP7 MLOAD SWAP1 MLOAD SWAP7 DUP8 SWAP7 DUP8 PUSH2 0xB71 JUMP JUMPDEST PUSH4 0x4E487B71 PUSH1 0xE0 SHL DUP2 MSTORE PUSH1 0x21 DUP10 MSTORE PUSH1 0x24 SWAP1 REVERT JUMPDEST DUP3 MSTORE PUSH1 0x2 PUSH1 0x20 MSTORE DUP1 DUP3 KECCAK256 PUSH2 0x672 JUMP JUMPDEST DUP4 CALLVALUE PUSH2 0x5C1 JUMPI DUP1 PUSH1 0x3 NOT CALLDATASIZE ADD SLT PUSH2 0x5C1 JUMPI PUSH2 0x728 PUSH2 0xBC4 JUMP JUMPDEST DUP1 SLOAD PUSH1 0x1 PUSH1 0x1 PUSH1 0xA0 SHL SUB NOT DUP2 AND DUP3 SSTORE DUP2 SWAP1 PUSH1 0x1 PUSH1 0x1 PUSH1 0xA0 SHL SUB AND PUSH32 0x8BE0079C531659141344CD1FD0A4F28419497F9722A3DAAFE3B4186F6B6457E0 DUP3 DUP1 LOG3 DUP1 RETURN JUMPDEST DUP4 DUP4 CALLVALUE PUSH2 0xE6 JUMPI DUP1 PUSH1 0x3 NOT CALLDATASIZE ADD SLT PUSH2 0xE6 JUMPI PUSH2 0x783 PUSH2 0xB62 JUMP JUMPDEST SWAP2 PUSH1 0x24 CALLDATALOAD SWAP4 DUP4 PUSH1 0x0 EQ PUSH2 0x8AE JUMPI DUP5 DUP3 MSTORE PUSH1 0x1 PUSH1 0x20 MSTORE DUP3 DUP3 KECCAK256 JUMPDEST DUP1 SLOAD PUSH1 0x1 PUSH1 0x1 PUSH1 0xA0 SHL SUB SWAP2 SWAP1 DUP3 AND CALLER EQ DUP1 ISZERO PUSH2 0x8A1 JUMPI JUMPDEST PUSH2 0x7BC SWAP1 PUSH2 0xD20 JUMP JUMPDEST PUSH1 0x3 DUP2 ADD DUP1 SLOAD PUSH1 0xFF DUP2 AND DUP6 DUP2 LT ISZERO PUSH2 0x88E JUMPI SWAP2 PUSH1 0x2 PUSH2 0x82E SWAP7 SWAP5 SWAP3 PUSH2 0x7E6 PUSH1 0x1 PUSH1 0x20 SWAP9 SWAP7 EQ PUSH2 0xCE4 JUMP JUMPDEST PUSH1 0xFF NOT AND OR SWAP1 SSTORE DUP6 PUSH1 0x2 DUP4 DUP6 SLOAD AND SWAP4 PUSH1 0x1 DUP5 ADD SLOAD AND SWAP3 ADD SLOAD SWAP4 DUP9 MLOAD SWAP7 DUP8 SWAP6 DUP7 SWAP5 DUP6 SWAP4 PUSH4 0xA9059CBB PUSH1 0xE0 SHL DUP6 MSTORE DUP5 ADD PUSH1 0x20 SWAP1 SWAP4 SWAP3 SWAP2 SWAP4 PUSH1 0x40 DUP2 ADD SWAP5 PUSH1 0x1 DUP1 PUSH1 0xA0 SHL SUB AND DUP2 MSTORE ADD MSTORE JUMP JUMPDEST SUB SWAP3 GAS CALL SWAP2 DUP3 ISZERO PUSH2 0x883 JUMPI PUSH2 0x379 SWAP4 SWAP3 PUSH2 0x84D SWAP3 SWAP1 PUSH2 0x865 JUMPI POP PUSH2 0xCA0 JUMP JUMPDEST MLOAD SWAP2 ISZERO ISZERO DUP3 MSTORE PUSH1 0x20 DUP3 ADD SWAP3 SWAP1 SWAP3 MSTORE SWAP1 DUP2 SWAP1 PUSH1 0x40 DUP3 ADD SWAP1 JUMP JUMPDEST PUSH2 0x87D SWAP2 POP PUSH1 0x20 RETURNDATASIZE DUP2 GT PUSH2 0x404 JUMPI PUSH2 0x3F6 DUP2 DUP4 PUSH2 0xC4E JUMP JUMPDEST DUP7 PUSH2 0x30F JUMP JUMPDEST DUP4 MLOAD SWAP1 RETURNDATASIZE SWAP1 DUP3 RETURNDATACOPY RETURNDATASIZE SWAP1 REVERT JUMPDEST PUSH4 0x4E487B71 PUSH1 0xE0 SHL DUP8 MSTORE PUSH1 0x21 DUP7 MSTORE PUSH1 0x24 DUP8 REVERT JUMPDEST POP PUSH1 0x3 SLOAD DUP3 AND CALLER EQ PUSH2 0x7B3 JUMP JUMPDEST DUP5 DUP3 MSTORE PUSH1 0x2 PUSH1 0x20 MSTORE DUP3 DUP3 KECCAK256 PUSH2 0x79C JUMP JUMPDEST DUP4 DUP4 CALLVALUE PUSH2 0xE6 JUMPI DUP1 PUSH1 0x3 NOT CALLDATASIZE ADD SLT PUSH2 0xE6 JUMPI PUSH2 0x8D8 PUSH2 0xB62 JUMP JUMPDEST SWAP2 PUSH1 0x24 CALLDATALOAD SWAP4 DUP4 PUSH1 0x0 EQ PUSH2 0xA17 JUMPI DUP5 DUP3 MSTORE PUSH1 0x1 PUSH1 0x20 MSTORE DUP3 DUP3 KECCAK256 JUMPDEST PUSH1 0x1 DUP2 ADD SLOAD PUSH1 0x1 PUSH1 0x1 PUSH1 0xA0 SHL SUB SWAP2 SWAP1 DUP3 AND CALLER EQ DUP1 ISZERO PUSH2 0xA0A JUMPI JUMPDEST PUSH2 0x914 SWAP1 PUSH2 0xD20 JUMP JUMPDEST PUSH1 0x3 DUP2 ADD DUP1 SLOAD PUSH1 0xFF DUP2 AND DUP6 DUP2 LT ISZERO PUSH2 0x88E JUMPI PUSH1 0x1 PUSH2 0x932 SWAP2 EQ PUSH2 0xCE4 JUMP JUMPDEST DUP5 DUP4 ADD SLOAD PUSH1 0x5 DUP5 ADD SLOAD DUP2 ADD DUP1 SWAP2 GT PUSH2 0x9F7 JUMPI TIMESTAMP LT DUP1 ISZERO SWAP1 PUSH2 0x9EA JUMPI JUMPDEST ISZERO PUSH2 0x9A7 JUMPI PUSH1 0xFF NOT AND PUSH1 0x3 OR SWAP1 SSTORE DUP3 SLOAD DUP2 SLOAD PUSH1 0x2 SWAP1 SWAP3 ADD SLOAD DUP7 MLOAD PUSH4 0xA9059CBB PUSH1 0xE0 SHL DUP2 MSTORE PUSH1 0x1 PUSH1 0x1 PUSH1 0xA0 SHL SUB SWAP4 DUP6 AND SWAP4 SWAP1 SWAP4 AND SWAP5 DUP4 ADD SWAP5 DUP6 MSTORE PUSH1 0x20 DUP6 DUP2 ADD SWAP2 SWAP1 SWAP2 MSTORE SWAP2 SWAP4 SWAP2 SWAP3 DUP5 SWAP3 SWAP2 AND SWAP1 DUP3 SWAP1 DUP7 SWAP1 DUP3 SWAP1 PUSH1 0x40 ADD PUSH2 0x82E JUMP JUMPDEST DUP7 MLOAD PUSH3 0x461BCD PUSH1 0xE5 SHL DUP2 MSTORE PUSH1 0x20 DUP2 DUP8 ADD MSTORE PUSH1 0x17 PUSH1 0x24 DUP3 ADD MSTORE PUSH32 0x4C6F636B20706572696F64206E6F742065787069726564000000000000000000 PUSH1 0x44 DUP3 ADD MSTORE PUSH1 0x64 SWAP1 REVERT JUMPDEST POP DUP4 PUSH1 0x3 SLOAD AND CALLER EQ PUSH2 0x94E JUMP JUMPDEST PUSH4 0x4E487B71 PUSH1 0xE0 SHL DUP8 MSTORE PUSH1 0x11 DUP7 MSTORE PUSH1 0x24 DUP8 REVERT JUMPDEST POP PUSH1 0x3 SLOAD DUP3 AND CALLER EQ PUSH2 0x90B JUMP JUMPDEST DUP5 DUP3 MSTORE PUSH1 0x2 PUSH1 0x20 MSTORE DUP3 DUP3 KECCAK256 PUSH2 0x8F1 JUMP JUMPDEST SWAP2 SWAP1 POP CALLVALUE PUSH2 0x112 JUMPI PUSH1 0x60 CALLDATASIZE PUSH1 0x3 NOT ADD SLT PUSH2 0x112 JUMPI PUSH2 0xA43 PUSH2 0xB62 JUMP JUMPDEST SWAP2 DUP2 PUSH1 0x24 CALLDATALOAD SWAP5 DUP5 PUSH1 0x0 EQ PUSH2 0xADB JUMPI DUP6 DUP2 MSTORE PUSH1 0x1 PUSH1 0x20 MSTORE KECCAK256 SWAP1 JUMPDEST PUSH1 0x3 SLOAD PUSH1 0x1 PUSH1 0x1 PUSH1 0xA0 SHL SUB AND CALLER SUB PUSH2 0xA8C JUMPI POP PUSH1 0x44 CALLDATALOAD PUSH1 0x5 SWAP2 SWAP1 SWAP2 ADD SSTORE MLOAD SWAP1 ISZERO ISZERO DUP2 MSTORE PUSH1 0x20 DUP2 ADD SWAP2 SWAP1 SWAP2 MSTORE PUSH1 0x40 SWAP1 RETURN JUMPDEST PUSH1 0x84 SWAP1 PUSH1 0x20 DUP5 MLOAD SWAP2 PUSH3 0x461BCD PUSH1 0xE5 SHL DUP4 MSTORE DUP3 ADD MSTORE PUSH1 0x23 PUSH1 0x24 DUP3 ADD MSTORE PUSH32 0x4F6E6C7920617262697465722063616E20757064617465206C6F636B20706572 PUSH1 0x44 DUP3 ADD MSTORE PUSH3 0x1A5BD9 PUSH1 0xEA SHL PUSH1 0x64 DUP3 ADD MSTORE REVERT JUMPDEST DUP6 DUP2 MSTORE PUSH1 0x2 PUSH1 0x20 MSTORE KECCAK256 SWAP1 PUSH2 0xA5C JUMP JUMPDEST DUP4 CALLVALUE PUSH2 0x5C1 JUMPI PUSH1 0x20 CALLDATASIZE PUSH1 0x3 NOT ADD SLT PUSH2 0x5C1 JUMPI PUSH2 0xB04 PUSH2 0xB47 JUMP JUMPDEST PUSH2 0xB0C PUSH2 0xBC4 JUMP JUMPDEST PUSH1 0x1 DUP1 PUSH1 0xA0 SHL SUB AND PUSH1 0x1 PUSH1 0x1 PUSH1 0x60 SHL SUB PUSH1 0xA0 SHL PUSH1 0x3 SLOAD AND OR PUSH1 0x3 SSTORE DUP1 RETURN JUMPDEST DUP5 SWAP1 CALLVALUE PUSH2 0xE6 JUMPI DUP2 PUSH1 0x3 NOT CALLDATASIZE ADD SLT PUSH2 0xE6 JUMPI DUP1 PUSH3 0x93A80 PUSH1 0x20 SWAP3 MSTORE RETURN JUMPDEST PUSH1 0x4 CALLDATALOAD SWAP1 PUSH1 0x1 PUSH1 0x1 PUSH1 0xA0 SHL SUB DUP3 AND DUP3 SUB PUSH2 0xB5D JUMPI JUMP JUMPDEST PUSH1 0x0 DUP1 REVERT JUMPDEST PUSH1 0x4 CALLDATALOAD SWAP1 DUP2 ISZERO ISZERO DUP3 SUB PUSH2 0xB5D JUMPI JUMP JUMPDEST PUSH1 0x1 PUSH1 0x1 PUSH1 0xA0 SHL SUB SWAP2 DUP3 AND DUP2 MSTORE SWAP2 AND PUSH1 0x20 DUP3 ADD MSTORE PUSH1 0x40 DUP2 ADD SWAP2 SWAP1 SWAP2 MSTORE PUSH1 0xC0 DUP2 ADD SWAP5 SWAP4 SWAP3 PUSH1 0x4 DUP4 LT ISZERO PUSH2 0xBAE JUMPI PUSH1 0xA0 SWAP3 PUSH1 0x60 DUP4 ADD MSTORE PUSH1 0x80 DUP3 ADD MSTORE ADD MSTORE JUMP JUMPDEST PUSH4 0x4E487B71 PUSH1 0xE0 SHL PUSH1 0x0 MSTORE PUSH1 0x21 PUSH1 0x4 MSTORE PUSH1 0x24 PUSH1 0x0 REVERT JUMPDEST PUSH1 0x0 SLOAD PUSH1 0x1 PUSH1 0x1 PUSH1 0xA0 SHL SUB AND CALLER SUB PUSH2 0xBD8 JUMPI JUMP JUMPDEST PUSH1 0x64 PUSH1 0x40 MLOAD PUSH3 0x461BCD PUSH1 0xE5 SHL DUP2 MSTORE PUSH1 0x20 PUSH1 0x4 DUP3 ADD MSTORE PUSH1 0x20 PUSH1 0x24 DUP3 ADD MSTORE PUSH32 0x4F776E61626C653A2063616C6C6572206973206E6F7420746865206F776E6572 PUSH1 0x44 DUP3 ADD MSTORE REVERT JUMPDEST PUSH1 0xC0 DUP2 ADD SWAP1 DUP2 LT PUSH8 0xFFFFFFFFFFFFFFFF DUP3 GT OR PUSH2 0xC38 JUMPI PUSH1 0x40 MSTORE JUMP JUMPDEST PUSH4 0x4E487B71 PUSH1 0xE0 SHL PUSH1 0x0 MSTORE PUSH1 0x41 PUSH1 0x4 MSTORE PUSH1 0x24 PUSH1 0x0 REVERT JUMPDEST SWAP1 PUSH1 0x1F DUP1 NOT SWAP2 ADD AND DUP2 ADD SWAP1 DUP2 LT PUSH8 0xFFFFFFFFFFFFFFFF DUP3 GT OR PUSH2 0xC38 JUMPI PUSH1 0x40 MSTORE JUMP JUMPDEST SWAP1 PUSH1 0x4 DUP2 LT ISZERO PUSH2 0xBAE JUMPI PUSH1 0xFF DUP1 NOT DUP4 SLOAD AND SWAP2 AND OR SWAP1 SSTORE JUMP JUMPDEST SWAP1 DUP2 PUSH1 0x20 SWAP2 SUB SLT PUSH2 0xB5D JUMPI MLOAD DUP1 ISZERO ISZERO DUP2 SUB PUSH2 0xB5D JUMPI SWAP1 JUMP JUMPDEST ISZERO PUSH2 0xCA7 JUMPI JUMP JUMPDEST PUSH1 0x40 MLOAD PUSH3 0x461BCD PUSH1 0xE5 SHL DUP2 MSTORE PUSH1 0x20 PUSH1 0x4 DUP3 ADD MSTORE PUSH1 0x15 PUSH1 0x24 DUP3 ADD MSTORE PUSH21 0x151BDAD95B881D1C985B9CD9995C8819985A5B1959 PUSH1 0x5A SHL PUSH1 0x44 DUP3 ADD MSTORE PUSH1 0x64 SWAP1 REVERT JUMPDEST ISZERO PUSH2 0xCEB JUMPI JUMP JUMPDEST PUSH1 0x40 MLOAD PUSH3 0x461BCD PUSH1 0xE5 SHL DUP2 MSTORE PUSH1 0x20 PUSH1 0x4 DUP3 ADD MSTORE PUSH1 0xD PUSH1 0x24 DUP3 ADD MSTORE PUSH13 0x496E76616C6964207374617465 PUSH1 0x98 SHL PUSH1 0x44 DUP3 ADD MSTORE PUSH1 0x64 SWAP1 REVERT JUMPDEST ISZERO PUSH2 0xD27 JUMPI JUMP JUMPDEST PUSH1 0x40 MLOAD PUSH3 0x461BCD PUSH1 0xE5 SHL DUP2 MSTORE PUSH1 0x20 PUSH1 0x4 DUP3 ADD MSTORE PUSH1 0xC PUSH1 0x24 DUP3 ADD MSTORE PUSH12 0x155B985D5D1A1BDC9A5E9959 PUSH1 0xA2 SHL PUSH1 0x44 DUP3 ADD MSTORE PUSH1 0x64 SWAP1 REVERT INVALID LOG2 PUSH5 0x6970667358 0x22 SLT KECCAK256 EQ 0xB2 PUSH20 0xCD06A5DDE4F32D4423567D4193D9D567504D3792 SWAP4 PUSH5 0x803898DF6 MUL BASEFEE PUSH5 0x736F6C6343 STOP ADDMOD SLT STOP CALLER "
				},
				"gasEstimates": {
					"creation": {
						"codeDepositCost": "694600",
						"executionCost": "infinite",
						"totalCost": "infinite"
					},
					"external": {
						"LOCK_PERIOD()": "171",
						"arbiter()": "2582",
						"auctionTransactions(uint256)": "13326",
						"createTransaction(bool,uint256,address,uint256)": "infinite",
						"getTransactionDetails(bool,uint256)": "13606",
						"normalTransactions(uint256)": "13304",
						"owner()": "2455",
						"refund(bool,uint256)": "infinite",
						"releaseFunds(bool,uint256)": "infinite",
						"renounceOwnership()": "28188",
						"setArbiter(address)": "26661",
						"token()": "2565",
						"transferOwnership(address)": "28433",
						"updateLockPeriod(bool,uint256,uint256)": "24688"
					},
					"internal": {
						"lockFunds(bool,uint256)": "infinite"
					}
				},
				"methodIdentifiers": {
					"LOCK_PERIOD()": "1820cabb",
					"arbiter()": "fe25e00a",
					"auctionTransactions(uint256)": "ce48dd4f",
					"createTransaction(bool,uint256,address,uint256)": "d37d3437",
					"getTransactionDetails(bool,uint256)": "899d7879",
					"normalTransactions(uint256)": "aa7f3bae",
					"owner()": "8da5cb5b",
					"refund(bool,uint256)": "3ceafc8c",
					"releaseFunds(bool,uint256)": "5ba48359",
					"renounceOwnership()": "715018a6",
					"setArbiter(address)": "1c9c088a",
					"token()": "fc0c546a",
					"transferOwnership(address)": "f2fde38b",
					"updateLockPeriod(bool,uint256,uint256)": "35ba2e87"
				}
			},
			"storageLayout": {
				"storage": [
					{
						"astId": 7,
						"contract": "contracts/TurtleEscrow.sol:TurtleEscrow",
						"label": "_owner",
						"offset": 0,
						"slot": "0",
						"type": "t_address"
					},
					{
						"astId": 998,
						"contract": "contracts/TurtleEscrow.sol:TurtleEscrow",
						"label": "auctionTransactions",
						"offset": 0,
						"slot": "1",
						"type": "t_mapping(t_uint256,t_struct(Transaction)993_storage)"
					},
					{
						"astId": 1003,
						"contract": "contracts/TurtleEscrow.sol:TurtleEscrow",
						"label": "normalTransactions",
						"offset": 0,
						"slot": "2",
						"type": "t_mapping(t_uint256,t_struct(Transaction)993_storage)"
					},
					{
						"astId": 1005,
						"contract": "contracts/TurtleEscrow.sol:TurtleEscrow",
						"label": "arbiter",
						"offset": 0,
						"slot": "3",
						"type": "t_address"
					},
					{
						"astId": 1011,
						"contract": "contracts/TurtleEscrow.sol:TurtleEscrow",
						"label": "token",
						"offset": 0,
						"slot": "4",
						"type": "t_contract(IERC20)190"
					}
				],
				"types": {
					"t_address": {
						"encoding": "inplace",
						"label": "address",
						"numberOfBytes": "20"
					},
					"t_contract(IERC20)190": {
						"encoding": "inplace",
						"label": "contract IERC20",
						"numberOfBytes": "20"
					},
					"t_enum(State)979": {
						"encoding": "inplace",
						"label": "enum TurtleEscrow.State",
						"numberOfBytes": "1"
					},
					"t_mapping(t_uint256,t_struct(Transaction)993_storage)": {
						"encoding": "mapping",
						"key": "t_uint256",
						"label": "mapping(uint256 => struct TurtleEscrow.Transaction)",
						"numberOfBytes": "32",
						"value": "t_struct(Transaction)993_storage"
					},
					"t_struct(Transaction)993_storage": {
						"encoding": "inplace",
						"label": "struct TurtleEscrow.Transaction",
						"members": [
							{
								"astId": 981,
								"contract": "contracts/TurtleEscrow.sol:TurtleEscrow",
								"label": "buyer",
								"offset": 0,
								"slot": "0",
								"type": "t_address"
							},
							{
								"astId": 983,
								"contract": "contracts/TurtleEscrow.sol:TurtleEscrow",
								"label": "seller",
								"offset": 0,
								"slot": "1",
								"type": "t_address"
							},
							{
								"astId": 985,
								"contract": "contracts/TurtleEscrow.sol:TurtleEscrow",
								"label": "amount",
								"offset": 0,
								"slot": "2",
								"type": "t_uint256"
							},
							{
								"astId": 988,
								"contract": "contracts/TurtleEscrow.sol:TurtleEscrow",
								"label": "state",
								"offset": 0,
								"slot": "3",
								"type": "t_enum(State)979"
							},
							{
								"astId": 990,
								"contract": "contracts/TurtleEscrow.sol:TurtleEscrow",
								"label": "createdAt",
								"offset": 0,
								"slot": "4",
								"type": "t_uint256"
							},
							{
								"astId": 992,
								"contract": "contracts/TurtleEscrow.sol:TurtleEscrow",
								"label": "lockPeriod",
								"offset": 0,
								"slot": "5",
								"type": "t_uint256"
							}
						],
						"numberOfBytes": "192"
					},
					"t_uint256": {
						"encoding": "inplace",
						"label": "uint256",
						"numberOfBytes": "32"
					}
				}
			},
			"userdoc": {
				"kind": "user",
				"methods": {
					"createTransaction(bool,uint256,address,uint256)": {
						"notice": "CEI 패턴 적용(Checks-Effects-Interactions) - Checks: 입력 값 검증 먼저 수행 - Effects: 거래 정보 상태에 저장 - Interactions: 토큰 전송"
					},
					"refund(bool,uint256)": {
						"notice": "CEI 패턴 적용(Checks-Effects-Interactions) - Checks: 권한, 상태, 잠금 기간 확인 수행 - Effects: 거래 상태 업데이트 - Interactions: 토큰 전송"
					},
					"releaseFunds(bool,uint256)": {
						"notice": "CEI 패턴 적용(Checks-Effects-Interactions) - Checks: 권한 및 상태 확인 수행 - Effects: 거래 상태 업데이트 - Interactions: 토큰 전송"
					}
				},
				"notice": "이 컨트랙트는 거북이 거래 에스크로 서비스를 제공합니다.",
				"version": 1
			}
		}
	}
}