{
	"contracts/TurtleEscrow.sol": {
		"TurtleEscrow": {
			"abi": [
				{
					"inputs": [
						{
							"internalType": "address",
							"name": "_token",
							"type": "address"
						}
					],
					"stateMutability": "nonpayable",
					"type": "constructor"
				},
				{
					"anonymous": false,
					"inputs": [
						{
							"indexed": true,
							"internalType": "address",
							"name": "previousOwner",
							"type": "address"
						},
						{
							"indexed": true,
							"internalType": "address",
							"name": "newOwner",
							"type": "address"
						}
					],
					"name": "OwnershipTransferred",
					"type": "event"
				},
				{
					"inputs": [],
					"name": "LOCK_PERIOD",
					"outputs": [
						{
							"internalType": "uint256",
							"name": "",
							"type": "uint256"
						}
					],
					"stateMutability": "view",
					"type": "function"
				},
				{
					"inputs": [],
					"name": "arbiter",
					"outputs": [
						{
							"internalType": "address",
							"name": "",
							"type": "address"
						}
					],
					"stateMutability": "view",
					"type": "function"
				},
				{
					"inputs": [
						{
							"internalType": "uint256",
							"name": "_transactionId",
							"type": "uint256"
						},
						{
							"internalType": "address",
							"name": "_seller",
							"type": "address"
						},
						{
							"internalType": "uint256",
							"name": "_amount",
							"type": "uint256"
						},
						{
							"internalType": "string",
							"name": "_turtleId",
							"type": "string"
						},
						{
							"internalType": "string",
							"name": "_buyerId",
							"type": "string"
						},
						{
							"internalType": "string",
							"name": "_sellerId",
							"type": "string"
						}
					],
					"name": "createTransaction",
					"outputs": [
						{
							"internalType": "uint256",
							"name": "",
							"type": "uint256"
						}
					],
					"stateMutability": "nonpayable",
					"type": "function"
				},
				{
					"inputs": [
						{
							"internalType": "uint256",
							"name": "_transactionId",
							"type": "uint256"
						}
					],
					"name": "getTransactionDetails",
					"outputs": [
						{
							"internalType": "address",
							"name": "",
							"type": "address"
						},
						{
							"internalType": "address",
							"name": "",
							"type": "address"
						},
						{
							"internalType": "uint256",
							"name": "",
							"type": "uint256"
						},
						{
							"internalType": "enum TurtleEscrow.State",
							"name": "",
							"type": "uint8"
						},
						{
							"internalType": "uint256",
							"name": "",
							"type": "uint256"
						},
						{
							"internalType": "uint256",
							"name": "",
							"type": "uint256"
						}
					],
					"stateMutability": "view",
					"type": "function"
				},
				{
					"inputs": [],
					"name": "owner",
					"outputs": [
						{
							"internalType": "address",
							"name": "",
							"type": "address"
						}
					],
					"stateMutability": "view",
					"type": "function"
				},
				{
					"inputs": [
						{
							"internalType": "uint256",
							"name": "_transactionId",
							"type": "uint256"
						}
					],
					"name": "refund",
					"outputs": [
						{
							"internalType": "uint256",
							"name": "",
							"type": "uint256"
						}
					],
					"stateMutability": "nonpayable",
					"type": "function"
				},
				{
					"inputs": [
						{
							"internalType": "uint256",
							"name": "_transactionId",
							"type": "uint256"
						}
					],
					"name": "releaseFunds",
					"outputs": [
						{
							"internalType": "uint256",
							"name": "",
							"type": "uint256"
						}
					],
					"stateMutability": "nonpayable",
					"type": "function"
				},
				{
					"inputs": [],
					"name": "renounceOwnership",
					"outputs": [],
					"stateMutability": "nonpayable",
					"type": "function"
				},
				{
					"inputs": [
						{
							"internalType": "address",
							"name": "_newArbiter",
							"type": "address"
						}
					],
					"name": "setArbiter",
					"outputs": [],
					"stateMutability": "nonpayable",
					"type": "function"
				},
				{
					"inputs": [
						{
							"internalType": "address",
							"name": "_turtleDocumentationAddress",
							"type": "address"
						}
					],
					"name": "setTurtleDocumentationAddress",
					"outputs": [],
					"stateMutability": "nonpayable",
					"type": "function"
				},
				{
					"inputs": [],
					"name": "token",
					"outputs": [
						{
							"internalType": "contract IERC20",
							"name": "",
							"type": "address"
						}
					],
					"stateMutability": "view",
					"type": "function"
				},
				{
					"inputs": [
						{
							"internalType": "uint256",
							"name": "",
							"type": "uint256"
						}
					],
					"name": "transactions",
					"outputs": [
						{
							"internalType": "string",
							"name": "turtleId",
							"type": "string"
						},
						{
							"internalType": "string",
							"name": "buyerId",
							"type": "string"
						},
						{
							"internalType": "string",
							"name": "sellerId",
							"type": "string"
						},
						{
							"internalType": "address",
							"name": "buyer",
							"type": "address"
						},
						{
							"internalType": "address",
							"name": "seller",
							"type": "address"
						},
						{
							"internalType": "uint256",
							"name": "amount",
							"type": "uint256"
						},
						{
							"internalType": "enum TurtleEscrow.State",
							"name": "state",
							"type": "uint8"
						},
						{
							"internalType": "uint256",
							"name": "createdAt",
							"type": "uint256"
						},
						{
							"internalType": "uint256",
							"name": "lockPeriod",
							"type": "uint256"
						}
					],
					"stateMutability": "view",
					"type": "function"
				},
				{
					"inputs": [
						{
							"internalType": "address",
							"name": "newOwner",
							"type": "address"
						}
					],
					"name": "transferOwnership",
					"outputs": [],
					"stateMutability": "nonpayable",
					"type": "function"
				},
				{
					"inputs": [],
					"name": "turtleDocumentation",
					"outputs": [
						{
							"internalType": "contract ITurtleDocumentation",
							"name": "",
							"type": "address"
						}
					],
					"stateMutability": "view",
					"type": "function"
				},
				{
					"inputs": [
						{
							"internalType": "uint256",
							"name": "_transactionId",
							"type": "uint256"
						},
						{
							"internalType": "uint256",
							"name": "_newLockPeriod",
							"type": "uint256"
						}
					],
					"name": "updateLockPeriod",
					"outputs": [
						{
							"internalType": "uint256",
							"name": "",
							"type": "uint256"
						}
					],
					"stateMutability": "nonpayable",
					"type": "function"
				}
			],
			"devdoc": {
				"author": "서규범",
				"kind": "dev",
				"methods": {
					"constructor": {
						"details": "생성자: 중재자 주소와 사용할 ERC20 토큰 주소 설정",
						"params": {
							"_token": "사용할 ERC20 토큰 주소"
						}
					},
					"createTransaction(uint256,address,uint256,string,string,string)": {
						"details": "새로운 거래 생성",
						"params": {
							"_amount": "거래 금액",
							"_seller": "판매자 주소"
						},
						"returns": {
							"_0": "거래 ID"
						}
					},
					"getTransactionDetails(uint256)": {
						"details": "거래 세부 정보 조회",
						"params": {
							"_transactionId": "거래 ID"
						},
						"returns": {
							"_0": "구매자 주소, 판매자 주소, 거래 금액, 거래 상태, 거래 생성 시간, 잠금 기간, 거북이 ID"
						}
					},
					"owner()": {
						"details": "Returns the address of the current owner."
					},
					"refund(uint256)": {
						"details": "환불 (구매자에게 반환)",
						"params": {
							"_transactionId": "거래 ID"
						},
						"returns": {
							"_0": "경매 여부, 거래 ID"
						}
					},
					"releaseFunds(uint256)": {
						"details": "자금 해제 (판매자에게 전송)",
						"params": {
							"_transactionId": "거래 ID"
						},
						"returns": {
							"_0": "경매 여부, 거래 ID"
						}
					},
					"renounceOwnership()": {
						"details": "Leaves the contract without owner. It will not be possible to call `onlyOwner` functions. Can only be called by the current owner. NOTE: Renouncing ownership will leave the contract without an owner, thereby disabling any functionality that is only available to the owner."
					},
					"setArbiter(address)": {
						"details": "중재자 주소 변경",
						"params": {
							"_newArbiter": "새로운 중재자 주소"
						}
					},
					"setTurtleDocumentationAddress(address)": {
						"details": "TurtleDocumentation 컨트랙트 주소 설정",
						"params": {
							"_turtleDocumentationAddress": "TurtleDocumentation 컨트랙트 주소"
						}
					},
					"transferOwnership(address)": {
						"details": "Transfers ownership of the contract to a new account (`newOwner`). Can only be called by the current owner."
					},
					"updateLockPeriod(uint256,uint256)": {
						"details": "잠금 기간 업데이트",
						"params": {
							"_newLockPeriod": "새로운 잠금 기간",
							"_transactionId": "거래 ID"
						},
						"returns": {
							"_0": "경매 여부, 거래 ID"
						}
					}
				},
				"title": "TurtleEscrow",
				"version": 1
			},
			"evm": {
				"assembly": "    /* \"contracts/TurtleEscrow.sol\":584:8929  contract TurtleEscrow is Ownable {... */\n  0x80\n  jumpi(tag_7, callvalue)\n  0x1f\n  bytecodeSize\n  codesize\n  dup2\n  swap1\n  sub\n  swap2\n  dup3\n  add\n  not(0x1f)\n  and\n  dup4\n  add\n  swap2\n  sub(shl(0x40, 0x01), 0x01)\n  dup4\n  gt\n  dup5\n  dup5\n  lt\n  or\n  tag_3\n  jumpi\n  dup1\n  dup5\n  swap3\n  0x20\n  swap5\n  0x40\n  mstore\n  dup4\n  codecopy\n  dup2\n  add\n  sub\n  slt\n  tag_7\n  jumpi\n  mload\n  sub(shl(0xa0, 0x01), 0x01)\n  swap1\n  dup2\n  dup2\n  and\n  swap1\n  dup2\n  swap1\n  sub\n  tag_7\n  jumpi\n  sload(0x00)\n  swap2\n  0x01\n  dup1\n  0xa0\n  shl\n  sub\n  not\n    /* \"@openzeppelin/contracts/utils/Context.sol\":734:744  msg.sender */\n  swap3\n  caller\n    /* \"contracts/TurtleEscrow.sol\":584:8929  contract TurtleEscrow is Ownable {... */\n  dup5\n  dup3\n  and\n  or\n  0x00\n  sstore\n  mload(0x40)\n    /* \"@openzeppelin/contracts/utils/Context.sol\":734:744  msg.sender */\n  swap2\n  caller\n    /* \"contracts/TurtleEscrow.sol\":584:8929  contract TurtleEscrow is Ownable {... */\n  swap2\n  and\n    /* \"@openzeppelin/contracts/access/Ownable.sol\":2566:2606  OwnershipTransferred(oldOwner, newOwner) */\n  0x8be0079c531659141344cd1fd0a4f28419497f9722a3daafe3b4186f6b6457e0\n  0x00\n  dup1\n  log3\n    /* \"contracts/TurtleEscrow.sol\":2708:2728  _token != address(0) */\n  dup2\n  iszero\n    /* \"contracts/TurtleEscrow.sol\":584:8929  contract TurtleEscrow is Ownable {... */\n  tag_9\n  jumpi\n  pop\n  dup2\n    /* \"contracts/TurtleEscrow.sol\":2759:2781  token = IERC20(_token) */\n  0x03\n    /* \"contracts/TurtleEscrow.sol\":584:8929  contract TurtleEscrow is Ownable {... */\n  sload\n  and\n  or\n    /* \"contracts/TurtleEscrow.sol\":2759:2781  token = IERC20(_token) */\n  0x03\n    /* \"contracts/TurtleEscrow.sol\":584:8929  contract TurtleEscrow is Ownable {... */\n  sstore\n    /* \"@openzeppelin/contracts/utils/Context.sol\":734:744  msg.sender */\n  caller\n    /* \"contracts/TurtleEscrow.sol\":584:8929  contract TurtleEscrow is Ownable {... */\n  swap1\n    /* \"contracts/TurtleEscrow.sol\":2792:2812  arbiter = msg.sender */\n  0x02\n    /* \"contracts/TurtleEscrow.sol\":584:8929  contract TurtleEscrow is Ownable {... */\n  sload\n  and\n  or\n    /* \"contracts/TurtleEscrow.sol\":2792:2812  arbiter = msg.sender */\n  0x02\n    /* \"contracts/TurtleEscrow.sol\":584:8929  contract TurtleEscrow is Ownable {... */\n  sstore\n  mload(0x40)\n  dataSize(sub_0)\n  swap1\n  dup2\n  dataOffset(sub_0)\n  dup3\n  codecopy\n  return\ntag_9:\n  shl(0xe5, 0x461bcd)\n  dup2\n  mstore\n  0x20\n  0x04\n  dup3\n  add\n  mstore\n  0x0f\n  0x24\n  dup3\n  add\n  mstore\n  shl(0x88, 0x496e76616c69642061646472657373)\n  0x44\n  dup3\n  add\n  mstore\n  0x64\n  swap1\n  revert\ntag_7:\n  0x00\n  dup1\n  revert\ntag_3:\n  mstore(0x00, shl(0xe0, 0x4e487b71))\n  mstore(0x04, 0x41)\n  revert(0x00, 0x24)\nstop\n\nsub_0: assembly {\n        /* \"contracts/TurtleEscrow.sol\":584:8929  contract TurtleEscrow is Ownable {... */\n      0x80\n      dup1\n      0x40\n      mstore\n      jumpi(tag_16, iszero(lt(calldatasize, 0x04)))\n      0x00\n      dup1\n      revert\n    tag_16:\n      shr(0xe0, calldataload(0x00))\n      swap1\n      dup2\n      0x0fa683d3\n      eq\n      tag_18\n      jumpi\n      pop\n      dup1\n      0x1820cabb\n      eq\n      tag_20\n      jumpi\n      dup1\n      0x1c9c088a\n      eq\n      tag_22\n      jumpi\n      dup1\n      0x278ecde1\n      eq\n      tag_24\n      jumpi\n      dup1\n      0x3d792f92\n      eq\n      tag_26\n      jumpi\n      dup1\n      0x4d68282f\n      eq\n      tag_28\n      jumpi\n      dup1\n      0x5996eda9\n      eq\n      tag_30\n      jumpi\n      dup1\n      0x715018a6\n      eq\n      tag_32\n      jumpi\n      dup1\n      0x8da5cb5b\n      eq\n      tag_34\n      jumpi\n      dup1\n      0x9ace38c2\n      eq\n      tag_36\n      jumpi\n      dup1\n      0xd73a84e9\n      eq\n      tag_38\n      jumpi\n      dup1\n      0xddb28071\n      eq\n      tag_40\n      jumpi\n      dup1\n      0xf2fde38b\n      eq\n      tag_42\n      jumpi\n      dup1\n      0xfc0c546a\n      eq\n      tag_44\n      jumpi\n      0xfe25e00a\n      eq\n      tag_46\n      jumpi\n      0x00\n      dup1\n      revert\n    tag_46:\n      jumpi(tag_50, callvalue)\n      jumpi(tag_50, slt(add(not(0x03), calldatasize), 0x00))\n        /* \"contracts/TurtleEscrow.sol\":1879:1901  address public arbiter */\n      0x02\n        /* \"contracts/TurtleEscrow.sol\":584:8929  contract TurtleEscrow is Ownable {... */\n      sload\n      mload(0x40)\n      sub(shl(0xa0, 0x01), 0x01)\n      swap1\n      swap2\n      and\n      dup2\n      mstore\n      0x20\n      swap1\n      return\n    tag_50:\n      0x00\n      dup1\n      revert\n    tag_44:\n      jumpi(tag_50, callvalue)\n      jumpi(tag_50, slt(add(not(0x03), calldatasize), 0x00))\n      sload(0x03)\n      mload(0x40)\n      sub(shl(0xa0, 0x01), 0x01)\n      swap1\n      swap2\n      and\n      dup2\n      mstore\n      0x20\n      swap1\n      return\n    tag_42:\n      jumpi(tag_50, callvalue)\n      jumpi(tag_50, slt(add(not(0x03), calldatasize), 0x20))\n      tag_60\n      tag_2\n      jump\t// in\n    tag_60:\n        /* \"@openzeppelin/contracts/access/Ownable.sol\":1063:1125  modifier onlyOwner() {... */\n      tag_61\n      tag_9\n      jump\t// in\n    tag_61:\n      sub(shl(0xa0, 0x01), 0x01)\n        /* \"contracts/TurtleEscrow.sol\":584:8929  contract TurtleEscrow is Ownable {... */\n      swap1\n      dup2\n      and\n      swap1\n        /* \"@openzeppelin/contracts/access/Ownable.sol\":2162:2184  newOwner != address(0) */\n      dup2\n      iszero\n        /* \"contracts/TurtleEscrow.sol\":584:8929  contract TurtleEscrow is Ownable {... */\n      tag_62\n      jumpi\n      sload(0x00)\n      dup3\n      shl(0xa0, 0xffffffffffffffffffffffff)\n      dup3\n      and\n      or\n      0x00\n      sstore\n      and\n        /* \"@openzeppelin/contracts/access/Ownable.sol\":2566:2606  OwnershipTransferred(oldOwner, newOwner) */\n      0x8be0079c531659141344cd1fd0a4f28419497f9722a3daafe3b4186f6b6457e0\n        /* \"contracts/TurtleEscrow.sol\":584:8929  contract TurtleEscrow is Ownable {... */\n      0x00\n        /* \"@openzeppelin/contracts/access/Ownable.sol\":2566:2606  OwnershipTransferred(oldOwner, newOwner) */\n      dup1\n      log3\n        /* \"contracts/TurtleEscrow.sol\":584:8929  contract TurtleEscrow is Ownable {... */\n      stop\n    tag_62:\n      mload(0x40)\n      shl(0xe5, 0x461bcd)\n      dup2\n      mstore\n      0x20\n      0x04\n      dup3\n      add\n      mstore\n      0x26\n      0x24\n      dup3\n      add\n      mstore\n      0x4f776e61626c653a206e6577206f776e657220697320746865207a65726f2061\n      0x44\n      dup3\n      add\n      mstore\n      shl(0xd0, 0x646472657373)\n      0x64\n      dup3\n      add\n      mstore\n      0x84\n      swap1\n      revert\n    tag_40:\n      jumpi(tag_50, callvalue)\n      jumpi(tag_50, slt(add(not(0x03), calldatasize), 0x00))\n      sload(0x04)\n      mload(0x40)\n      sub(shl(0xa0, 0x01), 0x01)\n      swap1\n      swap2\n      and\n      dup2\n      mstore\n      0x20\n      swap1\n      return\n    tag_38:\n      jumpi(tag_50, callvalue)\n      jumpi(tag_50, slt(add(not(0x03), calldatasize), 0x40))\n      calldataload(0x04)\n      0x00\n      dup2\n      dup2\n      mstore\n      mstore(0x20, 0x01)\n      0x40\n      swap1\n      keccak256\n        /* \"contracts/TurtleEscrow.sol\":8785:8792  arbiter */\n      0x02\n        /* \"contracts/TurtleEscrow.sol\":584:8929  contract TurtleEscrow is Ownable {... */\n      sload\n      swap1\n      swap2\n      swap1\n      sub(shl(0xa0, 0x01), 0x01)\n      and\n        /* \"contracts/TurtleEscrow.sol\":8771:8781  msg.sender */\n      caller\n        /* \"contracts/TurtleEscrow.sol\":8771:8792  msg.sender == arbiter */\n      sub\n        /* \"contracts/TurtleEscrow.sol\":584:8929  contract TurtleEscrow is Ownable {... */\n      tag_72\n      jumpi\n      0x20\n      swap2\n        /* \"contracts/TurtleEscrow.sol\":8843:8865  transaction.lockPeriod */\n      0x08\n        /* \"contracts/TurtleEscrow.sol\":584:8929  contract TurtleEscrow is Ownable {... */\n      calldataload(0x24)\n        /* \"contracts/TurtleEscrow.sol\":8843:8865  transaction.lockPeriod */\n      swap2\n      add\n        /* \"contracts/TurtleEscrow.sol\":584:8929  contract TurtleEscrow is Ownable {... */\n      sstore\n      mload(0x40)\n      swap1\n      dup2\n      mstore\n      return\n    tag_72:\n      mload(0x40)\n      shl(0xe5, 0x461bcd)\n      dup2\n      mstore\n      0x20\n      0x04\n      dup3\n      add\n      mstore\n      0x23\n      0x24\n      dup3\n      add\n      mstore\n      0x4f6e6c7920617262697465722063616e20757064617465206c6f636b20706572\n      0x44\n      dup3\n      add\n      mstore\n      shl(0xea, 0x1a5bd9)\n      0x64\n      dup3\n      add\n      mstore\n      0x84\n      swap1\n      revert\n    tag_36:\n      jumpi(tag_50, callvalue)\n      jumpi(tag_50, slt(add(not(0x03), calldatasize), 0x20))\n      mstore(0x00, calldataload(0x04))\n      mstore(0x20, 0x01)\n      tag_78\n      keccak256(0x00, 0x40)\n        /* \"contracts/TurtleEscrow.sol\":1795:1846  mapping(uint256 => Transaction) public transactions */\n      tag_79\n      dup2\n      tag_7\n      jump\t// in\n    tag_79:\n      swap1\n      tag_80\n        /* \"contracts/TurtleEscrow.sol\":584:8929  contract TurtleEscrow is Ownable {... */\n      0x01\n        /* \"contracts/TurtleEscrow.sol\":1795:1846  mapping(uint256 => Transaction) public transactions */\n      dup3\n      add\n      tag_7\n      jump\t// in\n    tag_80:\n      tag_81\n      0x02\n      dup4\n      add\n      tag_7\n      jump\t// in\n    tag_81:\n        /* \"contracts/TurtleEscrow.sol\":584:8929  contract TurtleEscrow is Ownable {... */\n      swap2\n      tag_82\n      0x01\n      dup1\n      0xa0\n      shl\n      sub\n        /* \"contracts/TurtleEscrow.sol\":1795:1846  mapping(uint256 => Transaction) public transactions */\n      swap4\n      dup5\n        /* \"contracts/TurtleEscrow.sol\":584:8929  contract TurtleEscrow is Ownable {... */\n      0x03\n        /* \"contracts/TurtleEscrow.sol\":1795:1846  mapping(uint256 => Transaction) public transactions */\n      dup5\n      add\n        /* \"contracts/TurtleEscrow.sol\":584:8929  contract TurtleEscrow is Ownable {... */\n      sload\n      and\n        /* \"contracts/TurtleEscrow.sol\":1795:1846  mapping(uint256 => Transaction) public transactions */\n      swap5\n        /* \"contracts/TurtleEscrow.sol\":584:8929  contract TurtleEscrow is Ownable {... */\n      0x04\n        /* \"contracts/TurtleEscrow.sol\":1795:1846  mapping(uint256 => Transaction) public transactions */\n      dup5\n      add\n        /* \"contracts/TurtleEscrow.sol\":584:8929  contract TurtleEscrow is Ownable {... */\n      sload\n      and\n        /* \"contracts/TurtleEscrow.sol\":1795:1846  mapping(uint256 => Transaction) public transactions */\n      0x05\n      dup5\n      add\n        /* \"contracts/TurtleEscrow.sol\":584:8929  contract TurtleEscrow is Ownable {... */\n      sload\n        /* \"contracts/TurtleEscrow.sol\":1795:1846  mapping(uint256 => Transaction) public transactions */\n      swap1\n        /* \"contracts/TurtleEscrow.sol\":584:8929  contract TurtleEscrow is Ownable {... */\n      tag_83\n      0xff\n        /* \"contracts/TurtleEscrow.sol\":1795:1846  mapping(uint256 => Transaction) public transactions */\n      0x06\n      dup8\n      add\n        /* \"contracts/TurtleEscrow.sol\":584:8929  contract TurtleEscrow is Ownable {... */\n      sload\n      and\n        /* \"contracts/TurtleEscrow.sol\":1795:1846  mapping(uint256 => Transaction) public transactions */\n      swap4\n        /* \"contracts/TurtleEscrow.sol\":584:8929  contract TurtleEscrow is Ownable {... */\n      tag_84\n        /* \"contracts/TurtleEscrow.sol\":1795:1846  mapping(uint256 => Transaction) public transactions */\n      0x08\n      0x07\n      dup10\n      add\n        /* \"contracts/TurtleEscrow.sol\":584:8929  contract TurtleEscrow is Ownable {... */\n      sload\n        /* \"contracts/TurtleEscrow.sol\":1795:1846  mapping(uint256 => Transaction) public transactions */\n      swap9\n      add\n        /* \"contracts/TurtleEscrow.sol\":584:8929  contract TurtleEscrow is Ownable {... */\n      sload\n      swap9\n      mload(0x40)\n      swap13\n      dup14\n      swap13\n      dup14\n      0x0120\n      swap1\n      dup2\n      dup2\n      mstore\n      add\n      swap1\n      tag_8\n      jump\t// in\n    tag_78:\n      dup13\n      dup2\n      sub\n      0x20\n      dup15\n      add\n      mstore\n      swap1\n      tag_8\n      jump\t// in\n    tag_84:\n      swap1\n      dup11\n      dup3\n      sub\n      0x40\n      dup13\n      add\n      mstore\n      tag_8\n      jump\t// in\n    tag_83:\n      swap7\n      0x60\n      dup10\n      add\n      mstore\n      0x80\n      dup9\n      add\n      mstore\n      0xa0\n      dup8\n      add\n      mstore\n      0xc0\n      dup7\n      add\n      swap1\n      tag_1\n      jump\t// in\n    tag_82:\n      0xe0\n      dup5\n      add\n      mstore\n      0x0100\n      dup4\n      add\n      mstore\n      sub\n      swap1\n      return\n    tag_34:\n      jumpi(tag_50, callvalue)\n      jumpi(tag_50, slt(add(not(0x03), calldatasize), 0x00))\n      sload(0x00)\n      mload(0x40)\n      sub(shl(0xa0, 0x01), 0x01)\n      swap1\n      swap2\n      and\n      dup2\n      mstore\n      0x20\n      swap1\n      return\n    tag_32:\n      jumpi(tag_50, callvalue)\n      jumpi(tag_50, slt(add(not(0x03), calldatasize), 0x00))\n        /* \"@openzeppelin/contracts/access/Ownable.sol\":1063:1125  modifier onlyOwner() {... */\n      tag_93\n      tag_9\n      jump\t// in\n    tag_93:\n        /* \"contracts/TurtleEscrow.sol\":584:8929  contract TurtleEscrow is Ownable {... */\n      0x00\n      dup1\n      sload\n      not(sub(shl(0xa0, 0x01), 0x01))\n      dup2\n      and\n      dup3\n      sstore\n      sub(shl(0xa0, 0x01), 0x01)\n      and\n        /* \"@openzeppelin/contracts/access/Ownable.sol\":2566:2606  OwnershipTransferred(oldOwner, newOwner) */\n      0x8be0079c531659141344cd1fd0a4f28419497f9722a3daafe3b4186f6b6457e0\n        /* \"contracts/TurtleEscrow.sol\":584:8929  contract TurtleEscrow is Ownable {... */\n      dup3\n      dup1\n        /* \"@openzeppelin/contracts/access/Ownable.sol\":2566:2606  OwnershipTransferred(oldOwner, newOwner) */\n      log3\n        /* \"contracts/TurtleEscrow.sol\":584:8929  contract TurtleEscrow is Ownable {... */\n      stop\n    tag_30:\n      jumpi(tag_50, callvalue)\n      jumpi(tag_50, slt(add(not(0x03), calldatasize), 0x20))\n      tag_98\n      tag_2\n      jump\t// in\n    tag_98:\n        /* \"@openzeppelin/contracts/access/Ownable.sol\":1063:1125  modifier onlyOwner() {... */\n      tag_99\n      tag_9\n      jump\t// in\n    tag_99:\n      sub(shl(0xa0, 0x01), 0x01)\n        /* \"contracts/TurtleEscrow.sol\":584:8929  contract TurtleEscrow is Ownable {... */\n      and\n        /* \"contracts/TurtleEscrow.sol\":3104:3145  _turtleDocumentationAddress != address(0) */\n      dup1\n      iszero\n        /* \"contracts/TurtleEscrow.sol\":584:8929  contract TurtleEscrow is Ownable {... */\n      tag_100\n      jumpi\n      and(sload(0x04), shl(0xa0, 0xffffffffffffffffffffffff))\n      or\n      0x04\n      sstore\n      0x00\n      dup1\n      return\n    tag_100:\n      mload(0x40)\n      shl(0xe5, 0x461bcd)\n      dup2\n      mstore\n      0x20\n      0x04\n      dup3\n      add\n      mstore\n      0x0f\n      0x24\n      dup3\n      add\n      mstore\n      shl(0x88, 0x496e76616c69642061646472657373)\n      0x44\n      dup3\n      add\n      mstore\n      0x64\n      swap1\n      revert\n    tag_28:\n      jumpi(tag_50, callvalue)\n      0x20\n      not(0x03)\n      dup2\n      dup2\n      calldatasize\n      add\n      slt\n      tag_50\n      jumpi\n      calldataload(0x04)\n      swap1\n      dup2\n      0x00\n      mstore\n      0x01\n      dup4\n      mstore\n      keccak256(0x00, 0x40)\n      0x01\n      dup1\n      0xa0\n      shl\n      sub\n        /* \"contracts/TurtleEscrow.sol\":5822:5839  transaction.buyer */\n      dup1\n        /* \"contracts/TurtleEscrow.sol\":584:8929  contract TurtleEscrow is Ownable {... */\n      0x03\n        /* \"contracts/TurtleEscrow.sol\":5822:5839  transaction.buyer */\n      dup4\n      add\n        /* \"contracts/TurtleEscrow.sol\":584:8929  contract TurtleEscrow is Ownable {... */\n      sload\n      and\n        /* \"contracts/TurtleEscrow.sol\":5808:5818  msg.sender */\n      caller\n        /* \"contracts/TurtleEscrow.sol\":5808:5839  msg.sender == transaction.buyer */\n      eq\n        /* \"contracts/TurtleEscrow.sol\":5808:5864  msg.sender == transaction.buyer || msg.sender == arbiter */\n      dup1\n      iszero\n      tag_106\n      jumpi\n        /* \"contracts/TurtleEscrow.sol\":584:8929  contract TurtleEscrow is Ownable {... */\n    tag_107:\n        /* \"contracts/TurtleEscrow.sol\":5800:5881  require(msg.sender == transaction.buyer || msg.sender == arbiter, \"Unauthorized\") */\n      tag_108\n      swap1\n      tag_13\n      jump\t// in\n    tag_108:\n        /* \"contracts/TurtleEscrow.sol\":5900:5917  transaction.state */\n      0x06\n      dup3\n      add\n        /* \"contracts/TurtleEscrow.sol\":584:8929  contract TurtleEscrow is Ownable {... */\n      dup1\n      sload\n      0xff\n      dup2\n      and\n      swap1\n      0x04\n      dup3\n      lt\n      iszero\n      tag_109\n      jumpi\n        /* \"contracts/TurtleEscrow.sol\":5892:5951  require(transaction.state == State.Locked, \"Invalid state\") */\n      tag_111\n        /* \"contracts/TurtleEscrow.sol\":584:8929  contract TurtleEscrow is Ownable {... */\n      0x01\n        /* \"contracts/TurtleEscrow.sol\":6004:6018  State.Released */\n      0x02\n        /* \"contracts/TurtleEscrow.sol\":5900:5933  transaction.state == State.Locked */\n      swap4\n      eq\n        /* \"contracts/TurtleEscrow.sol\":5892:5951  require(transaction.state == State.Locked, \"Invalid state\") */\n      tag_12\n      jump\t// in\n    tag_111:\n      not(0xff)\n        /* \"contracts/TurtleEscrow.sol\":584:8929  contract TurtleEscrow is Ownable {... */\n      and\n      or\n      swap1\n      sstore\n      sload(0x03)\n      0x04\n        /* \"contracts/TurtleEscrow.sol\":6086:6104  transaction.seller */\n      dup4\n      dup2\n      add\n        /* \"contracts/TurtleEscrow.sol\":584:8929  contract TurtleEscrow is Ownable {... */\n      sload\n        /* \"contracts/TurtleEscrow.sol\":6106:6124  transaction.amount */\n      0x05\n      dup6\n      add\n        /* \"contracts/TurtleEscrow.sol\":584:8929  contract TurtleEscrow is Ownable {... */\n      sload\n      mload(0x40)\n      shl(0xe0, 0xa9059cbb)\n        /* \"contracts/TurtleEscrow.sol\":6071:6125  token.transfer(transaction.seller, transaction.amount) */\n      dup2\n      mstore\n        /* \"contracts/TurtleEscrow.sol\":584:8929  contract TurtleEscrow is Ownable {... */\n      swap2\n      dup6\n      and\n      sub(shl(0xa0, 0x01), 0x01)\n      and\n        /* \"contracts/TurtleEscrow.sol\":6071:6125  token.transfer(transaction.seller, transaction.amount) */\n      swap3\n      dup3\n      add\n        /* \"contracts/TurtleEscrow.sol\":584:8929  contract TurtleEscrow is Ownable {... */\n      swap3\n      swap1\n      swap3\n      mstore\n      0x24\n      dup2\n      add\n      swap2\n      swap1\n      swap2\n      mstore\n      swap1\n      dup7\n      swap1\n      dup3\n      swap1\n      dup5\n      and\n      dup2\n      0x00\n      dup2\n      0x44\n      dup2\n      add\n        /* \"contracts/TurtleEscrow.sol\":6071:6125  token.transfer(transaction.seller, transaction.amount) */\n      sub\n      swap3\n      gas\n      call\n      dup1\n      iszero\n      tag_123\n      jumpi\n        /* \"contracts/TurtleEscrow.sol\":6136:6177  require(success, \"Token transfer failed\") */\n      tag_115\n        /* \"contracts/TurtleEscrow.sol\":6071:6125  token.transfer(transaction.seller, transaction.amount) */\n      swap2\n        /* \"contracts/TurtleEscrow.sol\":584:8929  contract TurtleEscrow is Ownable {... */\n      0x00\n        /* \"contracts/TurtleEscrow.sol\":6071:6125  token.transfer(transaction.seller, transaction.amount) */\n      swap2\n      tag_116\n      jumpi\n        /* \"contracts/TurtleEscrow.sol\":584:8929  contract TurtleEscrow is Ownable {... */\n    tag_117:\n        /* \"contracts/TurtleEscrow.sol\":6136:6177  require(success, \"Token transfer failed\") */\n      pop\n      tag_11\n      jump\t// in\n    tag_115:\n        /* \"contracts/TurtleEscrow.sol\":584:8929  contract TurtleEscrow is Ownable {... */\n      sload(0x04)\n      and\n        /* \"contracts/TurtleEscrow.sol\":6316:6418  turtleDocumentation.changeTurtleOwner(transaction.turtleId, transaction.sellerId, transaction.buyerId) */\n      swap2\n      dup3\n      extcodesize\n      iszero\n      tag_50\n      jumpi\n        /* \"contracts/TurtleEscrow.sol\":584:8929  contract TurtleEscrow is Ownable {... */\n      tag_120\n      swap3\n      0x01\n      0x00\n      dup1\n      swap5\n      mload(0x40)\n      swap7\n      dup8\n      swap6\n      dup7\n      swap5\n      dup6\n      swap4\n      shl(0xe0, 0xce5f0b7d)\n        /* \"contracts/TurtleEscrow.sol\":6316:6418  turtleDocumentation.changeTurtleOwner(transaction.turtleId, transaction.sellerId, transaction.buyerId) */\n      dup6\n      mstore\n        /* \"contracts/TurtleEscrow.sol\":584:8929  contract TurtleEscrow is Ownable {... */\n      0x60\n      0x04\n        /* \"contracts/TurtleEscrow.sol\":6316:6418  turtleDocumentation.changeTurtleOwner(transaction.turtleId, transaction.sellerId, transaction.buyerId) */\n      dup7\n      add\n        /* \"contracts/TurtleEscrow.sol\":584:8929  contract TurtleEscrow is Ownable {... */\n      mstore\n      tag_121\n      tag_122\n      0x64\n      dup8\n      add\n      dup4\n      tag_15\n      jump\t// in\n    tag_122:\n      dup5\n      dup8\n      dup3\n      sub\n      add\n      0x24\n      dup9\n      add\n      mstore\n        /* \"contracts/TurtleEscrow.sol\":6004:6018  State.Released */\n      0x02\n        /* \"contracts/TurtleEscrow.sol\":6376:6396  transaction.sellerId */\n      dup4\n      add\n        /* \"contracts/TurtleEscrow.sol\":584:8929  contract TurtleEscrow is Ownable {... */\n      tag_15\n      jump\t// in\n    tag_121:\n      swap3\n      dup6\n      dup5\n      sub\n      add\n      0x44\n      dup7\n      add\n      mstore\n        /* \"contracts/TurtleEscrow.sol\":6398:6417  transaction.buyerId */\n      add\n        /* \"contracts/TurtleEscrow.sol\":584:8929  contract TurtleEscrow is Ownable {... */\n      tag_15\n      jump\t// in\n    tag_120:\n        /* \"contracts/TurtleEscrow.sol\":6316:6418  turtleDocumentation.changeTurtleOwner(transaction.turtleId, transaction.sellerId, transaction.buyerId) */\n      sub\n      swap3\n      gas\n      call\n      dup1\n      iszero\n      tag_123\n      jumpi\n      tag_125\n      jumpi\n        /* \"contracts/TurtleEscrow.sol\":584:8929  contract TurtleEscrow is Ownable {... */\n    tag_126:\n      pop\n      mload(0x40)\n      swap1\n      dup2\n      mstore\n      return\n        /* \"contracts/TurtleEscrow.sol\":6316:6418  turtleDocumentation.changeTurtleOwner(transaction.turtleId, transaction.sellerId, transaction.buyerId) */\n    tag_125:\n        /* \"contracts/TurtleEscrow.sol\":584:8929  contract TurtleEscrow is Ownable {... */\n      0xffffffffffffffff\n      dup2\n      gt\n      tag_127\n      jumpi\n      0x40\n      mstore\n        /* \"contracts/TurtleEscrow.sol\":6316:6418  turtleDocumentation.changeTurtleOwner(transaction.turtleId, transaction.sellerId, transaction.buyerId) */\n      dup3\n      jump(tag_126)\n        /* \"contracts/TurtleEscrow.sol\":584:8929  contract TurtleEscrow is Ownable {... */\n    tag_127:\n      mstore(0x00, shl(0xe0, 0x4e487b71))\n      mstore(0x04, 0x41)\n      revert(0x00, 0x24)\n        /* \"contracts/TurtleEscrow.sol\":6316:6418  turtleDocumentation.changeTurtleOwner(transaction.turtleId, transaction.sellerId, transaction.buyerId) */\n    tag_123:\n        /* \"contracts/TurtleEscrow.sol\":584:8929  contract TurtleEscrow is Ownable {... */\n      mload(0x40)\n      returndatasize\n      0x00\n      dup3\n      returndatacopy\n      returndatasize\n      swap1\n      revert\n        /* \"contracts/TurtleEscrow.sol\":6071:6125  token.transfer(transaction.seller, transaction.amount) */\n    tag_116:\n      tag_129\n      swap2\n      pop\n      dup8\n      returndatasize\n      dup10\n      gt\n      tag_130\n      jumpi\n    tag_131:\n      tag_132\n      dup2\n      dup4\n      tag_4\n      jump\t// in\n    tag_132:\n      dup2\n      add\n      swap1\n      tag_10\n      jump\t// in\n    tag_129:\n      dup8\n      jump(tag_117)\n    tag_130:\n      pop\n      returndatasize\n      jump(tag_131)\n        /* \"contracts/TurtleEscrow.sol\":584:8929  contract TurtleEscrow is Ownable {... */\n    tag_109:\n      mstore(0x00, shl(0xe0, 0x4e487b71))\n      mstore(0x04, 0x21)\n      revert(0x00, 0x24)\n        /* \"contracts/TurtleEscrow.sol\":5808:5864  msg.sender == transaction.buyer || msg.sender == arbiter */\n    tag_106:\n      pop\n        /* \"contracts/TurtleEscrow.sol\":5857:5864  arbiter */\n      0x02\n        /* \"contracts/TurtleEscrow.sol\":584:8929  contract TurtleEscrow is Ownable {... */\n      sload\n      dup2\n      and\n        /* \"contracts/TurtleEscrow.sol\":5808:5818  msg.sender */\n      caller\n        /* \"contracts/TurtleEscrow.sol\":5843:5864  msg.sender == arbiter */\n      eq\n        /* \"contracts/TurtleEscrow.sol\":5808:5864  msg.sender == transaction.buyer || msg.sender == arbiter */\n      jump(tag_107)\n        /* \"contracts/TurtleEscrow.sol\":584:8929  contract TurtleEscrow is Ownable {... */\n    tag_26:\n      jumpi(tag_50, callvalue)\n      jumpi(tag_50, slt(add(not(0x03), calldatasize), 0xc0))\n      calldataload(0x24)\n      sub(shl(0xa0, 0x01), 0x01)\n      dup2\n      and\n      swap1\n      dup2\n      swap1\n      sub\n      tag_50\n      jumpi\n      calldataload(0x44)\n      calldataload(0x64)\n      0xffffffffffffffff\n      dup2\n      gt\n      tag_50\n      jumpi\n      tag_141\n      swap1\n      calldatasize\n      swap1\n      0x04\n      add\n      tag_5\n      jump\t// in\n    tag_141:\n      swap2\n      calldataload(0x84)\n      0xffffffffffffffff\n      dup2\n      gt\n      tag_50\n      jumpi\n      tag_144\n      swap1\n      calldatasize\n      swap1\n      0x04\n      add\n      tag_5\n      jump\t// in\n    tag_144:\n      swap1\n      calldataload(0xa4)\n      0xffffffffffffffff\n      dup2\n      gt\n      tag_50\n      jumpi\n      tag_147\n      swap1\n      calldatasize\n      swap1\n      0x04\n      add\n      tag_5\n      jump\t// in\n    tag_147:\n        /* \"contracts/TurtleEscrow.sol\":3877:3898  _seller != address(0) */\n      dup2\n      iszero\n        /* \"contracts/TurtleEscrow.sol\":584:8929  contract TurtleEscrow is Ownable {... */\n      tag_148\n      jumpi\n        /* \"contracts/TurtleEscrow.sol\":3944:3955  _amount > 0 */\n      dup4\n      iszero\n        /* \"contracts/TurtleEscrow.sol\":584:8929  contract TurtleEscrow is Ownable {... */\n      tag_150\n      jumpi\n        /* \"contracts/TurtleEscrow.sol\":4177:4181  1e18 */\n      0x0de0b6b3a7640000\n        /* \"contracts/TurtleEscrow.sol\":584:8929  contract TurtleEscrow is Ownable {... */\n      swap3\n      dup5\n      dup5\n      dup2\n      mul\n      div\n      dup5\n      sub\n      tag_152\n      jumpi\n      mload(0x40)\n      swap6\n      tag_154\n      dup8\n      tag_3\n      jump\t// in\n    tag_154:\n      dup7\n      mstore\n      0x20\n        /* \"contracts/TurtleEscrow.sol\":4223:4433  Transaction({turtleId: _turtleId, buyerId: _buyerId, sellerId: _sellerId, buyer: msg.sender, seller: _seller, amount: convertedAmount, state: State.Created, createdAt: block.timestamp, lockPeriod: LOCK_PERIOD}) */\n      dup7\n      add\n        /* \"contracts/TurtleEscrow.sol\":584:8929  contract TurtleEscrow is Ownable {... */\n      mstore\n      0x40\n        /* \"contracts/TurtleEscrow.sol\":4223:4433  Transaction({turtleId: _turtleId, buyerId: _buyerId, sellerId: _sellerId, buyer: msg.sender, seller: _seller, amount: convertedAmount, state: State.Created, createdAt: block.timestamp, lockPeriod: LOCK_PERIOD}) */\n      dup6\n      add\n        /* \"contracts/TurtleEscrow.sol\":584:8929  contract TurtleEscrow is Ownable {... */\n      mstore\n        /* \"contracts/TurtleEscrow.sol\":4304:4314  msg.sender */\n      caller\n        /* \"contracts/TurtleEscrow.sol\":584:8929  contract TurtleEscrow is Ownable {... */\n      0x60\n        /* \"contracts/TurtleEscrow.sol\":4223:4433  Transaction({turtleId: _turtleId, buyerId: _buyerId, sellerId: _sellerId, buyer: msg.sender, seller: _seller, amount: convertedAmount, state: State.Created, createdAt: block.timestamp, lockPeriod: LOCK_PERIOD}) */\n      dup6\n      add\n        /* \"contracts/TurtleEscrow.sol\":584:8929  contract TurtleEscrow is Ownable {... */\n      mstore\n      0x80\n        /* \"contracts/TurtleEscrow.sol\":4223:4433  Transaction({turtleId: _turtleId, buyerId: _buyerId, sellerId: _sellerId, buyer: msg.sender, seller: _seller, amount: convertedAmount, state: State.Created, createdAt: block.timestamp, lockPeriod: LOCK_PERIOD}) */\n      dup5\n      add\n        /* \"contracts/TurtleEscrow.sol\":584:8929  contract TurtleEscrow is Ownable {... */\n      mstore\n      dup1\n      dup3\n      mul\n      0xa0\n        /* \"contracts/TurtleEscrow.sol\":4223:4433  Transaction({turtleId: _turtleId, buyerId: _buyerId, sellerId: _sellerId, buyer: msg.sender, seller: _seller, amount: convertedAmount, state: State.Created, createdAt: block.timestamp, lockPeriod: LOCK_PERIOD}) */\n      dup5\n      add\n        /* \"contracts/TurtleEscrow.sol\":584:8929  contract TurtleEscrow is Ownable {... */\n      mstore\n      0x00\n      0xc0\n        /* \"contracts/TurtleEscrow.sol\":4223:4433  Transaction({turtleId: _turtleId, buyerId: _buyerId, sellerId: _sellerId, buyer: msg.sender, seller: _seller, amount: convertedAmount, state: State.Created, createdAt: block.timestamp, lockPeriod: LOCK_PERIOD}) */\n      dup5\n      add\n        /* \"contracts/TurtleEscrow.sol\":584:8929  contract TurtleEscrow is Ownable {... */\n      mstore\n        /* \"contracts/TurtleEscrow.sol\":4391:4406  block.timestamp */\n      timestamp\n        /* \"contracts/TurtleEscrow.sol\":584:8929  contract TurtleEscrow is Ownable {... */\n      0xe0\n        /* \"contracts/TurtleEscrow.sol\":4223:4433  Transaction({turtleId: _turtleId, buyerId: _buyerId, sellerId: _sellerId, buyer: msg.sender, seller: _seller, amount: convertedAmount, state: State.Created, createdAt: block.timestamp, lockPeriod: LOCK_PERIOD}) */\n      dup5\n      add\n        /* \"contracts/TurtleEscrow.sol\":584:8929  contract TurtleEscrow is Ownable {... */\n      mstore\n        /* \"contracts/TurtleEscrow.sol\":1966:1972  7 days */\n      0x093a80\n        /* \"contracts/TurtleEscrow.sol\":4223:4433  Transaction({turtleId: _turtleId, buyerId: _buyerId, sellerId: _sellerId, buyer: msg.sender, seller: _seller, amount: convertedAmount, state: State.Created, createdAt: block.timestamp, lockPeriod: LOCK_PERIOD}) */\n      0x0100\n      dup5\n      add\n        /* \"contracts/TurtleEscrow.sol\":584:8929  contract TurtleEscrow is Ownable {... */\n      mstore\n      mstore(0x00, calldataload(0x04))\n      mstore(0x20, 0x01)\n      keccak256(0x00, 0x40)\n      swap1\n      dup4\n      mload\n      dup1\n      mload\n      swap1\n      0xffffffffffffffff\n      dup3\n      gt\n      tag_127\n      jumpi\n      dup2\n      swap1\n      tag_157\n      dup6\n      sload\n      tag_6\n      jump\t// in\n    tag_157:\n      0x1f\n      dup2\n      gt\n      tag_158\n      jumpi\n    tag_159:\n      pop\n      0x20\n      swap1\n      0x1f\n      dup4\n      gt\n      0x01\n      eq\n      tag_160\n      jumpi\n      0x00\n      swap3\n      tag_162\n      jumpi\n    tag_163:\n      pop\n      pop\n      dup2\n      0x01\n      shl\n      swap2\n      not(0x00)\n      swap1\n      0x03\n      shl\n      shr\n      not\n      and\n      or\n      dup3\n      sstore\n    tag_164:\n      0x20\n        /* \"contracts/TurtleEscrow.sol\":4223:4433  Transaction({turtleId: _turtleId, buyerId: _buyerId, sellerId: _sellerId, buyer: msg.sender, seller: _seller, amount: convertedAmount, state: State.Created, createdAt: block.timestamp, lockPeriod: LOCK_PERIOD}) */\n      dup5\n      add\n        /* \"contracts/TurtleEscrow.sol\":584:8929  contract TurtleEscrow is Ownable {... */\n      mload\n      dup1\n      mload\n      swap1\n      0xffffffffffffffff\n      dup3\n      gt\n      tag_127\n      jumpi\n      dup2\n      swap1\n      tag_167\n      0x01\n      dup7\n      add\n      sload\n      tag_6\n      jump\t// in\n    tag_167:\n      0x1f\n      dup2\n      gt\n      tag_168\n      jumpi\n    tag_169:\n      pop\n      0x20\n      swap1\n      0x1f\n      dup4\n      gt\n      0x01\n      eq\n      tag_170\n      jumpi\n      0x00\n      swap3\n      tag_172\n      jumpi\n    tag_173:\n      pop\n      pop\n      dup2\n      0x01\n      shl\n      swap2\n      not(0x00)\n      swap1\n      0x03\n      shl\n      shr\n      not\n      and\n      or\n      0x01\n      dup4\n      add\n      sstore\n    tag_174:\n      0x40\n        /* \"contracts/TurtleEscrow.sol\":4223:4433  Transaction({turtleId: _turtleId, buyerId: _buyerId, sellerId: _sellerId, buyer: msg.sender, seller: _seller, amount: convertedAmount, state: State.Created, createdAt: block.timestamp, lockPeriod: LOCK_PERIOD}) */\n      dup5\n      add\n        /* \"contracts/TurtleEscrow.sol\":584:8929  contract TurtleEscrow is Ownable {... */\n      mload\n      dup1\n      mload\n      swap1\n      0xffffffffffffffff\n      dup3\n      gt\n      tag_127\n      jumpi\n      dup2\n      swap1\n      tag_177\n      0x02\n      dup7\n      add\n      sload\n      tag_6\n      jump\t// in\n    tag_177:\n      0x1f\n      dup2\n      gt\n      tag_178\n      jumpi\n    tag_179:\n      pop\n      0x20\n      swap1\n      0x1f\n      dup4\n      gt\n      0x01\n      eq\n      tag_180\n      jumpi\n      0x00\n      swap3\n      tag_182\n      jumpi\n    tag_183:\n      pop\n      pop\n      dup2\n      0x01\n      shl\n      swap2\n      not(0x00)\n      swap1\n      0x03\n      shl\n      shr\n      not\n      and\n      or\n      0x02\n      dup4\n      add\n      sstore\n    tag_184:\n      0x60\n        /* \"contracts/TurtleEscrow.sol\":4223:4433  Transaction({turtleId: _turtleId, buyerId: _buyerId, sellerId: _sellerId, buyer: msg.sender, seller: _seller, amount: convertedAmount, state: State.Created, createdAt: block.timestamp, lockPeriod: LOCK_PERIOD}) */\n      dup5\n      add\n        /* \"contracts/TurtleEscrow.sol\":584:8929  contract TurtleEscrow is Ownable {... */\n      mload\n      0x03\n      dup4\n      add\n      dup1\n      sload\n      not(sub(shl(0xa0, 0x01), 0x01))\n      swap1\n      dup2\n      and\n      sub(shl(0xa0, 0x01), 0x01)\n      swap4\n      dup5\n      and\n      or\n      swap1\n      swap2\n      sstore\n      0x80\n        /* \"contracts/TurtleEscrow.sol\":4223:4433  Transaction({turtleId: _turtleId, buyerId: _buyerId, sellerId: _sellerId, buyer: msg.sender, seller: _seller, amount: convertedAmount, state: State.Created, createdAt: block.timestamp, lockPeriod: LOCK_PERIOD}) */\n      dup7\n      add\n        /* \"contracts/TurtleEscrow.sol\":584:8929  contract TurtleEscrow is Ownable {... */\n      mload\n      0x04\n      dup1\n      dup7\n      add\n      dup1\n      sload\n      swap1\n      swap4\n      and\n      swap2\n      swap1\n      swap4\n      and\n      or\n      swap1\n      sstore\n      0xa0\n        /* \"contracts/TurtleEscrow.sol\":4223:4433  Transaction({turtleId: _turtleId, buyerId: _buyerId, sellerId: _sellerId, buyer: msg.sender, seller: _seller, amount: convertedAmount, state: State.Created, createdAt: block.timestamp, lockPeriod: LOCK_PERIOD}) */\n      dup6\n      add\n        /* \"contracts/TurtleEscrow.sol\":584:8929  contract TurtleEscrow is Ownable {... */\n      mload\n      0x05\n      dup5\n      add\n      sstore\n      0xc0\n        /* \"contracts/TurtleEscrow.sol\":4223:4433  Transaction({turtleId: _turtleId, buyerId: _buyerId, sellerId: _sellerId, buyer: msg.sender, seller: _seller, amount: convertedAmount, state: State.Created, createdAt: block.timestamp, lockPeriod: LOCK_PERIOD}) */\n      dup6\n      add\n        /* \"contracts/TurtleEscrow.sol\":584:8929  contract TurtleEscrow is Ownable {... */\n      mload\n      swap5\n      0x06\n      dup5\n      add\n      swap4\n      swap2\n      dup7\n      lt\n      iszero\n      tag_109\n      jumpi\n        /* \"contracts/TurtleEscrow.sol\":4223:4433  Transaction({turtleId: _turtleId, buyerId: _buyerId, sellerId: _sellerId, buyer: msg.sender, seller: _seller, amount: convertedAmount, state: State.Created, createdAt: block.timestamp, lockPeriod: LOCK_PERIOD}) */\n      0x0100\n        /* \"contracts/TurtleEscrow.sol\":584:8929  contract TurtleEscrow is Ownable {... */\n      0x08\n      swap2\n      0x20\n      swap6\n      not(0xff)\n      swap9\n      0xff\n      dup11\n      dup4\n      sload\n      and\n      swap2\n      and\n      or\n      swap1\n      sstore\n      0xe0\n        /* \"contracts/TurtleEscrow.sol\":4223:4433  Transaction({turtleId: _turtleId, buyerId: _buyerId, sellerId: _sellerId, buyer: msg.sender, seller: _seller, amount: convertedAmount, state: State.Created, createdAt: block.timestamp, lockPeriod: LOCK_PERIOD}) */\n      dup2\n      add\n        /* \"contracts/TurtleEscrow.sol\":584:8929  contract TurtleEscrow is Ownable {... */\n      mload\n      0x07\n      dup6\n      add\n      sstore\n        /* \"contracts/TurtleEscrow.sol\":4223:4433  Transaction({turtleId: _turtleId, buyerId: _buyerId, sellerId: _sellerId, buyer: msg.sender, seller: _seller, amount: convertedAmount, state: State.Created, createdAt: block.timestamp, lockPeriod: LOCK_PERIOD}) */\n      add\n        /* \"contracts/TurtleEscrow.sol\":584:8929  contract TurtleEscrow is Ownable {... */\n      mload\n      swap2\n      add\n      sstore\n      0x64\n      0x01\n      dup1\n      0xa0\n      shl\n      sub\n      sload(0x03)\n      and\n      swap4\n      0x00\n      mload(0x40)\n      swap6\n      dup7\n      swap5\n      dup6\n      swap4\n      shl(0xe0, 0x23b872dd)\n        /* \"contracts/TurtleEscrow.sol\":4479:4541  token.transferFrom(msg.sender, address(this), convertedAmount) */\n      dup6\n      mstore\n        /* \"contracts/TurtleEscrow.sol\":4304:4314  msg.sender */\n      caller\n        /* \"contracts/TurtleEscrow.sol\":584:8929  contract TurtleEscrow is Ownable {... */\n      0x04\n        /* \"contracts/TurtleEscrow.sol\":4479:4541  token.transferFrom(msg.sender, address(this), convertedAmount) */\n      dup7\n      add\n        /* \"contracts/TurtleEscrow.sol\":584:8929  contract TurtleEscrow is Ownable {... */\n      mstore\n        /* \"contracts/TurtleEscrow.sol\":4518:4522  this */\n      address\n        /* \"contracts/TurtleEscrow.sol\":584:8929  contract TurtleEscrow is Ownable {... */\n      0x24\n      dup7\n      add\n      mstore\n      mul\n      0x44\n      dup5\n      add\n      mstore\n        /* \"contracts/TurtleEscrow.sol\":4479:4541  token.transferFrom(msg.sender, address(this), convertedAmount) */\n      gas\n      call\n      dup1\n      iszero\n      tag_123\n      jumpi\n        /* \"contracts/TurtleEscrow.sol\":4471:4567  require(token.transferFrom(msg.sender, address(this), convertedAmount), \"Token transfer failed\") */\n      tag_189\n        /* \"contracts/TurtleEscrow.sol\":4479:4541  token.transferFrom(msg.sender, address(this), convertedAmount) */\n      swap2\n        /* \"contracts/TurtleEscrow.sol\":584:8929  contract TurtleEscrow is Ownable {... */\n      0x00\n        /* \"contracts/TurtleEscrow.sol\":4479:4541  token.transferFrom(msg.sender, address(this), convertedAmount) */\n      swap2\n      tag_190\n      jumpi\n        /* \"contracts/TurtleEscrow.sol\":4471:4567  require(token.transferFrom(msg.sender, address(this), convertedAmount), \"Token transfer failed\") */\n      pop\n      tag_11\n      jump\t// in\n    tag_189:\n        /* \"contracts/TurtleEscrow.sol\":584:8929  contract TurtleEscrow is Ownable {... */\n      calldataload(0x04)\n      0x00\n      swap1\n      dup2\n      mstore\n      mstore(0x20, 0x01)\n      0x40\n      swap1\n      keccak256\n      0x03\n        /* \"contracts/TurtleEscrow.sol\":5051:5068  transaction.buyer */\n      dup2\n      add\n        /* \"contracts/TurtleEscrow.sol\":584:8929  contract TurtleEscrow is Ownable {... */\n      sload\n      sub(shl(0xa0, 0x01), 0x01)\n      and\n        /* \"contracts/TurtleEscrow.sol\":4304:4314  msg.sender */\n      caller\n        /* \"contracts/TurtleEscrow.sol\":5037:5068  msg.sender == transaction.buyer */\n      sub\n        /* \"contracts/TurtleEscrow.sol\":584:8929  contract TurtleEscrow is Ownable {... */\n      tag_192\n      jumpi\n      0x06\n        /* \"contracts/TurtleEscrow.sol\":5117:5134  transaction.state */\n      add\n        /* \"contracts/TurtleEscrow.sol\":584:8929  contract TurtleEscrow is Ownable {... */\n      swap1\n      dup2\n      sload\n      swap1\n      0xff\n      dup3\n      and\n      swap2\n      0x04\n      dup4\n      lt\n      iszero\n      tag_109\n      jumpi\n        /* \"contracts/TurtleEscrow.sol\":5109:5169  require(transaction.state == State.Created, \"Invalid state\") */\n      tag_196\n        /* \"contracts/TurtleEscrow.sol\":584:8929  contract TurtleEscrow is Ownable {... */\n      0x01\n        /* \"contracts/TurtleEscrow.sol\":5117:5151  transaction.state == State.Created */\n      swap4\n      iszero\n        /* \"contracts/TurtleEscrow.sol\":5109:5169  require(transaction.state == State.Created, \"Invalid state\") */\n      tag_12\n      jump\t// in\n    tag_196:\n        /* \"contracts/TurtleEscrow.sol\":584:8929  contract TurtleEscrow is Ownable {... */\n      and\n      or\n      swap1\n      sstore\n      0x20\n      mload(0x40)\n      calldataload(0x04)\n      dup2\n      mstore\n      return\n    tag_192:\n      mload(0x40)\n      shl(0xe5, 0x461bcd)\n      dup2\n      mstore\n      0x20\n      0x04\n      dup3\n      add\n      mstore\n      0x19\n      0x24\n      dup3\n      add\n      mstore\n      0x4f6e6c792062757965722063616e206c6f636b2066756e647300000000000000\n      0x44\n      dup3\n      add\n      mstore\n      0x64\n      swap1\n      revert\n        /* \"contracts/TurtleEscrow.sol\":4479:4541  token.transferFrom(msg.sender, address(this), convertedAmount) */\n    tag_190:\n      tag_197\n      swap2\n      pop\n        /* \"contracts/TurtleEscrow.sol\":584:8929  contract TurtleEscrow is Ownable {... */\n      0x20\n        /* \"contracts/TurtleEscrow.sol\":4479:4541  token.transferFrom(msg.sender, address(this), convertedAmount) */\n      returndatasize\n        /* \"contracts/TurtleEscrow.sol\":584:8929  contract TurtleEscrow is Ownable {... */\n      0x20\n        /* \"contracts/TurtleEscrow.sol\":4479:4541  token.transferFrom(msg.sender, address(this), convertedAmount) */\n      gt\n      tag_130\n      jumpi\n      tag_132\n      dup2\n      dup4\n      tag_4\n      jump\t// in\n    tag_197:\n      dup4\n      jump(tag_117)\n        /* \"contracts/TurtleEscrow.sol\":584:8929  contract TurtleEscrow is Ownable {... */\n    tag_182:\n      add\n      mload\n      swap1\n      pop\n      dup7\n      dup1\n      jump(tag_183)\n    tag_180:\n      swap3\n      pop\n      0x02\n      dup6\n      add\n      0x00\n      mstore\n      keccak256(0x00, 0x20)\n      swap1\n      0x00\n      swap4\n    tag_201:\n      not(0x1f)\n      dup5\n      and\n      dup6\n      lt\n      tag_202\n      jumpi\n      0x01\n      swap5\n      pop\n      dup4\n      not(0x1f)\n      dup2\n      and\n      lt\n      tag_204\n      jumpi\n    tag_205:\n      pop\n      pop\n      pop\n      dup2\n      shl\n      add\n      0x02\n      dup4\n      add\n      sstore\n      jump(tag_184)\n    tag_204:\n      add\n      mload\n      not(0x00)\n      0xf8\n      dup5\n      0x03\n      shl\n      and\n      shr\n      not\n      and\n      swap1\n      sstore\n      dup7\n      dup1\n      dup1\n      jump(tag_205)\n    tag_202:\n      dup2\n      dup2\n      add\n      mload\n      dup4\n      sstore\n      0x20\n      swap5\n      dup6\n      add\n      swap5\n      0x01\n      swap1\n      swap4\n      add\n      swap3\n      swap1\n      swap2\n      add\n      swap1\n      jump(tag_201)\n    tag_178:\n      swap1\n      swap2\n      pop\n      0x02\n      dup6\n      add\n      0x00\n      mstore\n      keccak256(0x00, 0x20)\n      0x1f\n      dup5\n      add\n      0x05\n      shr\n      dup2\n      add\n      0x20\n      dup6\n      lt\n      tag_206\n      jumpi\n    tag_207:\n      swap1\n      dup5\n      swap4\n      swap3\n      swap2\n    tag_208:\n      0x1f\n      dup4\n      add\n      0x05\n      shr\n      dup3\n      add\n      dup2\n      lt\n      tag_209\n      jumpi\n      pop\n      pop\n      jump(tag_179)\n    tag_209:\n      0x00\n      dup2\n      sstore\n      dup6\n      swap5\n      pop\n      0x01\n      add\n      jump(tag_208)\n    tag_206:\n      pop\n      dup1\n      jump(tag_207)\n    tag_172:\n      add\n      mload\n      swap1\n      pop\n      dup7\n      dup1\n      jump(tag_173)\n    tag_170:\n      swap3\n      pop\n      0x01\n      dup6\n      add\n      0x00\n      mstore\n      keccak256(0x00, 0x20)\n      swap1\n      0x00\n      swap4\n    tag_211:\n      not(0x1f)\n      dup5\n      and\n      dup6\n      lt\n      tag_212\n      jumpi\n      0x01\n      swap5\n      pop\n      dup4\n      not(0x1f)\n      dup2\n      and\n      lt\n      tag_214\n      jumpi\n    tag_215:\n      pop\n      pop\n      pop\n      dup2\n      shl\n      add\n      0x01\n      dup4\n      add\n      sstore\n      jump(tag_174)\n    tag_214:\n      add\n      mload\n      not(0x00)\n      0xf8\n      dup5\n      0x03\n      shl\n      and\n      shr\n      not\n      and\n      swap1\n      sstore\n      dup7\n      dup1\n      dup1\n      jump(tag_215)\n    tag_212:\n      dup2\n      dup2\n      add\n      mload\n      dup4\n      sstore\n      0x20\n      swap5\n      dup6\n      add\n      swap5\n      0x01\n      swap1\n      swap4\n      add\n      swap3\n      swap1\n      swap2\n      add\n      swap1\n      jump(tag_211)\n    tag_168:\n      swap1\n      swap2\n      pop\n      0x01\n      dup6\n      add\n      0x00\n      mstore\n      keccak256(0x00, 0x20)\n      0x1f\n      dup5\n      add\n      0x05\n      shr\n      dup2\n      add\n      0x20\n      dup6\n      lt\n      tag_216\n      jumpi\n    tag_217:\n      swap1\n      dup5\n      swap4\n      swap3\n      swap2\n    tag_218:\n      0x1f\n      dup4\n      add\n      0x05\n      shr\n      dup3\n      add\n      dup2\n      lt\n      tag_219\n      jumpi\n      pop\n      pop\n      jump(tag_169)\n    tag_219:\n      0x00\n      dup2\n      sstore\n      dup6\n      swap5\n      pop\n      0x01\n      add\n      jump(tag_218)\n    tag_216:\n      pop\n      dup1\n      jump(tag_217)\n    tag_162:\n      add\n      mload\n      swap1\n      pop\n      dup7\n      dup1\n      jump(tag_163)\n    tag_160:\n      swap3\n      pop\n      dup5\n      0x00\n      mstore\n      keccak256(0x00, 0x20)\n      swap1\n      0x00\n      swap4\n    tag_221:\n      not(0x1f)\n      dup5\n      and\n      dup6\n      lt\n      tag_222\n      jumpi\n      0x01\n      swap5\n      pop\n      dup4\n      not(0x1f)\n      dup2\n      and\n      lt\n      tag_224\n      jumpi\n    tag_225:\n      pop\n      pop\n      pop\n      dup2\n      shl\n      add\n      dup3\n      sstore\n      jump(tag_164)\n    tag_224:\n      add\n      mload\n      not(0x00)\n      0xf8\n      dup5\n      0x03\n      shl\n      and\n      shr\n      not\n      and\n      swap1\n      sstore\n      dup7\n      dup1\n      dup1\n      jump(tag_225)\n    tag_222:\n      dup2\n      dup2\n      add\n      mload\n      dup4\n      sstore\n      0x20\n      swap5\n      dup6\n      add\n      swap5\n      0x01\n      swap1\n      swap4\n      add\n      swap3\n      swap1\n      swap2\n      add\n      swap1\n      jump(tag_221)\n    tag_158:\n      swap1\n      swap2\n      pop\n      dup5\n      0x00\n      mstore\n      keccak256(0x00, 0x20)\n      0x1f\n      dup5\n      add\n      0x05\n      shr\n      dup2\n      add\n      0x20\n      dup6\n      lt\n      tag_226\n      jumpi\n    tag_227:\n      swap1\n      dup5\n      swap4\n      swap3\n      swap2\n    tag_228:\n      0x1f\n      dup4\n      add\n      0x05\n      shr\n      dup3\n      add\n      dup2\n      lt\n      tag_229\n      jumpi\n      pop\n      pop\n      jump(tag_159)\n    tag_229:\n      0x00\n      dup2\n      sstore\n      dup6\n      swap5\n      pop\n      0x01\n      add\n      jump(tag_228)\n    tag_226:\n      pop\n      dup1\n      jump(tag_227)\n    tag_152:\n      mstore(0x00, shl(0xe0, 0x4e487b71))\n      mstore(0x04, 0x11)\n      revert(0x00, 0x24)\n    tag_150:\n      mload(0x40)\n      shl(0xe5, 0x461bcd)\n      dup2\n      mstore\n      0x20\n      0x04\n      dup3\n      add\n      mstore\n      0x2d\n      0x24\n      dup3\n      add\n      mstore\n      0x496e76616c696420616d6f756e742120416d6f756e74206d7573742062652067\n      0x44\n      dup3\n      add\n      mstore\n      shl(0x9c, 0x0726561746572207468616e203)\n      0x64\n      dup3\n      add\n      mstore\n      0x84\n      swap1\n      revert\n    tag_148:\n      mload(0x40)\n      shl(0xe5, 0x461bcd)\n      dup2\n      mstore\n      0x20\n      0x04\n      dup3\n      add\n      mstore\n      0x16\n      0x24\n      dup3\n      add\n      mstore\n      shl(0x50, 0x496e76616c69642073656c6c65722061646472657373)\n      0x44\n      dup3\n      add\n      mstore\n      0x64\n      swap1\n      revert\n    tag_24:\n      jumpi(tag_50, callvalue)\n      0x20\n      dup1\n      add(calldatasize, not(0x03))\n      slt\n      tag_50\n      jumpi\n      calldataload(0x04)\n      dup1\n      0x00\n      mstore\n      0x01\n      dup3\n      mstore\n      keccak256(0x00, 0x40)\n      0x01\n      dup1\n      0xa0\n      shl\n      sub\n        /* \"contracts/TurtleEscrow.sol\":7015:7033  transaction.seller */\n      dup1\n        /* \"contracts/TurtleEscrow.sol\":584:8929  contract TurtleEscrow is Ownable {... */\n      0x04\n        /* \"contracts/TurtleEscrow.sol\":7015:7033  transaction.seller */\n      dup4\n      add\n        /* \"contracts/TurtleEscrow.sol\":584:8929  contract TurtleEscrow is Ownable {... */\n      sload\n      and\n        /* \"contracts/TurtleEscrow.sol\":7001:7011  msg.sender */\n      caller\n        /* \"contracts/TurtleEscrow.sol\":7001:7033  msg.sender == transaction.seller */\n      eq\n        /* \"contracts/TurtleEscrow.sol\":7001:7058  msg.sender == transaction.seller || msg.sender == arbiter */\n      dup1\n      iszero\n      tag_235\n      jumpi\n        /* \"contracts/TurtleEscrow.sol\":584:8929  contract TurtleEscrow is Ownable {... */\n    tag_236:\n        /* \"contracts/TurtleEscrow.sol\":6993:7075  require(msg.sender == transaction.seller || msg.sender == arbiter, \"Unauthorized\") */\n      tag_237\n      swap1\n      tag_13\n      jump\t// in\n    tag_237:\n        /* \"contracts/TurtleEscrow.sol\":7094:7111  transaction.state */\n      0x06\n      dup3\n      add\n        /* \"contracts/TurtleEscrow.sol\":584:8929  contract TurtleEscrow is Ownable {... */\n      dup1\n      sload\n      0xff\n      dup2\n      and\n      0x04\n      dup2\n      lt\n      iszero\n      tag_109\n      jumpi\n      0x01\n        /* \"contracts/TurtleEscrow.sol\":7086:7145  require(transaction.state == State.Locked, \"Invalid state\") */\n      tag_240\n        /* \"contracts/TurtleEscrow.sol\":7094:7127  transaction.state == State.Locked */\n      swap2\n      eq\n        /* \"contracts/TurtleEscrow.sol\":7086:7145  require(transaction.state == State.Locked, \"Invalid state\") */\n      tag_12\n      jump\t// in\n    tag_240:\n        /* \"contracts/TurtleEscrow.sol\":7183:7204  transaction.createdAt */\n      0x07\n      dup5\n      add\n        /* \"contracts/TurtleEscrow.sol\":584:8929  contract TurtleEscrow is Ownable {... */\n      sload\n        /* \"contracts/TurtleEscrow.sol\":7207:7229  transaction.lockPeriod */\n      0x08\n      dup6\n      add\n        /* \"contracts/TurtleEscrow.sol\":584:8929  contract TurtleEscrow is Ownable {... */\n      sload\n      dup2\n      add\n      dup1\n      swap2\n      gt\n      tag_152\n      jumpi\n        /* \"contracts/TurtleEscrow.sol\":7164:7179  block.timestamp */\n      timestamp\n        /* \"contracts/TurtleEscrow.sol\":7164:7229  block.timestamp >= transaction.createdAt + transaction.lockPeriod */\n      lt\n      dup1\n      iszero\n        /* \"contracts/TurtleEscrow.sol\":7164:7254  block.timestamp >= transaction.createdAt + transaction.lockPeriod || msg.sender == arbiter */\n      swap1\n      tag_243\n      jumpi\n        /* \"contracts/TurtleEscrow.sol\":584:8929  contract TurtleEscrow is Ownable {... */\n    tag_244:\n      iszero\n      tag_245\n      jumpi\n      0x03\n      not(0xff)\n      swap2\n      swap1\n      swap2\n      and\n      dup2\n      or\n      swap1\n      swap2\n      sstore\n      dup1\n      sload\n        /* \"contracts/TurtleEscrow.sol\":7410:7427  transaction.buyer */\n      swap1\n      dup4\n      add\n        /* \"contracts/TurtleEscrow.sol\":584:8929  contract TurtleEscrow is Ownable {... */\n      sload\n        /* \"contracts/TurtleEscrow.sol\":7429:7447  transaction.amount */\n      0x05\n      swap1\n      swap4\n      add\n        /* \"contracts/TurtleEscrow.sol\":584:8929  contract TurtleEscrow is Ownable {... */\n      sload\n      mload(0x40)\n      shl(0xe0, 0xa9059cbb)\n        /* \"contracts/TurtleEscrow.sol\":7395:7448  token.transfer(transaction.buyer, transaction.amount) */\n      dup2\n      mstore\n        /* \"contracts/TurtleEscrow.sol\":584:8929  contract TurtleEscrow is Ownable {... */\n      swap4\n      dup4\n      and\n      sub(shl(0xa0, 0x01), 0x01)\n      and\n      0x04\n        /* \"contracts/TurtleEscrow.sol\":7395:7448  token.transfer(transaction.buyer, transaction.amount) */\n      dup6\n      add\n        /* \"contracts/TurtleEscrow.sol\":584:8929  contract TurtleEscrow is Ownable {... */\n      mstore\n      0x24\n      dup5\n      add\n      mstore\n      dup5\n      swap2\n      dup4\n      swap2\n      0x44\n      swap2\n      dup4\n      swap2\n      0x00\n      swap2\n      and\n        /* \"contracts/TurtleEscrow.sol\":7395:7448  token.transfer(transaction.buyer, transaction.amount) */\n      gas\n      call\n      dup1\n      iszero\n      tag_123\n      jumpi\n        /* \"contracts/TurtleEscrow.sol\":7387:7474  require(token.transfer(transaction.buyer, transaction.amount), \"Token transfer failed\") */\n      tag_250\n        /* \"contracts/TurtleEscrow.sol\":7395:7448  token.transfer(transaction.buyer, transaction.amount) */\n      swap2\n        /* \"contracts/TurtleEscrow.sol\":584:8929  contract TurtleEscrow is Ownable {... */\n      0x00\n        /* \"contracts/TurtleEscrow.sol\":7395:7448  token.transfer(transaction.buyer, transaction.amount) */\n      swap2\n      tag_251\n      jumpi\n        /* \"contracts/TurtleEscrow.sol\":7387:7474  require(token.transfer(transaction.buyer, transaction.amount), \"Token transfer failed\") */\n      pop\n      tag_11\n      jump\t// in\n    tag_250:\n        /* \"contracts/TurtleEscrow.sol\":584:8929  contract TurtleEscrow is Ownable {... */\n      mload(0x40)\n      swap1\n      dup2\n      mstore\n      return\n        /* \"contracts/TurtleEscrow.sol\":7395:7448  token.transfer(transaction.buyer, transaction.amount) */\n    tag_251:\n      tag_253\n      swap2\n      pop\n      dup5\n      returndatasize\n      dup7\n      gt\n      tag_130\n      jumpi\n      tag_132\n      dup2\n      dup4\n      tag_4\n      jump\t// in\n    tag_253:\n      dup5\n      jump(tag_117)\n        /* \"contracts/TurtleEscrow.sol\":584:8929  contract TurtleEscrow is Ownable {... */\n    tag_245:\n      mload(0x40)\n      shl(0xe5, 0x461bcd)\n      dup2\n      mstore\n      0x04\n      dup2\n      add\n      dup8\n      swap1\n      mstore\n      0x17\n      0x24\n      dup3\n      add\n      mstore\n      0x4c6f636b20706572696f64206e6f742065787069726564000000000000000000\n      0x44\n      dup3\n      add\n      mstore\n      0x64\n      swap1\n      revert\n        /* \"contracts/TurtleEscrow.sol\":7164:7254  block.timestamp >= transaction.createdAt + transaction.lockPeriod || msg.sender == arbiter */\n    tag_243:\n        /* \"contracts/TurtleEscrow.sol\":584:8929  contract TurtleEscrow is Ownable {... */\n      pop\n      dup3\n        /* \"contracts/TurtleEscrow.sol\":7247:7254  arbiter */\n      0x02\n        /* \"contracts/TurtleEscrow.sol\":584:8929  contract TurtleEscrow is Ownable {... */\n      sload\n      and\n        /* \"contracts/TurtleEscrow.sol\":7001:7011  msg.sender */\n      caller\n        /* \"contracts/TurtleEscrow.sol\":7233:7254  msg.sender == arbiter */\n      eq\n        /* \"contracts/TurtleEscrow.sol\":7164:7254  block.timestamp >= transaction.createdAt + transaction.lockPeriod || msg.sender == arbiter */\n      jump(tag_244)\n        /* \"contracts/TurtleEscrow.sol\":7001:7058  msg.sender == transaction.seller || msg.sender == arbiter */\n    tag_235:\n      pop\n        /* \"contracts/TurtleEscrow.sol\":7051:7058  arbiter */\n      0x02\n        /* \"contracts/TurtleEscrow.sol\":584:8929  contract TurtleEscrow is Ownable {... */\n      sload\n      dup2\n      and\n        /* \"contracts/TurtleEscrow.sol\":7001:7011  msg.sender */\n      caller\n        /* \"contracts/TurtleEscrow.sol\":7037:7058  msg.sender == arbiter */\n      eq\n        /* \"contracts/TurtleEscrow.sol\":7001:7058  msg.sender == transaction.seller || msg.sender == arbiter */\n      jump(tag_236)\n        /* \"contracts/TurtleEscrow.sol\":584:8929  contract TurtleEscrow is Ownable {... */\n    tag_22:\n      jumpi(tag_50, callvalue)\n      jumpi(tag_50, slt(add(not(0x03), calldatasize), 0x20))\n      tag_261\n      tag_2\n      jump\t// in\n    tag_261:\n        /* \"@openzeppelin/contracts/access/Ownable.sol\":1063:1125  modifier onlyOwner() {... */\n      tag_262\n      tag_9\n      jump\t// in\n    tag_262:\n        /* \"contracts/TurtleEscrow.sol\":8346:8367  arbiter = _newArbiter */\n      0x02\n        /* \"contracts/TurtleEscrow.sol\":584:8929  contract TurtleEscrow is Ownable {... */\n      dup1\n      sload\n      not(sub(shl(0xa0, 0x01), 0x01))\n      and\n      sub(shl(0xa0, 0x01), 0x01)\n      swap3\n      swap1\n      swap3\n      and\n      swap2\n      swap1\n      swap2\n      or\n      swap1\n      sstore\n      stop\n    tag_20:\n      jumpi(tag_50, callvalue)\n      jumpi(tag_50, slt(add(not(0x03), calldatasize), 0x00))\n      0x20\n      mload(0x40)\n        /* \"contracts/TurtleEscrow.sol\":1966:1972  7 days */\n      0x093a80\n        /* \"contracts/TurtleEscrow.sol\":584:8929  contract TurtleEscrow is Ownable {... */\n      dup2\n      mstore\n      return\n    tag_18:\n      jumpi(tag_50, callvalue)\n      jumpi(tag_50, slt(add(not(0x03), calldatasize), 0x20))\n      mstore(0x00, calldataload(0x04))\n      mstore(0x20, 0x01)\n      keccak256(0x00, 0x40)\n      tag_271\n      dup3\n      tag_3\n      jump\t// in\n    tag_271:\n      tag_272\n      dup2\n      tag_7\n      jump\t// in\n    tag_272:\n      dup3\n      mstore\n      tag_273\n      0x01\n      dup3\n      add\n      tag_7\n      jump\t// in\n    tag_273:\n      0x20\n      dup4\n      add\n      mstore\n      tag_274\n      0x02\n      dup3\n      add\n      tag_7\n      jump\t// in\n    tag_274:\n      0x40\n      dup4\n      add\n      mstore\n      0x01\n      dup1\n      0xa0\n      shl\n      sub\n      swap2\n      dup3\n      0x03\n      dup4\n      add\n      sload\n      and\n      swap2\n      0x60\n      dup3\n      add\n      swap3\n      dup4\n      mstore\n      dup4\n      0x04\n      dup3\n      add\n      sload\n      and\n      swap3\n      0x80\n      dup4\n      add\n      swap4\n      dup5\n      mstore\n      0x05\n      dup3\n      add\n      sload\n      0xa0\n      dup5\n      add\n      swap1\n      dup2\n      mstore\n      0xff\n      0x06\n      dup5\n      add\n      sload\n      and\n      swap1\n      0x04\n      dup3\n      lt\n      iszero\n      tag_109\n      jumpi\n      dup7\n      0xc0\n      swap8\n      tag_277\n      swap5\n      dup8\n      dup6\n      dup12\n      0x0100\n      swap11\n      add\n      mstore\n      0x08\n      0x07\n      dup10\n      add\n      sload\n      swap9\n      dup10\n      0xe0\n      dup5\n      add\n      mstore\n      add\n      sload\n      swap9\n      dup10\n      swap2\n      add\n      mstore\n      mload\n      and\n      swap7\n      mload\n      and\n      swap1\n      mload\n      swap1\n      mload(0x40)\n      swap7\n      dup8\n      mstore\n      0x20\n      dup8\n      add\n      mstore\n      0x40\n      dup7\n      add\n      mstore\n      0x60\n      dup6\n      add\n      swap1\n      tag_1\n      jump\t// in\n    tag_277:\n      0x80\n      dup4\n      add\n      mstore\n      0xa0\n      dup3\n      add\n      mstore\n      return\n    tag_1:\n      swap1\n      0x04\n      dup3\n      lt\n      iszero\n      tag_109\n      jumpi\n      mstore\n      jump\t// out\n    tag_2:\n      calldataload(0x04)\n      swap1\n      sub(shl(0xa0, 0x01), 0x01)\n      dup3\n      and\n      dup3\n      sub\n      tag_50\n      jumpi\n      jump\t// out\n    tag_3:\n      0x0120\n      dup2\n      add\n      swap1\n      dup2\n      lt\n      0xffffffffffffffff\n      dup3\n      gt\n      or\n      tag_127\n      jumpi\n      0x40\n      mstore\n      jump\t// out\n    tag_4:\n      swap1\n      0x1f\n      dup1\n      not\n      swap2\n      add\n      and\n      dup2\n      add\n      swap1\n      dup2\n      lt\n      0xffffffffffffffff\n      dup3\n      gt\n      or\n      tag_127\n      jumpi\n      0x40\n      mstore\n      jump\t// out\n    tag_5:\n      dup2\n      0x1f\n      dup3\n      add\n      slt\n      iszero\n      tag_50\n      jumpi\n      dup1\n      calldataload\n      swap1\n      0xffffffffffffffff\n      dup3\n      gt\n      tag_127\n      jumpi\n      mload(0x40)\n      swap3\n      tag_290\n      0x1f\n      dup5\n      add\n      not(0x1f)\n      and\n      0x20\n      add\n      dup6\n      tag_4\n      jump\t// in\n    tag_290:\n      dup3\n      dup5\n      mstore\n      0x20\n      dup4\n      dup4\n      add\n      add\n      gt\n      tag_50\n      jumpi\n      dup2\n      0x00\n      swap3\n      0x20\n      dup1\n      swap4\n      add\n      dup4\n      dup7\n      add\n      calldatacopy\n      dup4\n      add\n      add\n      mstore\n      swap1\n      jump\t// out\n    tag_6:\n      swap1\n      0x01\n      dup3\n      dup2\n      shr\n      swap3\n      and\n      dup1\n      iszero\n      tag_293\n      jumpi\n    tag_294:\n      0x20\n      dup4\n      lt\n      eq\n      tag_295\n      jumpi\n      jump\t// out\n    tag_295:\n      mstore(0x00, shl(0xe0, 0x4e487b71))\n      mstore(0x04, 0x22)\n      revert(0x00, 0x24)\n    tag_293:\n      swap2\n      0x7f\n      and\n      swap2\n      jump(tag_294)\n    tag_7:\n      swap1\n      mload(0x40)\n      swap2\n      dup3\n      0x00\n      dup3\n      sload\n      swap3\n      tag_297\n      dup5\n      tag_6\n      jump\t// in\n    tag_297:\n      swap1\n      dup2\n      dup5\n      mstore\n      0x01\n      swap5\n      dup6\n      dup2\n      and\n      swap1\n      dup2\n      0x00\n      eq\n      tag_298\n      jumpi\n      pop\n      0x01\n      eq\n      tag_300\n      jumpi\n    tag_301:\n      pop\n      pop\n      tag_302\n      swap3\n      pop\n      sub\n      dup4\n      tag_4\n      jump\t// in\n    tag_302:\n      jump\t// out\n    tag_300:\n      swap1\n      swap4\n      swap2\n      pop\n      0x00\n      mstore\n      0x20\n      swap1\n      dup2\n      0x00\n      keccak256\n      swap4\n      0x00\n      swap2\n    tag_303:\n      dup2\n      dup4\n      lt\n      tag_304\n      jumpi\n      pop\n      pop\n      tag_302\n      swap4\n      pop\n      dup3\n      add\n      add\n      codesize\n      dup1\n      jump(tag_301)\n    tag_304:\n      dup6\n      sload\n      dup9\n      dup5\n      add\n      dup6\n      add\n      mstore\n      swap5\n      dup6\n      add\n      swap5\n      dup8\n      swap5\n      pop\n      swap2\n      dup4\n      add\n      swap2\n      jump(tag_303)\n    tag_298:\n      swap2\n      pop\n      pop\n      tag_302\n      swap5\n      pop\n      0x20\n      swap3\n      pop\n      not(0xff)\n      and\n      dup3\n      dup5\n      add\n      mstore\n      iszero\n      iszero\n      0x05\n      shl\n      dup3\n      add\n      add\n      codesize\n      dup1\n      jump(tag_301)\n    tag_8:\n      swap2\n      swap1\n      dup3\n      mload\n      swap3\n      dup4\n      dup3\n      mstore\n      0x00\n    tag_306:\n      dup5\n      dup2\n      lt\n      tag_307\n      jumpi\n      pop\n      pop\n      dup3\n      0x00\n      0x20\n      dup1\n      swap5\n      swap6\n      dup5\n      add\n      add\n      mstore\n      0x1f\n      dup1\n      not\n      swap2\n      add\n      and\n      add\n      add\n      swap1\n      jump\t// out\n    tag_307:\n      0x20\n      dup2\n      dup4\n      add\n      dup2\n      add\n      mload\n      dup5\n      dup4\n      add\n      dup3\n      add\n      mstore\n      add\n      jump(tag_306)\n        /* \"@openzeppelin/contracts/access/Ownable.sol\":1359:1489  function _checkOwner() internal view virtual {... */\n    tag_9:\n        /* \"@openzeppelin/contracts/access/Ownable.sol\":1273:1279  _owner */\n      0x00\n        /* \"contracts/TurtleEscrow.sol\":584:8929  contract TurtleEscrow is Ownable {... */\n      sload\n      sub(shl(0xa0, 0x01), 0x01)\n      and\n        /* \"@openzeppelin/contracts/utils/Context.sol\":734:744  msg.sender */\n      caller\n        /* \"@openzeppelin/contracts/access/Ownable.sol\":1422:1445  owner() == _msgSender() */\n      sub\n        /* \"contracts/TurtleEscrow.sol\":584:8929  contract TurtleEscrow is Ownable {... */\n      tag_309\n      jumpi\n        /* \"@openzeppelin/contracts/access/Ownable.sol\":1359:1489  function _checkOwner() internal view virtual {... */\n      jump\t// out\n        /* \"contracts/TurtleEscrow.sol\":584:8929  contract TurtleEscrow is Ownable {... */\n    tag_309:\n      0x64\n      mload(0x40)\n      shl(0xe5, 0x461bcd)\n      dup2\n      mstore\n      0x20\n      0x04\n      dup3\n      add\n      mstore\n      0x20\n      0x24\n      dup3\n      add\n      mstore\n      0x4f776e61626c653a2063616c6c6572206973206e6f7420746865206f776e6572\n      0x44\n      dup3\n      add\n      mstore\n      revert\n    tag_10:\n      swap1\n      dup2\n      0x20\n      swap2\n      sub\n      slt\n      tag_50\n      jumpi\n      mload\n      dup1\n      iszero\n      iszero\n      dup2\n      sub\n      tag_50\n      jumpi\n      swap1\n      jump\t// out\n    tag_11:\n      iszero\n      tag_315\n      jumpi\n      jump\t// out\n    tag_315:\n      mload(0x40)\n      shl(0xe5, 0x461bcd)\n      dup2\n      mstore\n      0x20\n      0x04\n      dup3\n      add\n      mstore\n      0x15\n      0x24\n      dup3\n      add\n      mstore\n      shl(0x5a, 0x151bdad95b881d1c985b9cd9995c8819985a5b1959)\n      0x44\n      dup3\n      add\n      mstore\n      0x64\n      swap1\n      revert\n    tag_12:\n      iszero\n      tag_317\n      jumpi\n      jump\t// out\n    tag_317:\n      mload(0x40)\n      shl(0xe5, 0x461bcd)\n      dup2\n      mstore\n      0x20\n      0x04\n      dup3\n      add\n      mstore\n      0x0d\n      0x24\n      dup3\n      add\n      mstore\n      shl(0x98, 0x496e76616c6964207374617465)\n      0x44\n      dup3\n      add\n      mstore\n      0x64\n      swap1\n      revert\n    tag_13:\n      iszero\n      tag_319\n      jumpi\n      jump\t// out\n    tag_319:\n      mload(0x40)\n      shl(0xe5, 0x461bcd)\n      dup2\n      mstore\n      0x20\n      0x04\n      dup3\n      add\n      mstore\n      0x0c\n      0x24\n      dup3\n      add\n      mstore\n      shl(0xa2, 0x155b985d5d1a1bdc9a5e9959)\n      0x44\n      dup3\n      add\n      mstore\n      0x64\n      swap1\n      revert\n    tag_15:\n      swap1\n      0x00\n      swap3\n      swap2\n      dup1\n      sload\n      swap2\n      tag_321\n      dup4\n      tag_6\n      jump\t// in\n    tag_321:\n      swap2\n      dup3\n      dup3\n      mstore\n      0x01\n      swap4\n      dup5\n      dup2\n      and\n      swap1\n      dup2\n      0x00\n      eq\n      tag_322\n      jumpi\n      pop\n      0x01\n      eq\n      tag_324\n      jumpi\n    tag_325:\n      pop\n      pop\n      pop\n      pop\n      jump\t// out\n    tag_324:\n      swap1\n      swap2\n      swap4\n      swap5\n      pop\n      0x00\n      mstore\n      0x20\n      swap3\n      dup4\n      0x00\n      keccak256\n      swap3\n      dup5\n      0x00\n      swap5\n    tag_326:\n      dup4\n      dup7\n      lt\n      tag_327\n      jumpi\n      pop\n      pop\n      pop\n      pop\n      add\n      add\n      swap1\n      codesize\n      dup1\n      dup1\n      dup1\n      jump(tag_325)\n    tag_327:\n      dup1\n      sload\n      dup6\n      dup8\n      add\n      dup4\n      add\n      mstore\n      swap5\n      add\n      swap4\n      dup6\n      swap1\n      dup3\n      add\n      jump(tag_326)\n    tag_322:\n      swap3\n      swap5\n      pop\n      pop\n      pop\n      0x20\n      swap4\n      swap5\n      pop\n      not(0xff)\n      and\n      dup4\n      dup4\n      add\n      mstore\n      iszero\n      iszero\n      0x05\n      shl\n      add\n      add\n      swap1\n      codesize\n      dup1\n      dup1\n      dup1\n      jump(tag_325)\n\n    auxdata: 0xa2646970667358221220d5665b740d6d1b3fb57a5a1c3469a251375c737a629a07d16f23398401d24c9764736f6c63430008120033\n}\n",
				"bytecode": {
					"linkReferences": {},
					"object": "6080346100f157601f6114a138819003918201601f19168301916001600160401b038311848410176100f6578084926020946040528339810103126100f157516001600160a01b0390818116908190036100f1576000549160018060a01b0319923384821617600055604051913391167f8be0079c531659141344cd1fd0a4f28419497f9722a3daafe3b4186f6b6457e0600080a381156100bd575081600354161760035533906002541617600255604051611394908161010d8239f35b62461bcd60e51b815260206004820152600f60248201526e496e76616c6964206164647265737360881b6044820152606490fd5b600080fd5b634e487b7160e01b600052604160045260246000fdfe608080604052600436101561001357600080fd5b60003560e01c9081630fa683d314610ed5575080631820cabb14610eb75780631c9c088a14610e74578063278ecde114610d0a5780633d792f921461065c5780634d68282f146104885780635996eda914610404578063715018a6146103ab5780638da5cb5b146103825780639ace38c2146102a8578063d73a84e91461020d578063ddb28071146101e4578063f2fde38b1461011b578063fc0c546a146100f25763fe25e00a146100c457600080fd5b346100ed5760003660031901126100ed576002546040516001600160a01b039091168152602090f35b600080fd5b346100ed5760003660031901126100ed576003546040516001600160a01b039091168152602090f35b346100ed5760203660031901126100ed57610134610fd1565b61013c61119d565b6001600160a01b0390811690811561019057600054826bffffffffffffffffffffffff60a01b821617600055167f8be0079c531659141344cd1fd0a4f28419497f9722a3daafe3b4186f6b6457e0600080a3005b60405162461bcd60e51b815260206004820152602660248201527f4f776e61626c653a206e6577206f776e657220697320746865207a65726f206160448201526564647265737360d01b6064820152608490fd5b346100ed5760003660031901126100ed576004546040516001600160a01b039091168152602090f35b346100ed5760403660031901126100ed5760043560008181526001602052604090206002549091906001600160a01b03163303610257576020916008602435910155604051908152f35b60405162461bcd60e51b815260206004820152602360248201527f4f6e6c7920617262697465722063616e20757064617465206c6f636b207065726044820152621a5bd960ea1b6064820152608490fd5b346100ed5760203660031901126100ed57600435600052600160205261033d60406000206102d5816110b7565b906102e2600182016110b7565b6102ee600283016110b7565b9161037360018060a01b0393846003840154169460048401541660058401549061035960ff6006870154169361034b60086007890154980154986040519c8d9c8d61012090818152019061115d565b8c810360208e01529061115d565b908a820360408c015261115d565b966060890152608088015260a087015260c0860190610fc4565b60e08401526101008301520390f35b346100ed5760003660031901126100ed576000546040516001600160a01b039091168152602090f35b346100ed5760003660031901126100ed576103c461119d565b600080546001600160a01b0319811682556001600160a01b03167f8be0079c531659141344cd1fd0a4f28419497f9722a3daafe3b4186f6b6457e08280a3005b346100ed5760203660031901126100ed5761041d610fd1565b61042561119d565b6001600160a01b03168015610451576bffffffffffffffffffffffff60a01b6004541617600455600080f35b60405162461bcd60e51b815260206004820152600f60248201526e496e76616c6964206164647265737360881b6044820152606490fd5b346100ed57602060031981813601126100ed57600435908160005260018352604060002060018060a01b03806003830154163314801561064f575b6104cc9061128d565b60068201805460ff8116906004821015610639576104ee600160029314611251565b60ff1916179055600354600483810154600585015460405163a9059cbb60e01b81529185166001600160a01b031692820192909252602481019190915290869082908416816000816044810103925af18015610600576105569160009161060c575b5061120d565b6004541691823b156100ed576105ba926001600080946040519687958694859363ce5f0b7d60e01b8552606060048601526105aa61059760648701836112c8565b84878203016024880152600283016112c8565b92858403016044860152016112c8565b03925af18015610600576105d2575b50604051908152f35b67ffffffffffffffff81116105ea57604052826105c9565b634e487b7160e01b600052604160045260246000fd5b6040513d6000823e3d90fd5b61062c9150873d8911610632575b6106248183611004565b8101906111f5565b87610550565b503d61061a565b634e487b7160e01b600052602160045260246000fd5b50600254811633146104c3565b346100ed5760c03660031901126100ed576024356001600160a01b038116908190036100ed5760443560643567ffffffffffffffff81116100ed576106a5903690600401611026565b9160843567ffffffffffffffff81116100ed576106c6903690600401611026565b9060a43567ffffffffffffffff81116100ed576106e7903690600401611026565b8115610ccc578315610c7157670de0b6b3a76400009284848102048403610c5b576040519561071587610fe7565b865260208601526040850152336060850152608084015280820260a0840152600060c08401524260e084015262093a806101008401526004356000526001602052604060002090835180519067ffffffffffffffff82116105ea57819061077c855461107d565b601f8111610c0b575b50602090601f8311600114610b9f57600092610b94575b50508160011b916000199060031b1c19161782555b602084015180519067ffffffffffffffff82116105ea5781906107d7600186015461107d565b601f8111610b41575b50602090601f8311600114610acf57600092610ac4575b50508160011b916000199060031b1c19161760018301555b604084015180519067ffffffffffffffff82116105ea578190610835600286015461107d565b601f8111610a71575b50602090601f83116001146109ff576000926109f4575b50508160011b916000199060031b1c19161760028301555b60608401516003830180546001600160a01b03199081166001600160a01b03938416179091556080860151600480860180549093169190931617905560a0850151600584015560c0850151946006840193918610156106395761010060089160209560ff199860ff8a835416911617905560e081015160078501550151910155606460018060a01b036003541693600060405195869485936323b872dd60e01b85523360048601523060248601520260448401525af180156106005761093a916000916109d5575061120d565b600435600090815260016020526040902060038101546001600160a01b03163303610990576006019081549060ff82169160048310156106395761098060019315611251565b1617905560206040516004358152f35b60405162461bcd60e51b815260206004820152601960248201527f4f6e6c792062757965722063616e206c6f636b2066756e6473000000000000006044820152606490fd5b6109ee915060203d602011610632576106248183611004565b83610550565b015190508680610855565b9250600285016000526020600020906000935b601f1984168510610a56576001945083601f19811610610a3d575b505050811b01600283015561086d565b015160001960f88460031b161c19169055868080610a2d565b81810151835560209485019460019093019290910190610a12565b909150600285016000526020600020601f840160051c810160208510610abd575b90849392915b601f830160051c82018110610aae57505061083e565b60008155859450600101610a98565b5080610a92565b0151905086806107f7565b9250600185016000526020600020906000935b601f1984168510610b26576001945083601f19811610610b0d575b505050811b01600183015561080f565b015160001960f88460031b161c19169055868080610afd565b81810151835560209485019460019093019290910190610ae2565b909150600185016000526020600020601f840160051c810160208510610b8d575b90849392915b601f830160051c82018110610b7e5750506107e0565b60008155859450600101610b68565b5080610b62565b01519050868061079c565b9250846000526020600020906000935b601f1984168510610bf0576001945083601f19811610610bd7575b505050811b0182556107b1565b015160001960f88460031b161c19169055868080610bca565b81810151835560209485019460019093019290910190610baf565b909150846000526020600020601f840160051c810160208510610c54575b90849392915b601f830160051c82018110610c45575050610785565b60008155859450600101610c2f565b5080610c29565b634e487b7160e01b600052601160045260246000fd5b60405162461bcd60e51b815260206004820152602d60248201527f496e76616c696420616d6f756e742120416d6f756e74206d757374206265206760448201526c0726561746572207468616e203609c1b6064820152608490fd5b60405162461bcd60e51b8152602060048201526016602482015275496e76616c69642073656c6c6572206164647265737360501b6044820152606490fd5b346100ed576020806003193601126100ed576004358060005260018252604060002060018060a01b038060048301541633148015610e67575b610d4c9061128d565b60068201805460ff81166004811015610639576001610d6b9114611251565b600784015460088501548101809111610c5b574210801590610e5a575b15610e1557600360ff1991909116811790915580549083015460059093015460405163a9059cbb60e01b81529383166001600160a01b031660048501526024840152849183916044918391600091165af1801561060057610df091600091610df8575061120d565b604051908152f35b610e0f9150843d8611610632576106248183611004565b84610550565b60405162461bcd60e51b815260048101879052601760248201527f4c6f636b20706572696f64206e6f7420657870697265640000000000000000006044820152606490fd5b5082600254163314610d88565b5060025481163314610d43565b346100ed5760203660031901126100ed57610e8d610fd1565b610e9561119d565b600280546001600160a01b0319166001600160a01b0392909216919091179055005b346100ed5760003660031901126100ed57602060405162093a808152f35b346100ed5760203660031901126100ed5760043560005260016020526040600020610eff82610fe7565b610f08816110b7565b8252610f16600182016110b7565b6020830152610f27600282016110b7565b604083015260018060a01b0391826003830154169160608201928352836004820154169260808301938452600582015460a0840190815260ff600684015416906004821015610639578660c097610fb89487858b6101009a015260086007890154988960e0840152015498899101525116965116905190604051968752602087015260408601526060850190610fc4565b608083015260a0820152f35b9060048210156106395752565b600435906001600160a01b03821682036100ed57565b610120810190811067ffffffffffffffff8211176105ea57604052565b90601f8019910116810190811067ffffffffffffffff8211176105ea57604052565b81601f820112156100ed5780359067ffffffffffffffff82116105ea576040519261105b601f8401601f191660200185611004565b828452602083830101116100ed57816000926020809301838601378301015290565b90600182811c921680156110ad575b602083101461109757565b634e487b7160e01b600052602260045260246000fd5b91607f169161108c565b90604051918260008254926110cb8461107d565b90818452600194858116908160001461113a57506001146110f7575b50506110f592500383611004565b565b9093915060005260209081600020936000915b8183106111225750506110f5935082010138806110e7565b8554888401850152948501948794509183019161110a565b9150506110f594506020925060ff191682840152151560051b82010138806110e7565b919082519283825260005b848110611189575050826000602080949584010152601f8019910116010190565b602081830181015184830182015201611168565b6000546001600160a01b031633036111b157565b606460405162461bcd60e51b815260206004820152602060248201527f4f776e61626c653a2063616c6c6572206973206e6f7420746865206f776e65726044820152fd5b908160209103126100ed575180151581036100ed5790565b1561121457565b60405162461bcd60e51b8152602060048201526015602482015274151bdad95b881d1c985b9cd9995c8819985a5b1959605a1b6044820152606490fd5b1561125857565b60405162461bcd60e51b815260206004820152600d60248201526c496e76616c696420737461746560981b6044820152606490fd5b1561129457565b60405162461bcd60e51b815260206004820152600c60248201526b155b985d5d1a1bdc9a5e995960a21b6044820152606490fd5b90600092918054916112d98361107d565b91828252600193848116908160001461133b57506001146112fb575b50505050565b90919394506000526020928360002092846000945b8386106113275750505050010190388080806112f5565b805485870183015294019385908201611310565b9294505050602093945060ff191683830152151560051b010190388080806112f556fea2646970667358221220d5665b740d6d1b3fb57a5a1c3469a251375c737a629a07d16f23398401d24c9764736f6c63430008120033",
					"opcodes": "PUSH1 0x80 CALLVALUE PUSH2 0xF1 JUMPI PUSH1 0x1F PUSH2 0x14A1 CODESIZE DUP2 SWAP1 SUB SWAP2 DUP3 ADD PUSH1 0x1F NOT AND DUP4 ADD SWAP2 PUSH1 0x1 PUSH1 0x1 PUSH1 0x40 SHL SUB DUP4 GT DUP5 DUP5 LT OR PUSH2 0xF6 JUMPI DUP1 DUP5 SWAP3 PUSH1 0x20 SWAP5 PUSH1 0x40 MSTORE DUP4 CODECOPY DUP2 ADD SUB SLT PUSH2 0xF1 JUMPI MLOAD PUSH1 0x1 PUSH1 0x1 PUSH1 0xA0 SHL SUB SWAP1 DUP2 DUP2 AND SWAP1 DUP2 SWAP1 SUB PUSH2 0xF1 JUMPI PUSH1 0x0 SLOAD SWAP2 PUSH1 0x1 DUP1 PUSH1 0xA0 SHL SUB NOT SWAP3 CALLER DUP5 DUP3 AND OR PUSH1 0x0 SSTORE PUSH1 0x40 MLOAD SWAP2 CALLER SWAP2 AND PUSH32 0x8BE0079C531659141344CD1FD0A4F28419497F9722A3DAAFE3B4186F6B6457E0 PUSH1 0x0 DUP1 LOG3 DUP2 ISZERO PUSH2 0xBD JUMPI POP DUP2 PUSH1 0x3 SLOAD AND OR PUSH1 0x3 SSTORE CALLER SWAP1 PUSH1 0x2 SLOAD AND OR PUSH1 0x2 SSTORE PUSH1 0x40 MLOAD PUSH2 0x1394 SWAP1 DUP2 PUSH2 0x10D DUP3 CODECOPY RETURN JUMPDEST PUSH3 0x461BCD PUSH1 0xE5 SHL DUP2 MSTORE PUSH1 0x20 PUSH1 0x4 DUP3 ADD MSTORE PUSH1 0xF PUSH1 0x24 DUP3 ADD MSTORE PUSH15 0x496E76616C69642061646472657373 PUSH1 0x88 SHL PUSH1 0x44 DUP3 ADD MSTORE PUSH1 0x64 SWAP1 REVERT JUMPDEST PUSH1 0x0 DUP1 REVERT JUMPDEST PUSH4 0x4E487B71 PUSH1 0xE0 SHL PUSH1 0x0 MSTORE PUSH1 0x41 PUSH1 0x4 MSTORE PUSH1 0x24 PUSH1 0x0 REVERT INVALID PUSH1 0x80 DUP1 PUSH1 0x40 MSTORE PUSH1 0x4 CALLDATASIZE LT ISZERO PUSH2 0x13 JUMPI PUSH1 0x0 DUP1 REVERT JUMPDEST PUSH1 0x0 CALLDATALOAD PUSH1 0xE0 SHR SWAP1 DUP2 PUSH4 0xFA683D3 EQ PUSH2 0xED5 JUMPI POP DUP1 PUSH4 0x1820CABB EQ PUSH2 0xEB7 JUMPI DUP1 PUSH4 0x1C9C088A EQ PUSH2 0xE74 JUMPI DUP1 PUSH4 0x278ECDE1 EQ PUSH2 0xD0A JUMPI DUP1 PUSH4 0x3D792F92 EQ PUSH2 0x65C JUMPI DUP1 PUSH4 0x4D68282F EQ PUSH2 0x488 JUMPI DUP1 PUSH4 0x5996EDA9 EQ PUSH2 0x404 JUMPI DUP1 PUSH4 0x715018A6 EQ PUSH2 0x3AB JUMPI DUP1 PUSH4 0x8DA5CB5B EQ PUSH2 0x382 JUMPI DUP1 PUSH4 0x9ACE38C2 EQ PUSH2 0x2A8 JUMPI DUP1 PUSH4 0xD73A84E9 EQ PUSH2 0x20D JUMPI DUP1 PUSH4 0xDDB28071 EQ PUSH2 0x1E4 JUMPI DUP1 PUSH4 0xF2FDE38B EQ PUSH2 0x11B JUMPI DUP1 PUSH4 0xFC0C546A EQ PUSH2 0xF2 JUMPI PUSH4 0xFE25E00A EQ PUSH2 0xC4 JUMPI PUSH1 0x0 DUP1 REVERT JUMPDEST CALLVALUE PUSH2 0xED JUMPI PUSH1 0x0 CALLDATASIZE PUSH1 0x3 NOT ADD SLT PUSH2 0xED JUMPI PUSH1 0x2 SLOAD PUSH1 0x40 MLOAD PUSH1 0x1 PUSH1 0x1 PUSH1 0xA0 SHL SUB SWAP1 SWAP2 AND DUP2 MSTORE PUSH1 0x20 SWAP1 RETURN JUMPDEST PUSH1 0x0 DUP1 REVERT JUMPDEST CALLVALUE PUSH2 0xED JUMPI PUSH1 0x0 CALLDATASIZE PUSH1 0x3 NOT ADD SLT PUSH2 0xED JUMPI PUSH1 0x3 SLOAD PUSH1 0x40 MLOAD PUSH1 0x1 PUSH1 0x1 PUSH1 0xA0 SHL SUB SWAP1 SWAP2 AND DUP2 MSTORE PUSH1 0x20 SWAP1 RETURN JUMPDEST CALLVALUE PUSH2 0xED JUMPI PUSH1 0x20 CALLDATASIZE PUSH1 0x3 NOT ADD SLT PUSH2 0xED JUMPI PUSH2 0x134 PUSH2 0xFD1 JUMP JUMPDEST PUSH2 0x13C PUSH2 0x119D JUMP JUMPDEST PUSH1 0x1 PUSH1 0x1 PUSH1 0xA0 SHL SUB SWAP1 DUP2 AND SWAP1 DUP2 ISZERO PUSH2 0x190 JUMPI PUSH1 0x0 SLOAD DUP3 PUSH12 0xFFFFFFFFFFFFFFFFFFFFFFFF PUSH1 0xA0 SHL DUP3 AND OR PUSH1 0x0 SSTORE AND PUSH32 0x8BE0079C531659141344CD1FD0A4F28419497F9722A3DAAFE3B4186F6B6457E0 PUSH1 0x0 DUP1 LOG3 STOP JUMPDEST PUSH1 0x40 MLOAD PUSH3 0x461BCD PUSH1 0xE5 SHL DUP2 MSTORE PUSH1 0x20 PUSH1 0x4 DUP3 ADD MSTORE PUSH1 0x26 PUSH1 0x24 DUP3 ADD MSTORE PUSH32 0x4F776E61626C653A206E6577206F776E657220697320746865207A65726F2061 PUSH1 0x44 DUP3 ADD MSTORE PUSH6 0x646472657373 PUSH1 0xD0 SHL PUSH1 0x64 DUP3 ADD MSTORE PUSH1 0x84 SWAP1 REVERT JUMPDEST CALLVALUE PUSH2 0xED JUMPI PUSH1 0x0 CALLDATASIZE PUSH1 0x3 NOT ADD SLT PUSH2 0xED JUMPI PUSH1 0x4 SLOAD PUSH1 0x40 MLOAD PUSH1 0x1 PUSH1 0x1 PUSH1 0xA0 SHL SUB SWAP1 SWAP2 AND DUP2 MSTORE PUSH1 0x20 SWAP1 RETURN JUMPDEST CALLVALUE PUSH2 0xED JUMPI PUSH1 0x40 CALLDATASIZE PUSH1 0x3 NOT ADD SLT PUSH2 0xED JUMPI PUSH1 0x4 CALLDATALOAD PUSH1 0x0 DUP2 DUP2 MSTORE PUSH1 0x1 PUSH1 0x20 MSTORE PUSH1 0x40 SWAP1 KECCAK256 PUSH1 0x2 SLOAD SWAP1 SWAP2 SWAP1 PUSH1 0x1 PUSH1 0x1 PUSH1 0xA0 SHL SUB AND CALLER SUB PUSH2 0x257 JUMPI PUSH1 0x20 SWAP2 PUSH1 0x8 PUSH1 0x24 CALLDATALOAD SWAP2 ADD SSTORE PUSH1 0x40 MLOAD SWAP1 DUP2 MSTORE RETURN JUMPDEST PUSH1 0x40 MLOAD PUSH3 0x461BCD PUSH1 0xE5 SHL DUP2 MSTORE PUSH1 0x20 PUSH1 0x4 DUP3 ADD MSTORE PUSH1 0x23 PUSH1 0x24 DUP3 ADD MSTORE PUSH32 0x4F6E6C7920617262697465722063616E20757064617465206C6F636B20706572 PUSH1 0x44 DUP3 ADD MSTORE PUSH3 0x1A5BD9 PUSH1 0xEA SHL PUSH1 0x64 DUP3 ADD MSTORE PUSH1 0x84 SWAP1 REVERT JUMPDEST CALLVALUE PUSH2 0xED JUMPI PUSH1 0x20 CALLDATASIZE PUSH1 0x3 NOT ADD SLT PUSH2 0xED JUMPI PUSH1 0x4 CALLDATALOAD PUSH1 0x0 MSTORE PUSH1 0x1 PUSH1 0x20 MSTORE PUSH2 0x33D PUSH1 0x40 PUSH1 0x0 KECCAK256 PUSH2 0x2D5 DUP2 PUSH2 0x10B7 JUMP JUMPDEST SWAP1 PUSH2 0x2E2 PUSH1 0x1 DUP3 ADD PUSH2 0x10B7 JUMP JUMPDEST PUSH2 0x2EE PUSH1 0x2 DUP4 ADD PUSH2 0x10B7 JUMP JUMPDEST SWAP2 PUSH2 0x373 PUSH1 0x1 DUP1 PUSH1 0xA0 SHL SUB SWAP4 DUP5 PUSH1 0x3 DUP5 ADD SLOAD AND SWAP5 PUSH1 0x4 DUP5 ADD SLOAD AND PUSH1 0x5 DUP5 ADD SLOAD SWAP1 PUSH2 0x359 PUSH1 0xFF PUSH1 0x6 DUP8 ADD SLOAD AND SWAP4 PUSH2 0x34B PUSH1 0x8 PUSH1 0x7 DUP10 ADD SLOAD SWAP9 ADD SLOAD SWAP9 PUSH1 0x40 MLOAD SWAP13 DUP14 SWAP13 DUP14 PUSH2 0x120 SWAP1 DUP2 DUP2 MSTORE ADD SWAP1 PUSH2 0x115D JUMP JUMPDEST DUP13 DUP2 SUB PUSH1 0x20 DUP15 ADD MSTORE SWAP1 PUSH2 0x115D JUMP JUMPDEST SWAP1 DUP11 DUP3 SUB PUSH1 0x40 DUP13 ADD MSTORE PUSH2 0x115D JUMP JUMPDEST SWAP7 PUSH1 0x60 DUP10 ADD MSTORE PUSH1 0x80 DUP9 ADD MSTORE PUSH1 0xA0 DUP8 ADD MSTORE PUSH1 0xC0 DUP7 ADD SWAP1 PUSH2 0xFC4 JUMP JUMPDEST PUSH1 0xE0 DUP5 ADD MSTORE PUSH2 0x100 DUP4 ADD MSTORE SUB SWAP1 RETURN JUMPDEST CALLVALUE PUSH2 0xED JUMPI PUSH1 0x0 CALLDATASIZE PUSH1 0x3 NOT ADD SLT PUSH2 0xED JUMPI PUSH1 0x0 SLOAD PUSH1 0x40 MLOAD PUSH1 0x1 PUSH1 0x1 PUSH1 0xA0 SHL SUB SWAP1 SWAP2 AND DUP2 MSTORE PUSH1 0x20 SWAP1 RETURN JUMPDEST CALLVALUE PUSH2 0xED JUMPI PUSH1 0x0 CALLDATASIZE PUSH1 0x3 NOT ADD SLT PUSH2 0xED JUMPI PUSH2 0x3C4 PUSH2 0x119D JUMP JUMPDEST PUSH1 0x0 DUP1 SLOAD PUSH1 0x1 PUSH1 0x1 PUSH1 0xA0 SHL SUB NOT DUP2 AND DUP3 SSTORE PUSH1 0x1 PUSH1 0x1 PUSH1 0xA0 SHL SUB AND PUSH32 0x8BE0079C531659141344CD1FD0A4F28419497F9722A3DAAFE3B4186F6B6457E0 DUP3 DUP1 LOG3 STOP JUMPDEST CALLVALUE PUSH2 0xED JUMPI PUSH1 0x20 CALLDATASIZE PUSH1 0x3 NOT ADD SLT PUSH2 0xED JUMPI PUSH2 0x41D PUSH2 0xFD1 JUMP JUMPDEST PUSH2 0x425 PUSH2 0x119D JUMP JUMPDEST PUSH1 0x1 PUSH1 0x1 PUSH1 0xA0 SHL SUB AND DUP1 ISZERO PUSH2 0x451 JUMPI PUSH12 0xFFFFFFFFFFFFFFFFFFFFFFFF PUSH1 0xA0 SHL PUSH1 0x4 SLOAD AND OR PUSH1 0x4 SSTORE PUSH1 0x0 DUP1 RETURN JUMPDEST PUSH1 0x40 MLOAD PUSH3 0x461BCD PUSH1 0xE5 SHL DUP2 MSTORE PUSH1 0x20 PUSH1 0x4 DUP3 ADD MSTORE PUSH1 0xF PUSH1 0x24 DUP3 ADD MSTORE PUSH15 0x496E76616C69642061646472657373 PUSH1 0x88 SHL PUSH1 0x44 DUP3 ADD MSTORE PUSH1 0x64 SWAP1 REVERT JUMPDEST CALLVALUE PUSH2 0xED JUMPI PUSH1 0x20 PUSH1 0x3 NOT DUP2 DUP2 CALLDATASIZE ADD SLT PUSH2 0xED JUMPI PUSH1 0x4 CALLDATALOAD SWAP1 DUP2 PUSH1 0x0 MSTORE PUSH1 0x1 DUP4 MSTORE PUSH1 0x40 PUSH1 0x0 KECCAK256 PUSH1 0x1 DUP1 PUSH1 0xA0 SHL SUB DUP1 PUSH1 0x3 DUP4 ADD SLOAD AND CALLER EQ DUP1 ISZERO PUSH2 0x64F JUMPI JUMPDEST PUSH2 0x4CC SWAP1 PUSH2 0x128D JUMP JUMPDEST PUSH1 0x6 DUP3 ADD DUP1 SLOAD PUSH1 0xFF DUP2 AND SWAP1 PUSH1 0x4 DUP3 LT ISZERO PUSH2 0x639 JUMPI PUSH2 0x4EE PUSH1 0x1 PUSH1 0x2 SWAP4 EQ PUSH2 0x1251 JUMP JUMPDEST PUSH1 0xFF NOT AND OR SWAP1 SSTORE PUSH1 0x3 SLOAD PUSH1 0x4 DUP4 DUP2 ADD SLOAD PUSH1 0x5 DUP6 ADD SLOAD PUSH1 0x40 MLOAD PUSH4 0xA9059CBB PUSH1 0xE0 SHL DUP2 MSTORE SWAP2 DUP6 AND PUSH1 0x1 PUSH1 0x1 PUSH1 0xA0 SHL SUB AND SWAP3 DUP3 ADD SWAP3 SWAP1 SWAP3 MSTORE PUSH1 0x24 DUP2 ADD SWAP2 SWAP1 SWAP2 MSTORE SWAP1 DUP7 SWAP1 DUP3 SWAP1 DUP5 AND DUP2 PUSH1 0x0 DUP2 PUSH1 0x44 DUP2 ADD SUB SWAP3 GAS CALL DUP1 ISZERO PUSH2 0x600 JUMPI PUSH2 0x556 SWAP2 PUSH1 0x0 SWAP2 PUSH2 0x60C JUMPI JUMPDEST POP PUSH2 0x120D JUMP JUMPDEST PUSH1 0x4 SLOAD AND SWAP2 DUP3 EXTCODESIZE ISZERO PUSH2 0xED JUMPI PUSH2 0x5BA SWAP3 PUSH1 0x1 PUSH1 0x0 DUP1 SWAP5 PUSH1 0x40 MLOAD SWAP7 DUP8 SWAP6 DUP7 SWAP5 DUP6 SWAP4 PUSH4 0xCE5F0B7D PUSH1 0xE0 SHL DUP6 MSTORE PUSH1 0x60 PUSH1 0x4 DUP7 ADD MSTORE PUSH2 0x5AA PUSH2 0x597 PUSH1 0x64 DUP8 ADD DUP4 PUSH2 0x12C8 JUMP JUMPDEST DUP5 DUP8 DUP3 SUB ADD PUSH1 0x24 DUP9 ADD MSTORE PUSH1 0x2 DUP4 ADD PUSH2 0x12C8 JUMP JUMPDEST SWAP3 DUP6 DUP5 SUB ADD PUSH1 0x44 DUP7 ADD MSTORE ADD PUSH2 0x12C8 JUMP JUMPDEST SUB SWAP3 GAS CALL DUP1 ISZERO PUSH2 0x600 JUMPI PUSH2 0x5D2 JUMPI JUMPDEST POP PUSH1 0x40 MLOAD SWAP1 DUP2 MSTORE RETURN JUMPDEST PUSH8 0xFFFFFFFFFFFFFFFF DUP2 GT PUSH2 0x5EA JUMPI PUSH1 0x40 MSTORE DUP3 PUSH2 0x5C9 JUMP JUMPDEST PUSH4 0x4E487B71 PUSH1 0xE0 SHL PUSH1 0x0 MSTORE PUSH1 0x41 PUSH1 0x4 MSTORE PUSH1 0x24 PUSH1 0x0 REVERT JUMPDEST PUSH1 0x40 MLOAD RETURNDATASIZE PUSH1 0x0 DUP3 RETURNDATACOPY RETURNDATASIZE SWAP1 REVERT JUMPDEST PUSH2 0x62C SWAP2 POP DUP8 RETURNDATASIZE DUP10 GT PUSH2 0x632 JUMPI JUMPDEST PUSH2 0x624 DUP2 DUP4 PUSH2 0x1004 JUMP JUMPDEST DUP2 ADD SWAP1 PUSH2 0x11F5 JUMP JUMPDEST DUP8 PUSH2 0x550 JUMP JUMPDEST POP RETURNDATASIZE PUSH2 0x61A JUMP JUMPDEST PUSH4 0x4E487B71 PUSH1 0xE0 SHL PUSH1 0x0 MSTORE PUSH1 0x21 PUSH1 0x4 MSTORE PUSH1 0x24 PUSH1 0x0 REVERT JUMPDEST POP PUSH1 0x2 SLOAD DUP2 AND CALLER EQ PUSH2 0x4C3 JUMP JUMPDEST CALLVALUE PUSH2 0xED JUMPI PUSH1 0xC0 CALLDATASIZE PUSH1 0x3 NOT ADD SLT PUSH2 0xED JUMPI PUSH1 0x24 CALLDATALOAD PUSH1 0x1 PUSH1 0x1 PUSH1 0xA0 SHL SUB DUP2 AND SWAP1 DUP2 SWAP1 SUB PUSH2 0xED JUMPI PUSH1 0x44 CALLDATALOAD PUSH1 0x64 CALLDATALOAD PUSH8 0xFFFFFFFFFFFFFFFF DUP2 GT PUSH2 0xED JUMPI PUSH2 0x6A5 SWAP1 CALLDATASIZE SWAP1 PUSH1 0x4 ADD PUSH2 0x1026 JUMP JUMPDEST SWAP2 PUSH1 0x84 CALLDATALOAD PUSH8 0xFFFFFFFFFFFFFFFF DUP2 GT PUSH2 0xED JUMPI PUSH2 0x6C6 SWAP1 CALLDATASIZE SWAP1 PUSH1 0x4 ADD PUSH2 0x1026 JUMP JUMPDEST SWAP1 PUSH1 0xA4 CALLDATALOAD PUSH8 0xFFFFFFFFFFFFFFFF DUP2 GT PUSH2 0xED JUMPI PUSH2 0x6E7 SWAP1 CALLDATASIZE SWAP1 PUSH1 0x4 ADD PUSH2 0x1026 JUMP JUMPDEST DUP2 ISZERO PUSH2 0xCCC JUMPI DUP4 ISZERO PUSH2 0xC71 JUMPI PUSH8 0xDE0B6B3A7640000 SWAP3 DUP5 DUP5 DUP2 MUL DIV DUP5 SUB PUSH2 0xC5B JUMPI PUSH1 0x40 MLOAD SWAP6 PUSH2 0x715 DUP8 PUSH2 0xFE7 JUMP JUMPDEST DUP7 MSTORE PUSH1 0x20 DUP7 ADD MSTORE PUSH1 0x40 DUP6 ADD MSTORE CALLER PUSH1 0x60 DUP6 ADD MSTORE PUSH1 0x80 DUP5 ADD MSTORE DUP1 DUP3 MUL PUSH1 0xA0 DUP5 ADD MSTORE PUSH1 0x0 PUSH1 0xC0 DUP5 ADD MSTORE TIMESTAMP PUSH1 0xE0 DUP5 ADD MSTORE PUSH3 0x93A80 PUSH2 0x100 DUP5 ADD MSTORE PUSH1 0x4 CALLDATALOAD PUSH1 0x0 MSTORE PUSH1 0x1 PUSH1 0x20 MSTORE PUSH1 0x40 PUSH1 0x0 KECCAK256 SWAP1 DUP4 MLOAD DUP1 MLOAD SWAP1 PUSH8 0xFFFFFFFFFFFFFFFF DUP3 GT PUSH2 0x5EA JUMPI DUP2 SWAP1 PUSH2 0x77C DUP6 SLOAD PUSH2 0x107D JUMP JUMPDEST PUSH1 0x1F DUP2 GT PUSH2 0xC0B JUMPI JUMPDEST POP PUSH1 0x20 SWAP1 PUSH1 0x1F DUP4 GT PUSH1 0x1 EQ PUSH2 0xB9F JUMPI PUSH1 0x0 SWAP3 PUSH2 0xB94 JUMPI JUMPDEST POP POP DUP2 PUSH1 0x1 SHL SWAP2 PUSH1 0x0 NOT SWAP1 PUSH1 0x3 SHL SHR NOT AND OR DUP3 SSTORE JUMPDEST PUSH1 0x20 DUP5 ADD MLOAD DUP1 MLOAD SWAP1 PUSH8 0xFFFFFFFFFFFFFFFF DUP3 GT PUSH2 0x5EA JUMPI DUP2 SWAP1 PUSH2 0x7D7 PUSH1 0x1 DUP7 ADD SLOAD PUSH2 0x107D JUMP JUMPDEST PUSH1 0x1F DUP2 GT PUSH2 0xB41 JUMPI JUMPDEST POP PUSH1 0x20 SWAP1 PUSH1 0x1F DUP4 GT PUSH1 0x1 EQ PUSH2 0xACF JUMPI PUSH1 0x0 SWAP3 PUSH2 0xAC4 JUMPI JUMPDEST POP POP DUP2 PUSH1 0x1 SHL SWAP2 PUSH1 0x0 NOT SWAP1 PUSH1 0x3 SHL SHR NOT AND OR PUSH1 0x1 DUP4 ADD SSTORE JUMPDEST PUSH1 0x40 DUP5 ADD MLOAD DUP1 MLOAD SWAP1 PUSH8 0xFFFFFFFFFFFFFFFF DUP3 GT PUSH2 0x5EA JUMPI DUP2 SWAP1 PUSH2 0x835 PUSH1 0x2 DUP7 ADD SLOAD PUSH2 0x107D JUMP JUMPDEST PUSH1 0x1F DUP2 GT PUSH2 0xA71 JUMPI JUMPDEST POP PUSH1 0x20 SWAP1 PUSH1 0x1F DUP4 GT PUSH1 0x1 EQ PUSH2 0x9FF JUMPI PUSH1 0x0 SWAP3 PUSH2 0x9F4 JUMPI JUMPDEST POP POP DUP2 PUSH1 0x1 SHL SWAP2 PUSH1 0x0 NOT SWAP1 PUSH1 0x3 SHL SHR NOT AND OR PUSH1 0x2 DUP4 ADD SSTORE JUMPDEST PUSH1 0x60 DUP5 ADD MLOAD PUSH1 0x3 DUP4 ADD DUP1 SLOAD PUSH1 0x1 PUSH1 0x1 PUSH1 0xA0 SHL SUB NOT SWAP1 DUP2 AND PUSH1 0x1 PUSH1 0x1 PUSH1 0xA0 SHL SUB SWAP4 DUP5 AND OR SWAP1 SWAP2 SSTORE PUSH1 0x80 DUP7 ADD MLOAD PUSH1 0x4 DUP1 DUP7 ADD DUP1 SLOAD SWAP1 SWAP4 AND SWAP2 SWAP1 SWAP4 AND OR SWAP1 SSTORE PUSH1 0xA0 DUP6 ADD MLOAD PUSH1 0x5 DUP5 ADD SSTORE PUSH1 0xC0 DUP6 ADD MLOAD SWAP5 PUSH1 0x6 DUP5 ADD SWAP4 SWAP2 DUP7 LT ISZERO PUSH2 0x639 JUMPI PUSH2 0x100 PUSH1 0x8 SWAP2 PUSH1 0x20 SWAP6 PUSH1 0xFF NOT SWAP9 PUSH1 0xFF DUP11 DUP4 SLOAD AND SWAP2 AND OR SWAP1 SSTORE PUSH1 0xE0 DUP2 ADD MLOAD PUSH1 0x7 DUP6 ADD SSTORE ADD MLOAD SWAP2 ADD SSTORE PUSH1 0x64 PUSH1 0x1 DUP1 PUSH1 0xA0 SHL SUB PUSH1 0x3 SLOAD AND SWAP4 PUSH1 0x0 PUSH1 0x40 MLOAD SWAP6 DUP7 SWAP5 DUP6 SWAP4 PUSH4 0x23B872DD PUSH1 0xE0 SHL DUP6 MSTORE CALLER PUSH1 0x4 DUP7 ADD MSTORE ADDRESS PUSH1 0x24 DUP7 ADD MSTORE MUL PUSH1 0x44 DUP5 ADD MSTORE GAS CALL DUP1 ISZERO PUSH2 0x600 JUMPI PUSH2 0x93A SWAP2 PUSH1 0x0 SWAP2 PUSH2 0x9D5 JUMPI POP PUSH2 0x120D JUMP JUMPDEST PUSH1 0x4 CALLDATALOAD PUSH1 0x0 SWAP1 DUP2 MSTORE PUSH1 0x1 PUSH1 0x20 MSTORE PUSH1 0x40 SWAP1 KECCAK256 PUSH1 0x3 DUP2 ADD SLOAD PUSH1 0x1 PUSH1 0x1 PUSH1 0xA0 SHL SUB AND CALLER SUB PUSH2 0x990 JUMPI PUSH1 0x6 ADD SWAP1 DUP2 SLOAD SWAP1 PUSH1 0xFF DUP3 AND SWAP2 PUSH1 0x4 DUP4 LT ISZERO PUSH2 0x639 JUMPI PUSH2 0x980 PUSH1 0x1 SWAP4 ISZERO PUSH2 0x1251 JUMP JUMPDEST AND OR SWAP1 SSTORE PUSH1 0x20 PUSH1 0x40 MLOAD PUSH1 0x4 CALLDATALOAD DUP2 MSTORE RETURN JUMPDEST PUSH1 0x40 MLOAD PUSH3 0x461BCD PUSH1 0xE5 SHL DUP2 MSTORE PUSH1 0x20 PUSH1 0x4 DUP3 ADD MSTORE PUSH1 0x19 PUSH1 0x24 DUP3 ADD MSTORE PUSH32 0x4F6E6C792062757965722063616E206C6F636B2066756E647300000000000000 PUSH1 0x44 DUP3 ADD MSTORE PUSH1 0x64 SWAP1 REVERT JUMPDEST PUSH2 0x9EE SWAP2 POP PUSH1 0x20 RETURNDATASIZE PUSH1 0x20 GT PUSH2 0x632 JUMPI PUSH2 0x624 DUP2 DUP4 PUSH2 0x1004 JUMP JUMPDEST DUP4 PUSH2 0x550 JUMP JUMPDEST ADD MLOAD SWAP1 POP DUP7 DUP1 PUSH2 0x855 JUMP JUMPDEST SWAP3 POP PUSH1 0x2 DUP6 ADD PUSH1 0x0 MSTORE PUSH1 0x20 PUSH1 0x0 KECCAK256 SWAP1 PUSH1 0x0 SWAP4 JUMPDEST PUSH1 0x1F NOT DUP5 AND DUP6 LT PUSH2 0xA56 JUMPI PUSH1 0x1 SWAP5 POP DUP4 PUSH1 0x1F NOT DUP2 AND LT PUSH2 0xA3D JUMPI JUMPDEST POP POP POP DUP2 SHL ADD PUSH1 0x2 DUP4 ADD SSTORE PUSH2 0x86D JUMP JUMPDEST ADD MLOAD PUSH1 0x0 NOT PUSH1 0xF8 DUP5 PUSH1 0x3 SHL AND SHR NOT AND SWAP1 SSTORE DUP7 DUP1 DUP1 PUSH2 0xA2D JUMP JUMPDEST DUP2 DUP2 ADD MLOAD DUP4 SSTORE PUSH1 0x20 SWAP5 DUP6 ADD SWAP5 PUSH1 0x1 SWAP1 SWAP4 ADD SWAP3 SWAP1 SWAP2 ADD SWAP1 PUSH2 0xA12 JUMP JUMPDEST SWAP1 SWAP2 POP PUSH1 0x2 DUP6 ADD PUSH1 0x0 MSTORE PUSH1 0x20 PUSH1 0x0 KECCAK256 PUSH1 0x1F DUP5 ADD PUSH1 0x5 SHR DUP2 ADD PUSH1 0x20 DUP6 LT PUSH2 0xABD JUMPI JUMPDEST SWAP1 DUP5 SWAP4 SWAP3 SWAP2 JUMPDEST PUSH1 0x1F DUP4 ADD PUSH1 0x5 SHR DUP3 ADD DUP2 LT PUSH2 0xAAE JUMPI POP POP PUSH2 0x83E JUMP JUMPDEST PUSH1 0x0 DUP2 SSTORE DUP6 SWAP5 POP PUSH1 0x1 ADD PUSH2 0xA98 JUMP JUMPDEST POP DUP1 PUSH2 0xA92 JUMP JUMPDEST ADD MLOAD SWAP1 POP DUP7 DUP1 PUSH2 0x7F7 JUMP JUMPDEST SWAP3 POP PUSH1 0x1 DUP6 ADD PUSH1 0x0 MSTORE PUSH1 0x20 PUSH1 0x0 KECCAK256 SWAP1 PUSH1 0x0 SWAP4 JUMPDEST PUSH1 0x1F NOT DUP5 AND DUP6 LT PUSH2 0xB26 JUMPI PUSH1 0x1 SWAP5 POP DUP4 PUSH1 0x1F NOT DUP2 AND LT PUSH2 0xB0D JUMPI JUMPDEST POP POP POP DUP2 SHL ADD PUSH1 0x1 DUP4 ADD SSTORE PUSH2 0x80F JUMP JUMPDEST ADD MLOAD PUSH1 0x0 NOT PUSH1 0xF8 DUP5 PUSH1 0x3 SHL AND SHR NOT AND SWAP1 SSTORE DUP7 DUP1 DUP1 PUSH2 0xAFD JUMP JUMPDEST DUP2 DUP2 ADD MLOAD DUP4 SSTORE PUSH1 0x20 SWAP5 DUP6 ADD SWAP5 PUSH1 0x1 SWAP1 SWAP4 ADD SWAP3 SWAP1 SWAP2 ADD SWAP1 PUSH2 0xAE2 JUMP JUMPDEST SWAP1 SWAP2 POP PUSH1 0x1 DUP6 ADD PUSH1 0x0 MSTORE PUSH1 0x20 PUSH1 0x0 KECCAK256 PUSH1 0x1F DUP5 ADD PUSH1 0x5 SHR DUP2 ADD PUSH1 0x20 DUP6 LT PUSH2 0xB8D JUMPI JUMPDEST SWAP1 DUP5 SWAP4 SWAP3 SWAP2 JUMPDEST PUSH1 0x1F DUP4 ADD PUSH1 0x5 SHR DUP3 ADD DUP2 LT PUSH2 0xB7E JUMPI POP POP PUSH2 0x7E0 JUMP JUMPDEST PUSH1 0x0 DUP2 SSTORE DUP6 SWAP5 POP PUSH1 0x1 ADD PUSH2 0xB68 JUMP JUMPDEST POP DUP1 PUSH2 0xB62 JUMP JUMPDEST ADD MLOAD SWAP1 POP DUP7 DUP1 PUSH2 0x79C JUMP JUMPDEST SWAP3 POP DUP5 PUSH1 0x0 MSTORE PUSH1 0x20 PUSH1 0x0 KECCAK256 SWAP1 PUSH1 0x0 SWAP4 JUMPDEST PUSH1 0x1F NOT DUP5 AND DUP6 LT PUSH2 0xBF0 JUMPI PUSH1 0x1 SWAP5 POP DUP4 PUSH1 0x1F NOT DUP2 AND LT PUSH2 0xBD7 JUMPI JUMPDEST POP POP POP DUP2 SHL ADD DUP3 SSTORE PUSH2 0x7B1 JUMP JUMPDEST ADD MLOAD PUSH1 0x0 NOT PUSH1 0xF8 DUP5 PUSH1 0x3 SHL AND SHR NOT AND SWAP1 SSTORE DUP7 DUP1 DUP1 PUSH2 0xBCA JUMP JUMPDEST DUP2 DUP2 ADD MLOAD DUP4 SSTORE PUSH1 0x20 SWAP5 DUP6 ADD SWAP5 PUSH1 0x1 SWAP1 SWAP4 ADD SWAP3 SWAP1 SWAP2 ADD SWAP1 PUSH2 0xBAF JUMP JUMPDEST SWAP1 SWAP2 POP DUP5 PUSH1 0x0 MSTORE PUSH1 0x20 PUSH1 0x0 KECCAK256 PUSH1 0x1F DUP5 ADD PUSH1 0x5 SHR DUP2 ADD PUSH1 0x20 DUP6 LT PUSH2 0xC54 JUMPI JUMPDEST SWAP1 DUP5 SWAP4 SWAP3 SWAP2 JUMPDEST PUSH1 0x1F DUP4 ADD PUSH1 0x5 SHR DUP3 ADD DUP2 LT PUSH2 0xC45 JUMPI POP POP PUSH2 0x785 JUMP JUMPDEST PUSH1 0x0 DUP2 SSTORE DUP6 SWAP5 POP PUSH1 0x1 ADD PUSH2 0xC2F JUMP JUMPDEST POP DUP1 PUSH2 0xC29 JUMP JUMPDEST PUSH4 0x4E487B71 PUSH1 0xE0 SHL PUSH1 0x0 MSTORE PUSH1 0x11 PUSH1 0x4 MSTORE PUSH1 0x24 PUSH1 0x0 REVERT JUMPDEST PUSH1 0x40 MLOAD PUSH3 0x461BCD PUSH1 0xE5 SHL DUP2 MSTORE PUSH1 0x20 PUSH1 0x4 DUP3 ADD MSTORE PUSH1 0x2D PUSH1 0x24 DUP3 ADD MSTORE PUSH32 0x496E76616C696420616D6F756E742120416D6F756E74206D7573742062652067 PUSH1 0x44 DUP3 ADD MSTORE PUSH13 0x726561746572207468616E203 PUSH1 0x9C SHL PUSH1 0x64 DUP3 ADD MSTORE PUSH1 0x84 SWAP1 REVERT JUMPDEST PUSH1 0x40 MLOAD PUSH3 0x461BCD PUSH1 0xE5 SHL DUP2 MSTORE PUSH1 0x20 PUSH1 0x4 DUP3 ADD MSTORE PUSH1 0x16 PUSH1 0x24 DUP3 ADD MSTORE PUSH22 0x496E76616C69642073656C6C65722061646472657373 PUSH1 0x50 SHL PUSH1 0x44 DUP3 ADD MSTORE PUSH1 0x64 SWAP1 REVERT JUMPDEST CALLVALUE PUSH2 0xED JUMPI PUSH1 0x20 DUP1 PUSH1 0x3 NOT CALLDATASIZE ADD SLT PUSH2 0xED JUMPI PUSH1 0x4 CALLDATALOAD DUP1 PUSH1 0x0 MSTORE PUSH1 0x1 DUP3 MSTORE PUSH1 0x40 PUSH1 0x0 KECCAK256 PUSH1 0x1 DUP1 PUSH1 0xA0 SHL SUB DUP1 PUSH1 0x4 DUP4 ADD SLOAD AND CALLER EQ DUP1 ISZERO PUSH2 0xE67 JUMPI JUMPDEST PUSH2 0xD4C SWAP1 PUSH2 0x128D JUMP JUMPDEST PUSH1 0x6 DUP3 ADD DUP1 SLOAD PUSH1 0xFF DUP2 AND PUSH1 0x4 DUP2 LT ISZERO PUSH2 0x639 JUMPI PUSH1 0x1 PUSH2 0xD6B SWAP2 EQ PUSH2 0x1251 JUMP JUMPDEST PUSH1 0x7 DUP5 ADD SLOAD PUSH1 0x8 DUP6 ADD SLOAD DUP2 ADD DUP1 SWAP2 GT PUSH2 0xC5B JUMPI TIMESTAMP LT DUP1 ISZERO SWAP1 PUSH2 0xE5A JUMPI JUMPDEST ISZERO PUSH2 0xE15 JUMPI PUSH1 0x3 PUSH1 0xFF NOT SWAP2 SWAP1 SWAP2 AND DUP2 OR SWAP1 SWAP2 SSTORE DUP1 SLOAD SWAP1 DUP4 ADD SLOAD PUSH1 0x5 SWAP1 SWAP4 ADD SLOAD PUSH1 0x40 MLOAD PUSH4 0xA9059CBB PUSH1 0xE0 SHL DUP2 MSTORE SWAP4 DUP4 AND PUSH1 0x1 PUSH1 0x1 PUSH1 0xA0 SHL SUB AND PUSH1 0x4 DUP6 ADD MSTORE PUSH1 0x24 DUP5 ADD MSTORE DUP5 SWAP2 DUP4 SWAP2 PUSH1 0x44 SWAP2 DUP4 SWAP2 PUSH1 0x0 SWAP2 AND GAS CALL DUP1 ISZERO PUSH2 0x600 JUMPI PUSH2 0xDF0 SWAP2 PUSH1 0x0 SWAP2 PUSH2 0xDF8 JUMPI POP PUSH2 0x120D JUMP JUMPDEST PUSH1 0x40 MLOAD SWAP1 DUP2 MSTORE RETURN JUMPDEST PUSH2 0xE0F SWAP2 POP DUP5 RETURNDATASIZE DUP7 GT PUSH2 0x632 JUMPI PUSH2 0x624 DUP2 DUP4 PUSH2 0x1004 JUMP JUMPDEST DUP5 PUSH2 0x550 JUMP JUMPDEST PUSH1 0x40 MLOAD PUSH3 0x461BCD PUSH1 0xE5 SHL DUP2 MSTORE PUSH1 0x4 DUP2 ADD DUP8 SWAP1 MSTORE PUSH1 0x17 PUSH1 0x24 DUP3 ADD MSTORE PUSH32 0x4C6F636B20706572696F64206E6F742065787069726564000000000000000000 PUSH1 0x44 DUP3 ADD MSTORE PUSH1 0x64 SWAP1 REVERT JUMPDEST POP DUP3 PUSH1 0x2 SLOAD AND CALLER EQ PUSH2 0xD88 JUMP JUMPDEST POP PUSH1 0x2 SLOAD DUP2 AND CALLER EQ PUSH2 0xD43 JUMP JUMPDEST CALLVALUE PUSH2 0xED JUMPI PUSH1 0x20 CALLDATASIZE PUSH1 0x3 NOT ADD SLT PUSH2 0xED JUMPI PUSH2 0xE8D PUSH2 0xFD1 JUMP JUMPDEST PUSH2 0xE95 PUSH2 0x119D JUMP JUMPDEST PUSH1 0x2 DUP1 SLOAD PUSH1 0x1 PUSH1 0x1 PUSH1 0xA0 SHL SUB NOT AND PUSH1 0x1 PUSH1 0x1 PUSH1 0xA0 SHL SUB SWAP3 SWAP1 SWAP3 AND SWAP2 SWAP1 SWAP2 OR SWAP1 SSTORE STOP JUMPDEST CALLVALUE PUSH2 0xED JUMPI PUSH1 0x0 CALLDATASIZE PUSH1 0x3 NOT ADD SLT PUSH2 0xED JUMPI PUSH1 0x20 PUSH1 0x40 MLOAD PUSH3 0x93A80 DUP2 MSTORE RETURN JUMPDEST CALLVALUE PUSH2 0xED JUMPI PUSH1 0x20 CALLDATASIZE PUSH1 0x3 NOT ADD SLT PUSH2 0xED JUMPI PUSH1 0x4 CALLDATALOAD PUSH1 0x0 MSTORE PUSH1 0x1 PUSH1 0x20 MSTORE PUSH1 0x40 PUSH1 0x0 KECCAK256 PUSH2 0xEFF DUP3 PUSH2 0xFE7 JUMP JUMPDEST PUSH2 0xF08 DUP2 PUSH2 0x10B7 JUMP JUMPDEST DUP3 MSTORE PUSH2 0xF16 PUSH1 0x1 DUP3 ADD PUSH2 0x10B7 JUMP JUMPDEST PUSH1 0x20 DUP4 ADD MSTORE PUSH2 0xF27 PUSH1 0x2 DUP3 ADD PUSH2 0x10B7 JUMP JUMPDEST PUSH1 0x40 DUP4 ADD MSTORE PUSH1 0x1 DUP1 PUSH1 0xA0 SHL SUB SWAP2 DUP3 PUSH1 0x3 DUP4 ADD SLOAD AND SWAP2 PUSH1 0x60 DUP3 ADD SWAP3 DUP4 MSTORE DUP4 PUSH1 0x4 DUP3 ADD SLOAD AND SWAP3 PUSH1 0x80 DUP4 ADD SWAP4 DUP5 MSTORE PUSH1 0x5 DUP3 ADD SLOAD PUSH1 0xA0 DUP5 ADD SWAP1 DUP2 MSTORE PUSH1 0xFF PUSH1 0x6 DUP5 ADD SLOAD AND SWAP1 PUSH1 0x4 DUP3 LT ISZERO PUSH2 0x639 JUMPI DUP7 PUSH1 0xC0 SWAP8 PUSH2 0xFB8 SWAP5 DUP8 DUP6 DUP12 PUSH2 0x100 SWAP11 ADD MSTORE PUSH1 0x8 PUSH1 0x7 DUP10 ADD SLOAD SWAP9 DUP10 PUSH1 0xE0 DUP5 ADD MSTORE ADD SLOAD SWAP9 DUP10 SWAP2 ADD MSTORE MLOAD AND SWAP7 MLOAD AND SWAP1 MLOAD SWAP1 PUSH1 0x40 MLOAD SWAP7 DUP8 MSTORE PUSH1 0x20 DUP8 ADD MSTORE PUSH1 0x40 DUP7 ADD MSTORE PUSH1 0x60 DUP6 ADD SWAP1 PUSH2 0xFC4 JUMP JUMPDEST PUSH1 0x80 DUP4 ADD MSTORE PUSH1 0xA0 DUP3 ADD MSTORE RETURN JUMPDEST SWAP1 PUSH1 0x4 DUP3 LT ISZERO PUSH2 0x639 JUMPI MSTORE JUMP JUMPDEST PUSH1 0x4 CALLDATALOAD SWAP1 PUSH1 0x1 PUSH1 0x1 PUSH1 0xA0 SHL SUB DUP3 AND DUP3 SUB PUSH2 0xED JUMPI JUMP JUMPDEST PUSH2 0x120 DUP2 ADD SWAP1 DUP2 LT PUSH8 0xFFFFFFFFFFFFFFFF DUP3 GT OR PUSH2 0x5EA JUMPI PUSH1 0x40 MSTORE JUMP JUMPDEST SWAP1 PUSH1 0x1F DUP1 NOT SWAP2 ADD AND DUP2 ADD SWAP1 DUP2 LT PUSH8 0xFFFFFFFFFFFFFFFF DUP3 GT OR PUSH2 0x5EA JUMPI PUSH1 0x40 MSTORE JUMP JUMPDEST DUP2 PUSH1 0x1F DUP3 ADD SLT ISZERO PUSH2 0xED JUMPI DUP1 CALLDATALOAD SWAP1 PUSH8 0xFFFFFFFFFFFFFFFF DUP3 GT PUSH2 0x5EA JUMPI PUSH1 0x40 MLOAD SWAP3 PUSH2 0x105B PUSH1 0x1F DUP5 ADD PUSH1 0x1F NOT AND PUSH1 0x20 ADD DUP6 PUSH2 0x1004 JUMP JUMPDEST DUP3 DUP5 MSTORE PUSH1 0x20 DUP4 DUP4 ADD ADD GT PUSH2 0xED JUMPI DUP2 PUSH1 0x0 SWAP3 PUSH1 0x20 DUP1 SWAP4 ADD DUP4 DUP7 ADD CALLDATACOPY DUP4 ADD ADD MSTORE SWAP1 JUMP JUMPDEST SWAP1 PUSH1 0x1 DUP3 DUP2 SHR SWAP3 AND DUP1 ISZERO PUSH2 0x10AD JUMPI JUMPDEST PUSH1 0x20 DUP4 LT EQ PUSH2 0x1097 JUMPI JUMP JUMPDEST PUSH4 0x4E487B71 PUSH1 0xE0 SHL PUSH1 0x0 MSTORE PUSH1 0x22 PUSH1 0x4 MSTORE PUSH1 0x24 PUSH1 0x0 REVERT JUMPDEST SWAP2 PUSH1 0x7F AND SWAP2 PUSH2 0x108C JUMP JUMPDEST SWAP1 PUSH1 0x40 MLOAD SWAP2 DUP3 PUSH1 0x0 DUP3 SLOAD SWAP3 PUSH2 0x10CB DUP5 PUSH2 0x107D JUMP JUMPDEST SWAP1 DUP2 DUP5 MSTORE PUSH1 0x1 SWAP5 DUP6 DUP2 AND SWAP1 DUP2 PUSH1 0x0 EQ PUSH2 0x113A JUMPI POP PUSH1 0x1 EQ PUSH2 0x10F7 JUMPI JUMPDEST POP POP PUSH2 0x10F5 SWAP3 POP SUB DUP4 PUSH2 0x1004 JUMP JUMPDEST JUMP JUMPDEST SWAP1 SWAP4 SWAP2 POP PUSH1 0x0 MSTORE PUSH1 0x20 SWAP1 DUP2 PUSH1 0x0 KECCAK256 SWAP4 PUSH1 0x0 SWAP2 JUMPDEST DUP2 DUP4 LT PUSH2 0x1122 JUMPI POP POP PUSH2 0x10F5 SWAP4 POP DUP3 ADD ADD CODESIZE DUP1 PUSH2 0x10E7 JUMP JUMPDEST DUP6 SLOAD DUP9 DUP5 ADD DUP6 ADD MSTORE SWAP5 DUP6 ADD SWAP5 DUP8 SWAP5 POP SWAP2 DUP4 ADD SWAP2 PUSH2 0x110A JUMP JUMPDEST SWAP2 POP POP PUSH2 0x10F5 SWAP5 POP PUSH1 0x20 SWAP3 POP PUSH1 0xFF NOT AND DUP3 DUP5 ADD MSTORE ISZERO ISZERO PUSH1 0x5 SHL DUP3 ADD ADD CODESIZE DUP1 PUSH2 0x10E7 JUMP JUMPDEST SWAP2 SWAP1 DUP3 MLOAD SWAP3 DUP4 DUP3 MSTORE PUSH1 0x0 JUMPDEST DUP5 DUP2 LT PUSH2 0x1189 JUMPI POP POP DUP3 PUSH1 0x0 PUSH1 0x20 DUP1 SWAP5 SWAP6 DUP5 ADD ADD MSTORE PUSH1 0x1F DUP1 NOT SWAP2 ADD AND ADD ADD SWAP1 JUMP JUMPDEST PUSH1 0x20 DUP2 DUP4 ADD DUP2 ADD MLOAD DUP5 DUP4 ADD DUP3 ADD MSTORE ADD PUSH2 0x1168 JUMP JUMPDEST PUSH1 0x0 SLOAD PUSH1 0x1 PUSH1 0x1 PUSH1 0xA0 SHL SUB AND CALLER SUB PUSH2 0x11B1 JUMPI JUMP JUMPDEST PUSH1 0x64 PUSH1 0x40 MLOAD PUSH3 0x461BCD PUSH1 0xE5 SHL DUP2 MSTORE PUSH1 0x20 PUSH1 0x4 DUP3 ADD MSTORE PUSH1 0x20 PUSH1 0x24 DUP3 ADD MSTORE PUSH32 0x4F776E61626C653A2063616C6C6572206973206E6F7420746865206F776E6572 PUSH1 0x44 DUP3 ADD MSTORE REVERT JUMPDEST SWAP1 DUP2 PUSH1 0x20 SWAP2 SUB SLT PUSH2 0xED JUMPI MLOAD DUP1 ISZERO ISZERO DUP2 SUB PUSH2 0xED JUMPI SWAP1 JUMP JUMPDEST ISZERO PUSH2 0x1214 JUMPI JUMP JUMPDEST PUSH1 0x40 MLOAD PUSH3 0x461BCD PUSH1 0xE5 SHL DUP2 MSTORE PUSH1 0x20 PUSH1 0x4 DUP3 ADD MSTORE PUSH1 0x15 PUSH1 0x24 DUP3 ADD MSTORE PUSH21 0x151BDAD95B881D1C985B9CD9995C8819985A5B1959 PUSH1 0x5A SHL PUSH1 0x44 DUP3 ADD MSTORE PUSH1 0x64 SWAP1 REVERT JUMPDEST ISZERO PUSH2 0x1258 JUMPI JUMP JUMPDEST PUSH1 0x40 MLOAD PUSH3 0x461BCD PUSH1 0xE5 SHL DUP2 MSTORE PUSH1 0x20 PUSH1 0x4 DUP3 ADD MSTORE PUSH1 0xD PUSH1 0x24 DUP3 ADD MSTORE PUSH13 0x496E76616C6964207374617465 PUSH1 0x98 SHL PUSH1 0x44 DUP3 ADD MSTORE PUSH1 0x64 SWAP1 REVERT JUMPDEST ISZERO PUSH2 0x1294 JUMPI JUMP JUMPDEST PUSH1 0x40 MLOAD PUSH3 0x461BCD PUSH1 0xE5 SHL DUP2 MSTORE PUSH1 0x20 PUSH1 0x4 DUP3 ADD MSTORE PUSH1 0xC PUSH1 0x24 DUP3 ADD MSTORE PUSH12 0x155B985D5D1A1BDC9A5E9959 PUSH1 0xA2 SHL PUSH1 0x44 DUP3 ADD MSTORE PUSH1 0x64 SWAP1 REVERT JUMPDEST SWAP1 PUSH1 0x0 SWAP3 SWAP2 DUP1 SLOAD SWAP2 PUSH2 0x12D9 DUP4 PUSH2 0x107D JUMP JUMPDEST SWAP2 DUP3 DUP3 MSTORE PUSH1 0x1 SWAP4 DUP5 DUP2 AND SWAP1 DUP2 PUSH1 0x0 EQ PUSH2 0x133B JUMPI POP PUSH1 0x1 EQ PUSH2 0x12FB JUMPI JUMPDEST POP POP POP POP JUMP JUMPDEST SWAP1 SWAP2 SWAP4 SWAP5 POP PUSH1 0x0 MSTORE PUSH1 0x20 SWAP3 DUP4 PUSH1 0x0 KECCAK256 SWAP3 DUP5 PUSH1 0x0 SWAP5 JUMPDEST DUP4 DUP7 LT PUSH2 0x1327 JUMPI POP POP POP POP ADD ADD SWAP1 CODESIZE DUP1 DUP1 DUP1 PUSH2 0x12F5 JUMP JUMPDEST DUP1 SLOAD DUP6 DUP8 ADD DUP4 ADD MSTORE SWAP5 ADD SWAP4 DUP6 SWAP1 DUP3 ADD PUSH2 0x1310 JUMP JUMPDEST SWAP3 SWAP5 POP POP POP PUSH1 0x20 SWAP4 SWAP5 POP PUSH1 0xFF NOT AND DUP4 DUP4 ADD MSTORE ISZERO ISZERO PUSH1 0x5 SHL ADD ADD SWAP1 CODESIZE DUP1 DUP1 DUP1 PUSH2 0x12F5 JUMP INVALID LOG2 PUSH5 0x6970667358 0x22 SLT KECCAK256 0xD5 PUSH7 0x5B740D6D1B3FB5 PUSH27 0x5A1C3469A251375C737A629A07D16F23398401D24C9764736F6C63 NUMBER STOP ADDMOD SLT STOP CALLER "
				},
				"gasEstimates": {
					"creation": {
						"codeDepositCost": "1002400",
						"executionCost": "infinite",
						"totalCost": "infinite"
					},
					"external": {
						"LOCK_PERIOD()": "177",
						"arbiter()": "2587",
						"createTransaction(uint256,address,uint256,string,string,string)": "infinite",
						"getTransactionDetails(uint256)": "infinite",
						"owner()": "2458",
						"refund(uint256)": "infinite",
						"releaseFunds(uint256)": "infinite",
						"renounceOwnership()": "28208",
						"setArbiter(address)": "26680",
						"setTurtleDocumentationAddress(address)": "26763",
						"token()": "2568",
						"transactions(uint256)": "infinite",
						"transferOwnership(address)": "28416",
						"turtleDocumentation()": "2524",
						"updateLockPeriod(uint256,uint256)": "24716"
					},
					"internal": {
						"lockFunds(uint256)": "infinite"
					}
				},
				"methodIdentifiers": {
					"LOCK_PERIOD()": "1820cabb",
					"arbiter()": "fe25e00a",
					"createTransaction(uint256,address,uint256,string,string,string)": "3d792f92",
					"getTransactionDetails(uint256)": "0fa683d3",
					"owner()": "8da5cb5b",
					"refund(uint256)": "278ecde1",
					"releaseFunds(uint256)": "4d68282f",
					"renounceOwnership()": "715018a6",
					"setArbiter(address)": "1c9c088a",
					"setTurtleDocumentationAddress(address)": "5996eda9",
					"token()": "fc0c546a",
					"transactions(uint256)": "9ace38c2",
					"transferOwnership(address)": "f2fde38b",
					"turtleDocumentation()": "ddb28071",
					"updateLockPeriod(uint256,uint256)": "d73a84e9"
				}
			},
			"storageLayout": {
				"storage": [
					{
						"astId": 7,
						"contract": "contracts/TurtleEscrow.sol:TurtleEscrow",
						"label": "_owner",
						"offset": 0,
						"slot": "0",
						"type": "t_address"
					},
					{
						"astId": 1014,
						"contract": "contracts/TurtleEscrow.sol:TurtleEscrow",
						"label": "transactions",
						"offset": 0,
						"slot": "1",
						"type": "t_mapping(t_uint256,t_struct(Transaction)1009_storage)"
					},
					{
						"astId": 1016,
						"contract": "contracts/TurtleEscrow.sol:TurtleEscrow",
						"label": "arbiter",
						"offset": 0,
						"slot": "2",
						"type": "t_address"
					},
					{
						"astId": 1022,
						"contract": "contracts/TurtleEscrow.sol:TurtleEscrow",
						"label": "token",
						"offset": 0,
						"slot": "3",
						"type": "t_contract(IERC20)190"
					},
					{
						"astId": 1025,
						"contract": "contracts/TurtleEscrow.sol:TurtleEscrow",
						"label": "turtleDocumentation",
						"offset": 0,
						"slot": "4",
						"type": "t_contract(ITurtleDocumentation)977"
					}
				],
				"types": {
					"t_address": {
						"encoding": "inplace",
						"label": "address",
						"numberOfBytes": "20"
					},
					"t_contract(IERC20)190": {
						"encoding": "inplace",
						"label": "contract IERC20",
						"numberOfBytes": "20"
					},
					"t_contract(ITurtleDocumentation)977": {
						"encoding": "inplace",
						"label": "contract ITurtleDocumentation",
						"numberOfBytes": "20"
					},
					"t_enum(State)989": {
						"encoding": "inplace",
						"label": "enum TurtleEscrow.State",
						"numberOfBytes": "1"
					},
					"t_mapping(t_uint256,t_struct(Transaction)1009_storage)": {
						"encoding": "mapping",
						"key": "t_uint256",
						"label": "mapping(uint256 => struct TurtleEscrow.Transaction)",
						"numberOfBytes": "32",
						"value": "t_struct(Transaction)1009_storage"
					},
					"t_string_storage": {
						"encoding": "bytes",
						"label": "string",
						"numberOfBytes": "32"
					},
					"t_struct(Transaction)1009_storage": {
						"encoding": "inplace",
						"label": "struct TurtleEscrow.Transaction",
						"members": [
							{
								"astId": 991,
								"contract": "contracts/TurtleEscrow.sol:TurtleEscrow",
								"label": "turtleId",
								"offset": 0,
								"slot": "0",
								"type": "t_string_storage"
							},
							{
								"astId": 993,
								"contract": "contracts/TurtleEscrow.sol:TurtleEscrow",
								"label": "buyerId",
								"offset": 0,
								"slot": "1",
								"type": "t_string_storage"
							},
							{
								"astId": 995,
								"contract": "contracts/TurtleEscrow.sol:TurtleEscrow",
								"label": "sellerId",
								"offset": 0,
								"slot": "2",
								"type": "t_string_storage"
							},
							{
								"astId": 997,
								"contract": "contracts/TurtleEscrow.sol:TurtleEscrow",
								"label": "buyer",
								"offset": 0,
								"slot": "3",
								"type": "t_address"
							},
							{
								"astId": 999,
								"contract": "contracts/TurtleEscrow.sol:TurtleEscrow",
								"label": "seller",
								"offset": 0,
								"slot": "4",
								"type": "t_address"
							},
							{
								"astId": 1001,
								"contract": "contracts/TurtleEscrow.sol:TurtleEscrow",
								"label": "amount",
								"offset": 0,
								"slot": "5",
								"type": "t_uint256"
							},
							{
								"astId": 1004,
								"contract": "contracts/TurtleEscrow.sol:TurtleEscrow",
								"label": "state",
								"offset": 0,
								"slot": "6",
								"type": "t_enum(State)989"
							},
							{
								"astId": 1006,
								"contract": "contracts/TurtleEscrow.sol:TurtleEscrow",
								"label": "createdAt",
								"offset": 0,
								"slot": "7",
								"type": "t_uint256"
							},
							{
								"astId": 1008,
								"contract": "contracts/TurtleEscrow.sol:TurtleEscrow",
								"label": "lockPeriod",
								"offset": 0,
								"slot": "8",
								"type": "t_uint256"
							}
						],
						"numberOfBytes": "288"
					},
					"t_uint256": {
						"encoding": "inplace",
						"label": "uint256",
						"numberOfBytes": "32"
					}
				}
			},
			"userdoc": {
				"kind": "user",
				"methods": {
					"createTransaction(uint256,address,uint256,string,string,string)": {
						"notice": "CEI 패턴 적용(Checks-Effects-Interactions) - Checks: 입력 값 검증 먼저 수행 - Effects: 거래 정보 상태에 저장 - Interactions: 토큰 전송"
					},
					"refund(uint256)": {
						"notice": "CEI 패턴 적용(Checks-Effects-Interactions) - Checks: 권한, 상태, 잠금 기간 확인 수행 - Effects: 거래 상태 업데이트 - Interactions: 토큰 전송"
					},
					"releaseFunds(uint256)": {
						"notice": "CEI 패턴 적용(Checks-Effects-Interactions) - Checks: 권한 및 상태 확인 수행 - Effects: 거래 상태 업데이트 - Interactions: 토큰 전송"
					}
				},
				"notice": "이 컨트랙트는 거북이 거래 에스크로 서비스를 제공합니다.",
				"version": 1
			}
		}
	}
}