{
	"contracts/TurtleToken.sol": {
		"TurtleToken": {
			"abi": [
				{
					"inputs": [
						{
							"internalType": "uint256",
							"name": "initialSupply",
							"type": "uint256"
						},
						{
							"internalType": "uint256",
							"name": "_exchangeRate",
							"type": "uint256"
						}
					],
					"stateMutability": "nonpayable",
					"type": "constructor"
				},
				{
					"inputs": [],
					"name": "InvalidShortString",
					"type": "error"
				},
				{
					"inputs": [
						{
							"internalType": "string",
							"name": "str",
							"type": "string"
						}
					],
					"name": "StringTooLong",
					"type": "error"
				},
				{
					"anonymous": false,
					"inputs": [
						{
							"indexed": true,
							"internalType": "address",
							"name": "owner",
							"type": "address"
						},
						{
							"indexed": true,
							"internalType": "address",
							"name": "spender",
							"type": "address"
						},
						{
							"indexed": false,
							"internalType": "uint256",
							"name": "value",
							"type": "uint256"
						}
					],
					"name": "Approval",
					"type": "event"
				},
				{
					"anonymous": false,
					"inputs": [],
					"name": "EIP712DomainChanged",
					"type": "event"
				},
				{
					"anonymous": false,
					"inputs": [
						{
							"indexed": true,
							"internalType": "address",
							"name": "previousOwner",
							"type": "address"
						},
						{
							"indexed": true,
							"internalType": "address",
							"name": "newOwner",
							"type": "address"
						}
					],
					"name": "OwnershipTransferred",
					"type": "event"
				},
				{
					"anonymous": false,
					"inputs": [
						{
							"indexed": true,
							"internalType": "address",
							"name": "buyer",
							"type": "address"
						},
						{
							"indexed": false,
							"internalType": "uint256",
							"name": "ethAmount",
							"type": "uint256"
						},
						{
							"indexed": false,
							"internalType": "uint256",
							"name": "tokenAmount",
							"type": "uint256"
						}
					],
					"name": "TokensPurchased",
					"type": "event"
				},
				{
					"anonymous": false,
					"inputs": [
						{
							"indexed": true,
							"internalType": "address",
							"name": "seller",
							"type": "address"
						},
						{
							"indexed": false,
							"internalType": "uint256",
							"name": "tokenAmount",
							"type": "uint256"
						},
						{
							"indexed": false,
							"internalType": "uint256",
							"name": "ethAmount",
							"type": "uint256"
						}
					],
					"name": "TokensSold",
					"type": "event"
				},
				{
					"anonymous": false,
					"inputs": [
						{
							"indexed": true,
							"internalType": "address",
							"name": "from",
							"type": "address"
						},
						{
							"indexed": true,
							"internalType": "address",
							"name": "to",
							"type": "address"
						},
						{
							"indexed": false,
							"internalType": "uint256",
							"name": "value",
							"type": "uint256"
						}
					],
					"name": "Transfer",
					"type": "event"
				},
				{
					"inputs": [],
					"name": "DOMAIN_SEPARATOR",
					"outputs": [
						{
							"internalType": "bytes32",
							"name": "",
							"type": "bytes32"
						}
					],
					"stateMutability": "view",
					"type": "function"
				},
				{
					"inputs": [
						{
							"internalType": "address",
							"name": "owner",
							"type": "address"
						},
						{
							"internalType": "address",
							"name": "spender",
							"type": "address"
						}
					],
					"name": "allowance",
					"outputs": [
						{
							"internalType": "uint256",
							"name": "",
							"type": "uint256"
						}
					],
					"stateMutability": "view",
					"type": "function"
				},
				{
					"inputs": [
						{
							"internalType": "address",
							"name": "spender",
							"type": "address"
						},
						{
							"internalType": "uint256",
							"name": "amount",
							"type": "uint256"
						}
					],
					"name": "approve",
					"outputs": [
						{
							"internalType": "bool",
							"name": "",
							"type": "bool"
						}
					],
					"stateMutability": "nonpayable",
					"type": "function"
				},
				{
					"inputs": [
						{
							"internalType": "address",
							"name": "account",
							"type": "address"
						}
					],
					"name": "balanceOf",
					"outputs": [
						{
							"internalType": "uint256",
							"name": "",
							"type": "uint256"
						}
					],
					"stateMutability": "view",
					"type": "function"
				},
				{
					"inputs": [],
					"name": "buyTokens",
					"outputs": [],
					"stateMutability": "payable",
					"type": "function"
				},
				{
					"inputs": [],
					"name": "decimals",
					"outputs": [
						{
							"internalType": "uint8",
							"name": "",
							"type": "uint8"
						}
					],
					"stateMutability": "view",
					"type": "function"
				},
				{
					"inputs": [
						{
							"internalType": "address",
							"name": "spender",
							"type": "address"
						},
						{
							"internalType": "uint256",
							"name": "subtractedValue",
							"type": "uint256"
						}
					],
					"name": "decreaseAllowance",
					"outputs": [
						{
							"internalType": "bool",
							"name": "",
							"type": "bool"
						}
					],
					"stateMutability": "nonpayable",
					"type": "function"
				},
				{
					"inputs": [],
					"name": "eip712Domain",
					"outputs": [
						{
							"internalType": "bytes1",
							"name": "fields",
							"type": "bytes1"
						},
						{
							"internalType": "string",
							"name": "name",
							"type": "string"
						},
						{
							"internalType": "string",
							"name": "version",
							"type": "string"
						},
						{
							"internalType": "uint256",
							"name": "chainId",
							"type": "uint256"
						},
						{
							"internalType": "address",
							"name": "verifyingContract",
							"type": "address"
						},
						{
							"internalType": "bytes32",
							"name": "salt",
							"type": "bytes32"
						},
						{
							"internalType": "uint256[]",
							"name": "extensions",
							"type": "uint256[]"
						}
					],
					"stateMutability": "view",
					"type": "function"
				},
				{
					"inputs": [],
					"name": "exchangeRate",
					"outputs": [
						{
							"internalType": "uint256",
							"name": "",
							"type": "uint256"
						}
					],
					"stateMutability": "view",
					"type": "function"
				},
				{
					"inputs": [
						{
							"internalType": "address",
							"name": "spender",
							"type": "address"
						},
						{
							"internalType": "uint256",
							"name": "addedValue",
							"type": "uint256"
						}
					],
					"name": "increaseAllowance",
					"outputs": [
						{
							"internalType": "bool",
							"name": "",
							"type": "bool"
						}
					],
					"stateMutability": "nonpayable",
					"type": "function"
				},
				{
					"inputs": [
						{
							"internalType": "address",
							"name": "to",
							"type": "address"
						},
						{
							"internalType": "uint256",
							"name": "amount",
							"type": "uint256"
						}
					],
					"name": "mint",
					"outputs": [],
					"stateMutability": "nonpayable",
					"type": "function"
				},
				{
					"inputs": [],
					"name": "name",
					"outputs": [
						{
							"internalType": "string",
							"name": "",
							"type": "string"
						}
					],
					"stateMutability": "view",
					"type": "function"
				},
				{
					"inputs": [
						{
							"internalType": "address",
							"name": "owner",
							"type": "address"
						}
					],
					"name": "nonces",
					"outputs": [
						{
							"internalType": "uint256",
							"name": "",
							"type": "uint256"
						}
					],
					"stateMutability": "view",
					"type": "function"
				},
				{
					"inputs": [],
					"name": "owner",
					"outputs": [
						{
							"internalType": "address",
							"name": "",
							"type": "address"
						}
					],
					"stateMutability": "view",
					"type": "function"
				},
				{
					"inputs": [
						{
							"internalType": "address",
							"name": "owner",
							"type": "address"
						},
						{
							"internalType": "address",
							"name": "spender",
							"type": "address"
						},
						{
							"internalType": "uint256",
							"name": "value",
							"type": "uint256"
						},
						{
							"internalType": "uint256",
							"name": "deadline",
							"type": "uint256"
						},
						{
							"internalType": "uint8",
							"name": "v",
							"type": "uint8"
						},
						{
							"internalType": "bytes32",
							"name": "r",
							"type": "bytes32"
						},
						{
							"internalType": "bytes32",
							"name": "s",
							"type": "bytes32"
						}
					],
					"name": "permit",
					"outputs": [],
					"stateMutability": "nonpayable",
					"type": "function"
				},
				{
					"inputs": [],
					"name": "renounceOwnership",
					"outputs": [],
					"stateMutability": "nonpayable",
					"type": "function"
				},
				{
					"inputs": [
						{
							"internalType": "uint256",
							"name": "tokenAmount",
							"type": "uint256"
						}
					],
					"name": "sellTokens",
					"outputs": [],
					"stateMutability": "nonpayable",
					"type": "function"
				},
				{
					"inputs": [
						{
							"internalType": "uint256",
							"name": "newRate",
							"type": "uint256"
						}
					],
					"name": "setExchangeRate",
					"outputs": [],
					"stateMutability": "nonpayable",
					"type": "function"
				},
				{
					"inputs": [],
					"name": "symbol",
					"outputs": [
						{
							"internalType": "string",
							"name": "",
							"type": "string"
						}
					],
					"stateMutability": "view",
					"type": "function"
				},
				{
					"inputs": [],
					"name": "totalSupply",
					"outputs": [
						{
							"internalType": "uint256",
							"name": "",
							"type": "uint256"
						}
					],
					"stateMutability": "view",
					"type": "function"
				},
				{
					"inputs": [
						{
							"internalType": "address",
							"name": "to",
							"type": "address"
						},
						{
							"internalType": "uint256",
							"name": "amount",
							"type": "uint256"
						}
					],
					"name": "transfer",
					"outputs": [
						{
							"internalType": "bool",
							"name": "",
							"type": "bool"
						}
					],
					"stateMutability": "nonpayable",
					"type": "function"
				},
				{
					"inputs": [
						{
							"internalType": "address",
							"name": "from",
							"type": "address"
						},
						{
							"internalType": "address",
							"name": "to",
							"type": "address"
						},
						{
							"internalType": "uint256",
							"name": "amount",
							"type": "uint256"
						}
					],
					"name": "transferFrom",
					"outputs": [
						{
							"internalType": "bool",
							"name": "",
							"type": "bool"
						}
					],
					"stateMutability": "nonpayable",
					"type": "function"
				},
				{
					"inputs": [
						{
							"internalType": "address",
							"name": "newOwner",
							"type": "address"
						}
					],
					"name": "transferOwnership",
					"outputs": [],
					"stateMutability": "nonpayable",
					"type": "function"
				},
				{
					"inputs": [],
					"name": "withdrawEth",
					"outputs": [],
					"stateMutability": "nonpayable",
					"type": "function"
				}
			],
			"devdoc": {
				"events": {
					"Approval(address,address,uint256)": {
						"details": "Emitted when the allowance of a `spender` for an `owner` is set by a call to {approve}. `value` is the new allowance."
					},
					"EIP712DomainChanged()": {
						"details": "MAY be emitted to signal that the domain could have changed."
					},
					"Transfer(address,address,uint256)": {
						"details": "Emitted when `value` tokens are moved from one account (`from`) to another (`to`). Note that `value` may be zero."
					}
				},
				"kind": "dev",
				"methods": {
					"DOMAIN_SEPARATOR()": {
						"details": "Returns the domain separator used in the encoding of the signature for {permit}, as defined by {EIP712}."
					},
					"allowance(address,address)": {
						"details": "See {IERC20-allowance}."
					},
					"approve(address,uint256)": {
						"details": "See {IERC20-approve}. NOTE: If `amount` is the maximum `uint256`, the allowance is not updated on `transferFrom`. This is semantically equivalent to an infinite approval. Requirements: - `spender` cannot be the zero address."
					},
					"balanceOf(address)": {
						"details": "See {IERC20-balanceOf}."
					},
					"decimals()": {
						"details": "Returns the number of decimals used to get its user representation. For example, if `decimals` equals `2`, a balance of `505` tokens should be displayed to a user as `5.05` (`505 / 10 ** 2`). Tokens usually opt for a value of 18, imitating the relationship between Ether and Wei. This is the default value returned by this function, unless it's overridden. NOTE: This information is only used for _display_ purposes: it in no way affects any of the arithmetic of the contract, including {IERC20-balanceOf} and {IERC20-transfer}."
					},
					"decreaseAllowance(address,uint256)": {
						"details": "Atomically decreases the allowance granted to `spender` by the caller. This is an alternative to {approve} that can be used as a mitigation for problems described in {IERC20-approve}. Emits an {Approval} event indicating the updated allowance. Requirements: - `spender` cannot be the zero address. - `spender` must have allowance for the caller of at least `subtractedValue`."
					},
					"eip712Domain()": {
						"details": "See {EIP-5267}. _Available since v4.9._"
					},
					"increaseAllowance(address,uint256)": {
						"details": "Atomically increases the allowance granted to `spender` by the caller. This is an alternative to {approve} that can be used as a mitigation for problems described in {IERC20-approve}. Emits an {Approval} event indicating the updated allowance. Requirements: - `spender` cannot be the zero address."
					},
					"name()": {
						"details": "Returns the name of the token."
					},
					"nonces(address)": {
						"details": "Returns the current nonce for `owner`. This value must be included whenever a signature is generated for {permit}. Every successful call to {permit} increases ``owner``'s nonce by one. This prevents a signature from being used multiple times."
					},
					"owner()": {
						"details": "Returns the address of the current owner."
					},
					"permit(address,address,uint256,uint256,uint8,bytes32,bytes32)": {
						"details": "Sets `value` as the allowance of `spender` over ``owner``'s tokens, given ``owner``'s signed approval. IMPORTANT: The same issues {IERC20-approve} has related to transaction ordering also apply here. Emits an {Approval} event. Requirements: - `spender` cannot be the zero address. - `deadline` must be a timestamp in the future. - `v`, `r` and `s` must be a valid `secp256k1` signature from `owner` over the EIP712-formatted function arguments. - the signature must use ``owner``'s current nonce (see {nonces}). For more information on the signature format, see the https://eips.ethereum.org/EIPS/eip-2612#specification[relevant EIP section]. CAUTION: See Security Considerations above."
					},
					"renounceOwnership()": {
						"details": "Leaves the contract without owner. It will not be possible to call `onlyOwner` functions. Can only be called by the current owner. NOTE: Renouncing ownership will leave the contract without an owner, thereby disabling any functionality that is only available to the owner."
					},
					"symbol()": {
						"details": "Returns the symbol of the token, usually a shorter version of the name."
					},
					"totalSupply()": {
						"details": "See {IERC20-totalSupply}."
					},
					"transfer(address,uint256)": {
						"details": "See {IERC20-transfer}. Requirements: - `to` cannot be the zero address. - the caller must have a balance of at least `amount`."
					},
					"transferFrom(address,address,uint256)": {
						"details": "See {IERC20-transferFrom}. Emits an {Approval} event indicating the updated allowance. This is not required by the EIP. See the note at the beginning of {ERC20}. NOTE: Does not update the allowance if the current allowance is the maximum `uint256`. Requirements: - `from` and `to` cannot be the zero address. - `from` must have a balance of at least `amount`. - the caller must have allowance for ``from``'s tokens of at least `amount`."
					},
					"transferOwnership(address)": {
						"details": "Transfers ownership of the contract to a new account (`newOwner`). Can only be called by the current owner."
					}
				},
				"version": 1
			},
			"evm": {
				"assembly": "    /* \"contracts/TurtleToken.sol\":255:3286  contract TurtleToken is ERC20, ERC20Permit, Ownable {... */\n  0x0160\n  jumpi(tag_8, callvalue)\n  0x1f\n  swap1\n  sub(shl(0x40, 0x01), 0x01)\n  swap1\n  not(0x1f)\n  swap1\n  bytecodeSize\n  swap1\n  codesize\n  dup3\n  swap1\n  sub\n  dup6\n  dup2\n  add\n  dup5\n  and\n  dup3\n  add\n  swap1\n  dup6\n  dup3\n  gt\n  dup4\n  dup4\n  lt\n  or\n  tag_6\n  jumpi\n  dup1\n  dup4\n  swap2\n  0x40\n  swap6\n  dup7\n  swap5\n  dup6\n  mstore\n  dup4\n  codecopy\n  dup2\n  add\n  sub\n  slt\n  tag_8\n  jumpi\n  dup1\n  mload\n  0x20\n  dup1\n  swap3\n  add\n  mload\n  swap2\n  dup4\n  mload\n  swap5\n  tag_10\n  dup7\n  tag_1\n  jump\t// in\ntag_10:\n  0x0b\n  dup7\n  mstore\n  dup2\n  dup7\n  add\n  swap7\n  shl(0xa9, 0x2a3ab93a3632aa37b5b2b7)\n  swap9\n  dup10\n  dup10\n  mstore\n  dup7\n  mload\n  swap10\n  tag_11\n  dup12\n  tag_1\n  jump\t// in\ntag_11:\n  0x0b\n  dup12\n  mstore\n  dup5\n  dup12\n  add\n  mstore\n  dup7\n  mload\n  swap10\n  tag_12\n  dup12\n  tag_1\n  jump\t// in\ntag_12:\n  0x04\n  swap4\n  dup5\n  dup13\n  mstore\n  shl(0xe2, 0x15155495)\n  dup7\n  dup14\n  add\n  mstore\n  dup9\n  mload\n  swap12\n  dup13\n  swap3\n  tag_13\n  dup5\n  tag_1\n  jump\t// in\ntag_13:\n  dup8\n  0x01\n  swap5\n  dup6\n  dup2\n  mstore\n  add\n  swap4\n  shl(0xf8, 0x31)\n  dup6\n  mstore\n  dup2\n  mload\n  dup8\n  dup2\n  gt\n  tag_27\n  jumpi\n    /* \"@openzeppelin/contracts/token/ERC20/ERC20.sol\":2046:2059  _name = name_ */\n  0x03\n    /* \"contracts/TurtleToken.sol\":255:3286  contract TurtleToken is ERC20, ERC20Permit, Ownable {... */\n  swap3\n  dup4\n  sload\n  dup4\n  dup2\n  dup2\n  shr\n  swap2\n  and\n  dup1\n  iszero\n  tag_16\n  jumpi\ntag_17:\n  dup13\n  dup3\n  lt\n  eq\n  tag_18\n  jumpi\n  swap1\n  dup12\n  dup3\n  dup11\n  dup6\n  swap5\n  gt\n  tag_20\n  jumpi\ntag_21:\n  pop\n  pop\n  dup12\n  swap1\n  dup10\n  dup4\n  gt\n  0x01\n  eq\n  tag_22\n  jumpi\n  0x00\n  swap3\n  tag_24\n  jumpi\ntag_25:\n  pop\n  pop\n  not(0x00)\n  dup3\n  dup6\n  shl\n  shr\n  not\n  and\n  swap1\n  dup3\n  shl\n  or\n  dup3\n  sstore\ntag_26:\n  dup3\n  mload\n  swap3\n  dup8\n  dup5\n  gt\n  tag_27\n  jumpi\n  dup9\n  sload\n  dup3\n  dup2\n  dup2\n  shr\n  swap2\n  and\n  dup1\n  iszero\n  tag_29\n  jumpi\ntag_30:\n  dup12\n  dup3\n  lt\n  eq\n  tag_31\n  jumpi\n  dup8\n  dup2\n  gt\n  tag_33\n  jumpi\ntag_34:\n  pop\n  dup10\n  swap1\n  dup8\n  dup6\n  gt\n  0x01\n  eq\n  tag_35\n  jumpi\n  dup5\n  swap6\n  pop\n  swap1\n  dup5\n  swap3\n  swap2\n  0x00\n  swap6\n  tag_37\n  jumpi\ntag_38:\n  pop\n  pop\n  shl\n  swap3\n  not(0x00)\n  swap2\n  shl\n  shr\n  not\n  and\n  or\n  dup5\n  sstore\ntag_39:\n    /* \"@openzeppelin/contracts/utils/cryptography/EIP712.sol\":3251:3296  name.toShortStringWithFallback(_nameFallback) */\n  tag_40\n  dup10\n  tag_2\n  jump\t// in\ntag_40:\n    /* \"@openzeppelin/contracts/utils/cryptography/EIP712.sol\":3243:3296  _name = name.toShortStringWithFallback(_nameFallback) */\n  swap10\n  0x0120\n  swap11\n  dup12\n  mstore\n    /* \"@openzeppelin/contracts/utils/cryptography/EIP712.sol\":3317:3368  version.toShortStringWithFallback(_versionFallback) */\n  tag_41\n  dup13\n  tag_3\n  jump\t// in\ntag_41:\n    /* \"@openzeppelin/contracts/utils/cryptography/EIP712.sol\":3306:3368  _version = version.toShortStringWithFallback(_versionFallback) */\n  swap10\n  0x0140\n  swap11\n  dup12\n  mstore\n    /* \"contracts/TurtleToken.sol\":255:3286  contract TurtleToken is ERC20, ERC20Permit, Ownable {... */\n  mload\n    /* \"@openzeppelin/contracts/utils/cryptography/EIP712.sol\":3392:3414  keccak256(bytes(name)) */\n  swap1\n  keccak256\n    /* \"@openzeppelin/contracts/utils/cryptography/EIP712.sol\":3378:3414  _hashedName = keccak256(bytes(name)) */\n  swap11\n  dup12\n  0xe0\n  mstore\n    /* \"contracts/TurtleToken.sol\":255:3286  contract TurtleToken is ERC20, ERC20Permit, Ownable {... */\n  mload\n    /* \"@openzeppelin/contracts/utils/cryptography/EIP712.sol\":3441:3466  keccak256(bytes(version)) */\n  swap1\n  keccak256\n    /* \"@openzeppelin/contracts/utils/cryptography/EIP712.sol\":3424:3466  _hashedVersion = keccak256(bytes(version)) */\n  swap1\n  0x0100\n  swap11\n  dup3\n  dup13\n  mstore\n    /* \"@openzeppelin/contracts/utils/cryptography/EIP712.sol\":3494:3507  block.chainid */\n  chainid\n    /* \"@openzeppelin/contracts/utils/cryptography/EIP712.sol\":3477:3507  _cachedChainId = block.chainid */\n  0xa0\n  mstore\n    /* \"contracts/TurtleToken.sol\":255:3286  contract TurtleToken is ERC20, ERC20Permit, Ownable {... */\n  dup9\n  mload\n    /* \"@openzeppelin/contracts/utils/cryptography/EIP712.sol\":4054:4135  abi.encode(_TYPE_HASH, _hashedName, _hashedVersion, block.chainid, address(this)) */\n  swap3\n  dup7\n  dup5\n  add\n    /* \"contracts/TurtleToken.sol\":255:3286  contract TurtleToken is ERC20, ERC20Permit, Ownable {... */\n  swap2\n    /* \"@openzeppelin/contracts/utils/cryptography/EIP712.sol\":1929:2024  keccak256(\"EIP712Domain(string name,string version,uint256 chainId,address verifyingContract)\") */\n  0x8b73c3c69bb8fe3d512ecc4cf759cc79239f7b179b0ffacaa9a75d522b39400f\n    /* \"contracts/TurtleToken.sol\":255:3286  contract TurtleToken is ERC20, ERC20Permit, Ownable {... */\n  dup4\n  mstore\n    /* \"@openzeppelin/contracts/utils/cryptography/EIP712.sol\":1929:2024  keccak256(\"EIP712Domain(string name,string version,uint256 chainId,address verifyingContract)\") */\n  dup11\n  dup6\n  add\n    /* \"contracts/TurtleToken.sol\":255:3286  contract TurtleToken is ERC20, ERC20Permit, Ownable {... */\n  mstore\n    /* \"@openzeppelin/contracts/utils/cryptography/EIP712.sol\":1929:2024  keccak256(\"EIP712Domain(string name,string version,uint256 chainId,address verifyingContract)\") */\n  0x60\n  dup5\n  add\n    /* \"contracts/TurtleToken.sol\":255:3286  contract TurtleToken is ERC20, ERC20Permit, Ownable {... */\n  mstore\n    /* \"@openzeppelin/contracts/utils/cryptography/EIP712.sol\":3494:3507  block.chainid */\n  chainid\n    /* \"@openzeppelin/contracts/utils/cryptography/EIP712.sol\":1929:2024  keccak256(\"EIP712Domain(string name,string version,uint256 chainId,address verifyingContract)\") */\n  0x80\n  dup5\n  add\n    /* \"contracts/TurtleToken.sol\":255:3286  contract TurtleToken is ERC20, ERC20Permit, Ownable {... */\n  mstore\n    /* \"@openzeppelin/contracts/utils/cryptography/EIP712.sol\":4129:4133  this */\n  address\n    /* \"@openzeppelin/contracts/utils/cryptography/EIP712.sol\":3477:3507  _cachedChainId = block.chainid */\n  0xa0\n    /* \"@openzeppelin/contracts/utils/cryptography/EIP712.sol\":1929:2024  keccak256(\"EIP712Domain(string name,string version,uint256 chainId,address verifyingContract)\") */\n  dup5\n  add\n  mstore\n    /* \"@openzeppelin/contracts/utils/cryptography/EIP712.sol\":3477:3507  _cachedChainId = block.chainid */\n  0xa0\n    /* \"@openzeppelin/contracts/utils/cryptography/EIP712.sol\":4054:4135  abi.encode(_TYPE_HASH, _hashedName, _hashedVersion, block.chainid, address(this)) */\n  dup4\n  mstore\n    /* \"@openzeppelin/contracts/utils/cryptography/EIP712.sol\":1929:2024  keccak256(\"EIP712Domain(string name,string version,uint256 chainId,address verifyingContract)\") */\n  0xc0\n    /* \"contracts/TurtleToken.sol\":255:3286  contract TurtleToken is ERC20, ERC20Permit, Ownable {... */\n  dup4\n  add\n  swap4\n  dup4\n  dup6\n  lt\n  swap1\n  dup6\n  gt\n  or\n  tag_42\n  jumpi\n  dup4\n  dup10\n  mstore\n  dup3\n  mload\n    /* \"@openzeppelin/contracts/utils/cryptography/EIP712.sol\":4044:4136  keccak256(abi.encode(_TYPE_HASH, _hashedName, _hashedVersion, block.chainid, address(this))) */\n  swap1\n  keccak256\n    /* \"@openzeppelin/contracts/utils/cryptography/EIP712.sol\":1929:2024  keccak256(\"EIP712Domain(string name,string version,uint256 chainId,address verifyingContract)\") */\n  0x80\n    /* \"@openzeppelin/contracts/utils/cryptography/EIP712.sol\":3517:3565  _cachedDomainSeparator = _buildDomainSeparator() */\n  mstore\n    /* \"@openzeppelin/contracts/utils/cryptography/EIP712.sol\":4129:4133  this */\n  address\n    /* \"@openzeppelin/contracts/utils/cryptography/EIP712.sol\":1929:2024  keccak256(\"EIP712Domain(string name,string version,uint256 chainId,address verifyingContract)\") */\n  0xc0\n    /* \"@openzeppelin/contracts/utils/cryptography/EIP712.sol\":3575:3602  _cachedThis = address(this) */\n  mstore\n    /* \"@openzeppelin/contracts/access/Ownable.sol\":2518:2524  _owner */\n  0x09\n    /* \"contracts/TurtleToken.sol\":255:3286  contract TurtleToken is ERC20, ERC20Permit, Ownable {... */\n  dup1\n  sload\n    /* \"@openzeppelin/contracts/utils/Context.sol\":734:744  msg.sender */\n  caller\n  not(sub(shl(0xa0, 0x01), 0x01))\n    /* \"contracts/TurtleToken.sol\":255:3286  contract TurtleToken is ERC20, ERC20Permit, Ownable {... */\n  dup3\n  and\n  dup2\n  or\n  swap1\n  swap3\n  sstore\n  sub(shl(0xa0, 0x01), 0x01)\n  and\n    /* \"@openzeppelin/contracts/access/Ownable.sol\":2566:2606  OwnershipTransferred(oldOwner, newOwner) */\n  0x8be0079c531659141344cd1fd0a4f28419497f9722a3daafe3b4186f6b6457e0\n  0x00\n  dup1\n  log3\n    /* \"@openzeppelin/contracts/utils/cryptography/EIP712.sol\":4129:4133  this */\n  address\n    /* \"@openzeppelin/contracts/token/ERC20/ERC20.sol\":8603:8624  account != address(0) */\n  iszero\n    /* \"contracts/TurtleToken.sol\":255:3286  contract TurtleToken is ERC20, ERC20Permit, Ownable {... */\n  tag_44\n  jumpi\n  pop\n  pop\n  pop\n    /* \"@openzeppelin/contracts/token/ERC20/ERC20.sol\":8731:8753  _totalSupply += amount */\n  0x02\n    /* \"contracts/TurtleToken.sol\":255:3286  contract TurtleToken is ERC20, ERC20Permit, Ownable {... */\n  sload\n  swap1\n  dup4\n  dup3\n  add\n  dup1\n  swap3\n  gt\n  tag_46\n  jumpi\n  pop\n  0x00\n  swap2\n    /* \"@openzeppelin/contracts/token/ERC20/ERC20.sol\":8952:8989  Transfer(address(0), account, amount) */\n  0xddf252ad1be2c89b69c2b068fc378daa952ba7f163c4a11628f55a4df523b3ef\n    /* \"contracts/TurtleToken.sol\":255:3286  contract TurtleToken is ERC20, ERC20Permit, Ownable {... */\n  swap2\n    /* \"@openzeppelin/contracts/token/ERC20/ERC20.sol\":8731:8753  _totalSupply += amount */\n  0x02\n    /* \"contracts/TurtleToken.sol\":255:3286  contract TurtleToken is ERC20, ERC20Permit, Ownable {... */\n  sstore\n    /* \"@openzeppelin/contracts/utils/cryptography/EIP712.sol\":4129:4133  this */\n  address\n    /* \"contracts/TurtleToken.sol\":255:3286  contract TurtleToken is ERC20, ERC20Permit, Ownable {... */\n  dup4\n  mstore\n  dup3\n  dup2\n  mstore\n  dup6\n  dup4\n  keccak256\n  dup5\n  dup2\n  sload\n  add\n  swap1\n  sstore\n  dup6\n  mload\n  swap4\n  dup5\n  mstore\n    /* \"@openzeppelin/contracts/utils/cryptography/EIP712.sol\":4129:4133  this */\n  address\n    /* \"@openzeppelin/contracts/token/ERC20/ERC20.sol\":8952:8989  Transfer(address(0), account, amount) */\n  swap4\n  log3\n    /* \"contracts/TurtleToken.sol\":1046:1074  exchangeRate = _exchangeRate */\n  0x0a\n    /* \"contracts/TurtleToken.sol\":255:3286  contract TurtleToken is ERC20, ERC20Permit, Ownable {... */\n  sstore\n  mload\n  swap2\n  dataSize(sub_0)\n  swap4\n  dup5\n  dataOffset(sub_0)\n  dup6\n  codecopy\n    /* \"@openzeppelin/contracts/utils/cryptography/EIP712.sol\":1929:2024  keccak256(\"EIP712Domain(string name,string version,uint256 chainId,address verifyingContract)\") */\n  0x80\n    /* \"contracts/TurtleToken.sol\":255:3286  contract TurtleToken is ERC20, ERC20Permit, Ownable {... */\n  mload\n  dup5\n  assignImmutable(\"0x923831463c3a49e9922442ac185c857970685647ffa411016bb09cd1e1a613f6\")\n    /* \"@openzeppelin/contracts/utils/cryptography/EIP712.sol\":3477:3507  _cachedChainId = block.chainid */\n  0xa0\n    /* \"contracts/TurtleToken.sol\":255:3286  contract TurtleToken is ERC20, ERC20Permit, Ownable {... */\n  mload\n  dup5\n  assignImmutable(\"0x1dda9873baa24e5dc3a48371aa5a89ce85f19f9dd041db3ba184e623299b8433\")\n    /* \"@openzeppelin/contracts/utils/cryptography/EIP712.sol\":1929:2024  keccak256(\"EIP712Domain(string name,string version,uint256 chainId,address verifyingContract)\") */\n  0xc0\n    /* \"contracts/TurtleToken.sol\":255:3286  contract TurtleToken is ERC20, ERC20Permit, Ownable {... */\n  mload\n  dup5\n  assignImmutable(\"0x4814dc1be776080d361f6793401698ee1cdc54b485fd7f233308314eec077dfe\")\n    /* \"@openzeppelin/contracts/utils/cryptography/EIP712.sol\":3378:3414  _hashedName = keccak256(bytes(name)) */\n  0xe0\n    /* \"contracts/TurtleToken.sol\":255:3286  contract TurtleToken is ERC20, ERC20Permit, Ownable {... */\n  mload\n  dup5\n  assignImmutable(\"0x4f722aad0315bc3832e551ccf6da3e098baeb8ee055023fde26c377410bf01b8\")\n  mload\n  dup4\n  assignImmutable(\"0xa2e64fbf175a4ab12443e929d11bd296058f26b9a652a2d5603d5bee0fd8697c\")\n  mload\n  dup3\n  assignImmutable(\"0xf37f94c83e8ae3e86e80cd7576891958f944d71876ecc57afee80c72eff8fc49\")\n  mload\n  dup2\n  assignImmutable(\"0x93aeedc5738c14a3407eea019f74cb3fdf1e2080f952a08792cd4aaf16d6a467\")\n  return\ntag_46:\n  0x11\n  swap1\n  mstore(0x00, shl(0xe0, 0x4e487b71))\n  mstore\n  revert(0x00, 0x24)\ntag_44:\n  0x0104\n  0x64\n  swap4\n  swap3\n  0x45524332303a206d696e7420746f20746865207a65726f206164647265737300\n  swap3\n  dup8\n  shl(0xe5, 0x461bcd)\n  dup7\n  mstore\n  0xc4\n  dup4\n  add\n  mstore\n  0xe4\n  dup3\n  add\n  mstore\n  add\n  mstore\n  revert\ntag_42:\n  0x41\n  dup6\n  mstore(0x00, shl(0xe0, 0x4e487b71))\n  mstore\n  revert(0x00, 0x24)\ntag_37:\n  add\n  mload\n  swap4\n  pop\n  codesize\n  dup1\n  jump(tag_38)\ntag_35:\n  swap3\n  swap2\n  swap5\n  dup5\n  and\n  swap3\n  dup10\n  0x00\n  mstore\n  dup5\n  dup12\n  0x00\n  keccak256\n  swap5\n  0x00\ntag_48:\n  dup14\n  dup10\n  dup4\n  dup4\n  lt\n  tag_49\n  jumpi\n  pop\n  pop\n  pop\n  lt\n  tag_51\n  jumpi\ntag_52:\n  pop\n  pop\n  pop\n  pop\n  dup2\n  shl\n  add\n  dup5\n  sstore\n  jump(tag_39)\ntag_51:\n  add\n  mload\n  swap1\n  0xf8\n  dup5\n  not(0x00)\n  swap3\n  shl\n  and\n  shr\n  not\n  and\n  swap1\n  sstore\n  codesize\n  dup1\n  dup1\n  dup1\n  jump(tag_52)\ntag_49:\n  dup7\n  dup7\n  add\n  mload\n  dup10\n  sstore\n  swap1\n  swap8\n  add\n  swap7\n  swap5\n  dup6\n  add\n  swap5\n  dup9\n  swap4\n  pop\n  add\n  jump(tag_48)\ntag_33:\n  dup10\n  0x00\n  mstore\n  dup11\n  0x00\n  keccak256\n  dup9\n  dup1\n  dup8\n  add\n  0x05\n  shr\n  dup3\n  add\n  swap3\n  dup14\n  dup9\n  lt\n  tag_53\n  jumpi\ntag_54:\n  add\n  0x05\n  shr\n  add\n  swap1\n  dup4\n  swap1\ntag_55:\n  dup3\n  dup2\n  lt\n  tag_56\n  jumpi\n  pop\n  pop\n  jump(tag_34)\ntag_56:\n  0x00\n  dup2\n  sstore\n  add\n  dup4\n  swap1\n  jump(tag_55)\ntag_53:\n  swap3\n  pop\n  dup2\n  swap3\n  jump(tag_54)\ntag_31:\n  0x22\n  dup11\n  mstore(0x00, shl(0xe0, 0x4e487b71))\n  mstore\n  revert(0x00, 0x24)\ntag_29:\n  swap1\n  0x7f\n  and\n  swap1\n  jump(tag_30)\ntag_27:\n  0x41\n  dup10\n  mstore(0x00, shl(0xe0, 0x4e487b71))\n  mstore\n  revert(0x00, 0x24)\ntag_24:\n  add\n  mload\n  swap1\n  pop\n  codesize\n  dup1\n  jump(tag_25)\ntag_22:\n  swap1\n  dup13\n  swap2\n  dup9\n  dup7\n  swap6\n  and\n  dup8\n  0x00\n  mstore\n  dup4\n  0x00\n  keccak256\n  swap4\n  0x00\n  swap1\ntag_58:\n  dup3\n  dup3\n  lt\n  tag_59\n  jumpi\n  pop\n  pop\n  dup5\n  gt\n  tag_61\n  jumpi\ntag_62:\n  pop\n  pop\n  pop\n  dup2\n  shl\n  add\n  dup3\n  sstore\n  jump(tag_26)\ntag_61:\n  add\n  mload\n  not(0x00)\n  dup4\n  dup8\n  shl\n  0xf8\n  and\n  shr\n  not\n  and\n  swap1\n  sstore\n  codesize\n  dup1\n  dup1\n  jump(tag_62)\ntag_59:\n  dup4\n  dup6\n  add\n  mload\n  dup7\n  sstore\n  dup9\n  swap8\n  swap1\n  swap6\n  add\n  swap5\n  swap4\n  dup5\n  add\n  swap4\n  add\n  dup16\n  jump(tag_58)\ntag_20:\n  swap1\n  swap2\n  swap3\n  pop\n  dup6\n  0x00\n  mstore\n  dup10\n  dup3\n  0x00\n  keccak256\n  swap2\n  dup2\n  dup7\n  add\n  0x05\n  shr\n  dup4\n  add\n  swap4\n  dup7\n  lt\n  tag_63\n  jumpi\ntag_64:\n  swap2\n  dup7\n  swap2\n  dup7\n  swap6\n  swap5\n  swap4\n  add\n  0x05\n  shr\n  add\n  swap2\ntag_65:\n  dup3\n  dup2\n  lt\n  tag_66\n  jumpi\n  pop\n  dup14\n  swap2\n  pop\n  jump(tag_21)\ntag_66:\n  0x00\n  dup2\n  sstore\n  dup6\n  swap5\n  pop\n  dup7\n  swap2\n  add\n  jump(tag_65)\ntag_63:\n  swap3\n  pop\n  dup2\n  swap3\n  jump(tag_64)\ntag_18:\n  0x22\n  dup12\n  mstore(0x00, shl(0xe0, 0x4e487b71))\n  mstore\n  revert(0x00, 0x24)\ntag_16:\n  swap1\n  0x7f\n  and\n  swap1\n  jump(tag_17)\ntag_8:\n  0x00\n  dup1\n  revert\ntag_6:\n  mstore(0x00, shl(0xe0, 0x4e487b71))\n  mstore(0x04, 0x41)\n  revert(0x00, 0x24)\ntag_1:\n  0x40\n  dup2\n  add\n  swap1\n  dup2\n  lt\n  sub(shl(0x40, 0x01), 0x01)\n  dup3\n  gt\n  or\n  tag_6\n  jumpi\n  0x40\n  mstore\n  jump\t// out\n    /* \"@openzeppelin/contracts/utils/ShortStrings.sol\":2895:3236  function toShortStringWithFallback(string memory value, string storage store) internal returns (ShortString) {... */\ntag_2:\n    /* \"contracts/TurtleToken.sol\":255:3286  contract TurtleToken is ERC20, ERC20Permit, Ownable {... */\n  dup1\n  mload\n    /* \"@openzeppelin/contracts/utils/ShortStrings.sol\":3040:3042  32 */\n  0x20\n  swap2\n    /* \"contracts/TurtleToken.sol\":255:3286  contract TurtleToken is ERC20, ERC20Permit, Ownable {... */\n  swap1\n    /* \"@openzeppelin/contracts/utils/ShortStrings.sol\":3018:3042  bytes(value).length < 32 */\n  dup3\n  dup2\n  lt\n    /* \"@openzeppelin/contracts/utils/ShortStrings.sol\":3040:3042  32 */\n  iszero\n  tag_70\n  jumpi\n    /* \"contracts/TurtleToken.sol\":255:3286  contract TurtleToken is ERC20, ERC20Permit, Ownable {... */\n  pop\n  swap1\n    /* \"@openzeppelin/contracts/utils/ShortStrings.sol\":1835:1837  31 */\n  0x1f\n    /* \"contracts/TurtleToken.sol\":255:3286  contract TurtleToken is ERC20, ERC20Permit, Ownable {... */\n  dup3\n  mload\n    /* \"@openzeppelin/contracts/utils/ShortStrings.sol\":1821:1837  bstr.length > 31 */\n  gt\n    /* \"@openzeppelin/contracts/utils/ShortStrings.sol\":1817:1889  if (bstr.length > 31) {... */\n  tag_72\n  jumpi\n    /* \"contracts/TurtleToken.sol\":255:3286  contract TurtleToken is ERC20, ERC20Permit, Ownable {... */\n  dup1\n  dup3\n  mload\n  swap3\n  add\n  mload\n  swap1\n  dup1\n  dup4\n  lt\n  tag_74\n  jumpi\n    /* \"@openzeppelin/contracts/utils/ShortStrings.sol\":1930:1966  uint256(bytes32(bstr)) | bstr.length */\n  pop\n  or\n    /* \"@openzeppelin/contracts/utils/ShortStrings.sol\":3058:3085  return toShortString(value) */\n  swap1\n  jump\t// out\n    /* \"contracts/TurtleToken.sol\":255:3286  contract TurtleToken is ERC20, ERC20Permit, Ownable {... */\ntag_74:\n  dup3\n  not(0x00)\n  swap2\n  sub\n  0x03\n  shl\n  shl\n  and\n    /* \"@openzeppelin/contracts/utils/ShortStrings.sol\":1930:1966  uint256(bytes32(bstr)) | bstr.length */\n  or\n    /* \"@openzeppelin/contracts/utils/ShortStrings.sol\":3058:3085  return toShortString(value) */\n  swap1\n  jump\t// out\n    /* \"@openzeppelin/contracts/utils/ShortStrings.sol\":1817:1889  if (bstr.length > 31) {... */\ntag_72:\n    /* \"contracts/TurtleToken.sol\":255:3286  contract TurtleToken is ERC20, ERC20Permit, Ownable {... */\n  swap1\n  mload(0x40)\n    /* \"@openzeppelin/contracts/utils/ShortStrings.sol\":1860:1878  StringTooLong(str) */\n  dup1\n  swap3\n  shl(0xe0, 0x305a27a9)\n  dup3\n  mstore\n  dup1\n  0x04\n  dup4\n  add\n    /* \"contracts/TurtleToken.sol\":255:3286  contract TurtleToken is ERC20, ERC20Permit, Ownable {... */\n  mstore\n  dup3\n  mload\n  swap1\n  dup2\n  0x24\n  dup5\n  add\n  mstore\n  0x00\n  swap4\ntag_76:\n  dup3\n  dup6\n  lt\n  tag_77\n  jumpi\n  pop\n  pop\n  0x44\n  swap3\n  pop\n  0x00\n  dup4\n  dup3\n  dup5\n  add\n  add\n  mstore\n    /* \"@openzeppelin/contracts/utils/ShortStrings.sol\":1835:1837  31 */\n  0x1f\n    /* \"contracts/TurtleToken.sol\":255:3286  contract TurtleToken is ERC20, ERC20Permit, Ownable {... */\n  dup1\n  not\n  swap2\n  add\n  and\n  dup2\n  add\n    /* \"@openzeppelin/contracts/utils/ShortStrings.sol\":1860:1878  StringTooLong(str) */\n  sub\n  add\n  swap1\n  revert\n    /* \"contracts/TurtleToken.sol\":255:3286  contract TurtleToken is ERC20, ERC20Permit, Ownable {... */\ntag_77:\n  dup5\n  dup2\n  add\n  dup3\n  add\n  mload\n  dup7\n  dup7\n  add\n  0x44\n  add\n  mstore\n  swap4\n  dup2\n  add\n  swap4\n  dup6\n  swap4\n  pop\n  jump(tag_76)\n    /* \"@openzeppelin/contracts/utils/ShortStrings.sol\":3014:3230  if (bytes(value).length < 32) {... */\ntag_70:\n  sub(shl(0x40, 0x01), 0x01)\n    /* \"contracts/TurtleToken.sol\":255:3286  contract TurtleToken is ERC20, ERC20Permit, Ownable {... */\n  dup2\n  gt\n  tag_6\n  jumpi\n    /* \"@openzeppelin/contracts/utils/cryptography/EIP712.sol\":3282:3295  _nameFallback */\n  0x05\n    /* \"contracts/TurtleToken.sol\":255:3286  contract TurtleToken is ERC20, ERC20Permit, Ownable {... */\n  swap3\n  dup4\n  sload\n  swap3\n  0x01\n  swap4\n  dup5\n  dup2\n  dup2\n  shr\n  swap2\n  and\n  dup1\n  iszero\n  tag_81\n  jumpi\n    /* \"@openzeppelin/contracts/utils/ShortStrings.sol\":3014:3230  if (bytes(value).length < 32) {... */\ntag_82:\n    /* \"contracts/TurtleToken.sol\":255:3286  contract TurtleToken is ERC20, ERC20Permit, Ownable {... */\n  dup4\n  dup3\n  lt\n  eq\n  tag_83\n  jumpi\n  0x1f\n  dup2\n  gt\n  tag_85\n  jumpi\n    /* \"@openzeppelin/contracts/utils/ShortStrings.sol\":3014:3230  if (bytes(value).length < 32) {... */\ntag_86:\n    /* \"contracts/TurtleToken.sol\":255:3286  contract TurtleToken is ERC20, ERC20Permit, Ownable {... */\n  pop\n  dup2\n  0x1f\n  dup5\n  gt\n  0x01\n  eq\n  tag_87\n  jumpi\n  pop\n  swap3\n  dup3\n  swap4\n  swap2\n  dup4\n  swap3\n  0x00\n  swap5\n  tag_89\n  jumpi\ntag_90:\n  pop\n  pop\n  shl\n  swap2\n  not(0x00)\n  swap1\n  0x03\n  shl\n  shr\n  not\n  and\n  or\n  swap1\n  sstore\n    /* \"@openzeppelin/contracts/utils/ShortStrings.sol\":1371:1437  0x00000000000000000000000000000000000000000000000000000000000000FF */\n  0xff\n    /* \"@openzeppelin/contracts/utils/ShortStrings.sol\":3176:3219  return ShortString.wrap(_FALLBACK_SENTINEL) */\n  swap1\n  jump\t// out\n    /* \"contracts/TurtleToken.sol\":255:3286  contract TurtleToken is ERC20, ERC20Permit, Ownable {... */\ntag_89:\n  add\n  mload\n  swap3\n  pop\n  codesize\n  dup1\n  jump(tag_90)\ntag_87:\n  swap2\n  swap1\n  dup4\n  not(0x1f)\n  dup2\n  and\n  dup8\n  0x00\n  mstore\n  dup5\n  0x00\n  keccak256\n  swap5\n  0x00\n  swap1\ntag_92:\n  dup9\n  dup4\n  dup4\n  lt\n  tag_93\n  jumpi\n  pop\n  pop\n  pop\n  lt\n  tag_95\n  jumpi\ntag_96:\n  pop\n  pop\n  pop\n  dup2\n  shl\n  add\n  swap1\n  sstore\n    /* \"@openzeppelin/contracts/utils/ShortStrings.sol\":1371:1437  0x00000000000000000000000000000000000000000000000000000000000000FF */\n  0xff\n    /* \"@openzeppelin/contracts/utils/ShortStrings.sol\":3176:3219  return ShortString.wrap(_FALLBACK_SENTINEL) */\n  swap1\n  jump\t// out\n    /* \"contracts/TurtleToken.sol\":255:3286  contract TurtleToken is ERC20, ERC20Permit, Ownable {... */\ntag_95:\n  add\n  mload\n  not(0x00)\n  0xf8\n  dup5\n  0x03\n  shl\n  and\n  shr\n  not\n  and\n  swap1\n  sstore\n  codesize\n  dup1\n  dup1\n  jump(tag_96)\ntag_93:\n  dup6\n  dup8\n  add\n  mload\n  dup9\n  sstore\n  swap1\n  swap7\n  add\n  swap6\n  swap5\n  dup6\n  add\n  swap5\n  dup8\n  swap4\n  pop\n  swap1\n  dup2\n  add\n  swap1\n  jump(tag_92)\ntag_85:\n  dup6\n  0x00\n  mstore\n  dup5\n  0x1f\n  dup5\n  0x00\n  keccak256\n  swap3\n  add\n  dup8\n  shr\n  dup3\n  add\n  swap2\n  0x1f\n  dup7\n  add\n  dup9\n  shr\n  add\ntag_97:\n  dup3\n  dup2\n  lt\n  tag_98\n  jumpi\n  pop\n  pop\n  jump(tag_86)\ntag_98:\n  0x00\n  dup2\n  sstore\n  add\n  dup6\n  swap1\n  jump(tag_97)\ntag_83:\n  mstore(0x00, shl(0xe0, 0x4e487b71))\n  mstore(0x04, 0x22)\n  revert(0x00, 0x24)\ntag_81:\n  swap1\n  0x7f\n  and\n  swap1\n  jump(tag_82)\n    /* \"@openzeppelin/contracts/utils/ShortStrings.sol\":2895:3236  function toShortStringWithFallback(string memory value, string storage store) internal returns (ShortString) {... */\ntag_3:\n    /* \"contracts/TurtleToken.sol\":255:3286  contract TurtleToken is ERC20, ERC20Permit, Ownable {... */\n  dup1\n  mload\n    /* \"@openzeppelin/contracts/utils/ShortStrings.sol\":3040:3042  32 */\n  0x20\n  swap1\n    /* \"@openzeppelin/contracts/utils/ShortStrings.sol\":3018:3042  bytes(value).length < 32 */\n  dup2\n  dup2\n  lt\n    /* \"@openzeppelin/contracts/utils/ShortStrings.sol\":3040:3042  32 */\n  iszero\n  tag_100\n  jumpi\n    /* \"contracts/TurtleToken.sol\":255:3286  contract TurtleToken is ERC20, ERC20Permit, Ownable {... */\n  pop\n    /* \"@openzeppelin/contracts/utils/ShortStrings.sol\":1835:1837  31 */\n  0x1f\n    /* \"contracts/TurtleToken.sol\":255:3286  contract TurtleToken is ERC20, ERC20Permit, Ownable {... */\n  dup3\n  mload\n    /* \"@openzeppelin/contracts/utils/ShortStrings.sol\":1821:1837  bstr.length > 31 */\n  gt\n    /* \"@openzeppelin/contracts/utils/ShortStrings.sol\":1817:1889  if (bstr.length > 31) {... */\n  tag_102\n  jumpi\n    /* \"contracts/TurtleToken.sol\":255:3286  contract TurtleToken is ERC20, ERC20Permit, Ownable {... */\n  dup1\n  dup3\n  mload\n  swap3\n  add\n  mload\n  swap1\n  dup1\n  dup4\n  lt\n  tag_74\n  jumpi\n    /* \"@openzeppelin/contracts/utils/ShortStrings.sol\":1930:1966  uint256(bytes32(bstr)) | bstr.length */\n  pop\n  or\n    /* \"@openzeppelin/contracts/utils/ShortStrings.sol\":3058:3085  return toShortString(value) */\n  swap1\n  jump\t// out\n    /* \"@openzeppelin/contracts/utils/ShortStrings.sol\":1817:1889  if (bstr.length > 31) {... */\ntag_102:\n    /* \"contracts/TurtleToken.sol\":255:3286  contract TurtleToken is ERC20, ERC20Permit, Ownable {... */\n  swap1\n  mload(0x40)\n    /* \"@openzeppelin/contracts/utils/ShortStrings.sol\":1860:1878  StringTooLong(str) */\n  dup1\n  swap3\n  shl(0xe0, 0x305a27a9)\n  dup3\n  mstore\n  dup1\n  0x04\n  dup4\n  add\n    /* \"contracts/TurtleToken.sol\":255:3286  contract TurtleToken is ERC20, ERC20Permit, Ownable {... */\n  mstore\n  dup3\n  mload\n  swap1\n  dup2\n  0x24\n  dup5\n  add\n  mstore\n  0x00\n  swap4\ntag_106:\n  dup3\n  dup6\n  lt\n  tag_107\n  jumpi\n  pop\n  pop\n  0x44\n  swap3\n  pop\n  0x00\n  dup4\n  dup3\n  dup5\n  add\n  add\n  mstore\n    /* \"@openzeppelin/contracts/utils/ShortStrings.sol\":1835:1837  31 */\n  0x1f\n    /* \"contracts/TurtleToken.sol\":255:3286  contract TurtleToken is ERC20, ERC20Permit, Ownable {... */\n  dup1\n  not\n  swap2\n  add\n  and\n  dup2\n  add\n    /* \"@openzeppelin/contracts/utils/ShortStrings.sol\":1860:1878  StringTooLong(str) */\n  sub\n  add\n  swap1\n  revert\n    /* \"contracts/TurtleToken.sol\":255:3286  contract TurtleToken is ERC20, ERC20Permit, Ownable {... */\ntag_107:\n  dup5\n  dup2\n  add\n  dup3\n  add\n  mload\n  dup7\n  dup7\n  add\n  0x44\n  add\n  mstore\n  swap4\n  dup2\n  add\n  swap4\n  dup6\n  swap4\n  pop\n  jump(tag_106)\n    /* \"@openzeppelin/contracts/utils/ShortStrings.sol\":3014:3230  if (bytes(value).length < 32) {... */\ntag_100:\n    /* \"contracts/TurtleToken.sol\":255:3286  contract TurtleToken is ERC20, ERC20Permit, Ownable {... */\n  swap1\n  sub(shl(0x40, 0x01), 0x01)\n  dup3\n  gt\n  tag_6\n  jumpi\n    /* \"@openzeppelin/contracts/utils/cryptography/EIP712.sol\":3351:3367  _versionFallback */\n  0x06\n    /* \"contracts/TurtleToken.sol\":255:3286  contract TurtleToken is ERC20, ERC20Permit, Ownable {... */\n  sload\n  swap3\n  0x01\n  swap4\n  dup5\n  dup2\n  dup2\n  shr\n  swap2\n  and\n  dup1\n  iszero\n  tag_111\n  jumpi\n    /* \"@openzeppelin/contracts/utils/ShortStrings.sol\":3014:3230  if (bytes(value).length < 32) {... */\ntag_112:\n    /* \"contracts/TurtleToken.sol\":255:3286  contract TurtleToken is ERC20, ERC20Permit, Ownable {... */\n  dup4\n  dup3\n  lt\n  eq\n  tag_83\n  jumpi\n  0x1f\n  dup2\n  gt\n  tag_115\n  jumpi\n    /* \"@openzeppelin/contracts/utils/ShortStrings.sol\":3014:3230  if (bytes(value).length < 32) {... */\ntag_116:\n    /* \"contracts/TurtleToken.sol\":255:3286  contract TurtleToken is ERC20, ERC20Permit, Ownable {... */\n  pop\n  dup2\n  0x1f\n  dup5\n  gt\n  0x01\n  eq\n  tag_117\n  jumpi\n  pop\n  swap3\n  dup3\n  swap4\n  swap2\n  dup4\n  swap3\n  0x00\n  swap5\n  tag_119\n  jumpi\ntag_120:\n  pop\n  pop\n  shl\n  swap2\n  not(0x00)\n  swap1\n  0x03\n  shl\n  shr\n  not\n  and\n  or\n    /* \"@openzeppelin/contracts/utils/cryptography/EIP712.sol\":3351:3367  _versionFallback */\n  0x06\n    /* \"contracts/TurtleToken.sol\":255:3286  contract TurtleToken is ERC20, ERC20Permit, Ownable {... */\n  sstore\n    /* \"@openzeppelin/contracts/utils/ShortStrings.sol\":1371:1437  0x00000000000000000000000000000000000000000000000000000000000000FF */\n  0xff\n    /* \"@openzeppelin/contracts/utils/ShortStrings.sol\":3176:3219  return ShortString.wrap(_FALLBACK_SENTINEL) */\n  swap1\n  jump\t// out\n    /* \"contracts/TurtleToken.sol\":255:3286  contract TurtleToken is ERC20, ERC20Permit, Ownable {... */\ntag_119:\n  add\n  mload\n  swap3\n  pop\n  codesize\n  dup1\n  jump(tag_120)\ntag_117:\n  swap2\n  swap1\n  dup4\n  not(0x1f)\n  dup2\n  and\n    /* \"@openzeppelin/contracts/utils/cryptography/EIP712.sol\":3351:3367  _versionFallback */\n  0x06\n  0x00\n    /* \"contracts/TurtleToken.sol\":255:3286  contract TurtleToken is ERC20, ERC20Permit, Ownable {... */\n  mstore\n  dup5\n  0x00\n  keccak256\n  swap5\n  0x00\n  swap1\ntag_122:\n  dup9\n  dup4\n  dup4\n  lt\n  tag_123\n  jumpi\n  pop\n  pop\n  pop\n  lt\n  tag_125\n  jumpi\ntag_126:\n  pop\n  pop\n  pop\n  dup2\n  shl\n  add\n    /* \"@openzeppelin/contracts/utils/cryptography/EIP712.sol\":3351:3367  _versionFallback */\n  0x06\n    /* \"contracts/TurtleToken.sol\":255:3286  contract TurtleToken is ERC20, ERC20Permit, Ownable {... */\n  sstore\n    /* \"@openzeppelin/contracts/utils/ShortStrings.sol\":1371:1437  0x00000000000000000000000000000000000000000000000000000000000000FF */\n  0xff\n    /* \"@openzeppelin/contracts/utils/ShortStrings.sol\":3176:3219  return ShortString.wrap(_FALLBACK_SENTINEL) */\n  swap1\n  jump\t// out\n    /* \"contracts/TurtleToken.sol\":255:3286  contract TurtleToken is ERC20, ERC20Permit, Ownable {... */\ntag_125:\n  add\n  mload\n  not(0x00)\n  0xf8\n  dup5\n  0x03\n  shl\n  and\n  shr\n  not\n  and\n  swap1\n  sstore\n  codesize\n  dup1\n  dup1\n  jump(tag_126)\ntag_123:\n  dup6\n  dup8\n  add\n  mload\n  dup9\n  sstore\n  swap1\n  swap7\n  add\n  swap6\n  swap5\n  dup6\n  add\n  swap5\n  dup8\n  swap4\n  pop\n  swap1\n  dup2\n  add\n  swap1\n  jump(tag_122)\ntag_115:\n    /* \"@openzeppelin/contracts/utils/cryptography/EIP712.sol\":3351:3367  _versionFallback */\n  0x06\n  0x00\n    /* \"contracts/TurtleToken.sol\":255:3286  contract TurtleToken is ERC20, ERC20Permit, Ownable {... */\n  mstore\n  dup5\n  0x1f\n  dup5\n  0x00\n  keccak256\n  swap3\n  add\n  0x05\n  shr\n  dup3\n  add\n  swap2\n  0x1f\n  dup7\n  add\n  0x05\n  shr\n  add\ntag_127:\n  dup3\n  dup2\n  lt\n  tag_128\n  jumpi\n  pop\n  pop\n  jump(tag_116)\ntag_128:\n  0x00\n  dup2\n  sstore\n  add\n  dup6\n  swap1\n  jump(tag_127)\ntag_111:\n  swap1\n  0x7f\n  and\n  swap1\n  jump(tag_112)\nstop\n\nsub_0: assembly {\n        /* \"contracts/TurtleToken.sol\":255:3286  contract TurtleToken is ERC20, ERC20Permit, Ownable {... */\n      0x80\n      0x40\n      dup2\n      dup2\n      mstore\n      0x04\n      dup1\n      calldatasize\n      lt\n      iszero\n      tag_16\n      jumpi\n      0x00\n      dup1\n      revert\n    tag_16:\n      0x00\n      swap3\n      dup4\n      calldataload\n      0xe0\n      shr\n      swap1\n      dup2\n      0x06fdde03\n      eq\n      tag_18\n      jumpi\n      pop\n      dup1\n      0x095ea7b3\n      eq\n      tag_20\n      jumpi\n      dup1\n      0x18160ddd\n      eq\n      tag_22\n      jumpi\n      dup1\n      0x23b872dd\n      eq\n      tag_24\n      jumpi\n      dup1\n      0x313ce567\n      eq\n      tag_26\n      jumpi\n      dup1\n      0x3644e515\n      eq\n      tag_28\n      jumpi\n      dup1\n      0x39509351\n      eq\n      tag_30\n      jumpi\n      dup1\n      0x3ba0b9a9\n      eq\n      tag_32\n      jumpi\n      dup1\n      0x40c10f19\n      eq\n      tag_34\n      jumpi\n      dup1\n      0x6c11bcd3\n      eq\n      tag_36\n      jumpi\n      dup1\n      0x70a08231\n      eq\n      tag_38\n      jumpi\n      dup1\n      0x715018a6\n      eq\n      tag_40\n      jumpi\n      dup1\n      0x7ecebe00\n      eq\n      tag_42\n      jumpi\n      dup1\n      0x84b0196e\n      eq\n      tag_44\n      jumpi\n      dup1\n      0x8da5cb5b\n      eq\n      tag_46\n      jumpi\n      dup1\n      0x95d89b41\n      eq\n      tag_48\n      jumpi\n      dup1\n      0xa0ef91df\n      eq\n      tag_50\n      jumpi\n      dup1\n      0xa457c2d7\n      eq\n      tag_52\n      jumpi\n      dup1\n      0xa9059cbb\n      eq\n      tag_54\n      jumpi\n      dup1\n      0xd0febe4c\n      eq\n      tag_56\n      jumpi\n      dup1\n      0xd505accf\n      eq\n      tag_58\n      jumpi\n      dup1\n      0xdb068e0e\n      eq\n      tag_60\n      jumpi\n      dup1\n      0xdd62ed3e\n      eq\n      tag_62\n      jumpi\n      0xf2fde38b\n      eq\n      tag_64\n      jumpi\n      0x00\n      dup1\n      revert\n    tag_64:\n      jumpi(tag_68, callvalue)\n      jumpi(tag_68, slt(add(not(0x03), calldatasize), 0x20))\n      tag_70\n      tag_2\n      jump\t// in\n    tag_70:\n        /* \"@openzeppelin/contracts/access/Ownable.sol\":1063:1125  modifier onlyOwner() {... */\n      swap1\n      tag_71\n      tag_4\n      jump\t// in\n    tag_71:\n      sub(shl(0xa0, 0x01), 0x01)\n        /* \"contracts/TurtleToken.sol\":255:3286  contract TurtleToken is ERC20, ERC20Permit, Ownable {... */\n      swap2\n      dup3\n      and\n      swap3\n        /* \"@openzeppelin/contracts/access/Ownable.sol\":2162:2184  newOwner != address(0) */\n      dup4\n      iszero\n        /* \"contracts/TurtleToken.sol\":255:3286  contract TurtleToken is ERC20, ERC20Permit, Ownable {... */\n      tag_72\n      jumpi\n      pop\n      pop\n        /* \"@openzeppelin/contracts/access/Ownable.sol\":2518:2524  _owner */\n      0x09\n        /* \"contracts/TurtleToken.sol\":255:3286  contract TurtleToken is ERC20, ERC20Permit, Ownable {... */\n      sload\n      dup3\n      shl(0xa0, 0xffffffffffffffffffffffff)\n      dup3\n      and\n      or\n        /* \"@openzeppelin/contracts/access/Ownable.sol\":2518:2524  _owner */\n      0x09\n        /* \"contracts/TurtleToken.sol\":255:3286  contract TurtleToken is ERC20, ERC20Permit, Ownable {... */\n      sstore\n      and\n        /* \"@openzeppelin/contracts/access/Ownable.sol\":2566:2606  OwnershipTransferred(oldOwner, newOwner) */\n      0x8be0079c531659141344cd1fd0a4f28419497f9722a3daafe3b4186f6b6457e0\n      dup4\n      dup1\n      log3\n        /* \"contracts/TurtleToken.sol\":255:3286  contract TurtleToken is ERC20, ERC20Permit, Ownable {... */\n      dup1\n      return\n    tag_72:\n      swap1\n      0x20\n      0x84\n      swap3\n      mload\n      swap2\n      shl(0xe5, 0x461bcd)\n      dup4\n      mstore\n      dup3\n      add\n      mstore\n      0x26\n      0x24\n      dup3\n      add\n      mstore\n      0x4f776e61626c653a206e6577206f776e657220697320746865207a65726f2061\n      0x44\n      dup3\n      add\n      mstore\n      shl(0xd0, 0x646472657373)\n      0x64\n      dup3\n      add\n      mstore\n      revert\n    tag_68:\n      dup3\n      dup1\n      revert\n    tag_62:\n      pop\n      pop\n      jumpi(tag_76, callvalue)\n      dup1\n      add(calldatasize, not(0x03))\n      slt\n      tag_76\n      jumpi\n      dup1\n      0x20\n      swap3\n      tag_78\n      tag_2\n      jump\t// in\n    tag_78:\n      tag_79\n      tag_3\n      jump\t// in\n    tag_79:\n      sub(shl(0xa0, 0x01), 0x01)\n      swap2\n      dup3\n      and\n      dup4\n      mstore\n      0x01\n      dup7\n      mstore\n      dup4\n      dup4\n      keccak256\n      swap2\n      and\n      dup3\n      mstore\n      dup5\n      mstore\n      keccak256\n      sload\n      swap1\n      mload\n      swap1\n      dup2\n      mstore\n      return\n    tag_76:\n      pop\n      dup1\n      revert\n    tag_60:\n      dup4\n      dup3\n      jumpi(tag_76, callvalue)\n      jumpi(tag_76, slt(add(not(0x03), calldatasize), 0x20))\n        /* \"@openzeppelin/contracts/access/Ownable.sol\":1063:1125  modifier onlyOwner() {... */\n      tag_84\n      tag_4\n      jump\t// in\n    tag_84:\n        /* \"contracts/TurtleToken.sol\":255:3286  contract TurtleToken is ERC20, ERC20Permit, Ownable {... */\n      calldataload\n        /* \"contracts/TurtleToken.sol\":2993:3015  exchangeRate = newRate */\n      0x0a\n        /* \"contracts/TurtleToken.sol\":255:3286  contract TurtleToken is ERC20, ERC20Permit, Ownable {... */\n      sstore\n      dup1\n      return\n    tag_58:\n      pop\n      dup3\n      swap1\n      jumpi(tag_76, callvalue)\n      jumpi(tag_76, slt(add(not(0x03), calldatasize), 0xe0))\n      tag_89\n      tag_2\n      jump\t// in\n    tag_89:\n      tag_90\n      tag_3\n      jump\t// in\n    tag_90:\n      swap1\n      calldataload(0x44)\n      swap3\n      calldataload(0x64)\n      calldataload(0x84)\n      0xff\n      dup2\n      and\n      dup2\n      sub\n      tag_91\n      jumpi\n        /* \"@openzeppelin/contracts/token/ERC20/extensions/ERC20Permit.sol\":2139:2154  block.timestamp */\n      dup2\n      timestamp\n        /* \"@openzeppelin/contracts/token/ERC20/extensions/ERC20Permit.sol\":2139:2166  block.timestamp <= deadline */\n      gt\n        /* \"contracts/TurtleToken.sol\":255:3286  contract TurtleToken is ERC20, ERC20Permit, Ownable {... */\n      tag_93\n      jumpi\n      0x01\n      dup1\n      0xa0\n      shl\n      sub\n      swap1\n      dup2\n      dup6\n      and\n      swap3\n      dup4\n      dup10\n      mstore\n        /* \"@openzeppelin/contracts/token/ERC20/extensions/ERC20Permit.sol\":3200:3207  _nonces */\n      0x07\n        /* \"contracts/TurtleToken.sol\":255:3286  contract TurtleToken is ERC20, ERC20Permit, Ownable {... */\n      0x20\n      mstore\n      dup10\n      dup10\n      keccak256\n      swap1\n      dup2\n      sload\n      swap2\n      0x01\n      dup4\n      add\n      swap1\n      sstore\n      dup11\n      mload\n        /* \"@openzeppelin/contracts/token/ERC20/extensions/ERC20Permit.sol\":2242:2321  abi.encode(_PERMIT_TYPEHASH, owner, spender, value, _useNonce(owner), deadline) */\n      swap1\n        /* \"contracts/TurtleToken.sol\":255:3286  contract TurtleToken is ERC20, ERC20Permit, Ownable {... */\n      0x20\n        /* \"@openzeppelin/contracts/token/ERC20/extensions/ERC20Permit.sol\":2242:2321  abi.encode(_PERMIT_TYPEHASH, owner, spender, value, _useNonce(owner), deadline) */\n      dup3\n      add\n        /* \"contracts/TurtleToken.sol\":255:3286  contract TurtleToken is ERC20, ERC20Permit, Ownable {... */\n      swap3\n        /* \"@openzeppelin/contracts/token/ERC20/extensions/ERC20Permit.sol\":1125:1220  keccak256(\"Permit(address owner,address spender,uint256 value,uint256 nonce,uint256 deadline)\") */\n      0x6e71edae12b1b97f4d1f60370fef10105fa2faae0126114a169c64845d6126c9\n        /* \"contracts/TurtleToken.sol\":255:3286  contract TurtleToken is ERC20, ERC20Permit, Ownable {... */\n      dup5\n      mstore\n        /* \"@openzeppelin/contracts/token/ERC20/extensions/ERC20Permit.sol\":1125:1220  keccak256(\"Permit(address owner,address spender,uint256 value,uint256 nonce,uint256 deadline)\") */\n      dup7\n      dup14\n      dup5\n      add\n        /* \"contracts/TurtleToken.sol\":255:3286  contract TurtleToken is ERC20, ERC20Permit, Ownable {... */\n      mstore\n      dup6\n      dup11\n      and\n      0x60\n        /* \"@openzeppelin/contracts/token/ERC20/extensions/ERC20Permit.sol\":1125:1220  keccak256(\"Permit(address owner,address spender,uint256 value,uint256 nonce,uint256 deadline)\") */\n      dup5\n      add\n        /* \"contracts/TurtleToken.sol\":255:3286  contract TurtleToken is ERC20, ERC20Permit, Ownable {... */\n      mstore\n        /* \"@openzeppelin/contracts/token/ERC20/extensions/ERC20Permit.sol\":1125:1220  keccak256(\"Permit(address owner,address spender,uint256 value,uint256 nonce,uint256 deadline)\") */\n      dup11\n        /* \"contracts/TurtleToken.sol\":255:3286  contract TurtleToken is ERC20, ERC20Permit, Ownable {... */\n      0x80\n        /* \"@openzeppelin/contracts/token/ERC20/extensions/ERC20Permit.sol\":1125:1220  keccak256(\"Permit(address owner,address spender,uint256 value,uint256 nonce,uint256 deadline)\") */\n      dup5\n      add\n        /* \"contracts/TurtleToken.sol\":255:3286  contract TurtleToken is ERC20, ERC20Permit, Ownable {... */\n      mstore\n      0xa0\n        /* \"@openzeppelin/contracts/token/ERC20/extensions/ERC20Permit.sol\":1125:1220  keccak256(\"Permit(address owner,address spender,uint256 value,uint256 nonce,uint256 deadline)\") */\n      dup4\n      add\n        /* \"contracts/TurtleToken.sol\":255:3286  contract TurtleToken is ERC20, ERC20Permit, Ownable {... */\n      mstore\n      0xc0\n        /* \"@openzeppelin/contracts/token/ERC20/extensions/ERC20Permit.sol\":1125:1220  keccak256(\"Permit(address owner,address spender,uint256 value,uint256 nonce,uint256 deadline)\") */\n      dup3\n      add\n        /* \"contracts/TurtleToken.sol\":255:3286  contract TurtleToken is ERC20, ERC20Permit, Ownable {... */\n      mstore\n      0xc0\n        /* \"@openzeppelin/contracts/token/ERC20/extensions/ERC20Permit.sol\":2242:2321  abi.encode(_PERMIT_TYPEHASH, owner, spender, value, _useNonce(owner), deadline) */\n      dup2\n      mstore\n        /* \"contracts/TurtleToken.sol\":255:3286  contract TurtleToken is ERC20, ERC20Permit, Ownable {... */\n      0xe0\n      dup2\n      add\n      dup2\n      dup2\n      lt\n      0xffffffffffffffff\n      dup3\n      gt\n      or\n      tag_95\n      jumpi\n      dup12\n      mstore\n      mload\n        /* \"@openzeppelin/contracts/token/ERC20/extensions/ERC20Permit.sol\":2232:2322  keccak256(abi.encode(_PERMIT_TYPEHASH, owner, spender, value, _useNonce(owner), deadline)) */\n      swap1\n      keccak256\n        /* \"@openzeppelin/contracts/utils/cryptography/ECDSA.sol\":6791:6796  error */\n      tag_97\n      swap2\n        /* \"@openzeppelin/contracts/utils/cryptography/ECDSA.sol\":6744:6769  tryRecover(hash, v, r, s) */\n      tag_98\n      swap2\n        /* \"@openzeppelin/contracts/utils/cryptography/EIP712.sol\":4893:4913  _domainSeparatorV4() */\n      tag_99\n      tag_13\n      jump\t// in\n    tag_99:\n        /* \"@openzeppelin/contracts/utils/cryptography/ECDSA.sol\":8496:8727  assembly {... */\n      swap1\n      dup13\n      mload\n      swap2\n      shl(0xf0, 0x1901)\n      dup4\n      mstore\n      0x02\n      dup4\n      add\n      mstore\n      0x22\n      dup3\n      add\n      mstore\n        /* \"contracts/TurtleToken.sol\":255:3286  contract TurtleToken is ERC20, ERC20Permit, Ownable {... */\n      calldataload(0xc4)\n      swap2\n        /* \"@openzeppelin/contracts/utils/cryptography/ECDSA.sol\":8496:8727  assembly {... */\n      0x42\n        /* \"contracts/TurtleToken.sol\":255:3286  contract TurtleToken is ERC20, ERC20Permit, Ownable {... */\n      calldataload(0xa4)\n        /* \"@openzeppelin/contracts/utils/cryptography/ECDSA.sol\":8496:8727  assembly {... */\n      swap3\n      keccak256\n        /* \"@openzeppelin/contracts/utils/cryptography/ECDSA.sol\":6744:6769  tryRecover(hash, v, r, s) */\n      tag_12\n      jump\t// in\n    tag_98:\n        /* \"@openzeppelin/contracts/utils/cryptography/ECDSA.sol\":6791:6796  error */\n      swap2\n      swap1\n      swap2\n      tag_11\n      jump\t// in\n    tag_97:\n        /* \"contracts/TurtleToken.sol\":255:3286  contract TurtleToken is ERC20, ERC20Permit, Ownable {... */\n      and\n        /* \"@openzeppelin/contracts/token/ERC20/extensions/ERC20Permit.sol\":2450:2465  signer == owner */\n      sub\n        /* \"@openzeppelin/contracts/token/ERC20/extensions/ERC20Permit.sol\":1125:1220  keccak256(\"Permit(address owner,address spender,uint256 value,uint256 nonce,uint256 deadline)\") */\n      tag_100\n      jumpi\n        /* \"@openzeppelin/contracts/token/ERC20/extensions/ERC20Permit.sol\":2536:2541  value */\n      pop\n      tag_102\n      swap4\n      swap5\n      pop\n      tag_10\n      jump\t// in\n    tag_102:\n        /* \"contracts/TurtleToken.sol\":255:3286  contract TurtleToken is ERC20, ERC20Permit, Ownable {... */\n      dup1\n      return\n        /* \"@openzeppelin/contracts/token/ERC20/extensions/ERC20Permit.sol\":1125:1220  keccak256(\"Permit(address owner,address spender,uint256 value,uint256 nonce,uint256 deadline)\") */\n    tag_100:\n        /* \"contracts/TurtleToken.sol\":255:3286  contract TurtleToken is ERC20, ERC20Permit, Ownable {... */\n      0x64\n      swap1\n      0x20\n      dup8\n      mload\n      swap2\n      shl(0xe5, 0x461bcd)\n        /* \"@openzeppelin/contracts/token/ERC20/extensions/ERC20Permit.sol\":1125:1220  keccak256(\"Permit(address owner,address spender,uint256 value,uint256 nonce,uint256 deadline)\") */\n      dup4\n      mstore\n      dup3\n      add\n      mstore\n      0x1e\n        /* \"contracts/TurtleToken.sol\":255:3286  contract TurtleToken is ERC20, ERC20Permit, Ownable {... */\n      0x24\n        /* \"@openzeppelin/contracts/token/ERC20/extensions/ERC20Permit.sol\":1125:1220  keccak256(\"Permit(address owner,address spender,uint256 value,uint256 nonce,uint256 deadline)\") */\n      dup3\n      add\n        /* \"contracts/TurtleToken.sol\":255:3286  contract TurtleToken is ERC20, ERC20Permit, Ownable {... */\n      mstore\n        /* \"@openzeppelin/contracts/token/ERC20/extensions/ERC20Permit.sol\":1125:1220  keccak256(\"Permit(address owner,address spender,uint256 value,uint256 nonce,uint256 deadline)\") */\n      0x45524332305065726d69743a20696e76616c6964207369676e61747572650000\n        /* \"contracts/TurtleToken.sol\":255:3286  contract TurtleToken is ERC20, ERC20Permit, Ownable {... */\n      0x44\n      dup3\n      add\n        /* \"@openzeppelin/contracts/token/ERC20/extensions/ERC20Permit.sol\":1125:1220  keccak256(\"Permit(address owner,address spender,uint256 value,uint256 nonce,uint256 deadline)\") */\n      mstore\n      revert\n        /* \"contracts/TurtleToken.sol\":255:3286  contract TurtleToken is ERC20, ERC20Permit, Ownable {... */\n    tag_95:\n      shl(0xe0, 0x4e487b71)\n      dup12\n      mstore\n      0x41\n      dup8\n      mstore\n      0x24\n      dup12\n      revert\n    tag_93:\n      dup8\n      mload\n      shl(0xe5, 0x461bcd)\n      dup2\n      mstore\n      0x20\n      dup2\n      dup6\n      add\n      mstore\n      0x1d\n      0x24\n      dup3\n      add\n      mstore\n      0x45524332305065726d69743a206578706972656420646561646c696e65000000\n      0x44\n      dup3\n      add\n      mstore\n      0x64\n      swap1\n      revert\n    tag_91:\n      dup7\n      dup1\n      revert\n    tag_56:\n      pop\n      swap1\n      dup3\n      add(calldatasize, not(0x03))\n      slt\n      tag_68\n      jumpi\n        /* \"contracts/TurtleToken.sol\":1282:1291  msg.value */\n      callvalue\n        /* \"contracts/TurtleToken.sol\":1282:1295  msg.value > 0 */\n      iszero\n        /* \"contracts/TurtleToken.sol\":255:3286  contract TurtleToken is ERC20, ERC20Permit, Ownable {... */\n      tag_105\n      jumpi\n        /* \"contracts/TurtleToken.sol\":1441:1453  exchangeRate */\n      0x0a\n        /* \"contracts/TurtleToken.sol\":255:3286  contract TurtleToken is ERC20, ERC20Permit, Ownable {... */\n      sload\n        /* \"contracts/TurtleToken.sol\":1282:1291  msg.value */\n      dup1\n      callvalue\n        /* \"contracts/TurtleToken.sol\":255:3286  contract TurtleToken is ERC20, ERC20Permit, Ownable {... */\n      mul\n        /* \"contracts/TurtleToken.sol\":1282:1291  msg.value */\n      swap1\n      callvalue\n        /* \"contracts/TurtleToken.sol\":255:3286  contract TurtleToken is ERC20, ERC20Permit, Ownable {... */\n      dup3\n      div\n      sub\n      tag_107\n      jumpi\n        /* \"contracts/TurtleToken.sol\":1457:1461  1e18 */\n      0x0de0b6b3a7640000\n        /* \"contracts/TurtleToken.sol\":255:3286  contract TurtleToken is ERC20, ERC20Permit, Ownable {... */\n      swap1\n      div\n        /* \"contracts/TurtleToken.sol\":1498:1502  this */\n      swap2\n      address\n        /* \"contracts/TurtleToken.sol\":255:3286  contract TurtleToken is ERC20, ERC20Permit, Ownable {... */\n      dup5\n      mstore\n      dup4\n      0x20\n      mstore\n      dup3\n      dup3\n      dup6\n      keccak256\n      sload\n        /* \"contracts/TurtleToken.sol\":1480:1519  balanceOf(address(this)) >= tokenAmount */\n      lt\n        /* \"contracts/TurtleToken.sol\":255:3286  contract TurtleToken is ERC20, ERC20Permit, Ownable {... */\n      tag_109\n      jumpi\n        /* \"contracts/TurtleToken.sol\":1628:1638  msg.sender */\n      pop\n        /* \"contracts/TurtleToken.sol\":1699:1750  TokensPurchased(msg.sender, msg.value, tokenAmount) */\n      0x8fafebcaf9d154343dad25669bfa277f4fbacd7ac6b0c4fed522580e040a0f33\n        /* \"contracts/TurtleToken.sol\":1628:1638  msg.sender */\n      swap1\n        /* \"contracts/TurtleToken.sol\":1640:1651  tokenAmount */\n      tag_111\n        /* \"contracts/TurtleToken.sol\":1628:1638  msg.sender */\n      dup4\n      caller\n        /* \"contracts/TurtleToken.sol\":1498:1502  this */\n      address\n        /* \"contracts/TurtleToken.sol\":1640:1651  tokenAmount */\n      tag_9\n      jump\t// in\n    tag_111:\n        /* \"contracts/TurtleToken.sol\":255:3286  contract TurtleToken is ERC20, ERC20Permit, Ownable {... */\n      dup1\n      mload\n        /* \"contracts/TurtleToken.sol\":1282:1291  msg.value */\n      swap3\n      callvalue\n        /* \"contracts/TurtleToken.sol\":255:3286  contract TurtleToken is ERC20, ERC20Permit, Ownable {... */\n      dup5\n      mstore\n      0x20\n      dup5\n      add\n      mstore\n        /* \"contracts/TurtleToken.sol\":1628:1638  msg.sender */\n      caller\n        /* \"contracts/TurtleToken.sol\":1699:1750  TokensPurchased(msg.sender, msg.value, tokenAmount) */\n      swap3\n      log2\n        /* \"contracts/TurtleToken.sol\":255:3286  contract TurtleToken is ERC20, ERC20Permit, Ownable {... */\n      dup1\n      return\n    tag_109:\n      0x20\n      0x84\n      swap3\n      mload\n      swap2\n      shl(0xe5, 0x461bcd)\n      dup4\n      mstore\n      dup3\n      add\n      mstore\n      0x26\n      0x24\n      dup3\n      add\n      mstore\n      0x496e73756666696369656e7420746f6b656e2062616c616e636520696e20636f\n      0x44\n      dup3\n      add\n      mstore\n      shl(0xd2, 0x1b9d1c9858dd)\n      0x64\n      dup3\n      add\n      mstore\n      revert\n    tag_107:\n      shl(0xe0, 0x4e487b71)\n      dup5\n      mstore\n      0x11\n      dup4\n      mstore\n      0x24\n      dup5\n      revert\n    tag_105:\n      swap1\n      0x20\n      0x64\n      swap3\n      mload\n      swap2\n      shl(0xe5, 0x461bcd)\n      dup4\n      mstore\n      dup3\n      add\n      mstore\n      0x19\n      0x24\n      dup3\n      add\n      mstore\n      0x4d7573742073656e642045544820746f2065786368616e676500000000000000\n      0x44\n      dup3\n      add\n      mstore\n      revert\n    tag_54:\n      pop\n      pop\n      jumpi(tag_76, callvalue)\n      dup1\n      add(calldatasize, not(0x03))\n      slt\n      tag_76\n      jumpi\n      0x20\n      swap1\n        /* \"@openzeppelin/contracts/token/ERC20/ERC20.sol\":3894:3900  amount */\n      tag_116\n        /* \"contracts/TurtleToken.sol\":255:3286  contract TurtleToken is ERC20, ERC20Permit, Ownable {... */\n      tag_117\n      tag_2\n      jump\t// in\n    tag_117:\n      calldataload(0x24)\n        /* \"@openzeppelin/contracts/utils/Context.sol\":734:744  msg.sender */\n      swap1\n      caller\n        /* \"@openzeppelin/contracts/token/ERC20/ERC20.sol\":3894:3900  amount */\n      tag_9\n      jump\t// in\n    tag_116:\n        /* \"contracts/TurtleToken.sol\":255:3286  contract TurtleToken is ERC20, ERC20Permit, Ownable {... */\n      mload\n      0x01\n      dup2\n      mstore\n      return\n    tag_52:\n      pop\n      dup3\n      jumpi(tag_120, callvalue)\n      dup3\n      add(calldatasize, not(0x03))\n      slt\n      tag_120\n      jumpi\n      tag_122\n      tag_2\n      jump\t// in\n    tag_122:\n      swap2\n      dup4\n      calldataload(0x24)\n        /* \"@openzeppelin/contracts/utils/Context.sol\":734:744  msg.sender */\n      swap3\n      caller\n        /* \"contracts/TurtleToken.sol\":255:3286  contract TurtleToken is ERC20, ERC20Permit, Ownable {... */\n      dup2\n      mstore\n      mstore(0x20, 0x01)\n      dup2\n      dup2\n      keccak256\n      0x01\n      dup1\n      0xa0\n      shl\n      sub\n      dup7\n      and\n      dup3\n      mstore\n      0x20\n      mstore\n      keccak256\n      sload\n        /* \"@openzeppelin/contracts/token/ERC20/ERC20.sol\":6792:6827  currentAllowance >= subtractedValue */\n      swap1\n      dup3\n      dup3\n      lt\n        /* \"contracts/TurtleToken.sol\":255:3286  contract TurtleToken is ERC20, ERC20Permit, Ownable {... */\n      tag_123\n      jumpi\n      0x20\n      dup6\n        /* \"@openzeppelin/contracts/token/ERC20/ERC20.sol\":6928:6962  currentAllowance - subtractedValue */\n      tag_116\n        /* \"contracts/TurtleToken.sol\":255:3286  contract TurtleToken is ERC20, ERC20Permit, Ownable {... */\n      dup6\n      dup6\n      sub\n      dup8\n        /* \"@openzeppelin/contracts/utils/Context.sol\":734:744  msg.sender */\n      caller\n        /* \"@openzeppelin/contracts/token/ERC20/ERC20.sol\":6928:6962  currentAllowance - subtractedValue */\n      tag_10\n      jump\t// in\n        /* \"contracts/TurtleToken.sol\":255:3286  contract TurtleToken is ERC20, ERC20Permit, Ownable {... */\n    tag_123:\n      0x84\n      swap1\n      0x20\n      dup7\n      mload\n      swap2\n      shl(0xe5, 0x461bcd)\n      dup4\n      mstore\n      dup3\n      add\n      mstore\n      0x25\n      0x24\n      dup3\n      add\n      mstore\n      0x45524332303a2064656372656173656420616c6c6f77616e63652062656c6f77\n      0x44\n      dup3\n      add\n      mstore\n      shl(0xd8, 0x207a65726f)\n      0x64\n      dup3\n      add\n      mstore\n      revert\n    tag_120:\n      dup1\n      revert\n    tag_50:\n      pop\n      jumpi(tag_68, callvalue)\n      dup3\n      add(calldatasize, not(0x03))\n      slt\n      tag_68\n      jumpi\n        /* \"@openzeppelin/contracts/access/Ownable.sol\":1063:1125  modifier onlyOwner() {... */\n      tag_130\n      tag_4\n      jump\t// in\n    tag_130:\n        /* \"contracts/TurtleToken.sol\":3156:3177  address(this).balance */\n      selfbalance\n        /* \"contracts/TurtleToken.sol\":3196:3207  balance > 0 */\n      swap1\n      dup2\n      iszero\n        /* \"contracts/TurtleToken.sol\":255:3286  contract TurtleToken is ERC20, ERC20Permit, Ownable {... */\n      tag_131\n      jumpi\n      pop\n        /* \"@openzeppelin/contracts/access/Ownable.sol\":1273:1279  _owner */\n      0x09\n        /* \"contracts/TurtleToken.sol\":255:3286  contract TurtleToken is ERC20, ERC20Permit, Ownable {... */\n      sload\n      dup4\n      swap2\n      dup3\n      swap2\n      dup3\n      swap2\n      dup3\n      swap2\n      sub(shl(0xa0, 0x01), 0x01)\n      and\n      dup3\n        /* \"contracts/TurtleToken.sol\":3241:3275  payable(owner()).transfer(balance) */\n      call\n      iszero\n      tag_133\n      jumpi\n        /* \"contracts/TurtleToken.sol\":255:3286  contract TurtleToken is ERC20, ERC20Permit, Ownable {... */\n      pop\n      dup1\n      return\n        /* \"contracts/TurtleToken.sol\":3241:3275  payable(owner()).transfer(balance) */\n    tag_133:\n        /* \"contracts/TurtleToken.sol\":255:3286  contract TurtleToken is ERC20, ERC20Permit, Ownable {... */\n      mload\n      swap1\n      returndatasize\n      swap1\n      dup3\n      returndatacopy\n      returndatasize\n      swap1\n      revert\n    tag_131:\n      0x64\n      swap1\n      0x20\n      dup5\n      mload\n      swap2\n      shl(0xe5, 0x461bcd)\n      dup4\n      mstore\n      dup3\n      add\n      mstore\n      0x12\n      0x24\n      dup3\n      add\n      mstore\n      shl(0x70, 0x4e6f2045544820746f207769746864726177)\n      0x44\n      dup3\n      add\n      mstore\n      revert\n    tag_48:\n      pop\n      swap1\n      jumpi(tag_68, callvalue)\n      dup3\n      add(calldatasize, not(0x03))\n      slt\n      tag_68\n      jumpi\n      dup1\n      mload\n      swap2\n      dup4\n      dup2\n      sload\n      swap1\n      tag_139\n      dup3\n      tag_5\n      jump\t// in\n    tag_139:\n      dup1\n      dup7\n      mstore\n      swap3\n      0x01\n      swap3\n      dup1\n      dup5\n      and\n      swap1\n      dup2\n      iszero\n      tag_140\n      jumpi\n      pop\n      0x01\n      eq\n      tag_142\n      jumpi\n    tag_143:\n      tag_144\n      dup7\n      dup7\n      tag_145\n      dup3\n      dup12\n      sub\n      dup4\n      tag_7\n      jump\t// in\n    tag_145:\n      mload\n      swap2\n      dup3\n      swap2\n      0x20\n      dup4\n      mstore\n      0x20\n      dup4\n      add\n      swap1\n      tag_1\n      jump\t// in\n    tag_144:\n      sub\n      swap1\n      return\n    tag_142:\n      dup2\n      mstore\n      swap5\n      pop\n      0x8a35acfbc15ff81a39ae7d344fd709f28e8600b4aa8c65c6b64bfe7fe36bd19b\n    tag_146:\n      dup3\n      dup7\n      lt\n      tag_147\n      jumpi\n      pop\n      pop\n      pop\n      tag_145\n      dup3\n      0x20\n      tag_144\n      swap6\n      dup3\n      add\n      add\n      swap5\n      codesize\n      jump(tag_143)\n    tag_147:\n      dup1\n      sload\n      0x20\n      dup8\n      dup8\n      add\n      dup2\n      add\n      swap2\n      swap1\n      swap2\n      mstore\n      swap1\n      swap6\n      add\n      swap5\n      dup2\n      add\n      jump(tag_146)\n    tag_140:\n      swap1\n      pop\n      tag_144\n      swap8\n      pop\n      dup7\n      swap4\n      pop\n      0x20\n      swap3\n      pop\n      tag_145\n      swap5\n      swap2\n      pop\n      not(0xff)\n      and\n      dup3\n      dup5\n      add\n      mstore\n      iszero\n      iszero\n      0x05\n      shl\n      dup3\n      add\n      add\n      swap5\n      codesize\n      jump(tag_143)\n    tag_46:\n      pop\n      pop\n      jumpi(tag_76, callvalue)\n      dup2\n      add(calldatasize, not(0x03))\n      slt\n      tag_76\n      jumpi\n        /* \"@openzeppelin/contracts/access/Ownable.sol\":1273:1279  _owner */\n      0x09\n        /* \"contracts/TurtleToken.sol\":255:3286  contract TurtleToken is ERC20, ERC20Permit, Ownable {... */\n      sload\n      swap1\n      mload\n      sub(shl(0xa0, 0x01), 0x01)\n      swap1\n      swap2\n      and\n      dup2\n      mstore\n      0x20\n      swap1\n      return\n    tag_44:\n      pop\n      swap1\n      jumpi(tag_68, callvalue)\n      dup3\n      add(calldatasize, not(0x03))\n      slt\n      tag_68\n      jumpi\n        /* \"@openzeppelin/contracts/utils/cryptography/EIP712.sol\":5427:5468  _name.toStringWithFallback(_nameFallback) */\n      tag_157\n        /* \"@openzeppelin/contracts/utils/cryptography/EIP712.sol\":5427:5432  _name */\n      immutable(\"0xf37f94c83e8ae3e86e80cd7576891958f944d71876ecc57afee80c72eff8fc49\")\n        /* \"@openzeppelin/contracts/utils/cryptography/EIP712.sol\":5427:5468  _name.toStringWithFallback(_nameFallback) */\n      tag_14\n      jump\t// in\n    tag_157:\n        /* \"@openzeppelin/contracts/utils/cryptography/EIP712.sol\":5482:5490  _version */\n      swap3\n        /* \"@openzeppelin/contracts/utils/cryptography/EIP712.sol\":5482:5529  _version.toStringWithFallback(_versionFallback) */\n      tag_158\n        /* \"@openzeppelin/contracts/utils/cryptography/EIP712.sol\":5482:5490  _version */\n      immutable(\"0x93aeedc5738c14a3407eea019f74cb3fdf1e2080f952a08792cd4aaf16d6a467\")\n        /* \"@openzeppelin/contracts/utils/cryptography/EIP712.sol\":5482:5529  _version.toStringWithFallback(_versionFallback) */\n      tag_15\n      jump\t// in\n    tag_158:\n        /* \"contracts/TurtleToken.sol\":255:3286  contract TurtleToken is ERC20, ERC20Permit, Ownable {... */\n      swap1\n      dup3\n      mload\n      swap3\n      0x20\n      swap3\n      dup4\n      dup6\n      add\n      swap6\n      dup6\n      dup8\n      lt\n      0xffffffffffffffff\n      dup9\n      gt\n      or\n      tag_159\n      jumpi\n      pop\n      swap3\n      dup1\n      tag_161\n      dup4\n      dup9\n      swap7\n      tag_162\n      swap10\n      dup12\n      swap10\n      swap7\n      mstore\n      dup7\n      dup7\n      mstore\n      dup2\n      mload\n      swap10\n      dup11\n      swap10\n      shl(0xf8, 0x0f)\n      dup12\n      mstore\n      0xe0\n      dup7\n      dup13\n      add\n      mstore\n      0xe0\n      dup12\n      add\n      swap1\n      tag_1\n      jump\t// in\n    tag_162:\n      swap2\n      dup10\n      dup4\n      sub\n      swap1\n      dup11\n      add\n      mstore\n      tag_1\n      jump\t// in\n    tag_161:\n        /* \"@openzeppelin/contracts/utils/cryptography/EIP712.sol\":5543:5556  block.chainid */\n      swap3\n      chainid\n        /* \"contracts/TurtleToken.sol\":255:3286  contract TurtleToken is ERC20, ERC20Permit, Ownable {... */\n      0x60\n      dup9\n      add\n      mstore\n        /* \"@openzeppelin/contracts/utils/cryptography/EIP712.sol\":5578:5582  this */\n      address\n        /* \"contracts/TurtleToken.sol\":255:3286  contract TurtleToken is ERC20, ERC20Permit, Ownable {... */\n      0x80\n      dup9\n      add\n      mstore\n      dup5\n      0xa0\n      dup9\n      add\n      mstore\n      dup7\n      dup5\n      sub\n      0xc0\n      dup9\n      add\n      mstore\n      mload\n      swap3\n      dup4\n      dup2\n      mstore\n      add\n      swap4\n      swap3\n    tag_163:\n      dup3\n      dup2\n      lt\n      tag_164\n      jumpi\n      pop\n      pop\n      pop\n      pop\n      sub\n      swap1\n      return\n    tag_164:\n      dup4\n      mload\n      dup6\n      mstore\n      dup7\n      swap6\n      pop\n      swap4\n      dup2\n      add\n      swap4\n      swap3\n      dup2\n      add\n      swap3\n      0x01\n      add\n      jump(tag_163)\n    tag_159:\n      shl(0xe0, 0x4e487b71)\n      dup5\n      mstore\n      0x41\n      swap1\n      mstore\n      0x24\n      dup4\n      revert\n    tag_42:\n      pop\n      pop\n      jumpi(tag_76, callvalue)\n      jumpi(tag_76, slt(add(not(0x03), calldatasize), 0x20))\n      0x20\n      swap2\n      dup2\n      swap1\n      sub(shl(0xa0, 0x01), 0x01)\n      tag_170\n      tag_2\n      jump\t// in\n    tag_170:\n      and\n      dup2\n      mstore\n        /* \"@openzeppelin/contracts/token/ERC20/extensions/ERC20Permit.sol\":2698:2705  _nonces */\n      0x07\n        /* \"contracts/TurtleToken.sol\":255:3286  contract TurtleToken is ERC20, ERC20Permit, Ownable {... */\n      dup5\n      mstore\n      keccak256\n      sload\n      swap1\n      mload\n      swap1\n      dup2\n      mstore\n      return\n    tag_40:\n      dup4\n      jumpi(tag_120, callvalue)\n      dup1\n      add(calldatasize, not(0x03))\n      slt\n      tag_120\n      jumpi\n        /* \"@openzeppelin/contracts/access/Ownable.sol\":1063:1125  modifier onlyOwner() {... */\n      tag_175\n      tag_4\n      jump\t// in\n    tag_175:\n        /* \"@openzeppelin/contracts/access/Ownable.sol\":2518:2524  _owner */\n      0x09\n        /* \"contracts/TurtleToken.sol\":255:3286  contract TurtleToken is ERC20, ERC20Permit, Ownable {... */\n      dup1\n      sload\n      not(sub(shl(0xa0, 0x01), 0x01))\n      dup2\n      and\n      swap1\n      swap2\n      sstore\n      dup2\n      swap1\n      sub(shl(0xa0, 0x01), 0x01)\n      and\n        /* \"@openzeppelin/contracts/access/Ownable.sol\":2566:2606  OwnershipTransferred(oldOwner, newOwner) */\n      0x8be0079c531659141344cd1fd0a4f28419497f9722a3daafe3b4186f6b6457e0\n        /* \"contracts/TurtleToken.sol\":255:3286  contract TurtleToken is ERC20, ERC20Permit, Ownable {... */\n      dup3\n      dup1\n        /* \"@openzeppelin/contracts/access/Ownable.sol\":2566:2606  OwnershipTransferred(oldOwner, newOwner) */\n      log3\n        /* \"contracts/TurtleToken.sol\":255:3286  contract TurtleToken is ERC20, ERC20Permit, Ownable {... */\n      dup1\n      return\n    tag_38:\n      pop\n      pop\n      jumpi(tag_76, callvalue)\n      jumpi(tag_76, slt(add(not(0x03), calldatasize), 0x20))\n      0x20\n      swap2\n      dup2\n      swap1\n      sub(shl(0xa0, 0x01), 0x01)\n      tag_180\n      tag_2\n      jump\t// in\n    tag_180:\n      and\n      dup2\n      mstore\n      dup1\n      dup5\n      mstore\n      keccak256\n      sload\n      swap1\n      mload\n      swap1\n      dup2\n      mstore\n      return\n    tag_36:\n      pop\n      jumpi(tag_68, callvalue)\n      0x20\n      swap2\n      dup3\n      add(calldatasize, not(0x03))\n      slt\n      tag_183\n      jumpi\n      dup2\n      calldataload\n        /* \"contracts/TurtleToken.sol\":1948:1963  tokenAmount > 0 */\n      swap2\n      dup3\n      iszero\n        /* \"contracts/TurtleToken.sol\":255:3286  contract TurtleToken is ERC20, ERC20Permit, Ownable {... */\n      tag_185\n      jumpi\n        /* \"contracts/TurtleToken.sol\":2034:2044  msg.sender */\n      caller\n        /* \"contracts/TurtleToken.sol\":255:3286  contract TurtleToken is ERC20, ERC20Permit, Ownable {... */\n      dup6\n      mstore\n      dup5\n      dup5\n      mstore\n      dup3\n      dup3\n      dup7\n      keccak256\n      sload\n        /* \"contracts/TurtleToken.sol\":2024:2060  balanceOf(msg.sender) >= tokenAmount */\n      lt\n        /* \"contracts/TurtleToken.sol\":255:3286  contract TurtleToken is ERC20, ERC20Permit, Ownable {... */\n      tag_187\n      jumpi\n        /* \"contracts/TurtleToken.sol\":2206:2210  1e18 */\n      0x0de0b6b3a7640000\n        /* \"contracts/TurtleToken.sol\":255:3286  contract TurtleToken is ERC20, ERC20Permit, Ownable {... */\n      dup4\n      mul\n      not(0x0de0b6b3a763ffff)\n      dup5\n      dup3\n      div\n      add\n      tag_189\n      jumpi\n        /* \"contracts/TurtleToken.sol\":2214:2226  exchangeRate */\n      0x0a\n        /* \"contracts/TurtleToken.sol\":255:3286  contract TurtleToken is ERC20, ERC20Permit, Ownable {... */\n      sload\n      swap1\n      dup2\n      iszero\n      tag_191\n      jumpi\n      div\n        /* \"contracts/TurtleToken.sol\":2245:2266  address(this).balance */\n      swap1\n      dup2\n      selfbalance\n        /* \"contracts/TurtleToken.sol\":2245:2279  address(this).balance >= ethAmount */\n      lt\n        /* \"contracts/TurtleToken.sol\":255:3286  contract TurtleToken is ERC20, ERC20Permit, Ownable {... */\n      tag_193\n      jumpi\n        /* \"contracts/TurtleToken.sol\":2253:2257  this */\n      pop\n        /* \"contracts/TurtleToken.sol\":2398:2409  tokenAmount */\n      tag_195\n        /* \"contracts/TurtleToken.sol\":2253:2257  this */\n      dup4\n      address\n        /* \"contracts/TurtleToken.sol\":2034:2044  msg.sender */\n      caller\n        /* \"contracts/TurtleToken.sol\":2398:2409  tokenAmount */\n      tag_9\n      jump\t// in\n    tag_195:\n        /* \"contracts/TurtleToken.sol\":2446:2485  payable(msg.sender).transfer(ethAmount) */\n      dup5\n      dup1\n      dup3\n      dup1\n      iszero\n      tag_196\n      jumpi\n        /* \"contracts/TurtleToken.sol\":255:3286  contract TurtleToken is ERC20, ERC20Permit, Ownable {... */\n    tag_197:\n        /* \"contracts/TurtleToken.sol\":2034:2044  msg.sender */\n      dup3\n      dup1\n      swap3\n      swap2\n      dup2\n      swap3\n      caller\n        /* \"contracts/TurtleToken.sol\":2446:2485  payable(msg.sender).transfer(ethAmount) */\n      swap1\n      call\n      iszero\n      tag_198\n      jumpi\n        /* \"contracts/TurtleToken.sol\":2534:2580  TokensSold(msg.sender, tokenAmount, ethAmount) */\n      0x2dcf9433d75db0d8b1c172641f85e319ffe4ad22e108a95d1847ceb906e5195d\n        /* \"contracts/TurtleToken.sol\":255:3286  contract TurtleToken is ERC20, ERC20Permit, Ownable {... */\n      swap3\n      swap4\n      dup3\n      mload\n      swap5\n      dup6\n      mstore\n      dup5\n      add\n      mstore\n        /* \"contracts/TurtleToken.sol\":2034:2044  msg.sender */\n      caller\n        /* \"contracts/TurtleToken.sol\":2534:2580  TokensSold(msg.sender, tokenAmount, ethAmount) */\n      swap3\n      log2\n        /* \"contracts/TurtleToken.sol\":255:3286  contract TurtleToken is ERC20, ERC20Permit, Ownable {... */\n      dup1\n      return\n        /* \"contracts/TurtleToken.sol\":2446:2485  payable(msg.sender).transfer(ethAmount) */\n    tag_198:\n        /* \"contracts/TurtleToken.sol\":255:3286  contract TurtleToken is ERC20, ERC20Permit, Ownable {... */\n      dup2\n      mload\n      returndatasize\n      dup7\n      dup3\n      returndatacopy\n      returndatasize\n      swap1\n      revert\n        /* \"contracts/TurtleToken.sol\":2446:2485  payable(msg.sender).transfer(ethAmount) */\n    tag_196:\n      0x08fc\n      swap2\n      pop\n      jump(tag_197)\n        /* \"contracts/TurtleToken.sol\":255:3286  contract TurtleToken is ERC20, ERC20Permit, Ownable {... */\n    tag_193:\n      dup3\n      mload\n      shl(0xe5, 0x461bcd)\n      dup2\n      mstore\n      swap1\n      dup2\n      add\n      dup6\n      swap1\n      mstore\n      0x24\n      dup1\n      dup3\n      add\n      mstore\n      0x496e73756666696369656e74204554482062616c616e636520696e20636f6e74\n      0x44\n      dup3\n      add\n      mstore\n      shl(0xe2, 0x1c9858dd)\n      0x64\n      dup3\n      add\n      mstore\n      0x84\n      swap1\n      revert\n    tag_191:\n      shl(0xe0, 0x4e487b71)\n      dup8\n      mstore\n      0x12\n      dup4\n      mstore\n      0x24\n      dup8\n      revert\n    tag_189:\n      shl(0xe0, 0x4e487b71)\n      dup7\n      mstore\n      0x11\n      dup3\n      mstore\n      0x24\n      dup7\n      revert\n    tag_187:\n      dup4\n      0x64\n      swap3\n      mload\n      swap2\n      shl(0xe5, 0x461bcd)\n      dup4\n      mstore\n      dup3\n      add\n      mstore\n      0x1a\n      0x24\n      dup3\n      add\n      mstore\n      0x496e73756666696369656e7420746f6b656e2062616c616e6365000000000000\n      0x44\n      dup3\n      add\n      mstore\n      revert\n    tag_185:\n      dup4\n      0x84\n      swap3\n      mload\n      swap2\n      shl(0xe5, 0x461bcd)\n      dup4\n      mstore\n      dup3\n      add\n      mstore\n      0x25\n      0x24\n      dup3\n      add\n      mstore\n      0x4d7573742073656c6c206120706f73697469766520616d6f756e74206f662074\n      0x44\n      dup3\n      add\n      mstore\n      shl(0xd8, 0x6f6b656e73)\n      0x64\n      dup3\n      add\n      mstore\n      revert\n    tag_183:\n      dup4\n      dup1\n      revert\n    tag_34:\n      pop\n      swap1\n      jumpi(tag_68, callvalue)\n      dup1\n      add(calldatasize, not(0x03))\n      slt\n      tag_68\n      jumpi\n      tag_204\n      tag_2\n      jump\t// in\n    tag_204:\n      swap1\n      calldataload(0x24)\n        /* \"@openzeppelin/contracts/access/Ownable.sol\":1063:1125  modifier onlyOwner() {... */\n      swap2\n      tag_205\n      tag_4\n      jump\t// in\n    tag_205:\n      sub(shl(0xa0, 0x01), 0x01)\n        /* \"contracts/TurtleToken.sol\":255:3286  contract TurtleToken is ERC20, ERC20Permit, Ownable {... */\n      and\n      swap3\n        /* \"@openzeppelin/contracts/token/ERC20/ERC20.sol\":8603:8624  account != address(0) */\n      dup4\n      iszero\n        /* \"contracts/TurtleToken.sol\":255:3286  contract TurtleToken is ERC20, ERC20Permit, Ownable {... */\n      tag_206\n      jumpi\n      pop\n      0x20\n      dup3\n        /* \"@openzeppelin/contracts/token/ERC20/ERC20.sol\":8952:8989  Transfer(address(0), account, amount) */\n      0xddf252ad1be2c89b69c2b068fc378daa952ba7f163c4a11628f55a4df523b3ef\n        /* \"contracts/TurtleToken.sol\":255:3286  contract TurtleToken is ERC20, ERC20Permit, Ownable {... */\n      swap3\n        /* \"@openzeppelin/contracts/token/ERC20/ERC20.sol\":8731:8753  _totalSupply += amount */\n      tag_208\n        /* \"contracts/TurtleToken.sol\":255:3286  contract TurtleToken is ERC20, ERC20Permit, Ownable {... */\n      dup8\n      swap6\n        /* \"@openzeppelin/contracts/token/ERC20/ERC20.sol\":8731:8753  _totalSupply += amount */\n      0x02\n        /* \"contracts/TurtleToken.sol\":255:3286  contract TurtleToken is ERC20, ERC20Permit, Ownable {... */\n      sload\n        /* \"@openzeppelin/contracts/token/ERC20/ERC20.sol\":8731:8753  _totalSupply += amount */\n      tag_8\n      jump\t// in\n    tag_208:\n      0x02\n        /* \"contracts/TurtleToken.sol\":255:3286  contract TurtleToken is ERC20, ERC20Permit, Ownable {... */\n      sstore\n      dup6\n      dup6\n      mstore\n      dup5\n      dup4\n      mstore\n      dup1\n      dup6\n      keccak256\n      dup3\n      dup2\n      sload\n      add\n      swap1\n      sstore\n      mload\n      swap1\n      dup2\n      mstore\n        /* \"@openzeppelin/contracts/token/ERC20/ERC20.sol\":8952:8989  Transfer(address(0), account, amount) */\n      log3\n        /* \"contracts/TurtleToken.sol\":255:3286  contract TurtleToken is ERC20, ERC20Permit, Ownable {... */\n      dup1\n      return\n    tag_206:\n      0x20\n      0x64\n      swap3\n      mload\n      swap2\n      shl(0xe5, 0x461bcd)\n      dup4\n      mstore\n      dup3\n      add\n      mstore\n      0x1f\n      0x24\n      dup3\n      add\n      mstore\n      0x45524332303a206d696e7420746f20746865207a65726f206164647265737300\n      0x44\n      dup3\n      add\n      mstore\n      revert\n    tag_32:\n      pop\n      pop\n      jumpi(tag_76, callvalue)\n      dup2\n      add(calldatasize, not(0x03))\n      slt\n      tag_76\n      jumpi\n      0x20\n      swap1\n        /* \"contracts/TurtleToken.sol\":370:397  uint256 public exchangeRate */\n      0x0a\n        /* \"contracts/TurtleToken.sol\":255:3286  contract TurtleToken is ERC20, ERC20Permit, Ownable {... */\n      sload\n      swap1\n      mload\n      swap1\n      dup2\n      mstore\n      return\n    tag_30:\n      pop\n      pop\n      jumpi(tag_76, callvalue)\n      dup1\n      add(calldatasize, not(0x03))\n      slt\n      tag_76\n      jumpi\n        /* \"@openzeppelin/contracts/token/ERC20/ERC20.sol\":6021:6059  allowance(owner, spender) + addedValue */\n      tag_116\n        /* \"contracts/TurtleToken.sol\":255:3286  contract TurtleToken is ERC20, ERC20Permit, Ownable {... */\n      0x20\n      swap3\n        /* \"@openzeppelin/contracts/token/ERC20/ERC20.sol\":6021:6059  allowance(owner, spender) + addedValue */\n      tag_218\n        /* \"contracts/TurtleToken.sol\":255:3286  contract TurtleToken is ERC20, ERC20Permit, Ownable {... */\n      tag_219\n      tag_2\n      jump\t// in\n    tag_219:\n        /* \"@openzeppelin/contracts/utils/Context.sol\":734:744  msg.sender */\n      caller\n        /* \"contracts/TurtleToken.sol\":255:3286  contract TurtleToken is ERC20, ERC20Permit, Ownable {... */\n      dup4\n      mstore\n      0x01\n      dup7\n      mstore\n      dup5\n      dup4\n      keccak256\n      sub(shl(0xa0, 0x01), 0x01)\n      dup3\n      and\n      dup5\n      mstore\n      dup7\n      mstore\n      swap2\n      dup5\n      swap1\n      keccak256\n      sload\n      calldataload(0x24)\n      swap1\n        /* \"@openzeppelin/contracts/token/ERC20/ERC20.sol\":6021:6059  allowance(owner, spender) + addedValue */\n      tag_8\n      jump\t// in\n    tag_218:\n        /* \"@openzeppelin/contracts/utils/Context.sol\":734:744  msg.sender */\n      swap1\n      caller\n        /* \"@openzeppelin/contracts/token/ERC20/ERC20.sol\":6021:6059  allowance(owner, spender) + addedValue */\n      tag_10\n      jump\t// in\n        /* \"contracts/TurtleToken.sol\":255:3286  contract TurtleToken is ERC20, ERC20Permit, Ownable {... */\n    tag_28:\n      pop\n      pop\n      jumpi(tag_76, callvalue)\n      dup2\n      add(calldatasize, not(0x03))\n      slt\n      tag_76\n      jumpi\n      0x20\n        /* \"@openzeppelin/contracts/token/ERC20/extensions/ERC20Permit.sol\":2922:2942  _domainSeparatorV4() */\n      swap1\n      tag_224\n      tag_13\n      jump\t// in\n    tag_224:\n        /* \"contracts/TurtleToken.sol\":255:3286  contract TurtleToken is ERC20, ERC20Permit, Ownable {... */\n      swap1\n      mload\n      swap1\n      dup2\n      mstore\n      return\n    tag_26:\n      pop\n      pop\n      jumpi(tag_76, callvalue)\n      dup2\n      add(calldatasize, not(0x03))\n      slt\n      tag_76\n      jumpi\n      0x20\n      swap1\n      mload\n        /* \"@openzeppelin/contracts/token/ERC20/ERC20.sol\":3186:3188  18 */\n      0x12\n        /* \"contracts/TurtleToken.sol\":255:3286  contract TurtleToken is ERC20, ERC20Permit, Ownable {... */\n      dup2\n      mstore\n      return\n    tag_24:\n      pop\n      dup3\n      swap1\n      jumpi(tag_76, callvalue)\n      jumpi(tag_76, slt(add(not(0x03), calldatasize), 0x60))\n      tag_233\n      tag_2\n      jump\t// in\n    tag_233:\n      tag_234\n      tag_3\n      jump\t// in\n    tag_234:\n      swap2\n      dup5\n      calldataload(0x44)\n      swap5\n      0x01\n      dup1\n      0xa0\n      shl\n      sub\n      dup5\n      and\n      dup2\n      mstore\n      mstore(0x20, 0x01)\n      dup2\n      dup2\n      keccak256\n        /* \"@openzeppelin/contracts/utils/Context.sol\":734:744  msg.sender */\n      caller\n        /* \"contracts/TurtleToken.sol\":255:3286  contract TurtleToken is ERC20, ERC20Permit, Ownable {... */\n      dup3\n      mstore\n      0x20\n      mstore\n      keccak256\n      sload\n        /* \"@openzeppelin/contracts/token/ERC20/ERC20.sol\":11264:11281  type(uint256).max */\n      swap1\n      not(0x00)\n        /* \"@openzeppelin/contracts/token/ERC20/ERC20.sol\":11244:11281  currentAllowance != type(uint256).max */\n      dup3\n      sub\n        /* \"@openzeppelin/contracts/token/ERC20/ERC20.sol\":11240:11483  if (currentAllowance != type(uint256).max) {... */\n      tag_235\n      jumpi\n        /* \"contracts/TurtleToken.sol\":255:3286  contract TurtleToken is ERC20, ERC20Permit, Ownable {... */\n    tag_236:\n      0x20\n        /* \"@openzeppelin/contracts/token/ERC20/ERC20.sol\":5424:5430  amount */\n      dup7\n      tag_116\n      dup8\n      dup8\n      dup8\n      tag_9\n      jump\t// in\n        /* \"@openzeppelin/contracts/token/ERC20/ERC20.sol\":11240:11483  if (currentAllowance != type(uint256).max) {... */\n    tag_235:\n        /* \"@openzeppelin/contracts/token/ERC20/ERC20.sol\":11305:11331  currentAllowance >= amount */\n      dup5\n      dup3\n      lt\n        /* \"contracts/TurtleToken.sol\":255:3286  contract TurtleToken is ERC20, ERC20Permit, Ownable {... */\n      tag_238\n      jumpi\n      pop\n      swap2\n      dup4\n      swap2\n        /* \"@openzeppelin/contracts/token/ERC20/ERC20.sol\":11432:11457  currentAllowance - amount */\n      tag_240\n        /* \"contracts/TurtleToken.sol\":255:3286  contract TurtleToken is ERC20, ERC20Permit, Ownable {... */\n      0x20\n      swap7\n      swap6\n        /* \"@openzeppelin/contracts/token/ERC20/ERC20.sol\":5424:5430  amount */\n      tag_116\n        /* \"contracts/TurtleToken.sol\":255:3286  contract TurtleToken is ERC20, ERC20Permit, Ownable {... */\n      swap6\n      sub\n        /* \"@openzeppelin/contracts/utils/Context.sol\":734:744  msg.sender */\n      caller\n        /* \"@openzeppelin/contracts/token/ERC20/ERC20.sol\":11432:11457  currentAllowance - amount */\n      dup4\n      tag_10\n      jump\t// in\n    tag_240:\n        /* \"@openzeppelin/contracts/token/ERC20/ERC20.sol\":11240:11483  if (currentAllowance != type(uint256).max) {... */\n      swap2\n      swap4\n      swap5\n      dup2\n      swap4\n      pop\n      jump(tag_236)\n        /* \"contracts/TurtleToken.sol\":255:3286  contract TurtleToken is ERC20, ERC20Permit, Ownable {... */\n    tag_238:\n      0x64\n      swap1\n      0x20\n      dup8\n      mload\n      swap2\n      shl(0xe5, 0x461bcd)\n      dup4\n      mstore\n      dup3\n      add\n      mstore\n      0x1d\n      0x24\n      dup3\n      add\n      mstore\n      0x45524332303a20696e73756666696369656e7420616c6c6f77616e6365000000\n      0x44\n      dup3\n      add\n      mstore\n      revert\n    tag_22:\n      pop\n      pop\n      jumpi(tag_76, callvalue)\n      dup2\n      add(calldatasize, not(0x03))\n      slt\n      tag_76\n      jumpi\n      0x20\n      swap1\n        /* \"@openzeppelin/contracts/token/ERC20/ERC20.sol\":3342:3354  _totalSupply */\n      0x02\n        /* \"contracts/TurtleToken.sol\":255:3286  contract TurtleToken is ERC20, ERC20Permit, Ownable {... */\n      sload\n      swap1\n      mload\n      swap1\n      dup2\n      mstore\n      return\n    tag_20:\n      pop\n      pop\n      jumpi(tag_76, callvalue)\n      dup1\n      add(calldatasize, not(0x03))\n      slt\n      tag_76\n      jumpi\n      0x20\n      swap1\n        /* \"@openzeppelin/contracts/token/ERC20/ERC20.sol\":4606:4612  amount */\n      tag_116\n        /* \"contracts/TurtleToken.sol\":255:3286  contract TurtleToken is ERC20, ERC20Permit, Ownable {... */\n      tag_250\n      tag_2\n      jump\t// in\n    tag_250:\n      calldataload(0x24)\n        /* \"@openzeppelin/contracts/utils/Context.sol\":734:744  msg.sender */\n      swap1\n      caller\n        /* \"@openzeppelin/contracts/token/ERC20/ERC20.sol\":4606:4612  amount */\n      tag_10\n      jump\t// in\n        /* \"contracts/TurtleToken.sol\":255:3286  contract TurtleToken is ERC20, ERC20Permit, Ownable {... */\n    tag_18:\n      dup5\n      swap1\n      dup5\n      jumpi(tag_68, callvalue)\n      dup3\n      add(calldatasize, not(0x03))\n      slt\n      tag_68\n      jumpi\n      dup3\n      sload(0x03)\n      tag_255\n      dup2\n      tag_5\n      jump\t// in\n    tag_255:\n      dup1\n      dup6\n      mstore\n      swap2\n      0x01\n      swap2\n      dup1\n      dup4\n      and\n      swap1\n      dup2\n      iszero\n      tag_256\n      jumpi\n      pop\n      0x01\n      eq\n      tag_258\n      jumpi\n    tag_259:\n      pop\n      pop\n      pop\n      tag_145\n      dup3\n      tag_144\n      swap5\n      sub\n      dup4\n      tag_7\n      jump\t// in\n    tag_258:\n      swap5\n      pop\n      0x03\n      dup6\n      mstore\n      0xc2575a0e9e593c00f959f8c92f12db2869c3395a3b0502d05e2516446f71f85b\n    tag_262:\n      dup3\n      dup7\n      lt\n      tag_263\n      jumpi\n      pop\n      pop\n      pop\n      tag_145\n      dup3\n      0x20\n      tag_144\n      swap6\n      dup3\n      add\n      add\n      swap5\n      jump(tag_259)\n    tag_263:\n      dup1\n      sload\n      0x20\n      dup8\n      dup8\n      add\n      dup2\n      add\n      swap2\n      swap1\n      swap2\n      mstore\n      swap1\n      swap6\n      add\n      swap5\n      dup2\n      add\n      jump(tag_262)\n    tag_256:\n      tag_144\n      swap8\n      pop\n      dup7\n      swap4\n      pop\n      0x20\n      swap3\n      pop\n      tag_145\n      swap5\n      swap2\n      pop\n      not(0xff)\n      and\n      dup3\n      dup5\n      add\n      mstore\n      iszero\n      iszero\n      0x05\n      shl\n      dup3\n      add\n      add\n      swap5\n      jump(tag_259)\n    tag_1:\n      swap2\n      swap1\n      dup3\n      mload\n      swap3\n      dup4\n      dup3\n      mstore\n      0x00\n    tag_265:\n      dup5\n      dup2\n      lt\n      tag_266\n      jumpi\n      pop\n      pop\n      dup3\n      0x00\n      0x20\n      dup1\n      swap5\n      swap6\n      dup5\n      add\n      add\n      mstore\n      0x1f\n      dup1\n      not\n      swap2\n      add\n      and\n      add\n      add\n      swap1\n      jump\t// out\n    tag_266:\n      0x20\n      dup2\n      dup4\n      add\n      dup2\n      add\n      mload\n      dup5\n      dup4\n      add\n      dup3\n      add\n      mstore\n      add\n      jump(tag_265)\n    tag_2:\n      calldataload(0x04)\n      swap1\n      sub(shl(0xa0, 0x01), 0x01)\n      dup3\n      and\n      dup3\n      sub\n      tag_268\n      jumpi\n      jump\t// out\n    tag_268:\n      0x00\n      dup1\n      revert\n    tag_3:\n      calldataload(0x24)\n      swap1\n      sub(shl(0xa0, 0x01), 0x01)\n      dup3\n      and\n      dup3\n      sub\n      tag_268\n      jumpi\n      jump\t// out\n        /* \"@openzeppelin/contracts/access/Ownable.sol\":1359:1489  function _checkOwner() internal view virtual {... */\n    tag_4:\n        /* \"@openzeppelin/contracts/access/Ownable.sol\":1273:1279  _owner */\n      0x09\n        /* \"contracts/TurtleToken.sol\":255:3286  contract TurtleToken is ERC20, ERC20Permit, Ownable {... */\n      sload\n      sub(shl(0xa0, 0x01), 0x01)\n      and\n        /* \"@openzeppelin/contracts/utils/Context.sol\":734:744  msg.sender */\n      caller\n        /* \"@openzeppelin/contracts/access/Ownable.sol\":1422:1445  owner() == _msgSender() */\n      sub\n        /* \"contracts/TurtleToken.sol\":255:3286  contract TurtleToken is ERC20, ERC20Permit, Ownable {... */\n      tag_272\n      jumpi\n        /* \"@openzeppelin/contracts/access/Ownable.sol\":1359:1489  function _checkOwner() internal view virtual {... */\n      jump\t// out\n        /* \"contracts/TurtleToken.sol\":255:3286  contract TurtleToken is ERC20, ERC20Permit, Ownable {... */\n    tag_272:\n      0x64\n      mload(0x40)\n      shl(0xe5, 0x461bcd)\n      dup2\n      mstore\n      0x20\n      0x04\n      dup3\n      add\n      mstore\n      0x20\n      0x24\n      dup3\n      add\n      mstore\n      0x4f776e61626c653a2063616c6c6572206973206e6f7420746865206f776e6572\n      0x44\n      dup3\n      add\n      mstore\n      revert\n    tag_5:\n      swap1\n      0x01\n      dup3\n      dup2\n      shr\n      swap3\n      and\n      dup1\n      iszero\n      tag_274\n      jumpi\n    tag_275:\n      0x20\n      dup4\n      lt\n      eq\n      tag_276\n      jumpi\n      jump\t// out\n    tag_276:\n      mstore(0x00, shl(0xe0, 0x4e487b71))\n      mstore(0x04, 0x22)\n      revert(0x00, 0x24)\n    tag_274:\n      swap2\n      0x7f\n      and\n      swap2\n      jump(tag_275)\n    tag_6:\n      0x40\n      dup2\n      add\n      swap1\n      dup2\n      lt\n      0xffffffffffffffff\n      dup3\n      gt\n      or\n      tag_278\n      jumpi\n      0x40\n      mstore\n      jump\t// out\n    tag_278:\n      mstore(0x00, shl(0xe0, 0x4e487b71))\n      mstore(0x04, 0x41)\n      revert(0x00, 0x24)\n    tag_7:\n      swap1\n      0x1f\n      dup1\n      not\n      swap2\n      add\n      and\n      dup2\n      add\n      swap1\n      dup2\n      lt\n      0xffffffffffffffff\n      dup3\n      gt\n      or\n      tag_278\n      jumpi\n      0x40\n      mstore\n      jump\t// out\n    tag_8:\n      swap2\n      swap1\n      dup3\n      add\n      dup1\n      swap3\n      gt\n      tag_282\n      jumpi\n      jump\t// out\n    tag_282:\n      mstore(0x00, shl(0xe0, 0x4e487b71))\n      mstore(0x04, 0x11)\n      revert(0x00, 0x24)\n        /* \"@openzeppelin/contracts/token/ERC20/ERC20.sol\":7456:8244  function _transfer(address from, address to, uint256 amount) internal virtual {... */\n    tag_9:\n      sub(shl(0xa0, 0x01), 0x01)\n        /* \"contracts/TurtleToken.sol\":255:3286  contract TurtleToken is ERC20, ERC20Permit, Ownable {... */\n      swap1\n      dup2\n      and\n      swap2\n        /* \"@openzeppelin/contracts/token/ERC20/ERC20.sol\":7552:7570  from != address(0) */\n      dup3\n      iszero\n        /* \"contracts/TurtleToken.sol\":255:3286  contract TurtleToken is ERC20, ERC20Permit, Ownable {... */\n      tag_284\n      jumpi\n      and\n        /* \"@openzeppelin/contracts/token/ERC20/ERC20.sol\":7630:7646  to != address(0) */\n      swap2\n      dup3\n      iszero\n        /* \"contracts/TurtleToken.sol\":255:3286  contract TurtleToken is ERC20, ERC20Permit, Ownable {... */\n      tag_286\n      jumpi\n        /* \"@openzeppelin/contracts/token/ERC20/ERC20.sol\":7568:7569  0 */\n      0x00\n        /* \"contracts/TurtleToken.sol\":255:3286  contract TurtleToken is ERC20, ERC20Permit, Ownable {... */\n      dup3\n      dup2\n      mstore\n      dup1\n      0x20\n      mstore\n      0x40\n      dup2\n      keccak256\n      sload\n        /* \"@openzeppelin/contracts/token/ERC20/ERC20.sol\":7801:7822  fromBalance >= amount */\n      swap2\n      dup1\n      dup4\n      lt\n        /* \"contracts/TurtleToken.sol\":255:3286  contract TurtleToken is ERC20, ERC20Permit, Ownable {... */\n      tag_288\n      jumpi\n      0x40\n      dup3\n      dup3\n        /* \"@openzeppelin/contracts/token/ERC20/ERC20.sol\":8163:8189  Transfer(from, to, amount) */\n      0xddf252ad1be2c89b69c2b068fc378daa952ba7f163c4a11628f55a4df523b3ef\n        /* \"contracts/TurtleToken.sol\":255:3286  contract TurtleToken is ERC20, ERC20Permit, Ownable {... */\n      swap6\n      dup8\n      0x20\n      swap7\n      mstore\n      dup3\n      dup7\n      mstore\n      sub\n      dup3\n      dup3\n      keccak256\n      sstore\n      dup7\n      dup2\n      mstore\n      keccak256\n      dup2\n      dup2\n      sload\n      add\n      swap1\n      sstore\n      mload(0x40)\n      swap1\n      dup2\n      mstore\n        /* \"@openzeppelin/contracts/token/ERC20/ERC20.sol\":8163:8189  Transfer(from, to, amount) */\n      log3\n        /* \"@openzeppelin/contracts/token/ERC20/ERC20.sol\":7456:8244  function _transfer(address from, address to, uint256 amount) internal virtual {... */\n      jump\t// out\n        /* \"contracts/TurtleToken.sol\":255:3286  contract TurtleToken is ERC20, ERC20Permit, Ownable {... */\n    tag_288:\n      mload(0x40)\n      shl(0xe5, 0x461bcd)\n      dup2\n      mstore\n      0x20\n      0x04\n      dup3\n      add\n      mstore\n      0x26\n      0x24\n      dup3\n      add\n      mstore\n      0x45524332303a207472616e7366657220616d6f756e7420657863656564732062\n      0x44\n      dup3\n      add\n      mstore\n      shl(0xd0, 0x616c616e6365)\n      0x64\n      dup3\n      add\n      mstore\n      0x84\n      swap1\n      revert\n    tag_286:\n      mload(0x40)\n      shl(0xe5, 0x461bcd)\n      dup2\n      mstore\n      0x20\n      0x04\n      dup3\n      add\n      mstore\n      0x23\n      0x24\n      dup3\n      add\n      mstore\n      0x45524332303a207472616e7366657220746f20746865207a65726f2061646472\n      0x44\n      dup3\n      add\n      mstore\n      shl(0xe8, 0x657373)\n      0x64\n      dup3\n      add\n      mstore\n      0x84\n      swap1\n      revert\n    tag_284:\n      mload(0x40)\n      shl(0xe5, 0x461bcd)\n      dup2\n      mstore\n      0x20\n      0x04\n      dup3\n      add\n      mstore\n      0x25\n      0x24\n      dup3\n      add\n      mstore\n      0x45524332303a207472616e736665722066726f6d20746865207a65726f206164\n      0x44\n      dup3\n      add\n      mstore\n      shl(0xd8, 0x6472657373)\n      0x64\n      dup3\n      add\n      mstore\n      0x84\n      swap1\n      revert\n        /* \"@openzeppelin/contracts/token/ERC20/ERC20.sol\":10457:10797  function _approve(address owner, address spender, uint256 amount) internal virtual {... */\n    tag_10:\n      sub(shl(0xa0, 0x01), 0x01)\n        /* \"contracts/TurtleToken.sol\":255:3286  contract TurtleToken is ERC20, ERC20Permit, Ownable {... */\n      swap1\n      dup2\n      and\n      swap2\n        /* \"@openzeppelin/contracts/token/ERC20/ERC20.sol\":10558:10577  owner != address(0) */\n      dup3\n      iszero\n        /* \"contracts/TurtleToken.sol\":255:3286  contract TurtleToken is ERC20, ERC20Permit, Ownable {... */\n      tag_290\n      jumpi\n      and\n        /* \"@openzeppelin/contracts/token/ERC20/ERC20.sol\":10636:10657  spender != address(0) */\n      swap2\n      dup3\n      iszero\n        /* \"contracts/TurtleToken.sol\":255:3286  contract TurtleToken is ERC20, ERC20Permit, Ownable {... */\n      tag_292\n      jumpi\n      0x20\n        /* \"@openzeppelin/contracts/token/ERC20/ERC20.sol\":10758:10790  Approval(owner, spender, amount) */\n      0x8c5be1e5ebec7d5bd14f71427d1e84f3dd0314c0f7b2291e5b200ac8c7c3b925\n        /* \"contracts/TurtleToken.sol\":255:3286  contract TurtleToken is ERC20, ERC20Permit, Ownable {... */\n      swap2\n      dup4\n        /* \"@openzeppelin/contracts/token/ERC20/ERC20.sol\":10575:10576  0 */\n      0x00\n        /* \"contracts/TurtleToken.sol\":255:3286  contract TurtleToken is ERC20, ERC20Permit, Ownable {... */\n      mstore\n      0x01\n      dup3\n      mstore\n      0x40\n        /* \"@openzeppelin/contracts/token/ERC20/ERC20.sol\":10575:10576  0 */\n      0x00\n        /* \"contracts/TurtleToken.sol\":255:3286  contract TurtleToken is ERC20, ERC20Permit, Ownable {... */\n      keccak256\n      dup6\n        /* \"@openzeppelin/contracts/token/ERC20/ERC20.sol\":10575:10576  0 */\n      0x00\n        /* \"contracts/TurtleToken.sol\":255:3286  contract TurtleToken is ERC20, ERC20Permit, Ownable {... */\n      mstore\n      dup3\n      mstore\n      dup1\n      0x40\n        /* \"@openzeppelin/contracts/token/ERC20/ERC20.sol\":10575:10576  0 */\n      0x00\n        /* \"contracts/TurtleToken.sol\":255:3286  contract TurtleToken is ERC20, ERC20Permit, Ownable {... */\n      keccak256\n      sstore\n      mload(0x40)\n      swap1\n      dup2\n      mstore\n        /* \"@openzeppelin/contracts/token/ERC20/ERC20.sol\":10758:10790  Approval(owner, spender, amount) */\n      log3\n        /* \"@openzeppelin/contracts/token/ERC20/ERC20.sol\":10457:10797  function _approve(address owner, address spender, uint256 amount) internal virtual {... */\n      jump\t// out\n        /* \"contracts/TurtleToken.sol\":255:3286  contract TurtleToken is ERC20, ERC20Permit, Ownable {... */\n    tag_292:\n      mload(0x40)\n      shl(0xe5, 0x461bcd)\n      dup2\n      mstore\n      0x20\n      0x04\n      dup3\n      add\n      mstore\n      0x22\n      0x24\n      dup3\n      add\n      mstore\n      0x45524332303a20617070726f766520746f20746865207a65726f206164647265\n      0x44\n      dup3\n      add\n      mstore\n      shl(0xf0, 0x7373)\n      0x64\n      dup3\n      add\n      mstore\n      0x84\n      swap1\n      revert\n    tag_290:\n      mload(0x40)\n      shl(0xe5, 0x461bcd)\n      dup2\n      mstore\n      0x20\n      0x04\n      dup3\n      add\n      mstore\n      0x24\n      dup1\n      dup3\n      add\n      mstore\n      0x45524332303a20617070726f76652066726f6d20746865207a65726f20616464\n      0x44\n      dup3\n      add\n      mstore\n      shl(0xe0, 0x72657373)\n      0x64\n      dup3\n      add\n      mstore\n      0x84\n      swap1\n      revert\n        /* \"@openzeppelin/contracts/utils/cryptography/ECDSA.sol\":570:1081  function _throwError(RecoverError error) private pure {... */\n    tag_11:\n        /* \"contracts/TurtleToken.sol\":255:3286  contract TurtleToken is ERC20, ERC20Permit, Ownable {... */\n      0x05\n      dup2\n      lt\n      iszero\n      tag_294\n      jumpi\n        /* \"@openzeppelin/contracts/utils/cryptography/ECDSA.sol\":638:667  error == RecoverError.NoError */\n      dup1\n      tag_296\n      jumpi\n        /* \"@openzeppelin/contracts/utils/cryptography/ECDSA.sol\":683:690  return; */\n      pop\n      jump\t// out\n        /* \"@openzeppelin/contracts/utils/cryptography/ECDSA.sol\":634:1075  if (error == RecoverError.NoError) {... */\n    tag_296:\n        /* \"contracts/TurtleToken.sol\":255:3286  contract TurtleToken is ERC20, ERC20Permit, Ownable {... */\n      0x01\n        /* \"@openzeppelin/contracts/utils/cryptography/ECDSA.sol\":734:772  error == RecoverError.InvalidSignature */\n      dup2\n      sub\n        /* \"contracts/TurtleToken.sol\":255:3286  contract TurtleToken is ERC20, ERC20Permit, Ownable {... */\n      tag_298\n      jumpi\n      mload(0x40)\n      shl(0xe5, 0x461bcd)\n        /* \"@openzeppelin/contracts/utils/cryptography/ECDSA.sol\":788:822  revert(\"ECDSA: invalid signature\") */\n      dup2\n      mstore\n        /* \"contracts/TurtleToken.sol\":255:3286  contract TurtleToken is ERC20, ERC20Permit, Ownable {... */\n      0x20\n        /* \"@openzeppelin/contracts/utils/cryptography/ECDSA.sol\":788:822  revert(\"ECDSA: invalid signature\") */\n      0x04\n      dup3\n      add\n        /* \"contracts/TurtleToken.sol\":255:3286  contract TurtleToken is ERC20, ERC20Permit, Ownable {... */\n      mstore\n      0x18\n      0x24\n      dup3\n      add\n      mstore\n      0x45434453413a20696e76616c6964207369676e61747572650000000000000000\n      0x44\n      dup3\n      add\n      mstore\n      0x64\n      swap1\n        /* \"@openzeppelin/contracts/utils/cryptography/ECDSA.sol\":788:822  revert(\"ECDSA: invalid signature\") */\n      revert\n        /* \"@openzeppelin/contracts/utils/cryptography/ECDSA.sol\":730:1075  if (error == RecoverError.InvalidSignature) {... */\n    tag_298:\n        /* \"@openzeppelin/contracts/utils/cryptography/ECDSA.sol\":852:887  RecoverError.InvalidSignatureLength */\n      0x02\n        /* \"@openzeppelin/contracts/utils/cryptography/ECDSA.sol\":843:887  error == RecoverError.InvalidSignatureLength */\n      dup2\n      sub\n        /* \"@openzeppelin/contracts/utils/cryptography/ECDSA.sol\":852:887  RecoverError.InvalidSignatureLength */\n      tag_300\n      jumpi\n        /* \"contracts/TurtleToken.sol\":255:3286  contract TurtleToken is ERC20, ERC20Permit, Ownable {... */\n      mload(0x40)\n      shl(0xe5, 0x461bcd)\n        /* \"@openzeppelin/contracts/utils/cryptography/ECDSA.sol\":903:944  revert(\"ECDSA: invalid signature length\") */\n      dup2\n      mstore\n        /* \"contracts/TurtleToken.sol\":255:3286  contract TurtleToken is ERC20, ERC20Permit, Ownable {... */\n      0x20\n        /* \"@openzeppelin/contracts/utils/cryptography/ECDSA.sol\":903:944  revert(\"ECDSA: invalid signature length\") */\n      0x04\n      dup3\n      add\n        /* \"contracts/TurtleToken.sol\":255:3286  contract TurtleToken is ERC20, ERC20Permit, Ownable {... */\n      mstore\n      0x1f\n      0x24\n      dup3\n      add\n      mstore\n      0x45434453413a20696e76616c6964207369676e6174757265206c656e67746800\n      0x44\n      dup3\n      add\n      mstore\n      0x64\n      swap1\n        /* \"@openzeppelin/contracts/utils/cryptography/ECDSA.sol\":903:944  revert(\"ECDSA: invalid signature length\") */\n      revert\n        /* \"@openzeppelin/contracts/utils/cryptography/ECDSA.sol\":839:1075  if (error == RecoverError.InvalidSignatureLength) {... */\n    tag_300:\n        /* \"@openzeppelin/contracts/utils/cryptography/ECDSA.sol\":974:1004  RecoverError.InvalidSignatureS */\n      0x03\n        /* \"@openzeppelin/contracts/utils/cryptography/ECDSA.sol\":965:1004  error == RecoverError.InvalidSignatureS */\n      eq\n        /* \"@openzeppelin/contracts/utils/cryptography/ECDSA.sol\":961:1075  if (error == RecoverError.InvalidSignatureS) {... */\n      tag_302\n      jumpi\n        /* \"@openzeppelin/contracts/utils/cryptography/ECDSA.sol\":570:1081  function _throwError(RecoverError error) private pure {... */\n      jump\t// out\n        /* \"@openzeppelin/contracts/utils/cryptography/ECDSA.sol\":961:1075  if (error == RecoverError.InvalidSignatureS) {... */\n    tag_302:\n        /* \"contracts/TurtleToken.sol\":255:3286  contract TurtleToken is ERC20, ERC20Permit, Ownable {... */\n      mload(0x40)\n      shl(0xe5, 0x461bcd)\n        /* \"@openzeppelin/contracts/utils/cryptography/ECDSA.sol\":1020:1064  revert(\"ECDSA: invalid signature 's' value\") */\n      dup2\n      mstore\n        /* \"contracts/TurtleToken.sol\":255:3286  contract TurtleToken is ERC20, ERC20Permit, Ownable {... */\n      0x20\n        /* \"@openzeppelin/contracts/utils/cryptography/ECDSA.sol\":1020:1064  revert(\"ECDSA: invalid signature 's' value\") */\n      0x04\n      dup3\n      add\n        /* \"contracts/TurtleToken.sol\":255:3286  contract TurtleToken is ERC20, ERC20Permit, Ownable {... */\n      mstore\n      0x22\n      0x24\n      dup3\n      add\n      mstore\n      0x45434453413a20696e76616c6964207369676e6174757265202773272076616c\n      0x44\n      dup3\n      add\n      mstore\n      shl(0xf0, 0x7565)\n      0x64\n      dup3\n      add\n      mstore\n      0x84\n      swap1\n        /* \"@openzeppelin/contracts/utils/cryptography/ECDSA.sol\":1020:1064  revert(\"ECDSA: invalid signature 's' value\") */\n      revert\n        /* \"contracts/TurtleToken.sol\":255:3286  contract TurtleToken is ERC20, ERC20Permit, Ownable {... */\n    tag_294:\n      shl(0xe0, 0x4e487b71)\n        /* \"@openzeppelin/contracts/utils/cryptography/ECDSA.sol\":647:667  RecoverError.NoError */\n      0x00\n        /* \"contracts/TurtleToken.sol\":255:3286  contract TurtleToken is ERC20, ERC20Permit, Ownable {... */\n      mstore\n      mstore(0x04, 0x21)\n      0x24\n        /* \"@openzeppelin/contracts/utils/cryptography/ECDSA.sol\":647:667  RecoverError.NoError */\n      0x00\n        /* \"contracts/TurtleToken.sol\":255:3286  contract TurtleToken is ERC20, ERC20Permit, Ownable {... */\n      revert\n        /* \"@openzeppelin/contracts/utils/cryptography/ECDSA.sol\":5009:6465  function tryRecover(bytes32 hash, uint8 v, bytes32 r, bytes32 s) internal pure returns (address, RecoverError) {... */\n    tag_12:\n      swap3\n      swap2\n      swap1\n        /* \"@openzeppelin/contracts/utils/cryptography/ECDSA.sol\":6021:6087  0x7FFFFFFFFFFFFFFFFFFFFFFFFFFFFFFF5D576E7357A4501DDFE92F46681B20A0 */\n      0x7fffffffffffffffffffffffffffffff5d576e7357a4501ddfe92f46681b20a0\n        /* \"@openzeppelin/contracts/utils/cryptography/ECDSA.sol\":6008:6087  uint256(s) > 0x7FFFFFFFFFFFFFFFFFFFFFFFFFFFFFFF5D576E7357A4501DDFE92F46681B20A0 */\n      dup4\n      gt\n        /* \"@openzeppelin/contracts/utils/cryptography/ECDSA.sol\":6004:6165  if (uint256(s) > 0x7FFFFFFFFFFFFFFFFFFFFFFFFFFFFFFF5D576E7357A4501DDFE92F46681B20A0) {... */\n      tag_304\n      jumpi\n        /* \"contracts/TurtleToken.sol\":255:3286  contract TurtleToken is ERC20, ERC20Permit, Ownable {... */\n      swap2\n      0x80\n      swap5\n      swap4\n      swap2\n      0xff\n      0x20\n      swap5\n      mload(0x40)\n      swap5\n      dup6\n      mstore\n      and\n      dup5\n      dup5\n      add\n      mstore\n      0x40\n      dup4\n      add\n      mstore\n      0x60\n      dup3\n      add\n      mstore\n      0x00\n        /* \"@openzeppelin/contracts/utils/cryptography/ECDSA.sol\":6276:6300  ecrecover(hash, v, r, s) */\n      swap4\n      dup5\n      swap2\n      dup3\n      dup1\n      mstore\n      0x01\n      gas\n      staticcall\n      iszero\n      tag_306\n      jumpi\n      dup2\n      mload\n      sub(shl(0xa0, 0x01), 0x01)\n        /* \"contracts/TurtleToken.sol\":255:3286  contract TurtleToken is ERC20, ERC20Permit, Ownable {... */\n      dup2\n      and\n        /* \"@openzeppelin/contracts/utils/cryptography/ECDSA.sol\":6314:6334  signer == address(0) */\n      iszero\n        /* \"@openzeppelin/contracts/utils/cryptography/ECDSA.sol\":6310:6411  if (signer == address(0)) {... */\n      tag_308\n      jumpi\n        /* \"@openzeppelin/contracts/utils/cryptography/ECDSA.sol\":6421:6458  return (signer, RecoverError.NoError) */\n      swap2\n        /* \"@openzeppelin/contracts/utils/cryptography/ECDSA.sol\":5009:6465  function tryRecover(bytes32 hash, uint8 v, bytes32 r, bytes32 s) internal pure returns (address, RecoverError) {... */\n      swap1\n      jump\t// out\n        /* \"@openzeppelin/contracts/utils/cryptography/ECDSA.sol\":6310:6411  if (signer == address(0)) {... */\n    tag_308:\n        /* \"@openzeppelin/contracts/utils/cryptography/ECDSA.sol\":6350:6400  return (address(0), RecoverError.InvalidSignature) */\n      pop\n        /* \"@openzeppelin/contracts/utils/cryptography/ECDSA.sol\":6276:6300  ecrecover(hash, v, r, s) */\n      0x01\n        /* \"@openzeppelin/contracts/utils/cryptography/ECDSA.sol\":6350:6400  return (address(0), RecoverError.InvalidSignature) */\n      swap1\n      jump\t// out\n        /* \"@openzeppelin/contracts/utils/cryptography/ECDSA.sol\":6276:6300  ecrecover(hash, v, r, s) */\n    tag_306:\n        /* \"contracts/TurtleToken.sol\":255:3286  contract TurtleToken is ERC20, ERC20Permit, Ownable {... */\n      pop\n      mload(0x40)\n      swap1\n      returndatasize\n      swap1\n      dup3\n      returndatacopy\n      returndatasize\n      swap1\n      revert\n        /* \"@openzeppelin/contracts/utils/cryptography/ECDSA.sol\":6004:6165  if (uint256(s) > 0x7FFFFFFFFFFFFFFFFFFFFFFFFFFFFFFF5D576E7357A4501DDFE92F46681B20A0) {... */\n    tag_304:\n        /* \"@openzeppelin/contracts/utils/cryptography/ECDSA.sol\":6103:6154  return (address(0), RecoverError.InvalidSignatureS) */\n      pop\n      pop\n      pop\n      pop\n        /* \"@openzeppelin/contracts/utils/cryptography/ECDSA.sol\":6119:6120  0 */\n      0x00\n        /* \"@openzeppelin/contracts/utils/cryptography/ECDSA.sol\":6103:6154  return (address(0), RecoverError.InvalidSignatureS) */\n      swap1\n        /* \"@openzeppelin/contracts/utils/cryptography/ECDSA.sol\":6123:6153  RecoverError.InvalidSignatureS */\n      0x03\n        /* \"@openzeppelin/contracts/utils/cryptography/ECDSA.sol\":6103:6154  return (address(0), RecoverError.InvalidSignatureS) */\n      swap1\n      jump\t// out\n        /* \"@openzeppelin/contracts/utils/cryptography/EIP712.sol\":3695:3957  function _domainSeparatorV4() internal view returns (bytes32) {... */\n    tag_13:\n        /* \"@openzeppelin/contracts/utils/cryptography/EIP712.sol\":3779:3783  this */\n      address\n        /* \"@openzeppelin/contracts/utils/cryptography/EIP712.sol\":3788:3799  _cachedThis */\n      immutable(\"0x4814dc1be776080d361f6793401698ee1cdc54b485fd7f233308314eec077dfe\")\n      sub(shl(0xa0, 0x01), 0x01)\n        /* \"contracts/TurtleToken.sol\":255:3286  contract TurtleToken is ERC20, ERC20Permit, Ownable {... */\n      and\n        /* \"@openzeppelin/contracts/utils/cryptography/EIP712.sol\":3771:3799  address(this) == _cachedThis */\n      eq\n      dup1\n        /* \"@openzeppelin/contracts/utils/cryptography/EIP712.sol\":3771:3834  address(this) == _cachedThis && block.chainid == _cachedChainId */\n      tag_310\n      jumpi\n        /* \"@openzeppelin/contracts/utils/cryptography/EIP712.sol\":3695:3957  function _domainSeparatorV4() internal view returns (bytes32) {... */\n    tag_311:\n        /* \"@openzeppelin/contracts/utils/cryptography/EIP712.sol\":3767:3951  if (address(this) == _cachedThis && block.chainid == _cachedChainId) {... */\n      iszero\n      tag_312\n      jumpi\n        /* \"@openzeppelin/contracts/utils/cryptography/EIP712.sol\":3857:3879  _cachedDomainSeparator */\n      immutable(\"0x923831463c3a49e9922442ac185c857970685647ffa411016bb09cd1e1a613f6\")\n        /* \"@openzeppelin/contracts/utils/cryptography/EIP712.sol\":3850:3879  return _cachedDomainSeparator */\n      swap1\n      jump\t// out\n        /* \"@openzeppelin/contracts/utils/cryptography/EIP712.sol\":3767:3951  if (address(this) == _cachedThis && block.chainid == _cachedChainId) {... */\n    tag_312:\n        /* \"contracts/TurtleToken.sol\":255:3286  contract TurtleToken is ERC20, ERC20Permit, Ownable {... */\n      mload(0x40)\n        /* \"@openzeppelin/contracts/utils/cryptography/EIP712.sol\":4054:4135  abi.encode(_TYPE_HASH, _hashedName, _hashedVersion, block.chainid, address(this)) */\n      0x20\n      dup2\n      add\n        /* \"contracts/TurtleToken.sol\":255:3286  contract TurtleToken is ERC20, ERC20Permit, Ownable {... */\n      swap1\n        /* \"@openzeppelin/contracts/utils/cryptography/EIP712.sol\":1929:2024  keccak256(\"EIP712Domain(string name,string version,uint256 chainId,address verifyingContract)\") */\n      0x8b73c3c69bb8fe3d512ecc4cf759cc79239f7b179b0ffacaa9a75d522b39400f\n        /* \"contracts/TurtleToken.sol\":255:3286  contract TurtleToken is ERC20, ERC20Permit, Ownable {... */\n      dup3\n      mstore\n        /* \"@openzeppelin/contracts/utils/cryptography/EIP712.sol\":4077:4088  _hashedName */\n      immutable(\"0x4f722aad0315bc3832e551ccf6da3e098baeb8ee055023fde26c377410bf01b8\")\n        /* \"contracts/TurtleToken.sol\":255:3286  contract TurtleToken is ERC20, ERC20Permit, Ownable {... */\n      0x40\n        /* \"@openzeppelin/contracts/utils/cryptography/EIP712.sol\":1929:2024  keccak256(\"EIP712Domain(string name,string version,uint256 chainId,address verifyingContract)\") */\n      dup3\n      add\n        /* \"contracts/TurtleToken.sol\":255:3286  contract TurtleToken is ERC20, ERC20Permit, Ownable {... */\n      mstore\n        /* \"@openzeppelin/contracts/utils/cryptography/EIP712.sol\":4090:4104  _hashedVersion */\n      immutable(\"0xa2e64fbf175a4ab12443e929d11bd296058f26b9a652a2d5603d5bee0fd8697c\")\n        /* \"@openzeppelin/contracts/utils/cryptography/EIP712.sol\":1929:2024  keccak256(\"EIP712Domain(string name,string version,uint256 chainId,address verifyingContract)\") */\n      0x60\n      dup3\n      add\n        /* \"contracts/TurtleToken.sol\":255:3286  contract TurtleToken is ERC20, ERC20Permit, Ownable {... */\n      mstore\n        /* \"@openzeppelin/contracts/utils/cryptography/EIP712.sol\":4106:4119  block.chainid */\n      chainid\n        /* \"@openzeppelin/contracts/utils/cryptography/EIP712.sol\":1929:2024  keccak256(\"EIP712Domain(string name,string version,uint256 chainId,address verifyingContract)\") */\n      0x80\n      dup3\n      add\n        /* \"contracts/TurtleToken.sol\":255:3286  contract TurtleToken is ERC20, ERC20Permit, Ownable {... */\n      mstore\n        /* \"@openzeppelin/contracts/utils/cryptography/EIP712.sol\":3779:3783  this */\n      address\n        /* \"contracts/TurtleToken.sol\":255:3286  contract TurtleToken is ERC20, ERC20Permit, Ownable {... */\n      0xa0\n        /* \"@openzeppelin/contracts/utils/cryptography/EIP712.sol\":1929:2024  keccak256(\"EIP712Domain(string name,string version,uint256 chainId,address verifyingContract)\") */\n      dup3\n      add\n        /* \"contracts/TurtleToken.sol\":255:3286  contract TurtleToken is ERC20, ERC20Permit, Ownable {... */\n      mstore\n      0xa0\n        /* \"@openzeppelin/contracts/utils/cryptography/EIP712.sol\":4054:4135  abi.encode(_TYPE_HASH, _hashedName, _hashedVersion, block.chainid, address(this)) */\n      dup2\n      mstore\n        /* \"@openzeppelin/contracts/utils/cryptography/EIP712.sol\":1929:2024  keccak256(\"EIP712Domain(string name,string version,uint256 chainId,address verifyingContract)\") */\n      0xc0\n        /* \"contracts/TurtleToken.sol\":255:3286  contract TurtleToken is ERC20, ERC20Permit, Ownable {... */\n      dup2\n      add\n      dup2\n      dup2\n      lt\n      0xffffffffffffffff\n      dup3\n      gt\n      or\n      tag_278\n      jumpi\n      0x40\n      mstore\n      mload\n        /* \"@openzeppelin/contracts/utils/cryptography/EIP712.sol\":4044:4136  keccak256(abi.encode(_TYPE_HASH, _hashedName, _hashedVersion, block.chainid, address(this))) */\n      swap1\n      keccak256\n        /* \"@openzeppelin/contracts/utils/cryptography/EIP712.sol\":3910:3940  return _buildDomainSeparator() */\n      swap1\n      jump\t// out\n        /* \"@openzeppelin/contracts/utils/cryptography/EIP712.sol\":3771:3834  address(this) == _cachedThis && block.chainid == _cachedChainId */\n    tag_310:\n        /* \"@openzeppelin/contracts/utils/cryptography/EIP712.sol\":3820:3834  _cachedChainId */\n      pop\n      immutable(\"0x1dda9873baa24e5dc3a48371aa5a89ce85f19f9dd041db3ba184e623299b8433\")\n        /* \"@openzeppelin/contracts/utils/cryptography/EIP712.sol\":3803:3816  block.chainid */\n      chainid\n        /* \"@openzeppelin/contracts/utils/cryptography/EIP712.sol\":3803:3834  block.chainid == _cachedChainId */\n      eq\n        /* \"@openzeppelin/contracts/utils/cryptography/EIP712.sol\":3771:3834  address(this) == _cachedThis && block.chainid == _cachedChainId */\n      jump(tag_311)\n        /* \"@openzeppelin/contracts/utils/ShortStrings.sol\":3367:3635  function toStringWithFallback(ShortString value, string storage store) internal pure returns (string memory) {... */\n    tag_14:\n        /* \"@openzeppelin/contracts/utils/ShortStrings.sol\":1371:1437  0x00000000000000000000000000000000000000000000000000000000000000FF */\n      0xff\n        /* \"@openzeppelin/contracts/utils/ShortStrings.sol\":3490:3537  ShortString.unwrap(value) != _FALLBACK_SENTINEL */\n      dup2\n      eq\n        /* \"@openzeppelin/contracts/utils/ShortStrings.sol\":1371:1437  0x00000000000000000000000000000000000000000000000000000000000000FF */\n      tag_316\n      jumpi\n      0xff\n        /* \"@openzeppelin/contracts/utils/ShortStrings.sol\":2633:2673  uint256(ShortString.unwrap(sstr)) & 0xFF */\n      dup2\n      and\n        /* \"@openzeppelin/contracts/utils/ShortStrings.sol\":2687:2698  result > 31 */\n      swap1\n        /* \"@openzeppelin/contracts/utils/ShortStrings.sol\":2696:2698  31 */\n      0x1f\n        /* \"@openzeppelin/contracts/utils/ShortStrings.sol\":2687:2698  result > 31 */\n      dup3\n      gt\n        /* \"@openzeppelin/contracts/utils/ShortStrings.sol\":2683:2752  if (result > 31) {... */\n      tag_318\n      jumpi\n        /* \"contracts/TurtleToken.sol\":255:3286  contract TurtleToken is ERC20, ERC20Permit, Ownable {... */\n      mload(0x40)\n      swap2\n      tag_320\n      dup4\n      tag_6\n      jump\t// in\n    tag_320:\n        /* \"@openzeppelin/contracts/utils/ShortStrings.sol\":2348:2438  assembly {... */\n      dup3\n      mstore\n        /* \"@openzeppelin/contracts/utils/ShortStrings.sol\":2292:2294  32 */\n      0x20\n        /* \"contracts/TurtleToken.sol\":255:3286  contract TurtleToken is ERC20, ERC20Permit, Ownable {... */\n      dup3\n      add\n        /* \"@openzeppelin/contracts/utils/ShortStrings.sol\":2348:2438  assembly {... */\n      mstore\n        /* \"@openzeppelin/contracts/utils/ShortStrings.sol\":3553:3575  return toString(value) */\n      swap1\n      jump\t// out\n        /* \"@openzeppelin/contracts/utils/ShortStrings.sol\":2683:2752  if (result > 31) {... */\n    tag_318:\n        /* \"contracts/TurtleToken.sol\":255:3286  contract TurtleToken is ERC20, ERC20Permit, Ownable {... */\n      mload(0x40)\n      shl(0xe2, 0x2cd44ac3)\n        /* \"@openzeppelin/contracts/utils/ShortStrings.sol\":2721:2741  InvalidShortString() */\n      dup2\n      mstore\n      0x04\n      swap1\n      revert\n        /* \"@openzeppelin/contracts/utils/ShortStrings.sol\":3486:3629  if (ShortString.unwrap(value) != _FALLBACK_SENTINEL) {... */\n    tag_316:\n      pop\n        /* \"contracts/TurtleToken.sol\":255:3286  contract TurtleToken is ERC20, ERC20Permit, Ownable {... */\n      mload(0x40)\n        /* \"@openzeppelin/contracts/utils/cryptography/EIP712.sol\":5454:5467  _nameFallback */\n      0x05\n        /* \"contracts/TurtleToken.sol\":255:3286  contract TurtleToken is ERC20, ERC20Permit, Ownable {... */\n      sload\n      dup2\n      0x00\n      tag_321\n      dup4\n      tag_5\n      jump\t// in\n    tag_321:\n      dup1\n      dup4\n      mstore\n      swap3\n      0x01\n      swap1\n      dup2\n      dup2\n      and\n      swap1\n      dup2\n      iszero\n      tag_322\n      jumpi\n      pop\n      0x01\n      eq\n      tag_324\n      jumpi\n    tag_325:\n        /* \"@openzeppelin/contracts/utils/ShortStrings.sol\":1371:1437  0x00000000000000000000000000000000000000000000000000000000000000FF */\n      pop\n      tag_326\n      swap3\n      pop\n      sub\n      dup3\n      tag_7\n      jump\t// in\n    tag_326:\n        /* \"@openzeppelin/contracts/utils/ShortStrings.sol\":3606:3618  return store */\n      swap1\n      jump\t// out\n        /* \"contracts/TurtleToken.sol\":255:3286  contract TurtleToken is ERC20, ERC20Permit, Ownable {... */\n    tag_324:\n        /* \"@openzeppelin/contracts/utils/cryptography/EIP712.sol\":5454:5467  _nameFallback */\n      0x05\n      0x00\n        /* \"contracts/TurtleToken.sol\":255:3286  contract TurtleToken is ERC20, ERC20Permit, Ownable {... */\n      swap1\n      dup2\n      mstore\n      swap2\n      pop\n      0x036b6384b5eca791c62761152d0c79bb0604c104a5fb6f4eb0703f3154bb3db0\n    tag_327:\n      dup5\n      dup4\n      lt\n      tag_328\n      jumpi\n      pop\n        /* \"@openzeppelin/contracts/utils/ShortStrings.sol\":1371:1437  0x00000000000000000000000000000000000000000000000000000000000000FF */\n      tag_326\n      swap4\n      pop\n      pop\n        /* \"contracts/TurtleToken.sol\":255:3286  contract TurtleToken is ERC20, ERC20Permit, Ownable {... */\n      dup2\n      add\n      0x20\n      add\n      codesize\n      jump(tag_325)\n    tag_328:\n      dup2\n      swap4\n      pop\n      swap1\n      dup2\n      0x20\n      swap3\n      sload\n      dup4\n      dup6\n      dup10\n      add\n      add\n      mstore\n      add\n      swap2\n      add\n      swap1\n      swap2\n      dup5\n      swap3\n      jump(tag_327)\n    tag_322:\n      swap1\n      pop\n      0x20\n      swap3\n      pop\n        /* \"@openzeppelin/contracts/utils/ShortStrings.sol\":1371:1437  0x00000000000000000000000000000000000000000000000000000000000000FF */\n      tag_326\n        /* \"contracts/TurtleToken.sol\":255:3286  contract TurtleToken is ERC20, ERC20Permit, Ownable {... */\n      swap5\n      swap2\n      pop\n      not(0xff)\n      and\n      dup3\n      dup5\n      add\n      mstore\n      iszero\n      iszero\n        /* \"@openzeppelin/contracts/utils/cryptography/EIP712.sol\":5454:5467  _nameFallback */\n      0x05\n        /* \"contracts/TurtleToken.sol\":255:3286  contract TurtleToken is ERC20, ERC20Permit, Ownable {... */\n      shl\n      dup3\n      add\n      add\n      codesize\n      jump(tag_325)\n        /* \"@openzeppelin/contracts/utils/ShortStrings.sol\":3367:3635  function toStringWithFallback(ShortString value, string storage store) internal pure returns (string memory) {... */\n    tag_15:\n        /* \"@openzeppelin/contracts/utils/ShortStrings.sol\":1371:1437  0x00000000000000000000000000000000000000000000000000000000000000FF */\n      0xff\n        /* \"@openzeppelin/contracts/utils/ShortStrings.sol\":3490:3537  ShortString.unwrap(value) != _FALLBACK_SENTINEL */\n      dup2\n      eq\n        /* \"@openzeppelin/contracts/utils/ShortStrings.sol\":1371:1437  0x00000000000000000000000000000000000000000000000000000000000000FF */\n      tag_330\n      jumpi\n      0xff\n        /* \"@openzeppelin/contracts/utils/ShortStrings.sol\":2633:2673  uint256(ShortString.unwrap(sstr)) & 0xFF */\n      dup2\n      and\n        /* \"@openzeppelin/contracts/utils/ShortStrings.sol\":2687:2698  result > 31 */\n      swap1\n        /* \"@openzeppelin/contracts/utils/ShortStrings.sol\":2696:2698  31 */\n      0x1f\n        /* \"@openzeppelin/contracts/utils/ShortStrings.sol\":2687:2698  result > 31 */\n      dup3\n      gt\n        /* \"@openzeppelin/contracts/utils/ShortStrings.sol\":2683:2752  if (result > 31) {... */\n      tag_318\n      jumpi\n        /* \"contracts/TurtleToken.sol\":255:3286  contract TurtleToken is ERC20, ERC20Permit, Ownable {... */\n      mload(0x40)\n      swap2\n      tag_320\n      dup4\n      tag_6\n      jump\t// in\n        /* \"@openzeppelin/contracts/utils/ShortStrings.sol\":3486:3629  if (ShortString.unwrap(value) != _FALLBACK_SENTINEL) {... */\n    tag_330:\n      pop\n        /* \"contracts/TurtleToken.sol\":255:3286  contract TurtleToken is ERC20, ERC20Permit, Ownable {... */\n      mload(0x40)\n        /* \"@openzeppelin/contracts/utils/cryptography/EIP712.sol\":5512:5528  _versionFallback */\n      0x06\n        /* \"contracts/TurtleToken.sol\":255:3286  contract TurtleToken is ERC20, ERC20Permit, Ownable {... */\n      sload\n      dup2\n      0x00\n      tag_335\n      dup4\n      tag_5\n      jump\t// in\n    tag_335:\n      dup1\n      dup4\n      mstore\n      swap3\n      0x01\n      swap1\n      dup2\n      dup2\n      and\n      swap1\n      dup2\n      iszero\n      tag_322\n      jumpi\n      pop\n      0x01\n      eq\n      tag_338\n      jumpi\n        /* \"@openzeppelin/contracts/utils/ShortStrings.sol\":1371:1437  0x00000000000000000000000000000000000000000000000000000000000000FF */\n      pop\n      tag_326\n      swap3\n      pop\n      sub\n      dup3\n      tag_7\n      jump\t// in\n        /* \"contracts/TurtleToken.sol\":255:3286  contract TurtleToken is ERC20, ERC20Permit, Ownable {... */\n    tag_338:\n        /* \"@openzeppelin/contracts/utils/cryptography/EIP712.sol\":5512:5528  _versionFallback */\n      0x06\n      0x00\n        /* \"contracts/TurtleToken.sol\":255:3286  contract TurtleToken is ERC20, ERC20Permit, Ownable {... */\n      swap1\n      dup2\n      mstore\n      swap2\n      pop\n      0xf652222313e28459528d920b65115c16c04f3efc82aaedc97be59f3f377c0d3f\n    tag_341:\n      dup5\n      dup4\n      lt\n      tag_342\n      jumpi\n      pop\n        /* \"@openzeppelin/contracts/utils/ShortStrings.sol\":1371:1437  0x00000000000000000000000000000000000000000000000000000000000000FF */\n      tag_326\n      swap4\n      pop\n      pop\n        /* \"contracts/TurtleToken.sol\":255:3286  contract TurtleToken is ERC20, ERC20Permit, Ownable {... */\n      dup2\n      add\n      0x20\n      add\n      codesize\n      jump(tag_325)\n    tag_342:\n      dup2\n      swap4\n      pop\n      swap1\n      dup2\n      0x20\n      swap3\n      sload\n      dup4\n      dup6\n      dup10\n      add\n      add\n      mstore\n      add\n      swap2\n      add\n      swap1\n      swap2\n      dup5\n      swap3\n      jump(tag_341)\n\n    auxdata: 0xa26469706673582212206eb8ae5620ff3a88207d591b59936293ae3b006b52d6cc83bb3128252a89d3f764736f6c63430008120033\n}\n",
				"bytecode": {
					"linkReferences": {},
					"object": "610160346200055857601f906001600160401b0390601f19906200209190388290038581018416820190858211838310176200055d57808391604095869485528339810103126200055857805160208092015191835194620000618662000573565b600b8652818601966a2a3ab93a3632aa37b5b2b760a91b988989528651996200008a8b62000573565b600b8b52848b0152865199620000a08b62000573565b600493848c52631515549560e21b868d015288519b8c92620000c28462000573565b876001948581520193603160f81b85528151878111620004595760039283548381811c911680156200054d575b8c8210146200053857908b828a859411620004df575b50508b908983116001146200047a576000926200046e575b505060001982851b1c191690821b1782555b825192878411620004595788548281811c911680156200044e575b8b8210146200043957878111620003ee575b50899087851160011462000385578495509084929160009562000379575b50501b92600019911b1c19161784555b62000195896200058f565b996101209a8b52620001a78c62000769565b996101409a8b525190209a8b60e052519020906101009a828c524660a052885192868401917f8b73c3c69bb8fe3d512ecc4cf759cc79239f7b179b0ffacaa9a75d522b39400f83528a85015260608401524660808401523060a084015260a0835260c0830193838510908511176200036457838952825190206080523060c05260098054336001600160a01b0319821681179092556001600160a01b03167f8be0079c531659141344cd1fd0a4f28419497f9722a3daafe3b4186f6b6457e0600080a330156200032357505050600254908382018092116200030e57506000917fddf252ad1be2c89b69c2b068fc378daa952ba7f163c4a11628f55a4df523b3ef9160025530835282815285832084815401905585519384523093a3600a55519161176f938462000922853960805184611491015260a0518461155d015260c0518461145b015260e051846114e001525183611506015251826107cb015251816107f50152f35b601190634e487b7160e01b6000525260246000fd5b610104606493927f45524332303a206d696e7420746f20746865207a65726f206164647265737300928762461bcd60e51b865260c483015260e48201520152fd5b604185634e487b7160e01b6000525260246000fd5b0151935038806200017a565b92919484169289600052848b6000209460005b8d89838310620003d65750505010620003bb575b50505050811b0184556200018a565b01519060f884600019921b161c1916905538808080620003ac565b86860151895590970196948501948893500162000398565b896000528a6000208880870160051c8201928d88106200042f575b0160051c019083905b828110620004225750506200015c565b6000815501839062000412565b9250819262000409565b60228a634e487b7160e01b6000525260246000fd5b90607f16906200014a565b604189634e487b7160e01b6000525260246000fd5b0151905038806200011d565b908c91888695168760005283600020936000905b828210620004c75750508411620004ae575b505050811b0182556200012f565b015160001983871b60f8161c19169055388080620004a0565b83850151865588979095019493840193018f6200048e565b909192508560005289826000209181860160051c83019386106200052e575b918691869594930160051c01915b8281106200051e57508d915062000105565b600081558594508691016200050c565b92508192620004fe565b60228b634e487b7160e01b6000525260246000fd5b90607f1690620000ef565b600080fd5b634e487b7160e01b600052604160045260246000fd5b604081019081106001600160401b038211176200055d57604052565b805160209190828110156200062e575090601f825111620005cd5780825192015190808310620005be57501790565b82600019910360031b1b161790565b90604051809263305a27a960e01b82528060048301528251908160248401526000935b82851062000614575050604492506000838284010152601f80199101168101030190fd5b8481018201518686016044015293810193859350620005f0565b6001600160401b0381116200055d576005928354926001938481811c911680156200075e575b838210146200074857601f811162000711575b5081601f8411600114620006a757509282939183926000946200069b575b50501b916000199060031b1c191617905560ff90565b01519250388062000685565b919083601f1981168760005284600020946000905b88838310620006f65750505010620006dc575b505050811b01905560ff90565b015160001960f88460031b161c19169055388080620006cf565b858701518855909601959485019487935090810190620006bc565b8560005284601f846000209201871c820191601f8601881c015b8281106200073b57505062000667565b600081550185906200072b565b634e487b7160e01b600052602260045260246000fd5b90607f169062000654565b805160209081811015620007f75750601f825111620007965780825192015190808310620005be57501790565b90604051809263305a27a960e01b82528060048301528251908160248401526000935b828510620007dd575050604492506000838284010152601f80199101168101030190fd5b8481018201518686016044015293810193859350620007b9565b906001600160401b0382116200055d57600654926001938481811c9116801562000916575b838210146200074857601f8111620008dc575b5081601f841160011462000870575092829391839260009462000864575b50501b916000199060031b1c19161760065560ff90565b0151925038806200084d565b919083601f198116600660005284600020946000905b88838310620008c15750505010620008a7575b505050811b0160065560ff90565b015160001960f88460031b161c1916905538808062000899565b85870151885590960195948501948793509081019062000886565b600660005284601f84600020920160051c820191601f860160051c015b828110620009095750506200082f565b60008155018590620008f9565b90607f16906200081c56fe6080604081815260048036101561001557600080fd5b600092833560e01c90816306fdde0314610df457508063095ea7b314610dca57806318160ddd14610dab57806323b872dd14610ce1578063313ce56714610cc55780633644e51514610ca15780633950935114610c515780633ba0b9a914610c3257806340c10f1914610b6c5780636c11bcd31461099d57806370a0823114610966578063715018a6146109095780637ecebe00146108d157806384b0196e146107b45780638da5cb5b1461078b57806395d89b41146106a1578063a0ef91df1461061e578063a457c2d714610577578063a9059cbb14610546578063d0febe4c14610421578063d505accf14610268578063db068e0e14610246578063dd62ed3e146101f95763f2fde38b1461012b57600080fd5b346101f55760203660031901126101f557610144610f05565b9061014d610f36565b6001600160a01b039182169283156101a3575050600954826bffffffffffffffffffffffff60a01b821617600955167f8be0079c531659141344cd1fd0a4f28419497f9722a3daafe3b4186f6b6457e08380a380f35b906020608492519162461bcd60e51b8352820152602660248201527f4f776e61626c653a206e6577206f776e657220697320746865207a65726f206160448201526564647265737360d01b6064820152fd5b8280fd5b50503461024257806003193601126102425780602092610217610f05565b61021f610f20565b6001600160a01b0391821683526001865283832091168252845220549051908152f35b5080fd5b83823461024257602036600319011261024257610261610f36565b35600a5580f35b508290346102425760e036600319011261024257610284610f05565b61028c610f20565b906044359260643560843560ff8116810361041d578142116103da5760018060a01b0390818516928389526007602052898920908154916001830190558a519060208201927f6e71edae12b1b97f4d1f60370fef10105fa2faae0126114a169c64845d6126c98452868d840152858a1660608401528a608084015260a083015260c082015260c0815260e0810181811067ffffffffffffffff8211176103c7578b5251902061036f9161036791610341611458565b908c519161190160f01b83526002830152602282015260c43591604260a43592206113c9565b9190916112af565b160361038457506103819394506111ad565b80f35b606490602087519162461bcd60e51b8352820152601e60248201527f45524332305065726d69743a20696e76616c6964207369676e617475726500006044820152fd5b634e487b7160e01b8b526041875260248bfd5b875162461bcd60e51b8152602081850152601d60248201527f45524332305065726d69743a206578706972656420646561646c696e650000006044820152606490fd5b8680fd5b5090826003193601126101f557341561050357600a5480340290348204036104f057670de0b6b3a76400009004913084528360205282828520541061049f57507f8fafebcaf9d154343dad25669bfa277f4fbacd7ac6b0c4fed522580e040a0f339061048e83333061103f565b80519234845260208401523392a280f35b6020608492519162461bcd60e51b8352820152602660248201527f496e73756666696369656e7420746f6b656e2062616c616e636520696e20636f6044820152651b9d1c9858dd60d21b6064820152fd5b634e487b7160e01b845260118352602484fd5b906020606492519162461bcd60e51b8352820152601960248201527f4d7573742073656e642045544820746f2065786368616e6765000000000000006044820152fd5b505034610242578060031936011261024257602090610570610566610f05565b602435903361103f565b5160018152f35b50823461061b578260031936011261061b57610591610f05565b918360243592338152600160205281812060018060a01b03861682526020522054908282106105ca5760208561057085850387336111ad565b608490602086519162461bcd60e51b8352820152602560248201527f45524332303a2064656372656173656420616c6c6f77616e63652062656c6f77604482015264207a65726f60d81b6064820152fd5b80fd5b50346101f557826003193601126101f557610637610f36565b47908115610669575060095483918291829182916001600160a01b031682f11561065f575080f35b51903d90823e3d90fd5b606490602084519162461bcd60e51b835282015260126024820152714e6f2045544820746f20776974686472617760701b6044820152fd5b5090346101f557826003193601126101f557805191838154906106c382610f8e565b808652926001928084169081156107605750600114610704575b61070086866106ee828b0383610ffa565b51918291602083526020830190610ec5565b0390f35b815294507f8a35acfbc15ff81a39ae7d344fd709f28e8600b4aa8c65c6b64bfe7fe36bd19b5b828610610748575050506106ee8260206107009582010194386106dd565b8054602087870181019190915290950194810161072a565b90506107009750869350602092506106ee94915060ff191682840152151560051b82010194386106dd565b50503461024257816003193601126102425760095490516001600160a01b039091168152602090f35b5090346101f557826003193601126101f5576107ef7f0000000000000000000000000000000000000000000000000000000000000000611583565b926108197f000000000000000000000000000000000000000000000000000000000000000061167f565b908251926020928385019585871067ffffffffffffffff8811176108be57509280610874838896610867998b9996528686528151998a99600f60f81b8b5260e0868c015260e08b0190610ec5565b91898303908a0152610ec5565b924660608801523060808801528460a088015286840360c088015251928381520193925b8281106108a757505050500390f35b835185528695509381019392810192600101610898565b634e487b7160e01b845260419052602483fd5b5050346102425760203660031901126102425760209181906001600160a01b036108f9610f05565b1681526007845220549051908152f35b833461061b578060031936011261061b57610922610f36565b600980546001600160a01b0319811690915581906001600160a01b03167f8be0079c531659141344cd1fd0a4f28419497f9722a3daafe3b4186f6b6457e08280a380f35b5050346102425760203660031901126102425760209181906001600160a01b0361098e610f05565b16815280845220549051908152f35b50346101f55760209182600319360112610b68578135918215610b1957338552848452828286205410610ad857670de0b6b3a76400008302670de0b6b3a763ffff1984820401610ac557600a54908115610ab2570490814710610a635750610a0683303361103f565b8480828015610a59575b8280929181923390f115610a4f577f2dcf9433d75db0d8b1c172641f85e319ffe4ad22e108a95d1847ceb906e5195d929382519485528401523392a280f35b81513d86823e3d90fd5b6108fc9150610a10565b825162461bcd60e51b81529081018590526024808201527f496e73756666696369656e74204554482062616c616e636520696e20636f6e746044820152631c9858dd60e21b6064820152608490fd5b634e487b7160e01b875260128352602487fd5b634e487b7160e01b865260118252602486fd5b83606492519162461bcd60e51b8352820152601a60248201527f496e73756666696369656e7420746f6b656e2062616c616e63650000000000006044820152fd5b83608492519162461bcd60e51b8352820152602560248201527f4d7573742073656c6c206120706f73697469766520616d6f756e74206f6620746044820152646f6b656e7360d81b6064820152fd5b8380fd5b5090346101f557806003193601126101f557610b86610f05565b9060243591610b93610f36565b6001600160a01b0316928315610bf057506020827fddf252ad1be2c89b69c2b068fc378daa952ba7f163c4a11628f55a4df523b3ef92610bd6879560025461101c565b60025585855284835280852082815401905551908152a380f35b6020606492519162461bcd60e51b8352820152601f60248201527f45524332303a206d696e7420746f20746865207a65726f2061646472657373006044820152fd5b505034610242578160031936011261024257602090600a549051908152f35b505034610242578060031936011261024257610570602092610c9a610c74610f05565b338352600186528483206001600160a01b0382168452865291849020546024359061101c565b90336111ad565b505034610242578160031936011261024257602090610cbe611458565b9051908152f35b5050346102425781600319360112610242576020905160128152f35b5082903461024257606036600319011261024257610cfd610f05565b610d05610f20565b91846044359460018060a01b038416815260016020528181203382526020522054906000198203610d3f575b60208661057087878761103f565b848210610d685750918391610d5d60209695610570950333836111ad565b919394819350610d31565b606490602087519162461bcd60e51b8352820152601d60248201527f45524332303a20696e73756666696369656e7420616c6c6f77616e63650000006044820152fd5b5050346102425781600319360112610242576020906002549051908152f35b505034610242578060031936011261024257602090610570610dea610f05565b60243590336111ad565b849084346101f557826003193601126101f55782600354610e1481610f8e565b80855291600191808316908115610e9d5750600114610e40575b5050506106ee82610700940383610ffa565b9450600385527fc2575a0e9e593c00f959f8c92f12db2869c3395a3b0502d05e2516446f71f85b5b828610610e85575050506106ee8260206107009582010194610e2e565b80546020878701810191909152909501948101610e68565b6107009750869350602092506106ee94915060ff191682840152151560051b82010194610e2e565b919082519283825260005b848110610ef1575050826000602080949584010152601f8019910116010190565b602081830181015184830182015201610ed0565b600435906001600160a01b0382168203610f1b57565b600080fd5b602435906001600160a01b0382168203610f1b57565b6009546001600160a01b03163303610f4a57565b606460405162461bcd60e51b815260206004820152602060248201527f4f776e61626c653a2063616c6c6572206973206e6f7420746865206f776e65726044820152fd5b90600182811c92168015610fbe575b6020831014610fa857565b634e487b7160e01b600052602260045260246000fd5b91607f1691610f9d565b6040810190811067ffffffffffffffff821117610fe457604052565b634e487b7160e01b600052604160045260246000fd5b90601f8019910116810190811067ffffffffffffffff821117610fe457604052565b9190820180921161102957565b634e487b7160e01b600052601160045260246000fd5b6001600160a01b0390811691821561115a5716918215611109576000828152806020526040812054918083106110b557604082827fddf252ad1be2c89b69c2b068fc378daa952ba7f163c4a11628f55a4df523b3ef958760209652828652038282205586815220818154019055604051908152a3565b60405162461bcd60e51b815260206004820152602660248201527f45524332303a207472616e7366657220616d6f756e7420657863656564732062604482015265616c616e636560d01b6064820152608490fd5b60405162461bcd60e51b815260206004820152602360248201527f45524332303a207472616e7366657220746f20746865207a65726f206164647260448201526265737360e81b6064820152608490fd5b60405162461bcd60e51b815260206004820152602560248201527f45524332303a207472616e736665722066726f6d20746865207a65726f206164604482015264647265737360d81b6064820152608490fd5b6001600160a01b0390811691821561125e571691821561120e5760207f8c5be1e5ebec7d5bd14f71427d1e84f3dd0314c0f7b2291e5b200ac8c7c3b925918360005260018252604060002085600052825280604060002055604051908152a3565b60405162461bcd60e51b815260206004820152602260248201527f45524332303a20617070726f766520746f20746865207a65726f206164647265604482015261737360f01b6064820152608490fd5b60405162461bcd60e51b8152602060048201526024808201527f45524332303a20617070726f76652066726f6d20746865207a65726f206164646044820152637265737360e01b6064820152608490fd5b60058110156113b357806112c05750565b6001810361130d5760405162461bcd60e51b815260206004820152601860248201527f45434453413a20696e76616c6964207369676e617475726500000000000000006044820152606490fd5b6002810361135a5760405162461bcd60e51b815260206004820152601f60248201527f45434453413a20696e76616c6964207369676e6174757265206c656e677468006044820152606490fd5b60031461136357565b60405162461bcd60e51b815260206004820152602260248201527f45434453413a20696e76616c6964207369676e6174757265202773272076616c604482015261756560f01b6064820152608490fd5b634e487b7160e01b600052602160045260246000fd5b9291907f7fffffffffffffffffffffffffffffff5d576e7357a4501ddfe92f46681b20a0831161144c5791608094939160ff602094604051948552168484015260408301526060820152600093849182805260015afa1561143f5781516001600160a01b03811615611439579190565b50600190565b50604051903d90823e3d90fd5b50505050600090600390565b307f00000000000000000000000000000000000000000000000000000000000000006001600160a01b0316148061155a575b156114b3577f000000000000000000000000000000000000000000000000000000000000000090565b60405160208101907f8b73c3c69bb8fe3d512ecc4cf759cc79239f7b179b0ffacaa9a75d522b39400f82527f000000000000000000000000000000000000000000000000000000000000000060408201527f000000000000000000000000000000000000000000000000000000000000000060608201524660808201523060a082015260a0815260c0810181811067ffffffffffffffff821117610fe45760405251902090565b507f0000000000000000000000000000000000000000000000000000000000000000461461148a565b60ff81146115c15760ff811690601f82116115af57604051916115a583610fc8565b8252602082015290565b604051632cd44ac360e21b8152600490fd5b506040516005548160006115d483610f8e565b8083529260019081811690811561165d57506001146115fe575b506115fb92500382610ffa565b90565b6005600090815291507f036b6384b5eca791c62761152d0c79bb0604c104a5fb6f4eb0703f3154bb3db05b84831061164257506115fb9350508101602001386115ee565b81935090816020925483858901015201910190918492611629565b9050602092506115fb94915060ff191682840152151560051b820101386115ee565b60ff81146116a15760ff811690601f82116115af57604051916115a583610fc8565b506040516006548160006116b483610f8e565b8083529260019081811690811561165d57506001146116da57506115fb92500382610ffa565b6006600090815291507ff652222313e28459528d920b65115c16c04f3efc82aaedc97be59f3f377c0d3f5b84831061171e57506115fb9350508101602001386115ee565b8193509081602092548385890101520191019091849261170556fea26469706673582212206eb8ae5620ff3a88207d591b59936293ae3b006b52d6cc83bb3128252a89d3f764736f6c63430008120033",
					"opcodes": "PUSH2 0x160 CALLVALUE PUSH3 0x558 JUMPI PUSH1 0x1F SWAP1 PUSH1 0x1 PUSH1 0x1 PUSH1 0x40 SHL SUB SWAP1 PUSH1 0x1F NOT SWAP1 PUSH3 0x2091 SWAP1 CODESIZE DUP3 SWAP1 SUB DUP6 DUP2 ADD DUP5 AND DUP3 ADD SWAP1 DUP6 DUP3 GT DUP4 DUP4 LT OR PUSH3 0x55D JUMPI DUP1 DUP4 SWAP2 PUSH1 0x40 SWAP6 DUP7 SWAP5 DUP6 MSTORE DUP4 CODECOPY DUP2 ADD SUB SLT PUSH3 0x558 JUMPI DUP1 MLOAD PUSH1 0x20 DUP1 SWAP3 ADD MLOAD SWAP2 DUP4 MLOAD SWAP5 PUSH3 0x61 DUP7 PUSH3 0x573 JUMP JUMPDEST PUSH1 0xB DUP7 MSTORE DUP2 DUP7 ADD SWAP7 PUSH11 0x2A3AB93A3632AA37B5B2B7 PUSH1 0xA9 SHL SWAP9 DUP10 DUP10 MSTORE DUP7 MLOAD SWAP10 PUSH3 0x8A DUP12 PUSH3 0x573 JUMP JUMPDEST PUSH1 0xB DUP12 MSTORE DUP5 DUP12 ADD MSTORE DUP7 MLOAD SWAP10 PUSH3 0xA0 DUP12 PUSH3 0x573 JUMP JUMPDEST PUSH1 0x4 SWAP4 DUP5 DUP13 MSTORE PUSH4 0x15155495 PUSH1 0xE2 SHL DUP7 DUP14 ADD MSTORE DUP9 MLOAD SWAP12 DUP13 SWAP3 PUSH3 0xC2 DUP5 PUSH3 0x573 JUMP JUMPDEST DUP8 PUSH1 0x1 SWAP5 DUP6 DUP2 MSTORE ADD SWAP4 PUSH1 0x31 PUSH1 0xF8 SHL DUP6 MSTORE DUP2 MLOAD DUP8 DUP2 GT PUSH3 0x459 JUMPI PUSH1 0x3 SWAP3 DUP4 SLOAD DUP4 DUP2 DUP2 SHR SWAP2 AND DUP1 ISZERO PUSH3 0x54D JUMPI JUMPDEST DUP13 DUP3 LT EQ PUSH3 0x538 JUMPI SWAP1 DUP12 DUP3 DUP11 DUP6 SWAP5 GT PUSH3 0x4DF JUMPI JUMPDEST POP POP DUP12 SWAP1 DUP10 DUP4 GT PUSH1 0x1 EQ PUSH3 0x47A JUMPI PUSH1 0x0 SWAP3 PUSH3 0x46E JUMPI JUMPDEST POP POP PUSH1 0x0 NOT DUP3 DUP6 SHL SHR NOT AND SWAP1 DUP3 SHL OR DUP3 SSTORE JUMPDEST DUP3 MLOAD SWAP3 DUP8 DUP5 GT PUSH3 0x459 JUMPI DUP9 SLOAD DUP3 DUP2 DUP2 SHR SWAP2 AND DUP1 ISZERO PUSH3 0x44E JUMPI JUMPDEST DUP12 DUP3 LT EQ PUSH3 0x439 JUMPI DUP8 DUP2 GT PUSH3 0x3EE JUMPI JUMPDEST POP DUP10 SWAP1 DUP8 DUP6 GT PUSH1 0x1 EQ PUSH3 0x385 JUMPI DUP5 SWAP6 POP SWAP1 DUP5 SWAP3 SWAP2 PUSH1 0x0 SWAP6 PUSH3 0x379 JUMPI JUMPDEST POP POP SHL SWAP3 PUSH1 0x0 NOT SWAP2 SHL SHR NOT AND OR DUP5 SSTORE JUMPDEST PUSH3 0x195 DUP10 PUSH3 0x58F JUMP JUMPDEST SWAP10 PUSH2 0x120 SWAP11 DUP12 MSTORE PUSH3 0x1A7 DUP13 PUSH3 0x769 JUMP JUMPDEST SWAP10 PUSH2 0x140 SWAP11 DUP12 MSTORE MLOAD SWAP1 KECCAK256 SWAP11 DUP12 PUSH1 0xE0 MSTORE MLOAD SWAP1 KECCAK256 SWAP1 PUSH2 0x100 SWAP11 DUP3 DUP13 MSTORE CHAINID PUSH1 0xA0 MSTORE DUP9 MLOAD SWAP3 DUP7 DUP5 ADD SWAP2 PUSH32 0x8B73C3C69BB8FE3D512ECC4CF759CC79239F7B179B0FFACAA9A75D522B39400F DUP4 MSTORE DUP11 DUP6 ADD MSTORE PUSH1 0x60 DUP5 ADD MSTORE CHAINID PUSH1 0x80 DUP5 ADD MSTORE ADDRESS PUSH1 0xA0 DUP5 ADD MSTORE PUSH1 0xA0 DUP4 MSTORE PUSH1 0xC0 DUP4 ADD SWAP4 DUP4 DUP6 LT SWAP1 DUP6 GT OR PUSH3 0x364 JUMPI DUP4 DUP10 MSTORE DUP3 MLOAD SWAP1 KECCAK256 PUSH1 0x80 MSTORE ADDRESS PUSH1 0xC0 MSTORE PUSH1 0x9 DUP1 SLOAD CALLER PUSH1 0x1 PUSH1 0x1 PUSH1 0xA0 SHL SUB NOT DUP3 AND DUP2 OR SWAP1 SWAP3 SSTORE PUSH1 0x1 PUSH1 0x1 PUSH1 0xA0 SHL SUB AND PUSH32 0x8BE0079C531659141344CD1FD0A4F28419497F9722A3DAAFE3B4186F6B6457E0 PUSH1 0x0 DUP1 LOG3 ADDRESS ISZERO PUSH3 0x323 JUMPI POP POP POP PUSH1 0x2 SLOAD SWAP1 DUP4 DUP3 ADD DUP1 SWAP3 GT PUSH3 0x30E JUMPI POP PUSH1 0x0 SWAP2 PUSH32 0xDDF252AD1BE2C89B69C2B068FC378DAA952BA7F163C4A11628F55A4DF523B3EF SWAP2 PUSH1 0x2 SSTORE ADDRESS DUP4 MSTORE DUP3 DUP2 MSTORE DUP6 DUP4 KECCAK256 DUP5 DUP2 SLOAD ADD SWAP1 SSTORE DUP6 MLOAD SWAP4 DUP5 MSTORE ADDRESS SWAP4 LOG3 PUSH1 0xA SSTORE MLOAD SWAP2 PUSH2 0x176F SWAP4 DUP5 PUSH3 0x922 DUP6 CODECOPY PUSH1 0x80 MLOAD DUP5 PUSH2 0x1491 ADD MSTORE PUSH1 0xA0 MLOAD DUP5 PUSH2 0x155D ADD MSTORE PUSH1 0xC0 MLOAD DUP5 PUSH2 0x145B ADD MSTORE PUSH1 0xE0 MLOAD DUP5 PUSH2 0x14E0 ADD MSTORE MLOAD DUP4 PUSH2 0x1506 ADD MSTORE MLOAD DUP3 PUSH2 0x7CB ADD MSTORE MLOAD DUP2 PUSH2 0x7F5 ADD MSTORE RETURN JUMPDEST PUSH1 0x11 SWAP1 PUSH4 0x4E487B71 PUSH1 0xE0 SHL PUSH1 0x0 MSTORE MSTORE PUSH1 0x24 PUSH1 0x0 REVERT JUMPDEST PUSH2 0x104 PUSH1 0x64 SWAP4 SWAP3 PUSH32 0x45524332303A206D696E7420746F20746865207A65726F206164647265737300 SWAP3 DUP8 PUSH3 0x461BCD PUSH1 0xE5 SHL DUP7 MSTORE PUSH1 0xC4 DUP4 ADD MSTORE PUSH1 0xE4 DUP3 ADD MSTORE ADD MSTORE REVERT JUMPDEST PUSH1 0x41 DUP6 PUSH4 0x4E487B71 PUSH1 0xE0 SHL PUSH1 0x0 MSTORE MSTORE PUSH1 0x24 PUSH1 0x0 REVERT JUMPDEST ADD MLOAD SWAP4 POP CODESIZE DUP1 PUSH3 0x17A JUMP JUMPDEST SWAP3 SWAP2 SWAP5 DUP5 AND SWAP3 DUP10 PUSH1 0x0 MSTORE DUP5 DUP12 PUSH1 0x0 KECCAK256 SWAP5 PUSH1 0x0 JUMPDEST DUP14 DUP10 DUP4 DUP4 LT PUSH3 0x3D6 JUMPI POP POP POP LT PUSH3 0x3BB JUMPI JUMPDEST POP POP POP POP DUP2 SHL ADD DUP5 SSTORE PUSH3 0x18A JUMP JUMPDEST ADD MLOAD SWAP1 PUSH1 0xF8 DUP5 PUSH1 0x0 NOT SWAP3 SHL AND SHR NOT AND SWAP1 SSTORE CODESIZE DUP1 DUP1 DUP1 PUSH3 0x3AC JUMP JUMPDEST DUP7 DUP7 ADD MLOAD DUP10 SSTORE SWAP1 SWAP8 ADD SWAP7 SWAP5 DUP6 ADD SWAP5 DUP9 SWAP4 POP ADD PUSH3 0x398 JUMP JUMPDEST DUP10 PUSH1 0x0 MSTORE DUP11 PUSH1 0x0 KECCAK256 DUP9 DUP1 DUP8 ADD PUSH1 0x5 SHR DUP3 ADD SWAP3 DUP14 DUP9 LT PUSH3 0x42F JUMPI JUMPDEST ADD PUSH1 0x5 SHR ADD SWAP1 DUP4 SWAP1 JUMPDEST DUP3 DUP2 LT PUSH3 0x422 JUMPI POP POP PUSH3 0x15C JUMP JUMPDEST PUSH1 0x0 DUP2 SSTORE ADD DUP4 SWAP1 PUSH3 0x412 JUMP JUMPDEST SWAP3 POP DUP2 SWAP3 PUSH3 0x409 JUMP JUMPDEST PUSH1 0x22 DUP11 PUSH4 0x4E487B71 PUSH1 0xE0 SHL PUSH1 0x0 MSTORE MSTORE PUSH1 0x24 PUSH1 0x0 REVERT JUMPDEST SWAP1 PUSH1 0x7F AND SWAP1 PUSH3 0x14A JUMP JUMPDEST PUSH1 0x41 DUP10 PUSH4 0x4E487B71 PUSH1 0xE0 SHL PUSH1 0x0 MSTORE MSTORE PUSH1 0x24 PUSH1 0x0 REVERT JUMPDEST ADD MLOAD SWAP1 POP CODESIZE DUP1 PUSH3 0x11D JUMP JUMPDEST SWAP1 DUP13 SWAP2 DUP9 DUP7 SWAP6 AND DUP8 PUSH1 0x0 MSTORE DUP4 PUSH1 0x0 KECCAK256 SWAP4 PUSH1 0x0 SWAP1 JUMPDEST DUP3 DUP3 LT PUSH3 0x4C7 JUMPI POP POP DUP5 GT PUSH3 0x4AE JUMPI JUMPDEST POP POP POP DUP2 SHL ADD DUP3 SSTORE PUSH3 0x12F JUMP JUMPDEST ADD MLOAD PUSH1 0x0 NOT DUP4 DUP8 SHL PUSH1 0xF8 AND SHR NOT AND SWAP1 SSTORE CODESIZE DUP1 DUP1 PUSH3 0x4A0 JUMP JUMPDEST DUP4 DUP6 ADD MLOAD DUP7 SSTORE DUP9 SWAP8 SWAP1 SWAP6 ADD SWAP5 SWAP4 DUP5 ADD SWAP4 ADD DUP16 PUSH3 0x48E JUMP JUMPDEST SWAP1 SWAP2 SWAP3 POP DUP6 PUSH1 0x0 MSTORE DUP10 DUP3 PUSH1 0x0 KECCAK256 SWAP2 DUP2 DUP7 ADD PUSH1 0x5 SHR DUP4 ADD SWAP4 DUP7 LT PUSH3 0x52E JUMPI JUMPDEST SWAP2 DUP7 SWAP2 DUP7 SWAP6 SWAP5 SWAP4 ADD PUSH1 0x5 SHR ADD SWAP2 JUMPDEST DUP3 DUP2 LT PUSH3 0x51E JUMPI POP DUP14 SWAP2 POP PUSH3 0x105 JUMP JUMPDEST PUSH1 0x0 DUP2 SSTORE DUP6 SWAP5 POP DUP7 SWAP2 ADD PUSH3 0x50C JUMP JUMPDEST SWAP3 POP DUP2 SWAP3 PUSH3 0x4FE JUMP JUMPDEST PUSH1 0x22 DUP12 PUSH4 0x4E487B71 PUSH1 0xE0 SHL PUSH1 0x0 MSTORE MSTORE PUSH1 0x24 PUSH1 0x0 REVERT JUMPDEST SWAP1 PUSH1 0x7F AND SWAP1 PUSH3 0xEF JUMP JUMPDEST PUSH1 0x0 DUP1 REVERT JUMPDEST PUSH4 0x4E487B71 PUSH1 0xE0 SHL PUSH1 0x0 MSTORE PUSH1 0x41 PUSH1 0x4 MSTORE PUSH1 0x24 PUSH1 0x0 REVERT JUMPDEST PUSH1 0x40 DUP2 ADD SWAP1 DUP2 LT PUSH1 0x1 PUSH1 0x1 PUSH1 0x40 SHL SUB DUP3 GT OR PUSH3 0x55D JUMPI PUSH1 0x40 MSTORE JUMP JUMPDEST DUP1 MLOAD PUSH1 0x20 SWAP2 SWAP1 DUP3 DUP2 LT ISZERO PUSH3 0x62E JUMPI POP SWAP1 PUSH1 0x1F DUP3 MLOAD GT PUSH3 0x5CD JUMPI DUP1 DUP3 MLOAD SWAP3 ADD MLOAD SWAP1 DUP1 DUP4 LT PUSH3 0x5BE JUMPI POP OR SWAP1 JUMP JUMPDEST DUP3 PUSH1 0x0 NOT SWAP2 SUB PUSH1 0x3 SHL SHL AND OR SWAP1 JUMP JUMPDEST SWAP1 PUSH1 0x40 MLOAD DUP1 SWAP3 PUSH4 0x305A27A9 PUSH1 0xE0 SHL DUP3 MSTORE DUP1 PUSH1 0x4 DUP4 ADD MSTORE DUP3 MLOAD SWAP1 DUP2 PUSH1 0x24 DUP5 ADD MSTORE PUSH1 0x0 SWAP4 JUMPDEST DUP3 DUP6 LT PUSH3 0x614 JUMPI POP POP PUSH1 0x44 SWAP3 POP PUSH1 0x0 DUP4 DUP3 DUP5 ADD ADD MSTORE PUSH1 0x1F DUP1 NOT SWAP2 ADD AND DUP2 ADD SUB ADD SWAP1 REVERT JUMPDEST DUP5 DUP2 ADD DUP3 ADD MLOAD DUP7 DUP7 ADD PUSH1 0x44 ADD MSTORE SWAP4 DUP2 ADD SWAP4 DUP6 SWAP4 POP PUSH3 0x5F0 JUMP JUMPDEST PUSH1 0x1 PUSH1 0x1 PUSH1 0x40 SHL SUB DUP2 GT PUSH3 0x55D JUMPI PUSH1 0x5 SWAP3 DUP4 SLOAD SWAP3 PUSH1 0x1 SWAP4 DUP5 DUP2 DUP2 SHR SWAP2 AND DUP1 ISZERO PUSH3 0x75E JUMPI JUMPDEST DUP4 DUP3 LT EQ PUSH3 0x748 JUMPI PUSH1 0x1F DUP2 GT PUSH3 0x711 JUMPI JUMPDEST POP DUP2 PUSH1 0x1F DUP5 GT PUSH1 0x1 EQ PUSH3 0x6A7 JUMPI POP SWAP3 DUP3 SWAP4 SWAP2 DUP4 SWAP3 PUSH1 0x0 SWAP5 PUSH3 0x69B JUMPI JUMPDEST POP POP SHL SWAP2 PUSH1 0x0 NOT SWAP1 PUSH1 0x3 SHL SHR NOT AND OR SWAP1 SSTORE PUSH1 0xFF SWAP1 JUMP JUMPDEST ADD MLOAD SWAP3 POP CODESIZE DUP1 PUSH3 0x685 JUMP JUMPDEST SWAP2 SWAP1 DUP4 PUSH1 0x1F NOT DUP2 AND DUP8 PUSH1 0x0 MSTORE DUP5 PUSH1 0x0 KECCAK256 SWAP5 PUSH1 0x0 SWAP1 JUMPDEST DUP9 DUP4 DUP4 LT PUSH3 0x6F6 JUMPI POP POP POP LT PUSH3 0x6DC JUMPI JUMPDEST POP POP POP DUP2 SHL ADD SWAP1 SSTORE PUSH1 0xFF SWAP1 JUMP JUMPDEST ADD MLOAD PUSH1 0x0 NOT PUSH1 0xF8 DUP5 PUSH1 0x3 SHL AND SHR NOT AND SWAP1 SSTORE CODESIZE DUP1 DUP1 PUSH3 0x6CF JUMP JUMPDEST DUP6 DUP8 ADD MLOAD DUP9 SSTORE SWAP1 SWAP7 ADD SWAP6 SWAP5 DUP6 ADD SWAP5 DUP8 SWAP4 POP SWAP1 DUP2 ADD SWAP1 PUSH3 0x6BC JUMP JUMPDEST DUP6 PUSH1 0x0 MSTORE DUP5 PUSH1 0x1F DUP5 PUSH1 0x0 KECCAK256 SWAP3 ADD DUP8 SHR DUP3 ADD SWAP2 PUSH1 0x1F DUP7 ADD DUP9 SHR ADD JUMPDEST DUP3 DUP2 LT PUSH3 0x73B JUMPI POP POP PUSH3 0x667 JUMP JUMPDEST PUSH1 0x0 DUP2 SSTORE ADD DUP6 SWAP1 PUSH3 0x72B JUMP JUMPDEST PUSH4 0x4E487B71 PUSH1 0xE0 SHL PUSH1 0x0 MSTORE PUSH1 0x22 PUSH1 0x4 MSTORE PUSH1 0x24 PUSH1 0x0 REVERT JUMPDEST SWAP1 PUSH1 0x7F AND SWAP1 PUSH3 0x654 JUMP JUMPDEST DUP1 MLOAD PUSH1 0x20 SWAP1 DUP2 DUP2 LT ISZERO PUSH3 0x7F7 JUMPI POP PUSH1 0x1F DUP3 MLOAD GT PUSH3 0x796 JUMPI DUP1 DUP3 MLOAD SWAP3 ADD MLOAD SWAP1 DUP1 DUP4 LT PUSH3 0x5BE JUMPI POP OR SWAP1 JUMP JUMPDEST SWAP1 PUSH1 0x40 MLOAD DUP1 SWAP3 PUSH4 0x305A27A9 PUSH1 0xE0 SHL DUP3 MSTORE DUP1 PUSH1 0x4 DUP4 ADD MSTORE DUP3 MLOAD SWAP1 DUP2 PUSH1 0x24 DUP5 ADD MSTORE PUSH1 0x0 SWAP4 JUMPDEST DUP3 DUP6 LT PUSH3 0x7DD JUMPI POP POP PUSH1 0x44 SWAP3 POP PUSH1 0x0 DUP4 DUP3 DUP5 ADD ADD MSTORE PUSH1 0x1F DUP1 NOT SWAP2 ADD AND DUP2 ADD SUB ADD SWAP1 REVERT JUMPDEST DUP5 DUP2 ADD DUP3 ADD MLOAD DUP7 DUP7 ADD PUSH1 0x44 ADD MSTORE SWAP4 DUP2 ADD SWAP4 DUP6 SWAP4 POP PUSH3 0x7B9 JUMP JUMPDEST SWAP1 PUSH1 0x1 PUSH1 0x1 PUSH1 0x40 SHL SUB DUP3 GT PUSH3 0x55D JUMPI PUSH1 0x6 SLOAD SWAP3 PUSH1 0x1 SWAP4 DUP5 DUP2 DUP2 SHR SWAP2 AND DUP1 ISZERO PUSH3 0x916 JUMPI JUMPDEST DUP4 DUP3 LT EQ PUSH3 0x748 JUMPI PUSH1 0x1F DUP2 GT PUSH3 0x8DC JUMPI JUMPDEST POP DUP2 PUSH1 0x1F DUP5 GT PUSH1 0x1 EQ PUSH3 0x870 JUMPI POP SWAP3 DUP3 SWAP4 SWAP2 DUP4 SWAP3 PUSH1 0x0 SWAP5 PUSH3 0x864 JUMPI JUMPDEST POP POP SHL SWAP2 PUSH1 0x0 NOT SWAP1 PUSH1 0x3 SHL SHR NOT AND OR PUSH1 0x6 SSTORE PUSH1 0xFF SWAP1 JUMP JUMPDEST ADD MLOAD SWAP3 POP CODESIZE DUP1 PUSH3 0x84D JUMP JUMPDEST SWAP2 SWAP1 DUP4 PUSH1 0x1F NOT DUP2 AND PUSH1 0x6 PUSH1 0x0 MSTORE DUP5 PUSH1 0x0 KECCAK256 SWAP5 PUSH1 0x0 SWAP1 JUMPDEST DUP9 DUP4 DUP4 LT PUSH3 0x8C1 JUMPI POP POP POP LT PUSH3 0x8A7 JUMPI JUMPDEST POP POP POP DUP2 SHL ADD PUSH1 0x6 SSTORE PUSH1 0xFF SWAP1 JUMP JUMPDEST ADD MLOAD PUSH1 0x0 NOT PUSH1 0xF8 DUP5 PUSH1 0x3 SHL AND SHR NOT AND SWAP1 SSTORE CODESIZE DUP1 DUP1 PUSH3 0x899 JUMP JUMPDEST DUP6 DUP8 ADD MLOAD DUP9 SSTORE SWAP1 SWAP7 ADD SWAP6 SWAP5 DUP6 ADD SWAP5 DUP8 SWAP4 POP SWAP1 DUP2 ADD SWAP1 PUSH3 0x886 JUMP JUMPDEST PUSH1 0x6 PUSH1 0x0 MSTORE DUP5 PUSH1 0x1F DUP5 PUSH1 0x0 KECCAK256 SWAP3 ADD PUSH1 0x5 SHR DUP3 ADD SWAP2 PUSH1 0x1F DUP7 ADD PUSH1 0x5 SHR ADD JUMPDEST DUP3 DUP2 LT PUSH3 0x909 JUMPI POP POP PUSH3 0x82F JUMP JUMPDEST PUSH1 0x0 DUP2 SSTORE ADD DUP6 SWAP1 PUSH3 0x8F9 JUMP JUMPDEST SWAP1 PUSH1 0x7F AND SWAP1 PUSH3 0x81C JUMP INVALID PUSH1 0x80 PUSH1 0x40 DUP2 DUP2 MSTORE PUSH1 0x4 DUP1 CALLDATASIZE LT ISZERO PUSH2 0x15 JUMPI PUSH1 0x0 DUP1 REVERT JUMPDEST PUSH1 0x0 SWAP3 DUP4 CALLDATALOAD PUSH1 0xE0 SHR SWAP1 DUP2 PUSH4 0x6FDDE03 EQ PUSH2 0xDF4 JUMPI POP DUP1 PUSH4 0x95EA7B3 EQ PUSH2 0xDCA JUMPI DUP1 PUSH4 0x18160DDD EQ PUSH2 0xDAB JUMPI DUP1 PUSH4 0x23B872DD EQ PUSH2 0xCE1 JUMPI DUP1 PUSH4 0x313CE567 EQ PUSH2 0xCC5 JUMPI DUP1 PUSH4 0x3644E515 EQ PUSH2 0xCA1 JUMPI DUP1 PUSH4 0x39509351 EQ PUSH2 0xC51 JUMPI DUP1 PUSH4 0x3BA0B9A9 EQ PUSH2 0xC32 JUMPI DUP1 PUSH4 0x40C10F19 EQ PUSH2 0xB6C JUMPI DUP1 PUSH4 0x6C11BCD3 EQ PUSH2 0x99D JUMPI DUP1 PUSH4 0x70A08231 EQ PUSH2 0x966 JUMPI DUP1 PUSH4 0x715018A6 EQ PUSH2 0x909 JUMPI DUP1 PUSH4 0x7ECEBE00 EQ PUSH2 0x8D1 JUMPI DUP1 PUSH4 0x84B0196E EQ PUSH2 0x7B4 JUMPI DUP1 PUSH4 0x8DA5CB5B EQ PUSH2 0x78B JUMPI DUP1 PUSH4 0x95D89B41 EQ PUSH2 0x6A1 JUMPI DUP1 PUSH4 0xA0EF91DF EQ PUSH2 0x61E JUMPI DUP1 PUSH4 0xA457C2D7 EQ PUSH2 0x577 JUMPI DUP1 PUSH4 0xA9059CBB EQ PUSH2 0x546 JUMPI DUP1 PUSH4 0xD0FEBE4C EQ PUSH2 0x421 JUMPI DUP1 PUSH4 0xD505ACCF EQ PUSH2 0x268 JUMPI DUP1 PUSH4 0xDB068E0E EQ PUSH2 0x246 JUMPI DUP1 PUSH4 0xDD62ED3E EQ PUSH2 0x1F9 JUMPI PUSH4 0xF2FDE38B EQ PUSH2 0x12B JUMPI PUSH1 0x0 DUP1 REVERT JUMPDEST CALLVALUE PUSH2 0x1F5 JUMPI PUSH1 0x20 CALLDATASIZE PUSH1 0x3 NOT ADD SLT PUSH2 0x1F5 JUMPI PUSH2 0x144 PUSH2 0xF05 JUMP JUMPDEST SWAP1 PUSH2 0x14D PUSH2 0xF36 JUMP JUMPDEST PUSH1 0x1 PUSH1 0x1 PUSH1 0xA0 SHL SUB SWAP2 DUP3 AND SWAP3 DUP4 ISZERO PUSH2 0x1A3 JUMPI POP POP PUSH1 0x9 SLOAD DUP3 PUSH12 0xFFFFFFFFFFFFFFFFFFFFFFFF PUSH1 0xA0 SHL DUP3 AND OR PUSH1 0x9 SSTORE AND PUSH32 0x8BE0079C531659141344CD1FD0A4F28419497F9722A3DAAFE3B4186F6B6457E0 DUP4 DUP1 LOG3 DUP1 RETURN JUMPDEST SWAP1 PUSH1 0x20 PUSH1 0x84 SWAP3 MLOAD SWAP2 PUSH3 0x461BCD PUSH1 0xE5 SHL DUP4 MSTORE DUP3 ADD MSTORE PUSH1 0x26 PUSH1 0x24 DUP3 ADD MSTORE PUSH32 0x4F776E61626C653A206E6577206F776E657220697320746865207A65726F2061 PUSH1 0x44 DUP3 ADD MSTORE PUSH6 0x646472657373 PUSH1 0xD0 SHL PUSH1 0x64 DUP3 ADD MSTORE REVERT JUMPDEST DUP3 DUP1 REVERT JUMPDEST POP POP CALLVALUE PUSH2 0x242 JUMPI DUP1 PUSH1 0x3 NOT CALLDATASIZE ADD SLT PUSH2 0x242 JUMPI DUP1 PUSH1 0x20 SWAP3 PUSH2 0x217 PUSH2 0xF05 JUMP JUMPDEST PUSH2 0x21F PUSH2 0xF20 JUMP JUMPDEST PUSH1 0x1 PUSH1 0x1 PUSH1 0xA0 SHL SUB SWAP2 DUP3 AND DUP4 MSTORE PUSH1 0x1 DUP7 MSTORE DUP4 DUP4 KECCAK256 SWAP2 AND DUP3 MSTORE DUP5 MSTORE KECCAK256 SLOAD SWAP1 MLOAD SWAP1 DUP2 MSTORE RETURN JUMPDEST POP DUP1 REVERT JUMPDEST DUP4 DUP3 CALLVALUE PUSH2 0x242 JUMPI PUSH1 0x20 CALLDATASIZE PUSH1 0x3 NOT ADD SLT PUSH2 0x242 JUMPI PUSH2 0x261 PUSH2 0xF36 JUMP JUMPDEST CALLDATALOAD PUSH1 0xA SSTORE DUP1 RETURN JUMPDEST POP DUP3 SWAP1 CALLVALUE PUSH2 0x242 JUMPI PUSH1 0xE0 CALLDATASIZE PUSH1 0x3 NOT ADD SLT PUSH2 0x242 JUMPI PUSH2 0x284 PUSH2 0xF05 JUMP JUMPDEST PUSH2 0x28C PUSH2 0xF20 JUMP JUMPDEST SWAP1 PUSH1 0x44 CALLDATALOAD SWAP3 PUSH1 0x64 CALLDATALOAD PUSH1 0x84 CALLDATALOAD PUSH1 0xFF DUP2 AND DUP2 SUB PUSH2 0x41D JUMPI DUP2 TIMESTAMP GT PUSH2 0x3DA JUMPI PUSH1 0x1 DUP1 PUSH1 0xA0 SHL SUB SWAP1 DUP2 DUP6 AND SWAP3 DUP4 DUP10 MSTORE PUSH1 0x7 PUSH1 0x20 MSTORE DUP10 DUP10 KECCAK256 SWAP1 DUP2 SLOAD SWAP2 PUSH1 0x1 DUP4 ADD SWAP1 SSTORE DUP11 MLOAD SWAP1 PUSH1 0x20 DUP3 ADD SWAP3 PUSH32 0x6E71EDAE12B1B97F4D1F60370FEF10105FA2FAAE0126114A169C64845D6126C9 DUP5 MSTORE DUP7 DUP14 DUP5 ADD MSTORE DUP6 DUP11 AND PUSH1 0x60 DUP5 ADD MSTORE DUP11 PUSH1 0x80 DUP5 ADD MSTORE PUSH1 0xA0 DUP4 ADD MSTORE PUSH1 0xC0 DUP3 ADD MSTORE PUSH1 0xC0 DUP2 MSTORE PUSH1 0xE0 DUP2 ADD DUP2 DUP2 LT PUSH8 0xFFFFFFFFFFFFFFFF DUP3 GT OR PUSH2 0x3C7 JUMPI DUP12 MSTORE MLOAD SWAP1 KECCAK256 PUSH2 0x36F SWAP2 PUSH2 0x367 SWAP2 PUSH2 0x341 PUSH2 0x1458 JUMP JUMPDEST SWAP1 DUP13 MLOAD SWAP2 PUSH2 0x1901 PUSH1 0xF0 SHL DUP4 MSTORE PUSH1 0x2 DUP4 ADD MSTORE PUSH1 0x22 DUP3 ADD MSTORE PUSH1 0xC4 CALLDATALOAD SWAP2 PUSH1 0x42 PUSH1 0xA4 CALLDATALOAD SWAP3 KECCAK256 PUSH2 0x13C9 JUMP JUMPDEST SWAP2 SWAP1 SWAP2 PUSH2 0x12AF JUMP JUMPDEST AND SUB PUSH2 0x384 JUMPI POP PUSH2 0x381 SWAP4 SWAP5 POP PUSH2 0x11AD JUMP JUMPDEST DUP1 RETURN JUMPDEST PUSH1 0x64 SWAP1 PUSH1 0x20 DUP8 MLOAD SWAP2 PUSH3 0x461BCD PUSH1 0xE5 SHL DUP4 MSTORE DUP3 ADD MSTORE PUSH1 0x1E PUSH1 0x24 DUP3 ADD MSTORE PUSH32 0x45524332305065726D69743A20696E76616C6964207369676E61747572650000 PUSH1 0x44 DUP3 ADD MSTORE REVERT JUMPDEST PUSH4 0x4E487B71 PUSH1 0xE0 SHL DUP12 MSTORE PUSH1 0x41 DUP8 MSTORE PUSH1 0x24 DUP12 REVERT JUMPDEST DUP8 MLOAD PUSH3 0x461BCD PUSH1 0xE5 SHL DUP2 MSTORE PUSH1 0x20 DUP2 DUP6 ADD MSTORE PUSH1 0x1D PUSH1 0x24 DUP3 ADD MSTORE PUSH32 0x45524332305065726D69743A206578706972656420646561646C696E65000000 PUSH1 0x44 DUP3 ADD MSTORE PUSH1 0x64 SWAP1 REVERT JUMPDEST DUP7 DUP1 REVERT JUMPDEST POP SWAP1 DUP3 PUSH1 0x3 NOT CALLDATASIZE ADD SLT PUSH2 0x1F5 JUMPI CALLVALUE ISZERO PUSH2 0x503 JUMPI PUSH1 0xA SLOAD DUP1 CALLVALUE MUL SWAP1 CALLVALUE DUP3 DIV SUB PUSH2 0x4F0 JUMPI PUSH8 0xDE0B6B3A7640000 SWAP1 DIV SWAP2 ADDRESS DUP5 MSTORE DUP4 PUSH1 0x20 MSTORE DUP3 DUP3 DUP6 KECCAK256 SLOAD LT PUSH2 0x49F JUMPI POP PUSH32 0x8FAFEBCAF9D154343DAD25669BFA277F4FBACD7AC6B0C4FED522580E040A0F33 SWAP1 PUSH2 0x48E DUP4 CALLER ADDRESS PUSH2 0x103F JUMP JUMPDEST DUP1 MLOAD SWAP3 CALLVALUE DUP5 MSTORE PUSH1 0x20 DUP5 ADD MSTORE CALLER SWAP3 LOG2 DUP1 RETURN JUMPDEST PUSH1 0x20 PUSH1 0x84 SWAP3 MLOAD SWAP2 PUSH3 0x461BCD PUSH1 0xE5 SHL DUP4 MSTORE DUP3 ADD MSTORE PUSH1 0x26 PUSH1 0x24 DUP3 ADD MSTORE PUSH32 0x496E73756666696369656E7420746F6B656E2062616C616E636520696E20636F PUSH1 0x44 DUP3 ADD MSTORE PUSH6 0x1B9D1C9858DD PUSH1 0xD2 SHL PUSH1 0x64 DUP3 ADD MSTORE REVERT JUMPDEST PUSH4 0x4E487B71 PUSH1 0xE0 SHL DUP5 MSTORE PUSH1 0x11 DUP4 MSTORE PUSH1 0x24 DUP5 REVERT JUMPDEST SWAP1 PUSH1 0x20 PUSH1 0x64 SWAP3 MLOAD SWAP2 PUSH3 0x461BCD PUSH1 0xE5 SHL DUP4 MSTORE DUP3 ADD MSTORE PUSH1 0x19 PUSH1 0x24 DUP3 ADD MSTORE PUSH32 0x4D7573742073656E642045544820746F2065786368616E676500000000000000 PUSH1 0x44 DUP3 ADD MSTORE REVERT JUMPDEST POP POP CALLVALUE PUSH2 0x242 JUMPI DUP1 PUSH1 0x3 NOT CALLDATASIZE ADD SLT PUSH2 0x242 JUMPI PUSH1 0x20 SWAP1 PUSH2 0x570 PUSH2 0x566 PUSH2 0xF05 JUMP JUMPDEST PUSH1 0x24 CALLDATALOAD SWAP1 CALLER PUSH2 0x103F JUMP JUMPDEST MLOAD PUSH1 0x1 DUP2 MSTORE RETURN JUMPDEST POP DUP3 CALLVALUE PUSH2 0x61B JUMPI DUP3 PUSH1 0x3 NOT CALLDATASIZE ADD SLT PUSH2 0x61B JUMPI PUSH2 0x591 PUSH2 0xF05 JUMP JUMPDEST SWAP2 DUP4 PUSH1 0x24 CALLDATALOAD SWAP3 CALLER DUP2 MSTORE PUSH1 0x1 PUSH1 0x20 MSTORE DUP2 DUP2 KECCAK256 PUSH1 0x1 DUP1 PUSH1 0xA0 SHL SUB DUP7 AND DUP3 MSTORE PUSH1 0x20 MSTORE KECCAK256 SLOAD SWAP1 DUP3 DUP3 LT PUSH2 0x5CA JUMPI PUSH1 0x20 DUP6 PUSH2 0x570 DUP6 DUP6 SUB DUP8 CALLER PUSH2 0x11AD JUMP JUMPDEST PUSH1 0x84 SWAP1 PUSH1 0x20 DUP7 MLOAD SWAP2 PUSH3 0x461BCD PUSH1 0xE5 SHL DUP4 MSTORE DUP3 ADD MSTORE PUSH1 0x25 PUSH1 0x24 DUP3 ADD MSTORE PUSH32 0x45524332303A2064656372656173656420616C6C6F77616E63652062656C6F77 PUSH1 0x44 DUP3 ADD MSTORE PUSH5 0x207A65726F PUSH1 0xD8 SHL PUSH1 0x64 DUP3 ADD MSTORE REVERT JUMPDEST DUP1 REVERT JUMPDEST POP CALLVALUE PUSH2 0x1F5 JUMPI DUP3 PUSH1 0x3 NOT CALLDATASIZE ADD SLT PUSH2 0x1F5 JUMPI PUSH2 0x637 PUSH2 0xF36 JUMP JUMPDEST SELFBALANCE SWAP1 DUP2 ISZERO PUSH2 0x669 JUMPI POP PUSH1 0x9 SLOAD DUP4 SWAP2 DUP3 SWAP2 DUP3 SWAP2 DUP3 SWAP2 PUSH1 0x1 PUSH1 0x1 PUSH1 0xA0 SHL SUB AND DUP3 CALL ISZERO PUSH2 0x65F JUMPI POP DUP1 RETURN JUMPDEST MLOAD SWAP1 RETURNDATASIZE SWAP1 DUP3 RETURNDATACOPY RETURNDATASIZE SWAP1 REVERT JUMPDEST PUSH1 0x64 SWAP1 PUSH1 0x20 DUP5 MLOAD SWAP2 PUSH3 0x461BCD PUSH1 0xE5 SHL DUP4 MSTORE DUP3 ADD MSTORE PUSH1 0x12 PUSH1 0x24 DUP3 ADD MSTORE PUSH18 0x4E6F2045544820746F207769746864726177 PUSH1 0x70 SHL PUSH1 0x44 DUP3 ADD MSTORE REVERT JUMPDEST POP SWAP1 CALLVALUE PUSH2 0x1F5 JUMPI DUP3 PUSH1 0x3 NOT CALLDATASIZE ADD SLT PUSH2 0x1F5 JUMPI DUP1 MLOAD SWAP2 DUP4 DUP2 SLOAD SWAP1 PUSH2 0x6C3 DUP3 PUSH2 0xF8E JUMP JUMPDEST DUP1 DUP7 MSTORE SWAP3 PUSH1 0x1 SWAP3 DUP1 DUP5 AND SWAP1 DUP2 ISZERO PUSH2 0x760 JUMPI POP PUSH1 0x1 EQ PUSH2 0x704 JUMPI JUMPDEST PUSH2 0x700 DUP7 DUP7 PUSH2 0x6EE DUP3 DUP12 SUB DUP4 PUSH2 0xFFA JUMP JUMPDEST MLOAD SWAP2 DUP3 SWAP2 PUSH1 0x20 DUP4 MSTORE PUSH1 0x20 DUP4 ADD SWAP1 PUSH2 0xEC5 JUMP JUMPDEST SUB SWAP1 RETURN JUMPDEST DUP2 MSTORE SWAP5 POP PUSH32 0x8A35ACFBC15FF81A39AE7D344FD709F28E8600B4AA8C65C6B64BFE7FE36BD19B JUMPDEST DUP3 DUP7 LT PUSH2 0x748 JUMPI POP POP POP PUSH2 0x6EE DUP3 PUSH1 0x20 PUSH2 0x700 SWAP6 DUP3 ADD ADD SWAP5 CODESIZE PUSH2 0x6DD JUMP JUMPDEST DUP1 SLOAD PUSH1 0x20 DUP8 DUP8 ADD DUP2 ADD SWAP2 SWAP1 SWAP2 MSTORE SWAP1 SWAP6 ADD SWAP5 DUP2 ADD PUSH2 0x72A JUMP JUMPDEST SWAP1 POP PUSH2 0x700 SWAP8 POP DUP7 SWAP4 POP PUSH1 0x20 SWAP3 POP PUSH2 0x6EE SWAP5 SWAP2 POP PUSH1 0xFF NOT AND DUP3 DUP5 ADD MSTORE ISZERO ISZERO PUSH1 0x5 SHL DUP3 ADD ADD SWAP5 CODESIZE PUSH2 0x6DD JUMP JUMPDEST POP POP CALLVALUE PUSH2 0x242 JUMPI DUP2 PUSH1 0x3 NOT CALLDATASIZE ADD SLT PUSH2 0x242 JUMPI PUSH1 0x9 SLOAD SWAP1 MLOAD PUSH1 0x1 PUSH1 0x1 PUSH1 0xA0 SHL SUB SWAP1 SWAP2 AND DUP2 MSTORE PUSH1 0x20 SWAP1 RETURN JUMPDEST POP SWAP1 CALLVALUE PUSH2 0x1F5 JUMPI DUP3 PUSH1 0x3 NOT CALLDATASIZE ADD SLT PUSH2 0x1F5 JUMPI PUSH2 0x7EF PUSH32 0x0 PUSH2 0x1583 JUMP JUMPDEST SWAP3 PUSH2 0x819 PUSH32 0x0 PUSH2 0x167F JUMP JUMPDEST SWAP1 DUP3 MLOAD SWAP3 PUSH1 0x20 SWAP3 DUP4 DUP6 ADD SWAP6 DUP6 DUP8 LT PUSH8 0xFFFFFFFFFFFFFFFF DUP9 GT OR PUSH2 0x8BE JUMPI POP SWAP3 DUP1 PUSH2 0x874 DUP4 DUP9 SWAP7 PUSH2 0x867 SWAP10 DUP12 SWAP10 SWAP7 MSTORE DUP7 DUP7 MSTORE DUP2 MLOAD SWAP10 DUP11 SWAP10 PUSH1 0xF PUSH1 0xF8 SHL DUP12 MSTORE PUSH1 0xE0 DUP7 DUP13 ADD MSTORE PUSH1 0xE0 DUP12 ADD SWAP1 PUSH2 0xEC5 JUMP JUMPDEST SWAP2 DUP10 DUP4 SUB SWAP1 DUP11 ADD MSTORE PUSH2 0xEC5 JUMP JUMPDEST SWAP3 CHAINID PUSH1 0x60 DUP9 ADD MSTORE ADDRESS PUSH1 0x80 DUP9 ADD MSTORE DUP5 PUSH1 0xA0 DUP9 ADD MSTORE DUP7 DUP5 SUB PUSH1 0xC0 DUP9 ADD MSTORE MLOAD SWAP3 DUP4 DUP2 MSTORE ADD SWAP4 SWAP3 JUMPDEST DUP3 DUP2 LT PUSH2 0x8A7 JUMPI POP POP POP POP SUB SWAP1 RETURN JUMPDEST DUP4 MLOAD DUP6 MSTORE DUP7 SWAP6 POP SWAP4 DUP2 ADD SWAP4 SWAP3 DUP2 ADD SWAP3 PUSH1 0x1 ADD PUSH2 0x898 JUMP JUMPDEST PUSH4 0x4E487B71 PUSH1 0xE0 SHL DUP5 MSTORE PUSH1 0x41 SWAP1 MSTORE PUSH1 0x24 DUP4 REVERT JUMPDEST POP POP CALLVALUE PUSH2 0x242 JUMPI PUSH1 0x20 CALLDATASIZE PUSH1 0x3 NOT ADD SLT PUSH2 0x242 JUMPI PUSH1 0x20 SWAP2 DUP2 SWAP1 PUSH1 0x1 PUSH1 0x1 PUSH1 0xA0 SHL SUB PUSH2 0x8F9 PUSH2 0xF05 JUMP JUMPDEST AND DUP2 MSTORE PUSH1 0x7 DUP5 MSTORE KECCAK256 SLOAD SWAP1 MLOAD SWAP1 DUP2 MSTORE RETURN JUMPDEST DUP4 CALLVALUE PUSH2 0x61B JUMPI DUP1 PUSH1 0x3 NOT CALLDATASIZE ADD SLT PUSH2 0x61B JUMPI PUSH2 0x922 PUSH2 0xF36 JUMP JUMPDEST PUSH1 0x9 DUP1 SLOAD PUSH1 0x1 PUSH1 0x1 PUSH1 0xA0 SHL SUB NOT DUP2 AND SWAP1 SWAP2 SSTORE DUP2 SWAP1 PUSH1 0x1 PUSH1 0x1 PUSH1 0xA0 SHL SUB AND PUSH32 0x8BE0079C531659141344CD1FD0A4F28419497F9722A3DAAFE3B4186F6B6457E0 DUP3 DUP1 LOG3 DUP1 RETURN JUMPDEST POP POP CALLVALUE PUSH2 0x242 JUMPI PUSH1 0x20 CALLDATASIZE PUSH1 0x3 NOT ADD SLT PUSH2 0x242 JUMPI PUSH1 0x20 SWAP2 DUP2 SWAP1 PUSH1 0x1 PUSH1 0x1 PUSH1 0xA0 SHL SUB PUSH2 0x98E PUSH2 0xF05 JUMP JUMPDEST AND DUP2 MSTORE DUP1 DUP5 MSTORE KECCAK256 SLOAD SWAP1 MLOAD SWAP1 DUP2 MSTORE RETURN JUMPDEST POP CALLVALUE PUSH2 0x1F5 JUMPI PUSH1 0x20 SWAP2 DUP3 PUSH1 0x3 NOT CALLDATASIZE ADD SLT PUSH2 0xB68 JUMPI DUP2 CALLDATALOAD SWAP2 DUP3 ISZERO PUSH2 0xB19 JUMPI CALLER DUP6 MSTORE DUP5 DUP5 MSTORE DUP3 DUP3 DUP7 KECCAK256 SLOAD LT PUSH2 0xAD8 JUMPI PUSH8 0xDE0B6B3A7640000 DUP4 MUL PUSH8 0xDE0B6B3A763FFFF NOT DUP5 DUP3 DIV ADD PUSH2 0xAC5 JUMPI PUSH1 0xA SLOAD SWAP1 DUP2 ISZERO PUSH2 0xAB2 JUMPI DIV SWAP1 DUP2 SELFBALANCE LT PUSH2 0xA63 JUMPI POP PUSH2 0xA06 DUP4 ADDRESS CALLER PUSH2 0x103F JUMP JUMPDEST DUP5 DUP1 DUP3 DUP1 ISZERO PUSH2 0xA59 JUMPI JUMPDEST DUP3 DUP1 SWAP3 SWAP2 DUP2 SWAP3 CALLER SWAP1 CALL ISZERO PUSH2 0xA4F JUMPI PUSH32 0x2DCF9433D75DB0D8B1C172641F85E319FFE4AD22E108A95D1847CEB906E5195D SWAP3 SWAP4 DUP3 MLOAD SWAP5 DUP6 MSTORE DUP5 ADD MSTORE CALLER SWAP3 LOG2 DUP1 RETURN JUMPDEST DUP2 MLOAD RETURNDATASIZE DUP7 DUP3 RETURNDATACOPY RETURNDATASIZE SWAP1 REVERT JUMPDEST PUSH2 0x8FC SWAP2 POP PUSH2 0xA10 JUMP JUMPDEST DUP3 MLOAD PUSH3 0x461BCD PUSH1 0xE5 SHL DUP2 MSTORE SWAP1 DUP2 ADD DUP6 SWAP1 MSTORE PUSH1 0x24 DUP1 DUP3 ADD MSTORE PUSH32 0x496E73756666696369656E74204554482062616C616E636520696E20636F6E74 PUSH1 0x44 DUP3 ADD MSTORE PUSH4 0x1C9858DD PUSH1 0xE2 SHL PUSH1 0x64 DUP3 ADD MSTORE PUSH1 0x84 SWAP1 REVERT JUMPDEST PUSH4 0x4E487B71 PUSH1 0xE0 SHL DUP8 MSTORE PUSH1 0x12 DUP4 MSTORE PUSH1 0x24 DUP8 REVERT JUMPDEST PUSH4 0x4E487B71 PUSH1 0xE0 SHL DUP7 MSTORE PUSH1 0x11 DUP3 MSTORE PUSH1 0x24 DUP7 REVERT JUMPDEST DUP4 PUSH1 0x64 SWAP3 MLOAD SWAP2 PUSH3 0x461BCD PUSH1 0xE5 SHL DUP4 MSTORE DUP3 ADD MSTORE PUSH1 0x1A PUSH1 0x24 DUP3 ADD MSTORE PUSH32 0x496E73756666696369656E7420746F6B656E2062616C616E6365000000000000 PUSH1 0x44 DUP3 ADD MSTORE REVERT JUMPDEST DUP4 PUSH1 0x84 SWAP3 MLOAD SWAP2 PUSH3 0x461BCD PUSH1 0xE5 SHL DUP4 MSTORE DUP3 ADD MSTORE PUSH1 0x25 PUSH1 0x24 DUP3 ADD MSTORE PUSH32 0x4D7573742073656C6C206120706F73697469766520616D6F756E74206F662074 PUSH1 0x44 DUP3 ADD MSTORE PUSH5 0x6F6B656E73 PUSH1 0xD8 SHL PUSH1 0x64 DUP3 ADD MSTORE REVERT JUMPDEST DUP4 DUP1 REVERT JUMPDEST POP SWAP1 CALLVALUE PUSH2 0x1F5 JUMPI DUP1 PUSH1 0x3 NOT CALLDATASIZE ADD SLT PUSH2 0x1F5 JUMPI PUSH2 0xB86 PUSH2 0xF05 JUMP JUMPDEST SWAP1 PUSH1 0x24 CALLDATALOAD SWAP2 PUSH2 0xB93 PUSH2 0xF36 JUMP JUMPDEST PUSH1 0x1 PUSH1 0x1 PUSH1 0xA0 SHL SUB AND SWAP3 DUP4 ISZERO PUSH2 0xBF0 JUMPI POP PUSH1 0x20 DUP3 PUSH32 0xDDF252AD1BE2C89B69C2B068FC378DAA952BA7F163C4A11628F55A4DF523B3EF SWAP3 PUSH2 0xBD6 DUP8 SWAP6 PUSH1 0x2 SLOAD PUSH2 0x101C JUMP JUMPDEST PUSH1 0x2 SSTORE DUP6 DUP6 MSTORE DUP5 DUP4 MSTORE DUP1 DUP6 KECCAK256 DUP3 DUP2 SLOAD ADD SWAP1 SSTORE MLOAD SWAP1 DUP2 MSTORE LOG3 DUP1 RETURN JUMPDEST PUSH1 0x20 PUSH1 0x64 SWAP3 MLOAD SWAP2 PUSH3 0x461BCD PUSH1 0xE5 SHL DUP4 MSTORE DUP3 ADD MSTORE PUSH1 0x1F PUSH1 0x24 DUP3 ADD MSTORE PUSH32 0x45524332303A206D696E7420746F20746865207A65726F206164647265737300 PUSH1 0x44 DUP3 ADD MSTORE REVERT JUMPDEST POP POP CALLVALUE PUSH2 0x242 JUMPI DUP2 PUSH1 0x3 NOT CALLDATASIZE ADD SLT PUSH2 0x242 JUMPI PUSH1 0x20 SWAP1 PUSH1 0xA SLOAD SWAP1 MLOAD SWAP1 DUP2 MSTORE RETURN JUMPDEST POP POP CALLVALUE PUSH2 0x242 JUMPI DUP1 PUSH1 0x3 NOT CALLDATASIZE ADD SLT PUSH2 0x242 JUMPI PUSH2 0x570 PUSH1 0x20 SWAP3 PUSH2 0xC9A PUSH2 0xC74 PUSH2 0xF05 JUMP JUMPDEST CALLER DUP4 MSTORE PUSH1 0x1 DUP7 MSTORE DUP5 DUP4 KECCAK256 PUSH1 0x1 PUSH1 0x1 PUSH1 0xA0 SHL SUB DUP3 AND DUP5 MSTORE DUP7 MSTORE SWAP2 DUP5 SWAP1 KECCAK256 SLOAD PUSH1 0x24 CALLDATALOAD SWAP1 PUSH2 0x101C JUMP JUMPDEST SWAP1 CALLER PUSH2 0x11AD JUMP JUMPDEST POP POP CALLVALUE PUSH2 0x242 JUMPI DUP2 PUSH1 0x3 NOT CALLDATASIZE ADD SLT PUSH2 0x242 JUMPI PUSH1 0x20 SWAP1 PUSH2 0xCBE PUSH2 0x1458 JUMP JUMPDEST SWAP1 MLOAD SWAP1 DUP2 MSTORE RETURN JUMPDEST POP POP CALLVALUE PUSH2 0x242 JUMPI DUP2 PUSH1 0x3 NOT CALLDATASIZE ADD SLT PUSH2 0x242 JUMPI PUSH1 0x20 SWAP1 MLOAD PUSH1 0x12 DUP2 MSTORE RETURN JUMPDEST POP DUP3 SWAP1 CALLVALUE PUSH2 0x242 JUMPI PUSH1 0x60 CALLDATASIZE PUSH1 0x3 NOT ADD SLT PUSH2 0x242 JUMPI PUSH2 0xCFD PUSH2 0xF05 JUMP JUMPDEST PUSH2 0xD05 PUSH2 0xF20 JUMP JUMPDEST SWAP2 DUP5 PUSH1 0x44 CALLDATALOAD SWAP5 PUSH1 0x1 DUP1 PUSH1 0xA0 SHL SUB DUP5 AND DUP2 MSTORE PUSH1 0x1 PUSH1 0x20 MSTORE DUP2 DUP2 KECCAK256 CALLER DUP3 MSTORE PUSH1 0x20 MSTORE KECCAK256 SLOAD SWAP1 PUSH1 0x0 NOT DUP3 SUB PUSH2 0xD3F JUMPI JUMPDEST PUSH1 0x20 DUP7 PUSH2 0x570 DUP8 DUP8 DUP8 PUSH2 0x103F JUMP JUMPDEST DUP5 DUP3 LT PUSH2 0xD68 JUMPI POP SWAP2 DUP4 SWAP2 PUSH2 0xD5D PUSH1 0x20 SWAP7 SWAP6 PUSH2 0x570 SWAP6 SUB CALLER DUP4 PUSH2 0x11AD JUMP JUMPDEST SWAP2 SWAP4 SWAP5 DUP2 SWAP4 POP PUSH2 0xD31 JUMP JUMPDEST PUSH1 0x64 SWAP1 PUSH1 0x20 DUP8 MLOAD SWAP2 PUSH3 0x461BCD PUSH1 0xE5 SHL DUP4 MSTORE DUP3 ADD MSTORE PUSH1 0x1D PUSH1 0x24 DUP3 ADD MSTORE PUSH32 0x45524332303A20696E73756666696369656E7420616C6C6F77616E6365000000 PUSH1 0x44 DUP3 ADD MSTORE REVERT JUMPDEST POP POP CALLVALUE PUSH2 0x242 JUMPI DUP2 PUSH1 0x3 NOT CALLDATASIZE ADD SLT PUSH2 0x242 JUMPI PUSH1 0x20 SWAP1 PUSH1 0x2 SLOAD SWAP1 MLOAD SWAP1 DUP2 MSTORE RETURN JUMPDEST POP POP CALLVALUE PUSH2 0x242 JUMPI DUP1 PUSH1 0x3 NOT CALLDATASIZE ADD SLT PUSH2 0x242 JUMPI PUSH1 0x20 SWAP1 PUSH2 0x570 PUSH2 0xDEA PUSH2 0xF05 JUMP JUMPDEST PUSH1 0x24 CALLDATALOAD SWAP1 CALLER PUSH2 0x11AD JUMP JUMPDEST DUP5 SWAP1 DUP5 CALLVALUE PUSH2 0x1F5 JUMPI DUP3 PUSH1 0x3 NOT CALLDATASIZE ADD SLT PUSH2 0x1F5 JUMPI DUP3 PUSH1 0x3 SLOAD PUSH2 0xE14 DUP2 PUSH2 0xF8E JUMP JUMPDEST DUP1 DUP6 MSTORE SWAP2 PUSH1 0x1 SWAP2 DUP1 DUP4 AND SWAP1 DUP2 ISZERO PUSH2 0xE9D JUMPI POP PUSH1 0x1 EQ PUSH2 0xE40 JUMPI JUMPDEST POP POP POP PUSH2 0x6EE DUP3 PUSH2 0x700 SWAP5 SUB DUP4 PUSH2 0xFFA JUMP JUMPDEST SWAP5 POP PUSH1 0x3 DUP6 MSTORE PUSH32 0xC2575A0E9E593C00F959F8C92F12DB2869C3395A3B0502D05E2516446F71F85B JUMPDEST DUP3 DUP7 LT PUSH2 0xE85 JUMPI POP POP POP PUSH2 0x6EE DUP3 PUSH1 0x20 PUSH2 0x700 SWAP6 DUP3 ADD ADD SWAP5 PUSH2 0xE2E JUMP JUMPDEST DUP1 SLOAD PUSH1 0x20 DUP8 DUP8 ADD DUP2 ADD SWAP2 SWAP1 SWAP2 MSTORE SWAP1 SWAP6 ADD SWAP5 DUP2 ADD PUSH2 0xE68 JUMP JUMPDEST PUSH2 0x700 SWAP8 POP DUP7 SWAP4 POP PUSH1 0x20 SWAP3 POP PUSH2 0x6EE SWAP5 SWAP2 POP PUSH1 0xFF NOT AND DUP3 DUP5 ADD MSTORE ISZERO ISZERO PUSH1 0x5 SHL DUP3 ADD ADD SWAP5 PUSH2 0xE2E JUMP JUMPDEST SWAP2 SWAP1 DUP3 MLOAD SWAP3 DUP4 DUP3 MSTORE PUSH1 0x0 JUMPDEST DUP5 DUP2 LT PUSH2 0xEF1 JUMPI POP POP DUP3 PUSH1 0x0 PUSH1 0x20 DUP1 SWAP5 SWAP6 DUP5 ADD ADD MSTORE PUSH1 0x1F DUP1 NOT SWAP2 ADD AND ADD ADD SWAP1 JUMP JUMPDEST PUSH1 0x20 DUP2 DUP4 ADD DUP2 ADD MLOAD DUP5 DUP4 ADD DUP3 ADD MSTORE ADD PUSH2 0xED0 JUMP JUMPDEST PUSH1 0x4 CALLDATALOAD SWAP1 PUSH1 0x1 PUSH1 0x1 PUSH1 0xA0 SHL SUB DUP3 AND DUP3 SUB PUSH2 0xF1B JUMPI JUMP JUMPDEST PUSH1 0x0 DUP1 REVERT JUMPDEST PUSH1 0x24 CALLDATALOAD SWAP1 PUSH1 0x1 PUSH1 0x1 PUSH1 0xA0 SHL SUB DUP3 AND DUP3 SUB PUSH2 0xF1B JUMPI JUMP JUMPDEST PUSH1 0x9 SLOAD PUSH1 0x1 PUSH1 0x1 PUSH1 0xA0 SHL SUB AND CALLER SUB PUSH2 0xF4A JUMPI JUMP JUMPDEST PUSH1 0x64 PUSH1 0x40 MLOAD PUSH3 0x461BCD PUSH1 0xE5 SHL DUP2 MSTORE PUSH1 0x20 PUSH1 0x4 DUP3 ADD MSTORE PUSH1 0x20 PUSH1 0x24 DUP3 ADD MSTORE PUSH32 0x4F776E61626C653A2063616C6C6572206973206E6F7420746865206F776E6572 PUSH1 0x44 DUP3 ADD MSTORE REVERT JUMPDEST SWAP1 PUSH1 0x1 DUP3 DUP2 SHR SWAP3 AND DUP1 ISZERO PUSH2 0xFBE JUMPI JUMPDEST PUSH1 0x20 DUP4 LT EQ PUSH2 0xFA8 JUMPI JUMP JUMPDEST PUSH4 0x4E487B71 PUSH1 0xE0 SHL PUSH1 0x0 MSTORE PUSH1 0x22 PUSH1 0x4 MSTORE PUSH1 0x24 PUSH1 0x0 REVERT JUMPDEST SWAP2 PUSH1 0x7F AND SWAP2 PUSH2 0xF9D JUMP JUMPDEST PUSH1 0x40 DUP2 ADD SWAP1 DUP2 LT PUSH8 0xFFFFFFFFFFFFFFFF DUP3 GT OR PUSH2 0xFE4 JUMPI PUSH1 0x40 MSTORE JUMP JUMPDEST PUSH4 0x4E487B71 PUSH1 0xE0 SHL PUSH1 0x0 MSTORE PUSH1 0x41 PUSH1 0x4 MSTORE PUSH1 0x24 PUSH1 0x0 REVERT JUMPDEST SWAP1 PUSH1 0x1F DUP1 NOT SWAP2 ADD AND DUP2 ADD SWAP1 DUP2 LT PUSH8 0xFFFFFFFFFFFFFFFF DUP3 GT OR PUSH2 0xFE4 JUMPI PUSH1 0x40 MSTORE JUMP JUMPDEST SWAP2 SWAP1 DUP3 ADD DUP1 SWAP3 GT PUSH2 0x1029 JUMPI JUMP JUMPDEST PUSH4 0x4E487B71 PUSH1 0xE0 SHL PUSH1 0x0 MSTORE PUSH1 0x11 PUSH1 0x4 MSTORE PUSH1 0x24 PUSH1 0x0 REVERT JUMPDEST PUSH1 0x1 PUSH1 0x1 PUSH1 0xA0 SHL SUB SWAP1 DUP2 AND SWAP2 DUP3 ISZERO PUSH2 0x115A JUMPI AND SWAP2 DUP3 ISZERO PUSH2 0x1109 JUMPI PUSH1 0x0 DUP3 DUP2 MSTORE DUP1 PUSH1 0x20 MSTORE PUSH1 0x40 DUP2 KECCAK256 SLOAD SWAP2 DUP1 DUP4 LT PUSH2 0x10B5 JUMPI PUSH1 0x40 DUP3 DUP3 PUSH32 0xDDF252AD1BE2C89B69C2B068FC378DAA952BA7F163C4A11628F55A4DF523B3EF SWAP6 DUP8 PUSH1 0x20 SWAP7 MSTORE DUP3 DUP7 MSTORE SUB DUP3 DUP3 KECCAK256 SSTORE DUP7 DUP2 MSTORE KECCAK256 DUP2 DUP2 SLOAD ADD SWAP1 SSTORE PUSH1 0x40 MLOAD SWAP1 DUP2 MSTORE LOG3 JUMP JUMPDEST PUSH1 0x40 MLOAD PUSH3 0x461BCD PUSH1 0xE5 SHL DUP2 MSTORE PUSH1 0x20 PUSH1 0x4 DUP3 ADD MSTORE PUSH1 0x26 PUSH1 0x24 DUP3 ADD MSTORE PUSH32 0x45524332303A207472616E7366657220616D6F756E7420657863656564732062 PUSH1 0x44 DUP3 ADD MSTORE PUSH6 0x616C616E6365 PUSH1 0xD0 SHL PUSH1 0x64 DUP3 ADD MSTORE PUSH1 0x84 SWAP1 REVERT JUMPDEST PUSH1 0x40 MLOAD PUSH3 0x461BCD PUSH1 0xE5 SHL DUP2 MSTORE PUSH1 0x20 PUSH1 0x4 DUP3 ADD MSTORE PUSH1 0x23 PUSH1 0x24 DUP3 ADD MSTORE PUSH32 0x45524332303A207472616E7366657220746F20746865207A65726F2061646472 PUSH1 0x44 DUP3 ADD MSTORE PUSH3 0x657373 PUSH1 0xE8 SHL PUSH1 0x64 DUP3 ADD MSTORE PUSH1 0x84 SWAP1 REVERT JUMPDEST PUSH1 0x40 MLOAD PUSH3 0x461BCD PUSH1 0xE5 SHL DUP2 MSTORE PUSH1 0x20 PUSH1 0x4 DUP3 ADD MSTORE PUSH1 0x25 PUSH1 0x24 DUP3 ADD MSTORE PUSH32 0x45524332303A207472616E736665722066726F6D20746865207A65726F206164 PUSH1 0x44 DUP3 ADD MSTORE PUSH5 0x6472657373 PUSH1 0xD8 SHL PUSH1 0x64 DUP3 ADD MSTORE PUSH1 0x84 SWAP1 REVERT JUMPDEST PUSH1 0x1 PUSH1 0x1 PUSH1 0xA0 SHL SUB SWAP1 DUP2 AND SWAP2 DUP3 ISZERO PUSH2 0x125E JUMPI AND SWAP2 DUP3 ISZERO PUSH2 0x120E JUMPI PUSH1 0x20 PUSH32 0x8C5BE1E5EBEC7D5BD14F71427D1E84F3DD0314C0F7B2291E5B200AC8C7C3B925 SWAP2 DUP4 PUSH1 0x0 MSTORE PUSH1 0x1 DUP3 MSTORE PUSH1 0x40 PUSH1 0x0 KECCAK256 DUP6 PUSH1 0x0 MSTORE DUP3 MSTORE DUP1 PUSH1 0x40 PUSH1 0x0 KECCAK256 SSTORE PUSH1 0x40 MLOAD SWAP1 DUP2 MSTORE LOG3 JUMP JUMPDEST PUSH1 0x40 MLOAD PUSH3 0x461BCD PUSH1 0xE5 SHL DUP2 MSTORE PUSH1 0x20 PUSH1 0x4 DUP3 ADD MSTORE PUSH1 0x22 PUSH1 0x24 DUP3 ADD MSTORE PUSH32 0x45524332303A20617070726F766520746F20746865207A65726F206164647265 PUSH1 0x44 DUP3 ADD MSTORE PUSH2 0x7373 PUSH1 0xF0 SHL PUSH1 0x64 DUP3 ADD MSTORE PUSH1 0x84 SWAP1 REVERT JUMPDEST PUSH1 0x40 MLOAD PUSH3 0x461BCD PUSH1 0xE5 SHL DUP2 MSTORE PUSH1 0x20 PUSH1 0x4 DUP3 ADD MSTORE PUSH1 0x24 DUP1 DUP3 ADD MSTORE PUSH32 0x45524332303A20617070726F76652066726F6D20746865207A65726F20616464 PUSH1 0x44 DUP3 ADD MSTORE PUSH4 0x72657373 PUSH1 0xE0 SHL PUSH1 0x64 DUP3 ADD MSTORE PUSH1 0x84 SWAP1 REVERT JUMPDEST PUSH1 0x5 DUP2 LT ISZERO PUSH2 0x13B3 JUMPI DUP1 PUSH2 0x12C0 JUMPI POP JUMP JUMPDEST PUSH1 0x1 DUP2 SUB PUSH2 0x130D JUMPI PUSH1 0x40 MLOAD PUSH3 0x461BCD PUSH1 0xE5 SHL DUP2 MSTORE PUSH1 0x20 PUSH1 0x4 DUP3 ADD MSTORE PUSH1 0x18 PUSH1 0x24 DUP3 ADD MSTORE PUSH32 0x45434453413A20696E76616C6964207369676E61747572650000000000000000 PUSH1 0x44 DUP3 ADD MSTORE PUSH1 0x64 SWAP1 REVERT JUMPDEST PUSH1 0x2 DUP2 SUB PUSH2 0x135A JUMPI PUSH1 0x40 MLOAD PUSH3 0x461BCD PUSH1 0xE5 SHL DUP2 MSTORE PUSH1 0x20 PUSH1 0x4 DUP3 ADD MSTORE PUSH1 0x1F PUSH1 0x24 DUP3 ADD MSTORE PUSH32 0x45434453413A20696E76616C6964207369676E6174757265206C656E67746800 PUSH1 0x44 DUP3 ADD MSTORE PUSH1 0x64 SWAP1 REVERT JUMPDEST PUSH1 0x3 EQ PUSH2 0x1363 JUMPI JUMP JUMPDEST PUSH1 0x40 MLOAD PUSH3 0x461BCD PUSH1 0xE5 SHL DUP2 MSTORE PUSH1 0x20 PUSH1 0x4 DUP3 ADD MSTORE PUSH1 0x22 PUSH1 0x24 DUP3 ADD MSTORE PUSH32 0x45434453413A20696E76616C6964207369676E6174757265202773272076616C PUSH1 0x44 DUP3 ADD MSTORE PUSH2 0x7565 PUSH1 0xF0 SHL PUSH1 0x64 DUP3 ADD MSTORE PUSH1 0x84 SWAP1 REVERT JUMPDEST PUSH4 0x4E487B71 PUSH1 0xE0 SHL PUSH1 0x0 MSTORE PUSH1 0x21 PUSH1 0x4 MSTORE PUSH1 0x24 PUSH1 0x0 REVERT JUMPDEST SWAP3 SWAP2 SWAP1 PUSH32 0x7FFFFFFFFFFFFFFFFFFFFFFFFFFFFFFF5D576E7357A4501DDFE92F46681B20A0 DUP4 GT PUSH2 0x144C JUMPI SWAP2 PUSH1 0x80 SWAP5 SWAP4 SWAP2 PUSH1 0xFF PUSH1 0x20 SWAP5 PUSH1 0x40 MLOAD SWAP5 DUP6 MSTORE AND DUP5 DUP5 ADD MSTORE PUSH1 0x40 DUP4 ADD MSTORE PUSH1 0x60 DUP3 ADD MSTORE PUSH1 0x0 SWAP4 DUP5 SWAP2 DUP3 DUP1 MSTORE PUSH1 0x1 GAS STATICCALL ISZERO PUSH2 0x143F JUMPI DUP2 MLOAD PUSH1 0x1 PUSH1 0x1 PUSH1 0xA0 SHL SUB DUP2 AND ISZERO PUSH2 0x1439 JUMPI SWAP2 SWAP1 JUMP JUMPDEST POP PUSH1 0x1 SWAP1 JUMP JUMPDEST POP PUSH1 0x40 MLOAD SWAP1 RETURNDATASIZE SWAP1 DUP3 RETURNDATACOPY RETURNDATASIZE SWAP1 REVERT JUMPDEST POP POP POP POP PUSH1 0x0 SWAP1 PUSH1 0x3 SWAP1 JUMP JUMPDEST ADDRESS PUSH32 0x0 PUSH1 0x1 PUSH1 0x1 PUSH1 0xA0 SHL SUB AND EQ DUP1 PUSH2 0x155A JUMPI JUMPDEST ISZERO PUSH2 0x14B3 JUMPI PUSH32 0x0 SWAP1 JUMP JUMPDEST PUSH1 0x40 MLOAD PUSH1 0x20 DUP2 ADD SWAP1 PUSH32 0x8B73C3C69BB8FE3D512ECC4CF759CC79239F7B179B0FFACAA9A75D522B39400F DUP3 MSTORE PUSH32 0x0 PUSH1 0x40 DUP3 ADD MSTORE PUSH32 0x0 PUSH1 0x60 DUP3 ADD MSTORE CHAINID PUSH1 0x80 DUP3 ADD MSTORE ADDRESS PUSH1 0xA0 DUP3 ADD MSTORE PUSH1 0xA0 DUP2 MSTORE PUSH1 0xC0 DUP2 ADD DUP2 DUP2 LT PUSH8 0xFFFFFFFFFFFFFFFF DUP3 GT OR PUSH2 0xFE4 JUMPI PUSH1 0x40 MSTORE MLOAD SWAP1 KECCAK256 SWAP1 JUMP JUMPDEST POP PUSH32 0x0 CHAINID EQ PUSH2 0x148A JUMP JUMPDEST PUSH1 0xFF DUP2 EQ PUSH2 0x15C1 JUMPI PUSH1 0xFF DUP2 AND SWAP1 PUSH1 0x1F DUP3 GT PUSH2 0x15AF JUMPI PUSH1 0x40 MLOAD SWAP2 PUSH2 0x15A5 DUP4 PUSH2 0xFC8 JUMP JUMPDEST DUP3 MSTORE PUSH1 0x20 DUP3 ADD MSTORE SWAP1 JUMP JUMPDEST PUSH1 0x40 MLOAD PUSH4 0x2CD44AC3 PUSH1 0xE2 SHL DUP2 MSTORE PUSH1 0x4 SWAP1 REVERT JUMPDEST POP PUSH1 0x40 MLOAD PUSH1 0x5 SLOAD DUP2 PUSH1 0x0 PUSH2 0x15D4 DUP4 PUSH2 0xF8E JUMP JUMPDEST DUP1 DUP4 MSTORE SWAP3 PUSH1 0x1 SWAP1 DUP2 DUP2 AND SWAP1 DUP2 ISZERO PUSH2 0x165D JUMPI POP PUSH1 0x1 EQ PUSH2 0x15FE JUMPI JUMPDEST POP PUSH2 0x15FB SWAP3 POP SUB DUP3 PUSH2 0xFFA JUMP JUMPDEST SWAP1 JUMP JUMPDEST PUSH1 0x5 PUSH1 0x0 SWAP1 DUP2 MSTORE SWAP2 POP PUSH32 0x36B6384B5ECA791C62761152D0C79BB0604C104A5FB6F4EB0703F3154BB3DB0 JUMPDEST DUP5 DUP4 LT PUSH2 0x1642 JUMPI POP PUSH2 0x15FB SWAP4 POP POP DUP2 ADD PUSH1 0x20 ADD CODESIZE PUSH2 0x15EE JUMP JUMPDEST DUP2 SWAP4 POP SWAP1 DUP2 PUSH1 0x20 SWAP3 SLOAD DUP4 DUP6 DUP10 ADD ADD MSTORE ADD SWAP2 ADD SWAP1 SWAP2 DUP5 SWAP3 PUSH2 0x1629 JUMP JUMPDEST SWAP1 POP PUSH1 0x20 SWAP3 POP PUSH2 0x15FB SWAP5 SWAP2 POP PUSH1 0xFF NOT AND DUP3 DUP5 ADD MSTORE ISZERO ISZERO PUSH1 0x5 SHL DUP3 ADD ADD CODESIZE PUSH2 0x15EE JUMP JUMPDEST PUSH1 0xFF DUP2 EQ PUSH2 0x16A1 JUMPI PUSH1 0xFF DUP2 AND SWAP1 PUSH1 0x1F DUP3 GT PUSH2 0x15AF JUMPI PUSH1 0x40 MLOAD SWAP2 PUSH2 0x15A5 DUP4 PUSH2 0xFC8 JUMP JUMPDEST POP PUSH1 0x40 MLOAD PUSH1 0x6 SLOAD DUP2 PUSH1 0x0 PUSH2 0x16B4 DUP4 PUSH2 0xF8E JUMP JUMPDEST DUP1 DUP4 MSTORE SWAP3 PUSH1 0x1 SWAP1 DUP2 DUP2 AND SWAP1 DUP2 ISZERO PUSH2 0x165D JUMPI POP PUSH1 0x1 EQ PUSH2 0x16DA JUMPI POP PUSH2 0x15FB SWAP3 POP SUB DUP3 PUSH2 0xFFA JUMP JUMPDEST PUSH1 0x6 PUSH1 0x0 SWAP1 DUP2 MSTORE SWAP2 POP PUSH32 0xF652222313E28459528D920B65115C16C04F3EFC82AAEDC97BE59F3F377C0D3F JUMPDEST DUP5 DUP4 LT PUSH2 0x171E JUMPI POP PUSH2 0x15FB SWAP4 POP POP DUP2 ADD PUSH1 0x20 ADD CODESIZE PUSH2 0x15EE JUMP JUMPDEST DUP2 SWAP4 POP SWAP1 DUP2 PUSH1 0x20 SWAP3 SLOAD DUP4 DUP6 DUP10 ADD ADD MSTORE ADD SWAP2 ADD SWAP1 SWAP2 DUP5 SWAP3 PUSH2 0x1705 JUMP INVALID LOG2 PUSH5 0x6970667358 0x22 SLT KECCAK256 PUSH15 0xB8AE5620FF3A88207D591B59936293 0xAE EXTCODESIZE STOP PUSH12 0x52D6CC83BB3128252A89D3F7 PUSH5 0x736F6C6343 STOP ADDMOD SLT STOP CALLER "
				},
				"gasEstimates": {
					"creation": {
						"codeDepositCost": "1199800",
						"executionCost": "infinite",
						"totalCost": "infinite"
					},
					"external": {
						"DOMAIN_SEPARATOR()": "infinite",
						"allowance(address,address)": "3054",
						"approve(address,uint256)": "24384",
						"balanceOf(address)": "2648",
						"buyTokens()": "57117",
						"decimals()": "259",
						"decreaseAllowance(address,uint256)": "27020",
						"eip712Domain()": "infinite",
						"exchangeRate()": "2431",
						"increaseAllowance(address,uint256)": "26804",
						"mint(address,uint256)": "52951",
						"name()": "infinite",
						"nonces(address)": "2692",
						"owner()": "2606",
						"permit(address,address,uint256,uint256,uint8,bytes32,bytes32)": "infinite",
						"renounceOwnership()": "28323",
						"sellTokens(uint256)": "infinite",
						"setExchangeRate(uint256)": "24883",
						"symbol()": "infinite",
						"totalSupply()": "2321",
						"transfer(address,uint256)": "51161",
						"transferFrom(address,address,uint256)": "77382",
						"transferOwnership(address)": "28677",
						"withdrawEth()": "infinite"
					}
				},
				"methodIdentifiers": {
					"DOMAIN_SEPARATOR()": "3644e515",
					"allowance(address,address)": "dd62ed3e",
					"approve(address,uint256)": "095ea7b3",
					"balanceOf(address)": "70a08231",
					"buyTokens()": "d0febe4c",
					"decimals()": "313ce567",
					"decreaseAllowance(address,uint256)": "a457c2d7",
					"eip712Domain()": "84b0196e",
					"exchangeRate()": "3ba0b9a9",
					"increaseAllowance(address,uint256)": "39509351",
					"mint(address,uint256)": "40c10f19",
					"name()": "06fdde03",
					"nonces(address)": "7ecebe00",
					"owner()": "8da5cb5b",
					"permit(address,address,uint256,uint256,uint8,bytes32,bytes32)": "d505accf",
					"renounceOwnership()": "715018a6",
					"sellTokens(uint256)": "6c11bcd3",
					"setExchangeRate(uint256)": "db068e0e",
					"symbol()": "95d89b41",
					"totalSupply()": "18160ddd",
					"transfer(address,uint256)": "a9059cbb",
					"transferFrom(address,address,uint256)": "23b872dd",
					"transferOwnership(address)": "f2fde38b",
					"withdrawEth()": "a0ef91df"
				}
			},
			"storageLayout": {
				"storage": [
					{
						"astId": 153,
						"contract": "contracts/TurtleToken.sol:TurtleToken",
						"label": "_balances",
						"offset": 0,
						"slot": "0",
						"type": "t_mapping(t_address,t_uint256)"
					},
					{
						"astId": 159,
						"contract": "contracts/TurtleToken.sol:TurtleToken",
						"label": "_allowances",
						"offset": 0,
						"slot": "1",
						"type": "t_mapping(t_address,t_mapping(t_address,t_uint256))"
					},
					{
						"astId": 161,
						"contract": "contracts/TurtleToken.sol:TurtleToken",
						"label": "_totalSupply",
						"offset": 0,
						"slot": "2",
						"type": "t_uint256"
					},
					{
						"astId": 163,
						"contract": "contracts/TurtleToken.sol:TurtleToken",
						"label": "_name",
						"offset": 0,
						"slot": "3",
						"type": "t_string_storage"
					},
					{
						"astId": 165,
						"contract": "contracts/TurtleToken.sol:TurtleToken",
						"label": "_symbol",
						"offset": 0,
						"slot": "4",
						"type": "t_string_storage"
					},
					{
						"astId": 2093,
						"contract": "contracts/TurtleToken.sol:TurtleToken",
						"label": "_nameFallback",
						"offset": 0,
						"slot": "5",
						"type": "t_string_storage"
					},
					{
						"astId": 2095,
						"contract": "contracts/TurtleToken.sol:TurtleToken",
						"label": "_versionFallback",
						"offset": 0,
						"slot": "6",
						"type": "t_string_storage"
					},
					{
						"astId": 825,
						"contract": "contracts/TurtleToken.sol:TurtleToken",
						"label": "_nonces",
						"offset": 0,
						"slot": "7",
						"type": "t_mapping(t_address,t_struct(Counter)1071_storage)"
					},
					{
						"astId": 833,
						"contract": "contracts/TurtleToken.sol:TurtleToken",
						"label": "_PERMIT_TYPEHASH_DEPRECATED_SLOT",
						"offset": 0,
						"slot": "8",
						"type": "t_bytes32"
					},
					{
						"astId": 7,
						"contract": "contracts/TurtleToken.sol:TurtleToken",
						"label": "_owner",
						"offset": 0,
						"slot": "9",
						"type": "t_address"
					},
					{
						"astId": 3248,
						"contract": "contracts/TurtleToken.sol:TurtleToken",
						"label": "exchangeRate",
						"offset": 0,
						"slot": "10",
						"type": "t_uint256"
					}
				],
				"types": {
					"t_address": {
						"encoding": "inplace",
						"label": "address",
						"numberOfBytes": "20"
					},
					"t_bytes32": {
						"encoding": "inplace",
						"label": "bytes32",
						"numberOfBytes": "32"
					},
					"t_mapping(t_address,t_mapping(t_address,t_uint256))": {
						"encoding": "mapping",
						"key": "t_address",
						"label": "mapping(address => mapping(address => uint256))",
						"numberOfBytes": "32",
						"value": "t_mapping(t_address,t_uint256)"
					},
					"t_mapping(t_address,t_struct(Counter)1071_storage)": {
						"encoding": "mapping",
						"key": "t_address",
						"label": "mapping(address => struct Counters.Counter)",
						"numberOfBytes": "32",
						"value": "t_struct(Counter)1071_storage"
					},
					"t_mapping(t_address,t_uint256)": {
						"encoding": "mapping",
						"key": "t_address",
						"label": "mapping(address => uint256)",
						"numberOfBytes": "32",
						"value": "t_uint256"
					},
					"t_string_storage": {
						"encoding": "bytes",
						"label": "string",
						"numberOfBytes": "32"
					},
					"t_struct(Counter)1071_storage": {
						"encoding": "inplace",
						"label": "struct Counters.Counter",
						"members": [
							{
								"astId": 1070,
								"contract": "contracts/TurtleToken.sol:TurtleToken",
								"label": "_value",
								"offset": 0,
								"slot": "0",
								"type": "t_uint256"
							}
						],
						"numberOfBytes": "32"
					},
					"t_uint256": {
						"encoding": "inplace",
						"label": "uint256",
						"numberOfBytes": "32"
					}
				}
			},
			"userdoc": {
				"kind": "user",
				"methods": {},
				"version": 1
			}
		}
	}
}