{
	"contracts/TurtleEscrow.sol": {
		"TurtleEscrow": {
			"abi": [
				{
					"inputs": [
						{
							"internalType": "address",
							"name": "_token",
							"type": "address"
						}
					],
					"stateMutability": "nonpayable",
					"type": "constructor"
				},
				{
					"anonymous": false,
					"inputs": [
						{
							"indexed": true,
							"internalType": "address",
							"name": "previousOwner",
							"type": "address"
						},
						{
							"indexed": true,
							"internalType": "address",
							"name": "newOwner",
							"type": "address"
						}
					],
					"name": "OwnershipTransferred",
					"type": "event"
				},
				{
					"inputs": [],
					"name": "LOCK_PERIOD",
					"outputs": [
						{
							"internalType": "uint256",
							"name": "",
							"type": "uint256"
						}
					],
					"stateMutability": "view",
					"type": "function"
				},
				{
					"inputs": [],
					"name": "arbiter",
					"outputs": [
						{
							"internalType": "address",
							"name": "",
							"type": "address"
						}
					],
					"stateMutability": "view",
					"type": "function"
				},
				{
					"inputs": [
						{
							"internalType": "uint256",
							"name": "_transactionId",
							"type": "uint256"
						},
						{
							"internalType": "address",
							"name": "_seller",
							"type": "address"
						},
						{
							"internalType": "uint256",
							"name": "_amount",
							"type": "uint256"
						}
					],
					"name": "createTransaction",
					"outputs": [
						{
							"internalType": "uint256",
							"name": "",
							"type": "uint256"
						}
					],
					"stateMutability": "nonpayable",
					"type": "function"
				},
				{
					"inputs": [
						{
							"internalType": "uint256",
							"name": "_transactionId",
							"type": "uint256"
						}
					],
					"name": "getTransactionDetails",
					"outputs": [
						{
							"internalType": "address",
							"name": "",
							"type": "address"
						},
						{
							"internalType": "address",
							"name": "",
							"type": "address"
						},
						{
							"internalType": "uint256",
							"name": "",
							"type": "uint256"
						},
						{
							"internalType": "enum TurtleEscrow.State",
							"name": "",
							"type": "uint8"
						},
						{
							"internalType": "uint256",
							"name": "",
							"type": "uint256"
						},
						{
							"internalType": "uint256",
							"name": "",
							"type": "uint256"
						}
					],
					"stateMutability": "view",
					"type": "function"
				},
				{
					"inputs": [],
					"name": "owner",
					"outputs": [
						{
							"internalType": "address",
							"name": "",
							"type": "address"
						}
					],
					"stateMutability": "view",
					"type": "function"
				},
				{
					"inputs": [
						{
							"internalType": "uint256",
							"name": "_transactionId",
							"type": "uint256"
						}
					],
					"name": "refund",
					"outputs": [],
					"stateMutability": "nonpayable",
					"type": "function"
				},
				{
					"inputs": [
						{
							"internalType": "uint256",
							"name": "_transactionId",
							"type": "uint256"
						}
					],
					"name": "releaseFunds",
					"outputs": [],
					"stateMutability": "nonpayable",
					"type": "function"
				},
				{
					"inputs": [],
					"name": "renounceOwnership",
					"outputs": [],
					"stateMutability": "nonpayable",
					"type": "function"
				},
				{
					"inputs": [
						{
							"internalType": "address",
							"name": "_newArbiter",
							"type": "address"
						}
					],
					"name": "setArbiter",
					"outputs": [],
					"stateMutability": "nonpayable",
					"type": "function"
				},
				{
					"inputs": [],
					"name": "token",
					"outputs": [
						{
							"internalType": "contract IERC20",
							"name": "",
							"type": "address"
						}
					],
					"stateMutability": "view",
					"type": "function"
				},
				{
					"inputs": [
						{
							"internalType": "uint256",
							"name": "",
							"type": "uint256"
						}
					],
					"name": "transactions",
					"outputs": [
						{
							"internalType": "address",
							"name": "buyer",
							"type": "address"
						},
						{
							"internalType": "address",
							"name": "seller",
							"type": "address"
						},
						{
							"internalType": "uint256",
							"name": "amount",
							"type": "uint256"
						},
						{
							"internalType": "enum TurtleEscrow.State",
							"name": "state",
							"type": "uint8"
						},
						{
							"internalType": "uint256",
							"name": "createdAt",
							"type": "uint256"
						},
						{
							"internalType": "uint256",
							"name": "lockPeriod",
							"type": "uint256"
						}
					],
					"stateMutability": "view",
					"type": "function"
				},
				{
					"inputs": [
						{
							"internalType": "address",
							"name": "newOwner",
							"type": "address"
						}
					],
					"name": "transferOwnership",
					"outputs": [],
					"stateMutability": "nonpayable",
					"type": "function"
				},
				{
					"inputs": [
						{
							"internalType": "uint256",
							"name": "_transactionId",
							"type": "uint256"
						},
						{
							"internalType": "uint256",
							"name": "_newLockPeriod",
							"type": "uint256"
						}
					],
					"name": "updateLockPeriod",
					"outputs": [],
					"stateMutability": "nonpayable",
					"type": "function"
				}
			],
			"devdoc": {
				"author": "서규범",
				"kind": "dev",
				"methods": {
					"constructor": {
						"details": "생성자: 중재자 주소와 사용할 ERC20 토큰 주소 설정",
						"params": {
							"_token": "사용할 ERC20 토큰 주소"
						}
					},
					"createTransaction(uint256,address,uint256)": {
						"details": "새로운 거래 생성",
						"params": {
							"_amount": "거래 금액",
							"_seller": "판매자 주소"
						},
						"returns": {
							"_0": "거래 ID"
						}
					},
					"getTransactionDetails(uint256)": {
						"details": "거래 세부 정보 조회",
						"params": {
							"_transactionId": "거래 ID"
						},
						"returns": {
							"_0": "구매자 주소, 판매자 주소, 거래 금액, 거래 상태, 거래 생성 시간, 잠금 기간"
						}
					},
					"owner()": {
						"details": "Returns the address of the current owner."
					},
					"refund(uint256)": {
						"details": "환불 (구매자에게 반환)",
						"params": {
							"_transactionId": "거래 ID"
						}
					},
					"releaseFunds(uint256)": {
						"details": "자금 해제 (판매자에게 전송)",
						"params": {
							"_transactionId": "거래 ID"
						}
					},
					"renounceOwnership()": {
						"details": "Leaves the contract without owner. It will not be possible to call `onlyOwner` functions anymore. Can only be called by the current owner. NOTE: Renouncing ownership will leave the contract without an owner, thereby removing any functionality that is only available to the owner."
					},
					"setArbiter(address)": {
						"details": "중재자 주소 변경",
						"params": {
							"_newArbiter": "새로운 중재자 주소"
						}
					},
					"transferOwnership(address)": {
						"details": "Transfers ownership of the contract to a new account (`newOwner`). Can only be called by the current owner."
					},
					"updateLockPeriod(uint256,uint256)": {
						"details": "잠금 기간 업데이트",
						"params": {
							"_newLockPeriod": "새로운 잠금 기간",
							"_transactionId": "거래 ID"
						}
					}
				},
				"title": "TurtleEscrow",
				"version": 1
			},
			"evm": {
				"assembly": "    /* \"contracts/TurtleEscrow.sol\":492:7699  contract TurtleEscrow is Ownable, ReentrancyGuard {... */\n  0x80\n  jumpi(tag_7, callvalue)\n  0x1f\n  bytecodeSize\n  codesize\n  dup2\n  swap1\n  sub\n  swap2\n  dup3\n  add\n  not(0x1f)\n  and\n  dup4\n  add\n  swap2\n  sub(shl(0x40, 0x01), 0x01)\n  dup4\n  gt\n  dup5\n  dup5\n  lt\n  or\n  tag_3\n  jumpi\n  dup1\n  dup5\n  swap3\n  0x20\n  swap5\n  0x40\n  mstore\n  dup4\n  codecopy\n  dup2\n  add\n  sub\n  slt\n  tag_7\n  jumpi\n  mload\n  sub(shl(0xa0, 0x01), 0x01)\n  swap1\n  dup2\n  dup2\n  and\n  swap1\n  dup2\n  swap1\n  sub\n  tag_7\n  jumpi\n  sload(0x00)\n  swap2\n  0x01\n  dup1\n  0xa0\n  shl\n  sub\n  not\n    /* \"@openzeppelin/contracts/utils/Context.sol\":719:729  msg.sender */\n  swap3\n  caller\n    /* \"contracts/TurtleEscrow.sol\":492:7699  contract TurtleEscrow is Ownable, ReentrancyGuard {... */\n  dup5\n  dup3\n  and\n  or\n  0x00\n  sstore\n  mload(0x40)\n    /* \"@openzeppelin/contracts/utils/Context.sol\":719:729  msg.sender */\n  swap2\n  caller\n    /* \"contracts/TurtleEscrow.sol\":492:7699  contract TurtleEscrow is Ownable, ReentrancyGuard {... */\n  swap2\n  and\n    /* \"@openzeppelin/contracts/access/Ownable.sol\":2573:2613  OwnershipTransferred(oldOwner, newOwner) */\n  0x8be0079c531659141344cd1fd0a4f28419497f9722a3daafe3b4186f6b6457e0\n  0x00\n  dup1\n  log3\n    /* \"contracts/TurtleEscrow.sol\":492:7699  contract TurtleEscrow is Ownable, ReentrancyGuard {... */\n  0x01\n    /* \"@openzeppelin/contracts/security/ReentrancyGuard.sol\":1716:1717  1 */\n  dup1\n  sstore\n    /* \"contracts/TurtleEscrow.sol\":2420:2440  _token != address(0) */\n  dup2\n  iszero\n    /* \"contracts/TurtleEscrow.sol\":492:7699  contract TurtleEscrow is Ownable, ReentrancyGuard {... */\n  tag_9\n  jumpi\n  pop\n  dup2\n    /* \"contracts/TurtleEscrow.sol\":2471:2493  token = IERC20(_token) */\n  0x04\n    /* \"contracts/TurtleEscrow.sol\":492:7699  contract TurtleEscrow is Ownable, ReentrancyGuard {... */\n  sload\n  and\n  or\n    /* \"contracts/TurtleEscrow.sol\":2471:2493  token = IERC20(_token) */\n  0x04\n    /* \"contracts/TurtleEscrow.sol\":492:7699  contract TurtleEscrow is Ownable, ReentrancyGuard {... */\n  sstore\n    /* \"@openzeppelin/contracts/utils/Context.sol\":719:729  msg.sender */\n  caller\n    /* \"contracts/TurtleEscrow.sol\":492:7699  contract TurtleEscrow is Ownable, ReentrancyGuard {... */\n  swap1\n    /* \"contracts/TurtleEscrow.sol\":2504:2524  arbiter = msg.sender */\n  0x03\n    /* \"contracts/TurtleEscrow.sol\":492:7699  contract TurtleEscrow is Ownable, ReentrancyGuard {... */\n  sload\n  and\n  or\n    /* \"contracts/TurtleEscrow.sol\":2504:2524  arbiter = msg.sender */\n  0x03\n    /* \"contracts/TurtleEscrow.sol\":492:7699  contract TurtleEscrow is Ownable, ReentrancyGuard {... */\n  sstore\n  mload(0x40)\n  dataSize(sub_0)\n  swap1\n  dup2\n  dataOffset(sub_0)\n  dup3\n  codecopy\n  return\ntag_9:\n  shl(0xe5, 0x461bcd)\n  dup2\n  mstore\n  0x20\n  0x04\n  dup3\n  add\n  mstore\n  0x0f\n  0x24\n  dup3\n  add\n  mstore\n  shl(0x88, 0x496e76616c69642061646472657373)\n  0x44\n  dup3\n  add\n  mstore\n  0x64\n  swap1\n  revert\ntag_7:\n  0x00\n  dup1\n  revert\ntag_3:\n  mstore(0x00, shl(0xe0, 0x4e487b71))\n  mstore(0x04, 0x41)\n  revert(0x00, 0x24)\nstop\n\nsub_0: assembly {\n        /* \"contracts/TurtleEscrow.sol\":492:7699  contract TurtleEscrow is Ownable, ReentrancyGuard {... */\n      0x80\n      0x40\n      dup2\n      dup2\n      mstore\n      0x04\n      swap2\n      dup3\n      calldatasize\n      lt\n      iszero\n      tag_11\n      jumpi\n      0x00\n      dup1\n      revert\n    tag_11:\n      0x00\n      swap3\n      dup4\n      calldataload\n      0xe0\n      shr\n      swap2\n      dup3\n      0x0fa683d3\n      eq\n      tag_13\n      jumpi\n      pop\n      dup2\n      0x1820cabb\n      eq\n      tag_15\n      jumpi\n      dup2\n      0x1c9c088a\n      eq\n      tag_17\n      jumpi\n      dup2\n      0x278ecde1\n      eq\n      tag_19\n      jumpi\n      dup2\n      0x4d68282f\n      eq\n      tag_21\n      jumpi\n      dup2\n      0x715018a6\n      eq\n      tag_23\n      jumpi\n      dup2\n      0x8da5cb5b\n      eq\n      tag_25\n      jumpi\n      dup2\n      0x9ace38c2\n      eq\n      tag_27\n      jumpi\n      dup2\n      0xc0c473b0\n      eq\n      tag_29\n      jumpi\n      dup2\n      0xd73a84e9\n      eq\n      tag_31\n      jumpi\n      dup2\n      0xf2fde38b\n      eq\n      tag_33\n      jumpi\n      dup2\n      0xfc0c546a\n      eq\n      tag_35\n      jumpi\n      pop\n      0xfe25e00a\n      eq\n      tag_37\n      jumpi\n      0x00\n      dup1\n      revert\n    tag_37:\n      jumpi(tag_41, callvalue)\n      dup2\n      add(calldatasize, not(0x03))\n      slt\n      tag_41\n      jumpi\n      sload(0x03)\n      swap1\n      mload\n      sub(shl(0xa0, 0x01), 0x01)\n      swap1\n      swap2\n      and\n      dup2\n      mstore\n      0x20\n      swap1\n      return\n    tag_41:\n      pop\n      dup1\n      revert\n    tag_35:\n      swap1\n      pop\n      jumpi(tag_45, callvalue)\n      dup3\n      add(calldatasize, not(0x03))\n      slt\n      tag_45\n      jumpi\n      sload\n      swap1\n      mload\n      sub(shl(0xa0, 0x01), 0x01)\n      swap1\n      swap2\n      and\n      dup2\n      mstore\n      0x20\n      swap2\n      pop\n      return\n    tag_45:\n      dup3\n      dup1\n      revert\n    tag_33:\n      swap1\n      pop\n      jumpi(tag_45, callvalue)\n      jumpi(tag_45, slt(add(not(0x03), calldatasize), 0x20))\n      tag_51\n      tag_2\n      jump\t// in\n    tag_51:\n        /* \"@openzeppelin/contracts/access/Ownable.sol\":1063:1125  modifier onlyOwner() {... */\n      swap1\n      tag_52\n      tag_3\n      jump\t// in\n    tag_52:\n      sub(shl(0xa0, 0x01), 0x01)\n        /* \"contracts/TurtleEscrow.sol\":492:7699  contract TurtleEscrow is Ownable, ReentrancyGuard {... */\n      swap2\n      dup3\n      and\n      swap3\n        /* \"@openzeppelin/contracts/access/Ownable.sol\":2169:2191  newOwner != address(0) */\n      dup4\n      iszero\n        /* \"contracts/TurtleEscrow.sol\":492:7699  contract TurtleEscrow is Ownable, ReentrancyGuard {... */\n      tag_53\n      jumpi\n      pop\n      pop\n      dup3\n      sload\n      not(sub(shl(0xa0, 0x01), 0x01))\n      dup2\n      and\n      dup4\n      or\n      dup5\n      sstore\n      and\n        /* \"@openzeppelin/contracts/access/Ownable.sol\":2573:2613  OwnershipTransferred(oldOwner, newOwner) */\n      0x8be0079c531659141344cd1fd0a4f28419497f9722a3daafe3b4186f6b6457e0\n        /* \"contracts/TurtleEscrow.sol\":492:7699  contract TurtleEscrow is Ownable, ReentrancyGuard {... */\n      dup4\n      dup1\n        /* \"@openzeppelin/contracts/access/Ownable.sol\":2573:2613  OwnershipTransferred(oldOwner, newOwner) */\n      log3\n        /* \"contracts/TurtleEscrow.sol\":492:7699  contract TurtleEscrow is Ownable, ReentrancyGuard {... */\n      dup1\n      return\n    tag_53:\n      swap1\n      0x20\n      0x84\n      swap3\n      mload\n      swap2\n      shl(0xe5, 0x461bcd)\n      dup4\n      mstore\n      dup3\n      add\n      mstore\n      0x26\n      0x24\n      dup3\n      add\n      mstore\n      0x4f776e61626c653a206e6577206f776e657220697320746865207a65726f2061\n      0x44\n      dup3\n      add\n      mstore\n      shl(0xd0, 0x646472657373)\n      0x64\n      dup3\n      add\n      mstore\n      revert\n    tag_31:\n      swap1\n      pop\n      jumpi(tag_45, callvalue)\n      dup2\n      add(calldatasize, not(0x03))\n      slt\n      tag_45\n      jumpi\n      dup1\n      calldataload\n      dup4\n      mstore\n        /* \"contracts/TurtleEscrow.sol\":7530:7542  transactions */\n      0x02\n        /* \"contracts/TurtleEscrow.sol\":492:7699  contract TurtleEscrow is Ownable, ReentrancyGuard {... */\n      0x20\n      mstore\n      dup2\n      dup4\n      keccak256\n      sload(0x03)\n      swap1\n      swap3\n      swap1\n      sub(shl(0xa0, 0x01), 0x01)\n      and\n        /* \"contracts/TurtleEscrow.sol\":7577:7587  msg.sender */\n      caller\n        /* \"contracts/TurtleEscrow.sol\":7577:7598  msg.sender == arbiter */\n      sub\n        /* \"contracts/TurtleEscrow.sol\":492:7699  contract TurtleEscrow is Ownable, ReentrancyGuard {... */\n      tag_59\n      jumpi\n      pop\n      pop\n        /* \"contracts/TurtleEscrow.sol\":7649:7671  transaction.lockPeriod */\n      0x05\n        /* \"contracts/TurtleEscrow.sol\":492:7699  contract TurtleEscrow is Ownable, ReentrancyGuard {... */\n      calldataload(0x24)\n        /* \"contracts/TurtleEscrow.sol\":7649:7671  transaction.lockPeriod */\n      swap2\n      add\n        /* \"contracts/TurtleEscrow.sol\":492:7699  contract TurtleEscrow is Ownable, ReentrancyGuard {... */\n      sstore\n      dup1\n      return\n    tag_59:\n      swap1\n      0x20\n      0x84\n      swap3\n      mload\n      swap2\n      shl(0xe5, 0x461bcd)\n      dup4\n      mstore\n      dup3\n      add\n      mstore\n      0x23\n      0x24\n      dup3\n      add\n      mstore\n      0x4f6e6c7920617262697465722063616e20757064617465206c6f636b20706572\n      0x44\n      dup3\n      add\n      mstore\n      shl(0xea, 0x1a5bd9)\n      0x64\n      dup3\n      add\n      mstore\n      revert\n    tag_29:\n      dup4\n      dup4\n      jumpi(tag_41, callvalue)\n      jumpi(tag_41, slt(add(not(0x03), calldatasize), 0x60))\n      sub(shl(0xa0, 0x01), 0x01)\n      swap3\n      dup1\n      calldataload\n      swap3\n      0x24\n      swap2\n      dup3\n      calldataload\n      dup7\n      dup2\n      and\n      swap3\n      swap2\n      swap1\n      dup4\n      swap1\n      sub\n      tag_41\n      jumpi\n      calldataload(0x44)\n        /* \"@openzeppelin/contracts/security/ReentrancyGuard.sol\":2227:2330  modifier nonReentrant() {... */\n      swap7\n      tag_67\n      tag_7\n      jump\t// in\n    tag_67:\n        /* \"contracts/TurtleEscrow.sol\":3093:3114  _seller != address(0) */\n      dup4\n      iszero\n        /* \"contracts/TurtleEscrow.sol\":492:7699  contract TurtleEscrow is Ownable, ReentrancyGuard {... */\n      tag_68\n      jumpi\n        /* \"contracts/TurtleEscrow.sol\":3160:3171  _amount > 0 */\n      dup8\n      iszero\n        /* \"contracts/TurtleEscrow.sol\":492:7699  contract TurtleEscrow is Ownable, ReentrancyGuard {... */\n      tag_70\n      jumpi\n      dup6\n      mload\n      swap8\n      0xc0\n      dup10\n      add\n      dup10\n      dup2\n      lt\n      0xffffffffffffffff\n      dup3\n      gt\n      or\n      tag_72\n      jumpi\n      dup8\n      mstore\n        /* \"contracts/TurtleEscrow.sol\":3408:3418  msg.sender */\n      caller\n        /* \"contracts/TurtleEscrow.sol\":492:7699  contract TurtleEscrow is Ownable, ReentrancyGuard {... */\n      dup10\n      mstore\n      0x20\n        /* \"contracts/TurtleEscrow.sol\":3388:3529  Transaction({buyer: msg.sender, seller: _seller, amount: _amount, state: State.Created, createdAt: block.timestamp, lockPeriod: LOCK_PERIOD}) */\n      swap9\n      dup10\n      dup2\n      add\n        /* \"contracts/TurtleEscrow.sol\":492:7699  contract TurtleEscrow is Ownable, ReentrancyGuard {... */\n      swap6\n      dup7\n      mstore\n        /* \"contracts/TurtleEscrow.sol\":3388:3529  Transaction({buyer: msg.sender, seller: _seller, amount: _amount, state: State.Created, createdAt: block.timestamp, lockPeriod: LOCK_PERIOD}) */\n      dup9\n      dup11\n      dup10\n      dup4\n      add\n        /* \"contracts/TurtleEscrow.sol\":492:7699  contract TurtleEscrow is Ownable, ReentrancyGuard {... */\n      dup5\n      dup2\n      mstore\n      0x60\n        /* \"contracts/TurtleEscrow.sol\":3388:3529  Transaction({buyer: msg.sender, seller: _seller, amount: _amount, state: State.Created, createdAt: block.timestamp, lockPeriod: LOCK_PERIOD}) */\n      dup5\n      add\n        /* \"contracts/TurtleEscrow.sol\":492:7699  contract TurtleEscrow is Ownable, ReentrancyGuard {... */\n      swap9\n      dup9\n      dup11\n      mstore\n        /* \"contracts/TurtleEscrow.sol\":3357:3369  transactions */\n      0x02\n        /* \"contracts/TurtleEscrow.sol\":3388:3529  Transaction({buyer: msg.sender, seller: _seller, amount: _amount, state: State.Created, createdAt: block.timestamp, lockPeriod: LOCK_PERIOD}) */\n      0x80\n      dup7\n      add\n        /* \"contracts/TurtleEscrow.sol\":3487:3502  block.timestamp */\n      swap4\n      timestamp\n        /* \"contracts/TurtleEscrow.sol\":492:7699  contract TurtleEscrow is Ownable, ReentrancyGuard {... */\n      dup6\n      mstore\n      0xa0\n        /* \"contracts/TurtleEscrow.sol\":3388:3529  Transaction({buyer: msg.sender, seller: _seller, amount: _amount, state: State.Created, createdAt: block.timestamp, lockPeriod: LOCK_PERIOD}) */\n      dup8\n      add\n        /* \"contracts/TurtleEscrow.sol\":492:7699  contract TurtleEscrow is Ownable, ReentrancyGuard {... */\n      swap6\n        /* \"contracts/TurtleEscrow.sol\":1784:1790  7 days */\n      0x093a80\n        /* \"contracts/TurtleEscrow.sol\":492:7699  contract TurtleEscrow is Ownable, ReentrancyGuard {... */\n      dup8\n      mstore\n      dup12\n      mstore\n      mstore\n      dup7\n      dup13\n      dup11\n      keccak256\n      swap6\n      mload\n      and\n      shl(0xa0, 0xffffffffffffffffffffffff)\n      swap1\n      dup2\n      dup8\n      sload\n      and\n      or\n      dup7\n      sstore\n      dup8\n      0x01\n      dup8\n      add\n      swap3\n      mload\n      and\n      swap1\n      dup3\n      sload\n      and\n      or\n      swap1\n      sstore\n      mload\n        /* \"contracts/TurtleEscrow.sol\":3357:3369  transactions */\n      0x02\n        /* \"contracts/TurtleEscrow.sol\":492:7699  contract TurtleEscrow is Ownable, ReentrancyGuard {... */\n      dup5\n      add\n      sstore\n      0x03\n      dup4\n      add\n      swap8\n      mload\n      swap8\n      dup7\n      dup10\n      lt\n      iszero\n      tag_74\n      jumpi\n      dup1\n      sload\n      0xff\n      swap10\n      swap1\n      swap10\n      and\n      not(0xff)\n      swap10\n      dup11\n      and\n      or\n      swap1\n      sstore\n      mload\n      dup6\n      dup4\n      add\n      sstore\n      mload\n      0x05\n      swap1\n      swap2\n      add\n      sstore\n      dup3\n      sload\n      dup8\n      mload\n      shl(0xe0, 0x23b872dd)\n        /* \"contracts/TurtleEscrow.sol\":3575:3629  token.transferFrom(msg.sender, address(this), _amount) */\n      dup2\n      mstore\n        /* \"contracts/TurtleEscrow.sol\":3408:3418  msg.sender */\n      caller\n        /* \"contracts/TurtleEscrow.sol\":3575:3629  token.transferFrom(msg.sender, address(this), _amount) */\n      dup2\n      dup7\n      add\n        /* \"contracts/TurtleEscrow.sol\":492:7699  contract TurtleEscrow is Ownable, ReentrancyGuard {... */\n      mstore\n        /* \"contracts/TurtleEscrow.sol\":3614:3618  this */\n      address\n        /* \"contracts/TurtleEscrow.sol\":492:7699  contract TurtleEscrow is Ownable, ReentrancyGuard {... */\n      dup9\n      dup3\n      add\n      mstore\n      0x44\n      dup2\n      add\n      swap3\n      swap1\n      swap3\n      mstore\n      dup10\n      swap1\n      dup3\n      swap1\n      0x64\n      swap1\n      dup3\n      swap1\n      dup9\n      swap1\n      dup8\n      and\n        /* \"contracts/TurtleEscrow.sol\":3575:3629  token.transferFrom(msg.sender, address(this), _amount) */\n      gas\n      call\n      swap1\n      dup2\n      iszero\n      tag_76\n      jumpi\n      swap1\n        /* \"contracts/TurtleEscrow.sol\":3567:3655  require(token.transferFrom(msg.sender, address(this), _amount), \"Token transfer failed\") */\n      tag_78\n        /* \"contracts/TurtleEscrow.sol\":3575:3629  token.transferFrom(msg.sender, address(this), _amount) */\n      swap2\n      dup6\n      swap2\n      tag_79\n      jumpi\n        /* \"contracts/TurtleEscrow.sol\":492:7699  contract TurtleEscrow is Ownable, ReentrancyGuard {... */\n    tag_80:\n        /* \"contracts/TurtleEscrow.sol\":3567:3655  require(token.transferFrom(msg.sender, address(this), _amount), \"Token transfer failed\") */\n      pop\n      tag_6\n      jump\t// in\n    tag_78:\n        /* \"@openzeppelin/contracts/security/ReentrancyGuard.sol\":2227:2330  modifier nonReentrant() {... */\n      tag_81\n      tag_7\n      jump\t// in\n    tag_81:\n        /* \"contracts/TurtleEscrow.sol\":492:7699  contract TurtleEscrow is Ownable, ReentrancyGuard {... */\n      dup7\n      dup4\n      mstore\n        /* \"contracts/TurtleEscrow.sol\":3357:3369  transactions */\n      0x02\n        /* \"contracts/TurtleEscrow.sol\":492:7699  contract TurtleEscrow is Ownable, ReentrancyGuard {... */\n      dup9\n      mstore\n      dup6\n      dup4\n      keccak256\n      swap1\n      dup2\n      sload\n      and\n        /* \"contracts/TurtleEscrow.sol\":3408:3418  msg.sender */\n      caller\n        /* \"contracts/TurtleEscrow.sol\":4268:4299  msg.sender == transaction.buyer */\n      sub\n        /* \"contracts/TurtleEscrow.sol\":492:7699  contract TurtleEscrow is Ownable, ReentrancyGuard {... */\n      tag_82\n      jumpi\n      0x03\n        /* \"contracts/TurtleEscrow.sol\":4348:4365  transaction.state */\n      add\n        /* \"contracts/TurtleEscrow.sol\":492:7699  contract TurtleEscrow is Ownable, ReentrancyGuard {... */\n      swap4\n      dup5\n      sload\n      swap3\n      0xff\n      dup5\n      and\n      swap3\n      dup1\n      dup5\n      lt\n      iszero\n      tag_84\n      jumpi\n        /* \"contracts/TurtleEscrow.sol\":4348:4382  transaction.state == State.Created */\n      pop\n      pop\n      pop\n      swap1\n        /* \"contracts/TurtleEscrow.sol\":4340:4400  require(transaction.state == State.Created, \"Invalid state\") */\n      tag_86\n        /* \"contracts/TurtleEscrow.sol\":492:7699  contract TurtleEscrow is Ownable, ReentrancyGuard {... */\n      0x01\n        /* \"contracts/TurtleEscrow.sol\":4348:4382  transaction.state == State.Created */\n      swap4\n      swap3\n      iszero\n        /* \"contracts/TurtleEscrow.sol\":4340:4400  require(transaction.state == State.Created, \"Invalid state\") */\n      tag_8\n      jump\t// in\n    tag_86:\n        /* \"contracts/TurtleEscrow.sol\":492:7699  contract TurtleEscrow is Ownable, ReentrancyGuard {... */\n      and\n      or\n      swap1\n      sstore\n      0x01\n      dup1\n      sstore\n      mload\n      swap1\n      dup2\n      mstore\n      return\n    tag_84:\n      shl(0xe0, 0x4e487b71)\n      dup3\n      mstore\n      0x21\n      swap1\n      mstore\n      revert\n    tag_82:\n      dup6\n      mload\n      shl(0xe5, 0x461bcd)\n      dup2\n      mstore\n      dup1\n      dup4\n      add\n      dup10\n      swap1\n      mstore\n      0x19\n      dup2\n      dup8\n      add\n      mstore\n      0x4f6e6c792062757965722063616e206c6f636b2066756e647300000000000000\n      0x44\n      dup3\n      add\n      mstore\n      0x64\n      swap1\n      revert\n        /* \"contracts/TurtleEscrow.sol\":3575:3629  token.transferFrom(msg.sender, address(this), _amount) */\n    tag_79:\n      tag_87\n      swap2\n      pop\n      dup11\n      returndatasize\n      dup13\n      gt\n      tag_88\n      jumpi\n    tag_89:\n      tag_90\n      dup2\n      dup4\n      tag_4\n      jump\t// in\n    tag_90:\n      dup2\n      add\n      swap1\n      tag_5\n      jump\t// in\n    tag_87:\n      dup11\n      jump(tag_80)\n    tag_88:\n      pop\n      returndatasize\n      jump(tag_89)\n    tag_76:\n        /* \"contracts/TurtleEscrow.sol\":492:7699  contract TurtleEscrow is Ownable, ReentrancyGuard {... */\n      dup8\n      mload\n      returndatasize\n      dup7\n      dup3\n      returndatacopy\n      returndatasize\n      swap1\n      revert\n    tag_74:\n      shl(0xe0, 0x4e487b71)\n      dup9\n      mstore\n      0x21\n      dup8\n      mstore\n      dup10\n      dup9\n      revert\n    tag_72:\n      shl(0xe0, 0x4e487b71)\n      dup6\n      mstore\n      0x41\n      dup5\n      mstore\n      dup7\n      dup6\n      revert\n    tag_70:\n      dup6\n      mload\n      shl(0xe5, 0x461bcd)\n      dup2\n      mstore\n      0x20\n      dup2\n      dup5\n      add\n      mstore\n      0x2d\n      dup2\n      dup8\n      add\n      mstore\n      0x496e76616c696420616d6f756e742120416d6f756e74206d7573742062652067\n      0x44\n      dup3\n      add\n      mstore\n      shl(0x9c, 0x0726561746572207468616e203)\n      0x64\n      dup3\n      add\n      mstore\n      0x84\n      swap1\n      revert\n    tag_68:\n      dup6\n      mload\n      shl(0xe5, 0x461bcd)\n      dup2\n      mstore\n      0x20\n      dup2\n      dup5\n      add\n      mstore\n      0x16\n      dup2\n      dup8\n      add\n      mstore\n      shl(0x50, 0x496e76616c69642073656c6c65722061646472657373)\n      0x44\n      dup3\n      add\n      mstore\n      0x64\n      swap1\n      revert\n    tag_27:\n      dup3\n      dup5\n      jumpi(tag_93, callvalue)\n      jumpi(tag_93, slt(add(not(0x03), calldatasize), 0x20))\n      dup2\n      tag_95\n      swap2\n      dup5\n      calldataload\n      dup2\n      mstore\n        /* \"contracts/TurtleEscrow.sol\":1593:1644  mapping(uint256 => Transaction) public transactions */\n      0x02\n        /* \"contracts/TurtleEscrow.sol\":492:7699  contract TurtleEscrow is Ownable, ReentrancyGuard {... */\n      0x20\n      mstore\n      keccak256\n      swap2\n      0x01\n      dup1\n      0xa0\n      shl\n      sub\n      swap3\n      dup4\n      dup2\n      sload\n      and\n        /* \"contracts/TurtleEscrow.sol\":1593:1644  mapping(uint256 => Transaction) public transactions */\n      swap4\n        /* \"contracts/TurtleEscrow.sol\":492:7699  contract TurtleEscrow is Ownable, ReentrancyGuard {... */\n      0x01\n        /* \"contracts/TurtleEscrow.sol\":1593:1644  mapping(uint256 => Transaction) public transactions */\n      dup3\n      add\n        /* \"contracts/TurtleEscrow.sol\":492:7699  contract TurtleEscrow is Ownable, ReentrancyGuard {... */\n      sload\n      and\n        /* \"contracts/TurtleEscrow.sol\":1593:1644  mapping(uint256 => Transaction) public transactions */\n      swap5\n      0x02\n      dup3\n      add\n        /* \"contracts/TurtleEscrow.sol\":492:7699  contract TurtleEscrow is Ownable, ReentrancyGuard {... */\n      sload\n        /* \"contracts/TurtleEscrow.sol\":1593:1644  mapping(uint256 => Transaction) public transactions */\n      0x05\n        /* \"contracts/TurtleEscrow.sol\":492:7699  contract TurtleEscrow is Ownable, ReentrancyGuard {... */\n      0xff\n      0x03\n        /* \"contracts/TurtleEscrow.sol\":1593:1644  mapping(uint256 => Transaction) public transactions */\n      dup6\n      add\n        /* \"contracts/TurtleEscrow.sol\":492:7699  contract TurtleEscrow is Ownable, ReentrancyGuard {... */\n      sload\n      and\n        /* \"contracts/TurtleEscrow.sol\":1593:1644  mapping(uint256 => Transaction) public transactions */\n      swap3\n      dup5\n      add\n        /* \"contracts/TurtleEscrow.sol\":492:7699  contract TurtleEscrow is Ownable, ReentrancyGuard {... */\n      sload\n        /* \"contracts/TurtleEscrow.sol\":1593:1644  mapping(uint256 => Transaction) public transactions */\n      swap4\n      add\n        /* \"contracts/TurtleEscrow.sol\":492:7699  contract TurtleEscrow is Ownable, ReentrancyGuard {... */\n      sload\n      swap4\n      mload\n      swap7\n      dup8\n      swap7\n      dup8\n      tag_1\n      jump\t// in\n    tag_95:\n      sub\n      swap1\n      return\n    tag_93:\n      dup1\n      revert\n    tag_25:\n      pop\n      pop\n      jumpi(tag_41, callvalue)\n      dup2\n      add(calldatasize, not(0x03))\n      slt\n      tag_41\n      jumpi\n      swap1\n      sload\n      swap1\n      mload\n      sub(shl(0xa0, 0x01), 0x01)\n      swap1\n      swap2\n      and\n      dup2\n      mstore\n      0x20\n      swap1\n      return\n    tag_23:\n      dup4\n      jumpi(tag_93, callvalue)\n      dup1\n      add(calldatasize, not(0x03))\n      slt\n      tag_93\n      jumpi\n        /* \"@openzeppelin/contracts/access/Ownable.sol\":1063:1125  modifier onlyOwner() {... */\n      tag_104\n      tag_3\n      jump\t// in\n    tag_104:\n        /* \"contracts/TurtleEscrow.sol\":492:7699  contract TurtleEscrow is Ownable, ReentrancyGuard {... */\n      dup1\n      sload\n      not(sub(shl(0xa0, 0x01), 0x01))\n      dup2\n      and\n      dup3\n      sstore\n      dup2\n      swap1\n      sub(shl(0xa0, 0x01), 0x01)\n      and\n        /* \"@openzeppelin/contracts/access/Ownable.sol\":2573:2613  OwnershipTransferred(oldOwner, newOwner) */\n      0x8be0079c531659141344cd1fd0a4f28419497f9722a3daafe3b4186f6b6457e0\n        /* \"contracts/TurtleEscrow.sol\":492:7699  contract TurtleEscrow is Ownable, ReentrancyGuard {... */\n      dup3\n      dup1\n        /* \"@openzeppelin/contracts/access/Ownable.sol\":2573:2613  OwnershipTransferred(oldOwner, newOwner) */\n      log3\n        /* \"contracts/TurtleEscrow.sol\":492:7699  contract TurtleEscrow is Ownable, ReentrancyGuard {... */\n      dup1\n      return\n    tag_21:\n      swap1\n      pop\n      jumpi(tag_45, callvalue)\n      jumpi(tag_45, slt(add(not(0x03), calldatasize), 0x20))\n        /* \"@openzeppelin/contracts/security/ReentrancyGuard.sol\":2227:2330  modifier nonReentrant() {... */\n      tag_109\n      tag_7\n      jump\t// in\n    tag_109:\n        /* \"contracts/TurtleEscrow.sol\":492:7699  contract TurtleEscrow is Ownable, ReentrancyGuard {... */\n      dup1\n      calldataload\n      dup4\n      mstore\n        /* \"contracts/TurtleEscrow.sol\":4946:4958  transactions */\n      0x02\n        /* \"contracts/TurtleEscrow.sol\":492:7699  contract TurtleEscrow is Ownable, ReentrancyGuard {... */\n      0x20\n      mstore\n      dup2\n      dup4\n      keccak256\n      dup1\n      sload\n      sub(shl(0xa0, 0x01), 0x01)\n      swap2\n      swap1\n      dup3\n      and\n        /* \"contracts/TurtleEscrow.sol\":4993:5003  msg.sender */\n      caller\n        /* \"contracts/TurtleEscrow.sol\":4993:5024  msg.sender == transaction.buyer */\n      eq\n        /* \"contracts/TurtleEscrow.sol\":4993:5049  msg.sender == transaction.buyer || msg.sender == arbiter */\n      dup1\n      iszero\n      tag_110\n      jumpi\n        /* \"contracts/TurtleEscrow.sol\":492:7699  contract TurtleEscrow is Ownable, ReentrancyGuard {... */\n    tag_111:\n        /* \"contracts/TurtleEscrow.sol\":4985:5066  require(msg.sender == transaction.buyer || msg.sender == arbiter, \"Unauthorized\") */\n      tag_112\n      swap1\n      tag_9\n      jump\t// in\n    tag_112:\n        /* \"contracts/TurtleEscrow.sol\":492:7699  contract TurtleEscrow is Ownable, ReentrancyGuard {... */\n      0x03\n        /* \"contracts/TurtleEscrow.sol\":5085:5102  transaction.state */\n      dup2\n      add\n        /* \"contracts/TurtleEscrow.sol\":492:7699  contract TurtleEscrow is Ownable, ReentrancyGuard {... */\n      dup1\n      sload\n      0xff\n      dup2\n      and\n      dup6\n      dup2\n      lt\n      iszero\n      tag_113\n      jumpi\n        /* \"contracts/TurtleEscrow.sol\":5085:5118  transaction.state == State.Locked */\n      swap2\n        /* \"contracts/TurtleEscrow.sol\":4946:4958  transactions */\n      0x02\n        /* \"contracts/TurtleEscrow.sol\":5256:5310  token.transfer(transaction.seller, transaction.amount) */\n      tag_115\n        /* \"contracts/TurtleEscrow.sol\":5085:5118  transaction.state == State.Locked */\n      swap7\n      swap5\n      swap3\n        /* \"contracts/TurtleEscrow.sol\":5077:5136  require(transaction.state == State.Locked, \"Invalid state\") */\n      tag_116\n        /* \"contracts/TurtleEscrow.sol\":492:7699  contract TurtleEscrow is Ownable, ReentrancyGuard {... */\n      0x01\n      0x20\n        /* \"contracts/TurtleEscrow.sol\":5085:5118  transaction.state == State.Locked */\n      swap9\n      swap7\n      eq\n        /* \"contracts/TurtleEscrow.sol\":5077:5136  require(transaction.state == State.Locked, \"Invalid state\") */\n      tag_8\n      jump\t// in\n    tag_116:\n        /* \"contracts/TurtleEscrow.sol\":492:7699  contract TurtleEscrow is Ownable, ReentrancyGuard {... */\n      not(0xff)\n      and\n      or\n      swap1\n      sstore\n      dup7\n        /* \"contracts/TurtleEscrow.sol\":4946:4958  transactions */\n      0x02\n        /* \"contracts/TurtleEscrow.sol\":492:7699  contract TurtleEscrow is Ownable, ReentrancyGuard {... */\n      dup4\n      dup6\n      sload\n      and\n        /* \"contracts/TurtleEscrow.sol\":5271:5289  transaction.seller */\n      swap4\n        /* \"contracts/TurtleEscrow.sol\":492:7699  contract TurtleEscrow is Ownable, ReentrancyGuard {... */\n      0x01\n        /* \"contracts/TurtleEscrow.sol\":5271:5289  transaction.seller */\n      dup5\n      add\n        /* \"contracts/TurtleEscrow.sol\":492:7699  contract TurtleEscrow is Ownable, ReentrancyGuard {... */\n      sload\n      and\n        /* \"contracts/TurtleEscrow.sol\":5291:5309  transaction.amount */\n      swap3\n      add\n        /* \"contracts/TurtleEscrow.sol\":492:7699  contract TurtleEscrow is Ownable, ReentrancyGuard {... */\n      sload\n      swap4\n      dup8\n      mload\n      swap7\n      dup8\n      swap6\n      dup7\n      swap5\n      dup6\n      swap4\n      shl(0xe0, 0xa9059cbb)\n        /* \"contracts/TurtleEscrow.sol\":5256:5310  token.transfer(transaction.seller, transaction.amount) */\n      dup6\n      mstore\n      dup5\n      add\n        /* \"contracts/TurtleEscrow.sol\":492:7699  contract TurtleEscrow is Ownable, ReentrancyGuard {... */\n      0x20\n      swap1\n      swap4\n      swap3\n      swap2\n      swap4\n      0x40\n      dup2\n      add\n      swap5\n      0x01\n      dup1\n      0xa0\n      shl\n      sub\n      and\n      dup2\n      mstore\n      add\n      mstore\n      jump\n        /* \"contracts/TurtleEscrow.sol\":5256:5310  token.transfer(transaction.seller, transaction.amount) */\n    tag_115:\n      sub\n      swap3\n      gas\n      call\n      swap1\n      dup2\n      iszero\n      tag_117\n      jumpi\n        /* \"contracts/TurtleEscrow.sol\":5321:5362  require(success, \"Token transfer failed\") */\n      tag_119\n        /* \"contracts/TurtleEscrow.sol\":5256:5310  token.transfer(transaction.seller, transaction.amount) */\n      swap3\n      pop\n      dup4\n      swap2\n      tag_120\n      jumpi\n        /* \"contracts/TurtleEscrow.sol\":5321:5362  require(success, \"Token transfer failed\") */\n      pop\n      tag_6\n      jump\t// in\n    tag_119:\n        /* \"contracts/TurtleEscrow.sol\":492:7699  contract TurtleEscrow is Ownable, ReentrancyGuard {... */\n      0x01\n      dup1\n      sstore\n      dup1\n      return\n        /* \"contracts/TurtleEscrow.sol\":5256:5310  token.transfer(transaction.seller, transaction.amount) */\n    tag_120:\n      tag_122\n      swap2\n      pop\n        /* \"contracts/TurtleEscrow.sol\":492:7699  contract TurtleEscrow is Ownable, ReentrancyGuard {... */\n      0x20\n        /* \"contracts/TurtleEscrow.sol\":5256:5310  token.transfer(transaction.seller, transaction.amount) */\n      returndatasize\n      dup2\n      gt\n      tag_88\n      jumpi\n      tag_90\n      dup2\n      dup4\n      tag_4\n      jump\t// in\n    tag_122:\n      codesize\n      jump(tag_80)\n    tag_117:\n        /* \"contracts/TurtleEscrow.sol\":492:7699  contract TurtleEscrow is Ownable, ReentrancyGuard {... */\n      pop\n      pop\n      mload\n      swap1\n      returndatasize\n      swap1\n      dup3\n      returndatacopy\n      returndatasize\n      swap1\n      revert\n    tag_113:\n      shl(0xe0, 0x4e487b71)\n      dup9\n      mstore\n      0x21\n      dup7\n      mstore\n      0x24\n      dup9\n      revert\n        /* \"contracts/TurtleEscrow.sol\":4993:5049  msg.sender == transaction.buyer || msg.sender == arbiter */\n    tag_110:\n      pop\n        /* \"contracts/TurtleEscrow.sol\":492:7699  contract TurtleEscrow is Ownable, ReentrancyGuard {... */\n      sload(0x03)\n      dup3\n      and\n        /* \"contracts/TurtleEscrow.sol\":4993:5003  msg.sender */\n      caller\n        /* \"contracts/TurtleEscrow.sol\":5028:5049  msg.sender == arbiter */\n      eq\n        /* \"contracts/TurtleEscrow.sol\":4993:5049  msg.sender == transaction.buyer || msg.sender == arbiter */\n      jump(tag_111)\n        /* \"contracts/TurtleEscrow.sol\":492:7699  contract TurtleEscrow is Ownable, ReentrancyGuard {... */\n    tag_19:\n      swap1\n      pop\n      jumpi(tag_45, callvalue)\n      0x20\n      swap1\n      dup2\n      add(calldatasize, not(0x03))\n      slt\n      tag_128\n      jumpi\n        /* \"@openzeppelin/contracts/security/ReentrancyGuard.sol\":2227:2330  modifier nonReentrant() {... */\n      tag_130\n      tag_7\n      jump\t// in\n    tag_130:\n        /* \"contracts/TurtleEscrow.sol\":492:7699  contract TurtleEscrow is Ownable, ReentrancyGuard {... */\n      dup1\n      calldataload\n      dup5\n      mstore\n        /* \"contracts/TurtleEscrow.sol\":5866:5878  transactions */\n      0x02\n        /* \"contracts/TurtleEscrow.sol\":492:7699  contract TurtleEscrow is Ownable, ReentrancyGuard {... */\n      dup3\n      mstore\n      dup3\n      dup5\n      keccak256\n      0x01\n        /* \"contracts/TurtleEscrow.sol\":5927:5945  transaction.seller */\n      dup2\n      add\n        /* \"contracts/TurtleEscrow.sol\":492:7699  contract TurtleEscrow is Ownable, ReentrancyGuard {... */\n      sload\n      sub(shl(0xa0, 0x01), 0x01)\n      swap2\n      swap1\n      dup3\n      and\n        /* \"contracts/TurtleEscrow.sol\":5913:5923  msg.sender */\n      caller\n        /* \"contracts/TurtleEscrow.sol\":5913:5945  msg.sender == transaction.seller */\n      eq\n        /* \"contracts/TurtleEscrow.sol\":5913:5970  msg.sender == transaction.seller || msg.sender == arbiter */\n      dup1\n      iszero\n      tag_131\n      jumpi\n        /* \"contracts/TurtleEscrow.sol\":492:7699  contract TurtleEscrow is Ownable, ReentrancyGuard {... */\n    tag_132:\n        /* \"contracts/TurtleEscrow.sol\":5905:5987  require(msg.sender == transaction.seller || msg.sender == arbiter, \"Unauthorized\") */\n      tag_133\n      swap1\n      tag_9\n      jump\t// in\n    tag_133:\n        /* \"contracts/TurtleEscrow.sol\":492:7699  contract TurtleEscrow is Ownable, ReentrancyGuard {... */\n      0x03\n        /* \"contracts/TurtleEscrow.sol\":6006:6023  transaction.state */\n      dup2\n      add\n        /* \"contracts/TurtleEscrow.sol\":492:7699  contract TurtleEscrow is Ownable, ReentrancyGuard {... */\n      dup1\n      sload\n      0xff\n      dup2\n      and\n      dup6\n      dup2\n      lt\n      iszero\n      tag_134\n      jumpi\n      0x01\n        /* \"contracts/TurtleEscrow.sol\":5998:6057  require(transaction.state == State.Locked, \"Invalid state\") */\n      tag_136\n        /* \"contracts/TurtleEscrow.sol\":6006:6039  transaction.state == State.Locked */\n      swap2\n      eq\n        /* \"contracts/TurtleEscrow.sol\":5998:6057  require(transaction.state == State.Locked, \"Invalid state\") */\n      tag_8\n      jump\t// in\n    tag_136:\n        /* \"contracts/TurtleEscrow.sol\":6095:6116  transaction.createdAt */\n      dup5\n      dup4\n      add\n        /* \"contracts/TurtleEscrow.sol\":492:7699  contract TurtleEscrow is Ownable, ReentrancyGuard {... */\n      sload\n        /* \"contracts/TurtleEscrow.sol\":6119:6141  transaction.lockPeriod */\n      0x05\n      dup5\n      add\n        /* \"contracts/TurtleEscrow.sol\":492:7699  contract TurtleEscrow is Ownable, ReentrancyGuard {... */\n      sload\n      dup2\n      add\n      dup1\n      swap2\n      gt\n      tag_137\n      jumpi\n        /* \"contracts/TurtleEscrow.sol\":6076:6091  block.timestamp */\n      timestamp\n        /* \"contracts/TurtleEscrow.sol\":6076:6141  block.timestamp >= transaction.createdAt + transaction.lockPeriod */\n      lt\n      dup1\n      iszero\n        /* \"contracts/TurtleEscrow.sol\":6076:6166  block.timestamp >= transaction.createdAt + transaction.lockPeriod || msg.sender == arbiter */\n      swap1\n      tag_139\n      jumpi\n        /* \"contracts/TurtleEscrow.sol\":492:7699  contract TurtleEscrow is Ownable, ReentrancyGuard {... */\n    tag_140:\n      iszero\n      tag_141\n      jumpi\n      not(0xff)\n      and\n      0x03\n      or\n      swap1\n      sstore\n      dup3\n      sload\n      dup2\n      sload\n        /* \"contracts/TurtleEscrow.sol\":5866:5878  transactions */\n      0x02\n        /* \"contracts/TurtleEscrow.sol\":6341:6359  transaction.amount */\n      swap1\n      swap3\n      add\n        /* \"contracts/TurtleEscrow.sol\":492:7699  contract TurtleEscrow is Ownable, ReentrancyGuard {... */\n      sload\n      dup7\n      mload\n      shl(0xe0, 0xa9059cbb)\n        /* \"contracts/TurtleEscrow.sol\":6307:6360  token.transfer(transaction.buyer, transaction.amount) */\n      dup2\n      mstore\n      sub(shl(0xa0, 0x01), 0x01)\n        /* \"contracts/TurtleEscrow.sol\":492:7699  contract TurtleEscrow is Ownable, ReentrancyGuard {... */\n      swap4\n      dup6\n      and\n      swap4\n      swap1\n      swap4\n      and\n        /* \"contracts/TurtleEscrow.sol\":6307:6360  token.transfer(transaction.buyer, transaction.amount) */\n      swap5\n      dup4\n      add\n        /* \"contracts/TurtleEscrow.sol\":492:7699  contract TurtleEscrow is Ownable, ReentrancyGuard {... */\n      swap5\n      dup6\n      mstore\n      0x20\n      dup6\n      add\n      mstore\n      swap1\n      swap3\n      dup5\n      swap3\n      dup5\n      swap3\n      and\n      swap1\n      dup3\n      swap1\n      dup9\n      swap1\n      dup3\n      swap1\n      0x40\n      add\n        /* \"contracts/TurtleEscrow.sol\":6307:6360  token.transfer(transaction.buyer, transaction.amount) */\n      sub\n      swap3\n      gas\n      call\n      swap2\n      dup3\n      iszero\n      tag_144\n      jumpi\n        /* \"contracts/TurtleEscrow.sol\":6299:6386  require(token.transfer(transaction.buyer, transaction.amount), \"Token transfer failed\") */\n      tag_119\n        /* \"contracts/TurtleEscrow.sol\":6307:6360  token.transfer(transaction.buyer, transaction.amount) */\n      swap4\n      pop\n      dup5\n      swap3\n      tag_147\n      jumpi\n        /* \"contracts/TurtleEscrow.sol\":492:7699  contract TurtleEscrow is Ownable, ReentrancyGuard {... */\n    tag_148:\n        /* \"contracts/TurtleEscrow.sol\":6299:6386  require(token.transfer(transaction.buyer, transaction.amount), \"Token transfer failed\") */\n      pop\n      pop\n      tag_6\n      jump\t// in\n        /* \"contracts/TurtleEscrow.sol\":6307:6360  token.transfer(transaction.buyer, transaction.amount) */\n    tag_147:\n      tag_149\n      swap3\n      pop\n      dup1\n      returndatasize\n      lt\n      tag_88\n      jumpi\n      tag_90\n      dup2\n      dup4\n      tag_4\n      jump\t// in\n    tag_149:\n      codesize\n      dup1\n      jump(tag_148)\n    tag_144:\n        /* \"contracts/TurtleEscrow.sol\":492:7699  contract TurtleEscrow is Ownable, ReentrancyGuard {... */\n      pop\n      pop\n      pop\n      mload\n      swap1\n      returndatasize\n      swap1\n      dup3\n      returndatacopy\n      returndatasize\n      swap1\n      revert\n    tag_141:\n      dup7\n      mload\n      shl(0xe5, 0x461bcd)\n      dup2\n      mstore\n      dup1\n      dup7\n      add\n      dup8\n      swap1\n      mstore\n      0x17\n      0x24\n      dup3\n      add\n      mstore\n      0x4c6f636b20706572696f64206e6f742065787069726564000000000000000000\n      0x44\n      dup3\n      add\n      mstore\n      0x64\n      swap1\n      revert\n        /* \"contracts/TurtleEscrow.sol\":6076:6166  block.timestamp >= transaction.createdAt + transaction.lockPeriod || msg.sender == arbiter */\n    tag_139:\n        /* \"contracts/TurtleEscrow.sol\":492:7699  contract TurtleEscrow is Ownable, ReentrancyGuard {... */\n      pop\n      dup4\n      sload(0x03)\n      and\n        /* \"contracts/TurtleEscrow.sol\":5913:5923  msg.sender */\n      caller\n        /* \"contracts/TurtleEscrow.sol\":6145:6166  msg.sender == arbiter */\n      eq\n        /* \"contracts/TurtleEscrow.sol\":6076:6166  block.timestamp >= transaction.createdAt + transaction.lockPeriod || msg.sender == arbiter */\n      jump(tag_140)\n        /* \"contracts/TurtleEscrow.sol\":492:7699  contract TurtleEscrow is Ownable, ReentrancyGuard {... */\n    tag_137:\n      shl(0xe0, 0x4e487b71)\n      dup10\n      mstore\n      0x11\n      dup7\n      mstore\n      0x24\n      dup10\n      revert\n    tag_134:\n      shl(0xe0, 0x4e487b71)\n      dup10\n      mstore\n      0x21\n      dup7\n      mstore\n      0x24\n      dup10\n      revert\n        /* \"contracts/TurtleEscrow.sol\":5913:5970  msg.sender == transaction.seller || msg.sender == arbiter */\n    tag_131:\n      pop\n        /* \"contracts/TurtleEscrow.sol\":492:7699  contract TurtleEscrow is Ownable, ReentrancyGuard {... */\n      sload(0x03)\n      dup3\n      and\n        /* \"contracts/TurtleEscrow.sol\":5913:5923  msg.sender */\n      caller\n        /* \"contracts/TurtleEscrow.sol\":5949:5970  msg.sender == arbiter */\n      eq\n        /* \"contracts/TurtleEscrow.sol\":5913:5970  msg.sender == transaction.seller || msg.sender == arbiter */\n      jump(tag_132)\n        /* \"contracts/TurtleEscrow.sol\":492:7699  contract TurtleEscrow is Ownable, ReentrancyGuard {... */\n    tag_128:\n      dup4\n      dup1\n      revert\n    tag_17:\n      dup4\n      jumpi(tag_93, callvalue)\n      jumpi(tag_93, slt(add(not(0x03), calldatasize), 0x20))\n      tag_157\n      tag_2\n      jump\t// in\n    tag_157:\n        /* \"@openzeppelin/contracts/access/Ownable.sol\":1063:1125  modifier onlyOwner() {... */\n      tag_158\n      tag_3\n      jump\t// in\n    tag_158:\n        /* \"contracts/TurtleEscrow.sol\":492:7699  contract TurtleEscrow is Ownable, ReentrancyGuard {... */\n      0x01\n      dup1\n      0xa0\n      shl\n      sub\n      and\n      and(sload(0x03), shl(0xa0, 0xffffffffffffffffffffffff))\n      or\n      0x03\n      sstore\n      dup1\n      return\n    tag_15:\n      pop\n      pop\n      jumpi(tag_41, callvalue)\n      dup2\n      add(calldatasize, not(0x03))\n      slt\n      tag_41\n      jumpi\n      0x20\n      swap1\n      mload\n        /* \"contracts/TurtleEscrow.sol\":1784:1790  7 days */\n      0x093a80\n        /* \"contracts/TurtleEscrow.sol\":492:7699  contract TurtleEscrow is Ownable, ReentrancyGuard {... */\n      dup2\n      mstore\n      return\n    tag_13:\n      dup5\n      swap2\n      dup5\n      jumpi(tag_128, callvalue)\n      jumpi(tag_128, slt(add(not(0x03), calldatasize), 0x20))\n      swap1\n      tag_95\n      swap2\n      dup4\n      swap5\n      dup3\n      calldataload\n      dup2\n      mstore\n        /* \"contracts/TurtleEscrow.sol\":6844:6856  transactions */\n      0x02\n        /* \"contracts/TurtleEscrow.sol\":492:7699  contract TurtleEscrow is Ownable, ReentrancyGuard {... */\n      0x20\n      mstore\n      keccak256\n      0x01\n      dup1\n      0xa0\n      shl\n      sub\n      swap2\n      dup3\n      dup3\n      sload\n      and\n        /* \"contracts/TurtleEscrow.sol\":6910:6928  transaction.seller */\n      swap3\n        /* \"contracts/TurtleEscrow.sol\":492:7699  contract TurtleEscrow is Ownable, ReentrancyGuard {... */\n      0x01\n        /* \"contracts/TurtleEscrow.sol\":6910:6928  transaction.seller */\n      dup4\n      add\n        /* \"contracts/TurtleEscrow.sol\":492:7699  contract TurtleEscrow is Ownable, ReentrancyGuard {... */\n      sload\n      and\n        /* \"contracts/TurtleEscrow.sol\":6844:6856  transactions */\n      0x02\n        /* \"contracts/TurtleEscrow.sol\":6930:6948  transaction.amount */\n      dup4\n      add\n        /* \"contracts/TurtleEscrow.sol\":492:7699  contract TurtleEscrow is Ownable, ReentrancyGuard {... */\n      sload\n        /* \"contracts/TurtleEscrow.sol\":6950:6967  transaction.state */\n      swap1\n        /* \"contracts/TurtleEscrow.sol\":6992:7014  transaction.lockPeriod */\n      0x05\n        /* \"contracts/TurtleEscrow.sol\":492:7699  contract TurtleEscrow is Ownable, ReentrancyGuard {... */\n      0xff\n      0x03\n        /* \"contracts/TurtleEscrow.sol\":6950:6967  transaction.state */\n      dup7\n      add\n        /* \"contracts/TurtleEscrow.sol\":492:7699  contract TurtleEscrow is Ownable, ReentrancyGuard {... */\n      sload\n      and\n        /* \"contracts/TurtleEscrow.sol\":6969:6990  transaction.createdAt */\n      swap4\n      dup6\n      add\n        /* \"contracts/TurtleEscrow.sol\":492:7699  contract TurtleEscrow is Ownable, ReentrancyGuard {... */\n      sload\n        /* \"contracts/TurtleEscrow.sol\":6992:7014  transaction.lockPeriod */\n      swap5\n      add\n        /* \"contracts/TurtleEscrow.sol\":492:7699  contract TurtleEscrow is Ownable, ReentrancyGuard {... */\n      sload\n      swap5\n      dup8\n    tag_1:\n      sub(shl(0xa0, 0x01), 0x01)\n      swap2\n      dup3\n      and\n      dup2\n      mstore\n      swap2\n      and\n      0x20\n      dup3\n      add\n      mstore\n      0x40\n      dup2\n      add\n      swap2\n      swap1\n      swap2\n      mstore\n      0xc0\n      dup2\n      add\n      swap5\n      swap4\n      swap3\n      0x04\n      dup4\n      lt\n      iszero\n      tag_168\n      jumpi\n      0xa0\n      swap3\n      0x60\n      dup4\n      add\n      mstore\n      0x80\n      dup3\n      add\n      mstore\n      add\n      mstore\n      jump\t// out\n    tag_168:\n      mstore(0x00, shl(0xe0, 0x4e487b71))\n      mstore(0x04, 0x21)\n      revert(0x00, 0x24)\n    tag_2:\n      calldataload(0x04)\n      swap1\n      sub(shl(0xa0, 0x01), 0x01)\n      dup3\n      and\n      dup3\n      sub\n      tag_170\n      jumpi\n      jump\t// out\n    tag_170:\n      0x00\n      dup1\n      revert\n        /* \"@openzeppelin/contracts/access/Ownable.sol\":1359:1489  function _checkOwner() internal view virtual {... */\n    tag_3:\n        /* \"@openzeppelin/contracts/access/Ownable.sol\":1273:1279  _owner */\n      0x00\n        /* \"contracts/TurtleEscrow.sol\":492:7699  contract TurtleEscrow is Ownable, ReentrancyGuard {... */\n      sload\n      sub(shl(0xa0, 0x01), 0x01)\n      and\n        /* \"@openzeppelin/contracts/utils/Context.sol\":719:729  msg.sender */\n      caller\n        /* \"@openzeppelin/contracts/access/Ownable.sol\":1422:1445  owner() == _msgSender() */\n      sub\n        /* \"contracts/TurtleEscrow.sol\":492:7699  contract TurtleEscrow is Ownable, ReentrancyGuard {... */\n      tag_172\n      jumpi\n        /* \"@openzeppelin/contracts/access/Ownable.sol\":1359:1489  function _checkOwner() internal view virtual {... */\n      jump\t// out\n        /* \"contracts/TurtleEscrow.sol\":492:7699  contract TurtleEscrow is Ownable, ReentrancyGuard {... */\n    tag_172:\n      0x64\n      mload(0x40)\n      shl(0xe5, 0x461bcd)\n      dup2\n      mstore\n      0x20\n      0x04\n      dup3\n      add\n      mstore\n      0x20\n      0x24\n      dup3\n      add\n      mstore\n      0x4f776e61626c653a2063616c6c6572206973206e6f7420746865206f776e6572\n      0x44\n      dup3\n      add\n      mstore\n      revert\n    tag_4:\n      swap1\n      0x1f\n      dup1\n      not\n      swap2\n      add\n      and\n      dup2\n      add\n      swap1\n      dup2\n      lt\n      0xffffffffffffffff\n      dup3\n      gt\n      or\n      tag_174\n      jumpi\n      0x40\n      mstore\n      jump\t// out\n    tag_174:\n      mstore(0x00, shl(0xe0, 0x4e487b71))\n      mstore(0x04, 0x41)\n      revert(0x00, 0x24)\n    tag_5:\n      swap1\n      dup2\n      0x20\n      swap2\n      sub\n      slt\n      tag_170\n      jumpi\n      mload\n      dup1\n      iszero\n      iszero\n      dup2\n      sub\n      tag_170\n      jumpi\n      swap1\n      jump\t// out\n    tag_6:\n      iszero\n      tag_180\n      jumpi\n      jump\t// out\n    tag_180:\n      mload(0x40)\n      shl(0xe5, 0x461bcd)\n      dup2\n      mstore\n      0x20\n      0x04\n      dup3\n      add\n      mstore\n      0x15\n      0x24\n      dup3\n      add\n      mstore\n      shl(0x5a, 0x151bdad95b881d1c985b9cd9995c8819985a5b1959)\n      0x44\n      dup3\n      add\n      mstore\n      0x64\n      swap1\n      revert\n        /* \"@openzeppelin/contracts/security/ReentrancyGuard.sol\":2336:2623  function _nonReentrantBefore() private {... */\n    tag_7:\n        /* \"@openzeppelin/contracts/security/ReentrancyGuard.sol\":1759:1760  2 */\n      0x02\n        /* \"@openzeppelin/contracts/security/ReentrancyGuard.sol\":2468:2475  _status */\n      0x01\n        /* \"contracts/TurtleEscrow.sol\":492:7699  contract TurtleEscrow is Ownable, ReentrancyGuard {... */\n      sload\n        /* \"@openzeppelin/contracts/security/ReentrancyGuard.sol\":2468:2487  _status != _ENTERED */\n      eq\n        /* \"@openzeppelin/contracts/security/ReentrancyGuard.sol\":1759:1760  2 */\n      tag_182\n      jumpi\n      0x02\n        /* \"@openzeppelin/contracts/security/ReentrancyGuard.sol\":2468:2475  _status */\n      0x01\n        /* \"contracts/TurtleEscrow.sol\":492:7699  contract TurtleEscrow is Ownable, ReentrancyGuard {... */\n      sstore\n        /* \"@openzeppelin/contracts/security/ReentrancyGuard.sol\":2336:2623  function _nonReentrantBefore() private {... */\n      jump\t// out\n        /* \"@openzeppelin/contracts/security/ReentrancyGuard.sol\":1759:1760  2 */\n    tag_182:\n        /* \"contracts/TurtleEscrow.sol\":492:7699  contract TurtleEscrow is Ownable, ReentrancyGuard {... */\n      mload(0x40)\n      shl(0xe5, 0x461bcd)\n        /* \"@openzeppelin/contracts/security/ReentrancyGuard.sol\":1759:1760  2 */\n      dup2\n      mstore\n      0x20\n      0x04\n      dup3\n      add\n      mstore\n      0x1f\n      0x24\n      dup3\n      add\n        /* \"contracts/TurtleEscrow.sol\":492:7699  contract TurtleEscrow is Ownable, ReentrancyGuard {... */\n      mstore\n        /* \"@openzeppelin/contracts/security/ReentrancyGuard.sol\":1759:1760  2 */\n      0x5265656e7472616e637947756172643a207265656e7472616e742063616c6c00\n        /* \"contracts/TurtleEscrow.sol\":492:7699  contract TurtleEscrow is Ownable, ReentrancyGuard {... */\n      0x44\n      dup3\n      add\n        /* \"@openzeppelin/contracts/security/ReentrancyGuard.sol\":1759:1760  2 */\n      mstore\n      0x64\n      swap1\n      revert\n        /* \"contracts/TurtleEscrow.sol\":492:7699  contract TurtleEscrow is Ownable, ReentrancyGuard {... */\n    tag_8:\n      iszero\n      tag_184\n      jumpi\n      jump\t// out\n    tag_184:\n      mload(0x40)\n      shl(0xe5, 0x461bcd)\n      dup2\n      mstore\n      0x20\n      0x04\n      dup3\n      add\n      mstore\n      0x0d\n      0x24\n      dup3\n      add\n      mstore\n      shl(0x98, 0x496e76616c6964207374617465)\n      0x44\n      dup3\n      add\n      mstore\n      0x64\n      swap1\n      revert\n    tag_9:\n      iszero\n      tag_186\n      jumpi\n      jump\t// out\n    tag_186:\n      mload(0x40)\n      shl(0xe5, 0x461bcd)\n      dup2\n      mstore\n      0x20\n      0x04\n      dup3\n      add\n      mstore\n      0x0c\n      0x24\n      dup3\n      add\n      mstore\n      shl(0xa2, 0x155b985d5d1a1bdc9a5e9959)\n      0x44\n      dup3\n      add\n      mstore\n      0x64\n      swap1\n      revert\n\n    auxdata: 0xa26469706673582212207b8df990844cedfc1f6065513541b370a79a27103220a36eea5774248cd5ae5864736f6c63430008120033\n}\n",
				"bytecode": {
					"linkReferences": {},
					"object": "6080346100f557601f610cfa38819003918201601f19168301916001600160401b038311848410176100fa578084926020946040528339810103126100f557516001600160a01b0390818116908190036100f5576000549160018060a01b0319923384821617600055604051913391167f8be0079c531659141344cd1fd0a4f28419497f9722a3daafe3b4186f6b6457e0600080a36001805581156100c1575081600454161760045533906003541617600355604051610be990816101118239f35b62461bcd60e51b815260206004820152600f60248201526e496e76616c6964206164647265737360881b6044820152606490fd5b600080fd5b634e487b7160e01b600052604160045260246000fdfe608060408181526004918236101561001657600080fd5b600092833560e01c9182630fa683d31461093a575081631820cabb1461091c5781631c9c088a146108d7578163278ecde1146107345781634d68282f1461060e578163715018a6146105b45781638da5cb5b1461058c5781639ace38c21461052d578163c0c473b01461025d578163d73a84e9146101ce578163f2fde38b1461010b578163fc0c546a146100df575063fe25e00a146100b457600080fd5b346100db57816003193601126100db5760035490516001600160a01b039091168152602090f35b5080fd5b9050346101075782600319360112610107575490516001600160a01b03909116815260209150f35b8280fd5b905034610107576020366003190112610107576101266109df565b9061012f6109fa565b6001600160a01b0391821692831561017c57505082546001600160a01b0319811683178455167f8be0079c531659141344cd1fd0a4f28419497f9722a3daafe3b4186f6b6457e08380a380f35b906020608492519162461bcd60e51b8352820152602660248201527f4f776e61626c653a206e6577206f776e657220697320746865207a65726f206160448201526564647265737360d01b6064820152fd5b9050346101075781600319360112610107578035835260026020528183206003549092906001600160a01b0316330361020e575050600560243591015580f35b906020608492519162461bcd60e51b8352820152602360248201527f4f6e6c7920617262697465722063616e20757064617465206c6f636b207065726044820152621a5bd960ea1b6064820152fd5b8383346100db5760603660031901126100db576001600160a01b039280359260249182358681169291908390036100db576044359661029a610ae6565b83156104f257871561049a5785519760c0890189811067ffffffffffffffff821117610488578752338952602098898101958652888a8983018481526060840198888a526002608086019342855260a087019562093a8087528b5252868c8a209551166bffffffffffffffffffffffff60a01b9081875416178655876001870192511690825416179055516002840155600383019751978689101561047657805460ff9990991660ff19998a16179055518583015551600590910155825487516323b872dd60e01b8152338186015230888201526044810192909252899082906064908290889087165af190811561046c579061039e91859161043f575b50610aa2565b6103a6610ae6565b868352600288528583209081541633036103fd576003019384549260ff841692808410156103ed57505050906103df6001939215610b3c565b161790556001805551908152f35b634e487b7160e01b825260219052fd5b855162461bcd60e51b81528083018990526019818701527f4f6e6c792062757965722063616e206c6f636b2066756e6473000000000000006044820152606490fd5b61045f91508a3d8c11610465575b6104578183610a52565b810190610a8a565b8a610398565b503d61044d565b87513d86823e3d90fd5b634e487b7160e01b8852602187528988fd5b634e487b7160e01b8552604184528685fd5b855162461bcd60e51b8152602081840152602d818701527f496e76616c696420616d6f756e742120416d6f756e74206d757374206265206760448201526c0726561746572207468616e203609c1b6064820152608490fd5b855162461bcd60e51b815260208184015260168187015275496e76616c69642073656c6c6572206164647265737360501b6044820152606490fd5b828434610589576020366003190112610589578161058591843581526002602052209160018060a01b03928381541693600182015416946002820154600560ff6003850154169284015493015493519687968761098c565b0390f35b80fd5b5050346100db57816003193601126100db57905490516001600160a01b039091168152602090f35b83346105895780600319360112610589576105cd6109fa565b80546001600160a01b03198116825581906001600160a01b03167f8be0079c531659141344cd1fd0a4f28419497f9722a3daafe3b4186f6b6457e08280a380f35b90503461010757602036600319011261010757610629610ae6565b80358352600260205281832080546001600160a01b039190821633148015610727575b61065590610b78565b60038101805460ff811685811015610714579160026106c796949261067f60016020989614610b3c565b60ff191617905586600283855416936001840154169201549387519687958694859363a9059cbb60e01b8552840160209093929193604081019460018060a01b031681520152565b03925af1908115610708576106e3925083916106ea5750610aa2565b6001805580f35b610702915060203d8111610465576104578183610a52565b38610398565b505051903d90823e3d90fd5b634e487b7160e01b885260218652602488fd5b506003548216331461064c565b90503461010757602090816003193601126108d357610751610ae6565b803584526002825282842060018101546001600160a01b0391908216331480156108c6575b61077f90610b78565b60038101805460ff8116858110156108b357600161079d9114610b3c565b84830154600584015481018091116108a0574210801590610893575b156108505760ff1916600317905582548154600290920154865163a9059cbb60e01b81526001600160a01b03938516939093169483019485526020850152909284928492169082908890829060400103925af1918215610843576106e393508492610826575b5050610aa2565b61083c9250803d10610465576104578183610a52565b388061081f565b50505051903d90823e3d90fd5b865162461bcd60e51b8152808601879052601760248201527f4c6f636b20706572696f64206e6f7420657870697265640000000000000000006044820152606490fd5b50836003541633146107b9565b634e487b7160e01b895260118652602489fd5b634e487b7160e01b895260218652602489fd5b5060035482163314610776565b8380fd5b8334610589576020366003190112610589576108f16109df565b6108f96109fa565b60018060a01b03166bffffffffffffffffffffffff60a01b600354161760035580f35b5050346100db57816003193601126100db576020905162093a808152f35b849184346108d35760203660031901126108d357906105859183948235815260026020522060018060a01b03918282541692600183015416600283015490600560ff6003860154169385015494015494875b6001600160a01b03918216815291166020820152604081019190915260c0810194939260048310156109c95760a092606083015260808201520152565b634e487b7160e01b600052602160045260246000fd5b600435906001600160a01b03821682036109f557565b600080fd5b6000546001600160a01b03163303610a0e57565b606460405162461bcd60e51b815260206004820152602060248201527f4f776e61626c653a2063616c6c6572206973206e6f7420746865206f776e65726044820152fd5b90601f8019910116810190811067ffffffffffffffff821117610a7457604052565b634e487b7160e01b600052604160045260246000fd5b908160209103126109f5575180151581036109f55790565b15610aa957565b60405162461bcd60e51b8152602060048201526015602482015274151bdad95b881d1c985b9cd9995c8819985a5b1959605a1b6044820152606490fd5b600260015414610af7576002600155565b60405162461bcd60e51b815260206004820152601f60248201527f5265656e7472616e637947756172643a207265656e7472616e742063616c6c006044820152606490fd5b15610b4357565b60405162461bcd60e51b815260206004820152600d60248201526c496e76616c696420737461746560981b6044820152606490fd5b15610b7f57565b60405162461bcd60e51b815260206004820152600c60248201526b155b985d5d1a1bdc9a5e995960a21b6044820152606490fdfea26469706673582212207b8df990844cedfc1f6065513541b370a79a27103220a36eea5774248cd5ae5864736f6c63430008120033",
					"opcodes": "PUSH1 0x80 CALLVALUE PUSH2 0xF5 JUMPI PUSH1 0x1F PUSH2 0xCFA CODESIZE DUP2 SWAP1 SUB SWAP2 DUP3 ADD PUSH1 0x1F NOT AND DUP4 ADD SWAP2 PUSH1 0x1 PUSH1 0x1 PUSH1 0x40 SHL SUB DUP4 GT DUP5 DUP5 LT OR PUSH2 0xFA JUMPI DUP1 DUP5 SWAP3 PUSH1 0x20 SWAP5 PUSH1 0x40 MSTORE DUP4 CODECOPY DUP2 ADD SUB SLT PUSH2 0xF5 JUMPI MLOAD PUSH1 0x1 PUSH1 0x1 PUSH1 0xA0 SHL SUB SWAP1 DUP2 DUP2 AND SWAP1 DUP2 SWAP1 SUB PUSH2 0xF5 JUMPI PUSH1 0x0 SLOAD SWAP2 PUSH1 0x1 DUP1 PUSH1 0xA0 SHL SUB NOT SWAP3 CALLER DUP5 DUP3 AND OR PUSH1 0x0 SSTORE PUSH1 0x40 MLOAD SWAP2 CALLER SWAP2 AND PUSH32 0x8BE0079C531659141344CD1FD0A4F28419497F9722A3DAAFE3B4186F6B6457E0 PUSH1 0x0 DUP1 LOG3 PUSH1 0x1 DUP1 SSTORE DUP2 ISZERO PUSH2 0xC1 JUMPI POP DUP2 PUSH1 0x4 SLOAD AND OR PUSH1 0x4 SSTORE CALLER SWAP1 PUSH1 0x3 SLOAD AND OR PUSH1 0x3 SSTORE PUSH1 0x40 MLOAD PUSH2 0xBE9 SWAP1 DUP2 PUSH2 0x111 DUP3 CODECOPY RETURN JUMPDEST PUSH3 0x461BCD PUSH1 0xE5 SHL DUP2 MSTORE PUSH1 0x20 PUSH1 0x4 DUP3 ADD MSTORE PUSH1 0xF PUSH1 0x24 DUP3 ADD MSTORE PUSH15 0x496E76616C69642061646472657373 PUSH1 0x88 SHL PUSH1 0x44 DUP3 ADD MSTORE PUSH1 0x64 SWAP1 REVERT JUMPDEST PUSH1 0x0 DUP1 REVERT JUMPDEST PUSH4 0x4E487B71 PUSH1 0xE0 SHL PUSH1 0x0 MSTORE PUSH1 0x41 PUSH1 0x4 MSTORE PUSH1 0x24 PUSH1 0x0 REVERT INVALID PUSH1 0x80 PUSH1 0x40 DUP2 DUP2 MSTORE PUSH1 0x4 SWAP2 DUP3 CALLDATASIZE LT ISZERO PUSH2 0x16 JUMPI PUSH1 0x0 DUP1 REVERT JUMPDEST PUSH1 0x0 SWAP3 DUP4 CALLDATALOAD PUSH1 0xE0 SHR SWAP2 DUP3 PUSH4 0xFA683D3 EQ PUSH2 0x93A JUMPI POP DUP2 PUSH4 0x1820CABB EQ PUSH2 0x91C JUMPI DUP2 PUSH4 0x1C9C088A EQ PUSH2 0x8D7 JUMPI DUP2 PUSH4 0x278ECDE1 EQ PUSH2 0x734 JUMPI DUP2 PUSH4 0x4D68282F EQ PUSH2 0x60E JUMPI DUP2 PUSH4 0x715018A6 EQ PUSH2 0x5B4 JUMPI DUP2 PUSH4 0x8DA5CB5B EQ PUSH2 0x58C JUMPI DUP2 PUSH4 0x9ACE38C2 EQ PUSH2 0x52D JUMPI DUP2 PUSH4 0xC0C473B0 EQ PUSH2 0x25D JUMPI DUP2 PUSH4 0xD73A84E9 EQ PUSH2 0x1CE JUMPI DUP2 PUSH4 0xF2FDE38B EQ PUSH2 0x10B JUMPI DUP2 PUSH4 0xFC0C546A EQ PUSH2 0xDF JUMPI POP PUSH4 0xFE25E00A EQ PUSH2 0xB4 JUMPI PUSH1 0x0 DUP1 REVERT JUMPDEST CALLVALUE PUSH2 0xDB JUMPI DUP2 PUSH1 0x3 NOT CALLDATASIZE ADD SLT PUSH2 0xDB JUMPI PUSH1 0x3 SLOAD SWAP1 MLOAD PUSH1 0x1 PUSH1 0x1 PUSH1 0xA0 SHL SUB SWAP1 SWAP2 AND DUP2 MSTORE PUSH1 0x20 SWAP1 RETURN JUMPDEST POP DUP1 REVERT JUMPDEST SWAP1 POP CALLVALUE PUSH2 0x107 JUMPI DUP3 PUSH1 0x3 NOT CALLDATASIZE ADD SLT PUSH2 0x107 JUMPI SLOAD SWAP1 MLOAD PUSH1 0x1 PUSH1 0x1 PUSH1 0xA0 SHL SUB SWAP1 SWAP2 AND DUP2 MSTORE PUSH1 0x20 SWAP2 POP RETURN JUMPDEST DUP3 DUP1 REVERT JUMPDEST SWAP1 POP CALLVALUE PUSH2 0x107 JUMPI PUSH1 0x20 CALLDATASIZE PUSH1 0x3 NOT ADD SLT PUSH2 0x107 JUMPI PUSH2 0x126 PUSH2 0x9DF JUMP JUMPDEST SWAP1 PUSH2 0x12F PUSH2 0x9FA JUMP JUMPDEST PUSH1 0x1 PUSH1 0x1 PUSH1 0xA0 SHL SUB SWAP2 DUP3 AND SWAP3 DUP4 ISZERO PUSH2 0x17C JUMPI POP POP DUP3 SLOAD PUSH1 0x1 PUSH1 0x1 PUSH1 0xA0 SHL SUB NOT DUP2 AND DUP4 OR DUP5 SSTORE AND PUSH32 0x8BE0079C531659141344CD1FD0A4F28419497F9722A3DAAFE3B4186F6B6457E0 DUP4 DUP1 LOG3 DUP1 RETURN JUMPDEST SWAP1 PUSH1 0x20 PUSH1 0x84 SWAP3 MLOAD SWAP2 PUSH3 0x461BCD PUSH1 0xE5 SHL DUP4 MSTORE DUP3 ADD MSTORE PUSH1 0x26 PUSH1 0x24 DUP3 ADD MSTORE PUSH32 0x4F776E61626C653A206E6577206F776E657220697320746865207A65726F2061 PUSH1 0x44 DUP3 ADD MSTORE PUSH6 0x646472657373 PUSH1 0xD0 SHL PUSH1 0x64 DUP3 ADD MSTORE REVERT JUMPDEST SWAP1 POP CALLVALUE PUSH2 0x107 JUMPI DUP2 PUSH1 0x3 NOT CALLDATASIZE ADD SLT PUSH2 0x107 JUMPI DUP1 CALLDATALOAD DUP4 MSTORE PUSH1 0x2 PUSH1 0x20 MSTORE DUP2 DUP4 KECCAK256 PUSH1 0x3 SLOAD SWAP1 SWAP3 SWAP1 PUSH1 0x1 PUSH1 0x1 PUSH1 0xA0 SHL SUB AND CALLER SUB PUSH2 0x20E JUMPI POP POP PUSH1 0x5 PUSH1 0x24 CALLDATALOAD SWAP2 ADD SSTORE DUP1 RETURN JUMPDEST SWAP1 PUSH1 0x20 PUSH1 0x84 SWAP3 MLOAD SWAP2 PUSH3 0x461BCD PUSH1 0xE5 SHL DUP4 MSTORE DUP3 ADD MSTORE PUSH1 0x23 PUSH1 0x24 DUP3 ADD MSTORE PUSH32 0x4F6E6C7920617262697465722063616E20757064617465206C6F636B20706572 PUSH1 0x44 DUP3 ADD MSTORE PUSH3 0x1A5BD9 PUSH1 0xEA SHL PUSH1 0x64 DUP3 ADD MSTORE REVERT JUMPDEST DUP4 DUP4 CALLVALUE PUSH2 0xDB JUMPI PUSH1 0x60 CALLDATASIZE PUSH1 0x3 NOT ADD SLT PUSH2 0xDB JUMPI PUSH1 0x1 PUSH1 0x1 PUSH1 0xA0 SHL SUB SWAP3 DUP1 CALLDATALOAD SWAP3 PUSH1 0x24 SWAP2 DUP3 CALLDATALOAD DUP7 DUP2 AND SWAP3 SWAP2 SWAP1 DUP4 SWAP1 SUB PUSH2 0xDB JUMPI PUSH1 0x44 CALLDATALOAD SWAP7 PUSH2 0x29A PUSH2 0xAE6 JUMP JUMPDEST DUP4 ISZERO PUSH2 0x4F2 JUMPI DUP8 ISZERO PUSH2 0x49A JUMPI DUP6 MLOAD SWAP8 PUSH1 0xC0 DUP10 ADD DUP10 DUP2 LT PUSH8 0xFFFFFFFFFFFFFFFF DUP3 GT OR PUSH2 0x488 JUMPI DUP8 MSTORE CALLER DUP10 MSTORE PUSH1 0x20 SWAP9 DUP10 DUP2 ADD SWAP6 DUP7 MSTORE DUP9 DUP11 DUP10 DUP4 ADD DUP5 DUP2 MSTORE PUSH1 0x60 DUP5 ADD SWAP9 DUP9 DUP11 MSTORE PUSH1 0x2 PUSH1 0x80 DUP7 ADD SWAP4 TIMESTAMP DUP6 MSTORE PUSH1 0xA0 DUP8 ADD SWAP6 PUSH3 0x93A80 DUP8 MSTORE DUP12 MSTORE MSTORE DUP7 DUP13 DUP11 KECCAK256 SWAP6 MLOAD AND PUSH12 0xFFFFFFFFFFFFFFFFFFFFFFFF PUSH1 0xA0 SHL SWAP1 DUP2 DUP8 SLOAD AND OR DUP7 SSTORE DUP8 PUSH1 0x1 DUP8 ADD SWAP3 MLOAD AND SWAP1 DUP3 SLOAD AND OR SWAP1 SSTORE MLOAD PUSH1 0x2 DUP5 ADD SSTORE PUSH1 0x3 DUP4 ADD SWAP8 MLOAD SWAP8 DUP7 DUP10 LT ISZERO PUSH2 0x476 JUMPI DUP1 SLOAD PUSH1 0xFF SWAP10 SWAP1 SWAP10 AND PUSH1 0xFF NOT SWAP10 DUP11 AND OR SWAP1 SSTORE MLOAD DUP6 DUP4 ADD SSTORE MLOAD PUSH1 0x5 SWAP1 SWAP2 ADD SSTORE DUP3 SLOAD DUP8 MLOAD PUSH4 0x23B872DD PUSH1 0xE0 SHL DUP2 MSTORE CALLER DUP2 DUP7 ADD MSTORE ADDRESS DUP9 DUP3 ADD MSTORE PUSH1 0x44 DUP2 ADD SWAP3 SWAP1 SWAP3 MSTORE DUP10 SWAP1 DUP3 SWAP1 PUSH1 0x64 SWAP1 DUP3 SWAP1 DUP9 SWAP1 DUP8 AND GAS CALL SWAP1 DUP2 ISZERO PUSH2 0x46C JUMPI SWAP1 PUSH2 0x39E SWAP2 DUP6 SWAP2 PUSH2 0x43F JUMPI JUMPDEST POP PUSH2 0xAA2 JUMP JUMPDEST PUSH2 0x3A6 PUSH2 0xAE6 JUMP JUMPDEST DUP7 DUP4 MSTORE PUSH1 0x2 DUP9 MSTORE DUP6 DUP4 KECCAK256 SWAP1 DUP2 SLOAD AND CALLER SUB PUSH2 0x3FD JUMPI PUSH1 0x3 ADD SWAP4 DUP5 SLOAD SWAP3 PUSH1 0xFF DUP5 AND SWAP3 DUP1 DUP5 LT ISZERO PUSH2 0x3ED JUMPI POP POP POP SWAP1 PUSH2 0x3DF PUSH1 0x1 SWAP4 SWAP3 ISZERO PUSH2 0xB3C JUMP JUMPDEST AND OR SWAP1 SSTORE PUSH1 0x1 DUP1 SSTORE MLOAD SWAP1 DUP2 MSTORE RETURN JUMPDEST PUSH4 0x4E487B71 PUSH1 0xE0 SHL DUP3 MSTORE PUSH1 0x21 SWAP1 MSTORE REVERT JUMPDEST DUP6 MLOAD PUSH3 0x461BCD PUSH1 0xE5 SHL DUP2 MSTORE DUP1 DUP4 ADD DUP10 SWAP1 MSTORE PUSH1 0x19 DUP2 DUP8 ADD MSTORE PUSH32 0x4F6E6C792062757965722063616E206C6F636B2066756E647300000000000000 PUSH1 0x44 DUP3 ADD MSTORE PUSH1 0x64 SWAP1 REVERT JUMPDEST PUSH2 0x45F SWAP2 POP DUP11 RETURNDATASIZE DUP13 GT PUSH2 0x465 JUMPI JUMPDEST PUSH2 0x457 DUP2 DUP4 PUSH2 0xA52 JUMP JUMPDEST DUP2 ADD SWAP1 PUSH2 0xA8A JUMP JUMPDEST DUP11 PUSH2 0x398 JUMP JUMPDEST POP RETURNDATASIZE PUSH2 0x44D JUMP JUMPDEST DUP8 MLOAD RETURNDATASIZE DUP7 DUP3 RETURNDATACOPY RETURNDATASIZE SWAP1 REVERT JUMPDEST PUSH4 0x4E487B71 PUSH1 0xE0 SHL DUP9 MSTORE PUSH1 0x21 DUP8 MSTORE DUP10 DUP9 REVERT JUMPDEST PUSH4 0x4E487B71 PUSH1 0xE0 SHL DUP6 MSTORE PUSH1 0x41 DUP5 MSTORE DUP7 DUP6 REVERT JUMPDEST DUP6 MLOAD PUSH3 0x461BCD PUSH1 0xE5 SHL DUP2 MSTORE PUSH1 0x20 DUP2 DUP5 ADD MSTORE PUSH1 0x2D DUP2 DUP8 ADD MSTORE PUSH32 0x496E76616C696420616D6F756E742120416D6F756E74206D7573742062652067 PUSH1 0x44 DUP3 ADD MSTORE PUSH13 0x726561746572207468616E203 PUSH1 0x9C SHL PUSH1 0x64 DUP3 ADD MSTORE PUSH1 0x84 SWAP1 REVERT JUMPDEST DUP6 MLOAD PUSH3 0x461BCD PUSH1 0xE5 SHL DUP2 MSTORE PUSH1 0x20 DUP2 DUP5 ADD MSTORE PUSH1 0x16 DUP2 DUP8 ADD MSTORE PUSH22 0x496E76616C69642073656C6C65722061646472657373 PUSH1 0x50 SHL PUSH1 0x44 DUP3 ADD MSTORE PUSH1 0x64 SWAP1 REVERT JUMPDEST DUP3 DUP5 CALLVALUE PUSH2 0x589 JUMPI PUSH1 0x20 CALLDATASIZE PUSH1 0x3 NOT ADD SLT PUSH2 0x589 JUMPI DUP2 PUSH2 0x585 SWAP2 DUP5 CALLDATALOAD DUP2 MSTORE PUSH1 0x2 PUSH1 0x20 MSTORE KECCAK256 SWAP2 PUSH1 0x1 DUP1 PUSH1 0xA0 SHL SUB SWAP3 DUP4 DUP2 SLOAD AND SWAP4 PUSH1 0x1 DUP3 ADD SLOAD AND SWAP5 PUSH1 0x2 DUP3 ADD SLOAD PUSH1 0x5 PUSH1 0xFF PUSH1 0x3 DUP6 ADD SLOAD AND SWAP3 DUP5 ADD SLOAD SWAP4 ADD SLOAD SWAP4 MLOAD SWAP7 DUP8 SWAP7 DUP8 PUSH2 0x98C JUMP JUMPDEST SUB SWAP1 RETURN JUMPDEST DUP1 REVERT JUMPDEST POP POP CALLVALUE PUSH2 0xDB JUMPI DUP2 PUSH1 0x3 NOT CALLDATASIZE ADD SLT PUSH2 0xDB JUMPI SWAP1 SLOAD SWAP1 MLOAD PUSH1 0x1 PUSH1 0x1 PUSH1 0xA0 SHL SUB SWAP1 SWAP2 AND DUP2 MSTORE PUSH1 0x20 SWAP1 RETURN JUMPDEST DUP4 CALLVALUE PUSH2 0x589 JUMPI DUP1 PUSH1 0x3 NOT CALLDATASIZE ADD SLT PUSH2 0x589 JUMPI PUSH2 0x5CD PUSH2 0x9FA JUMP JUMPDEST DUP1 SLOAD PUSH1 0x1 PUSH1 0x1 PUSH1 0xA0 SHL SUB NOT DUP2 AND DUP3 SSTORE DUP2 SWAP1 PUSH1 0x1 PUSH1 0x1 PUSH1 0xA0 SHL SUB AND PUSH32 0x8BE0079C531659141344CD1FD0A4F28419497F9722A3DAAFE3B4186F6B6457E0 DUP3 DUP1 LOG3 DUP1 RETURN JUMPDEST SWAP1 POP CALLVALUE PUSH2 0x107 JUMPI PUSH1 0x20 CALLDATASIZE PUSH1 0x3 NOT ADD SLT PUSH2 0x107 JUMPI PUSH2 0x629 PUSH2 0xAE6 JUMP JUMPDEST DUP1 CALLDATALOAD DUP4 MSTORE PUSH1 0x2 PUSH1 0x20 MSTORE DUP2 DUP4 KECCAK256 DUP1 SLOAD PUSH1 0x1 PUSH1 0x1 PUSH1 0xA0 SHL SUB SWAP2 SWAP1 DUP3 AND CALLER EQ DUP1 ISZERO PUSH2 0x727 JUMPI JUMPDEST PUSH2 0x655 SWAP1 PUSH2 0xB78 JUMP JUMPDEST PUSH1 0x3 DUP2 ADD DUP1 SLOAD PUSH1 0xFF DUP2 AND DUP6 DUP2 LT ISZERO PUSH2 0x714 JUMPI SWAP2 PUSH1 0x2 PUSH2 0x6C7 SWAP7 SWAP5 SWAP3 PUSH2 0x67F PUSH1 0x1 PUSH1 0x20 SWAP9 SWAP7 EQ PUSH2 0xB3C JUMP JUMPDEST PUSH1 0xFF NOT AND OR SWAP1 SSTORE DUP7 PUSH1 0x2 DUP4 DUP6 SLOAD AND SWAP4 PUSH1 0x1 DUP5 ADD SLOAD AND SWAP3 ADD SLOAD SWAP4 DUP8 MLOAD SWAP7 DUP8 SWAP6 DUP7 SWAP5 DUP6 SWAP4 PUSH4 0xA9059CBB PUSH1 0xE0 SHL DUP6 MSTORE DUP5 ADD PUSH1 0x20 SWAP1 SWAP4 SWAP3 SWAP2 SWAP4 PUSH1 0x40 DUP2 ADD SWAP5 PUSH1 0x1 DUP1 PUSH1 0xA0 SHL SUB AND DUP2 MSTORE ADD MSTORE JUMP JUMPDEST SUB SWAP3 GAS CALL SWAP1 DUP2 ISZERO PUSH2 0x708 JUMPI PUSH2 0x6E3 SWAP3 POP DUP4 SWAP2 PUSH2 0x6EA JUMPI POP PUSH2 0xAA2 JUMP JUMPDEST PUSH1 0x1 DUP1 SSTORE DUP1 RETURN JUMPDEST PUSH2 0x702 SWAP2 POP PUSH1 0x20 RETURNDATASIZE DUP2 GT PUSH2 0x465 JUMPI PUSH2 0x457 DUP2 DUP4 PUSH2 0xA52 JUMP JUMPDEST CODESIZE PUSH2 0x398 JUMP JUMPDEST POP POP MLOAD SWAP1 RETURNDATASIZE SWAP1 DUP3 RETURNDATACOPY RETURNDATASIZE SWAP1 REVERT JUMPDEST PUSH4 0x4E487B71 PUSH1 0xE0 SHL DUP9 MSTORE PUSH1 0x21 DUP7 MSTORE PUSH1 0x24 DUP9 REVERT JUMPDEST POP PUSH1 0x3 SLOAD DUP3 AND CALLER EQ PUSH2 0x64C JUMP JUMPDEST SWAP1 POP CALLVALUE PUSH2 0x107 JUMPI PUSH1 0x20 SWAP1 DUP2 PUSH1 0x3 NOT CALLDATASIZE ADD SLT PUSH2 0x8D3 JUMPI PUSH2 0x751 PUSH2 0xAE6 JUMP JUMPDEST DUP1 CALLDATALOAD DUP5 MSTORE PUSH1 0x2 DUP3 MSTORE DUP3 DUP5 KECCAK256 PUSH1 0x1 DUP2 ADD SLOAD PUSH1 0x1 PUSH1 0x1 PUSH1 0xA0 SHL SUB SWAP2 SWAP1 DUP3 AND CALLER EQ DUP1 ISZERO PUSH2 0x8C6 JUMPI JUMPDEST PUSH2 0x77F SWAP1 PUSH2 0xB78 JUMP JUMPDEST PUSH1 0x3 DUP2 ADD DUP1 SLOAD PUSH1 0xFF DUP2 AND DUP6 DUP2 LT ISZERO PUSH2 0x8B3 JUMPI PUSH1 0x1 PUSH2 0x79D SWAP2 EQ PUSH2 0xB3C JUMP JUMPDEST DUP5 DUP4 ADD SLOAD PUSH1 0x5 DUP5 ADD SLOAD DUP2 ADD DUP1 SWAP2 GT PUSH2 0x8A0 JUMPI TIMESTAMP LT DUP1 ISZERO SWAP1 PUSH2 0x893 JUMPI JUMPDEST ISZERO PUSH2 0x850 JUMPI PUSH1 0xFF NOT AND PUSH1 0x3 OR SWAP1 SSTORE DUP3 SLOAD DUP2 SLOAD PUSH1 0x2 SWAP1 SWAP3 ADD SLOAD DUP7 MLOAD PUSH4 0xA9059CBB PUSH1 0xE0 SHL DUP2 MSTORE PUSH1 0x1 PUSH1 0x1 PUSH1 0xA0 SHL SUB SWAP4 DUP6 AND SWAP4 SWAP1 SWAP4 AND SWAP5 DUP4 ADD SWAP5 DUP6 MSTORE PUSH1 0x20 DUP6 ADD MSTORE SWAP1 SWAP3 DUP5 SWAP3 DUP5 SWAP3 AND SWAP1 DUP3 SWAP1 DUP9 SWAP1 DUP3 SWAP1 PUSH1 0x40 ADD SUB SWAP3 GAS CALL SWAP2 DUP3 ISZERO PUSH2 0x843 JUMPI PUSH2 0x6E3 SWAP4 POP DUP5 SWAP3 PUSH2 0x826 JUMPI JUMPDEST POP POP PUSH2 0xAA2 JUMP JUMPDEST PUSH2 0x83C SWAP3 POP DUP1 RETURNDATASIZE LT PUSH2 0x465 JUMPI PUSH2 0x457 DUP2 DUP4 PUSH2 0xA52 JUMP JUMPDEST CODESIZE DUP1 PUSH2 0x81F JUMP JUMPDEST POP POP POP MLOAD SWAP1 RETURNDATASIZE SWAP1 DUP3 RETURNDATACOPY RETURNDATASIZE SWAP1 REVERT JUMPDEST DUP7 MLOAD PUSH3 0x461BCD PUSH1 0xE5 SHL DUP2 MSTORE DUP1 DUP7 ADD DUP8 SWAP1 MSTORE PUSH1 0x17 PUSH1 0x24 DUP3 ADD MSTORE PUSH32 0x4C6F636B20706572696F64206E6F742065787069726564000000000000000000 PUSH1 0x44 DUP3 ADD MSTORE PUSH1 0x64 SWAP1 REVERT JUMPDEST POP DUP4 PUSH1 0x3 SLOAD AND CALLER EQ PUSH2 0x7B9 JUMP JUMPDEST PUSH4 0x4E487B71 PUSH1 0xE0 SHL DUP10 MSTORE PUSH1 0x11 DUP7 MSTORE PUSH1 0x24 DUP10 REVERT JUMPDEST PUSH4 0x4E487B71 PUSH1 0xE0 SHL DUP10 MSTORE PUSH1 0x21 DUP7 MSTORE PUSH1 0x24 DUP10 REVERT JUMPDEST POP PUSH1 0x3 SLOAD DUP3 AND CALLER EQ PUSH2 0x776 JUMP JUMPDEST DUP4 DUP1 REVERT JUMPDEST DUP4 CALLVALUE PUSH2 0x589 JUMPI PUSH1 0x20 CALLDATASIZE PUSH1 0x3 NOT ADD SLT PUSH2 0x589 JUMPI PUSH2 0x8F1 PUSH2 0x9DF JUMP JUMPDEST PUSH2 0x8F9 PUSH2 0x9FA JUMP JUMPDEST PUSH1 0x1 DUP1 PUSH1 0xA0 SHL SUB AND PUSH12 0xFFFFFFFFFFFFFFFFFFFFFFFF PUSH1 0xA0 SHL PUSH1 0x3 SLOAD AND OR PUSH1 0x3 SSTORE DUP1 RETURN JUMPDEST POP POP CALLVALUE PUSH2 0xDB JUMPI DUP2 PUSH1 0x3 NOT CALLDATASIZE ADD SLT PUSH2 0xDB JUMPI PUSH1 0x20 SWAP1 MLOAD PUSH3 0x93A80 DUP2 MSTORE RETURN JUMPDEST DUP5 SWAP2 DUP5 CALLVALUE PUSH2 0x8D3 JUMPI PUSH1 0x20 CALLDATASIZE PUSH1 0x3 NOT ADD SLT PUSH2 0x8D3 JUMPI SWAP1 PUSH2 0x585 SWAP2 DUP4 SWAP5 DUP3 CALLDATALOAD DUP2 MSTORE PUSH1 0x2 PUSH1 0x20 MSTORE KECCAK256 PUSH1 0x1 DUP1 PUSH1 0xA0 SHL SUB SWAP2 DUP3 DUP3 SLOAD AND SWAP3 PUSH1 0x1 DUP4 ADD SLOAD AND PUSH1 0x2 DUP4 ADD SLOAD SWAP1 PUSH1 0x5 PUSH1 0xFF PUSH1 0x3 DUP7 ADD SLOAD AND SWAP4 DUP6 ADD SLOAD SWAP5 ADD SLOAD SWAP5 DUP8 JUMPDEST PUSH1 0x1 PUSH1 0x1 PUSH1 0xA0 SHL SUB SWAP2 DUP3 AND DUP2 MSTORE SWAP2 AND PUSH1 0x20 DUP3 ADD MSTORE PUSH1 0x40 DUP2 ADD SWAP2 SWAP1 SWAP2 MSTORE PUSH1 0xC0 DUP2 ADD SWAP5 SWAP4 SWAP3 PUSH1 0x4 DUP4 LT ISZERO PUSH2 0x9C9 JUMPI PUSH1 0xA0 SWAP3 PUSH1 0x60 DUP4 ADD MSTORE PUSH1 0x80 DUP3 ADD MSTORE ADD MSTORE JUMP JUMPDEST PUSH4 0x4E487B71 PUSH1 0xE0 SHL PUSH1 0x0 MSTORE PUSH1 0x21 PUSH1 0x4 MSTORE PUSH1 0x24 PUSH1 0x0 REVERT JUMPDEST PUSH1 0x4 CALLDATALOAD SWAP1 PUSH1 0x1 PUSH1 0x1 PUSH1 0xA0 SHL SUB DUP3 AND DUP3 SUB PUSH2 0x9F5 JUMPI JUMP JUMPDEST PUSH1 0x0 DUP1 REVERT JUMPDEST PUSH1 0x0 SLOAD PUSH1 0x1 PUSH1 0x1 PUSH1 0xA0 SHL SUB AND CALLER SUB PUSH2 0xA0E JUMPI JUMP JUMPDEST PUSH1 0x64 PUSH1 0x40 MLOAD PUSH3 0x461BCD PUSH1 0xE5 SHL DUP2 MSTORE PUSH1 0x20 PUSH1 0x4 DUP3 ADD MSTORE PUSH1 0x20 PUSH1 0x24 DUP3 ADD MSTORE PUSH32 0x4F776E61626C653A2063616C6C6572206973206E6F7420746865206F776E6572 PUSH1 0x44 DUP3 ADD MSTORE REVERT JUMPDEST SWAP1 PUSH1 0x1F DUP1 NOT SWAP2 ADD AND DUP2 ADD SWAP1 DUP2 LT PUSH8 0xFFFFFFFFFFFFFFFF DUP3 GT OR PUSH2 0xA74 JUMPI PUSH1 0x40 MSTORE JUMP JUMPDEST PUSH4 0x4E487B71 PUSH1 0xE0 SHL PUSH1 0x0 MSTORE PUSH1 0x41 PUSH1 0x4 MSTORE PUSH1 0x24 PUSH1 0x0 REVERT JUMPDEST SWAP1 DUP2 PUSH1 0x20 SWAP2 SUB SLT PUSH2 0x9F5 JUMPI MLOAD DUP1 ISZERO ISZERO DUP2 SUB PUSH2 0x9F5 JUMPI SWAP1 JUMP JUMPDEST ISZERO PUSH2 0xAA9 JUMPI JUMP JUMPDEST PUSH1 0x40 MLOAD PUSH3 0x461BCD PUSH1 0xE5 SHL DUP2 MSTORE PUSH1 0x20 PUSH1 0x4 DUP3 ADD MSTORE PUSH1 0x15 PUSH1 0x24 DUP3 ADD MSTORE PUSH21 0x151BDAD95B881D1C985B9CD9995C8819985A5B1959 PUSH1 0x5A SHL PUSH1 0x44 DUP3 ADD MSTORE PUSH1 0x64 SWAP1 REVERT JUMPDEST PUSH1 0x2 PUSH1 0x1 SLOAD EQ PUSH2 0xAF7 JUMPI PUSH1 0x2 PUSH1 0x1 SSTORE JUMP JUMPDEST PUSH1 0x40 MLOAD PUSH3 0x461BCD PUSH1 0xE5 SHL DUP2 MSTORE PUSH1 0x20 PUSH1 0x4 DUP3 ADD MSTORE PUSH1 0x1F PUSH1 0x24 DUP3 ADD MSTORE PUSH32 0x5265656E7472616E637947756172643A207265656E7472616E742063616C6C00 PUSH1 0x44 DUP3 ADD MSTORE PUSH1 0x64 SWAP1 REVERT JUMPDEST ISZERO PUSH2 0xB43 JUMPI JUMP JUMPDEST PUSH1 0x40 MLOAD PUSH3 0x461BCD PUSH1 0xE5 SHL DUP2 MSTORE PUSH1 0x20 PUSH1 0x4 DUP3 ADD MSTORE PUSH1 0xD PUSH1 0x24 DUP3 ADD MSTORE PUSH13 0x496E76616C6964207374617465 PUSH1 0x98 SHL PUSH1 0x44 DUP3 ADD MSTORE PUSH1 0x64 SWAP1 REVERT JUMPDEST ISZERO PUSH2 0xB7F JUMPI JUMP JUMPDEST PUSH1 0x40 MLOAD PUSH3 0x461BCD PUSH1 0xE5 SHL DUP2 MSTORE PUSH1 0x20 PUSH1 0x4 DUP3 ADD MSTORE PUSH1 0xC PUSH1 0x24 DUP3 ADD MSTORE PUSH12 0x155B985D5D1A1BDC9A5E9959 PUSH1 0xA2 SHL PUSH1 0x44 DUP3 ADD MSTORE PUSH1 0x64 SWAP1 REVERT INVALID LOG2 PUSH5 0x6970667358 0x22 SLT KECCAK256 PUSH28 0x8DF990844CEDFC1F6065513541B370A79A27103220A36EEA5774248C 0xD5 0xAE PC PUSH5 0x736F6C6343 STOP ADDMOD SLT STOP CALLER "
				},
				"gasEstimates": {
					"creation": {
						"codeDepositCost": "609800",
						"executionCost": "infinite",
						"totalCost": "infinite"
					},
					"external": {
						"LOCK_PERIOD()": "196",
						"arbiter()": "2560",
						"createTransaction(uint256,address,uint256)": "infinite",
						"getTransactionDetails(uint256)": "13109",
						"owner()": "2433",
						"refund(uint256)": "infinite",
						"releaseFunds(uint256)": "infinite",
						"renounceOwnership()": "28188",
						"setArbiter(address)": "26671",
						"token()": "2543",
						"transactions(uint256)": "13282",
						"transferOwnership(address)": "28411",
						"updateLockPeriod(uint256,uint256)": "24688"
					},
					"internal": {
						"lockFunds(uint256)": "infinite"
					}
				},
				"methodIdentifiers": {
					"LOCK_PERIOD()": "1820cabb",
					"arbiter()": "fe25e00a",
					"createTransaction(uint256,address,uint256)": "c0c473b0",
					"getTransactionDetails(uint256)": "0fa683d3",
					"owner()": "8da5cb5b",
					"refund(uint256)": "278ecde1",
					"releaseFunds(uint256)": "4d68282f",
					"renounceOwnership()": "715018a6",
					"setArbiter(address)": "1c9c088a",
					"token()": "fc0c546a",
					"transactions(uint256)": "9ace38c2",
					"transferOwnership(address)": "f2fde38b",
					"updateLockPeriod(uint256,uint256)": "d73a84e9"
				}
			},
			"storageLayout": {
				"storage": [
					{
						"astId": 7,
						"contract": "contracts/TurtleEscrow.sol:TurtleEscrow",
						"label": "_owner",
						"offset": 0,
						"slot": "0",
						"type": "t_address"
					},
					{
						"astId": 123,
						"contract": "contracts/TurtleEscrow.sol:TurtleEscrow",
						"label": "_status",
						"offset": 0,
						"slot": "1",
						"type": "t_uint256"
					},
					{
						"astId": 952,
						"contract": "contracts/TurtleEscrow.sol:TurtleEscrow",
						"label": "transactions",
						"offset": 0,
						"slot": "2",
						"type": "t_mapping(t_uint256,t_struct(Transaction)947_storage)"
					},
					{
						"astId": 954,
						"contract": "contracts/TurtleEscrow.sol:TurtleEscrow",
						"label": "arbiter",
						"offset": 0,
						"slot": "3",
						"type": "t_address"
					},
					{
						"astId": 960,
						"contract": "contracts/TurtleEscrow.sol:TurtleEscrow",
						"label": "token",
						"offset": 0,
						"slot": "4",
						"type": "t_contract(IERC20)244"
					}
				],
				"types": {
					"t_address": {
						"encoding": "inplace",
						"label": "address",
						"numberOfBytes": "20"
					},
					"t_contract(IERC20)244": {
						"encoding": "inplace",
						"label": "contract IERC20",
						"numberOfBytes": "20"
					},
					"t_enum(State)933": {
						"encoding": "inplace",
						"label": "enum TurtleEscrow.State",
						"numberOfBytes": "1"
					},
					"t_mapping(t_uint256,t_struct(Transaction)947_storage)": {
						"encoding": "mapping",
						"key": "t_uint256",
						"label": "mapping(uint256 => struct TurtleEscrow.Transaction)",
						"numberOfBytes": "32",
						"value": "t_struct(Transaction)947_storage"
					},
					"t_struct(Transaction)947_storage": {
						"encoding": "inplace",
						"label": "struct TurtleEscrow.Transaction",
						"members": [
							{
								"astId": 935,
								"contract": "contracts/TurtleEscrow.sol:TurtleEscrow",
								"label": "buyer",
								"offset": 0,
								"slot": "0",
								"type": "t_address"
							},
							{
								"astId": 937,
								"contract": "contracts/TurtleEscrow.sol:TurtleEscrow",
								"label": "seller",
								"offset": 0,
								"slot": "1",
								"type": "t_address"
							},
							{
								"astId": 939,
								"contract": "contracts/TurtleEscrow.sol:TurtleEscrow",
								"label": "amount",
								"offset": 0,
								"slot": "2",
								"type": "t_uint256"
							},
							{
								"astId": 942,
								"contract": "contracts/TurtleEscrow.sol:TurtleEscrow",
								"label": "state",
								"offset": 0,
								"slot": "3",
								"type": "t_enum(State)933"
							},
							{
								"astId": 944,
								"contract": "contracts/TurtleEscrow.sol:TurtleEscrow",
								"label": "createdAt",
								"offset": 0,
								"slot": "4",
								"type": "t_uint256"
							},
							{
								"astId": 946,
								"contract": "contracts/TurtleEscrow.sol:TurtleEscrow",
								"label": "lockPeriod",
								"offset": 0,
								"slot": "5",
								"type": "t_uint256"
							}
						],
						"numberOfBytes": "192"
					},
					"t_uint256": {
						"encoding": "inplace",
						"label": "uint256",
						"numberOfBytes": "32"
					}
				}
			},
			"userdoc": {
				"kind": "user",
				"methods": {
					"createTransaction(uint256,address,uint256)": {
						"notice": "CEI 패턴 적용(Checks-Effects-Interactions) - Checks: 입력 값 검증 먼저 수행 - Effects: 거래 정보 상태에 저장 - Interactions: 토큰 전송"
					},
					"refund(uint256)": {
						"notice": "CEI 패턴 적용(Checks-Effects-Interactions) - Checks: 권한, 상태, 잠금 기간 확인 수행 - Effects: 거래 상태 업데이트 - Interactions: 토큰 전송"
					},
					"releaseFunds(uint256)": {
						"notice": "CEI 패턴 적용(Checks-Effects-Interactions) - Checks: 권한 및 상태 확인 수행 - Effects: 거래 상태 업데이트 - Interactions: 토큰 전송"
					}
				},
				"notice": "이 컨트랙트는 거북이 거래 에스크로 서비스를 제공합니다.",
				"version": 1
			}
		}
	}
}