{
	"data": {
		"bytecode": {
			"linkReferences": {},
			"object": "6080346100f557601f610df738819003918201601f19168301916001600160401b038311848410176100fa578084926020946040528339810103126100f557516001600160a01b0390818116908190036100f5576000549160018060a01b0319923384821617600055604051913391167f8be0079c531659141344cd1fd0a4f28419497f9722a3daafe3b4186f6b6457e0600080a36001805581156100c1575081600554161760055533906004541617600455604051610ce690816101118239f35b62461bcd60e51b815260206004820152600f60248201526e496e76616c6964206164647265737360881b6044820152606490fd5b600080fd5b634e487b7160e01b600052604160045260246000fdfe6080604081815260048036101561001557600080fd5b600092833560e01c9081630fa683d314610a37575080631820cabb14610a195780631c9c088a146109d8578063278ecde11461080d5780634d68282f146106c6578063715018a61461066c5780638c8f95fb146105865780638da5cb5b1461055e5780639ace38c2146104ff578063b77bf600146104e0578063c0c473b014610269578063d73a84e9146101e1578063f2fde38b1461011f578063fc0c546a146100f25763fe25e00a146100c857600080fd5b346100ee57826003193601126100ee575490516001600160a01b03909116815260209150f35b8280fd5b50503461011b578160031936011261011b5760055490516001600160a01b039091168152602090f35b5080fd5b50346100ee5760203660031901126100ee57610139610adc565b90610142610af7565b6001600160a01b0391821692831561018f57505082546001600160a01b0319811683178455167f8be0079c531659141344cd1fd0a4f28419497f9722a3daafe3b4186f6b6457e08380a380f35b906020608492519162461bcd60e51b8352820152602660248201527f4f776e61626c653a206e6577206f776e657220697320746865207a65726f206160448201526564647265737360d01b6064820152fd5b5090346100ee57806003193601126100ee5781358352600260205282209061021d60018060a01b03808454163314908115610259575b50610c75565b60ff60038301541690808210156102465750600161023b9114610be3565b600560243591015580f35b634e487b7160e01b845260219052602483fd5b9050600184015416331438610217565b5091903461011b57606036600319011261011b576001600160a01b03602435818116948035949086830361011b576044359387156104a457841561044b57855160c0810181811067ffffffffffffffff821117610438578752338152876020809a81840190815289840189815260608501918883526002608087019442865260a088019662093a8088528b5252868c8a209651166bffffffffffffffffffffffff60a01b90818854161787558760018801925116908254161790555160028501556003840190518681101561042557815460ff191660ff919091161790555184830155516005918201555486516323b872dd60e01b815233938101938452306020850152604084018790529289928492169082908690829060600103925af191821561041a578694927fe9097a4f4eddc0e5906640fcd9e1193c9db52771536ca4c8b06ab4c40aa045d294926103c592916103ed575b50610b9f565b84513381526001600160a01b039190911660208201526040810191909152606090a251908152f35b61040d9150893d8b11610413575b6104058183610b4f565b810190610b87565b386103bf565b503d6103fb565b8551903d90823e3d90fd5b634e487b7160e01b885260218752602488fd5b634e487b7160e01b855260418452602485fd5b855162461bcd60e51b8152602081840152602d60248201527f496e76616c696420616d6f756e742120416d6f756e74206d757374206265206760448201526c0726561746572207468616e203609c1b6064820152608490fd5b855162461bcd60e51b81526020818401526016602482015275496e76616c69642073656c6c6572206164647265737360501b6044820152606490fd5b50503461011b578160031936011261011b576020906003549051908152f35b50913461055b57602036600319011261055b578161055791843581526002602052209160018060a01b03928381541693600182015416946002820154600560ff60038501541692840154930154935196879687610a89565b0390f35b80fd5b50503461011b578160031936011261011b57905490516001600160a01b039091168152602090f35b50346100ee5760203660031901126100ee578035916105a3610c1f565b828452600260205280842080549091906001600160a01b0316330361062a57506003019081549060ff821690808210156106175750906105e560019215610be3565b60ff19161790557f116c1aa90d7c9aeabdd6dc366dc0def60808db13d9c05023bde6fe57ca7625a88280a26001805580f35b634e487b7160e01b865260219052602485fd5b5162461bcd60e51b8152602081840152601960248201527f4f6e6c792062757965722063616e206c6f636b2066756e6473000000000000006044820152606490fd5b833461055b578060031936011261055b57610685610af7565b80546001600160a01b03198116825581906001600160a01b03167f8be0079c531659141344cd1fd0a4f28419497f9722a3daafe3b4186f6b6457e08280a380f35b50346100ee5760203660031901126100ee578035906106e3610c1f565b818452600260205282842080546001600160a01b039190821633148015610801575b61070e90610c75565b60038101805460ff8116858110156107ee5791600261078196949261073860016020989614610be3565b60ff19161790558760028360055416936001840154169201549388519687958694859363a9059cbb60e01b8552840160209093929193604081019460018060a01b031681520152565b03925af19081156107e15761079e92935084916107c95750610b9f565b7f952b264c8e0a06cddb4bbaa6d6af1d565145329fd95bbe72cb2b53942b2dc9668280a26001805580f35b61040d915060203d8111610413576104058183610b4f565b50505051903d90823e3d90fd5b634e487b7160e01b895260218652602489fd5b50825482163314610705565b50346100ee576020806003193601126109d45781359161082b610c1f565b8285526002825283852060018101546001600160a01b0391908216331480156109c8575b61085890610c75565b60038101805460ff8116858110156109b55760016108769114610be3565b84830154600584015481018091116109a2574210801590610996575b156109535760ff191660031790556005548154600290920154875163a9059cbb60e01b81526001600160a01b03938516939093169483019485526020850152909284928492169082908990829060400103925af191821561094957610901939450859261092c575b5050610b9f565b7fca4bd5135a11e3fc146ac22d75f0d2eae9b6c61b6fa3eb6724a456b311ad72d38280a26001805580f35b6109429250803d10610413576104058183610b4f565b38806108fa565b84513d87823e3d90fd5b875162461bcd60e51b8152808601879052601760248201527f4c6f636b20706572696f64206e6f7420657870697265640000000000000000006044820152606490fd5b50838554163314610892565b634e487b7160e01b8a526011865260248afd5b634e487b7160e01b8a526021865260248afd5b5082548216331461084f565b8380fd5b83823461011b57602036600319011261011b576109f3610adc565b6109fb610af7565b81546001600160a01b0319166001600160a01b039190911617905580f35b50503461011b578160031936011261011b576020905162093a808152f35b929050346109d45760203660031901126109d457906105579183948235815260026020522060018060a01b03918282541692600183015416600283015490600560ff6003860154169385015494015494875b6001600160a01b03918216815291166020820152604081019190915260c081019493926004831015610ac65760a092606083015260808201520152565b634e487b7160e01b600052602160045260246000fd5b600435906001600160a01b0382168203610af257565b600080fd5b6000546001600160a01b03163303610b0b57565b606460405162461bcd60e51b815260206004820152602060248201527f4f776e61626c653a2063616c6c6572206973206e6f7420746865206f776e65726044820152fd5b90601f8019910116810190811067ffffffffffffffff821117610b7157604052565b634e487b7160e01b600052604160045260246000fd5b90816020910312610af257518015158103610af25790565b15610ba657565b60405162461bcd60e51b8152602060048201526015602482015274151bdad95b881d1c985b9cd9995c8819985a5b1959605a1b6044820152606490fd5b15610bea57565b60405162461bcd60e51b815260206004820152600d60248201526c496e76616c696420737461746560981b6044820152606490fd5b600260015414610c30576002600155565b60405162461bcd60e51b815260206004820152601f60248201527f5265656e7472616e637947756172643a207265656e7472616e742063616c6c006044820152606490fd5b15610c7c57565b60405162461bcd60e51b815260206004820152600c60248201526b155b985d5d1a1bdc9a5e995960a21b6044820152606490fdfea264697066735822122057b09af15fea2df19c31f445f2be4f9393e0716f7c3b846f7a09c3cffc6050b264736f6c63430008120033",
			"opcodes": "PUSH1 0x80 CALLVALUE PUSH2 0xF5 JUMPI PUSH1 0x1F PUSH2 0xDF7 CODESIZE DUP2 SWAP1 SUB SWAP2 DUP3 ADD PUSH1 0x1F NOT AND DUP4 ADD SWAP2 PUSH1 0x1 PUSH1 0x1 PUSH1 0x40 SHL SUB DUP4 GT DUP5 DUP5 LT OR PUSH2 0xFA JUMPI DUP1 DUP5 SWAP3 PUSH1 0x20 SWAP5 PUSH1 0x40 MSTORE DUP4 CODECOPY DUP2 ADD SUB SLT PUSH2 0xF5 JUMPI MLOAD PUSH1 0x1 PUSH1 0x1 PUSH1 0xA0 SHL SUB SWAP1 DUP2 DUP2 AND SWAP1 DUP2 SWAP1 SUB PUSH2 0xF5 JUMPI PUSH1 0x0 SLOAD SWAP2 PUSH1 0x1 DUP1 PUSH1 0xA0 SHL SUB NOT SWAP3 CALLER DUP5 DUP3 AND OR PUSH1 0x0 SSTORE PUSH1 0x40 MLOAD SWAP2 CALLER SWAP2 AND PUSH32 0x8BE0079C531659141344CD1FD0A4F28419497F9722A3DAAFE3B4186F6B6457E0 PUSH1 0x0 DUP1 LOG3 PUSH1 0x1 DUP1 SSTORE DUP2 ISZERO PUSH2 0xC1 JUMPI POP DUP2 PUSH1 0x5 SLOAD AND OR PUSH1 0x5 SSTORE CALLER SWAP1 PUSH1 0x4 SLOAD AND OR PUSH1 0x4 SSTORE PUSH1 0x40 MLOAD PUSH2 0xCE6 SWAP1 DUP2 PUSH2 0x111 DUP3 CODECOPY RETURN JUMPDEST PUSH3 0x461BCD PUSH1 0xE5 SHL DUP2 MSTORE PUSH1 0x20 PUSH1 0x4 DUP3 ADD MSTORE PUSH1 0xF PUSH1 0x24 DUP3 ADD MSTORE PUSH15 0x496E76616C69642061646472657373 PUSH1 0x88 SHL PUSH1 0x44 DUP3 ADD MSTORE PUSH1 0x64 SWAP1 REVERT JUMPDEST PUSH1 0x0 DUP1 REVERT JUMPDEST PUSH4 0x4E487B71 PUSH1 0xE0 SHL PUSH1 0x0 MSTORE PUSH1 0x41 PUSH1 0x4 MSTORE PUSH1 0x24 PUSH1 0x0 REVERT INVALID PUSH1 0x80 PUSH1 0x40 DUP2 DUP2 MSTORE PUSH1 0x4 DUP1 CALLDATASIZE LT ISZERO PUSH2 0x15 JUMPI PUSH1 0x0 DUP1 REVERT JUMPDEST PUSH1 0x0 SWAP3 DUP4 CALLDATALOAD PUSH1 0xE0 SHR SWAP1 DUP2 PUSH4 0xFA683D3 EQ PUSH2 0xA37 JUMPI POP DUP1 PUSH4 0x1820CABB EQ PUSH2 0xA19 JUMPI DUP1 PUSH4 0x1C9C088A EQ PUSH2 0x9D8 JUMPI DUP1 PUSH4 0x278ECDE1 EQ PUSH2 0x80D JUMPI DUP1 PUSH4 0x4D68282F EQ PUSH2 0x6C6 JUMPI DUP1 PUSH4 0x715018A6 EQ PUSH2 0x66C JUMPI DUP1 PUSH4 0x8C8F95FB EQ PUSH2 0x586 JUMPI DUP1 PUSH4 0x8DA5CB5B EQ PUSH2 0x55E JUMPI DUP1 PUSH4 0x9ACE38C2 EQ PUSH2 0x4FF JUMPI DUP1 PUSH4 0xB77BF600 EQ PUSH2 0x4E0 JUMPI DUP1 PUSH4 0xC0C473B0 EQ PUSH2 0x269 JUMPI DUP1 PUSH4 0xD73A84E9 EQ PUSH2 0x1E1 JUMPI DUP1 PUSH4 0xF2FDE38B EQ PUSH2 0x11F JUMPI DUP1 PUSH4 0xFC0C546A EQ PUSH2 0xF2 JUMPI PUSH4 0xFE25E00A EQ PUSH2 0xC8 JUMPI PUSH1 0x0 DUP1 REVERT JUMPDEST CALLVALUE PUSH2 0xEE JUMPI DUP3 PUSH1 0x3 NOT CALLDATASIZE ADD SLT PUSH2 0xEE JUMPI SLOAD SWAP1 MLOAD PUSH1 0x1 PUSH1 0x1 PUSH1 0xA0 SHL SUB SWAP1 SWAP2 AND DUP2 MSTORE PUSH1 0x20 SWAP2 POP RETURN JUMPDEST DUP3 DUP1 REVERT JUMPDEST POP POP CALLVALUE PUSH2 0x11B JUMPI DUP2 PUSH1 0x3 NOT CALLDATASIZE ADD SLT PUSH2 0x11B JUMPI PUSH1 0x5 SLOAD SWAP1 MLOAD PUSH1 0x1 PUSH1 0x1 PUSH1 0xA0 SHL SUB SWAP1 SWAP2 AND DUP2 MSTORE PUSH1 0x20 SWAP1 RETURN JUMPDEST POP DUP1 REVERT JUMPDEST POP CALLVALUE PUSH2 0xEE JUMPI PUSH1 0x20 CALLDATASIZE PUSH1 0x3 NOT ADD SLT PUSH2 0xEE JUMPI PUSH2 0x139 PUSH2 0xADC JUMP JUMPDEST SWAP1 PUSH2 0x142 PUSH2 0xAF7 JUMP JUMPDEST PUSH1 0x1 PUSH1 0x1 PUSH1 0xA0 SHL SUB SWAP2 DUP3 AND SWAP3 DUP4 ISZERO PUSH2 0x18F JUMPI POP POP DUP3 SLOAD PUSH1 0x1 PUSH1 0x1 PUSH1 0xA0 SHL SUB NOT DUP2 AND DUP4 OR DUP5 SSTORE AND PUSH32 0x8BE0079C531659141344CD1FD0A4F28419497F9722A3DAAFE3B4186F6B6457E0 DUP4 DUP1 LOG3 DUP1 RETURN JUMPDEST SWAP1 PUSH1 0x20 PUSH1 0x84 SWAP3 MLOAD SWAP2 PUSH3 0x461BCD PUSH1 0xE5 SHL DUP4 MSTORE DUP3 ADD MSTORE PUSH1 0x26 PUSH1 0x24 DUP3 ADD MSTORE PUSH32 0x4F776E61626C653A206E6577206F776E657220697320746865207A65726F2061 PUSH1 0x44 DUP3 ADD MSTORE PUSH6 0x646472657373 PUSH1 0xD0 SHL PUSH1 0x64 DUP3 ADD MSTORE REVERT JUMPDEST POP SWAP1 CALLVALUE PUSH2 0xEE JUMPI DUP1 PUSH1 0x3 NOT CALLDATASIZE ADD SLT PUSH2 0xEE JUMPI DUP2 CALLDATALOAD DUP4 MSTORE PUSH1 0x2 PUSH1 0x20 MSTORE DUP3 KECCAK256 SWAP1 PUSH2 0x21D PUSH1 0x1 DUP1 PUSH1 0xA0 SHL SUB DUP1 DUP5 SLOAD AND CALLER EQ SWAP1 DUP2 ISZERO PUSH2 0x259 JUMPI JUMPDEST POP PUSH2 0xC75 JUMP JUMPDEST PUSH1 0xFF PUSH1 0x3 DUP4 ADD SLOAD AND SWAP1 DUP1 DUP3 LT ISZERO PUSH2 0x246 JUMPI POP PUSH1 0x1 PUSH2 0x23B SWAP2 EQ PUSH2 0xBE3 JUMP JUMPDEST PUSH1 0x5 PUSH1 0x24 CALLDATALOAD SWAP2 ADD SSTORE DUP1 RETURN JUMPDEST PUSH4 0x4E487B71 PUSH1 0xE0 SHL DUP5 MSTORE PUSH1 0x21 SWAP1 MSTORE PUSH1 0x24 DUP4 REVERT JUMPDEST SWAP1 POP PUSH1 0x1 DUP5 ADD SLOAD AND CALLER EQ CODESIZE PUSH2 0x217 JUMP JUMPDEST POP SWAP2 SWAP1 CALLVALUE PUSH2 0x11B JUMPI PUSH1 0x60 CALLDATASIZE PUSH1 0x3 NOT ADD SLT PUSH2 0x11B JUMPI PUSH1 0x1 PUSH1 0x1 PUSH1 0xA0 SHL SUB PUSH1 0x24 CALLDATALOAD DUP2 DUP2 AND SWAP5 DUP1 CALLDATALOAD SWAP5 SWAP1 DUP7 DUP4 SUB PUSH2 0x11B JUMPI PUSH1 0x44 CALLDATALOAD SWAP4 DUP8 ISZERO PUSH2 0x4A4 JUMPI DUP5 ISZERO PUSH2 0x44B JUMPI DUP6 MLOAD PUSH1 0xC0 DUP2 ADD DUP2 DUP2 LT PUSH8 0xFFFFFFFFFFFFFFFF DUP3 GT OR PUSH2 0x438 JUMPI DUP8 MSTORE CALLER DUP2 MSTORE DUP8 PUSH1 0x20 DUP1 SWAP11 DUP2 DUP5 ADD SWAP1 DUP2 MSTORE DUP10 DUP5 ADD DUP10 DUP2 MSTORE PUSH1 0x60 DUP6 ADD SWAP2 DUP9 DUP4 MSTORE PUSH1 0x2 PUSH1 0x80 DUP8 ADD SWAP5 TIMESTAMP DUP7 MSTORE PUSH1 0xA0 DUP9 ADD SWAP7 PUSH3 0x93A80 DUP9 MSTORE DUP12 MSTORE MSTORE DUP7 DUP13 DUP11 KECCAK256 SWAP7 MLOAD AND PUSH12 0xFFFFFFFFFFFFFFFFFFFFFFFF PUSH1 0xA0 SHL SWAP1 DUP2 DUP9 SLOAD AND OR DUP8 SSTORE DUP8 PUSH1 0x1 DUP9 ADD SWAP3 MLOAD AND SWAP1 DUP3 SLOAD AND OR SWAP1 SSTORE MLOAD PUSH1 0x2 DUP6 ADD SSTORE PUSH1 0x3 DUP5 ADD SWAP1 MLOAD DUP7 DUP2 LT ISZERO PUSH2 0x425 JUMPI DUP2 SLOAD PUSH1 0xFF NOT AND PUSH1 0xFF SWAP2 SWAP1 SWAP2 AND OR SWAP1 SSTORE MLOAD DUP5 DUP4 ADD SSTORE MLOAD PUSH1 0x5 SWAP2 DUP3 ADD SSTORE SLOAD DUP7 MLOAD PUSH4 0x23B872DD PUSH1 0xE0 SHL DUP2 MSTORE CALLER SWAP4 DUP2 ADD SWAP4 DUP5 MSTORE ADDRESS PUSH1 0x20 DUP6 ADD MSTORE PUSH1 0x40 DUP5 ADD DUP8 SWAP1 MSTORE SWAP3 DUP10 SWAP3 DUP5 SWAP3 AND SWAP1 DUP3 SWAP1 DUP7 SWAP1 DUP3 SWAP1 PUSH1 0x60 ADD SUB SWAP3 GAS CALL SWAP2 DUP3 ISZERO PUSH2 0x41A JUMPI DUP7 SWAP5 SWAP3 PUSH32 0xE9097A4F4EDDC0E5906640FCD9E1193C9DB52771536CA4C8B06AB4C40AA045D2 SWAP5 SWAP3 PUSH2 0x3C5 SWAP3 SWAP2 PUSH2 0x3ED JUMPI JUMPDEST POP PUSH2 0xB9F JUMP JUMPDEST DUP5 MLOAD CALLER DUP2 MSTORE PUSH1 0x1 PUSH1 0x1 PUSH1 0xA0 SHL SUB SWAP2 SWAP1 SWAP2 AND PUSH1 0x20 DUP3 ADD MSTORE PUSH1 0x40 DUP2 ADD SWAP2 SWAP1 SWAP2 MSTORE PUSH1 0x60 SWAP1 LOG2 MLOAD SWAP1 DUP2 MSTORE RETURN JUMPDEST PUSH2 0x40D SWAP2 POP DUP10 RETURNDATASIZE DUP12 GT PUSH2 0x413 JUMPI JUMPDEST PUSH2 0x405 DUP2 DUP4 PUSH2 0xB4F JUMP JUMPDEST DUP2 ADD SWAP1 PUSH2 0xB87 JUMP JUMPDEST CODESIZE PUSH2 0x3BF JUMP JUMPDEST POP RETURNDATASIZE PUSH2 0x3FB JUMP JUMPDEST DUP6 MLOAD SWAP1 RETURNDATASIZE SWAP1 DUP3 RETURNDATACOPY RETURNDATASIZE SWAP1 REVERT JUMPDEST PUSH4 0x4E487B71 PUSH1 0xE0 SHL DUP9 MSTORE PUSH1 0x21 DUP8 MSTORE PUSH1 0x24 DUP9 REVERT JUMPDEST PUSH4 0x4E487B71 PUSH1 0xE0 SHL DUP6 MSTORE PUSH1 0x41 DUP5 MSTORE PUSH1 0x24 DUP6 REVERT JUMPDEST DUP6 MLOAD PUSH3 0x461BCD PUSH1 0xE5 SHL DUP2 MSTORE PUSH1 0x20 DUP2 DUP5 ADD MSTORE PUSH1 0x2D PUSH1 0x24 DUP3 ADD MSTORE PUSH32 0x496E76616C696420616D6F756E742120416D6F756E74206D7573742062652067 PUSH1 0x44 DUP3 ADD MSTORE PUSH13 0x726561746572207468616E203 PUSH1 0x9C SHL PUSH1 0x64 DUP3 ADD MSTORE PUSH1 0x84 SWAP1 REVERT JUMPDEST DUP6 MLOAD PUSH3 0x461BCD PUSH1 0xE5 SHL DUP2 MSTORE PUSH1 0x20 DUP2 DUP5 ADD MSTORE PUSH1 0x16 PUSH1 0x24 DUP3 ADD MSTORE PUSH22 0x496E76616C69642073656C6C65722061646472657373 PUSH1 0x50 SHL PUSH1 0x44 DUP3 ADD MSTORE PUSH1 0x64 SWAP1 REVERT JUMPDEST POP POP CALLVALUE PUSH2 0x11B JUMPI DUP2 PUSH1 0x3 NOT CALLDATASIZE ADD SLT PUSH2 0x11B JUMPI PUSH1 0x20 SWAP1 PUSH1 0x3 SLOAD SWAP1 MLOAD SWAP1 DUP2 MSTORE RETURN JUMPDEST POP SWAP2 CALLVALUE PUSH2 0x55B JUMPI PUSH1 0x20 CALLDATASIZE PUSH1 0x3 NOT ADD SLT PUSH2 0x55B JUMPI DUP2 PUSH2 0x557 SWAP2 DUP5 CALLDATALOAD DUP2 MSTORE PUSH1 0x2 PUSH1 0x20 MSTORE KECCAK256 SWAP2 PUSH1 0x1 DUP1 PUSH1 0xA0 SHL SUB SWAP3 DUP4 DUP2 SLOAD AND SWAP4 PUSH1 0x1 DUP3 ADD SLOAD AND SWAP5 PUSH1 0x2 DUP3 ADD SLOAD PUSH1 0x5 PUSH1 0xFF PUSH1 0x3 DUP6 ADD SLOAD AND SWAP3 DUP5 ADD SLOAD SWAP4 ADD SLOAD SWAP4 MLOAD SWAP7 DUP8 SWAP7 DUP8 PUSH2 0xA89 JUMP JUMPDEST SUB SWAP1 RETURN JUMPDEST DUP1 REVERT JUMPDEST POP POP CALLVALUE PUSH2 0x11B JUMPI DUP2 PUSH1 0x3 NOT CALLDATASIZE ADD SLT PUSH2 0x11B JUMPI SWAP1 SLOAD SWAP1 MLOAD PUSH1 0x1 PUSH1 0x1 PUSH1 0xA0 SHL SUB SWAP1 SWAP2 AND DUP2 MSTORE PUSH1 0x20 SWAP1 RETURN JUMPDEST POP CALLVALUE PUSH2 0xEE JUMPI PUSH1 0x20 CALLDATASIZE PUSH1 0x3 NOT ADD SLT PUSH2 0xEE JUMPI DUP1 CALLDATALOAD SWAP2 PUSH2 0x5A3 PUSH2 0xC1F JUMP JUMPDEST DUP3 DUP5 MSTORE PUSH1 0x2 PUSH1 0x20 MSTORE DUP1 DUP5 KECCAK256 DUP1 SLOAD SWAP1 SWAP2 SWAP1 PUSH1 0x1 PUSH1 0x1 PUSH1 0xA0 SHL SUB AND CALLER SUB PUSH2 0x62A JUMPI POP PUSH1 0x3 ADD SWAP1 DUP2 SLOAD SWAP1 PUSH1 0xFF DUP3 AND SWAP1 DUP1 DUP3 LT ISZERO PUSH2 0x617 JUMPI POP SWAP1 PUSH2 0x5E5 PUSH1 0x1 SWAP3 ISZERO PUSH2 0xBE3 JUMP JUMPDEST PUSH1 0xFF NOT AND OR SWAP1 SSTORE PUSH32 0x116C1AA90D7C9AEABDD6DC366DC0DEF60808DB13D9C05023BDE6FE57CA7625A8 DUP3 DUP1 LOG2 PUSH1 0x1 DUP1 SSTORE DUP1 RETURN JUMPDEST PUSH4 0x4E487B71 PUSH1 0xE0 SHL DUP7 MSTORE PUSH1 0x21 SWAP1 MSTORE PUSH1 0x24 DUP6 REVERT JUMPDEST MLOAD PUSH3 0x461BCD PUSH1 0xE5 SHL DUP2 MSTORE PUSH1 0x20 DUP2 DUP5 ADD MSTORE PUSH1 0x19 PUSH1 0x24 DUP3 ADD MSTORE PUSH32 0x4F6E6C792062757965722063616E206C6F636B2066756E647300000000000000 PUSH1 0x44 DUP3 ADD MSTORE PUSH1 0x64 SWAP1 REVERT JUMPDEST DUP4 CALLVALUE PUSH2 0x55B JUMPI DUP1 PUSH1 0x3 NOT CALLDATASIZE ADD SLT PUSH2 0x55B JUMPI PUSH2 0x685 PUSH2 0xAF7 JUMP JUMPDEST DUP1 SLOAD PUSH1 0x1 PUSH1 0x1 PUSH1 0xA0 SHL SUB NOT DUP2 AND DUP3 SSTORE DUP2 SWAP1 PUSH1 0x1 PUSH1 0x1 PUSH1 0xA0 SHL SUB AND PUSH32 0x8BE0079C531659141344CD1FD0A4F28419497F9722A3DAAFE3B4186F6B6457E0 DUP3 DUP1 LOG3 DUP1 RETURN JUMPDEST POP CALLVALUE PUSH2 0xEE JUMPI PUSH1 0x20 CALLDATASIZE PUSH1 0x3 NOT ADD SLT PUSH2 0xEE JUMPI DUP1 CALLDATALOAD SWAP1 PUSH2 0x6E3 PUSH2 0xC1F JUMP JUMPDEST DUP2 DUP5 MSTORE PUSH1 0x2 PUSH1 0x20 MSTORE DUP3 DUP5 KECCAK256 DUP1 SLOAD PUSH1 0x1 PUSH1 0x1 PUSH1 0xA0 SHL SUB SWAP2 SWAP1 DUP3 AND CALLER EQ DUP1 ISZERO PUSH2 0x801 JUMPI JUMPDEST PUSH2 0x70E SWAP1 PUSH2 0xC75 JUMP JUMPDEST PUSH1 0x3 DUP2 ADD DUP1 SLOAD PUSH1 0xFF DUP2 AND DUP6 DUP2 LT ISZERO PUSH2 0x7EE JUMPI SWAP2 PUSH1 0x2 PUSH2 0x781 SWAP7 SWAP5 SWAP3 PUSH2 0x738 PUSH1 0x1 PUSH1 0x20 SWAP9 SWAP7 EQ PUSH2 0xBE3 JUMP JUMPDEST PUSH1 0xFF NOT AND OR SWAP1 SSTORE DUP8 PUSH1 0x2 DUP4 PUSH1 0x5 SLOAD AND SWAP4 PUSH1 0x1 DUP5 ADD SLOAD AND SWAP3 ADD SLOAD SWAP4 DUP9 MLOAD SWAP7 DUP8 SWAP6 DUP7 SWAP5 DUP6 SWAP4 PUSH4 0xA9059CBB PUSH1 0xE0 SHL DUP6 MSTORE DUP5 ADD PUSH1 0x20 SWAP1 SWAP4 SWAP3 SWAP2 SWAP4 PUSH1 0x40 DUP2 ADD SWAP5 PUSH1 0x1 DUP1 PUSH1 0xA0 SHL SUB AND DUP2 MSTORE ADD MSTORE JUMP JUMPDEST SUB SWAP3 GAS CALL SWAP1 DUP2 ISZERO PUSH2 0x7E1 JUMPI PUSH2 0x79E SWAP3 SWAP4 POP DUP5 SWAP2 PUSH2 0x7C9 JUMPI POP PUSH2 0xB9F JUMP JUMPDEST PUSH32 0x952B264C8E0A06CDDB4BBAA6D6AF1D565145329FD95BBE72CB2B53942B2DC966 DUP3 DUP1 LOG2 PUSH1 0x1 DUP1 SSTORE DUP1 RETURN JUMPDEST PUSH2 0x40D SWAP2 POP PUSH1 0x20 RETURNDATASIZE DUP2 GT PUSH2 0x413 JUMPI PUSH2 0x405 DUP2 DUP4 PUSH2 0xB4F JUMP JUMPDEST POP POP POP MLOAD SWAP1 RETURNDATASIZE SWAP1 DUP3 RETURNDATACOPY RETURNDATASIZE SWAP1 REVERT JUMPDEST PUSH4 0x4E487B71 PUSH1 0xE0 SHL DUP10 MSTORE PUSH1 0x21 DUP7 MSTORE PUSH1 0x24 DUP10 REVERT JUMPDEST POP DUP3 SLOAD DUP3 AND CALLER EQ PUSH2 0x705 JUMP JUMPDEST POP CALLVALUE PUSH2 0xEE JUMPI PUSH1 0x20 DUP1 PUSH1 0x3 NOT CALLDATASIZE ADD SLT PUSH2 0x9D4 JUMPI DUP2 CALLDATALOAD SWAP2 PUSH2 0x82B PUSH2 0xC1F JUMP JUMPDEST DUP3 DUP6 MSTORE PUSH1 0x2 DUP3 MSTORE DUP4 DUP6 KECCAK256 PUSH1 0x1 DUP2 ADD SLOAD PUSH1 0x1 PUSH1 0x1 PUSH1 0xA0 SHL SUB SWAP2 SWAP1 DUP3 AND CALLER EQ DUP1 ISZERO PUSH2 0x9C8 JUMPI JUMPDEST PUSH2 0x858 SWAP1 PUSH2 0xC75 JUMP JUMPDEST PUSH1 0x3 DUP2 ADD DUP1 SLOAD PUSH1 0xFF DUP2 AND DUP6 DUP2 LT ISZERO PUSH2 0x9B5 JUMPI PUSH1 0x1 PUSH2 0x876 SWAP2 EQ PUSH2 0xBE3 JUMP JUMPDEST DUP5 DUP4 ADD SLOAD PUSH1 0x5 DUP5 ADD SLOAD DUP2 ADD DUP1 SWAP2 GT PUSH2 0x9A2 JUMPI TIMESTAMP LT DUP1 ISZERO SWAP1 PUSH2 0x996 JUMPI JUMPDEST ISZERO PUSH2 0x953 JUMPI PUSH1 0xFF NOT AND PUSH1 0x3 OR SWAP1 SSTORE PUSH1 0x5 SLOAD DUP2 SLOAD PUSH1 0x2 SWAP1 SWAP3 ADD SLOAD DUP8 MLOAD PUSH4 0xA9059CBB PUSH1 0xE0 SHL DUP2 MSTORE PUSH1 0x1 PUSH1 0x1 PUSH1 0xA0 SHL SUB SWAP4 DUP6 AND SWAP4 SWAP1 SWAP4 AND SWAP5 DUP4 ADD SWAP5 DUP6 MSTORE PUSH1 0x20 DUP6 ADD MSTORE SWAP1 SWAP3 DUP5 SWAP3 DUP5 SWAP3 AND SWAP1 DUP3 SWAP1 DUP10 SWAP1 DUP3 SWAP1 PUSH1 0x40 ADD SUB SWAP3 GAS CALL SWAP2 DUP3 ISZERO PUSH2 0x949 JUMPI PUSH2 0x901 SWAP4 SWAP5 POP DUP6 SWAP3 PUSH2 0x92C JUMPI JUMPDEST POP POP PUSH2 0xB9F JUMP JUMPDEST PUSH32 0xCA4BD5135A11E3FC146AC22D75F0D2EAE9B6C61B6FA3EB6724A456B311AD72D3 DUP3 DUP1 LOG2 PUSH1 0x1 DUP1 SSTORE DUP1 RETURN JUMPDEST PUSH2 0x942 SWAP3 POP DUP1 RETURNDATASIZE LT PUSH2 0x413 JUMPI PUSH2 0x405 DUP2 DUP4 PUSH2 0xB4F JUMP JUMPDEST CODESIZE DUP1 PUSH2 0x8FA JUMP JUMPDEST DUP5 MLOAD RETURNDATASIZE DUP8 DUP3 RETURNDATACOPY RETURNDATASIZE SWAP1 REVERT JUMPDEST DUP8 MLOAD PUSH3 0x461BCD PUSH1 0xE5 SHL DUP2 MSTORE DUP1 DUP7 ADD DUP8 SWAP1 MSTORE PUSH1 0x17 PUSH1 0x24 DUP3 ADD MSTORE PUSH32 0x4C6F636B20706572696F64206E6F742065787069726564000000000000000000 PUSH1 0x44 DUP3 ADD MSTORE PUSH1 0x64 SWAP1 REVERT JUMPDEST POP DUP4 DUP6 SLOAD AND CALLER EQ PUSH2 0x892 JUMP JUMPDEST PUSH4 0x4E487B71 PUSH1 0xE0 SHL DUP11 MSTORE PUSH1 0x11 DUP7 MSTORE PUSH1 0x24 DUP11 REVERT JUMPDEST PUSH4 0x4E487B71 PUSH1 0xE0 SHL DUP11 MSTORE PUSH1 0x21 DUP7 MSTORE PUSH1 0x24 DUP11 REVERT JUMPDEST POP DUP3 SLOAD DUP3 AND CALLER EQ PUSH2 0x84F JUMP JUMPDEST DUP4 DUP1 REVERT JUMPDEST DUP4 DUP3 CALLVALUE PUSH2 0x11B JUMPI PUSH1 0x20 CALLDATASIZE PUSH1 0x3 NOT ADD SLT PUSH2 0x11B JUMPI PUSH2 0x9F3 PUSH2 0xADC JUMP JUMPDEST PUSH2 0x9FB PUSH2 0xAF7 JUMP JUMPDEST DUP2 SLOAD PUSH1 0x1 PUSH1 0x1 PUSH1 0xA0 SHL SUB NOT AND PUSH1 0x1 PUSH1 0x1 PUSH1 0xA0 SHL SUB SWAP2 SWAP1 SWAP2 AND OR SWAP1 SSTORE DUP1 RETURN JUMPDEST POP POP CALLVALUE PUSH2 0x11B JUMPI DUP2 PUSH1 0x3 NOT CALLDATASIZE ADD SLT PUSH2 0x11B JUMPI PUSH1 0x20 SWAP1 MLOAD PUSH3 0x93A80 DUP2 MSTORE RETURN JUMPDEST SWAP3 SWAP1 POP CALLVALUE PUSH2 0x9D4 JUMPI PUSH1 0x20 CALLDATASIZE PUSH1 0x3 NOT ADD SLT PUSH2 0x9D4 JUMPI SWAP1 PUSH2 0x557 SWAP2 DUP4 SWAP5 DUP3 CALLDATALOAD DUP2 MSTORE PUSH1 0x2 PUSH1 0x20 MSTORE KECCAK256 PUSH1 0x1 DUP1 PUSH1 0xA0 SHL SUB SWAP2 DUP3 DUP3 SLOAD AND SWAP3 PUSH1 0x1 DUP4 ADD SLOAD AND PUSH1 0x2 DUP4 ADD SLOAD SWAP1 PUSH1 0x5 PUSH1 0xFF PUSH1 0x3 DUP7 ADD SLOAD AND SWAP4 DUP6 ADD SLOAD SWAP5 ADD SLOAD SWAP5 DUP8 JUMPDEST PUSH1 0x1 PUSH1 0x1 PUSH1 0xA0 SHL SUB SWAP2 DUP3 AND DUP2 MSTORE SWAP2 AND PUSH1 0x20 DUP3 ADD MSTORE PUSH1 0x40 DUP2 ADD SWAP2 SWAP1 SWAP2 MSTORE PUSH1 0xC0 DUP2 ADD SWAP5 SWAP4 SWAP3 PUSH1 0x4 DUP4 LT ISZERO PUSH2 0xAC6 JUMPI PUSH1 0xA0 SWAP3 PUSH1 0x60 DUP4 ADD MSTORE PUSH1 0x80 DUP3 ADD MSTORE ADD MSTORE JUMP JUMPDEST PUSH4 0x4E487B71 PUSH1 0xE0 SHL PUSH1 0x0 MSTORE PUSH1 0x21 PUSH1 0x4 MSTORE PUSH1 0x24 PUSH1 0x0 REVERT JUMPDEST PUSH1 0x4 CALLDATALOAD SWAP1 PUSH1 0x1 PUSH1 0x1 PUSH1 0xA0 SHL SUB DUP3 AND DUP3 SUB PUSH2 0xAF2 JUMPI JUMP JUMPDEST PUSH1 0x0 DUP1 REVERT JUMPDEST PUSH1 0x0 SLOAD PUSH1 0x1 PUSH1 0x1 PUSH1 0xA0 SHL SUB AND CALLER SUB PUSH2 0xB0B JUMPI JUMP JUMPDEST PUSH1 0x64 PUSH1 0x40 MLOAD PUSH3 0x461BCD PUSH1 0xE5 SHL DUP2 MSTORE PUSH1 0x20 PUSH1 0x4 DUP3 ADD MSTORE PUSH1 0x20 PUSH1 0x24 DUP3 ADD MSTORE PUSH32 0x4F776E61626C653A2063616C6C6572206973206E6F7420746865206F776E6572 PUSH1 0x44 DUP3 ADD MSTORE REVERT JUMPDEST SWAP1 PUSH1 0x1F DUP1 NOT SWAP2 ADD AND DUP2 ADD SWAP1 DUP2 LT PUSH8 0xFFFFFFFFFFFFFFFF DUP3 GT OR PUSH2 0xB71 JUMPI PUSH1 0x40 MSTORE JUMP JUMPDEST PUSH4 0x4E487B71 PUSH1 0xE0 SHL PUSH1 0x0 MSTORE PUSH1 0x41 PUSH1 0x4 MSTORE PUSH1 0x24 PUSH1 0x0 REVERT JUMPDEST SWAP1 DUP2 PUSH1 0x20 SWAP2 SUB SLT PUSH2 0xAF2 JUMPI MLOAD DUP1 ISZERO ISZERO DUP2 SUB PUSH2 0xAF2 JUMPI SWAP1 JUMP JUMPDEST ISZERO PUSH2 0xBA6 JUMPI JUMP JUMPDEST PUSH1 0x40 MLOAD PUSH3 0x461BCD PUSH1 0xE5 SHL DUP2 MSTORE PUSH1 0x20 PUSH1 0x4 DUP3 ADD MSTORE PUSH1 0x15 PUSH1 0x24 DUP3 ADD MSTORE PUSH21 0x151BDAD95B881D1C985B9CD9995C8819985A5B1959 PUSH1 0x5A SHL PUSH1 0x44 DUP3 ADD MSTORE PUSH1 0x64 SWAP1 REVERT JUMPDEST ISZERO PUSH2 0xBEA JUMPI JUMP JUMPDEST PUSH1 0x40 MLOAD PUSH3 0x461BCD PUSH1 0xE5 SHL DUP2 MSTORE PUSH1 0x20 PUSH1 0x4 DUP3 ADD MSTORE PUSH1 0xD PUSH1 0x24 DUP3 ADD MSTORE PUSH13 0x496E76616C6964207374617465 PUSH1 0x98 SHL PUSH1 0x44 DUP3 ADD MSTORE PUSH1 0x64 SWAP1 REVERT JUMPDEST PUSH1 0x2 PUSH1 0x1 SLOAD EQ PUSH2 0xC30 JUMPI PUSH1 0x2 PUSH1 0x1 SSTORE JUMP JUMPDEST PUSH1 0x40 MLOAD PUSH3 0x461BCD PUSH1 0xE5 SHL DUP2 MSTORE PUSH1 0x20 PUSH1 0x4 DUP3 ADD MSTORE PUSH1 0x1F PUSH1 0x24 DUP3 ADD MSTORE PUSH32 0x5265656E7472616E637947756172643A207265656E7472616E742063616C6C00 PUSH1 0x44 DUP3 ADD MSTORE PUSH1 0x64 SWAP1 REVERT JUMPDEST ISZERO PUSH2 0xC7C JUMPI JUMP JUMPDEST PUSH1 0x40 MLOAD PUSH3 0x461BCD PUSH1 0xE5 SHL DUP2 MSTORE PUSH1 0x20 PUSH1 0x4 DUP3 ADD MSTORE PUSH1 0xC PUSH1 0x24 DUP3 ADD MSTORE PUSH12 0x155B985D5D1A1BDC9A5E9959 PUSH1 0xA2 SHL PUSH1 0x44 DUP3 ADD MSTORE PUSH1 0x64 SWAP1 REVERT INVALID LOG2 PUSH5 0x6970667358 0x22 SLT KECCAK256 JUMPI 0xB0 SWAP11 CALL 0x5F 0xEA 0x2D CALL SWAP13 BALANCE DELEGATECALL GASLIMIT CALLCODE 0xBE 0x4F SWAP4 SWAP4 0xE0 PUSH18 0x6F7C3B846F7A09C3CFFC6050B264736F6C63 NUMBER STOP ADDMOD SLT STOP CALLER "
		},
		"gasEstimates": {
			"creation": {
				"codeDepositCost": "660400",
				"executionCost": "infinite",
				"totalCost": "infinite"
			},
			"external": {
				"LOCK_PERIOD()": "193",
				"arbiter()": "2598",
				"createTransaction(uint256,address,uint256)": "infinite",
				"getTransactionDetails(uint256)": "13105",
				"lockFunds(uint256)": "74318",
				"owner()": "2452",
				"refund(uint256)": "infinite",
				"releaseFunds(uint256)": "infinite",
				"renounceOwnership()": "28185",
				"setArbiter(address)": "26689",
				"token()": "2584",
				"transactionCount()": "2475",
				"transactions(uint256)": "13300",
				"transferOwnership(address)": "28449",
				"updateLockPeriod(uint256,uint256)": "29101"
			}
		},
		"methodIdentifiers": {
			"LOCK_PERIOD()": "1820cabb",
			"arbiter()": "fe25e00a",
			"createTransaction(uint256,address,uint256)": "c0c473b0",
			"getTransactionDetails(uint256)": "0fa683d3",
			"lockFunds(uint256)": "8c8f95fb",
			"owner()": "8da5cb5b",
			"refund(uint256)": "278ecde1",
			"releaseFunds(uint256)": "4d68282f",
			"renounceOwnership()": "715018a6",
			"setArbiter(address)": "1c9c088a",
			"token()": "fc0c546a",
			"transactionCount()": "b77bf600",
			"transactions(uint256)": "9ace38c2",
			"transferOwnership(address)": "f2fde38b",
			"updateLockPeriod(uint256,uint256)": "d73a84e9"
		}
	},
	"abi": [
		{
			"inputs": [
				{
					"internalType": "address",
					"name": "_token",
					"type": "address"
				}
			],
			"stateMutability": "nonpayable",
			"type": "constructor"
		},
		{
			"anonymous": false,
			"inputs": [
				{
					"indexed": true,
					"internalType": "uint256",
					"name": "transactionId",
					"type": "uint256"
				}
			],
			"name": "FundsLocked",
			"type": "event"
		},
		{
			"anonymous": false,
			"inputs": [
				{
					"indexed": true,
					"internalType": "uint256",
					"name": "transactionId",
					"type": "uint256"
				}
			],
			"name": "FundsRefunded",
			"type": "event"
		},
		{
			"anonymous": false,
			"inputs": [
				{
					"indexed": true,
					"internalType": "uint256",
					"name": "transactionId",
					"type": "uint256"
				}
			],
			"name": "FundsReleased",
			"type": "event"
		},
		{
			"anonymous": false,
			"inputs": [
				{
					"indexed": true,
					"internalType": "address",
					"name": "previousOwner",
					"type": "address"
				},
				{
					"indexed": true,
					"internalType": "address",
					"name": "newOwner",
					"type": "address"
				}
			],
			"name": "OwnershipTransferred",
			"type": "event"
		},
		{
			"anonymous": false,
			"inputs": [
				{
					"indexed": true,
					"internalType": "uint256",
					"name": "transactionId",
					"type": "uint256"
				},
				{
					"indexed": false,
					"internalType": "address",
					"name": "buyer",
					"type": "address"
				},
				{
					"indexed": false,
					"internalType": "address",
					"name": "seller",
					"type": "address"
				},
				{
					"indexed": false,
					"internalType": "uint256",
					"name": "amount",
					"type": "uint256"
				}
			],
			"name": "TransactionCreated",
			"type": "event"
		},
		{
			"inputs": [],
			"name": "LOCK_PERIOD",
			"outputs": [
				{
					"internalType": "uint256",
					"name": "",
					"type": "uint256"
				}
			],
			"stateMutability": "view",
			"type": "function"
		},
		{
			"inputs": [],
			"name": "arbiter",
			"outputs": [
				{
					"internalType": "address",
					"name": "",
					"type": "address"
				}
			],
			"stateMutability": "view",
			"type": "function"
		},
		{
			"inputs": [
				{
					"internalType": "uint256",
					"name": "_transactionId",
					"type": "uint256"
				},
				{
					"internalType": "address",
					"name": "_seller",
					"type": "address"
				},
				{
					"internalType": "uint256",
					"name": "_amount",
					"type": "uint256"
				}
			],
			"name": "createTransaction",
			"outputs": [
				{
					"internalType": "uint256",
					"name": "",
					"type": "uint256"
				}
			],
			"stateMutability": "nonpayable",
			"type": "function"
		},
		{
			"inputs": [
				{
					"internalType": "uint256",
					"name": "_transactionId",
					"type": "uint256"
				}
			],
			"name": "getTransactionDetails",
			"outputs": [
				{
					"internalType": "address",
					"name": "",
					"type": "address"
				},
				{
					"internalType": "address",
					"name": "",
					"type": "address"
				},
				{
					"internalType": "uint256",
					"name": "",
					"type": "uint256"
				},
				{
					"internalType": "enum TurtleEscrow.State",
					"name": "",
					"type": "uint8"
				},
				{
					"internalType": "uint256",
					"name": "",
					"type": "uint256"
				},
				{
					"internalType": "uint256",
					"name": "",
					"type": "uint256"
				}
			],
			"stateMutability": "view",
			"type": "function"
		},
		{
			"inputs": [
				{
					"internalType": "uint256",
					"name": "_transactionId",
					"type": "uint256"
				}
			],
			"name": "lockFunds",
			"outputs": [],
			"stateMutability": "nonpayable",
			"type": "function"
		},
		{
			"inputs": [],
			"name": "owner",
			"outputs": [
				{
					"internalType": "address",
					"name": "",
					"type": "address"
				}
			],
			"stateMutability": "view",
			"type": "function"
		},
		{
			"inputs": [
				{
					"internalType": "uint256",
					"name": "_transactionId",
					"type": "uint256"
				}
			],
			"name": "refund",
			"outputs": [],
			"stateMutability": "nonpayable",
			"type": "function"
		},
		{
			"inputs": [
				{
					"internalType": "uint256",
					"name": "_transactionId",
					"type": "uint256"
				}
			],
			"name": "releaseFunds",
			"outputs": [],
			"stateMutability": "nonpayable",
			"type": "function"
		},
		{
			"inputs": [],
			"name": "renounceOwnership",
			"outputs": [],
			"stateMutability": "nonpayable",
			"type": "function"
		},
		{
			"inputs": [
				{
					"internalType": "address",
					"name": "_newArbiter",
					"type": "address"
				}
			],
			"name": "setArbiter",
			"outputs": [],
			"stateMutability": "nonpayable",
			"type": "function"
		},
		{
			"inputs": [],
			"name": "token",
			"outputs": [
				{
					"internalType": "contract IERC20",
					"name": "",
					"type": "address"
				}
			],
			"stateMutability": "view",
			"type": "function"
		},
		{
			"inputs": [],
			"name": "transactionCount",
			"outputs": [
				{
					"internalType": "uint256",
					"name": "",
					"type": "uint256"
				}
			],
			"stateMutability": "view",
			"type": "function"
		},
		{
			"inputs": [
				{
					"internalType": "uint256",
					"name": "",
					"type": "uint256"
				}
			],
			"name": "transactions",
			"outputs": [
				{
					"internalType": "address",
					"name": "buyer",
					"type": "address"
				},
				{
					"internalType": "address",
					"name": "seller",
					"type": "address"
				},
				{
					"internalType": "uint256",
					"name": "amount",
					"type": "uint256"
				},
				{
					"internalType": "enum TurtleEscrow.State",
					"name": "state",
					"type": "uint8"
				},
				{
					"internalType": "uint256",
					"name": "createdAt",
					"type": "uint256"
				},
				{
					"internalType": "uint256",
					"name": "lockPeriod",
					"type": "uint256"
				}
			],
			"stateMutability": "view",
			"type": "function"
		},
		{
			"inputs": [
				{
					"internalType": "address",
					"name": "newOwner",
					"type": "address"
				}
			],
			"name": "transferOwnership",
			"outputs": [],
			"stateMutability": "nonpayable",
			"type": "function"
		},
		{
			"inputs": [
				{
					"internalType": "uint256",
					"name": "_transactionId",
					"type": "uint256"
				},
				{
					"internalType": "uint256",
					"name": "_newLockPeriod",
					"type": "uint256"
				}
			],
			"name": "updateLockPeriod",
			"outputs": [],
			"stateMutability": "nonpayable",
			"type": "function"
		}
	]
}