{
	"data": {
		"bytecode": {
			"linkReferences": {},
			"object": "6080806040523461005b5760008054336001600160a01b0319821681178355916001600160a01b03909116907f8be0079c531659141344cd1fd0a4f28419497f9722a3daafe3b4186f6b6457e09080a361230590816100618239f35b600080fdfe6080604052600436101561001257600080fd5b60003560e01c80631294ffcf14611c0f57806317aa1f4814611a745780631a0642ef146118205780631b979af1146117d4578063229aa9141461177e57806322d2378f1461174457806330a8f8b9146114d8578063358a3d371461111b578063482346bd14611094578063596c442a14610e56578063673ae4c114610b6b5780636c1dcaf814610895578063715018a61461083c5780637ca2d3cd1461072d5780638da5cb5b14610704578063997480e51461065c578063ce5f0b7d1461021b578063f2fde38b146101505763f3cb197d146100ed57600080fd5b3461014b57602036600319011261014b576004356001600160401b03811161014b5760046101376020610124819436908501611cd3565b8160405193828580945193849201611d5a565b810160018152030190200154604051908152f35b600080fd5b3461014b57602036600319011261014b576004356001600160a01b038181169182900361014b5761017f611da2565b81156101c757600054826bffffffffffffffffffffffff60a01b821617600055167f8be0079c531659141344cd1fd0a4f28419497f9722a3daafe3b4186f6b6457e0600080a3005b60405162461bcd60e51b815260206004820152602660248201527f4f776e61626c653a206e6577206f776e657220697320746865207a65726f206160448201526564647265737360d01b6064820152608490fd5b3461014b57606036600319011261014b576001600160401b0360043581811161014b5761024c903690600401611cd3565b602490813583811161014b57610266903690600401611cd3565b9260443590811161014b5761027f903690600401611cd3565b916040518251916020916102b660ff60098588019661029f81868a611d5a565b840193868160019687815203019020015416612107565b604051938751848901906102cb818884611d5a565b860195858160029889815203019020541561060d5760008381815b610563575b505015610514578461030891604051809381928d51928391611d5a565b810188815203019020906000835b61038a575b898961036261035c6103568c610351818e8e6040518092826103438c84815193849201611d5a565b820190815203019020611fd3565b61201b565b9361201b565b9161201b565b917f80d739977bb0030fd7e876dc1ca9a667adfc1b71fea4820c4266de2ee6d6c657600080a4005b82548082101561050e57908392916103a3828796611e46565b506040516103c6816103b88c82018095612170565b03601f198101835282611cb2565b5190208a6040516103ef8b8281810194516103e281878c611d5a565b8101038084520182611cb2565b5190201461040a575b506104029061214b565b909192610316565b9293509091600019908181019081116104f9576104279085611e46565b506104328386611e46565b6104e45790610440916121f3565b835480156104cf57016104538185611e46565b6104ba5791610402918361046a8897969554611e74565b908161047b575b50508455906103f8565b600091601f8c81831160011461049757505050555b8d80610471565b83916104b39186949585528420940160051c84018b8501611eae565b5555610490565b86634e487b7160e01b60005260006004526000fd5b86634e487b7160e01b60005260316004526000fd5b87634e487b7160e01b60005260006004526000fd5b86634e487b7160e01b60005260116004526000fd5b5061031b565b60405162461bcd60e51b8152600481018690526022818601527f4f6c64206f776e657220646f6573206e6f74206f776e207468697320747572746044820152616c6560f01b6064820152608490fd5b878c8a6040518381845161057881838d611d5a565b81018481520301902054841015610605576105af928492604051928391516105a181848d611d5a565b820190815203019020611e46565b506040516105c4816103b88c82018095612170565b519020858b6105e48b60405180936103e283830196879251928391611d5a565b519020146105fb576105f59061214b565b816102e6565b509050838b6102eb565b5050506102eb565b60405162461bcd60e51b8152600481018690526022818601527f4f6c64206f776e657220646f6573206e6f74206f776e20616e7920747572746c604482015261657360f01b6064820152608490fd5b3461014b57602036600319011261014b576004356001600160401b03811161014b5760056106d86020610696610700943690600401611cd3565b604051906106c760ff60098351948681818701976106b581838b611d5a565b81016001815203019020015416612107565b604051938492839251928391611d5a565b6001908201908152030190200154604080518215158152602081019290925290918291820190565b0390f35b3461014b57600036600319011261014b576000546040516001600160a01b039091168152602090f35b3461014b57606036600319011261014b576001600160401b0360043581811161014b5761075e903690600401611cd3565b9060243590811161014b5761035c61077d610814923690600401611cd3565b92610786611da2565b60096107ce60206040516107bd60ff858751938581818b01966107aa81838a611d5a565b8101600181520301902001541615611dfa565b604051809381928751928391611d5a565b81016001815203019020604435600882015501600160ff198254161790556103518160405160208188516108058183858d01611d5a565b81016002815203019020611fd3565b907f7d904e478df0f515c7058df56a2295c88f46c97f269f153cb964c1574e4ad9e8600080a3005b3461014b57600036600319011261014b57610855611da2565b600080546001600160a01b0319811682556001600160a01b03167f8be0079c531659141344cd1fd0a4f28419497f9722a3daafe3b4186f6b6457e08280a3005b3461014b5761012036600319011261014b576001600160401b0360043581811161014b576108c7903690600401611cd3565b9060243581811161014b576108e0903690600401611cd3565b9060643581811161014b576108f9903690600401611cd3565b6084359360ff8516850361014b5760a43583811161014b5761091f903690600401611cd3565b9160c43584811161014b57610938903690600401611cd3565b9260e43585811161014b57610951903690600401611cd3565b966101043595861161014b57602097610a9e61035c96610a668a95610ad4956109ea610b0a998f6109c9610b369f918e6101246109946002953690600401611cd3565b9e85604051858186516109aa8183858b01611d5a565b6001818301528101030190200160443560005284526040600020611f0c565b81016001815203019020016044356000526020526001604060002001611f0c565b6002610a048f8c8160405193828580945193849201611d5a565b81016001815203019020016044356000528e5260ff6002604060002001911660ff198254161790556002610a468e8b8160405193828580945193849201611d5a565b81016001815203019020016044356000528d526003604060002001611f0c565b60026040518c8181610a7e8c83815193849201611d5a565b81016001815203019020016044356000528b526004604060002001611f0c565b60026040518a818851610ab48183858d01611d5a565b810160018152030190200160443560005289526005604060002001611f0c565b600260405188818651610aea8183858b01611d5a565b810160018152030190200160443560005287526006604060002001611f0c565b60405160078251610b1e81848a8701611d5a565b8201916001835287816044359403019020015561201b565b9060405191604435917fbf4ff8efb9c111a99679d7a6a4263272c5fa30a2fa39bec8f6e4ce26902fc0be600080a46044358152f35b3461014b576020610bf6610b7e36611d29565b929060606101a0604051610b9181611c96565b82815260008582015282604082015282808201528260808201528260a08201528260c08201528260e082015282610100820152600061012082015282610140820152826101608201528261018082015201528160405193828580945193849201611d5a565b8101600181520301902090600052602052610d666040600020610cf8600d60405192610c2184611c96565b610c2a8161203b565b845260ff6001820154166020850152610c456002820161203b565b6040850152610c566003820161203b565b6060850152610c676004820161203b565b6080850152610c786005820161203b565b60a0850152610c896006820161203b565b60c0850152610c9a6007820161203b565b60e0850152610cab6008820161203b565b6101008501526009810154610120850152610cc8600a820161203b565b610140850152610cda600b820161203b565b610160850152610cec600c820161203b565b6101808501520161203b565b6101a0820152610700816101a0610e41610e2b610e13610def610dd7610dc0610daa610d94610d7e6040519d8e9d8e602081526040610d4583516101c060208501526101e0840190611d7d565b9260ff602082015116828401520151906060601f1982850301910152611d7d565b8d60608d0151906080601f1982850301910152611d7d565b60808b01518d8203601f190160a08f0152611d7d565b60a08a01518c8203601f190160c08e0152611d7d565b60c08901518b8203601f190160e08d0152611d7d565b60e08801518a8203601f19016101008c0152611d7d565b610100870151898203601f19016101208b0152611d7d565b610120860151610140890152610140860151601f19898303016101608a0152611d7d565b610160850151878203601f1901610180890152611d7d565b610180840151868203601f190184880152611d7d565b910151838203601f19016101c0850152611d7d565b3461014b5760e036600319011261014b576001600160401b0360043581811161014b57610e87903690600401611cd3565b60243582811161014b57610e9f903690600401611cd3565b916044359160643582811161014b57610ebc903690600401611cd3565b9060843583811161014b57610ed5903690600401611cd3565b9460a43584811161014b57610eee903690600401611cd3565b60c43594851161014b578594610f08903690600401611cd3565b90604051918451916020998a870193610f22818787611d5a565b8501858c60019783898095520301902001896000528b52858560406000200190610f4b91611f0c565b846040518c818a51610f5e81838b611d5a565b81018481520301902001896000528b5287604060002060030190610f8191611f0c565b846040518c818a51610f9481838b611d5a565b81018481520301902001896000528b52604060002060080190610fb691611f0c565b836040518b818951610fc981838a611d5a565b81018481520301902001886000528a52604060002060090190610feb91611f0c565b826040518a818851610ffe818389611d5a565b810184815203019020018760005289526040600020600a019061102091611f0c565b876040518080938751809261103492611d5a565b8101848152030190200184600052865260406000205460ff16916110579061201b565b9260405191829161106891836120df565b037f6c9f87863c51532c2b7c35173bb3faa0120a0949c05f0fa853853ca73b9e0e0191a4604051908152f35b3461014b5760208061110760056110aa36611d29565b93849391604051908560038251938581818601966110c981838a611d5a565b810160018152030190200155856004604051858185516110ea81838a611d5a565b810160018152030190200155604051938492839251928391611d5a565b810160018152030190200155604051908152f35b3461014b5761022036600319011261014b576001600160401b0360043581811161014b5761114d903690600401611cd3565b60243582811161014b57611165903690600401611cd3565b9160643560ff8116810361014b5760843582811161014b5761118b903690600401611cd3565b60a43583811161014b576111a3903690600401611cd3565b60c43584811161014b576111bb903690600401611cd3565b60e43585811161014b576111d3903690600401611cd3565b6101043586811161014b576111ec903690600401611cd3565b6101243587811161014b57611205903690600401611cd3565b906101443588811161014b5761121f903690600401611cd3565b926101843589811161014b57611239903690600401611cd3565b946101a4358a811161014b57611253903690600401611cd3565b966101c4358b811161014b5761126d903690600401611cd3565b986101e4359b8c1161014b578d9b611289903690600401611cd3565b9a8d604051908051918060208301936112a3818387611d5a565b8101600181520360200190206009015460ff16156112c090611dfa565b604051809281925180926112d392611d5a565b8101600181520360200190209c6044356000528d6020526040600020906112f991611f0c565b6044356000528c60205260406000209060ff1660ff196001830154161760018201556002019061132891611f0c565b6044356000528a60205260406000206003019061134491611f0c565b6044356000528960205260406000206004019061136091611f0c565b6044356000528860205260406000206005019061137c91611f0c565b6044356000528760205260406000206006019061139891611f0c565b604435600052866020526040600020600701906113b491611f0c565b604435600052856020526040600020600801906113d091611f0c565b604435600052846020526040600020610164356009820155600a01906113f591611f0c565b604435600052836020526040600020600b019061141191611f0c565b604435600052826020526040600020600c019061142d91611f0c565b604435600052816020526040600020600d019061144991611f0c565b61020435600882015560090160ff198154166001179055806040518084518181602088019161147792611d5a565b8101600281520360200190209061148d91611fd3565b6114969061201b565b906114a09061201b565b9060405191604435917f406d6a39963b189ae4d4ba0b53780ecdf05dc013e196662687a246b0a2b70548600080a46044358152602090f35b3461014b5761010036600319011261014b5760043560ff8116810361014b576001600160401b0360243581811161014b57611517903690600401611cd3565b60443582811161014b5761152f903690600401611cd3565b9060843583811161014b57611548903690600401611cd3565b9260a4359060ff8216820361014b5760c43581811161014b5761156f903690600401611cd3565b9260e43591821161014b57610351611735936116e97f6c9f87863c51532c2b7c35173bb3faa0120a0949c05f0fa853853ca73b9e0e01966115b7611720963690600401611cd3565b926001604051602081816115d18b83815193849201611d5a565b8481830152810103019020016064356000526020528b604060002060ff80199216828254161790556001604051602081816116128c83815193849201611d5a565b810184815203019020016064356000526020526116368b6002604060002001611f0c565b60016040516020818161164f8c83815193849201611d5a565b810184815203019020016064356000526020526116738c6004604060002001611f0c565b60016040516020818161168c8c83815193849201611d5a565b8101848152030190200160643560005260205260ff6005604060002001921690825416179055600160405160208188516116c98183858d01611d5a565b810184815203019020016064356000526020526006604060002001611f0c565b600160405160208186516117008183858b01611d5a565b810184815203019020016064356000526020526007604060002001611f0c565b9360405191829160ff606435981695836120df565b0390a460206040516064358152f35b3461014b57602036600319011261014b576004356001600160401b03811161014b5760066106d86020610696610700943690600401611cd3565b3461014b576004611107600661179336611d29565b928392916040519080519060209783898095818501956117b4818389611d5a565b8101600181520301902001546003604051858185516110c981838a611d5a565b3461014b57602080600861180b6117ea36611d29565b9390604051906106c760ff60098351948681818701976106b581838b611d5a565b81016001815203019020015414604051908152f35b3461014b576020600161189861183536611d29565b9390606061014060405161184881611c7a565b6000815282858201528260408201528280820152826080820152600060a08201528260c08201528260e0820152826101008201528261012082015201528160405193828580945193849201611d5a565b81018481520301902001906000526020526107006040600020611967600a604051926118c384611c7a565b60ff81541684526118d66001820161203b565b60208501526118e76002820161203b565b60408501526118f86003820161203b565b60608501526119096004820161203b565b608085015260ff60058201541660a08501526119276006820161203b565b60c08501526119386007820161203b565b60e08501526119496008820161203b565b61010085015261195b6009820161203b565b6101208501520161203b565b6101408201526040519182916020835260ff8151166020840152610140611a5f611a49611a31611a1a6119f76119e16119cb6119b58b610160604060208d01519201526101808d0190611d7d565b60408a01518c8203601f190160608e0152611d7d565b60608901518b8203601f190160808d0152611d7d565b60808801518a8203601f190160a08c0152611d7d565b60ff60a08801511660c08a015260c0870151601f198a83030160e08b0152611d7d565b60e0860151888203601f19016101008a0152611d7d565b610100850151878203601f1901610120890152611d7d565b610120840151868203601f190184880152611d7d565b910151838203601f1901610160850152611d7d565b3461014b57611a8236611d29565b60405190611a8f82611c49565b60608281809452602094828287948580950152604081016000905281808201528160808201528160a082015260c001526040519283828193519283910191611ad692611d5a565b81016001815203019020600201906000528252604060002060405191611afb83611c49565b611b048261203b565b8352611b126001830161203b565b91848401928352600281015460ff166040850190815260038201611b359061203b565b85840190815290611b486004840161203b565b6080870190815291611b5c6005850161203b565b9360a08801948552600601611b709061203b565b9460c08801958652604051988998818a525190890160e090526101008901611b9791611d7d565b9651601f1997888a82030160408b0152611bb091611d7d565b925160ff1690880152519085878203016080880152611bce91611d7d565b905190848682030160a0870152611be491611d7d565b905190838582030160c0860152611bfa91611d7d565b9051918382030160e084015261070091611d7d565b3461014b57602036600319011261014b576004356001600160401b03811161014b5760076106d86020610696610700943690600401611cd3565b60e081019081106001600160401b03821117611c6457604052565b634e487b7160e01b600052604160045260246000fd5b61016081019081106001600160401b03821117611c6457604052565b6101c081019081106001600160401b03821117611c6457604052565b90601f801991011681019081106001600160401b03821117611c6457604052565b81601f8201121561014b578035906001600160401b038211611c645760405192611d07601f8401601f191660200185611cb2565b8284526020838301011161014b57816000926020809301838601378301015290565b604060031982011261014b57600435906001600160401b03821161014b57611d5391600401611cd3565b9060243590565b60005b838110611d6d5750506000910152565b8181015183820152602001611d5d565b90602091611d9681518092818552858086019101611d5a565b601f01601f1916010190565b6000546001600160a01b03163303611db657565b606460405162461bcd60e51b815260206004820152602060248201527f4f776e61626c653a2063616c6c6572206973206e6f7420746865206f776e65726044820152fd5b15611e0157565b60405162461bcd60e51b815260206004820152601960248201527f547572746c6520616c72656164792072656769737465726564000000000000006044820152606490fd5b8054821015611e5e5760005260206000200190600090565b634e487b7160e01b600052603260045260246000fd5b90600182811c92168015611ea4575b6020831014611e8e57565b634e487b7160e01b600052602260045260246000fd5b91607f1691611e83565b818110611eb9575050565b60008155600101611eae565b9190601f8111611ed457505050565b611f00926000526020600020906020601f840160051c83019310611f02575b601f0160051c0190611eae565b565b9091508190611ef3565b91909182516001600160401b038111611c6457611f3381611f2d8454611e74565b84611ec5565b602080601f8311600114611f6f575081929394600092611f64575b50508160011b916000199060031b1c1916179055565b015190503880611f4e565b90601f198316958460005282600020926000905b888210611fbb57505083600195969710611fa2575b505050811b019055565b015160001960f88460031b161c19169055388080611f98565b80600185968294968601518155019501930190611f83565b805468010000000000000000811015611c6457611ff591600182018155611e46565b91909161200557611f0091611f0c565b634e487b7160e01b600052600060045260246000fd5b61203390602060405192828480945193849201611d5a565b810103902090565b906040519182600082549261204f84611e74565b9081845260019485811690816000146120bc5750600114612079575b5050611f0092500383611cb2565b9093915060005260209081600020936000915b8183106120a4575050611f009350820101388061206b565b8554888401850152948501948794509183019161208c565b915050611f0094506020925060ff191682840152151560051b820101388061206b565b90916120f661210493604084526040840190611d7d565b916020818403910152611d7d565b90565b1561210e57565b60405162461bcd60e51b8152602060048201526015602482015274151d5c9d1b1948191bd95cc81b9bdd08195e1a5cdd605a1b6044820152606490fd5b600019811461215a5760010190565b634e487b7160e01b600052601160045260246000fd5b60009291815461217f81611e74565b926001918083169081156121d8575060011461219c575b50505050565b90919293945060005260209081600020906000915b8583106121c75750505050019038808080612196565b8054858401529183019181016121b1565b60ff1916845250505081151590910201915038808080612196565b908082146122cb576122058154611e74565b906001600160401b038211611c6457819061222a826122248654611e74565b86611ec5565b600090601f8311600114612260576000926122555750508160011b916000199060031b1c1916179055565b015490503880611f4e565b81526020808220858352818320935090601f1985169083905b8282106122b257505090846001959493921061229957505050811b019055565b015460001960f88460031b161c19169055388080611f98565b8495819295850154815560018091019601940190612279565b505056fea26469706673582212206deeeaffc904477f43e5ffd89737c1bd9df2bb8e816451da0d9a6600dad262ea64736f6c63430008120033",
			"opcodes": "PUSH1 0x80 DUP1 PUSH1 0x40 MSTORE CALLVALUE PUSH2 0x5B JUMPI PUSH1 0x0 DUP1 SLOAD CALLER PUSH1 0x1 PUSH1 0x1 PUSH1 0xA0 SHL SUB NOT DUP3 AND DUP2 OR DUP4 SSTORE SWAP2 PUSH1 0x1 PUSH1 0x1 PUSH1 0xA0 SHL SUB SWAP1 SWAP2 AND SWAP1 PUSH32 0x8BE0079C531659141344CD1FD0A4F28419497F9722A3DAAFE3B4186F6B6457E0 SWAP1 DUP1 LOG3 PUSH2 0x2305 SWAP1 DUP2 PUSH2 0x61 DUP3 CODECOPY RETURN JUMPDEST PUSH1 0x0 DUP1 REVERT INVALID PUSH1 0x80 PUSH1 0x40 MSTORE PUSH1 0x4 CALLDATASIZE LT ISZERO PUSH2 0x12 JUMPI PUSH1 0x0 DUP1 REVERT JUMPDEST PUSH1 0x0 CALLDATALOAD PUSH1 0xE0 SHR DUP1 PUSH4 0x1294FFCF EQ PUSH2 0x1C0F JUMPI DUP1 PUSH4 0x17AA1F48 EQ PUSH2 0x1A74 JUMPI DUP1 PUSH4 0x1A0642EF EQ PUSH2 0x1820 JUMPI DUP1 PUSH4 0x1B979AF1 EQ PUSH2 0x17D4 JUMPI DUP1 PUSH4 0x229AA914 EQ PUSH2 0x177E JUMPI DUP1 PUSH4 0x22D2378F EQ PUSH2 0x1744 JUMPI DUP1 PUSH4 0x30A8F8B9 EQ PUSH2 0x14D8 JUMPI DUP1 PUSH4 0x358A3D37 EQ PUSH2 0x111B JUMPI DUP1 PUSH4 0x482346BD EQ PUSH2 0x1094 JUMPI DUP1 PUSH4 0x596C442A EQ PUSH2 0xE56 JUMPI DUP1 PUSH4 0x673AE4C1 EQ PUSH2 0xB6B JUMPI DUP1 PUSH4 0x6C1DCAF8 EQ PUSH2 0x895 JUMPI DUP1 PUSH4 0x715018A6 EQ PUSH2 0x83C JUMPI DUP1 PUSH4 0x7CA2D3CD EQ PUSH2 0x72D JUMPI DUP1 PUSH4 0x8DA5CB5B EQ PUSH2 0x704 JUMPI DUP1 PUSH4 0x997480E5 EQ PUSH2 0x65C JUMPI DUP1 PUSH4 0xCE5F0B7D EQ PUSH2 0x21B JUMPI DUP1 PUSH4 0xF2FDE38B EQ PUSH2 0x150 JUMPI PUSH4 0xF3CB197D EQ PUSH2 0xED JUMPI PUSH1 0x0 DUP1 REVERT JUMPDEST CALLVALUE PUSH2 0x14B JUMPI PUSH1 0x20 CALLDATASIZE PUSH1 0x3 NOT ADD SLT PUSH2 0x14B JUMPI PUSH1 0x4 CALLDATALOAD PUSH1 0x1 PUSH1 0x1 PUSH1 0x40 SHL SUB DUP2 GT PUSH2 0x14B JUMPI PUSH1 0x4 PUSH2 0x137 PUSH1 0x20 PUSH2 0x124 DUP2 SWAP5 CALLDATASIZE SWAP1 DUP6 ADD PUSH2 0x1CD3 JUMP JUMPDEST DUP2 PUSH1 0x40 MLOAD SWAP4 DUP3 DUP6 DUP1 SWAP5 MLOAD SWAP4 DUP5 SWAP3 ADD PUSH2 0x1D5A JUMP JUMPDEST DUP2 ADD PUSH1 0x1 DUP2 MSTORE SUB ADD SWAP1 KECCAK256 ADD SLOAD PUSH1 0x40 MLOAD SWAP1 DUP2 MSTORE RETURN JUMPDEST PUSH1 0x0 DUP1 REVERT JUMPDEST CALLVALUE PUSH2 0x14B JUMPI PUSH1 0x20 CALLDATASIZE PUSH1 0x3 NOT ADD SLT PUSH2 0x14B JUMPI PUSH1 0x4 CALLDATALOAD PUSH1 0x1 PUSH1 0x1 PUSH1 0xA0 SHL SUB DUP2 DUP2 AND SWAP2 DUP3 SWAP1 SUB PUSH2 0x14B JUMPI PUSH2 0x17F PUSH2 0x1DA2 JUMP JUMPDEST DUP2 ISZERO PUSH2 0x1C7 JUMPI PUSH1 0x0 SLOAD DUP3 PUSH12 0xFFFFFFFFFFFFFFFFFFFFFFFF PUSH1 0xA0 SHL DUP3 AND OR PUSH1 0x0 SSTORE AND PUSH32 0x8BE0079C531659141344CD1FD0A4F28419497F9722A3DAAFE3B4186F6B6457E0 PUSH1 0x0 DUP1 LOG3 STOP JUMPDEST PUSH1 0x40 MLOAD PUSH3 0x461BCD PUSH1 0xE5 SHL DUP2 MSTORE PUSH1 0x20 PUSH1 0x4 DUP3 ADD MSTORE PUSH1 0x26 PUSH1 0x24 DUP3 ADD MSTORE PUSH32 0x4F776E61626C653A206E6577206F776E657220697320746865207A65726F2061 PUSH1 0x44 DUP3 ADD MSTORE PUSH6 0x646472657373 PUSH1 0xD0 SHL PUSH1 0x64 DUP3 ADD MSTORE PUSH1 0x84 SWAP1 REVERT JUMPDEST CALLVALUE PUSH2 0x14B JUMPI PUSH1 0x60 CALLDATASIZE PUSH1 0x3 NOT ADD SLT PUSH2 0x14B JUMPI PUSH1 0x1 PUSH1 0x1 PUSH1 0x40 SHL SUB PUSH1 0x4 CALLDATALOAD DUP2 DUP2 GT PUSH2 0x14B JUMPI PUSH2 0x24C SWAP1 CALLDATASIZE SWAP1 PUSH1 0x4 ADD PUSH2 0x1CD3 JUMP JUMPDEST PUSH1 0x24 SWAP1 DUP2 CALLDATALOAD DUP4 DUP2 GT PUSH2 0x14B JUMPI PUSH2 0x266 SWAP1 CALLDATASIZE SWAP1 PUSH1 0x4 ADD PUSH2 0x1CD3 JUMP JUMPDEST SWAP3 PUSH1 0x44 CALLDATALOAD SWAP1 DUP2 GT PUSH2 0x14B JUMPI PUSH2 0x27F SWAP1 CALLDATASIZE SWAP1 PUSH1 0x4 ADD PUSH2 0x1CD3 JUMP JUMPDEST SWAP2 PUSH1 0x40 MLOAD DUP3 MLOAD SWAP2 PUSH1 0x20 SWAP2 PUSH2 0x2B6 PUSH1 0xFF PUSH1 0x9 DUP6 DUP9 ADD SWAP7 PUSH2 0x29F DUP2 DUP7 DUP11 PUSH2 0x1D5A JUMP JUMPDEST DUP5 ADD SWAP4 DUP7 DUP2 PUSH1 0x1 SWAP7 DUP8 DUP2 MSTORE SUB ADD SWAP1 KECCAK256 ADD SLOAD AND PUSH2 0x2107 JUMP JUMPDEST PUSH1 0x40 MLOAD SWAP4 DUP8 MLOAD DUP5 DUP10 ADD SWAP1 PUSH2 0x2CB DUP2 DUP9 DUP5 PUSH2 0x1D5A JUMP JUMPDEST DUP7 ADD SWAP6 DUP6 DUP2 PUSH1 0x2 SWAP9 DUP10 DUP2 MSTORE SUB ADD SWAP1 KECCAK256 SLOAD ISZERO PUSH2 0x60D JUMPI PUSH1 0x0 DUP4 DUP2 DUP2 JUMPDEST PUSH2 0x563 JUMPI JUMPDEST POP POP ISZERO PUSH2 0x514 JUMPI DUP5 PUSH2 0x308 SWAP2 PUSH1 0x40 MLOAD DUP1 SWAP4 DUP2 SWAP3 DUP14 MLOAD SWAP3 DUP4 SWAP2 PUSH2 0x1D5A JUMP JUMPDEST DUP2 ADD DUP9 DUP2 MSTORE SUB ADD SWAP1 KECCAK256 SWAP1 PUSH1 0x0 DUP4 JUMPDEST PUSH2 0x38A JUMPI JUMPDEST DUP10 DUP10 PUSH2 0x362 PUSH2 0x35C PUSH2 0x356 DUP13 PUSH2 0x351 DUP2 DUP15 DUP15 PUSH1 0x40 MLOAD DUP1 SWAP3 DUP3 PUSH2 0x343 DUP13 DUP5 DUP2 MLOAD SWAP4 DUP5 SWAP3 ADD PUSH2 0x1D5A JUMP JUMPDEST DUP3 ADD SWAP1 DUP2 MSTORE SUB ADD SWAP1 KECCAK256 PUSH2 0x1FD3 JUMP JUMPDEST PUSH2 0x201B JUMP JUMPDEST SWAP4 PUSH2 0x201B JUMP JUMPDEST SWAP2 PUSH2 0x201B JUMP JUMPDEST SWAP2 PUSH32 0x80D739977BB0030FD7E876DC1CA9A667ADFC1B71FEA4820C4266DE2EE6D6C657 PUSH1 0x0 DUP1 LOG4 STOP JUMPDEST DUP3 SLOAD DUP1 DUP3 LT ISZERO PUSH2 0x50E JUMPI SWAP1 DUP4 SWAP3 SWAP2 PUSH2 0x3A3 DUP3 DUP8 SWAP7 PUSH2 0x1E46 JUMP JUMPDEST POP PUSH1 0x40 MLOAD PUSH2 0x3C6 DUP2 PUSH2 0x3B8 DUP13 DUP3 ADD DUP1 SWAP6 PUSH2 0x2170 JUMP JUMPDEST SUB PUSH1 0x1F NOT DUP2 ADD DUP4 MSTORE DUP3 PUSH2 0x1CB2 JUMP JUMPDEST MLOAD SWAP1 KECCAK256 DUP11 PUSH1 0x40 MLOAD PUSH2 0x3EF DUP12 DUP3 DUP2 DUP2 ADD SWAP5 MLOAD PUSH2 0x3E2 DUP2 DUP8 DUP13 PUSH2 0x1D5A JUMP JUMPDEST DUP2 ADD SUB DUP1 DUP5 MSTORE ADD DUP3 PUSH2 0x1CB2 JUMP JUMPDEST MLOAD SWAP1 KECCAK256 EQ PUSH2 0x40A JUMPI JUMPDEST POP PUSH2 0x402 SWAP1 PUSH2 0x214B JUMP JUMPDEST SWAP1 SWAP2 SWAP3 PUSH2 0x316 JUMP JUMPDEST SWAP3 SWAP4 POP SWAP1 SWAP2 PUSH1 0x0 NOT SWAP1 DUP2 DUP2 ADD SWAP1 DUP2 GT PUSH2 0x4F9 JUMPI PUSH2 0x427 SWAP1 DUP6 PUSH2 0x1E46 JUMP JUMPDEST POP PUSH2 0x432 DUP4 DUP7 PUSH2 0x1E46 JUMP JUMPDEST PUSH2 0x4E4 JUMPI SWAP1 PUSH2 0x440 SWAP2 PUSH2 0x21F3 JUMP JUMPDEST DUP4 SLOAD DUP1 ISZERO PUSH2 0x4CF JUMPI ADD PUSH2 0x453 DUP2 DUP6 PUSH2 0x1E46 JUMP JUMPDEST PUSH2 0x4BA JUMPI SWAP2 PUSH2 0x402 SWAP2 DUP4 PUSH2 0x46A DUP9 SWAP8 SWAP7 SWAP6 SLOAD PUSH2 0x1E74 JUMP JUMPDEST SWAP1 DUP2 PUSH2 0x47B JUMPI JUMPDEST POP POP DUP5 SSTORE SWAP1 PUSH2 0x3F8 JUMP JUMPDEST PUSH1 0x0 SWAP2 PUSH1 0x1F DUP13 DUP2 DUP4 GT PUSH1 0x1 EQ PUSH2 0x497 JUMPI POP POP POP SSTORE JUMPDEST DUP14 DUP1 PUSH2 0x471 JUMP JUMPDEST DUP4 SWAP2 PUSH2 0x4B3 SWAP2 DUP7 SWAP5 SWAP6 DUP6 MSTORE DUP5 KECCAK256 SWAP5 ADD PUSH1 0x5 SHR DUP5 ADD DUP12 DUP6 ADD PUSH2 0x1EAE JUMP JUMPDEST SSTORE SSTORE PUSH2 0x490 JUMP JUMPDEST DUP7 PUSH4 0x4E487B71 PUSH1 0xE0 SHL PUSH1 0x0 MSTORE PUSH1 0x0 PUSH1 0x4 MSTORE PUSH1 0x0 REVERT JUMPDEST DUP7 PUSH4 0x4E487B71 PUSH1 0xE0 SHL PUSH1 0x0 MSTORE PUSH1 0x31 PUSH1 0x4 MSTORE PUSH1 0x0 REVERT JUMPDEST DUP8 PUSH4 0x4E487B71 PUSH1 0xE0 SHL PUSH1 0x0 MSTORE PUSH1 0x0 PUSH1 0x4 MSTORE PUSH1 0x0 REVERT JUMPDEST DUP7 PUSH4 0x4E487B71 PUSH1 0xE0 SHL PUSH1 0x0 MSTORE PUSH1 0x11 PUSH1 0x4 MSTORE PUSH1 0x0 REVERT JUMPDEST POP PUSH2 0x31B JUMP JUMPDEST PUSH1 0x40 MLOAD PUSH3 0x461BCD PUSH1 0xE5 SHL DUP2 MSTORE PUSH1 0x4 DUP2 ADD DUP7 SWAP1 MSTORE PUSH1 0x22 DUP2 DUP7 ADD MSTORE PUSH32 0x4F6C64206F776E657220646F6573206E6F74206F776E20746869732074757274 PUSH1 0x44 DUP3 ADD MSTORE PUSH2 0x6C65 PUSH1 0xF0 SHL PUSH1 0x64 DUP3 ADD MSTORE PUSH1 0x84 SWAP1 REVERT JUMPDEST DUP8 DUP13 DUP11 PUSH1 0x40 MLOAD DUP4 DUP2 DUP5 MLOAD PUSH2 0x578 DUP2 DUP4 DUP14 PUSH2 0x1D5A JUMP JUMPDEST DUP2 ADD DUP5 DUP2 MSTORE SUB ADD SWAP1 KECCAK256 SLOAD DUP5 LT ISZERO PUSH2 0x605 JUMPI PUSH2 0x5AF SWAP3 DUP5 SWAP3 PUSH1 0x40 MLOAD SWAP3 DUP4 SWAP2 MLOAD PUSH2 0x5A1 DUP2 DUP5 DUP14 PUSH2 0x1D5A JUMP JUMPDEST DUP3 ADD SWAP1 DUP2 MSTORE SUB ADD SWAP1 KECCAK256 PUSH2 0x1E46 JUMP JUMPDEST POP PUSH1 0x40 MLOAD PUSH2 0x5C4 DUP2 PUSH2 0x3B8 DUP13 DUP3 ADD DUP1 SWAP6 PUSH2 0x2170 JUMP JUMPDEST MLOAD SWAP1 KECCAK256 DUP6 DUP12 PUSH2 0x5E4 DUP12 PUSH1 0x40 MLOAD DUP1 SWAP4 PUSH2 0x3E2 DUP4 DUP4 ADD SWAP7 DUP8 SWAP3 MLOAD SWAP3 DUP4 SWAP2 PUSH2 0x1D5A JUMP JUMPDEST MLOAD SWAP1 KECCAK256 EQ PUSH2 0x5FB JUMPI PUSH2 0x5F5 SWAP1 PUSH2 0x214B JUMP JUMPDEST DUP2 PUSH2 0x2E6 JUMP JUMPDEST POP SWAP1 POP DUP4 DUP12 PUSH2 0x2EB JUMP JUMPDEST POP POP POP PUSH2 0x2EB JUMP JUMPDEST PUSH1 0x40 MLOAD PUSH3 0x461BCD PUSH1 0xE5 SHL DUP2 MSTORE PUSH1 0x4 DUP2 ADD DUP7 SWAP1 MSTORE PUSH1 0x22 DUP2 DUP7 ADD MSTORE PUSH32 0x4F6C64206F776E657220646F6573206E6F74206F776E20616E7920747572746C PUSH1 0x44 DUP3 ADD MSTORE PUSH2 0x6573 PUSH1 0xF0 SHL PUSH1 0x64 DUP3 ADD MSTORE PUSH1 0x84 SWAP1 REVERT JUMPDEST CALLVALUE PUSH2 0x14B JUMPI PUSH1 0x20 CALLDATASIZE PUSH1 0x3 NOT ADD SLT PUSH2 0x14B JUMPI PUSH1 0x4 CALLDATALOAD PUSH1 0x1 PUSH1 0x1 PUSH1 0x40 SHL SUB DUP2 GT PUSH2 0x14B JUMPI PUSH1 0x5 PUSH2 0x6D8 PUSH1 0x20 PUSH2 0x696 PUSH2 0x700 SWAP5 CALLDATASIZE SWAP1 PUSH1 0x4 ADD PUSH2 0x1CD3 JUMP JUMPDEST PUSH1 0x40 MLOAD SWAP1 PUSH2 0x6C7 PUSH1 0xFF PUSH1 0x9 DUP4 MLOAD SWAP5 DUP7 DUP2 DUP2 DUP8 ADD SWAP8 PUSH2 0x6B5 DUP2 DUP4 DUP12 PUSH2 0x1D5A JUMP JUMPDEST DUP2 ADD PUSH1 0x1 DUP2 MSTORE SUB ADD SWAP1 KECCAK256 ADD SLOAD AND PUSH2 0x2107 JUMP JUMPDEST PUSH1 0x40 MLOAD SWAP4 DUP5 SWAP3 DUP4 SWAP3 MLOAD SWAP3 DUP4 SWAP2 PUSH2 0x1D5A JUMP JUMPDEST PUSH1 0x1 SWAP1 DUP3 ADD SWAP1 DUP2 MSTORE SUB ADD SWAP1 KECCAK256 ADD SLOAD PUSH1 0x40 DUP1 MLOAD DUP3 ISZERO ISZERO DUP2 MSTORE PUSH1 0x20 DUP2 ADD SWAP3 SWAP1 SWAP3 MSTORE SWAP1 SWAP2 DUP3 SWAP2 DUP3 ADD SWAP1 JUMP JUMPDEST SUB SWAP1 RETURN JUMPDEST CALLVALUE PUSH2 0x14B JUMPI PUSH1 0x0 CALLDATASIZE PUSH1 0x3 NOT ADD SLT PUSH2 0x14B JUMPI PUSH1 0x0 SLOAD PUSH1 0x40 MLOAD PUSH1 0x1 PUSH1 0x1 PUSH1 0xA0 SHL SUB SWAP1 SWAP2 AND DUP2 MSTORE PUSH1 0x20 SWAP1 RETURN JUMPDEST CALLVALUE PUSH2 0x14B JUMPI PUSH1 0x60 CALLDATASIZE PUSH1 0x3 NOT ADD SLT PUSH2 0x14B JUMPI PUSH1 0x1 PUSH1 0x1 PUSH1 0x40 SHL SUB PUSH1 0x4 CALLDATALOAD DUP2 DUP2 GT PUSH2 0x14B JUMPI PUSH2 0x75E SWAP1 CALLDATASIZE SWAP1 PUSH1 0x4 ADD PUSH2 0x1CD3 JUMP JUMPDEST SWAP1 PUSH1 0x24 CALLDATALOAD SWAP1 DUP2 GT PUSH2 0x14B JUMPI PUSH2 0x35C PUSH2 0x77D PUSH2 0x814 SWAP3 CALLDATASIZE SWAP1 PUSH1 0x4 ADD PUSH2 0x1CD3 JUMP JUMPDEST SWAP3 PUSH2 0x786 PUSH2 0x1DA2 JUMP JUMPDEST PUSH1 0x9 PUSH2 0x7CE PUSH1 0x20 PUSH1 0x40 MLOAD PUSH2 0x7BD PUSH1 0xFF DUP6 DUP8 MLOAD SWAP4 DUP6 DUP2 DUP2 DUP12 ADD SWAP7 PUSH2 0x7AA DUP2 DUP4 DUP11 PUSH2 0x1D5A JUMP JUMPDEST DUP2 ADD PUSH1 0x1 DUP2 MSTORE SUB ADD SWAP1 KECCAK256 ADD SLOAD AND ISZERO PUSH2 0x1DFA JUMP JUMPDEST PUSH1 0x40 MLOAD DUP1 SWAP4 DUP2 SWAP3 DUP8 MLOAD SWAP3 DUP4 SWAP2 PUSH2 0x1D5A JUMP JUMPDEST DUP2 ADD PUSH1 0x1 DUP2 MSTORE SUB ADD SWAP1 KECCAK256 PUSH1 0x44 CALLDATALOAD PUSH1 0x8 DUP3 ADD SSTORE ADD PUSH1 0x1 PUSH1 0xFF NOT DUP3 SLOAD AND OR SWAP1 SSTORE PUSH2 0x351 DUP2 PUSH1 0x40 MLOAD PUSH1 0x20 DUP2 DUP9 MLOAD PUSH2 0x805 DUP2 DUP4 DUP6 DUP14 ADD PUSH2 0x1D5A JUMP JUMPDEST DUP2 ADD PUSH1 0x2 DUP2 MSTORE SUB ADD SWAP1 KECCAK256 PUSH2 0x1FD3 JUMP JUMPDEST SWAP1 PUSH32 0x7D904E478DF0F515C7058DF56A2295C88F46C97F269F153CB964C1574E4AD9E8 PUSH1 0x0 DUP1 LOG3 STOP JUMPDEST CALLVALUE PUSH2 0x14B JUMPI PUSH1 0x0 CALLDATASIZE PUSH1 0x3 NOT ADD SLT PUSH2 0x14B JUMPI PUSH2 0x855 PUSH2 0x1DA2 JUMP JUMPDEST PUSH1 0x0 DUP1 SLOAD PUSH1 0x1 PUSH1 0x1 PUSH1 0xA0 SHL SUB NOT DUP2 AND DUP3 SSTORE PUSH1 0x1 PUSH1 0x1 PUSH1 0xA0 SHL SUB AND PUSH32 0x8BE0079C531659141344CD1FD0A4F28419497F9722A3DAAFE3B4186F6B6457E0 DUP3 DUP1 LOG3 STOP JUMPDEST CALLVALUE PUSH2 0x14B JUMPI PUSH2 0x120 CALLDATASIZE PUSH1 0x3 NOT ADD SLT PUSH2 0x14B JUMPI PUSH1 0x1 PUSH1 0x1 PUSH1 0x40 SHL SUB PUSH1 0x4 CALLDATALOAD DUP2 DUP2 GT PUSH2 0x14B JUMPI PUSH2 0x8C7 SWAP1 CALLDATASIZE SWAP1 PUSH1 0x4 ADD PUSH2 0x1CD3 JUMP JUMPDEST SWAP1 PUSH1 0x24 CALLDATALOAD DUP2 DUP2 GT PUSH2 0x14B JUMPI PUSH2 0x8E0 SWAP1 CALLDATASIZE SWAP1 PUSH1 0x4 ADD PUSH2 0x1CD3 JUMP JUMPDEST SWAP1 PUSH1 0x64 CALLDATALOAD DUP2 DUP2 GT PUSH2 0x14B JUMPI PUSH2 0x8F9 SWAP1 CALLDATASIZE SWAP1 PUSH1 0x4 ADD PUSH2 0x1CD3 JUMP JUMPDEST PUSH1 0x84 CALLDATALOAD SWAP4 PUSH1 0xFF DUP6 AND DUP6 SUB PUSH2 0x14B JUMPI PUSH1 0xA4 CALLDATALOAD DUP4 DUP2 GT PUSH2 0x14B JUMPI PUSH2 0x91F SWAP1 CALLDATASIZE SWAP1 PUSH1 0x4 ADD PUSH2 0x1CD3 JUMP JUMPDEST SWAP2 PUSH1 0xC4 CALLDATALOAD DUP5 DUP2 GT PUSH2 0x14B JUMPI PUSH2 0x938 SWAP1 CALLDATASIZE SWAP1 PUSH1 0x4 ADD PUSH2 0x1CD3 JUMP JUMPDEST SWAP3 PUSH1 0xE4 CALLDATALOAD DUP6 DUP2 GT PUSH2 0x14B JUMPI PUSH2 0x951 SWAP1 CALLDATASIZE SWAP1 PUSH1 0x4 ADD PUSH2 0x1CD3 JUMP JUMPDEST SWAP7 PUSH2 0x104 CALLDATALOAD SWAP6 DUP7 GT PUSH2 0x14B JUMPI PUSH1 0x20 SWAP8 PUSH2 0xA9E PUSH2 0x35C SWAP7 PUSH2 0xA66 DUP11 SWAP6 PUSH2 0xAD4 SWAP6 PUSH2 0x9EA PUSH2 0xB0A SWAP10 DUP16 PUSH2 0x9C9 PUSH2 0xB36 SWAP16 SWAP2 DUP15 PUSH2 0x124 PUSH2 0x994 PUSH1 0x2 SWAP6 CALLDATASIZE SWAP1 PUSH1 0x4 ADD PUSH2 0x1CD3 JUMP JUMPDEST SWAP15 DUP6 PUSH1 0x40 MLOAD DUP6 DUP2 DUP7 MLOAD PUSH2 0x9AA DUP2 DUP4 DUP6 DUP12 ADD PUSH2 0x1D5A JUMP JUMPDEST PUSH1 0x1 DUP2 DUP4 ADD MSTORE DUP2 ADD SUB ADD SWAP1 KECCAK256 ADD PUSH1 0x44 CALLDATALOAD PUSH1 0x0 MSTORE DUP5 MSTORE PUSH1 0x40 PUSH1 0x0 KECCAK256 PUSH2 0x1F0C JUMP JUMPDEST DUP2 ADD PUSH1 0x1 DUP2 MSTORE SUB ADD SWAP1 KECCAK256 ADD PUSH1 0x44 CALLDATALOAD PUSH1 0x0 MSTORE PUSH1 0x20 MSTORE PUSH1 0x1 PUSH1 0x40 PUSH1 0x0 KECCAK256 ADD PUSH2 0x1F0C JUMP JUMPDEST PUSH1 0x2 PUSH2 0xA04 DUP16 DUP13 DUP2 PUSH1 0x40 MLOAD SWAP4 DUP3 DUP6 DUP1 SWAP5 MLOAD SWAP4 DUP5 SWAP3 ADD PUSH2 0x1D5A JUMP JUMPDEST DUP2 ADD PUSH1 0x1 DUP2 MSTORE SUB ADD SWAP1 KECCAK256 ADD PUSH1 0x44 CALLDATALOAD PUSH1 0x0 MSTORE DUP15 MSTORE PUSH1 0xFF PUSH1 0x2 PUSH1 0x40 PUSH1 0x0 KECCAK256 ADD SWAP2 AND PUSH1 0xFF NOT DUP3 SLOAD AND OR SWAP1 SSTORE PUSH1 0x2 PUSH2 0xA46 DUP15 DUP12 DUP2 PUSH1 0x40 MLOAD SWAP4 DUP3 DUP6 DUP1 SWAP5 MLOAD SWAP4 DUP5 SWAP3 ADD PUSH2 0x1D5A JUMP JUMPDEST DUP2 ADD PUSH1 0x1 DUP2 MSTORE SUB ADD SWAP1 KECCAK256 ADD PUSH1 0x44 CALLDATALOAD PUSH1 0x0 MSTORE DUP14 MSTORE PUSH1 0x3 PUSH1 0x40 PUSH1 0x0 KECCAK256 ADD PUSH2 0x1F0C JUMP JUMPDEST PUSH1 0x2 PUSH1 0x40 MLOAD DUP13 DUP2 DUP2 PUSH2 0xA7E DUP13 DUP4 DUP2 MLOAD SWAP4 DUP5 SWAP3 ADD PUSH2 0x1D5A JUMP JUMPDEST DUP2 ADD PUSH1 0x1 DUP2 MSTORE SUB ADD SWAP1 KECCAK256 ADD PUSH1 0x44 CALLDATALOAD PUSH1 0x0 MSTORE DUP12 MSTORE PUSH1 0x4 PUSH1 0x40 PUSH1 0x0 KECCAK256 ADD PUSH2 0x1F0C JUMP JUMPDEST PUSH1 0x2 PUSH1 0x40 MLOAD DUP11 DUP2 DUP9 MLOAD PUSH2 0xAB4 DUP2 DUP4 DUP6 DUP14 ADD PUSH2 0x1D5A JUMP JUMPDEST DUP2 ADD PUSH1 0x1 DUP2 MSTORE SUB ADD SWAP1 KECCAK256 ADD PUSH1 0x44 CALLDATALOAD PUSH1 0x0 MSTORE DUP10 MSTORE PUSH1 0x5 PUSH1 0x40 PUSH1 0x0 KECCAK256 ADD PUSH2 0x1F0C JUMP JUMPDEST PUSH1 0x2 PUSH1 0x40 MLOAD DUP9 DUP2 DUP7 MLOAD PUSH2 0xAEA DUP2 DUP4 DUP6 DUP12 ADD PUSH2 0x1D5A JUMP JUMPDEST DUP2 ADD PUSH1 0x1 DUP2 MSTORE SUB ADD SWAP1 KECCAK256 ADD PUSH1 0x44 CALLDATALOAD PUSH1 0x0 MSTORE DUP8 MSTORE PUSH1 0x6 PUSH1 0x40 PUSH1 0x0 KECCAK256 ADD PUSH2 0x1F0C JUMP JUMPDEST PUSH1 0x40 MLOAD PUSH1 0x7 DUP3 MLOAD PUSH2 0xB1E DUP2 DUP5 DUP11 DUP8 ADD PUSH2 0x1D5A JUMP JUMPDEST DUP3 ADD SWAP2 PUSH1 0x1 DUP4 MSTORE DUP8 DUP2 PUSH1 0x44 CALLDATALOAD SWAP5 SUB ADD SWAP1 KECCAK256 ADD SSTORE PUSH2 0x201B JUMP JUMPDEST SWAP1 PUSH1 0x40 MLOAD SWAP2 PUSH1 0x44 CALLDATALOAD SWAP2 PUSH32 0xBF4FF8EFB9C111A99679D7A6A4263272C5FA30A2FA39BEC8F6E4CE26902FC0BE PUSH1 0x0 DUP1 LOG4 PUSH1 0x44 CALLDATALOAD DUP2 MSTORE RETURN JUMPDEST CALLVALUE PUSH2 0x14B JUMPI PUSH1 0x20 PUSH2 0xBF6 PUSH2 0xB7E CALLDATASIZE PUSH2 0x1D29 JUMP JUMPDEST SWAP3 SWAP1 PUSH1 0x60 PUSH2 0x1A0 PUSH1 0x40 MLOAD PUSH2 0xB91 DUP2 PUSH2 0x1C96 JUMP JUMPDEST DUP3 DUP2 MSTORE PUSH1 0x0 DUP6 DUP3 ADD MSTORE DUP3 PUSH1 0x40 DUP3 ADD MSTORE DUP3 DUP1 DUP3 ADD MSTORE DUP3 PUSH1 0x80 DUP3 ADD MSTORE DUP3 PUSH1 0xA0 DUP3 ADD MSTORE DUP3 PUSH1 0xC0 DUP3 ADD MSTORE DUP3 PUSH1 0xE0 DUP3 ADD MSTORE DUP3 PUSH2 0x100 DUP3 ADD MSTORE PUSH1 0x0 PUSH2 0x120 DUP3 ADD MSTORE DUP3 PUSH2 0x140 DUP3 ADD MSTORE DUP3 PUSH2 0x160 DUP3 ADD MSTORE DUP3 PUSH2 0x180 DUP3 ADD MSTORE ADD MSTORE DUP2 PUSH1 0x40 MLOAD SWAP4 DUP3 DUP6 DUP1 SWAP5 MLOAD SWAP4 DUP5 SWAP3 ADD PUSH2 0x1D5A JUMP JUMPDEST DUP2 ADD PUSH1 0x1 DUP2 MSTORE SUB ADD SWAP1 KECCAK256 SWAP1 PUSH1 0x0 MSTORE PUSH1 0x20 MSTORE PUSH2 0xD66 PUSH1 0x40 PUSH1 0x0 KECCAK256 PUSH2 0xCF8 PUSH1 0xD PUSH1 0x40 MLOAD SWAP3 PUSH2 0xC21 DUP5 PUSH2 0x1C96 JUMP JUMPDEST PUSH2 0xC2A DUP2 PUSH2 0x203B JUMP JUMPDEST DUP5 MSTORE PUSH1 0xFF PUSH1 0x1 DUP3 ADD SLOAD AND PUSH1 0x20 DUP6 ADD MSTORE PUSH2 0xC45 PUSH1 0x2 DUP3 ADD PUSH2 0x203B JUMP JUMPDEST PUSH1 0x40 DUP6 ADD MSTORE PUSH2 0xC56 PUSH1 0x3 DUP3 ADD PUSH2 0x203B JUMP JUMPDEST PUSH1 0x60 DUP6 ADD MSTORE PUSH2 0xC67 PUSH1 0x4 DUP3 ADD PUSH2 0x203B JUMP JUMPDEST PUSH1 0x80 DUP6 ADD MSTORE PUSH2 0xC78 PUSH1 0x5 DUP3 ADD PUSH2 0x203B JUMP JUMPDEST PUSH1 0xA0 DUP6 ADD MSTORE PUSH2 0xC89 PUSH1 0x6 DUP3 ADD PUSH2 0x203B JUMP JUMPDEST PUSH1 0xC0 DUP6 ADD MSTORE PUSH2 0xC9A PUSH1 0x7 DUP3 ADD PUSH2 0x203B JUMP JUMPDEST PUSH1 0xE0 DUP6 ADD MSTORE PUSH2 0xCAB PUSH1 0x8 DUP3 ADD PUSH2 0x203B JUMP JUMPDEST PUSH2 0x100 DUP6 ADD MSTORE PUSH1 0x9 DUP2 ADD SLOAD PUSH2 0x120 DUP6 ADD MSTORE PUSH2 0xCC8 PUSH1 0xA DUP3 ADD PUSH2 0x203B JUMP JUMPDEST PUSH2 0x140 DUP6 ADD MSTORE PUSH2 0xCDA PUSH1 0xB DUP3 ADD PUSH2 0x203B JUMP JUMPDEST PUSH2 0x160 DUP6 ADD MSTORE PUSH2 0xCEC PUSH1 0xC DUP3 ADD PUSH2 0x203B JUMP JUMPDEST PUSH2 0x180 DUP6 ADD MSTORE ADD PUSH2 0x203B JUMP JUMPDEST PUSH2 0x1A0 DUP3 ADD MSTORE PUSH2 0x700 DUP2 PUSH2 0x1A0 PUSH2 0xE41 PUSH2 0xE2B PUSH2 0xE13 PUSH2 0xDEF PUSH2 0xDD7 PUSH2 0xDC0 PUSH2 0xDAA PUSH2 0xD94 PUSH2 0xD7E PUSH1 0x40 MLOAD SWAP14 DUP15 SWAP14 DUP15 PUSH1 0x20 DUP2 MSTORE PUSH1 0x40 PUSH2 0xD45 DUP4 MLOAD PUSH2 0x1C0 PUSH1 0x20 DUP6 ADD MSTORE PUSH2 0x1E0 DUP5 ADD SWAP1 PUSH2 0x1D7D JUMP JUMPDEST SWAP3 PUSH1 0xFF PUSH1 0x20 DUP3 ADD MLOAD AND DUP3 DUP5 ADD MSTORE ADD MLOAD SWAP1 PUSH1 0x60 PUSH1 0x1F NOT DUP3 DUP6 SUB ADD SWAP2 ADD MSTORE PUSH2 0x1D7D JUMP JUMPDEST DUP14 PUSH1 0x60 DUP14 ADD MLOAD SWAP1 PUSH1 0x80 PUSH1 0x1F NOT DUP3 DUP6 SUB ADD SWAP2 ADD MSTORE PUSH2 0x1D7D JUMP JUMPDEST PUSH1 0x80 DUP12 ADD MLOAD DUP14 DUP3 SUB PUSH1 0x1F NOT ADD PUSH1 0xA0 DUP16 ADD MSTORE PUSH2 0x1D7D JUMP JUMPDEST PUSH1 0xA0 DUP11 ADD MLOAD DUP13 DUP3 SUB PUSH1 0x1F NOT ADD PUSH1 0xC0 DUP15 ADD MSTORE PUSH2 0x1D7D JUMP JUMPDEST PUSH1 0xC0 DUP10 ADD MLOAD DUP12 DUP3 SUB PUSH1 0x1F NOT ADD PUSH1 0xE0 DUP14 ADD MSTORE PUSH2 0x1D7D JUMP JUMPDEST PUSH1 0xE0 DUP9 ADD MLOAD DUP11 DUP3 SUB PUSH1 0x1F NOT ADD PUSH2 0x100 DUP13 ADD MSTORE PUSH2 0x1D7D JUMP JUMPDEST PUSH2 0x100 DUP8 ADD MLOAD DUP10 DUP3 SUB PUSH1 0x1F NOT ADD PUSH2 0x120 DUP12 ADD MSTORE PUSH2 0x1D7D JUMP JUMPDEST PUSH2 0x120 DUP7 ADD MLOAD PUSH2 0x140 DUP10 ADD MSTORE PUSH2 0x140 DUP7 ADD MLOAD PUSH1 0x1F NOT DUP10 DUP4 SUB ADD PUSH2 0x160 DUP11 ADD MSTORE PUSH2 0x1D7D JUMP JUMPDEST PUSH2 0x160 DUP6 ADD MLOAD DUP8 DUP3 SUB PUSH1 0x1F NOT ADD PUSH2 0x180 DUP10 ADD MSTORE PUSH2 0x1D7D JUMP JUMPDEST PUSH2 0x180 DUP5 ADD MLOAD DUP7 DUP3 SUB PUSH1 0x1F NOT ADD DUP5 DUP9 ADD MSTORE PUSH2 0x1D7D JUMP JUMPDEST SWAP2 ADD MLOAD DUP4 DUP3 SUB PUSH1 0x1F NOT ADD PUSH2 0x1C0 DUP6 ADD MSTORE PUSH2 0x1D7D JUMP JUMPDEST CALLVALUE PUSH2 0x14B JUMPI PUSH1 0xE0 CALLDATASIZE PUSH1 0x3 NOT ADD SLT PUSH2 0x14B JUMPI PUSH1 0x1 PUSH1 0x1 PUSH1 0x40 SHL SUB PUSH1 0x4 CALLDATALOAD DUP2 DUP2 GT PUSH2 0x14B JUMPI PUSH2 0xE87 SWAP1 CALLDATASIZE SWAP1 PUSH1 0x4 ADD PUSH2 0x1CD3 JUMP JUMPDEST PUSH1 0x24 CALLDATALOAD DUP3 DUP2 GT PUSH2 0x14B JUMPI PUSH2 0xE9F SWAP1 CALLDATASIZE SWAP1 PUSH1 0x4 ADD PUSH2 0x1CD3 JUMP JUMPDEST SWAP2 PUSH1 0x44 CALLDATALOAD SWAP2 PUSH1 0x64 CALLDATALOAD DUP3 DUP2 GT PUSH2 0x14B JUMPI PUSH2 0xEBC SWAP1 CALLDATASIZE SWAP1 PUSH1 0x4 ADD PUSH2 0x1CD3 JUMP JUMPDEST SWAP1 PUSH1 0x84 CALLDATALOAD DUP4 DUP2 GT PUSH2 0x14B JUMPI PUSH2 0xED5 SWAP1 CALLDATASIZE SWAP1 PUSH1 0x4 ADD PUSH2 0x1CD3 JUMP JUMPDEST SWAP5 PUSH1 0xA4 CALLDATALOAD DUP5 DUP2 GT PUSH2 0x14B JUMPI PUSH2 0xEEE SWAP1 CALLDATASIZE SWAP1 PUSH1 0x4 ADD PUSH2 0x1CD3 JUMP JUMPDEST PUSH1 0xC4 CALLDATALOAD SWAP5 DUP6 GT PUSH2 0x14B JUMPI DUP6 SWAP5 PUSH2 0xF08 SWAP1 CALLDATASIZE SWAP1 PUSH1 0x4 ADD PUSH2 0x1CD3 JUMP JUMPDEST SWAP1 PUSH1 0x40 MLOAD SWAP2 DUP5 MLOAD SWAP2 PUSH1 0x20 SWAP10 DUP11 DUP8 ADD SWAP4 PUSH2 0xF22 DUP2 DUP8 DUP8 PUSH2 0x1D5A JUMP JUMPDEST DUP6 ADD DUP6 DUP13 PUSH1 0x1 SWAP8 DUP4 DUP10 DUP1 SWAP6 MSTORE SUB ADD SWAP1 KECCAK256 ADD DUP10 PUSH1 0x0 MSTORE DUP12 MSTORE DUP6 DUP6 PUSH1 0x40 PUSH1 0x0 KECCAK256 ADD SWAP1 PUSH2 0xF4B SWAP2 PUSH2 0x1F0C JUMP JUMPDEST DUP5 PUSH1 0x40 MLOAD DUP13 DUP2 DUP11 MLOAD PUSH2 0xF5E DUP2 DUP4 DUP12 PUSH2 0x1D5A JUMP JUMPDEST DUP2 ADD DUP5 DUP2 MSTORE SUB ADD SWAP1 KECCAK256 ADD DUP10 PUSH1 0x0 MSTORE DUP12 MSTORE DUP8 PUSH1 0x40 PUSH1 0x0 KECCAK256 PUSH1 0x3 ADD SWAP1 PUSH2 0xF81 SWAP2 PUSH2 0x1F0C JUMP JUMPDEST DUP5 PUSH1 0x40 MLOAD DUP13 DUP2 DUP11 MLOAD PUSH2 0xF94 DUP2 DUP4 DUP12 PUSH2 0x1D5A JUMP JUMPDEST DUP2 ADD DUP5 DUP2 MSTORE SUB ADD SWAP1 KECCAK256 ADD DUP10 PUSH1 0x0 MSTORE DUP12 MSTORE PUSH1 0x40 PUSH1 0x0 KECCAK256 PUSH1 0x8 ADD SWAP1 PUSH2 0xFB6 SWAP2 PUSH2 0x1F0C JUMP JUMPDEST DUP4 PUSH1 0x40 MLOAD DUP12 DUP2 DUP10 MLOAD PUSH2 0xFC9 DUP2 DUP4 DUP11 PUSH2 0x1D5A JUMP JUMPDEST DUP2 ADD DUP5 DUP2 MSTORE SUB ADD SWAP1 KECCAK256 ADD DUP9 PUSH1 0x0 MSTORE DUP11 MSTORE PUSH1 0x40 PUSH1 0x0 KECCAK256 PUSH1 0x9 ADD SWAP1 PUSH2 0xFEB SWAP2 PUSH2 0x1F0C JUMP JUMPDEST DUP3 PUSH1 0x40 MLOAD DUP11 DUP2 DUP9 MLOAD PUSH2 0xFFE DUP2 DUP4 DUP10 PUSH2 0x1D5A JUMP JUMPDEST DUP2 ADD DUP5 DUP2 MSTORE SUB ADD SWAP1 KECCAK256 ADD DUP8 PUSH1 0x0 MSTORE DUP10 MSTORE PUSH1 0x40 PUSH1 0x0 KECCAK256 PUSH1 0xA ADD SWAP1 PUSH2 0x1020 SWAP2 PUSH2 0x1F0C JUMP JUMPDEST DUP8 PUSH1 0x40 MLOAD DUP1 DUP1 SWAP4 DUP8 MLOAD DUP1 SWAP3 PUSH2 0x1034 SWAP3 PUSH2 0x1D5A JUMP JUMPDEST DUP2 ADD DUP5 DUP2 MSTORE SUB ADD SWAP1 KECCAK256 ADD DUP5 PUSH1 0x0 MSTORE DUP7 MSTORE PUSH1 0x40 PUSH1 0x0 KECCAK256 SLOAD PUSH1 0xFF AND SWAP2 PUSH2 0x1057 SWAP1 PUSH2 0x201B JUMP JUMPDEST SWAP3 PUSH1 0x40 MLOAD SWAP2 DUP3 SWAP2 PUSH2 0x1068 SWAP2 DUP4 PUSH2 0x20DF JUMP JUMPDEST SUB PUSH32 0x6C9F87863C51532C2B7C35173BB3FAA0120A0949C05F0FA853853CA73B9E0E01 SWAP2 LOG4 PUSH1 0x40 MLOAD SWAP1 DUP2 MSTORE RETURN JUMPDEST CALLVALUE PUSH2 0x14B JUMPI PUSH1 0x20 DUP1 PUSH2 0x1107 PUSH1 0x5 PUSH2 0x10AA CALLDATASIZE PUSH2 0x1D29 JUMP JUMPDEST SWAP4 DUP5 SWAP4 SWAP2 PUSH1 0x40 MLOAD SWAP1 DUP6 PUSH1 0x3 DUP3 MLOAD SWAP4 DUP6 DUP2 DUP2 DUP7 ADD SWAP7 PUSH2 0x10C9 DUP2 DUP4 DUP11 PUSH2 0x1D5A JUMP JUMPDEST DUP2 ADD PUSH1 0x1 DUP2 MSTORE SUB ADD SWAP1 KECCAK256 ADD SSTORE DUP6 PUSH1 0x4 PUSH1 0x40 MLOAD DUP6 DUP2 DUP6 MLOAD PUSH2 0x10EA DUP2 DUP4 DUP11 PUSH2 0x1D5A JUMP JUMPDEST DUP2 ADD PUSH1 0x1 DUP2 MSTORE SUB ADD SWAP1 KECCAK256 ADD SSTORE PUSH1 0x40 MLOAD SWAP4 DUP5 SWAP3 DUP4 SWAP3 MLOAD SWAP3 DUP4 SWAP2 PUSH2 0x1D5A JUMP JUMPDEST DUP2 ADD PUSH1 0x1 DUP2 MSTORE SUB ADD SWAP1 KECCAK256 ADD SSTORE PUSH1 0x40 MLOAD SWAP1 DUP2 MSTORE RETURN JUMPDEST CALLVALUE PUSH2 0x14B JUMPI PUSH2 0x220 CALLDATASIZE PUSH1 0x3 NOT ADD SLT PUSH2 0x14B JUMPI PUSH1 0x1 PUSH1 0x1 PUSH1 0x40 SHL SUB PUSH1 0x4 CALLDATALOAD DUP2 DUP2 GT PUSH2 0x14B JUMPI PUSH2 0x114D SWAP1 CALLDATASIZE SWAP1 PUSH1 0x4 ADD PUSH2 0x1CD3 JUMP JUMPDEST PUSH1 0x24 CALLDATALOAD DUP3 DUP2 GT PUSH2 0x14B JUMPI PUSH2 0x1165 SWAP1 CALLDATASIZE SWAP1 PUSH1 0x4 ADD PUSH2 0x1CD3 JUMP JUMPDEST SWAP2 PUSH1 0x64 CALLDATALOAD PUSH1 0xFF DUP2 AND DUP2 SUB PUSH2 0x14B JUMPI PUSH1 0x84 CALLDATALOAD DUP3 DUP2 GT PUSH2 0x14B JUMPI PUSH2 0x118B SWAP1 CALLDATASIZE SWAP1 PUSH1 0x4 ADD PUSH2 0x1CD3 JUMP JUMPDEST PUSH1 0xA4 CALLDATALOAD DUP4 DUP2 GT PUSH2 0x14B JUMPI PUSH2 0x11A3 SWAP1 CALLDATASIZE SWAP1 PUSH1 0x4 ADD PUSH2 0x1CD3 JUMP JUMPDEST PUSH1 0xC4 CALLDATALOAD DUP5 DUP2 GT PUSH2 0x14B JUMPI PUSH2 0x11BB SWAP1 CALLDATASIZE SWAP1 PUSH1 0x4 ADD PUSH2 0x1CD3 JUMP JUMPDEST PUSH1 0xE4 CALLDATALOAD DUP6 DUP2 GT PUSH2 0x14B JUMPI PUSH2 0x11D3 SWAP1 CALLDATASIZE SWAP1 PUSH1 0x4 ADD PUSH2 0x1CD3 JUMP JUMPDEST PUSH2 0x104 CALLDATALOAD DUP7 DUP2 GT PUSH2 0x14B JUMPI PUSH2 0x11EC SWAP1 CALLDATASIZE SWAP1 PUSH1 0x4 ADD PUSH2 0x1CD3 JUMP JUMPDEST PUSH2 0x124 CALLDATALOAD DUP8 DUP2 GT PUSH2 0x14B JUMPI PUSH2 0x1205 SWAP1 CALLDATASIZE SWAP1 PUSH1 0x4 ADD PUSH2 0x1CD3 JUMP JUMPDEST SWAP1 PUSH2 0x144 CALLDATALOAD DUP9 DUP2 GT PUSH2 0x14B JUMPI PUSH2 0x121F SWAP1 CALLDATASIZE SWAP1 PUSH1 0x4 ADD PUSH2 0x1CD3 JUMP JUMPDEST SWAP3 PUSH2 0x184 CALLDATALOAD DUP10 DUP2 GT PUSH2 0x14B JUMPI PUSH2 0x1239 SWAP1 CALLDATASIZE SWAP1 PUSH1 0x4 ADD PUSH2 0x1CD3 JUMP JUMPDEST SWAP5 PUSH2 0x1A4 CALLDATALOAD DUP11 DUP2 GT PUSH2 0x14B JUMPI PUSH2 0x1253 SWAP1 CALLDATASIZE SWAP1 PUSH1 0x4 ADD PUSH2 0x1CD3 JUMP JUMPDEST SWAP7 PUSH2 0x1C4 CALLDATALOAD DUP12 DUP2 GT PUSH2 0x14B JUMPI PUSH2 0x126D SWAP1 CALLDATASIZE SWAP1 PUSH1 0x4 ADD PUSH2 0x1CD3 JUMP JUMPDEST SWAP9 PUSH2 0x1E4 CALLDATALOAD SWAP12 DUP13 GT PUSH2 0x14B JUMPI DUP14 SWAP12 PUSH2 0x1289 SWAP1 CALLDATASIZE SWAP1 PUSH1 0x4 ADD PUSH2 0x1CD3 JUMP JUMPDEST SWAP11 DUP14 PUSH1 0x40 MLOAD SWAP1 DUP1 MLOAD SWAP2 DUP1 PUSH1 0x20 DUP4 ADD SWAP4 PUSH2 0x12A3 DUP2 DUP4 DUP8 PUSH2 0x1D5A JUMP JUMPDEST DUP2 ADD PUSH1 0x1 DUP2 MSTORE SUB PUSH1 0x20 ADD SWAP1 KECCAK256 PUSH1 0x9 ADD SLOAD PUSH1 0xFF AND ISZERO PUSH2 0x12C0 SWAP1 PUSH2 0x1DFA JUMP JUMPDEST PUSH1 0x40 MLOAD DUP1 SWAP3 DUP2 SWAP3 MLOAD DUP1 SWAP3 PUSH2 0x12D3 SWAP3 PUSH2 0x1D5A JUMP JUMPDEST DUP2 ADD PUSH1 0x1 DUP2 MSTORE SUB PUSH1 0x20 ADD SWAP1 KECCAK256 SWAP13 PUSH1 0x44 CALLDATALOAD PUSH1 0x0 MSTORE DUP14 PUSH1 0x20 MSTORE PUSH1 0x40 PUSH1 0x0 KECCAK256 SWAP1 PUSH2 0x12F9 SWAP2 PUSH2 0x1F0C JUMP JUMPDEST PUSH1 0x44 CALLDATALOAD PUSH1 0x0 MSTORE DUP13 PUSH1 0x20 MSTORE PUSH1 0x40 PUSH1 0x0 KECCAK256 SWAP1 PUSH1 0xFF AND PUSH1 0xFF NOT PUSH1 0x1 DUP4 ADD SLOAD AND OR PUSH1 0x1 DUP3 ADD SSTORE PUSH1 0x2 ADD SWAP1 PUSH2 0x1328 SWAP2 PUSH2 0x1F0C JUMP JUMPDEST PUSH1 0x44 CALLDATALOAD PUSH1 0x0 MSTORE DUP11 PUSH1 0x20 MSTORE PUSH1 0x40 PUSH1 0x0 KECCAK256 PUSH1 0x3 ADD SWAP1 PUSH2 0x1344 SWAP2 PUSH2 0x1F0C JUMP JUMPDEST PUSH1 0x44 CALLDATALOAD PUSH1 0x0 MSTORE DUP10 PUSH1 0x20 MSTORE PUSH1 0x40 PUSH1 0x0 KECCAK256 PUSH1 0x4 ADD SWAP1 PUSH2 0x1360 SWAP2 PUSH2 0x1F0C JUMP JUMPDEST PUSH1 0x44 CALLDATALOAD PUSH1 0x0 MSTORE DUP9 PUSH1 0x20 MSTORE PUSH1 0x40 PUSH1 0x0 KECCAK256 PUSH1 0x5 ADD SWAP1 PUSH2 0x137C SWAP2 PUSH2 0x1F0C JUMP JUMPDEST PUSH1 0x44 CALLDATALOAD PUSH1 0x0 MSTORE DUP8 PUSH1 0x20 MSTORE PUSH1 0x40 PUSH1 0x0 KECCAK256 PUSH1 0x6 ADD SWAP1 PUSH2 0x1398 SWAP2 PUSH2 0x1F0C JUMP JUMPDEST PUSH1 0x44 CALLDATALOAD PUSH1 0x0 MSTORE DUP7 PUSH1 0x20 MSTORE PUSH1 0x40 PUSH1 0x0 KECCAK256 PUSH1 0x7 ADD SWAP1 PUSH2 0x13B4 SWAP2 PUSH2 0x1F0C JUMP JUMPDEST PUSH1 0x44 CALLDATALOAD PUSH1 0x0 MSTORE DUP6 PUSH1 0x20 MSTORE PUSH1 0x40 PUSH1 0x0 KECCAK256 PUSH1 0x8 ADD SWAP1 PUSH2 0x13D0 SWAP2 PUSH2 0x1F0C JUMP JUMPDEST PUSH1 0x44 CALLDATALOAD PUSH1 0x0 MSTORE DUP5 PUSH1 0x20 MSTORE PUSH1 0x40 PUSH1 0x0 KECCAK256 PUSH2 0x164 CALLDATALOAD PUSH1 0x9 DUP3 ADD SSTORE PUSH1 0xA ADD SWAP1 PUSH2 0x13F5 SWAP2 PUSH2 0x1F0C JUMP JUMPDEST PUSH1 0x44 CALLDATALOAD PUSH1 0x0 MSTORE DUP4 PUSH1 0x20 MSTORE PUSH1 0x40 PUSH1 0x0 KECCAK256 PUSH1 0xB ADD SWAP1 PUSH2 0x1411 SWAP2 PUSH2 0x1F0C JUMP JUMPDEST PUSH1 0x44 CALLDATALOAD PUSH1 0x0 MSTORE DUP3 PUSH1 0x20 MSTORE PUSH1 0x40 PUSH1 0x0 KECCAK256 PUSH1 0xC ADD SWAP1 PUSH2 0x142D SWAP2 PUSH2 0x1F0C JUMP JUMPDEST PUSH1 0x44 CALLDATALOAD PUSH1 0x0 MSTORE DUP2 PUSH1 0x20 MSTORE PUSH1 0x40 PUSH1 0x0 KECCAK256 PUSH1 0xD ADD SWAP1 PUSH2 0x1449 SWAP2 PUSH2 0x1F0C JUMP JUMPDEST PUSH2 0x204 CALLDATALOAD PUSH1 0x8 DUP3 ADD SSTORE PUSH1 0x9 ADD PUSH1 0xFF NOT DUP2 SLOAD AND PUSH1 0x1 OR SWAP1 SSTORE DUP1 PUSH1 0x40 MLOAD DUP1 DUP5 MLOAD DUP2 DUP2 PUSH1 0x20 DUP9 ADD SWAP2 PUSH2 0x1477 SWAP3 PUSH2 0x1D5A JUMP JUMPDEST DUP2 ADD PUSH1 0x2 DUP2 MSTORE SUB PUSH1 0x20 ADD SWAP1 KECCAK256 SWAP1 PUSH2 0x148D SWAP2 PUSH2 0x1FD3 JUMP JUMPDEST PUSH2 0x1496 SWAP1 PUSH2 0x201B JUMP JUMPDEST SWAP1 PUSH2 0x14A0 SWAP1 PUSH2 0x201B JUMP JUMPDEST SWAP1 PUSH1 0x40 MLOAD SWAP2 PUSH1 0x44 CALLDATALOAD SWAP2 PUSH32 0x406D6A39963B189AE4D4BA0B53780ECDF05DC013E196662687A246B0A2B70548 PUSH1 0x0 DUP1 LOG4 PUSH1 0x44 CALLDATALOAD DUP2 MSTORE PUSH1 0x20 SWAP1 RETURN JUMPDEST CALLVALUE PUSH2 0x14B JUMPI PUSH2 0x100 CALLDATASIZE PUSH1 0x3 NOT ADD SLT PUSH2 0x14B JUMPI PUSH1 0x4 CALLDATALOAD PUSH1 0xFF DUP2 AND DUP2 SUB PUSH2 0x14B JUMPI PUSH1 0x1 PUSH1 0x1 PUSH1 0x40 SHL SUB PUSH1 0x24 CALLDATALOAD DUP2 DUP2 GT PUSH2 0x14B JUMPI PUSH2 0x1517 SWAP1 CALLDATASIZE SWAP1 PUSH1 0x4 ADD PUSH2 0x1CD3 JUMP JUMPDEST PUSH1 0x44 CALLDATALOAD DUP3 DUP2 GT PUSH2 0x14B JUMPI PUSH2 0x152F SWAP1 CALLDATASIZE SWAP1 PUSH1 0x4 ADD PUSH2 0x1CD3 JUMP JUMPDEST SWAP1 PUSH1 0x84 CALLDATALOAD DUP4 DUP2 GT PUSH2 0x14B JUMPI PUSH2 0x1548 SWAP1 CALLDATASIZE SWAP1 PUSH1 0x4 ADD PUSH2 0x1CD3 JUMP JUMPDEST SWAP3 PUSH1 0xA4 CALLDATALOAD SWAP1 PUSH1 0xFF DUP3 AND DUP3 SUB PUSH2 0x14B JUMPI PUSH1 0xC4 CALLDATALOAD DUP2 DUP2 GT PUSH2 0x14B JUMPI PUSH2 0x156F SWAP1 CALLDATASIZE SWAP1 PUSH1 0x4 ADD PUSH2 0x1CD3 JUMP JUMPDEST SWAP3 PUSH1 0xE4 CALLDATALOAD SWAP2 DUP3 GT PUSH2 0x14B JUMPI PUSH2 0x351 PUSH2 0x1735 SWAP4 PUSH2 0x16E9 PUSH32 0x6C9F87863C51532C2B7C35173BB3FAA0120A0949C05F0FA853853CA73B9E0E01 SWAP7 PUSH2 0x15B7 PUSH2 0x1720 SWAP7 CALLDATASIZE SWAP1 PUSH1 0x4 ADD PUSH2 0x1CD3 JUMP JUMPDEST SWAP3 PUSH1 0x1 PUSH1 0x40 MLOAD PUSH1 0x20 DUP2 DUP2 PUSH2 0x15D1 DUP12 DUP4 DUP2 MLOAD SWAP4 DUP5 SWAP3 ADD PUSH2 0x1D5A JUMP JUMPDEST DUP5 DUP2 DUP4 ADD MSTORE DUP2 ADD SUB ADD SWAP1 KECCAK256 ADD PUSH1 0x64 CALLDATALOAD PUSH1 0x0 MSTORE PUSH1 0x20 MSTORE DUP12 PUSH1 0x40 PUSH1 0x0 KECCAK256 PUSH1 0xFF DUP1 NOT SWAP3 AND DUP3 DUP3 SLOAD AND OR SWAP1 SSTORE PUSH1 0x1 PUSH1 0x40 MLOAD PUSH1 0x20 DUP2 DUP2 PUSH2 0x1612 DUP13 DUP4 DUP2 MLOAD SWAP4 DUP5 SWAP3 ADD PUSH2 0x1D5A JUMP JUMPDEST DUP2 ADD DUP5 DUP2 MSTORE SUB ADD SWAP1 KECCAK256 ADD PUSH1 0x64 CALLDATALOAD PUSH1 0x0 MSTORE PUSH1 0x20 MSTORE PUSH2 0x1636 DUP12 PUSH1 0x2 PUSH1 0x40 PUSH1 0x0 KECCAK256 ADD PUSH2 0x1F0C JUMP JUMPDEST PUSH1 0x1 PUSH1 0x40 MLOAD PUSH1 0x20 DUP2 DUP2 PUSH2 0x164F DUP13 DUP4 DUP2 MLOAD SWAP4 DUP5 SWAP3 ADD PUSH2 0x1D5A JUMP JUMPDEST DUP2 ADD DUP5 DUP2 MSTORE SUB ADD SWAP1 KECCAK256 ADD PUSH1 0x64 CALLDATALOAD PUSH1 0x0 MSTORE PUSH1 0x20 MSTORE PUSH2 0x1673 DUP13 PUSH1 0x4 PUSH1 0x40 PUSH1 0x0 KECCAK256 ADD PUSH2 0x1F0C JUMP JUMPDEST PUSH1 0x1 PUSH1 0x40 MLOAD PUSH1 0x20 DUP2 DUP2 PUSH2 0x168C DUP13 DUP4 DUP2 MLOAD SWAP4 DUP5 SWAP3 ADD PUSH2 0x1D5A JUMP JUMPDEST DUP2 ADD DUP5 DUP2 MSTORE SUB ADD SWAP1 KECCAK256 ADD PUSH1 0x64 CALLDATALOAD PUSH1 0x0 MSTORE PUSH1 0x20 MSTORE PUSH1 0xFF PUSH1 0x5 PUSH1 0x40 PUSH1 0x0 KECCAK256 ADD SWAP3 AND SWAP1 DUP3 SLOAD AND OR SWAP1 SSTORE PUSH1 0x1 PUSH1 0x40 MLOAD PUSH1 0x20 DUP2 DUP9 MLOAD PUSH2 0x16C9 DUP2 DUP4 DUP6 DUP14 ADD PUSH2 0x1D5A JUMP JUMPDEST DUP2 ADD DUP5 DUP2 MSTORE SUB ADD SWAP1 KECCAK256 ADD PUSH1 0x64 CALLDATALOAD PUSH1 0x0 MSTORE PUSH1 0x20 MSTORE PUSH1 0x6 PUSH1 0x40 PUSH1 0x0 KECCAK256 ADD PUSH2 0x1F0C JUMP JUMPDEST PUSH1 0x1 PUSH1 0x40 MLOAD PUSH1 0x20 DUP2 DUP7 MLOAD PUSH2 0x1700 DUP2 DUP4 DUP6 DUP12 ADD PUSH2 0x1D5A JUMP JUMPDEST DUP2 ADD DUP5 DUP2 MSTORE SUB ADD SWAP1 KECCAK256 ADD PUSH1 0x64 CALLDATALOAD PUSH1 0x0 MSTORE PUSH1 0x20 MSTORE PUSH1 0x7 PUSH1 0x40 PUSH1 0x0 KECCAK256 ADD PUSH2 0x1F0C JUMP JUMPDEST SWAP4 PUSH1 0x40 MLOAD SWAP2 DUP3 SWAP2 PUSH1 0xFF PUSH1 0x64 CALLDATALOAD SWAP9 AND SWAP6 DUP4 PUSH2 0x20DF JUMP JUMPDEST SUB SWAP1 LOG4 PUSH1 0x20 PUSH1 0x40 MLOAD PUSH1 0x64 CALLDATALOAD DUP2 MSTORE RETURN JUMPDEST CALLVALUE PUSH2 0x14B JUMPI PUSH1 0x20 CALLDATASIZE PUSH1 0x3 NOT ADD SLT PUSH2 0x14B JUMPI PUSH1 0x4 CALLDATALOAD PUSH1 0x1 PUSH1 0x1 PUSH1 0x40 SHL SUB DUP2 GT PUSH2 0x14B JUMPI PUSH1 0x6 PUSH2 0x6D8 PUSH1 0x20 PUSH2 0x696 PUSH2 0x700 SWAP5 CALLDATASIZE SWAP1 PUSH1 0x4 ADD PUSH2 0x1CD3 JUMP JUMPDEST CALLVALUE PUSH2 0x14B JUMPI PUSH1 0x4 PUSH2 0x1107 PUSH1 0x6 PUSH2 0x1793 CALLDATASIZE PUSH2 0x1D29 JUMP JUMPDEST SWAP3 DUP4 SWAP3 SWAP2 PUSH1 0x40 MLOAD SWAP1 DUP1 MLOAD SWAP1 PUSH1 0x20 SWAP8 DUP4 DUP10 DUP1 SWAP6 DUP2 DUP6 ADD SWAP6 PUSH2 0x17B4 DUP2 DUP4 DUP10 PUSH2 0x1D5A JUMP JUMPDEST DUP2 ADD PUSH1 0x1 DUP2 MSTORE SUB ADD SWAP1 KECCAK256 ADD SLOAD PUSH1 0x3 PUSH1 0x40 MLOAD DUP6 DUP2 DUP6 MLOAD PUSH2 0x10C9 DUP2 DUP4 DUP11 PUSH2 0x1D5A JUMP JUMPDEST CALLVALUE PUSH2 0x14B JUMPI PUSH1 0x20 DUP1 PUSH1 0x8 PUSH2 0x180B PUSH2 0x17EA CALLDATASIZE PUSH2 0x1D29 JUMP JUMPDEST SWAP4 SWAP1 PUSH1 0x40 MLOAD SWAP1 PUSH2 0x6C7 PUSH1 0xFF PUSH1 0x9 DUP4 MLOAD SWAP5 DUP7 DUP2 DUP2 DUP8 ADD SWAP8 PUSH2 0x6B5 DUP2 DUP4 DUP12 PUSH2 0x1D5A JUMP JUMPDEST DUP2 ADD PUSH1 0x1 DUP2 MSTORE SUB ADD SWAP1 KECCAK256 ADD SLOAD EQ PUSH1 0x40 MLOAD SWAP1 DUP2 MSTORE RETURN JUMPDEST CALLVALUE PUSH2 0x14B JUMPI PUSH1 0x20 PUSH1 0x1 PUSH2 0x1898 PUSH2 0x1835 CALLDATASIZE PUSH2 0x1D29 JUMP JUMPDEST SWAP4 SWAP1 PUSH1 0x60 PUSH2 0x140 PUSH1 0x40 MLOAD PUSH2 0x1848 DUP2 PUSH2 0x1C7A JUMP JUMPDEST PUSH1 0x0 DUP2 MSTORE DUP3 DUP6 DUP3 ADD MSTORE DUP3 PUSH1 0x40 DUP3 ADD MSTORE DUP3 DUP1 DUP3 ADD MSTORE DUP3 PUSH1 0x80 DUP3 ADD MSTORE PUSH1 0x0 PUSH1 0xA0 DUP3 ADD MSTORE DUP3 PUSH1 0xC0 DUP3 ADD MSTORE DUP3 PUSH1 0xE0 DUP3 ADD MSTORE DUP3 PUSH2 0x100 DUP3 ADD MSTORE DUP3 PUSH2 0x120 DUP3 ADD MSTORE ADD MSTORE DUP2 PUSH1 0x40 MLOAD SWAP4 DUP3 DUP6 DUP1 SWAP5 MLOAD SWAP4 DUP5 SWAP3 ADD PUSH2 0x1D5A JUMP JUMPDEST DUP2 ADD DUP5 DUP2 MSTORE SUB ADD SWAP1 KECCAK256 ADD SWAP1 PUSH1 0x0 MSTORE PUSH1 0x20 MSTORE PUSH2 0x700 PUSH1 0x40 PUSH1 0x0 KECCAK256 PUSH2 0x1967 PUSH1 0xA PUSH1 0x40 MLOAD SWAP3 PUSH2 0x18C3 DUP5 PUSH2 0x1C7A JUMP JUMPDEST PUSH1 0xFF DUP2 SLOAD AND DUP5 MSTORE PUSH2 0x18D6 PUSH1 0x1 DUP3 ADD PUSH2 0x203B JUMP JUMPDEST PUSH1 0x20 DUP6 ADD MSTORE PUSH2 0x18E7 PUSH1 0x2 DUP3 ADD PUSH2 0x203B JUMP JUMPDEST PUSH1 0x40 DUP6 ADD MSTORE PUSH2 0x18F8 PUSH1 0x3 DUP3 ADD PUSH2 0x203B JUMP JUMPDEST PUSH1 0x60 DUP6 ADD MSTORE PUSH2 0x1909 PUSH1 0x4 DUP3 ADD PUSH2 0x203B JUMP JUMPDEST PUSH1 0x80 DUP6 ADD MSTORE PUSH1 0xFF PUSH1 0x5 DUP3 ADD SLOAD AND PUSH1 0xA0 DUP6 ADD MSTORE PUSH2 0x1927 PUSH1 0x6 DUP3 ADD PUSH2 0x203B JUMP JUMPDEST PUSH1 0xC0 DUP6 ADD MSTORE PUSH2 0x1938 PUSH1 0x7 DUP3 ADD PUSH2 0x203B JUMP JUMPDEST PUSH1 0xE0 DUP6 ADD MSTORE PUSH2 0x1949 PUSH1 0x8 DUP3 ADD PUSH2 0x203B JUMP JUMPDEST PUSH2 0x100 DUP6 ADD MSTORE PUSH2 0x195B PUSH1 0x9 DUP3 ADD PUSH2 0x203B JUMP JUMPDEST PUSH2 0x120 DUP6 ADD MSTORE ADD PUSH2 0x203B JUMP JUMPDEST PUSH2 0x140 DUP3 ADD MSTORE PUSH1 0x40 MLOAD SWAP2 DUP3 SWAP2 PUSH1 0x20 DUP4 MSTORE PUSH1 0xFF DUP2 MLOAD AND PUSH1 0x20 DUP5 ADD MSTORE PUSH2 0x140 PUSH2 0x1A5F PUSH2 0x1A49 PUSH2 0x1A31 PUSH2 0x1A1A PUSH2 0x19F7 PUSH2 0x19E1 PUSH2 0x19CB PUSH2 0x19B5 DUP12 PUSH2 0x160 PUSH1 0x40 PUSH1 0x20 DUP14 ADD MLOAD SWAP3 ADD MSTORE PUSH2 0x180 DUP14 ADD SWAP1 PUSH2 0x1D7D JUMP JUMPDEST PUSH1 0x40 DUP11 ADD MLOAD DUP13 DUP3 SUB PUSH1 0x1F NOT ADD PUSH1 0x60 DUP15 ADD MSTORE PUSH2 0x1D7D JUMP JUMPDEST PUSH1 0x60 DUP10 ADD MLOAD DUP12 DUP3 SUB PUSH1 0x1F NOT ADD PUSH1 0x80 DUP14 ADD MSTORE PUSH2 0x1D7D JUMP JUMPDEST PUSH1 0x80 DUP9 ADD MLOAD DUP11 DUP3 SUB PUSH1 0x1F NOT ADD PUSH1 0xA0 DUP13 ADD MSTORE PUSH2 0x1D7D JUMP JUMPDEST PUSH1 0xFF PUSH1 0xA0 DUP9 ADD MLOAD AND PUSH1 0xC0 DUP11 ADD MSTORE PUSH1 0xC0 DUP8 ADD MLOAD PUSH1 0x1F NOT DUP11 DUP4 SUB ADD PUSH1 0xE0 DUP12 ADD MSTORE PUSH2 0x1D7D JUMP JUMPDEST PUSH1 0xE0 DUP7 ADD MLOAD DUP9 DUP3 SUB PUSH1 0x1F NOT ADD PUSH2 0x100 DUP11 ADD MSTORE PUSH2 0x1D7D JUMP JUMPDEST PUSH2 0x100 DUP6 ADD MLOAD DUP8 DUP3 SUB PUSH1 0x1F NOT ADD PUSH2 0x120 DUP10 ADD MSTORE PUSH2 0x1D7D JUMP JUMPDEST PUSH2 0x120 DUP5 ADD MLOAD DUP7 DUP3 SUB PUSH1 0x1F NOT ADD DUP5 DUP9 ADD MSTORE PUSH2 0x1D7D JUMP JUMPDEST SWAP2 ADD MLOAD DUP4 DUP3 SUB PUSH1 0x1F NOT ADD PUSH2 0x160 DUP6 ADD MSTORE PUSH2 0x1D7D JUMP JUMPDEST CALLVALUE PUSH2 0x14B JUMPI PUSH2 0x1A82 CALLDATASIZE PUSH2 0x1D29 JUMP JUMPDEST PUSH1 0x40 MLOAD SWAP1 PUSH2 0x1A8F DUP3 PUSH2 0x1C49 JUMP JUMPDEST PUSH1 0x60 DUP3 DUP2 DUP1 SWAP5 MSTORE PUSH1 0x20 SWAP5 DUP3 DUP3 DUP8 SWAP5 DUP6 DUP1 SWAP6 ADD MSTORE PUSH1 0x40 DUP2 ADD PUSH1 0x0 SWAP1 MSTORE DUP2 DUP1 DUP3 ADD MSTORE DUP2 PUSH1 0x80 DUP3 ADD MSTORE DUP2 PUSH1 0xA0 DUP3 ADD MSTORE PUSH1 0xC0 ADD MSTORE PUSH1 0x40 MLOAD SWAP3 DUP4 DUP3 DUP2 SWAP4 MLOAD SWAP3 DUP4 SWAP2 ADD SWAP2 PUSH2 0x1AD6 SWAP3 PUSH2 0x1D5A JUMP JUMPDEST DUP2 ADD PUSH1 0x1 DUP2 MSTORE SUB ADD SWAP1 KECCAK256 PUSH1 0x2 ADD SWAP1 PUSH1 0x0 MSTORE DUP3 MSTORE PUSH1 0x40 PUSH1 0x0 KECCAK256 PUSH1 0x40 MLOAD SWAP2 PUSH2 0x1AFB DUP4 PUSH2 0x1C49 JUMP JUMPDEST PUSH2 0x1B04 DUP3 PUSH2 0x203B JUMP JUMPDEST DUP4 MSTORE PUSH2 0x1B12 PUSH1 0x1 DUP4 ADD PUSH2 0x203B JUMP JUMPDEST SWAP2 DUP5 DUP5 ADD SWAP3 DUP4 MSTORE PUSH1 0x2 DUP2 ADD SLOAD PUSH1 0xFF AND PUSH1 0x40 DUP6 ADD SWAP1 DUP2 MSTORE PUSH1 0x3 DUP3 ADD PUSH2 0x1B35 SWAP1 PUSH2 0x203B JUMP JUMPDEST DUP6 DUP5 ADD SWAP1 DUP2 MSTORE SWAP1 PUSH2 0x1B48 PUSH1 0x4 DUP5 ADD PUSH2 0x203B JUMP JUMPDEST PUSH1 0x80 DUP8 ADD SWAP1 DUP2 MSTORE SWAP2 PUSH2 0x1B5C PUSH1 0x5 DUP6 ADD PUSH2 0x203B JUMP JUMPDEST SWAP4 PUSH1 0xA0 DUP9 ADD SWAP5 DUP6 MSTORE PUSH1 0x6 ADD PUSH2 0x1B70 SWAP1 PUSH2 0x203B JUMP JUMPDEST SWAP5 PUSH1 0xC0 DUP9 ADD SWAP6 DUP7 MSTORE PUSH1 0x40 MLOAD SWAP9 DUP10 SWAP9 DUP2 DUP11 MSTORE MLOAD SWAP1 DUP10 ADD PUSH1 0xE0 SWAP1 MSTORE PUSH2 0x100 DUP10 ADD PUSH2 0x1B97 SWAP2 PUSH2 0x1D7D JUMP JUMPDEST SWAP7 MLOAD PUSH1 0x1F NOT SWAP8 DUP9 DUP11 DUP3 SUB ADD PUSH1 0x40 DUP12 ADD MSTORE PUSH2 0x1BB0 SWAP2 PUSH2 0x1D7D JUMP JUMPDEST SWAP3 MLOAD PUSH1 0xFF AND SWAP1 DUP9 ADD MSTORE MLOAD SWAP1 DUP6 DUP8 DUP3 SUB ADD PUSH1 0x80 DUP9 ADD MSTORE PUSH2 0x1BCE SWAP2 PUSH2 0x1D7D JUMP JUMPDEST SWAP1 MLOAD SWAP1 DUP5 DUP7 DUP3 SUB ADD PUSH1 0xA0 DUP8 ADD MSTORE PUSH2 0x1BE4 SWAP2 PUSH2 0x1D7D JUMP JUMPDEST SWAP1 MLOAD SWAP1 DUP4 DUP6 DUP3 SUB ADD PUSH1 0xC0 DUP7 ADD MSTORE PUSH2 0x1BFA SWAP2 PUSH2 0x1D7D JUMP JUMPDEST SWAP1 MLOAD SWAP2 DUP4 DUP3 SUB ADD PUSH1 0xE0 DUP5 ADD MSTORE PUSH2 0x700 SWAP2 PUSH2 0x1D7D JUMP JUMPDEST CALLVALUE PUSH2 0x14B JUMPI PUSH1 0x20 CALLDATASIZE PUSH1 0x3 NOT ADD SLT PUSH2 0x14B JUMPI PUSH1 0x4 CALLDATALOAD PUSH1 0x1 PUSH1 0x1 PUSH1 0x40 SHL SUB DUP2 GT PUSH2 0x14B JUMPI PUSH1 0x7 PUSH2 0x6D8 PUSH1 0x20 PUSH2 0x696 PUSH2 0x700 SWAP5 CALLDATASIZE SWAP1 PUSH1 0x4 ADD PUSH2 0x1CD3 JUMP JUMPDEST PUSH1 0xE0 DUP2 ADD SWAP1 DUP2 LT PUSH1 0x1 PUSH1 0x1 PUSH1 0x40 SHL SUB DUP3 GT OR PUSH2 0x1C64 JUMPI PUSH1 0x40 MSTORE JUMP JUMPDEST PUSH4 0x4E487B71 PUSH1 0xE0 SHL PUSH1 0x0 MSTORE PUSH1 0x41 PUSH1 0x4 MSTORE PUSH1 0x24 PUSH1 0x0 REVERT JUMPDEST PUSH2 0x160 DUP2 ADD SWAP1 DUP2 LT PUSH1 0x1 PUSH1 0x1 PUSH1 0x40 SHL SUB DUP3 GT OR PUSH2 0x1C64 JUMPI PUSH1 0x40 MSTORE JUMP JUMPDEST PUSH2 0x1C0 DUP2 ADD SWAP1 DUP2 LT PUSH1 0x1 PUSH1 0x1 PUSH1 0x40 SHL SUB DUP3 GT OR PUSH2 0x1C64 JUMPI PUSH1 0x40 MSTORE JUMP JUMPDEST SWAP1 PUSH1 0x1F DUP1 NOT SWAP2 ADD AND DUP2 ADD SWAP1 DUP2 LT PUSH1 0x1 PUSH1 0x1 PUSH1 0x40 SHL SUB DUP3 GT OR PUSH2 0x1C64 JUMPI PUSH1 0x40 MSTORE JUMP JUMPDEST DUP2 PUSH1 0x1F DUP3 ADD SLT ISZERO PUSH2 0x14B JUMPI DUP1 CALLDATALOAD SWAP1 PUSH1 0x1 PUSH1 0x1 PUSH1 0x40 SHL SUB DUP3 GT PUSH2 0x1C64 JUMPI PUSH1 0x40 MLOAD SWAP3 PUSH2 0x1D07 PUSH1 0x1F DUP5 ADD PUSH1 0x1F NOT AND PUSH1 0x20 ADD DUP6 PUSH2 0x1CB2 JUMP JUMPDEST DUP3 DUP5 MSTORE PUSH1 0x20 DUP4 DUP4 ADD ADD GT PUSH2 0x14B JUMPI DUP2 PUSH1 0x0 SWAP3 PUSH1 0x20 DUP1 SWAP4 ADD DUP4 DUP7 ADD CALLDATACOPY DUP4 ADD ADD MSTORE SWAP1 JUMP JUMPDEST PUSH1 0x40 PUSH1 0x3 NOT DUP3 ADD SLT PUSH2 0x14B JUMPI PUSH1 0x4 CALLDATALOAD SWAP1 PUSH1 0x1 PUSH1 0x1 PUSH1 0x40 SHL SUB DUP3 GT PUSH2 0x14B JUMPI PUSH2 0x1D53 SWAP2 PUSH1 0x4 ADD PUSH2 0x1CD3 JUMP JUMPDEST SWAP1 PUSH1 0x24 CALLDATALOAD SWAP1 JUMP JUMPDEST PUSH1 0x0 JUMPDEST DUP4 DUP2 LT PUSH2 0x1D6D JUMPI POP POP PUSH1 0x0 SWAP2 ADD MSTORE JUMP JUMPDEST DUP2 DUP2 ADD MLOAD DUP4 DUP3 ADD MSTORE PUSH1 0x20 ADD PUSH2 0x1D5D JUMP JUMPDEST SWAP1 PUSH1 0x20 SWAP2 PUSH2 0x1D96 DUP2 MLOAD DUP1 SWAP3 DUP2 DUP6 MSTORE DUP6 DUP1 DUP7 ADD SWAP2 ADD PUSH2 0x1D5A JUMP JUMPDEST PUSH1 0x1F ADD PUSH1 0x1F NOT AND ADD ADD SWAP1 JUMP JUMPDEST PUSH1 0x0 SLOAD PUSH1 0x1 PUSH1 0x1 PUSH1 0xA0 SHL SUB AND CALLER SUB PUSH2 0x1DB6 JUMPI JUMP JUMPDEST PUSH1 0x64 PUSH1 0x40 MLOAD PUSH3 0x461BCD PUSH1 0xE5 SHL DUP2 MSTORE PUSH1 0x20 PUSH1 0x4 DUP3 ADD MSTORE PUSH1 0x20 PUSH1 0x24 DUP3 ADD MSTORE PUSH32 0x4F776E61626C653A2063616C6C6572206973206E6F7420746865206F776E6572 PUSH1 0x44 DUP3 ADD MSTORE REVERT JUMPDEST ISZERO PUSH2 0x1E01 JUMPI JUMP JUMPDEST PUSH1 0x40 MLOAD PUSH3 0x461BCD PUSH1 0xE5 SHL DUP2 MSTORE PUSH1 0x20 PUSH1 0x4 DUP3 ADD MSTORE PUSH1 0x19 PUSH1 0x24 DUP3 ADD MSTORE PUSH32 0x547572746C6520616C7265616479207265676973746572656400000000000000 PUSH1 0x44 DUP3 ADD MSTORE PUSH1 0x64 SWAP1 REVERT JUMPDEST DUP1 SLOAD DUP3 LT ISZERO PUSH2 0x1E5E JUMPI PUSH1 0x0 MSTORE PUSH1 0x20 PUSH1 0x0 KECCAK256 ADD SWAP1 PUSH1 0x0 SWAP1 JUMP JUMPDEST PUSH4 0x4E487B71 PUSH1 0xE0 SHL PUSH1 0x0 MSTORE PUSH1 0x32 PUSH1 0x4 MSTORE PUSH1 0x24 PUSH1 0x0 REVERT JUMPDEST SWAP1 PUSH1 0x1 DUP3 DUP2 SHR SWAP3 AND DUP1 ISZERO PUSH2 0x1EA4 JUMPI JUMPDEST PUSH1 0x20 DUP4 LT EQ PUSH2 0x1E8E JUMPI JUMP JUMPDEST PUSH4 0x4E487B71 PUSH1 0xE0 SHL PUSH1 0x0 MSTORE PUSH1 0x22 PUSH1 0x4 MSTORE PUSH1 0x24 PUSH1 0x0 REVERT JUMPDEST SWAP2 PUSH1 0x7F AND SWAP2 PUSH2 0x1E83 JUMP JUMPDEST DUP2 DUP2 LT PUSH2 0x1EB9 JUMPI POP POP JUMP JUMPDEST PUSH1 0x0 DUP2 SSTORE PUSH1 0x1 ADD PUSH2 0x1EAE JUMP JUMPDEST SWAP2 SWAP1 PUSH1 0x1F DUP2 GT PUSH2 0x1ED4 JUMPI POP POP POP JUMP JUMPDEST PUSH2 0x1F00 SWAP3 PUSH1 0x0 MSTORE PUSH1 0x20 PUSH1 0x0 KECCAK256 SWAP1 PUSH1 0x20 PUSH1 0x1F DUP5 ADD PUSH1 0x5 SHR DUP4 ADD SWAP4 LT PUSH2 0x1F02 JUMPI JUMPDEST PUSH1 0x1F ADD PUSH1 0x5 SHR ADD SWAP1 PUSH2 0x1EAE JUMP JUMPDEST JUMP JUMPDEST SWAP1 SWAP2 POP DUP2 SWAP1 PUSH2 0x1EF3 JUMP JUMPDEST SWAP2 SWAP1 SWAP2 DUP3 MLOAD PUSH1 0x1 PUSH1 0x1 PUSH1 0x40 SHL SUB DUP2 GT PUSH2 0x1C64 JUMPI PUSH2 0x1F33 DUP2 PUSH2 0x1F2D DUP5 SLOAD PUSH2 0x1E74 JUMP JUMPDEST DUP5 PUSH2 0x1EC5 JUMP JUMPDEST PUSH1 0x20 DUP1 PUSH1 0x1F DUP4 GT PUSH1 0x1 EQ PUSH2 0x1F6F JUMPI POP DUP2 SWAP3 SWAP4 SWAP5 PUSH1 0x0 SWAP3 PUSH2 0x1F64 JUMPI JUMPDEST POP POP DUP2 PUSH1 0x1 SHL SWAP2 PUSH1 0x0 NOT SWAP1 PUSH1 0x3 SHL SHR NOT AND OR SWAP1 SSTORE JUMP JUMPDEST ADD MLOAD SWAP1 POP CODESIZE DUP1 PUSH2 0x1F4E JUMP JUMPDEST SWAP1 PUSH1 0x1F NOT DUP4 AND SWAP6 DUP5 PUSH1 0x0 MSTORE DUP3 PUSH1 0x0 KECCAK256 SWAP3 PUSH1 0x0 SWAP1 JUMPDEST DUP9 DUP3 LT PUSH2 0x1FBB JUMPI POP POP DUP4 PUSH1 0x1 SWAP6 SWAP7 SWAP8 LT PUSH2 0x1FA2 JUMPI JUMPDEST POP POP POP DUP2 SHL ADD SWAP1 SSTORE JUMP JUMPDEST ADD MLOAD PUSH1 0x0 NOT PUSH1 0xF8 DUP5 PUSH1 0x3 SHL AND SHR NOT AND SWAP1 SSTORE CODESIZE DUP1 DUP1 PUSH2 0x1F98 JUMP JUMPDEST DUP1 PUSH1 0x1 DUP6 SWAP7 DUP3 SWAP5 SWAP7 DUP7 ADD MLOAD DUP2 SSTORE ADD SWAP6 ADD SWAP4 ADD SWAP1 PUSH2 0x1F83 JUMP JUMPDEST DUP1 SLOAD PUSH9 0x10000000000000000 DUP2 LT ISZERO PUSH2 0x1C64 JUMPI PUSH2 0x1FF5 SWAP2 PUSH1 0x1 DUP3 ADD DUP2 SSTORE PUSH2 0x1E46 JUMP JUMPDEST SWAP2 SWAP1 SWAP2 PUSH2 0x2005 JUMPI PUSH2 0x1F00 SWAP2 PUSH2 0x1F0C JUMP JUMPDEST PUSH4 0x4E487B71 PUSH1 0xE0 SHL PUSH1 0x0 MSTORE PUSH1 0x0 PUSH1 0x4 MSTORE PUSH1 0x24 PUSH1 0x0 REVERT JUMPDEST PUSH2 0x2033 SWAP1 PUSH1 0x20 PUSH1 0x40 MLOAD SWAP3 DUP3 DUP5 DUP1 SWAP5 MLOAD SWAP4 DUP5 SWAP3 ADD PUSH2 0x1D5A JUMP JUMPDEST DUP2 ADD SUB SWAP1 KECCAK256 SWAP1 JUMP JUMPDEST SWAP1 PUSH1 0x40 MLOAD SWAP2 DUP3 PUSH1 0x0 DUP3 SLOAD SWAP3 PUSH2 0x204F DUP5 PUSH2 0x1E74 JUMP JUMPDEST SWAP1 DUP2 DUP5 MSTORE PUSH1 0x1 SWAP5 DUP6 DUP2 AND SWAP1 DUP2 PUSH1 0x0 EQ PUSH2 0x20BC JUMPI POP PUSH1 0x1 EQ PUSH2 0x2079 JUMPI JUMPDEST POP POP PUSH2 0x1F00 SWAP3 POP SUB DUP4 PUSH2 0x1CB2 JUMP JUMPDEST SWAP1 SWAP4 SWAP2 POP PUSH1 0x0 MSTORE PUSH1 0x20 SWAP1 DUP2 PUSH1 0x0 KECCAK256 SWAP4 PUSH1 0x0 SWAP2 JUMPDEST DUP2 DUP4 LT PUSH2 0x20A4 JUMPI POP POP PUSH2 0x1F00 SWAP4 POP DUP3 ADD ADD CODESIZE DUP1 PUSH2 0x206B JUMP JUMPDEST DUP6 SLOAD DUP9 DUP5 ADD DUP6 ADD MSTORE SWAP5 DUP6 ADD SWAP5 DUP8 SWAP5 POP SWAP2 DUP4 ADD SWAP2 PUSH2 0x208C JUMP JUMPDEST SWAP2 POP POP PUSH2 0x1F00 SWAP5 POP PUSH1 0x20 SWAP3 POP PUSH1 0xFF NOT AND DUP3 DUP5 ADD MSTORE ISZERO ISZERO PUSH1 0x5 SHL DUP3 ADD ADD CODESIZE DUP1 PUSH2 0x206B JUMP JUMPDEST SWAP1 SWAP2 PUSH2 0x20F6 PUSH2 0x2104 SWAP4 PUSH1 0x40 DUP5 MSTORE PUSH1 0x40 DUP5 ADD SWAP1 PUSH2 0x1D7D JUMP JUMPDEST SWAP2 PUSH1 0x20 DUP2 DUP5 SUB SWAP2 ADD MSTORE PUSH2 0x1D7D JUMP JUMPDEST SWAP1 JUMP JUMPDEST ISZERO PUSH2 0x210E JUMPI JUMP JUMPDEST PUSH1 0x40 MLOAD PUSH3 0x461BCD PUSH1 0xE5 SHL DUP2 MSTORE PUSH1 0x20 PUSH1 0x4 DUP3 ADD MSTORE PUSH1 0x15 PUSH1 0x24 DUP3 ADD MSTORE PUSH21 0x151D5C9D1B1948191BD95CC81B9BDD08195E1A5CDD PUSH1 0x5A SHL PUSH1 0x44 DUP3 ADD MSTORE PUSH1 0x64 SWAP1 REVERT JUMPDEST PUSH1 0x0 NOT DUP2 EQ PUSH2 0x215A JUMPI PUSH1 0x1 ADD SWAP1 JUMP JUMPDEST PUSH4 0x4E487B71 PUSH1 0xE0 SHL PUSH1 0x0 MSTORE PUSH1 0x11 PUSH1 0x4 MSTORE PUSH1 0x24 PUSH1 0x0 REVERT JUMPDEST PUSH1 0x0 SWAP3 SWAP2 DUP2 SLOAD PUSH2 0x217F DUP2 PUSH2 0x1E74 JUMP JUMPDEST SWAP3 PUSH1 0x1 SWAP2 DUP1 DUP4 AND SWAP1 DUP2 ISZERO PUSH2 0x21D8 JUMPI POP PUSH1 0x1 EQ PUSH2 0x219C JUMPI JUMPDEST POP POP POP POP JUMP JUMPDEST SWAP1 SWAP2 SWAP3 SWAP4 SWAP5 POP PUSH1 0x0 MSTORE PUSH1 0x20 SWAP1 DUP2 PUSH1 0x0 KECCAK256 SWAP1 PUSH1 0x0 SWAP2 JUMPDEST DUP6 DUP4 LT PUSH2 0x21C7 JUMPI POP POP POP POP ADD SWAP1 CODESIZE DUP1 DUP1 DUP1 PUSH2 0x2196 JUMP JUMPDEST DUP1 SLOAD DUP6 DUP5 ADD MSTORE SWAP2 DUP4 ADD SWAP2 DUP2 ADD PUSH2 0x21B1 JUMP JUMPDEST PUSH1 0xFF NOT AND DUP5 MSTORE POP POP POP DUP2 ISZERO ISZERO SWAP1 SWAP2 MUL ADD SWAP2 POP CODESIZE DUP1 DUP1 DUP1 PUSH2 0x2196 JUMP JUMPDEST SWAP1 DUP1 DUP3 EQ PUSH2 0x22CB JUMPI PUSH2 0x2205 DUP2 SLOAD PUSH2 0x1E74 JUMP JUMPDEST SWAP1 PUSH1 0x1 PUSH1 0x1 PUSH1 0x40 SHL SUB DUP3 GT PUSH2 0x1C64 JUMPI DUP2 SWAP1 PUSH2 0x222A DUP3 PUSH2 0x2224 DUP7 SLOAD PUSH2 0x1E74 JUMP JUMPDEST DUP7 PUSH2 0x1EC5 JUMP JUMPDEST PUSH1 0x0 SWAP1 PUSH1 0x1F DUP4 GT PUSH1 0x1 EQ PUSH2 0x2260 JUMPI PUSH1 0x0 SWAP3 PUSH2 0x2255 JUMPI POP POP DUP2 PUSH1 0x1 SHL SWAP2 PUSH1 0x0 NOT SWAP1 PUSH1 0x3 SHL SHR NOT AND OR SWAP1 SSTORE JUMP JUMPDEST ADD SLOAD SWAP1 POP CODESIZE DUP1 PUSH2 0x1F4E JUMP JUMPDEST DUP2 MSTORE PUSH1 0x20 DUP1 DUP3 KECCAK256 DUP6 DUP4 MSTORE DUP2 DUP4 KECCAK256 SWAP4 POP SWAP1 PUSH1 0x1F NOT DUP6 AND SWAP1 DUP4 SWAP1 JUMPDEST DUP3 DUP3 LT PUSH2 0x22B2 JUMPI POP POP SWAP1 DUP5 PUSH1 0x1 SWAP6 SWAP5 SWAP4 SWAP3 LT PUSH2 0x2299 JUMPI POP POP POP DUP2 SHL ADD SWAP1 SSTORE JUMP JUMPDEST ADD SLOAD PUSH1 0x0 NOT PUSH1 0xF8 DUP5 PUSH1 0x3 SHL AND SHR NOT AND SWAP1 SSTORE CODESIZE DUP1 DUP1 PUSH2 0x1F98 JUMP JUMPDEST DUP5 SWAP6 DUP2 SWAP3 SWAP6 DUP6 ADD SLOAD DUP2 SSTORE PUSH1 0x1 DUP1 SWAP2 ADD SWAP7 ADD SWAP5 ADD SWAP1 PUSH2 0x2279 JUMP JUMPDEST POP POP JUMP INVALID LOG2 PUSH5 0x6970667358 0x22 SLT KECCAK256 PUSH14 0xEEEAFFC904477F43E5FFD89737C1 0xBD SWAP14 CALLCODE 0xBB DUP15 DUP2 PUSH5 0x51DA0D9A66 STOP 0xDA 0xD2 PUSH3 0xEA6473 PUSH16 0x6C634300081200330000000000000000 "
		},
		"gasEstimates": {
			"creation": {
				"codeDepositCost": "1793000",
				"executionCost": "27681",
				"totalCost": "1820681"
			},
			"external": {
				"approveMultiplicationDocByReviewer(string,bytes32)": "infinite",
				"approveTransferDocByReviewer(string,bytes32)": "infinite",
				"changeTurtleOwner(string,string,string)": "infinite",
				"owner()": "2582",
				"registerTurtle(string,string,bytes32)": "infinite",
				"registerTurtleAssigneeDocument(uint8,string,string,bytes32,string,uint8,string,string)": "infinite",
				"registerTurtleDeathDocument(string,string,bytes32,string,uint8,string,string,string,string)": "infinite",
				"registerTurtleGrantorDocument(string,string,bytes32,string,string,string,string)": "infinite",
				"registerTurtleMultiplicationDocument(string,string,bytes32,uint8,string,string,string,string,string,string,string,uint256,string,string,string,string,bytes32)": "infinite",
				"renounceOwnership()": "28310",
				"searchCurrentDeathDocumentHash(string)": "infinite",
				"searchCurrentDocumentHash(string)": "infinite",
				"searchCurrentMultiplicationDocumentHash(string)": "infinite",
				"searchCurrentTransferredDocumentHash(string)": "infinite",
				"searchTurtleDeathDocument(string,bytes32)": "infinite",
				"searchTurtleMultiplicationDocument(string,bytes32)": "infinite",
				"searchTurtleTransferDocument(string,bytes32)": "infinite",
				"transferOwnership(address)": "28473",
				"turtleValid(string,bytes32)": "infinite"
			}
		},
		"methodIdentifiers": {
			"approveMultiplicationDocByReviewer(string,bytes32)": "482346bd",
			"approveTransferDocByReviewer(string,bytes32)": "229aa914",
			"changeTurtleOwner(string,string,string)": "ce5f0b7d",
			"owner()": "8da5cb5b",
			"registerTurtle(string,string,bytes32)": "7ca2d3cd",
			"registerTurtleAssigneeDocument(uint8,string,string,bytes32,string,uint8,string,string)": "30a8f8b9",
			"registerTurtleDeathDocument(string,string,bytes32,string,uint8,string,string,string,string)": "6c1dcaf8",
			"registerTurtleGrantorDocument(string,string,bytes32,string,string,string,string)": "596c442a",
			"registerTurtleMultiplicationDocument(string,string,bytes32,uint8,string,string,string,string,string,string,string,uint256,string,string,string,string,bytes32)": "358a3d37",
			"renounceOwnership()": "715018a6",
			"searchCurrentDeathDocumentHash(string)": "1294ffcf",
			"searchCurrentDocumentHash(string)": "f3cb197d",
			"searchCurrentMultiplicationDocumentHash(string)": "997480e5",
			"searchCurrentTransferredDocumentHash(string)": "22d2378f",
			"searchTurtleDeathDocument(string,bytes32)": "17aa1f48",
			"searchTurtleMultiplicationDocument(string,bytes32)": "673ae4c1",
			"searchTurtleTransferDocument(string,bytes32)": "1a0642ef",
			"transferOwnership(address)": "f2fde38b",
			"turtleValid(string,bytes32)": "1b979af1"
		}
	},
	"abi": [
		{
			"anonymous": false,
			"inputs": [
				{
					"indexed": true,
					"internalType": "string",
					"name": "turtleId",
					"type": "string"
				},
				{
					"indexed": true,
					"internalType": "bytes32",
					"name": "documentHash",
					"type": "bytes32"
				}
			],
			"name": "CurrentTurtleDocument",
			"type": "event"
		},
		{
			"anonymous": false,
			"inputs": [
				{
					"indexed": true,
					"internalType": "address",
					"name": "previousOwner",
					"type": "address"
				},
				{
					"indexed": true,
					"internalType": "address",
					"name": "newOwner",
					"type": "address"
				}
			],
			"name": "OwnershipTransferred",
			"type": "event"
		},
		{
			"anonymous": false,
			"inputs": [
				{
					"indexed": true,
					"internalType": "string",
					"name": "turtleId",
					"type": "string"
				},
				{
					"indexed": true,
					"internalType": "string",
					"name": "applicant",
					"type": "string"
				},
				{
					"indexed": true,
					"internalType": "bytes32",
					"name": "documentHash",
					"type": "bytes32"
				}
			],
			"name": "TurtleDeath",
			"type": "event"
		},
		{
			"anonymous": false,
			"inputs": [
				{
					"indexed": true,
					"internalType": "string",
					"name": "turtleId",
					"type": "string"
				},
				{
					"indexed": true,
					"internalType": "string",
					"name": "applicant",
					"type": "string"
				},
				{
					"indexed": true,
					"internalType": "bytes32",
					"name": "documentHash",
					"type": "bytes32"
				}
			],
			"name": "TurtleMultiplication",
			"type": "event"
		},
		{
			"anonymous": false,
			"inputs": [
				{
					"indexed": true,
					"internalType": "string",
					"name": "turtleId",
					"type": "string"
				},
				{
					"indexed": true,
					"internalType": "string",
					"name": "oldOwner",
					"type": "string"
				},
				{
					"indexed": true,
					"internalType": "string",
					"name": "newOwner",
					"type": "string"
				}
			],
			"name": "TurtleOwnerChanged",
			"type": "event"
		},
		{
			"anonymous": false,
			"inputs": [
				{
					"indexed": true,
					"internalType": "string",
					"name": "turtleId",
					"type": "string"
				},
				{
					"indexed": true,
					"internalType": "string",
					"name": "applicant",
					"type": "string"
				}
			],
			"name": "TurtleRegistered",
			"type": "event"
		},
		{
			"anonymous": false,
			"inputs": [
				{
					"indexed": true,
					"internalType": "uint8",
					"name": "transactionId",
					"type": "uint8"
				},
				{
					"indexed": true,
					"internalType": "string",
					"name": "turtleId",
					"type": "string"
				},
				{
					"indexed": false,
					"internalType": "string",
					"name": "grantApplicant",
					"type": "string"
				},
				{
					"indexed": false,
					"internalType": "string",
					"name": "assignApplicant",
					"type": "string"
				},
				{
					"indexed": true,
					"internalType": "bytes32",
					"name": "documentHash",
					"type": "bytes32"
				}
			],
			"name": "TurtleTransferred",
			"type": "event"
		},
		{
			"inputs": [
				{
					"internalType": "string",
					"name": "_turtleId",
					"type": "string"
				},
				{
					"internalType": "bytes32",
					"name": "_documentHash",
					"type": "bytes32"
				}
			],
			"name": "approveMultiplicationDocByReviewer",
			"outputs": [
				{
					"internalType": "bytes32",
					"name": "",
					"type": "bytes32"
				}
			],
			"stateMutability": "nonpayable",
			"type": "function"
		},
		{
			"inputs": [
				{
					"internalType": "string",
					"name": "_turtleId",
					"type": "string"
				},
				{
					"internalType": "bytes32",
					"name": "_documentHash",
					"type": "bytes32"
				}
			],
			"name": "approveTransferDocByReviewer",
			"outputs": [
				{
					"internalType": "bytes32",
					"name": "",
					"type": "bytes32"
				}
			],
			"stateMutability": "nonpayable",
			"type": "function"
		},
		{
			"inputs": [
				{
					"internalType": "string",
					"name": "_turtleId",
					"type": "string"
				},
				{
					"internalType": "string",
					"name": "_oldOwner",
					"type": "string"
				},
				{
					"internalType": "string",
					"name": "_newOwner",
					"type": "string"
				}
			],
			"name": "changeTurtleOwner",
			"outputs": [],
			"stateMutability": "nonpayable",
			"type": "function"
		},
		{
			"inputs": [],
			"name": "owner",
			"outputs": [
				{
					"internalType": "address",
					"name": "",
					"type": "address"
				}
			],
			"stateMutability": "view",
			"type": "function"
		},
		{
			"inputs": [
				{
					"internalType": "string",
					"name": "_turtleId",
					"type": "string"
				},
				{
					"internalType": "string",
					"name": "_applicant",
					"type": "string"
				},
				{
					"internalType": "bytes32",
					"name": "_turtleHash",
					"type": "bytes32"
				}
			],
			"name": "registerTurtle",
			"outputs": [],
			"stateMutability": "nonpayable",
			"type": "function"
		},
		{
			"inputs": [
				{
					"internalType": "uint8",
					"name": "_transactionId",
					"type": "uint8"
				},
				{
					"internalType": "string",
					"name": "_turtleId",
					"type": "string"
				},
				{
					"internalType": "string",
					"name": "_applicant",
					"type": "string"
				},
				{
					"internalType": "bytes32",
					"name": "_documentHash",
					"type": "bytes32"
				},
				{
					"internalType": "string",
					"name": "_assigneeId",
					"type": "string"
				},
				{
					"internalType": "uint8",
					"name": "_count",
					"type": "uint8"
				},
				{
					"internalType": "string",
					"name": "_transferReason",
					"type": "string"
				},
				{
					"internalType": "string",
					"name": "_purpose",
					"type": "string"
				}
			],
			"name": "registerTurtleAssigneeDocument",
			"outputs": [
				{
					"internalType": "bytes32",
					"name": "",
					"type": "bytes32"
				}
			],
			"stateMutability": "nonpayable",
			"type": "function"
		},
		{
			"inputs": [
				{
					"internalType": "string",
					"name": "_turtleId",
					"type": "string"
				},
				{
					"internalType": "string",
					"name": "_applicant",
					"type": "string"
				},
				{
					"internalType": "bytes32",
					"name": "_documentHash",
					"type": "bytes32"
				},
				{
					"internalType": "string",
					"name": "_shelter",
					"type": "string"
				},
				{
					"internalType": "uint8",
					"name": "_count",
					"type": "uint8"
				},
				{
					"internalType": "string",
					"name": "_deathReason",
					"type": "string"
				},
				{
					"internalType": "string",
					"name": "_plan",
					"type": "string"
				},
				{
					"internalType": "string",
					"name": "_deathImage",
					"type": "string"
				},
				{
					"internalType": "string",
					"name": "_diagnosis",
					"type": "string"
				}
			],
			"name": "registerTurtleDeathDocument",
			"outputs": [
				{
					"internalType": "bytes32",
					"name": "",
					"type": "bytes32"
				}
			],
			"stateMutability": "nonpayable",
			"type": "function"
		},
		{
			"inputs": [
				{
					"internalType": "string",
					"name": "_turtleId",
					"type": "string"
				},
				{
					"internalType": "string",
					"name": "_applicant",
					"type": "string"
				},
				{
					"internalType": "bytes32",
					"name": "_documentHash",
					"type": "bytes32"
				},
				{
					"internalType": "string",
					"name": "_grantorId",
					"type": "string"
				},
				{
					"internalType": "string",
					"name": "_aquisition",
					"type": "string"
				},
				{
					"internalType": "string",
					"name": "_fatherId",
					"type": "string"
				},
				{
					"internalType": "string",
					"name": "_motherId",
					"type": "string"
				}
			],
			"name": "registerTurtleGrantorDocument",
			"outputs": [
				{
					"internalType": "bytes32",
					"name": "",
					"type": "bytes32"
				}
			],
			"stateMutability": "nonpayable",
			"type": "function"
		},
		{
			"inputs": [
				{
					"internalType": "string",
					"name": "_turtleId",
					"type": "string"
				},
				{
					"internalType": "string",
					"name": "_applicant",
					"type": "string"
				},
				{
					"internalType": "bytes32",
					"name": "_documentHash",
					"type": "bytes32"
				},
				{
					"internalType": "uint8",
					"name": "_count",
					"type": "uint8"
				},
				{
					"internalType": "string",
					"name": "_area",
					"type": "string"
				},
				{
					"internalType": "string",
					"name": "_purpose",
					"type": "string"
				},
				{
					"internalType": "string",
					"name": "_location",
					"type": "string"
				},
				{
					"internalType": "string",
					"name": "_fatherId",
					"type": "string"
				},
				{
					"internalType": "string",
					"name": "_motherId",
					"type": "string"
				},
				{
					"internalType": "string",
					"name": "_birth",
					"type": "string"
				},
				{
					"internalType": "string",
					"name": "_name",
					"type": "string"
				},
				{
					"internalType": "uint256",
					"name": "_weight",
					"type": "uint256"
				},
				{
					"internalType": "string",
					"name": "_gender",
					"type": "string"
				},
				{
					"internalType": "string",
					"name": "_locationSpecification",
					"type": "string"
				},
				{
					"internalType": "string",
					"name": "_multiplicationMethod",
					"type": "string"
				},
				{
					"internalType": "string",
					"name": "_shelterSpecification",
					"type": "string"
				},
				{
					"internalType": "bytes32",
					"name": "_turtleHash",
					"type": "bytes32"
				}
			],
			"name": "registerTurtleMultiplicationDocument",
			"outputs": [
				{
					"internalType": "bytes32",
					"name": "",
					"type": "bytes32"
				}
			],
			"stateMutability": "nonpayable",
			"type": "function"
		},
		{
			"inputs": [],
			"name": "renounceOwnership",
			"outputs": [],
			"stateMutability": "nonpayable",
			"type": "function"
		},
		{
			"inputs": [
				{
					"internalType": "string",
					"name": "_turtleId",
					"type": "string"
				}
			],
			"name": "searchCurrentDeathDocumentHash",
			"outputs": [
				{
					"internalType": "bool",
					"name": "",
					"type": "bool"
				},
				{
					"internalType": "bytes32",
					"name": "",
					"type": "bytes32"
				}
			],
			"stateMutability": "view",
			"type": "function"
		},
		{
			"inputs": [
				{
					"internalType": "string",
					"name": "_turtleId",
					"type": "string"
				}
			],
			"name": "searchCurrentDocumentHash",
			"outputs": [
				{
					"internalType": "bytes32",
					"name": "",
					"type": "bytes32"
				}
			],
			"stateMutability": "view",
			"type": "function"
		},
		{
			"inputs": [
				{
					"internalType": "string",
					"name": "_turtleId",
					"type": "string"
				}
			],
			"name": "searchCurrentMultiplicationDocumentHash",
			"outputs": [
				{
					"internalType": "bool",
					"name": "",
					"type": "bool"
				},
				{
					"internalType": "bytes32",
					"name": "",
					"type": "bytes32"
				}
			],
			"stateMutability": "view",
			"type": "function"
		},
		{
			"inputs": [
				{
					"internalType": "string",
					"name": "_turtleId",
					"type": "string"
				}
			],
			"name": "searchCurrentTransferredDocumentHash",
			"outputs": [
				{
					"internalType": "bool",
					"name": "",
					"type": "bool"
				},
				{
					"internalType": "bytes32",
					"name": "",
					"type": "bytes32"
				}
			],
			"stateMutability": "view",
			"type": "function"
		},
		{
			"inputs": [
				{
					"internalType": "string",
					"name": "_turtleId",
					"type": "string"
				},
				{
					"internalType": "bytes32",
					"name": "_documentHash",
					"type": "bytes32"
				}
			],
			"name": "searchTurtleDeathDocument",
			"outputs": [
				{
					"components": [
						{
							"internalType": "string",
							"name": "applicant",
							"type": "string"
						},
						{
							"internalType": "string",
							"name": "shelter",
							"type": "string"
						},
						{
							"internalType": "uint8",
							"name": "count",
							"type": "uint8"
						},
						{
							"internalType": "string",
							"name": "deathReason",
							"type": "string"
						},
						{
							"internalType": "string",
							"name": "plan",
							"type": "string"
						},
						{
							"internalType": "string",
							"name": "deathImage",
							"type": "string"
						},
						{
							"internalType": "string",
							"name": "diagnosis",
							"type": "string"
						}
					],
					"internalType": "struct TurtleDocumentation.Death",
					"name": "",
					"type": "tuple"
				}
			],
			"stateMutability": "view",
			"type": "function"
		},
		{
			"inputs": [
				{
					"internalType": "string",
					"name": "_turtleId",
					"type": "string"
				},
				{
					"internalType": "bytes32",
					"name": "_documentHash",
					"type": "bytes32"
				}
			],
			"name": "searchTurtleMultiplicationDocument",
			"outputs": [
				{
					"components": [
						{
							"internalType": "string",
							"name": "applicant",
							"type": "string"
						},
						{
							"internalType": "uint8",
							"name": "count",
							"type": "uint8"
						},
						{
							"internalType": "string",
							"name": "area",
							"type": "string"
						},
						{
							"internalType": "string",
							"name": "purpose",
							"type": "string"
						},
						{
							"internalType": "string",
							"name": "location",
							"type": "string"
						},
						{
							"internalType": "string",
							"name": "fatherId",
							"type": "string"
						},
						{
							"internalType": "string",
							"name": "motherId",
							"type": "string"
						},
						{
							"internalType": "string",
							"name": "birth",
							"type": "string"
						},
						{
							"internalType": "string",
							"name": "name",
							"type": "string"
						},
						{
							"internalType": "uint256",
							"name": "weight",
							"type": "uint256"
						},
						{
							"internalType": "string",
							"name": "gender",
							"type": "string"
						},
						{
							"internalType": "string",
							"name": "locationSpecification",
							"type": "string"
						},
						{
							"internalType": "string",
							"name": "multiplicationMethod",
							"type": "string"
						},
						{
							"internalType": "string",
							"name": "shelterSpecification",
							"type": "string"
						}
					],
					"internalType": "struct TurtleDocumentation.Multiplication",
					"name": "",
					"type": "tuple"
				}
			],
			"stateMutability": "view",
			"type": "function"
		},
		{
			"inputs": [
				{
					"internalType": "string",
					"name": "_turtleId",
					"type": "string"
				},
				{
					"internalType": "bytes32",
					"name": "_documentHash",
					"type": "bytes32"
				}
			],
			"name": "searchTurtleTransferDocument",
			"outputs": [
				{
					"components": [
						{
							"internalType": "uint8",
							"name": "transactionId",
							"type": "uint8"
						},
						{
							"internalType": "string",
							"name": "grantApplicant",
							"type": "string"
						},
						{
							"internalType": "string",
							"name": "assignApplicant",
							"type": "string"
						},
						{
							"internalType": "string",
							"name": "grantorId",
							"type": "string"
						},
						{
							"internalType": "string",
							"name": "assigneeId",
							"type": "string"
						},
						{
							"internalType": "uint8",
							"name": "count",
							"type": "uint8"
						},
						{
							"internalType": "string",
							"name": "transferReason",
							"type": "string"
						},
						{
							"internalType": "string",
							"name": "purpose",
							"type": "string"
						},
						{
							"internalType": "string",
							"name": "aquisition",
							"type": "string"
						},
						{
							"internalType": "string",
							"name": "fatherId",
							"type": "string"
						},
						{
							"internalType": "string",
							"name": "motherId",
							"type": "string"
						}
					],
					"internalType": "struct TurtleDocumentation.Transfer",
					"name": "",
					"type": "tuple"
				}
			],
			"stateMutability": "view",
			"type": "function"
		},
		{
			"inputs": [
				{
					"internalType": "address",
					"name": "newOwner",
					"type": "address"
				}
			],
			"name": "transferOwnership",
			"outputs": [],
			"stateMutability": "nonpayable",
			"type": "function"
		},
		{
			"inputs": [
				{
					"internalType": "string",
					"name": "_turtleId",
					"type": "string"
				},
				{
					"internalType": "bytes32",
					"name": "_hash",
					"type": "bytes32"
				}
			],
			"name": "turtleValid",
			"outputs": [
				{
					"internalType": "bool",
					"name": "",
					"type": "bool"
				}
			],
			"stateMutability": "view",
			"type": "function"
		}
	]
}