{
	"data": {
		"bytecode": {
			"linkReferences": {},
			"object": "6080806040523461005b5760008054336001600160a01b0319821681178355916001600160a01b03909116907f8be0079c531659141344cd1fd0a4f28419497f9722a3daafe3b4186f6b6457e09080a36122f790816100618239f35b600080fdfe6080604052600436101561001257600080fd5b60003560e01c806317aa1f4814611b0057806318e1a28a146119415780631a0642ef14611712578063229aa914146116bf578063482346bd14611659578063596c442a146114495780635c493eaa14611364578063673ae4c1146110755780636c1dcaf814610dd0578063715018a614610d775780638da5cb5b14610d4e578063ce5f0b7d14610911578063f2fde38b14610846578063f3cb197d146107965763ff39b1ae146100c157600080fd5b3461079157610200366003190112610791576001600160401b03600435818111610791576100f3903690600401611d25565b6024358281116107915761010b903690600401611d25565b60643560ff811681036107915760843584811161079157610130903690600401611d25565b9060a43585811161079157610149903690600401611d25565b9460c43581811161079157610162903690600401611d25565b9560e4358281116107915761017b903690600401611d25565b966101043583811161079157610195903690600401611d25565b61012435848111610791576101ae903690600401611d25565b9061014435858111610791576101c8903690600401611d25565b9961018435868111610791576101e2903690600401611d25565b936101a435878111610791576101fc903690600401611d25565b956101c43588811161079157610216903690600401611d25565b976101e43511610791578b9960ff600561027b602061023b366101e435600401611d25565b9e6102688585604051858186516102558183858b01611dac565b8101600181520301902001541615611e5c565b8160405193828580945193849201611dac565b810160018152030190200154161560001461046d578c60409e9798999a9b9c9d9e5181818093516020819301916102b192611dac565b8101600181520360200190209a6044356000528b6020528d6040600020906102d891611f6e565b6044356000528b602052604060002090600182019060ff1660ff198254161790556002019061030691611f6e565b6044356000528960205260406000206003019061032291611f6e565b6044356000528860205260406000206004019061033e91611f6e565b6044356000528760205260406000206005019061035a91611f6e565b6044356000528660205260406000206006019061037691611f6e565b6044356000528560205260406000206007019061039291611f6e565b604435600052846020526040600020600801906103ae91611f6e565b604435600052836020526040600020610164356009820155600a01906103d391611f6e565b604435600052826020526040600020600b01906103ef91611f6e565b604435600052816020526040600020600c019061040b91611f6e565b6044356000526020526040600020600d019061042691611f6e565b61043a610434602093612067565b91612067565b604051916044359182917f406d6a39963b189ae4d4ba0b53780ecdf05dc013e196662687a246b0a2b70548600080a48152f35b60209d6106508f978e9f9c61043a9f996104349f9c988f9061078c9f9c9b6105fd6107599f9a926105ca6107269f9d6105956106f19f966105606106879f6106309c6104ea6102689b6104ce8f8f8160405193828580945193849201611dac565b810160018152030190206044356000528f526040600020611f6e565b6105028d8d8160405193828580945193849201611dac565b810160018152030190206044356000528d5260ff6001604060002001911660ff198254161790556105418c8c8160405193828580945193849201611dac565b810160018152030190206044356000528c526002604060002001611f6e565b6040518a81816105768d83815193849201611dac565b810160018152030190206044356000528a526003604060002001611f6e565b6040518881816105ab8b83815193849201611dac565b8101600181520301902060443560005288526004604060002001611f6e565b604051868187516105de8183858c01611dac565b8101600181520301902060443560005286526005604060002001611f6e565b604051848185516106118183858a01611dac565b8101600181520301902060443560005284526006604060002001611f6e565b810160018152030190206044356000526020526007604060002001611f6e565b6106688f8c8160405193828580945193849201611dac565b810160018152030190206044356000528f526008604060002001611f6e565b6040518d818161069d8d83815193849201611dac565b810160018152030190206044356000528d52610164356009604060002001556040518d81816106d28d83815193849201611dac565b810160018152030190206044356000528d52600a604060002001611f6e565b6040518b81816107078b83815193849201611dac565b810160018152030190206044356000528b52600b604060002001611f6e565b6040518981875161073a8183858c01611dac565b810160018152030190206044356000528952600c604060002001611f6e565b6040518781855161076d8183858a01611dac565b810160018152030190206044356000528752600d604060002001611f6e565b612067565b600080fd5b34610791576020366003190112610791576004356001600160401b0381116107915760046107c960209236908301611d25565b82604051838351918381818701946107e2818388611dac565b810160018152030190200154906108326107fb85612067565b9160405195869485947fb213070bd5a2c24d0c1d1927f5583190d5a1fcc1c569ef1ac33e9e449cacd7d3600080a351928391611dac565b810160018152030190200154604051908152f35b34610791576020366003190112610791576004356001600160a01b038181169182900361079157610875611e04565b81156108bd57600054826bffffffffffffffffffffffff60a01b821617600055167f8be0079c531659141344cd1fd0a4f28419497f9722a3daafe3b4186f6b6457e0600080a3005b60405162461bcd60e51b815260206004820152602660248201527f4f776e61626c653a206e6577206f776e657220697320746865207a65726f206160448201526564647265737360d01b6064820152608490fd5b34610791576060366003190112610791576001600160401b0360043581811161079157610942903690600401611d25565b6024358281116107915761095a903690600401611d25565b9160443590811161079157610973903690600401611d25565b9160ff6005604051602081865161098d8183858b01611dac565b8101600181520301902001541615610d115760405191815192602081818501956109b8818389611dac565b810160028152030190205415610cc15760009260005b60405160208186516109e1818388611dac565b8101600281520301902054811015610cb857610a19816040516020818851610a0a81838a611dac565b81016002815203019020611ea8565b50604051610a3d81610a2f602082018095612162565b03601f198101835282611d04565b5190206040516020810190610a6a6020828851610a5d8187858d01611dac565b8101038084520182611d04565b51902014610a8057610a7b90612153565b6109ce565b509091925060015b15610c68576020610aa491604051809381928751928391611dac565b810160028152030190209060005b82549081811015610c0457610ac78185611ea8565b50604051610add81610a2f602082018095612162565b5190206040516020810190610afd6020828851610a5d8187858d01611dac565b51902014610b15575b610b109150612153565b610ab2565b60001991808301908111610bee57610b2d9085611ea8565b50610b388286611ea8565b919091610bc257610b48916121e5565b8354918215610bd857610b5d81840186611ea8565b939093610bc25783610b72610b109554611ed6565b9081610b83575b5050018455610b06565b600091601f808211600114610b9d575050555b8880610b79565b91610bbb84929382845260208420940160051c840160018501611f10565b5555610b96565b634e487b7160e01b600052600060045260246000fd5b634e487b7160e01b600052603160045260246000fd5b634e487b7160e01b600052601160045260246000fd5b8486610c40610434610c3a8761078c8160405160208181610c2b8b83815193849201611dac565b81016002815203019020612035565b93612067565b917f80d739977bb0030fd7e876dc1ca9a667adfc1b71fea4820c4266de2ee6d6c657600080a4005b60405162461bcd60e51b815260206004820152602260248201527f4f6c64206f776e657220646f6573206e6f74206f776e207468697320747572746044820152616c6560f01b6064820152608490fd5b50909192610a88565b60405162461bcd60e51b815260206004820152602260248201527f4f6c64206f776e657220646f6573206e6f74206f776e20616e7920747572746c604482015261657360f01b6064820152608490fd5b60405162461bcd60e51b8152602060048201526015602482015274151d5c9d1b1948191bd95cc81b9bdd08195e1a5cdd605a1b6044820152606490fd5b34610791576000366003190112610791576000546040516001600160a01b039091168152602090f35b3461079157600036600319011261079157610d90611e04565b600080546001600160a01b0319811682556001600160a01b03167f8be0079c531659141344cd1fd0a4f28419497f9722a3daafe3b4186f6b6457e08280a3005b3461079157610120366003190112610791576001600160401b0360043581811161079157610e02903690600401611d25565b9060243581811161079157610e1b903690600401611d25565b9060643581811161079157610e34903690600401611d25565b610e3c611df4565b9360a43583811161079157610e55903690600401611d25565b9160c43584811161079157610e6e903690600401611d25565b9260e43585811161079157610e87903690600401611d25565b966101043595861161079157602097610fd461043496610f9c8a9561100a95610f2061078c998f610eff6110409f918e610268610eca6002953690600401611d25565b9e8560405185818651610ee08183858b01611dac565b6001818301528101030190200160443560005284526040600020611f6e565b81016001815203019020016044356000526020526001604060002001611f6e565b6002610f3a8f8c8160405193828580945193849201611dac565b81016001815203019020016044356000528e5260ff6002604060002001911660ff198254161790556002610f7c8e8b8160405193828580945193849201611dac565b81016001815203019020016044356000528d526003604060002001611f6e565b60026040518c8181610fb48c83815193849201611dac565b81016001815203019020016044356000528b526004604060002001611f6e565b60026040518a818851610fea8183858d01611dac565b810160018152030190200160443560005289526005604060002001611f6e565b6002604051888186516110208183858b01611dac565b810160018152030190200160443560005287526006604060002001611f6e565b9060405191604435917fbf4ff8efb9c111a99679d7a6a4263272c5fa30a2fa39bec8f6e4ce26902fc0be600080a46044358152f35b3461079157602061110061108836611d7b565b929060606101a060405161109b81611ce8565b82815260008582015282604082015282808201528260808201528260a08201528260c08201528260e082015282610100820152600061012082015282610140820152826101608201528261018082015201528160405193828580945193849201611dac565b81016001815203019020906000526020526112706040600020611202600d6040519261112b84611ce8565b61113481612087565b845260ff600182015416602085015261114f60028201612087565b604085015261116060038201612087565b606085015261117160048201612087565b608085015261118260058201612087565b60a085015261119360068201612087565b60c08501526111a460078201612087565b60e08501526111b560088201612087565b61010085015260098101546101208501526111d2600a8201612087565b6101408501526111e4600b8201612087565b6101608501526111f6600c8201612087565b61018085015201612087565b6101a0820152611360816101a061134b61133561131d6112f96112e16112ca6112b461129e6112886040519d8e9d8e60208152604061124f83516101c060208501526101e0840190611dcf565b9260ff602082015116828401520151906060601f1982850301910152611dcf565b8d60608d0151906080601f1982850301910152611dcf565b60808b01518d8203601f190160a08f0152611dcf565b60a08a01518c8203601f190160c08e0152611dcf565b60c08901518b8203601f190160e08d0152611dcf565b60e08801518a8203601f19016101008c0152611dcf565b610100870151898203601f19016101208b0152611dcf565b610120860151610140890152610140860151601f19898303016101608a0152611dcf565b610160850151878203601f1901610180890152611dcf565b610180840151868203601f190184880152611dcf565b910151838203601f19016101c0850152611dcf565b0390f35b34610791576040366003190112610791576001600160401b0360043581811161079157611395903690600401611d25565b90602435908111610791576104346113b4611421923690600401611d25565b926113bd611e04565b60056113f260206040516113e160ff858751938581818b019661025581838a611dac565b604051809381928751928391611dac565b8101600181520301902001600160ff1982541617905561078c816040516020818851610c2b8183858d01611dac565b907f7d904e478df0f515c7058df56a2295c88f46c97f269f153cb964c1574e4ad9e8600080a3005b346107915760e0366003190112610791576001600160401b036004358181116107915761147a903690600401611d25565b9060243581811161079157611493903690600401611d25565b9060443591606435828111610791576114b0903690600401611d25565b90608435838111610791576114c9903690600401611d25565b9460a435848111610791576114e2903690600401611d25565b60c4359485116107915785946114fc903690600401611d25565b90604051908351906020998a860192611516818686611dac565b8401848c60019683888095520301902001896000528b528660406000209061153d91611f6e565b836040518c81895161155081838a611dac565b81018481520301902001896000528b528760406000206002019061157391611f6e565b836040518c81895161158681838a611dac565b81018481520301902001896000528b526040600020600701906115a891611f6e565b826040518b8188516115bb818389611dac565b81018481520301902001886000528a526040600020600801906115dd91611f6e565b88604051808093875180926115f192611dac565b8101848152030190200185600052875260406000206009019061161391611f6e565b61161c90612067565b9160405191829161162d918361212b565b037f5900e70e78483b52bbe5c26fe3eddc846f885a9fe48efe16abcda778278f4f1291a3604051908152f35b34610791576020806116ab600461166f36611d7b565b938493916040519085600382519385818186019661168e81838a611dac565b810160018152030190200155604051938492839251928391611dac565b810160018152030190200155604051908152f35b34610791576020806116ab60046116d536611d7b565b9384939160405190848151928481818501956116f2818389611dac565b81016001815203019020015460036040518581855161168e81838a611dac565b34610791576020600161178261172736611d7b565b9390606061012060405161173a81611ccc565b82815282858201528260408201528280820152600060808201528260a08201528260c08201528260e08201528261010082015201528160405193828580945193849201611dac565b810184815203019020019060005260205261136060406000206118436009604051926117ad84611ccc565b6117b681612087565b84526117c460018201612087565b60208501526117d560028201612087565b60408501526117e660038201612087565b606085015260ff600482015416608085015261180460058201612087565b60a085015261181560068201612087565b60c085015261182660078201612087565b60e085015261183760088201612087565b61010085015201612087565b6101208201526040519182916020835261012061192c6119166118ff6118e96118c66118b061189a6118848b61014060208c519201526101608d0190611dcf565b60208a01518c8203601f190160408e0152611dcf565b60408901518b8203601f190160608d0152611dcf565b60608801518a8203601f190160808c0152611dcf565b60ff60808801511660a08a015260a0870151601f198a83030160c08b0152611dcf565b60c0860151888203601f190160e08a0152611dcf565b60e0850151878203601f1901610100890152611dcf565b610100840151868203601f190184880152611dcf565b910151838203601f1901610140850152611dcf565b346107915760e0366003190112610791576001600160401b0360043581811161079157611972903690600401611d25565b906024358181116107915761198b903690600401611d25565b9060443591606435828111610791576119a8903690600401611d25565b906119b1611df4565b9460a435848111610791576119ca903690600401611d25565b60c4359485116107915785946119e4903690600401611d25565b90604051908351906020998a8601926119fe818686611dac565b8401848c60019683888095520301902001896000528b52868460406000200190611a2791611f6e565b836040518c818951611a3a81838a611dac565b81018481520301902001896000528b5287604060002060030190611a5d91611f6e565b836040518c818951611a7081838a611dac565b81018481520301902001896000528b5260406000206004019060ff1660ff19825416179055826040518b818851611aa8818389611dac565b81018481520301902001886000528a52604060002060050190611aca91611f6e565b8860405180809387518092611ade92611dac565b8101848152030190200185600052875260406000206006019061161391611f6e565b3461079157611b0e36611d7b565b60405190611b1b82611c9b565b60608281809452602094828287948580950152604081016000905281808201528160808201528160a082015260c001526040519283828193519283910191611b6292611dac565b81016001815203019020600201906000528252604060002060405191611b8783611c9b565b611b9082612087565b8352611b9e60018301612087565b91848401928352600281015460ff166040850190815260038201611bc190612087565b85840190815290611bd460048401612087565b6080870190815291611be860058501612087565b9360a08801948552600601611bfc90612087565b9460c08801958652604051988998818a525190890160e090526101008901611c2391611dcf565b9651601f1997888a82030160408b0152611c3c91611dcf565b925160ff1690880152519085878203016080880152611c5a91611dcf565b905190848682030160a0870152611c7091611dcf565b905190838582030160c0860152611c8691611dcf565b9051918382030160e084015261136091611dcf565b60e081019081106001600160401b03821117611cb657604052565b634e487b7160e01b600052604160045260246000fd5b61014081019081106001600160401b03821117611cb657604052565b6101c081019081106001600160401b03821117611cb657604052565b90601f801991011681019081106001600160401b03821117611cb657604052565b81601f82011215610791578035906001600160401b038211611cb65760405192611d59601f8401601f191660200185611d04565b8284526020838301011161079157816000926020809301838601378301015290565b604060031982011261079157600435906001600160401b03821161079157611da591600401611d25565b9060243590565b60005b838110611dbf5750506000910152565b8181015183820152602001611daf565b90602091611de881518092818552858086019101611dac565b601f01601f1916010190565b6084359060ff8216820361079157565b6000546001600160a01b03163303611e1857565b606460405162461bcd60e51b815260206004820152602060248201527f4f776e61626c653a2063616c6c6572206973206e6f7420746865206f776e65726044820152fd5b15611e6357565b60405162461bcd60e51b815260206004820152601960248201527f547572746c6520616c72656164792072656769737465726564000000000000006044820152606490fd5b8054821015611ec05760005260206000200190600090565b634e487b7160e01b600052603260045260246000fd5b90600182811c92168015611f06575b6020831014611ef057565b634e487b7160e01b600052602260045260246000fd5b91607f1691611ee5565b818110611f1b575050565b60008155600101611f10565b9190601f8111611f3657505050565b611f62926000526020600020906020601f840160051c83019310611f64575b601f0160051c0190611f10565b565b9091508190611f55565b91909182516001600160401b038111611cb657611f9581611f8f8454611ed6565b84611f27565b602080601f8311600114611fd1575081929394600092611fc6575b50508160011b916000199060031b1c1916179055565b015190503880611fb0565b90601f198316958460005282600020926000905b88821061201d57505083600195969710612004575b505050811b019055565b015160001960f88460031b161c19169055388080611ffa565b80600185968294968601518155019501930190611fe5565b805468010000000000000000811015611cb65761205791600182018155611ea8565b919091610bc257611f6291611f6e565b61207f90602060405192828480945193849201611dac565b810103902090565b906040519182600082549261209b84611ed6565b90818452600194858116908160001461210857506001146120c5575b5050611f6292500383611d04565b9093915060005260209081600020936000915b8183106120f0575050611f62935082010138806120b7565b855488840185015294850194879450918301916120d8565b915050611f6294506020925060ff191682840152151560051b82010138806120b7565b909161214261215093604084526040840190611dcf565b916020818403910152611dcf565b90565b6000198114610bee5760010190565b60009291815461217181611ed6565b926001918083169081156121ca575060011461218e575b50505050565b90919293945060005260209081600020906000915b8583106121b95750505050019038808080612188565b8054858401529183019181016121a3565b60ff1916845250505081151590910201915038808080612188565b908082146122bd576121f78154611ed6565b906001600160401b038211611cb657819061221c826122168654611ed6565b86611f27565b600090601f8311600114612252576000926122475750508160011b916000199060031b1c1916179055565b015490503880611fb0565b81526020808220858352818320935090601f1985169083905b8282106122a457505090846001959493921061228b57505050811b019055565b015460001960f88460031b161c19169055388080611ffa565b849581929585015481556001809101960194019061226b565b505056fea26469706673582212200aaae3e15e043d9442b5ba3e92342a4b0b51a2567e300afac5b9b597081687fd64736f6c63430008120033",
			"opcodes": "PUSH1 0x80 DUP1 PUSH1 0x40 MSTORE CALLVALUE PUSH2 0x5B JUMPI PUSH1 0x0 DUP1 SLOAD CALLER PUSH1 0x1 PUSH1 0x1 PUSH1 0xA0 SHL SUB NOT DUP3 AND DUP2 OR DUP4 SSTORE SWAP2 PUSH1 0x1 PUSH1 0x1 PUSH1 0xA0 SHL SUB SWAP1 SWAP2 AND SWAP1 PUSH32 0x8BE0079C531659141344CD1FD0A4F28419497F9722A3DAAFE3B4186F6B6457E0 SWAP1 DUP1 LOG3 PUSH2 0x22F7 SWAP1 DUP2 PUSH2 0x61 DUP3 CODECOPY RETURN JUMPDEST PUSH1 0x0 DUP1 REVERT INVALID PUSH1 0x80 PUSH1 0x40 MSTORE PUSH1 0x4 CALLDATASIZE LT ISZERO PUSH2 0x12 JUMPI PUSH1 0x0 DUP1 REVERT JUMPDEST PUSH1 0x0 CALLDATALOAD PUSH1 0xE0 SHR DUP1 PUSH4 0x17AA1F48 EQ PUSH2 0x1B00 JUMPI DUP1 PUSH4 0x18E1A28A EQ PUSH2 0x1941 JUMPI DUP1 PUSH4 0x1A0642EF EQ PUSH2 0x1712 JUMPI DUP1 PUSH4 0x229AA914 EQ PUSH2 0x16BF JUMPI DUP1 PUSH4 0x482346BD EQ PUSH2 0x1659 JUMPI DUP1 PUSH4 0x596C442A EQ PUSH2 0x1449 JUMPI DUP1 PUSH4 0x5C493EAA EQ PUSH2 0x1364 JUMPI DUP1 PUSH4 0x673AE4C1 EQ PUSH2 0x1075 JUMPI DUP1 PUSH4 0x6C1DCAF8 EQ PUSH2 0xDD0 JUMPI DUP1 PUSH4 0x715018A6 EQ PUSH2 0xD77 JUMPI DUP1 PUSH4 0x8DA5CB5B EQ PUSH2 0xD4E JUMPI DUP1 PUSH4 0xCE5F0B7D EQ PUSH2 0x911 JUMPI DUP1 PUSH4 0xF2FDE38B EQ PUSH2 0x846 JUMPI DUP1 PUSH4 0xF3CB197D EQ PUSH2 0x796 JUMPI PUSH4 0xFF39B1AE EQ PUSH2 0xC1 JUMPI PUSH1 0x0 DUP1 REVERT JUMPDEST CALLVALUE PUSH2 0x791 JUMPI PUSH2 0x200 CALLDATASIZE PUSH1 0x3 NOT ADD SLT PUSH2 0x791 JUMPI PUSH1 0x1 PUSH1 0x1 PUSH1 0x40 SHL SUB PUSH1 0x4 CALLDATALOAD DUP2 DUP2 GT PUSH2 0x791 JUMPI PUSH2 0xF3 SWAP1 CALLDATASIZE SWAP1 PUSH1 0x4 ADD PUSH2 0x1D25 JUMP JUMPDEST PUSH1 0x24 CALLDATALOAD DUP3 DUP2 GT PUSH2 0x791 JUMPI PUSH2 0x10B SWAP1 CALLDATASIZE SWAP1 PUSH1 0x4 ADD PUSH2 0x1D25 JUMP JUMPDEST PUSH1 0x64 CALLDATALOAD PUSH1 0xFF DUP2 AND DUP2 SUB PUSH2 0x791 JUMPI PUSH1 0x84 CALLDATALOAD DUP5 DUP2 GT PUSH2 0x791 JUMPI PUSH2 0x130 SWAP1 CALLDATASIZE SWAP1 PUSH1 0x4 ADD PUSH2 0x1D25 JUMP JUMPDEST SWAP1 PUSH1 0xA4 CALLDATALOAD DUP6 DUP2 GT PUSH2 0x791 JUMPI PUSH2 0x149 SWAP1 CALLDATASIZE SWAP1 PUSH1 0x4 ADD PUSH2 0x1D25 JUMP JUMPDEST SWAP5 PUSH1 0xC4 CALLDATALOAD DUP2 DUP2 GT PUSH2 0x791 JUMPI PUSH2 0x162 SWAP1 CALLDATASIZE SWAP1 PUSH1 0x4 ADD PUSH2 0x1D25 JUMP JUMPDEST SWAP6 PUSH1 0xE4 CALLDATALOAD DUP3 DUP2 GT PUSH2 0x791 JUMPI PUSH2 0x17B SWAP1 CALLDATASIZE SWAP1 PUSH1 0x4 ADD PUSH2 0x1D25 JUMP JUMPDEST SWAP7 PUSH2 0x104 CALLDATALOAD DUP4 DUP2 GT PUSH2 0x791 JUMPI PUSH2 0x195 SWAP1 CALLDATASIZE SWAP1 PUSH1 0x4 ADD PUSH2 0x1D25 JUMP JUMPDEST PUSH2 0x124 CALLDATALOAD DUP5 DUP2 GT PUSH2 0x791 JUMPI PUSH2 0x1AE SWAP1 CALLDATASIZE SWAP1 PUSH1 0x4 ADD PUSH2 0x1D25 JUMP JUMPDEST SWAP1 PUSH2 0x144 CALLDATALOAD DUP6 DUP2 GT PUSH2 0x791 JUMPI PUSH2 0x1C8 SWAP1 CALLDATASIZE SWAP1 PUSH1 0x4 ADD PUSH2 0x1D25 JUMP JUMPDEST SWAP10 PUSH2 0x184 CALLDATALOAD DUP7 DUP2 GT PUSH2 0x791 JUMPI PUSH2 0x1E2 SWAP1 CALLDATASIZE SWAP1 PUSH1 0x4 ADD PUSH2 0x1D25 JUMP JUMPDEST SWAP4 PUSH2 0x1A4 CALLDATALOAD DUP8 DUP2 GT PUSH2 0x791 JUMPI PUSH2 0x1FC SWAP1 CALLDATASIZE SWAP1 PUSH1 0x4 ADD PUSH2 0x1D25 JUMP JUMPDEST SWAP6 PUSH2 0x1C4 CALLDATALOAD DUP9 DUP2 GT PUSH2 0x791 JUMPI PUSH2 0x216 SWAP1 CALLDATASIZE SWAP1 PUSH1 0x4 ADD PUSH2 0x1D25 JUMP JUMPDEST SWAP8 PUSH2 0x1E4 CALLDATALOAD GT PUSH2 0x791 JUMPI DUP12 SWAP10 PUSH1 0xFF PUSH1 0x5 PUSH2 0x27B PUSH1 0x20 PUSH2 0x23B CALLDATASIZE PUSH2 0x1E4 CALLDATALOAD PUSH1 0x4 ADD PUSH2 0x1D25 JUMP JUMPDEST SWAP15 PUSH2 0x268 DUP6 DUP6 PUSH1 0x40 MLOAD DUP6 DUP2 DUP7 MLOAD PUSH2 0x255 DUP2 DUP4 DUP6 DUP12 ADD PUSH2 0x1DAC JUMP JUMPDEST DUP2 ADD PUSH1 0x1 DUP2 MSTORE SUB ADD SWAP1 KECCAK256 ADD SLOAD AND ISZERO PUSH2 0x1E5C JUMP JUMPDEST DUP2 PUSH1 0x40 MLOAD SWAP4 DUP3 DUP6 DUP1 SWAP5 MLOAD SWAP4 DUP5 SWAP3 ADD PUSH2 0x1DAC JUMP JUMPDEST DUP2 ADD PUSH1 0x1 DUP2 MSTORE SUB ADD SWAP1 KECCAK256 ADD SLOAD AND ISZERO PUSH1 0x0 EQ PUSH2 0x46D JUMPI DUP13 PUSH1 0x40 SWAP15 SWAP8 SWAP9 SWAP10 SWAP11 SWAP12 SWAP13 SWAP14 SWAP15 MLOAD DUP2 DUP2 DUP1 SWAP4 MLOAD PUSH1 0x20 DUP2 SWAP4 ADD SWAP2 PUSH2 0x2B1 SWAP3 PUSH2 0x1DAC JUMP JUMPDEST DUP2 ADD PUSH1 0x1 DUP2 MSTORE SUB PUSH1 0x20 ADD SWAP1 KECCAK256 SWAP11 PUSH1 0x44 CALLDATALOAD PUSH1 0x0 MSTORE DUP12 PUSH1 0x20 MSTORE DUP14 PUSH1 0x40 PUSH1 0x0 KECCAK256 SWAP1 PUSH2 0x2D8 SWAP2 PUSH2 0x1F6E JUMP JUMPDEST PUSH1 0x44 CALLDATALOAD PUSH1 0x0 MSTORE DUP12 PUSH1 0x20 MSTORE PUSH1 0x40 PUSH1 0x0 KECCAK256 SWAP1 PUSH1 0x1 DUP3 ADD SWAP1 PUSH1 0xFF AND PUSH1 0xFF NOT DUP3 SLOAD AND OR SWAP1 SSTORE PUSH1 0x2 ADD SWAP1 PUSH2 0x306 SWAP2 PUSH2 0x1F6E JUMP JUMPDEST PUSH1 0x44 CALLDATALOAD PUSH1 0x0 MSTORE DUP10 PUSH1 0x20 MSTORE PUSH1 0x40 PUSH1 0x0 KECCAK256 PUSH1 0x3 ADD SWAP1 PUSH2 0x322 SWAP2 PUSH2 0x1F6E JUMP JUMPDEST PUSH1 0x44 CALLDATALOAD PUSH1 0x0 MSTORE DUP9 PUSH1 0x20 MSTORE PUSH1 0x40 PUSH1 0x0 KECCAK256 PUSH1 0x4 ADD SWAP1 PUSH2 0x33E SWAP2 PUSH2 0x1F6E JUMP JUMPDEST PUSH1 0x44 CALLDATALOAD PUSH1 0x0 MSTORE DUP8 PUSH1 0x20 MSTORE PUSH1 0x40 PUSH1 0x0 KECCAK256 PUSH1 0x5 ADD SWAP1 PUSH2 0x35A SWAP2 PUSH2 0x1F6E JUMP JUMPDEST PUSH1 0x44 CALLDATALOAD PUSH1 0x0 MSTORE DUP7 PUSH1 0x20 MSTORE PUSH1 0x40 PUSH1 0x0 KECCAK256 PUSH1 0x6 ADD SWAP1 PUSH2 0x376 SWAP2 PUSH2 0x1F6E JUMP JUMPDEST PUSH1 0x44 CALLDATALOAD PUSH1 0x0 MSTORE DUP6 PUSH1 0x20 MSTORE PUSH1 0x40 PUSH1 0x0 KECCAK256 PUSH1 0x7 ADD SWAP1 PUSH2 0x392 SWAP2 PUSH2 0x1F6E JUMP JUMPDEST PUSH1 0x44 CALLDATALOAD PUSH1 0x0 MSTORE DUP5 PUSH1 0x20 MSTORE PUSH1 0x40 PUSH1 0x0 KECCAK256 PUSH1 0x8 ADD SWAP1 PUSH2 0x3AE SWAP2 PUSH2 0x1F6E JUMP JUMPDEST PUSH1 0x44 CALLDATALOAD PUSH1 0x0 MSTORE DUP4 PUSH1 0x20 MSTORE PUSH1 0x40 PUSH1 0x0 KECCAK256 PUSH2 0x164 CALLDATALOAD PUSH1 0x9 DUP3 ADD SSTORE PUSH1 0xA ADD SWAP1 PUSH2 0x3D3 SWAP2 PUSH2 0x1F6E JUMP JUMPDEST PUSH1 0x44 CALLDATALOAD PUSH1 0x0 MSTORE DUP3 PUSH1 0x20 MSTORE PUSH1 0x40 PUSH1 0x0 KECCAK256 PUSH1 0xB ADD SWAP1 PUSH2 0x3EF SWAP2 PUSH2 0x1F6E JUMP JUMPDEST PUSH1 0x44 CALLDATALOAD PUSH1 0x0 MSTORE DUP2 PUSH1 0x20 MSTORE PUSH1 0x40 PUSH1 0x0 KECCAK256 PUSH1 0xC ADD SWAP1 PUSH2 0x40B SWAP2 PUSH2 0x1F6E JUMP JUMPDEST PUSH1 0x44 CALLDATALOAD PUSH1 0x0 MSTORE PUSH1 0x20 MSTORE PUSH1 0x40 PUSH1 0x0 KECCAK256 PUSH1 0xD ADD SWAP1 PUSH2 0x426 SWAP2 PUSH2 0x1F6E JUMP JUMPDEST PUSH2 0x43A PUSH2 0x434 PUSH1 0x20 SWAP4 PUSH2 0x2067 JUMP JUMPDEST SWAP2 PUSH2 0x2067 JUMP JUMPDEST PUSH1 0x40 MLOAD SWAP2 PUSH1 0x44 CALLDATALOAD SWAP2 DUP3 SWAP2 PUSH32 0x406D6A39963B189AE4D4BA0B53780ECDF05DC013E196662687A246B0A2B70548 PUSH1 0x0 DUP1 LOG4 DUP2 MSTORE RETURN JUMPDEST PUSH1 0x20 SWAP14 PUSH2 0x650 DUP16 SWAP8 DUP15 SWAP16 SWAP13 PUSH2 0x43A SWAP16 SWAP10 PUSH2 0x434 SWAP16 SWAP13 SWAP9 DUP16 SWAP1 PUSH2 0x78C SWAP16 SWAP13 SWAP12 PUSH2 0x5FD PUSH2 0x759 SWAP16 SWAP11 SWAP3 PUSH2 0x5CA PUSH2 0x726 SWAP16 SWAP14 PUSH2 0x595 PUSH2 0x6F1 SWAP16 SWAP7 PUSH2 0x560 PUSH2 0x687 SWAP16 PUSH2 0x630 SWAP13 PUSH2 0x4EA PUSH2 0x268 SWAP12 PUSH2 0x4CE DUP16 DUP16 DUP2 PUSH1 0x40 MLOAD SWAP4 DUP3 DUP6 DUP1 SWAP5 MLOAD SWAP4 DUP5 SWAP3 ADD PUSH2 0x1DAC JUMP JUMPDEST DUP2 ADD PUSH1 0x1 DUP2 MSTORE SUB ADD SWAP1 KECCAK256 PUSH1 0x44 CALLDATALOAD PUSH1 0x0 MSTORE DUP16 MSTORE PUSH1 0x40 PUSH1 0x0 KECCAK256 PUSH2 0x1F6E JUMP JUMPDEST PUSH2 0x502 DUP14 DUP14 DUP2 PUSH1 0x40 MLOAD SWAP4 DUP3 DUP6 DUP1 SWAP5 MLOAD SWAP4 DUP5 SWAP3 ADD PUSH2 0x1DAC JUMP JUMPDEST DUP2 ADD PUSH1 0x1 DUP2 MSTORE SUB ADD SWAP1 KECCAK256 PUSH1 0x44 CALLDATALOAD PUSH1 0x0 MSTORE DUP14 MSTORE PUSH1 0xFF PUSH1 0x1 PUSH1 0x40 PUSH1 0x0 KECCAK256 ADD SWAP2 AND PUSH1 0xFF NOT DUP3 SLOAD AND OR SWAP1 SSTORE PUSH2 0x541 DUP13 DUP13 DUP2 PUSH1 0x40 MLOAD SWAP4 DUP3 DUP6 DUP1 SWAP5 MLOAD SWAP4 DUP5 SWAP3 ADD PUSH2 0x1DAC JUMP JUMPDEST DUP2 ADD PUSH1 0x1 DUP2 MSTORE SUB ADD SWAP1 KECCAK256 PUSH1 0x44 CALLDATALOAD PUSH1 0x0 MSTORE DUP13 MSTORE PUSH1 0x2 PUSH1 0x40 PUSH1 0x0 KECCAK256 ADD PUSH2 0x1F6E JUMP JUMPDEST PUSH1 0x40 MLOAD DUP11 DUP2 DUP2 PUSH2 0x576 DUP14 DUP4 DUP2 MLOAD SWAP4 DUP5 SWAP3 ADD PUSH2 0x1DAC JUMP JUMPDEST DUP2 ADD PUSH1 0x1 DUP2 MSTORE SUB ADD SWAP1 KECCAK256 PUSH1 0x44 CALLDATALOAD PUSH1 0x0 MSTORE DUP11 MSTORE PUSH1 0x3 PUSH1 0x40 PUSH1 0x0 KECCAK256 ADD PUSH2 0x1F6E JUMP JUMPDEST PUSH1 0x40 MLOAD DUP9 DUP2 DUP2 PUSH2 0x5AB DUP12 DUP4 DUP2 MLOAD SWAP4 DUP5 SWAP3 ADD PUSH2 0x1DAC JUMP JUMPDEST DUP2 ADD PUSH1 0x1 DUP2 MSTORE SUB ADD SWAP1 KECCAK256 PUSH1 0x44 CALLDATALOAD PUSH1 0x0 MSTORE DUP9 MSTORE PUSH1 0x4 PUSH1 0x40 PUSH1 0x0 KECCAK256 ADD PUSH2 0x1F6E JUMP JUMPDEST PUSH1 0x40 MLOAD DUP7 DUP2 DUP8 MLOAD PUSH2 0x5DE DUP2 DUP4 DUP6 DUP13 ADD PUSH2 0x1DAC JUMP JUMPDEST DUP2 ADD PUSH1 0x1 DUP2 MSTORE SUB ADD SWAP1 KECCAK256 PUSH1 0x44 CALLDATALOAD PUSH1 0x0 MSTORE DUP7 MSTORE PUSH1 0x5 PUSH1 0x40 PUSH1 0x0 KECCAK256 ADD PUSH2 0x1F6E JUMP JUMPDEST PUSH1 0x40 MLOAD DUP5 DUP2 DUP6 MLOAD PUSH2 0x611 DUP2 DUP4 DUP6 DUP11 ADD PUSH2 0x1DAC JUMP JUMPDEST DUP2 ADD PUSH1 0x1 DUP2 MSTORE SUB ADD SWAP1 KECCAK256 PUSH1 0x44 CALLDATALOAD PUSH1 0x0 MSTORE DUP5 MSTORE PUSH1 0x6 PUSH1 0x40 PUSH1 0x0 KECCAK256 ADD PUSH2 0x1F6E JUMP JUMPDEST DUP2 ADD PUSH1 0x1 DUP2 MSTORE SUB ADD SWAP1 KECCAK256 PUSH1 0x44 CALLDATALOAD PUSH1 0x0 MSTORE PUSH1 0x20 MSTORE PUSH1 0x7 PUSH1 0x40 PUSH1 0x0 KECCAK256 ADD PUSH2 0x1F6E JUMP JUMPDEST PUSH2 0x668 DUP16 DUP13 DUP2 PUSH1 0x40 MLOAD SWAP4 DUP3 DUP6 DUP1 SWAP5 MLOAD SWAP4 DUP5 SWAP3 ADD PUSH2 0x1DAC JUMP JUMPDEST DUP2 ADD PUSH1 0x1 DUP2 MSTORE SUB ADD SWAP1 KECCAK256 PUSH1 0x44 CALLDATALOAD PUSH1 0x0 MSTORE DUP16 MSTORE PUSH1 0x8 PUSH1 0x40 PUSH1 0x0 KECCAK256 ADD PUSH2 0x1F6E JUMP JUMPDEST PUSH1 0x40 MLOAD DUP14 DUP2 DUP2 PUSH2 0x69D DUP14 DUP4 DUP2 MLOAD SWAP4 DUP5 SWAP3 ADD PUSH2 0x1DAC JUMP JUMPDEST DUP2 ADD PUSH1 0x1 DUP2 MSTORE SUB ADD SWAP1 KECCAK256 PUSH1 0x44 CALLDATALOAD PUSH1 0x0 MSTORE DUP14 MSTORE PUSH2 0x164 CALLDATALOAD PUSH1 0x9 PUSH1 0x40 PUSH1 0x0 KECCAK256 ADD SSTORE PUSH1 0x40 MLOAD DUP14 DUP2 DUP2 PUSH2 0x6D2 DUP14 DUP4 DUP2 MLOAD SWAP4 DUP5 SWAP3 ADD PUSH2 0x1DAC JUMP JUMPDEST DUP2 ADD PUSH1 0x1 DUP2 MSTORE SUB ADD SWAP1 KECCAK256 PUSH1 0x44 CALLDATALOAD PUSH1 0x0 MSTORE DUP14 MSTORE PUSH1 0xA PUSH1 0x40 PUSH1 0x0 KECCAK256 ADD PUSH2 0x1F6E JUMP JUMPDEST PUSH1 0x40 MLOAD DUP12 DUP2 DUP2 PUSH2 0x707 DUP12 DUP4 DUP2 MLOAD SWAP4 DUP5 SWAP3 ADD PUSH2 0x1DAC JUMP JUMPDEST DUP2 ADD PUSH1 0x1 DUP2 MSTORE SUB ADD SWAP1 KECCAK256 PUSH1 0x44 CALLDATALOAD PUSH1 0x0 MSTORE DUP12 MSTORE PUSH1 0xB PUSH1 0x40 PUSH1 0x0 KECCAK256 ADD PUSH2 0x1F6E JUMP JUMPDEST PUSH1 0x40 MLOAD DUP10 DUP2 DUP8 MLOAD PUSH2 0x73A DUP2 DUP4 DUP6 DUP13 ADD PUSH2 0x1DAC JUMP JUMPDEST DUP2 ADD PUSH1 0x1 DUP2 MSTORE SUB ADD SWAP1 KECCAK256 PUSH1 0x44 CALLDATALOAD PUSH1 0x0 MSTORE DUP10 MSTORE PUSH1 0xC PUSH1 0x40 PUSH1 0x0 KECCAK256 ADD PUSH2 0x1F6E JUMP JUMPDEST PUSH1 0x40 MLOAD DUP8 DUP2 DUP6 MLOAD PUSH2 0x76D DUP2 DUP4 DUP6 DUP11 ADD PUSH2 0x1DAC JUMP JUMPDEST DUP2 ADD PUSH1 0x1 DUP2 MSTORE SUB ADD SWAP1 KECCAK256 PUSH1 0x44 CALLDATALOAD PUSH1 0x0 MSTORE DUP8 MSTORE PUSH1 0xD PUSH1 0x40 PUSH1 0x0 KECCAK256 ADD PUSH2 0x1F6E JUMP JUMPDEST PUSH2 0x2067 JUMP JUMPDEST PUSH1 0x0 DUP1 REVERT JUMPDEST CALLVALUE PUSH2 0x791 JUMPI PUSH1 0x20 CALLDATASIZE PUSH1 0x3 NOT ADD SLT PUSH2 0x791 JUMPI PUSH1 0x4 CALLDATALOAD PUSH1 0x1 PUSH1 0x1 PUSH1 0x40 SHL SUB DUP2 GT PUSH2 0x791 JUMPI PUSH1 0x4 PUSH2 0x7C9 PUSH1 0x20 SWAP3 CALLDATASIZE SWAP1 DUP4 ADD PUSH2 0x1D25 JUMP JUMPDEST DUP3 PUSH1 0x40 MLOAD DUP4 DUP4 MLOAD SWAP2 DUP4 DUP2 DUP2 DUP8 ADD SWAP5 PUSH2 0x7E2 DUP2 DUP4 DUP9 PUSH2 0x1DAC JUMP JUMPDEST DUP2 ADD PUSH1 0x1 DUP2 MSTORE SUB ADD SWAP1 KECCAK256 ADD SLOAD SWAP1 PUSH2 0x832 PUSH2 0x7FB DUP6 PUSH2 0x2067 JUMP JUMPDEST SWAP2 PUSH1 0x40 MLOAD SWAP6 DUP7 SWAP5 DUP6 SWAP5 PUSH32 0xB213070BD5A2C24D0C1D1927F5583190D5A1FCC1C569EF1AC33E9E449CACD7D3 PUSH1 0x0 DUP1 LOG3 MLOAD SWAP3 DUP4 SWAP2 PUSH2 0x1DAC JUMP JUMPDEST DUP2 ADD PUSH1 0x1 DUP2 MSTORE SUB ADD SWAP1 KECCAK256 ADD SLOAD PUSH1 0x40 MLOAD SWAP1 DUP2 MSTORE RETURN JUMPDEST CALLVALUE PUSH2 0x791 JUMPI PUSH1 0x20 CALLDATASIZE PUSH1 0x3 NOT ADD SLT PUSH2 0x791 JUMPI PUSH1 0x4 CALLDATALOAD PUSH1 0x1 PUSH1 0x1 PUSH1 0xA0 SHL SUB DUP2 DUP2 AND SWAP2 DUP3 SWAP1 SUB PUSH2 0x791 JUMPI PUSH2 0x875 PUSH2 0x1E04 JUMP JUMPDEST DUP2 ISZERO PUSH2 0x8BD JUMPI PUSH1 0x0 SLOAD DUP3 PUSH12 0xFFFFFFFFFFFFFFFFFFFFFFFF PUSH1 0xA0 SHL DUP3 AND OR PUSH1 0x0 SSTORE AND PUSH32 0x8BE0079C531659141344CD1FD0A4F28419497F9722A3DAAFE3B4186F6B6457E0 PUSH1 0x0 DUP1 LOG3 STOP JUMPDEST PUSH1 0x40 MLOAD PUSH3 0x461BCD PUSH1 0xE5 SHL DUP2 MSTORE PUSH1 0x20 PUSH1 0x4 DUP3 ADD MSTORE PUSH1 0x26 PUSH1 0x24 DUP3 ADD MSTORE PUSH32 0x4F776E61626C653A206E6577206F776E657220697320746865207A65726F2061 PUSH1 0x44 DUP3 ADD MSTORE PUSH6 0x646472657373 PUSH1 0xD0 SHL PUSH1 0x64 DUP3 ADD MSTORE PUSH1 0x84 SWAP1 REVERT JUMPDEST CALLVALUE PUSH2 0x791 JUMPI PUSH1 0x60 CALLDATASIZE PUSH1 0x3 NOT ADD SLT PUSH2 0x791 JUMPI PUSH1 0x1 PUSH1 0x1 PUSH1 0x40 SHL SUB PUSH1 0x4 CALLDATALOAD DUP2 DUP2 GT PUSH2 0x791 JUMPI PUSH2 0x942 SWAP1 CALLDATASIZE SWAP1 PUSH1 0x4 ADD PUSH2 0x1D25 JUMP JUMPDEST PUSH1 0x24 CALLDATALOAD DUP3 DUP2 GT PUSH2 0x791 JUMPI PUSH2 0x95A SWAP1 CALLDATASIZE SWAP1 PUSH1 0x4 ADD PUSH2 0x1D25 JUMP JUMPDEST SWAP2 PUSH1 0x44 CALLDATALOAD SWAP1 DUP2 GT PUSH2 0x791 JUMPI PUSH2 0x973 SWAP1 CALLDATASIZE SWAP1 PUSH1 0x4 ADD PUSH2 0x1D25 JUMP JUMPDEST SWAP2 PUSH1 0xFF PUSH1 0x5 PUSH1 0x40 MLOAD PUSH1 0x20 DUP2 DUP7 MLOAD PUSH2 0x98D DUP2 DUP4 DUP6 DUP12 ADD PUSH2 0x1DAC JUMP JUMPDEST DUP2 ADD PUSH1 0x1 DUP2 MSTORE SUB ADD SWAP1 KECCAK256 ADD SLOAD AND ISZERO PUSH2 0xD11 JUMPI PUSH1 0x40 MLOAD SWAP2 DUP2 MLOAD SWAP3 PUSH1 0x20 DUP2 DUP2 DUP6 ADD SWAP6 PUSH2 0x9B8 DUP2 DUP4 DUP10 PUSH2 0x1DAC JUMP JUMPDEST DUP2 ADD PUSH1 0x2 DUP2 MSTORE SUB ADD SWAP1 KECCAK256 SLOAD ISZERO PUSH2 0xCC1 JUMPI PUSH1 0x0 SWAP3 PUSH1 0x0 JUMPDEST PUSH1 0x40 MLOAD PUSH1 0x20 DUP2 DUP7 MLOAD PUSH2 0x9E1 DUP2 DUP4 DUP9 PUSH2 0x1DAC JUMP JUMPDEST DUP2 ADD PUSH1 0x2 DUP2 MSTORE SUB ADD SWAP1 KECCAK256 SLOAD DUP2 LT ISZERO PUSH2 0xCB8 JUMPI PUSH2 0xA19 DUP2 PUSH1 0x40 MLOAD PUSH1 0x20 DUP2 DUP9 MLOAD PUSH2 0xA0A DUP2 DUP4 DUP11 PUSH2 0x1DAC JUMP JUMPDEST DUP2 ADD PUSH1 0x2 DUP2 MSTORE SUB ADD SWAP1 KECCAK256 PUSH2 0x1EA8 JUMP JUMPDEST POP PUSH1 0x40 MLOAD PUSH2 0xA3D DUP2 PUSH2 0xA2F PUSH1 0x20 DUP3 ADD DUP1 SWAP6 PUSH2 0x2162 JUMP JUMPDEST SUB PUSH1 0x1F NOT DUP2 ADD DUP4 MSTORE DUP3 PUSH2 0x1D04 JUMP JUMPDEST MLOAD SWAP1 KECCAK256 PUSH1 0x40 MLOAD PUSH1 0x20 DUP2 ADD SWAP1 PUSH2 0xA6A PUSH1 0x20 DUP3 DUP9 MLOAD PUSH2 0xA5D DUP2 DUP8 DUP6 DUP14 ADD PUSH2 0x1DAC JUMP JUMPDEST DUP2 ADD SUB DUP1 DUP5 MSTORE ADD DUP3 PUSH2 0x1D04 JUMP JUMPDEST MLOAD SWAP1 KECCAK256 EQ PUSH2 0xA80 JUMPI PUSH2 0xA7B SWAP1 PUSH2 0x2153 JUMP JUMPDEST PUSH2 0x9CE JUMP JUMPDEST POP SWAP1 SWAP2 SWAP3 POP PUSH1 0x1 JUMPDEST ISZERO PUSH2 0xC68 JUMPI PUSH1 0x20 PUSH2 0xAA4 SWAP2 PUSH1 0x40 MLOAD DUP1 SWAP4 DUP2 SWAP3 DUP8 MLOAD SWAP3 DUP4 SWAP2 PUSH2 0x1DAC JUMP JUMPDEST DUP2 ADD PUSH1 0x2 DUP2 MSTORE SUB ADD SWAP1 KECCAK256 SWAP1 PUSH1 0x0 JUMPDEST DUP3 SLOAD SWAP1 DUP2 DUP2 LT ISZERO PUSH2 0xC04 JUMPI PUSH2 0xAC7 DUP2 DUP6 PUSH2 0x1EA8 JUMP JUMPDEST POP PUSH1 0x40 MLOAD PUSH2 0xADD DUP2 PUSH2 0xA2F PUSH1 0x20 DUP3 ADD DUP1 SWAP6 PUSH2 0x2162 JUMP JUMPDEST MLOAD SWAP1 KECCAK256 PUSH1 0x40 MLOAD PUSH1 0x20 DUP2 ADD SWAP1 PUSH2 0xAFD PUSH1 0x20 DUP3 DUP9 MLOAD PUSH2 0xA5D DUP2 DUP8 DUP6 DUP14 ADD PUSH2 0x1DAC JUMP JUMPDEST MLOAD SWAP1 KECCAK256 EQ PUSH2 0xB15 JUMPI JUMPDEST PUSH2 0xB10 SWAP2 POP PUSH2 0x2153 JUMP JUMPDEST PUSH2 0xAB2 JUMP JUMPDEST PUSH1 0x0 NOT SWAP2 DUP1 DUP4 ADD SWAP1 DUP2 GT PUSH2 0xBEE JUMPI PUSH2 0xB2D SWAP1 DUP6 PUSH2 0x1EA8 JUMP JUMPDEST POP PUSH2 0xB38 DUP3 DUP7 PUSH2 0x1EA8 JUMP JUMPDEST SWAP2 SWAP1 SWAP2 PUSH2 0xBC2 JUMPI PUSH2 0xB48 SWAP2 PUSH2 0x21E5 JUMP JUMPDEST DUP4 SLOAD SWAP2 DUP3 ISZERO PUSH2 0xBD8 JUMPI PUSH2 0xB5D DUP2 DUP5 ADD DUP7 PUSH2 0x1EA8 JUMP JUMPDEST SWAP4 SWAP1 SWAP4 PUSH2 0xBC2 JUMPI DUP4 PUSH2 0xB72 PUSH2 0xB10 SWAP6 SLOAD PUSH2 0x1ED6 JUMP JUMPDEST SWAP1 DUP2 PUSH2 0xB83 JUMPI JUMPDEST POP POP ADD DUP5 SSTORE PUSH2 0xB06 JUMP JUMPDEST PUSH1 0x0 SWAP2 PUSH1 0x1F DUP1 DUP3 GT PUSH1 0x1 EQ PUSH2 0xB9D JUMPI POP POP SSTORE JUMPDEST DUP9 DUP1 PUSH2 0xB79 JUMP JUMPDEST SWAP2 PUSH2 0xBBB DUP5 SWAP3 SWAP4 DUP3 DUP5 MSTORE PUSH1 0x20 DUP5 KECCAK256 SWAP5 ADD PUSH1 0x5 SHR DUP5 ADD PUSH1 0x1 DUP6 ADD PUSH2 0x1F10 JUMP JUMPDEST SSTORE SSTORE PUSH2 0xB96 JUMP JUMPDEST PUSH4 0x4E487B71 PUSH1 0xE0 SHL PUSH1 0x0 MSTORE PUSH1 0x0 PUSH1 0x4 MSTORE PUSH1 0x24 PUSH1 0x0 REVERT JUMPDEST PUSH4 0x4E487B71 PUSH1 0xE0 SHL PUSH1 0x0 MSTORE PUSH1 0x31 PUSH1 0x4 MSTORE PUSH1 0x24 PUSH1 0x0 REVERT JUMPDEST PUSH4 0x4E487B71 PUSH1 0xE0 SHL PUSH1 0x0 MSTORE PUSH1 0x11 PUSH1 0x4 MSTORE PUSH1 0x24 PUSH1 0x0 REVERT JUMPDEST DUP5 DUP7 PUSH2 0xC40 PUSH2 0x434 PUSH2 0xC3A DUP8 PUSH2 0x78C DUP2 PUSH1 0x40 MLOAD PUSH1 0x20 DUP2 DUP2 PUSH2 0xC2B DUP12 DUP4 DUP2 MLOAD SWAP4 DUP5 SWAP3 ADD PUSH2 0x1DAC JUMP JUMPDEST DUP2 ADD PUSH1 0x2 DUP2 MSTORE SUB ADD SWAP1 KECCAK256 PUSH2 0x2035 JUMP JUMPDEST SWAP4 PUSH2 0x2067 JUMP JUMPDEST SWAP2 PUSH32 0x80D739977BB0030FD7E876DC1CA9A667ADFC1B71FEA4820C4266DE2EE6D6C657 PUSH1 0x0 DUP1 LOG4 STOP JUMPDEST PUSH1 0x40 MLOAD PUSH3 0x461BCD PUSH1 0xE5 SHL DUP2 MSTORE PUSH1 0x20 PUSH1 0x4 DUP3 ADD MSTORE PUSH1 0x22 PUSH1 0x24 DUP3 ADD MSTORE PUSH32 0x4F6C64206F776E657220646F6573206E6F74206F776E20746869732074757274 PUSH1 0x44 DUP3 ADD MSTORE PUSH2 0x6C65 PUSH1 0xF0 SHL PUSH1 0x64 DUP3 ADD MSTORE PUSH1 0x84 SWAP1 REVERT JUMPDEST POP SWAP1 SWAP2 SWAP3 PUSH2 0xA88 JUMP JUMPDEST PUSH1 0x40 MLOAD PUSH3 0x461BCD PUSH1 0xE5 SHL DUP2 MSTORE PUSH1 0x20 PUSH1 0x4 DUP3 ADD MSTORE PUSH1 0x22 PUSH1 0x24 DUP3 ADD MSTORE PUSH32 0x4F6C64206F776E657220646F6573206E6F74206F776E20616E7920747572746C PUSH1 0x44 DUP3 ADD MSTORE PUSH2 0x6573 PUSH1 0xF0 SHL PUSH1 0x64 DUP3 ADD MSTORE PUSH1 0x84 SWAP1 REVERT JUMPDEST PUSH1 0x40 MLOAD PUSH3 0x461BCD PUSH1 0xE5 SHL DUP2 MSTORE PUSH1 0x20 PUSH1 0x4 DUP3 ADD MSTORE PUSH1 0x15 PUSH1 0x24 DUP3 ADD MSTORE PUSH21 0x151D5C9D1B1948191BD95CC81B9BDD08195E1A5CDD PUSH1 0x5A SHL PUSH1 0x44 DUP3 ADD MSTORE PUSH1 0x64 SWAP1 REVERT JUMPDEST CALLVALUE PUSH2 0x791 JUMPI PUSH1 0x0 CALLDATASIZE PUSH1 0x3 NOT ADD SLT PUSH2 0x791 JUMPI PUSH1 0x0 SLOAD PUSH1 0x40 MLOAD PUSH1 0x1 PUSH1 0x1 PUSH1 0xA0 SHL SUB SWAP1 SWAP2 AND DUP2 MSTORE PUSH1 0x20 SWAP1 RETURN JUMPDEST CALLVALUE PUSH2 0x791 JUMPI PUSH1 0x0 CALLDATASIZE PUSH1 0x3 NOT ADD SLT PUSH2 0x791 JUMPI PUSH2 0xD90 PUSH2 0x1E04 JUMP JUMPDEST PUSH1 0x0 DUP1 SLOAD PUSH1 0x1 PUSH1 0x1 PUSH1 0xA0 SHL SUB NOT DUP2 AND DUP3 SSTORE PUSH1 0x1 PUSH1 0x1 PUSH1 0xA0 SHL SUB AND PUSH32 0x8BE0079C531659141344CD1FD0A4F28419497F9722A3DAAFE3B4186F6B6457E0 DUP3 DUP1 LOG3 STOP JUMPDEST CALLVALUE PUSH2 0x791 JUMPI PUSH2 0x120 CALLDATASIZE PUSH1 0x3 NOT ADD SLT PUSH2 0x791 JUMPI PUSH1 0x1 PUSH1 0x1 PUSH1 0x40 SHL SUB PUSH1 0x4 CALLDATALOAD DUP2 DUP2 GT PUSH2 0x791 JUMPI PUSH2 0xE02 SWAP1 CALLDATASIZE SWAP1 PUSH1 0x4 ADD PUSH2 0x1D25 JUMP JUMPDEST SWAP1 PUSH1 0x24 CALLDATALOAD DUP2 DUP2 GT PUSH2 0x791 JUMPI PUSH2 0xE1B SWAP1 CALLDATASIZE SWAP1 PUSH1 0x4 ADD PUSH2 0x1D25 JUMP JUMPDEST SWAP1 PUSH1 0x64 CALLDATALOAD DUP2 DUP2 GT PUSH2 0x791 JUMPI PUSH2 0xE34 SWAP1 CALLDATASIZE SWAP1 PUSH1 0x4 ADD PUSH2 0x1D25 JUMP JUMPDEST PUSH2 0xE3C PUSH2 0x1DF4 JUMP JUMPDEST SWAP4 PUSH1 0xA4 CALLDATALOAD DUP4 DUP2 GT PUSH2 0x791 JUMPI PUSH2 0xE55 SWAP1 CALLDATASIZE SWAP1 PUSH1 0x4 ADD PUSH2 0x1D25 JUMP JUMPDEST SWAP2 PUSH1 0xC4 CALLDATALOAD DUP5 DUP2 GT PUSH2 0x791 JUMPI PUSH2 0xE6E SWAP1 CALLDATASIZE SWAP1 PUSH1 0x4 ADD PUSH2 0x1D25 JUMP JUMPDEST SWAP3 PUSH1 0xE4 CALLDATALOAD DUP6 DUP2 GT PUSH2 0x791 JUMPI PUSH2 0xE87 SWAP1 CALLDATASIZE SWAP1 PUSH1 0x4 ADD PUSH2 0x1D25 JUMP JUMPDEST SWAP7 PUSH2 0x104 CALLDATALOAD SWAP6 DUP7 GT PUSH2 0x791 JUMPI PUSH1 0x20 SWAP8 PUSH2 0xFD4 PUSH2 0x434 SWAP7 PUSH2 0xF9C DUP11 SWAP6 PUSH2 0x100A SWAP6 PUSH2 0xF20 PUSH2 0x78C SWAP10 DUP16 PUSH2 0xEFF PUSH2 0x1040 SWAP16 SWAP2 DUP15 PUSH2 0x268 PUSH2 0xECA PUSH1 0x2 SWAP6 CALLDATASIZE SWAP1 PUSH1 0x4 ADD PUSH2 0x1D25 JUMP JUMPDEST SWAP15 DUP6 PUSH1 0x40 MLOAD DUP6 DUP2 DUP7 MLOAD PUSH2 0xEE0 DUP2 DUP4 DUP6 DUP12 ADD PUSH2 0x1DAC JUMP JUMPDEST PUSH1 0x1 DUP2 DUP4 ADD MSTORE DUP2 ADD SUB ADD SWAP1 KECCAK256 ADD PUSH1 0x44 CALLDATALOAD PUSH1 0x0 MSTORE DUP5 MSTORE PUSH1 0x40 PUSH1 0x0 KECCAK256 PUSH2 0x1F6E JUMP JUMPDEST DUP2 ADD PUSH1 0x1 DUP2 MSTORE SUB ADD SWAP1 KECCAK256 ADD PUSH1 0x44 CALLDATALOAD PUSH1 0x0 MSTORE PUSH1 0x20 MSTORE PUSH1 0x1 PUSH1 0x40 PUSH1 0x0 KECCAK256 ADD PUSH2 0x1F6E JUMP JUMPDEST PUSH1 0x2 PUSH2 0xF3A DUP16 DUP13 DUP2 PUSH1 0x40 MLOAD SWAP4 DUP3 DUP6 DUP1 SWAP5 MLOAD SWAP4 DUP5 SWAP3 ADD PUSH2 0x1DAC JUMP JUMPDEST DUP2 ADD PUSH1 0x1 DUP2 MSTORE SUB ADD SWAP1 KECCAK256 ADD PUSH1 0x44 CALLDATALOAD PUSH1 0x0 MSTORE DUP15 MSTORE PUSH1 0xFF PUSH1 0x2 PUSH1 0x40 PUSH1 0x0 KECCAK256 ADD SWAP2 AND PUSH1 0xFF NOT DUP3 SLOAD AND OR SWAP1 SSTORE PUSH1 0x2 PUSH2 0xF7C DUP15 DUP12 DUP2 PUSH1 0x40 MLOAD SWAP4 DUP3 DUP6 DUP1 SWAP5 MLOAD SWAP4 DUP5 SWAP3 ADD PUSH2 0x1DAC JUMP JUMPDEST DUP2 ADD PUSH1 0x1 DUP2 MSTORE SUB ADD SWAP1 KECCAK256 ADD PUSH1 0x44 CALLDATALOAD PUSH1 0x0 MSTORE DUP14 MSTORE PUSH1 0x3 PUSH1 0x40 PUSH1 0x0 KECCAK256 ADD PUSH2 0x1F6E JUMP JUMPDEST PUSH1 0x2 PUSH1 0x40 MLOAD DUP13 DUP2 DUP2 PUSH2 0xFB4 DUP13 DUP4 DUP2 MLOAD SWAP4 DUP5 SWAP3 ADD PUSH2 0x1DAC JUMP JUMPDEST DUP2 ADD PUSH1 0x1 DUP2 MSTORE SUB ADD SWAP1 KECCAK256 ADD PUSH1 0x44 CALLDATALOAD PUSH1 0x0 MSTORE DUP12 MSTORE PUSH1 0x4 PUSH1 0x40 PUSH1 0x0 KECCAK256 ADD PUSH2 0x1F6E JUMP JUMPDEST PUSH1 0x2 PUSH1 0x40 MLOAD DUP11 DUP2 DUP9 MLOAD PUSH2 0xFEA DUP2 DUP4 DUP6 DUP14 ADD PUSH2 0x1DAC JUMP JUMPDEST DUP2 ADD PUSH1 0x1 DUP2 MSTORE SUB ADD SWAP1 KECCAK256 ADD PUSH1 0x44 CALLDATALOAD PUSH1 0x0 MSTORE DUP10 MSTORE PUSH1 0x5 PUSH1 0x40 PUSH1 0x0 KECCAK256 ADD PUSH2 0x1F6E JUMP JUMPDEST PUSH1 0x2 PUSH1 0x40 MLOAD DUP9 DUP2 DUP7 MLOAD PUSH2 0x1020 DUP2 DUP4 DUP6 DUP12 ADD PUSH2 0x1DAC JUMP JUMPDEST DUP2 ADD PUSH1 0x1 DUP2 MSTORE SUB ADD SWAP1 KECCAK256 ADD PUSH1 0x44 CALLDATALOAD PUSH1 0x0 MSTORE DUP8 MSTORE PUSH1 0x6 PUSH1 0x40 PUSH1 0x0 KECCAK256 ADD PUSH2 0x1F6E JUMP JUMPDEST SWAP1 PUSH1 0x40 MLOAD SWAP2 PUSH1 0x44 CALLDATALOAD SWAP2 PUSH32 0xBF4FF8EFB9C111A99679D7A6A4263272C5FA30A2FA39BEC8F6E4CE26902FC0BE PUSH1 0x0 DUP1 LOG4 PUSH1 0x44 CALLDATALOAD DUP2 MSTORE RETURN JUMPDEST CALLVALUE PUSH2 0x791 JUMPI PUSH1 0x20 PUSH2 0x1100 PUSH2 0x1088 CALLDATASIZE PUSH2 0x1D7B JUMP JUMPDEST SWAP3 SWAP1 PUSH1 0x60 PUSH2 0x1A0 PUSH1 0x40 MLOAD PUSH2 0x109B DUP2 PUSH2 0x1CE8 JUMP JUMPDEST DUP3 DUP2 MSTORE PUSH1 0x0 DUP6 DUP3 ADD MSTORE DUP3 PUSH1 0x40 DUP3 ADD MSTORE DUP3 DUP1 DUP3 ADD MSTORE DUP3 PUSH1 0x80 DUP3 ADD MSTORE DUP3 PUSH1 0xA0 DUP3 ADD MSTORE DUP3 PUSH1 0xC0 DUP3 ADD MSTORE DUP3 PUSH1 0xE0 DUP3 ADD MSTORE DUP3 PUSH2 0x100 DUP3 ADD MSTORE PUSH1 0x0 PUSH2 0x120 DUP3 ADD MSTORE DUP3 PUSH2 0x140 DUP3 ADD MSTORE DUP3 PUSH2 0x160 DUP3 ADD MSTORE DUP3 PUSH2 0x180 DUP3 ADD MSTORE ADD MSTORE DUP2 PUSH1 0x40 MLOAD SWAP4 DUP3 DUP6 DUP1 SWAP5 MLOAD SWAP4 DUP5 SWAP3 ADD PUSH2 0x1DAC JUMP JUMPDEST DUP2 ADD PUSH1 0x1 DUP2 MSTORE SUB ADD SWAP1 KECCAK256 SWAP1 PUSH1 0x0 MSTORE PUSH1 0x20 MSTORE PUSH2 0x1270 PUSH1 0x40 PUSH1 0x0 KECCAK256 PUSH2 0x1202 PUSH1 0xD PUSH1 0x40 MLOAD SWAP3 PUSH2 0x112B DUP5 PUSH2 0x1CE8 JUMP JUMPDEST PUSH2 0x1134 DUP2 PUSH2 0x2087 JUMP JUMPDEST DUP5 MSTORE PUSH1 0xFF PUSH1 0x1 DUP3 ADD SLOAD AND PUSH1 0x20 DUP6 ADD MSTORE PUSH2 0x114F PUSH1 0x2 DUP3 ADD PUSH2 0x2087 JUMP JUMPDEST PUSH1 0x40 DUP6 ADD MSTORE PUSH2 0x1160 PUSH1 0x3 DUP3 ADD PUSH2 0x2087 JUMP JUMPDEST PUSH1 0x60 DUP6 ADD MSTORE PUSH2 0x1171 PUSH1 0x4 DUP3 ADD PUSH2 0x2087 JUMP JUMPDEST PUSH1 0x80 DUP6 ADD MSTORE PUSH2 0x1182 PUSH1 0x5 DUP3 ADD PUSH2 0x2087 JUMP JUMPDEST PUSH1 0xA0 DUP6 ADD MSTORE PUSH2 0x1193 PUSH1 0x6 DUP3 ADD PUSH2 0x2087 JUMP JUMPDEST PUSH1 0xC0 DUP6 ADD MSTORE PUSH2 0x11A4 PUSH1 0x7 DUP3 ADD PUSH2 0x2087 JUMP JUMPDEST PUSH1 0xE0 DUP6 ADD MSTORE PUSH2 0x11B5 PUSH1 0x8 DUP3 ADD PUSH2 0x2087 JUMP JUMPDEST PUSH2 0x100 DUP6 ADD MSTORE PUSH1 0x9 DUP2 ADD SLOAD PUSH2 0x120 DUP6 ADD MSTORE PUSH2 0x11D2 PUSH1 0xA DUP3 ADD PUSH2 0x2087 JUMP JUMPDEST PUSH2 0x140 DUP6 ADD MSTORE PUSH2 0x11E4 PUSH1 0xB DUP3 ADD PUSH2 0x2087 JUMP JUMPDEST PUSH2 0x160 DUP6 ADD MSTORE PUSH2 0x11F6 PUSH1 0xC DUP3 ADD PUSH2 0x2087 JUMP JUMPDEST PUSH2 0x180 DUP6 ADD MSTORE ADD PUSH2 0x2087 JUMP JUMPDEST PUSH2 0x1A0 DUP3 ADD MSTORE PUSH2 0x1360 DUP2 PUSH2 0x1A0 PUSH2 0x134B PUSH2 0x1335 PUSH2 0x131D PUSH2 0x12F9 PUSH2 0x12E1 PUSH2 0x12CA PUSH2 0x12B4 PUSH2 0x129E PUSH2 0x1288 PUSH1 0x40 MLOAD SWAP14 DUP15 SWAP14 DUP15 PUSH1 0x20 DUP2 MSTORE PUSH1 0x40 PUSH2 0x124F DUP4 MLOAD PUSH2 0x1C0 PUSH1 0x20 DUP6 ADD MSTORE PUSH2 0x1E0 DUP5 ADD SWAP1 PUSH2 0x1DCF JUMP JUMPDEST SWAP3 PUSH1 0xFF PUSH1 0x20 DUP3 ADD MLOAD AND DUP3 DUP5 ADD MSTORE ADD MLOAD SWAP1 PUSH1 0x60 PUSH1 0x1F NOT DUP3 DUP6 SUB ADD SWAP2 ADD MSTORE PUSH2 0x1DCF JUMP JUMPDEST DUP14 PUSH1 0x60 DUP14 ADD MLOAD SWAP1 PUSH1 0x80 PUSH1 0x1F NOT DUP3 DUP6 SUB ADD SWAP2 ADD MSTORE PUSH2 0x1DCF JUMP JUMPDEST PUSH1 0x80 DUP12 ADD MLOAD DUP14 DUP3 SUB PUSH1 0x1F NOT ADD PUSH1 0xA0 DUP16 ADD MSTORE PUSH2 0x1DCF JUMP JUMPDEST PUSH1 0xA0 DUP11 ADD MLOAD DUP13 DUP3 SUB PUSH1 0x1F NOT ADD PUSH1 0xC0 DUP15 ADD MSTORE PUSH2 0x1DCF JUMP JUMPDEST PUSH1 0xC0 DUP10 ADD MLOAD DUP12 DUP3 SUB PUSH1 0x1F NOT ADD PUSH1 0xE0 DUP14 ADD MSTORE PUSH2 0x1DCF JUMP JUMPDEST PUSH1 0xE0 DUP9 ADD MLOAD DUP11 DUP3 SUB PUSH1 0x1F NOT ADD PUSH2 0x100 DUP13 ADD MSTORE PUSH2 0x1DCF JUMP JUMPDEST PUSH2 0x100 DUP8 ADD MLOAD DUP10 DUP3 SUB PUSH1 0x1F NOT ADD PUSH2 0x120 DUP12 ADD MSTORE PUSH2 0x1DCF JUMP JUMPDEST PUSH2 0x120 DUP7 ADD MLOAD PUSH2 0x140 DUP10 ADD MSTORE PUSH2 0x140 DUP7 ADD MLOAD PUSH1 0x1F NOT DUP10 DUP4 SUB ADD PUSH2 0x160 DUP11 ADD MSTORE PUSH2 0x1DCF JUMP JUMPDEST PUSH2 0x160 DUP6 ADD MLOAD DUP8 DUP3 SUB PUSH1 0x1F NOT ADD PUSH2 0x180 DUP10 ADD MSTORE PUSH2 0x1DCF JUMP JUMPDEST PUSH2 0x180 DUP5 ADD MLOAD DUP7 DUP3 SUB PUSH1 0x1F NOT ADD DUP5 DUP9 ADD MSTORE PUSH2 0x1DCF JUMP JUMPDEST SWAP2 ADD MLOAD DUP4 DUP3 SUB PUSH1 0x1F NOT ADD PUSH2 0x1C0 DUP6 ADD MSTORE PUSH2 0x1DCF JUMP JUMPDEST SUB SWAP1 RETURN JUMPDEST CALLVALUE PUSH2 0x791 JUMPI PUSH1 0x40 CALLDATASIZE PUSH1 0x3 NOT ADD SLT PUSH2 0x791 JUMPI PUSH1 0x1 PUSH1 0x1 PUSH1 0x40 SHL SUB PUSH1 0x4 CALLDATALOAD DUP2 DUP2 GT PUSH2 0x791 JUMPI PUSH2 0x1395 SWAP1 CALLDATASIZE SWAP1 PUSH1 0x4 ADD PUSH2 0x1D25 JUMP JUMPDEST SWAP1 PUSH1 0x24 CALLDATALOAD SWAP1 DUP2 GT PUSH2 0x791 JUMPI PUSH2 0x434 PUSH2 0x13B4 PUSH2 0x1421 SWAP3 CALLDATASIZE SWAP1 PUSH1 0x4 ADD PUSH2 0x1D25 JUMP JUMPDEST SWAP3 PUSH2 0x13BD PUSH2 0x1E04 JUMP JUMPDEST PUSH1 0x5 PUSH2 0x13F2 PUSH1 0x20 PUSH1 0x40 MLOAD PUSH2 0x13E1 PUSH1 0xFF DUP6 DUP8 MLOAD SWAP4 DUP6 DUP2 DUP2 DUP12 ADD SWAP7 PUSH2 0x255 DUP2 DUP4 DUP11 PUSH2 0x1DAC JUMP JUMPDEST PUSH1 0x40 MLOAD DUP1 SWAP4 DUP2 SWAP3 DUP8 MLOAD SWAP3 DUP4 SWAP2 PUSH2 0x1DAC JUMP JUMPDEST DUP2 ADD PUSH1 0x1 DUP2 MSTORE SUB ADD SWAP1 KECCAK256 ADD PUSH1 0x1 PUSH1 0xFF NOT DUP3 SLOAD AND OR SWAP1 SSTORE PUSH2 0x78C DUP2 PUSH1 0x40 MLOAD PUSH1 0x20 DUP2 DUP9 MLOAD PUSH2 0xC2B DUP2 DUP4 DUP6 DUP14 ADD PUSH2 0x1DAC JUMP JUMPDEST SWAP1 PUSH32 0x7D904E478DF0F515C7058DF56A2295C88F46C97F269F153CB964C1574E4AD9E8 PUSH1 0x0 DUP1 LOG3 STOP JUMPDEST CALLVALUE PUSH2 0x791 JUMPI PUSH1 0xE0 CALLDATASIZE PUSH1 0x3 NOT ADD SLT PUSH2 0x791 JUMPI PUSH1 0x1 PUSH1 0x1 PUSH1 0x40 SHL SUB PUSH1 0x4 CALLDATALOAD DUP2 DUP2 GT PUSH2 0x791 JUMPI PUSH2 0x147A SWAP1 CALLDATASIZE SWAP1 PUSH1 0x4 ADD PUSH2 0x1D25 JUMP JUMPDEST SWAP1 PUSH1 0x24 CALLDATALOAD DUP2 DUP2 GT PUSH2 0x791 JUMPI PUSH2 0x1493 SWAP1 CALLDATASIZE SWAP1 PUSH1 0x4 ADD PUSH2 0x1D25 JUMP JUMPDEST SWAP1 PUSH1 0x44 CALLDATALOAD SWAP2 PUSH1 0x64 CALLDATALOAD DUP3 DUP2 GT PUSH2 0x791 JUMPI PUSH2 0x14B0 SWAP1 CALLDATASIZE SWAP1 PUSH1 0x4 ADD PUSH2 0x1D25 JUMP JUMPDEST SWAP1 PUSH1 0x84 CALLDATALOAD DUP4 DUP2 GT PUSH2 0x791 JUMPI PUSH2 0x14C9 SWAP1 CALLDATASIZE SWAP1 PUSH1 0x4 ADD PUSH2 0x1D25 JUMP JUMPDEST SWAP5 PUSH1 0xA4 CALLDATALOAD DUP5 DUP2 GT PUSH2 0x791 JUMPI PUSH2 0x14E2 SWAP1 CALLDATASIZE SWAP1 PUSH1 0x4 ADD PUSH2 0x1D25 JUMP JUMPDEST PUSH1 0xC4 CALLDATALOAD SWAP5 DUP6 GT PUSH2 0x791 JUMPI DUP6 SWAP5 PUSH2 0x14FC SWAP1 CALLDATASIZE SWAP1 PUSH1 0x4 ADD PUSH2 0x1D25 JUMP JUMPDEST SWAP1 PUSH1 0x40 MLOAD SWAP1 DUP4 MLOAD SWAP1 PUSH1 0x20 SWAP10 DUP11 DUP7 ADD SWAP3 PUSH2 0x1516 DUP2 DUP7 DUP7 PUSH2 0x1DAC JUMP JUMPDEST DUP5 ADD DUP5 DUP13 PUSH1 0x1 SWAP7 DUP4 DUP9 DUP1 SWAP6 MSTORE SUB ADD SWAP1 KECCAK256 ADD DUP10 PUSH1 0x0 MSTORE DUP12 MSTORE DUP7 PUSH1 0x40 PUSH1 0x0 KECCAK256 SWAP1 PUSH2 0x153D SWAP2 PUSH2 0x1F6E JUMP JUMPDEST DUP4 PUSH1 0x40 MLOAD DUP13 DUP2 DUP10 MLOAD PUSH2 0x1550 DUP2 DUP4 DUP11 PUSH2 0x1DAC JUMP JUMPDEST DUP2 ADD DUP5 DUP2 MSTORE SUB ADD SWAP1 KECCAK256 ADD DUP10 PUSH1 0x0 MSTORE DUP12 MSTORE DUP8 PUSH1 0x40 PUSH1 0x0 KECCAK256 PUSH1 0x2 ADD SWAP1 PUSH2 0x1573 SWAP2 PUSH2 0x1F6E JUMP JUMPDEST DUP4 PUSH1 0x40 MLOAD DUP13 DUP2 DUP10 MLOAD PUSH2 0x1586 DUP2 DUP4 DUP11 PUSH2 0x1DAC JUMP JUMPDEST DUP2 ADD DUP5 DUP2 MSTORE SUB ADD SWAP1 KECCAK256 ADD DUP10 PUSH1 0x0 MSTORE DUP12 MSTORE PUSH1 0x40 PUSH1 0x0 KECCAK256 PUSH1 0x7 ADD SWAP1 PUSH2 0x15A8 SWAP2 PUSH2 0x1F6E JUMP JUMPDEST DUP3 PUSH1 0x40 MLOAD DUP12 DUP2 DUP9 MLOAD PUSH2 0x15BB DUP2 DUP4 DUP10 PUSH2 0x1DAC JUMP JUMPDEST DUP2 ADD DUP5 DUP2 MSTORE SUB ADD SWAP1 KECCAK256 ADD DUP9 PUSH1 0x0 MSTORE DUP11 MSTORE PUSH1 0x40 PUSH1 0x0 KECCAK256 PUSH1 0x8 ADD SWAP1 PUSH2 0x15DD SWAP2 PUSH2 0x1F6E JUMP JUMPDEST DUP9 PUSH1 0x40 MLOAD DUP1 DUP1 SWAP4 DUP8 MLOAD DUP1 SWAP3 PUSH2 0x15F1 SWAP3 PUSH2 0x1DAC JUMP JUMPDEST DUP2 ADD DUP5 DUP2 MSTORE SUB ADD SWAP1 KECCAK256 ADD DUP6 PUSH1 0x0 MSTORE DUP8 MSTORE PUSH1 0x40 PUSH1 0x0 KECCAK256 PUSH1 0x9 ADD SWAP1 PUSH2 0x1613 SWAP2 PUSH2 0x1F6E JUMP JUMPDEST PUSH2 0x161C SWAP1 PUSH2 0x2067 JUMP JUMPDEST SWAP2 PUSH1 0x40 MLOAD SWAP2 DUP3 SWAP2 PUSH2 0x162D SWAP2 DUP4 PUSH2 0x212B JUMP JUMPDEST SUB PUSH32 0x5900E70E78483B52BBE5C26FE3EDDC846F885A9FE48EFE16ABCDA778278F4F12 SWAP2 LOG3 PUSH1 0x40 MLOAD SWAP1 DUP2 MSTORE RETURN JUMPDEST CALLVALUE PUSH2 0x791 JUMPI PUSH1 0x20 DUP1 PUSH2 0x16AB PUSH1 0x4 PUSH2 0x166F CALLDATASIZE PUSH2 0x1D7B JUMP JUMPDEST SWAP4 DUP5 SWAP4 SWAP2 PUSH1 0x40 MLOAD SWAP1 DUP6 PUSH1 0x3 DUP3 MLOAD SWAP4 DUP6 DUP2 DUP2 DUP7 ADD SWAP7 PUSH2 0x168E DUP2 DUP4 DUP11 PUSH2 0x1DAC JUMP JUMPDEST DUP2 ADD PUSH1 0x1 DUP2 MSTORE SUB ADD SWAP1 KECCAK256 ADD SSTORE PUSH1 0x40 MLOAD SWAP4 DUP5 SWAP3 DUP4 SWAP3 MLOAD SWAP3 DUP4 SWAP2 PUSH2 0x1DAC JUMP JUMPDEST DUP2 ADD PUSH1 0x1 DUP2 MSTORE SUB ADD SWAP1 KECCAK256 ADD SSTORE PUSH1 0x40 MLOAD SWAP1 DUP2 MSTORE RETURN JUMPDEST CALLVALUE PUSH2 0x791 JUMPI PUSH1 0x20 DUP1 PUSH2 0x16AB PUSH1 0x4 PUSH2 0x16D5 CALLDATASIZE PUSH2 0x1D7B JUMP JUMPDEST SWAP4 DUP5 SWAP4 SWAP2 PUSH1 0x40 MLOAD SWAP1 DUP5 DUP2 MLOAD SWAP3 DUP5 DUP2 DUP2 DUP6 ADD SWAP6 PUSH2 0x16F2 DUP2 DUP4 DUP10 PUSH2 0x1DAC JUMP JUMPDEST DUP2 ADD PUSH1 0x1 DUP2 MSTORE SUB ADD SWAP1 KECCAK256 ADD SLOAD PUSH1 0x3 PUSH1 0x40 MLOAD DUP6 DUP2 DUP6 MLOAD PUSH2 0x168E DUP2 DUP4 DUP11 PUSH2 0x1DAC JUMP JUMPDEST CALLVALUE PUSH2 0x791 JUMPI PUSH1 0x20 PUSH1 0x1 PUSH2 0x1782 PUSH2 0x1727 CALLDATASIZE PUSH2 0x1D7B JUMP JUMPDEST SWAP4 SWAP1 PUSH1 0x60 PUSH2 0x120 PUSH1 0x40 MLOAD PUSH2 0x173A DUP2 PUSH2 0x1CCC JUMP JUMPDEST DUP3 DUP2 MSTORE DUP3 DUP6 DUP3 ADD MSTORE DUP3 PUSH1 0x40 DUP3 ADD MSTORE DUP3 DUP1 DUP3 ADD MSTORE PUSH1 0x0 PUSH1 0x80 DUP3 ADD MSTORE DUP3 PUSH1 0xA0 DUP3 ADD MSTORE DUP3 PUSH1 0xC0 DUP3 ADD MSTORE DUP3 PUSH1 0xE0 DUP3 ADD MSTORE DUP3 PUSH2 0x100 DUP3 ADD MSTORE ADD MSTORE DUP2 PUSH1 0x40 MLOAD SWAP4 DUP3 DUP6 DUP1 SWAP5 MLOAD SWAP4 DUP5 SWAP3 ADD PUSH2 0x1DAC JUMP JUMPDEST DUP2 ADD DUP5 DUP2 MSTORE SUB ADD SWAP1 KECCAK256 ADD SWAP1 PUSH1 0x0 MSTORE PUSH1 0x20 MSTORE PUSH2 0x1360 PUSH1 0x40 PUSH1 0x0 KECCAK256 PUSH2 0x1843 PUSH1 0x9 PUSH1 0x40 MLOAD SWAP3 PUSH2 0x17AD DUP5 PUSH2 0x1CCC JUMP JUMPDEST PUSH2 0x17B6 DUP2 PUSH2 0x2087 JUMP JUMPDEST DUP5 MSTORE PUSH2 0x17C4 PUSH1 0x1 DUP3 ADD PUSH2 0x2087 JUMP JUMPDEST PUSH1 0x20 DUP6 ADD MSTORE PUSH2 0x17D5 PUSH1 0x2 DUP3 ADD PUSH2 0x2087 JUMP JUMPDEST PUSH1 0x40 DUP6 ADD MSTORE PUSH2 0x17E6 PUSH1 0x3 DUP3 ADD PUSH2 0x2087 JUMP JUMPDEST PUSH1 0x60 DUP6 ADD MSTORE PUSH1 0xFF PUSH1 0x4 DUP3 ADD SLOAD AND PUSH1 0x80 DUP6 ADD MSTORE PUSH2 0x1804 PUSH1 0x5 DUP3 ADD PUSH2 0x2087 JUMP JUMPDEST PUSH1 0xA0 DUP6 ADD MSTORE PUSH2 0x1815 PUSH1 0x6 DUP3 ADD PUSH2 0x2087 JUMP JUMPDEST PUSH1 0xC0 DUP6 ADD MSTORE PUSH2 0x1826 PUSH1 0x7 DUP3 ADD PUSH2 0x2087 JUMP JUMPDEST PUSH1 0xE0 DUP6 ADD MSTORE PUSH2 0x1837 PUSH1 0x8 DUP3 ADD PUSH2 0x2087 JUMP JUMPDEST PUSH2 0x100 DUP6 ADD MSTORE ADD PUSH2 0x2087 JUMP JUMPDEST PUSH2 0x120 DUP3 ADD MSTORE PUSH1 0x40 MLOAD SWAP2 DUP3 SWAP2 PUSH1 0x20 DUP4 MSTORE PUSH2 0x120 PUSH2 0x192C PUSH2 0x1916 PUSH2 0x18FF PUSH2 0x18E9 PUSH2 0x18C6 PUSH2 0x18B0 PUSH2 0x189A PUSH2 0x1884 DUP12 PUSH2 0x140 PUSH1 0x20 DUP13 MLOAD SWAP3 ADD MSTORE PUSH2 0x160 DUP14 ADD SWAP1 PUSH2 0x1DCF JUMP JUMPDEST PUSH1 0x20 DUP11 ADD MLOAD DUP13 DUP3 SUB PUSH1 0x1F NOT ADD PUSH1 0x40 DUP15 ADD MSTORE PUSH2 0x1DCF JUMP JUMPDEST PUSH1 0x40 DUP10 ADD MLOAD DUP12 DUP3 SUB PUSH1 0x1F NOT ADD PUSH1 0x60 DUP14 ADD MSTORE PUSH2 0x1DCF JUMP JUMPDEST PUSH1 0x60 DUP9 ADD MLOAD DUP11 DUP3 SUB PUSH1 0x1F NOT ADD PUSH1 0x80 DUP13 ADD MSTORE PUSH2 0x1DCF JUMP JUMPDEST PUSH1 0xFF PUSH1 0x80 DUP9 ADD MLOAD AND PUSH1 0xA0 DUP11 ADD MSTORE PUSH1 0xA0 DUP8 ADD MLOAD PUSH1 0x1F NOT DUP11 DUP4 SUB ADD PUSH1 0xC0 DUP12 ADD MSTORE PUSH2 0x1DCF JUMP JUMPDEST PUSH1 0xC0 DUP7 ADD MLOAD DUP9 DUP3 SUB PUSH1 0x1F NOT ADD PUSH1 0xE0 DUP11 ADD MSTORE PUSH2 0x1DCF JUMP JUMPDEST PUSH1 0xE0 DUP6 ADD MLOAD DUP8 DUP3 SUB PUSH1 0x1F NOT ADD PUSH2 0x100 DUP10 ADD MSTORE PUSH2 0x1DCF JUMP JUMPDEST PUSH2 0x100 DUP5 ADD MLOAD DUP7 DUP3 SUB PUSH1 0x1F NOT ADD DUP5 DUP9 ADD MSTORE PUSH2 0x1DCF JUMP JUMPDEST SWAP2 ADD MLOAD DUP4 DUP3 SUB PUSH1 0x1F NOT ADD PUSH2 0x140 DUP6 ADD MSTORE PUSH2 0x1DCF JUMP JUMPDEST CALLVALUE PUSH2 0x791 JUMPI PUSH1 0xE0 CALLDATASIZE PUSH1 0x3 NOT ADD SLT PUSH2 0x791 JUMPI PUSH1 0x1 PUSH1 0x1 PUSH1 0x40 SHL SUB PUSH1 0x4 CALLDATALOAD DUP2 DUP2 GT PUSH2 0x791 JUMPI PUSH2 0x1972 SWAP1 CALLDATASIZE SWAP1 PUSH1 0x4 ADD PUSH2 0x1D25 JUMP JUMPDEST SWAP1 PUSH1 0x24 CALLDATALOAD DUP2 DUP2 GT PUSH2 0x791 JUMPI PUSH2 0x198B SWAP1 CALLDATASIZE SWAP1 PUSH1 0x4 ADD PUSH2 0x1D25 JUMP JUMPDEST SWAP1 PUSH1 0x44 CALLDATALOAD SWAP2 PUSH1 0x64 CALLDATALOAD DUP3 DUP2 GT PUSH2 0x791 JUMPI PUSH2 0x19A8 SWAP1 CALLDATASIZE SWAP1 PUSH1 0x4 ADD PUSH2 0x1D25 JUMP JUMPDEST SWAP1 PUSH2 0x19B1 PUSH2 0x1DF4 JUMP JUMPDEST SWAP5 PUSH1 0xA4 CALLDATALOAD DUP5 DUP2 GT PUSH2 0x791 JUMPI PUSH2 0x19CA SWAP1 CALLDATASIZE SWAP1 PUSH1 0x4 ADD PUSH2 0x1D25 JUMP JUMPDEST PUSH1 0xC4 CALLDATALOAD SWAP5 DUP6 GT PUSH2 0x791 JUMPI DUP6 SWAP5 PUSH2 0x19E4 SWAP1 CALLDATASIZE SWAP1 PUSH1 0x4 ADD PUSH2 0x1D25 JUMP JUMPDEST SWAP1 PUSH1 0x40 MLOAD SWAP1 DUP4 MLOAD SWAP1 PUSH1 0x20 SWAP10 DUP11 DUP7 ADD SWAP3 PUSH2 0x19FE DUP2 DUP7 DUP7 PUSH2 0x1DAC JUMP JUMPDEST DUP5 ADD DUP5 DUP13 PUSH1 0x1 SWAP7 DUP4 DUP9 DUP1 SWAP6 MSTORE SUB ADD SWAP1 KECCAK256 ADD DUP10 PUSH1 0x0 MSTORE DUP12 MSTORE DUP7 DUP5 PUSH1 0x40 PUSH1 0x0 KECCAK256 ADD SWAP1 PUSH2 0x1A27 SWAP2 PUSH2 0x1F6E JUMP JUMPDEST DUP4 PUSH1 0x40 MLOAD DUP13 DUP2 DUP10 MLOAD PUSH2 0x1A3A DUP2 DUP4 DUP11 PUSH2 0x1DAC JUMP JUMPDEST DUP2 ADD DUP5 DUP2 MSTORE SUB ADD SWAP1 KECCAK256 ADD DUP10 PUSH1 0x0 MSTORE DUP12 MSTORE DUP8 PUSH1 0x40 PUSH1 0x0 KECCAK256 PUSH1 0x3 ADD SWAP1 PUSH2 0x1A5D SWAP2 PUSH2 0x1F6E JUMP JUMPDEST DUP4 PUSH1 0x40 MLOAD DUP13 DUP2 DUP10 MLOAD PUSH2 0x1A70 DUP2 DUP4 DUP11 PUSH2 0x1DAC JUMP JUMPDEST DUP2 ADD DUP5 DUP2 MSTORE SUB ADD SWAP1 KECCAK256 ADD DUP10 PUSH1 0x0 MSTORE DUP12 MSTORE PUSH1 0x40 PUSH1 0x0 KECCAK256 PUSH1 0x4 ADD SWAP1 PUSH1 0xFF AND PUSH1 0xFF NOT DUP3 SLOAD AND OR SWAP1 SSTORE DUP3 PUSH1 0x40 MLOAD DUP12 DUP2 DUP9 MLOAD PUSH2 0x1AA8 DUP2 DUP4 DUP10 PUSH2 0x1DAC JUMP JUMPDEST DUP2 ADD DUP5 DUP2 MSTORE SUB ADD SWAP1 KECCAK256 ADD DUP9 PUSH1 0x0 MSTORE DUP11 MSTORE PUSH1 0x40 PUSH1 0x0 KECCAK256 PUSH1 0x5 ADD SWAP1 PUSH2 0x1ACA SWAP2 PUSH2 0x1F6E JUMP JUMPDEST DUP9 PUSH1 0x40 MLOAD DUP1 DUP1 SWAP4 DUP8 MLOAD DUP1 SWAP3 PUSH2 0x1ADE SWAP3 PUSH2 0x1DAC JUMP JUMPDEST DUP2 ADD DUP5 DUP2 MSTORE SUB ADD SWAP1 KECCAK256 ADD DUP6 PUSH1 0x0 MSTORE DUP8 MSTORE PUSH1 0x40 PUSH1 0x0 KECCAK256 PUSH1 0x6 ADD SWAP1 PUSH2 0x1613 SWAP2 PUSH2 0x1F6E JUMP JUMPDEST CALLVALUE PUSH2 0x791 JUMPI PUSH2 0x1B0E CALLDATASIZE PUSH2 0x1D7B JUMP JUMPDEST PUSH1 0x40 MLOAD SWAP1 PUSH2 0x1B1B DUP3 PUSH2 0x1C9B JUMP JUMPDEST PUSH1 0x60 DUP3 DUP2 DUP1 SWAP5 MSTORE PUSH1 0x20 SWAP5 DUP3 DUP3 DUP8 SWAP5 DUP6 DUP1 SWAP6 ADD MSTORE PUSH1 0x40 DUP2 ADD PUSH1 0x0 SWAP1 MSTORE DUP2 DUP1 DUP3 ADD MSTORE DUP2 PUSH1 0x80 DUP3 ADD MSTORE DUP2 PUSH1 0xA0 DUP3 ADD MSTORE PUSH1 0xC0 ADD MSTORE PUSH1 0x40 MLOAD SWAP3 DUP4 DUP3 DUP2 SWAP4 MLOAD SWAP3 DUP4 SWAP2 ADD SWAP2 PUSH2 0x1B62 SWAP3 PUSH2 0x1DAC JUMP JUMPDEST DUP2 ADD PUSH1 0x1 DUP2 MSTORE SUB ADD SWAP1 KECCAK256 PUSH1 0x2 ADD SWAP1 PUSH1 0x0 MSTORE DUP3 MSTORE PUSH1 0x40 PUSH1 0x0 KECCAK256 PUSH1 0x40 MLOAD SWAP2 PUSH2 0x1B87 DUP4 PUSH2 0x1C9B JUMP JUMPDEST PUSH2 0x1B90 DUP3 PUSH2 0x2087 JUMP JUMPDEST DUP4 MSTORE PUSH2 0x1B9E PUSH1 0x1 DUP4 ADD PUSH2 0x2087 JUMP JUMPDEST SWAP2 DUP5 DUP5 ADD SWAP3 DUP4 MSTORE PUSH1 0x2 DUP2 ADD SLOAD PUSH1 0xFF AND PUSH1 0x40 DUP6 ADD SWAP1 DUP2 MSTORE PUSH1 0x3 DUP3 ADD PUSH2 0x1BC1 SWAP1 PUSH2 0x2087 JUMP JUMPDEST DUP6 DUP5 ADD SWAP1 DUP2 MSTORE SWAP1 PUSH2 0x1BD4 PUSH1 0x4 DUP5 ADD PUSH2 0x2087 JUMP JUMPDEST PUSH1 0x80 DUP8 ADD SWAP1 DUP2 MSTORE SWAP2 PUSH2 0x1BE8 PUSH1 0x5 DUP6 ADD PUSH2 0x2087 JUMP JUMPDEST SWAP4 PUSH1 0xA0 DUP9 ADD SWAP5 DUP6 MSTORE PUSH1 0x6 ADD PUSH2 0x1BFC SWAP1 PUSH2 0x2087 JUMP JUMPDEST SWAP5 PUSH1 0xC0 DUP9 ADD SWAP6 DUP7 MSTORE PUSH1 0x40 MLOAD SWAP9 DUP10 SWAP9 DUP2 DUP11 MSTORE MLOAD SWAP1 DUP10 ADD PUSH1 0xE0 SWAP1 MSTORE PUSH2 0x100 DUP10 ADD PUSH2 0x1C23 SWAP2 PUSH2 0x1DCF JUMP JUMPDEST SWAP7 MLOAD PUSH1 0x1F NOT SWAP8 DUP9 DUP11 DUP3 SUB ADD PUSH1 0x40 DUP12 ADD MSTORE PUSH2 0x1C3C SWAP2 PUSH2 0x1DCF JUMP JUMPDEST SWAP3 MLOAD PUSH1 0xFF AND SWAP1 DUP9 ADD MSTORE MLOAD SWAP1 DUP6 DUP8 DUP3 SUB ADD PUSH1 0x80 DUP9 ADD MSTORE PUSH2 0x1C5A SWAP2 PUSH2 0x1DCF JUMP JUMPDEST SWAP1 MLOAD SWAP1 DUP5 DUP7 DUP3 SUB ADD PUSH1 0xA0 DUP8 ADD MSTORE PUSH2 0x1C70 SWAP2 PUSH2 0x1DCF JUMP JUMPDEST SWAP1 MLOAD SWAP1 DUP4 DUP6 DUP3 SUB ADD PUSH1 0xC0 DUP7 ADD MSTORE PUSH2 0x1C86 SWAP2 PUSH2 0x1DCF JUMP JUMPDEST SWAP1 MLOAD SWAP2 DUP4 DUP3 SUB ADD PUSH1 0xE0 DUP5 ADD MSTORE PUSH2 0x1360 SWAP2 PUSH2 0x1DCF JUMP JUMPDEST PUSH1 0xE0 DUP2 ADD SWAP1 DUP2 LT PUSH1 0x1 PUSH1 0x1 PUSH1 0x40 SHL SUB DUP3 GT OR PUSH2 0x1CB6 JUMPI PUSH1 0x40 MSTORE JUMP JUMPDEST PUSH4 0x4E487B71 PUSH1 0xE0 SHL PUSH1 0x0 MSTORE PUSH1 0x41 PUSH1 0x4 MSTORE PUSH1 0x24 PUSH1 0x0 REVERT JUMPDEST PUSH2 0x140 DUP2 ADD SWAP1 DUP2 LT PUSH1 0x1 PUSH1 0x1 PUSH1 0x40 SHL SUB DUP3 GT OR PUSH2 0x1CB6 JUMPI PUSH1 0x40 MSTORE JUMP JUMPDEST PUSH2 0x1C0 DUP2 ADD SWAP1 DUP2 LT PUSH1 0x1 PUSH1 0x1 PUSH1 0x40 SHL SUB DUP3 GT OR PUSH2 0x1CB6 JUMPI PUSH1 0x40 MSTORE JUMP JUMPDEST SWAP1 PUSH1 0x1F DUP1 NOT SWAP2 ADD AND DUP2 ADD SWAP1 DUP2 LT PUSH1 0x1 PUSH1 0x1 PUSH1 0x40 SHL SUB DUP3 GT OR PUSH2 0x1CB6 JUMPI PUSH1 0x40 MSTORE JUMP JUMPDEST DUP2 PUSH1 0x1F DUP3 ADD SLT ISZERO PUSH2 0x791 JUMPI DUP1 CALLDATALOAD SWAP1 PUSH1 0x1 PUSH1 0x1 PUSH1 0x40 SHL SUB DUP3 GT PUSH2 0x1CB6 JUMPI PUSH1 0x40 MLOAD SWAP3 PUSH2 0x1D59 PUSH1 0x1F DUP5 ADD PUSH1 0x1F NOT AND PUSH1 0x20 ADD DUP6 PUSH2 0x1D04 JUMP JUMPDEST DUP3 DUP5 MSTORE PUSH1 0x20 DUP4 DUP4 ADD ADD GT PUSH2 0x791 JUMPI DUP2 PUSH1 0x0 SWAP3 PUSH1 0x20 DUP1 SWAP4 ADD DUP4 DUP7 ADD CALLDATACOPY DUP4 ADD ADD MSTORE SWAP1 JUMP JUMPDEST PUSH1 0x40 PUSH1 0x3 NOT DUP3 ADD SLT PUSH2 0x791 JUMPI PUSH1 0x4 CALLDATALOAD SWAP1 PUSH1 0x1 PUSH1 0x1 PUSH1 0x40 SHL SUB DUP3 GT PUSH2 0x791 JUMPI PUSH2 0x1DA5 SWAP2 PUSH1 0x4 ADD PUSH2 0x1D25 JUMP JUMPDEST SWAP1 PUSH1 0x24 CALLDATALOAD SWAP1 JUMP JUMPDEST PUSH1 0x0 JUMPDEST DUP4 DUP2 LT PUSH2 0x1DBF JUMPI POP POP PUSH1 0x0 SWAP2 ADD MSTORE JUMP JUMPDEST DUP2 DUP2 ADD MLOAD DUP4 DUP3 ADD MSTORE PUSH1 0x20 ADD PUSH2 0x1DAF JUMP JUMPDEST SWAP1 PUSH1 0x20 SWAP2 PUSH2 0x1DE8 DUP2 MLOAD DUP1 SWAP3 DUP2 DUP6 MSTORE DUP6 DUP1 DUP7 ADD SWAP2 ADD PUSH2 0x1DAC JUMP JUMPDEST PUSH1 0x1F ADD PUSH1 0x1F NOT AND ADD ADD SWAP1 JUMP JUMPDEST PUSH1 0x84 CALLDATALOAD SWAP1 PUSH1 0xFF DUP3 AND DUP3 SUB PUSH2 0x791 JUMPI JUMP JUMPDEST PUSH1 0x0 SLOAD PUSH1 0x1 PUSH1 0x1 PUSH1 0xA0 SHL SUB AND CALLER SUB PUSH2 0x1E18 JUMPI JUMP JUMPDEST PUSH1 0x64 PUSH1 0x40 MLOAD PUSH3 0x461BCD PUSH1 0xE5 SHL DUP2 MSTORE PUSH1 0x20 PUSH1 0x4 DUP3 ADD MSTORE PUSH1 0x20 PUSH1 0x24 DUP3 ADD MSTORE PUSH32 0x4F776E61626C653A2063616C6C6572206973206E6F7420746865206F776E6572 PUSH1 0x44 DUP3 ADD MSTORE REVERT JUMPDEST ISZERO PUSH2 0x1E63 JUMPI JUMP JUMPDEST PUSH1 0x40 MLOAD PUSH3 0x461BCD PUSH1 0xE5 SHL DUP2 MSTORE PUSH1 0x20 PUSH1 0x4 DUP3 ADD MSTORE PUSH1 0x19 PUSH1 0x24 DUP3 ADD MSTORE PUSH32 0x547572746C6520616C7265616479207265676973746572656400000000000000 PUSH1 0x44 DUP3 ADD MSTORE PUSH1 0x64 SWAP1 REVERT JUMPDEST DUP1 SLOAD DUP3 LT ISZERO PUSH2 0x1EC0 JUMPI PUSH1 0x0 MSTORE PUSH1 0x20 PUSH1 0x0 KECCAK256 ADD SWAP1 PUSH1 0x0 SWAP1 JUMP JUMPDEST PUSH4 0x4E487B71 PUSH1 0xE0 SHL PUSH1 0x0 MSTORE PUSH1 0x32 PUSH1 0x4 MSTORE PUSH1 0x24 PUSH1 0x0 REVERT JUMPDEST SWAP1 PUSH1 0x1 DUP3 DUP2 SHR SWAP3 AND DUP1 ISZERO PUSH2 0x1F06 JUMPI JUMPDEST PUSH1 0x20 DUP4 LT EQ PUSH2 0x1EF0 JUMPI JUMP JUMPDEST PUSH4 0x4E487B71 PUSH1 0xE0 SHL PUSH1 0x0 MSTORE PUSH1 0x22 PUSH1 0x4 MSTORE PUSH1 0x24 PUSH1 0x0 REVERT JUMPDEST SWAP2 PUSH1 0x7F AND SWAP2 PUSH2 0x1EE5 JUMP JUMPDEST DUP2 DUP2 LT PUSH2 0x1F1B JUMPI POP POP JUMP JUMPDEST PUSH1 0x0 DUP2 SSTORE PUSH1 0x1 ADD PUSH2 0x1F10 JUMP JUMPDEST SWAP2 SWAP1 PUSH1 0x1F DUP2 GT PUSH2 0x1F36 JUMPI POP POP POP JUMP JUMPDEST PUSH2 0x1F62 SWAP3 PUSH1 0x0 MSTORE PUSH1 0x20 PUSH1 0x0 KECCAK256 SWAP1 PUSH1 0x20 PUSH1 0x1F DUP5 ADD PUSH1 0x5 SHR DUP4 ADD SWAP4 LT PUSH2 0x1F64 JUMPI JUMPDEST PUSH1 0x1F ADD PUSH1 0x5 SHR ADD SWAP1 PUSH2 0x1F10 JUMP JUMPDEST JUMP JUMPDEST SWAP1 SWAP2 POP DUP2 SWAP1 PUSH2 0x1F55 JUMP JUMPDEST SWAP2 SWAP1 SWAP2 DUP3 MLOAD PUSH1 0x1 PUSH1 0x1 PUSH1 0x40 SHL SUB DUP2 GT PUSH2 0x1CB6 JUMPI PUSH2 0x1F95 DUP2 PUSH2 0x1F8F DUP5 SLOAD PUSH2 0x1ED6 JUMP JUMPDEST DUP5 PUSH2 0x1F27 JUMP JUMPDEST PUSH1 0x20 DUP1 PUSH1 0x1F DUP4 GT PUSH1 0x1 EQ PUSH2 0x1FD1 JUMPI POP DUP2 SWAP3 SWAP4 SWAP5 PUSH1 0x0 SWAP3 PUSH2 0x1FC6 JUMPI JUMPDEST POP POP DUP2 PUSH1 0x1 SHL SWAP2 PUSH1 0x0 NOT SWAP1 PUSH1 0x3 SHL SHR NOT AND OR SWAP1 SSTORE JUMP JUMPDEST ADD MLOAD SWAP1 POP CODESIZE DUP1 PUSH2 0x1FB0 JUMP JUMPDEST SWAP1 PUSH1 0x1F NOT DUP4 AND SWAP6 DUP5 PUSH1 0x0 MSTORE DUP3 PUSH1 0x0 KECCAK256 SWAP3 PUSH1 0x0 SWAP1 JUMPDEST DUP9 DUP3 LT PUSH2 0x201D JUMPI POP POP DUP4 PUSH1 0x1 SWAP6 SWAP7 SWAP8 LT PUSH2 0x2004 JUMPI JUMPDEST POP POP POP DUP2 SHL ADD SWAP1 SSTORE JUMP JUMPDEST ADD MLOAD PUSH1 0x0 NOT PUSH1 0xF8 DUP5 PUSH1 0x3 SHL AND SHR NOT AND SWAP1 SSTORE CODESIZE DUP1 DUP1 PUSH2 0x1FFA JUMP JUMPDEST DUP1 PUSH1 0x1 DUP6 SWAP7 DUP3 SWAP5 SWAP7 DUP7 ADD MLOAD DUP2 SSTORE ADD SWAP6 ADD SWAP4 ADD SWAP1 PUSH2 0x1FE5 JUMP JUMPDEST DUP1 SLOAD PUSH9 0x10000000000000000 DUP2 LT ISZERO PUSH2 0x1CB6 JUMPI PUSH2 0x2057 SWAP2 PUSH1 0x1 DUP3 ADD DUP2 SSTORE PUSH2 0x1EA8 JUMP JUMPDEST SWAP2 SWAP1 SWAP2 PUSH2 0xBC2 JUMPI PUSH2 0x1F62 SWAP2 PUSH2 0x1F6E JUMP JUMPDEST PUSH2 0x207F SWAP1 PUSH1 0x20 PUSH1 0x40 MLOAD SWAP3 DUP3 DUP5 DUP1 SWAP5 MLOAD SWAP4 DUP5 SWAP3 ADD PUSH2 0x1DAC JUMP JUMPDEST DUP2 ADD SUB SWAP1 KECCAK256 SWAP1 JUMP JUMPDEST SWAP1 PUSH1 0x40 MLOAD SWAP2 DUP3 PUSH1 0x0 DUP3 SLOAD SWAP3 PUSH2 0x209B DUP5 PUSH2 0x1ED6 JUMP JUMPDEST SWAP1 DUP2 DUP5 MSTORE PUSH1 0x1 SWAP5 DUP6 DUP2 AND SWAP1 DUP2 PUSH1 0x0 EQ PUSH2 0x2108 JUMPI POP PUSH1 0x1 EQ PUSH2 0x20C5 JUMPI JUMPDEST POP POP PUSH2 0x1F62 SWAP3 POP SUB DUP4 PUSH2 0x1D04 JUMP JUMPDEST SWAP1 SWAP4 SWAP2 POP PUSH1 0x0 MSTORE PUSH1 0x20 SWAP1 DUP2 PUSH1 0x0 KECCAK256 SWAP4 PUSH1 0x0 SWAP2 JUMPDEST DUP2 DUP4 LT PUSH2 0x20F0 JUMPI POP POP PUSH2 0x1F62 SWAP4 POP DUP3 ADD ADD CODESIZE DUP1 PUSH2 0x20B7 JUMP JUMPDEST DUP6 SLOAD DUP9 DUP5 ADD DUP6 ADD MSTORE SWAP5 DUP6 ADD SWAP5 DUP8 SWAP5 POP SWAP2 DUP4 ADD SWAP2 PUSH2 0x20D8 JUMP JUMPDEST SWAP2 POP POP PUSH2 0x1F62 SWAP5 POP PUSH1 0x20 SWAP3 POP PUSH1 0xFF NOT AND DUP3 DUP5 ADD MSTORE ISZERO ISZERO PUSH1 0x5 SHL DUP3 ADD ADD CODESIZE DUP1 PUSH2 0x20B7 JUMP JUMPDEST SWAP1 SWAP2 PUSH2 0x2142 PUSH2 0x2150 SWAP4 PUSH1 0x40 DUP5 MSTORE PUSH1 0x40 DUP5 ADD SWAP1 PUSH2 0x1DCF JUMP JUMPDEST SWAP2 PUSH1 0x20 DUP2 DUP5 SUB SWAP2 ADD MSTORE PUSH2 0x1DCF JUMP JUMPDEST SWAP1 JUMP JUMPDEST PUSH1 0x0 NOT DUP2 EQ PUSH2 0xBEE JUMPI PUSH1 0x1 ADD SWAP1 JUMP JUMPDEST PUSH1 0x0 SWAP3 SWAP2 DUP2 SLOAD PUSH2 0x2171 DUP2 PUSH2 0x1ED6 JUMP JUMPDEST SWAP3 PUSH1 0x1 SWAP2 DUP1 DUP4 AND SWAP1 DUP2 ISZERO PUSH2 0x21CA JUMPI POP PUSH1 0x1 EQ PUSH2 0x218E JUMPI JUMPDEST POP POP POP POP JUMP JUMPDEST SWAP1 SWAP2 SWAP3 SWAP4 SWAP5 POP PUSH1 0x0 MSTORE PUSH1 0x20 SWAP1 DUP2 PUSH1 0x0 KECCAK256 SWAP1 PUSH1 0x0 SWAP2 JUMPDEST DUP6 DUP4 LT PUSH2 0x21B9 JUMPI POP POP POP POP ADD SWAP1 CODESIZE DUP1 DUP1 DUP1 PUSH2 0x2188 JUMP JUMPDEST DUP1 SLOAD DUP6 DUP5 ADD MSTORE SWAP2 DUP4 ADD SWAP2 DUP2 ADD PUSH2 0x21A3 JUMP JUMPDEST PUSH1 0xFF NOT AND DUP5 MSTORE POP POP POP DUP2 ISZERO ISZERO SWAP1 SWAP2 MUL ADD SWAP2 POP CODESIZE DUP1 DUP1 DUP1 PUSH2 0x2188 JUMP JUMPDEST SWAP1 DUP1 DUP3 EQ PUSH2 0x22BD JUMPI PUSH2 0x21F7 DUP2 SLOAD PUSH2 0x1ED6 JUMP JUMPDEST SWAP1 PUSH1 0x1 PUSH1 0x1 PUSH1 0x40 SHL SUB DUP3 GT PUSH2 0x1CB6 JUMPI DUP2 SWAP1 PUSH2 0x221C DUP3 PUSH2 0x2216 DUP7 SLOAD PUSH2 0x1ED6 JUMP JUMPDEST DUP7 PUSH2 0x1F27 JUMP JUMPDEST PUSH1 0x0 SWAP1 PUSH1 0x1F DUP4 GT PUSH1 0x1 EQ PUSH2 0x2252 JUMPI PUSH1 0x0 SWAP3 PUSH2 0x2247 JUMPI POP POP DUP2 PUSH1 0x1 SHL SWAP2 PUSH1 0x0 NOT SWAP1 PUSH1 0x3 SHL SHR NOT AND OR SWAP1 SSTORE JUMP JUMPDEST ADD SLOAD SWAP1 POP CODESIZE DUP1 PUSH2 0x1FB0 JUMP JUMPDEST DUP2 MSTORE PUSH1 0x20 DUP1 DUP3 KECCAK256 DUP6 DUP4 MSTORE DUP2 DUP4 KECCAK256 SWAP4 POP SWAP1 PUSH1 0x1F NOT DUP6 AND SWAP1 DUP4 SWAP1 JUMPDEST DUP3 DUP3 LT PUSH2 0x22A4 JUMPI POP POP SWAP1 DUP5 PUSH1 0x1 SWAP6 SWAP5 SWAP4 SWAP3 LT PUSH2 0x228B JUMPI POP POP POP DUP2 SHL ADD SWAP1 SSTORE JUMP JUMPDEST ADD SLOAD PUSH1 0x0 NOT PUSH1 0xF8 DUP5 PUSH1 0x3 SHL AND SHR NOT AND SWAP1 SSTORE CODESIZE DUP1 DUP1 PUSH2 0x1FFA JUMP JUMPDEST DUP5 SWAP6 DUP2 SWAP3 SWAP6 DUP6 ADD SLOAD DUP2 SSTORE PUSH1 0x1 DUP1 SWAP2 ADD SWAP7 ADD SWAP5 ADD SWAP1 PUSH2 0x226B JUMP JUMPDEST POP POP JUMP INVALID LOG2 PUSH5 0x6970667358 0x22 SLT KECCAK256 EXP 0xAA 0xE3 0xE1 0x5E DIV RETURNDATASIZE SWAP5 TIMESTAMP 0xB5 0xBA RETURNDATACOPY SWAP3 CALLVALUE 0x2A 0x4B SIGNEXTEND MLOAD LOG2 JUMP PUSH31 0x300AFAC5B9B597081687FD64736F6C63430008120033000000000000000000 "
		},
		"gasEstimates": {
			"creation": {
				"codeDepositCost": "1790200",
				"executionCost": "27674",
				"totalCost": "1817874"
			},
			"external": {
				"approveMultiplicationDocByReviewer(string,bytes32)": "infinite",
				"approveTransferDocByReviewer(string,bytes32)": "infinite",
				"changeTurtleOwner(string,string,string)": "infinite",
				"owner()": "2494",
				"registerTurtle(string,string)": "infinite",
				"registerTurtleAssigneeDocument(string,string,bytes32,string,uint8,string,string)": "infinite",
				"registerTurtleDeathDocument(string,string,bytes32,string,uint8,string,string,string,string)": "infinite",
				"registerTurtleGrantorDocument(string,string,bytes32,string,string,string,string)": "infinite",
				"registerTurtleMultiplicationDocument(string,string,bytes32,uint8,string,string,string,string,string,string,string,uint256,string,string,string,string)": "infinite",
				"renounceOwnership()": "28244",
				"searchCurrentDocumentHash(string)": "infinite",
				"searchTurtleDeathDocument(string,bytes32)": "infinite",
				"searchTurtleMultiplicationDocument(string,bytes32)": "infinite",
				"searchTurtleTransferDocument(string,bytes32)": "infinite",
				"transferOwnership(address)": "28363"
			}
		},
		"methodIdentifiers": {
			"approveMultiplicationDocByReviewer(string,bytes32)": "482346bd",
			"approveTransferDocByReviewer(string,bytes32)": "229aa914",
			"changeTurtleOwner(string,string,string)": "ce5f0b7d",
			"owner()": "8da5cb5b",
			"registerTurtle(string,string)": "5c493eaa",
			"registerTurtleAssigneeDocument(string,string,bytes32,string,uint8,string,string)": "18e1a28a",
			"registerTurtleDeathDocument(string,string,bytes32,string,uint8,string,string,string,string)": "6c1dcaf8",
			"registerTurtleGrantorDocument(string,string,bytes32,string,string,string,string)": "596c442a",
			"registerTurtleMultiplicationDocument(string,string,bytes32,uint8,string,string,string,string,string,string,string,uint256,string,string,string,string)": "ff39b1ae",
			"renounceOwnership()": "715018a6",
			"searchCurrentDocumentHash(string)": "f3cb197d",
			"searchTurtleDeathDocument(string,bytes32)": "17aa1f48",
			"searchTurtleMultiplicationDocument(string,bytes32)": "673ae4c1",
			"searchTurtleTransferDocument(string,bytes32)": "1a0642ef",
			"transferOwnership(address)": "f2fde38b"
		}
	},
	"abi": [
		{
			"anonymous": false,
			"inputs": [
				{
					"indexed": true,
					"internalType": "string",
					"name": "turtleId",
					"type": "string"
				},
				{
					"indexed": true,
					"internalType": "bytes32",
					"name": "documentHash",
					"type": "bytes32"
				}
			],
			"name": "CurrentTurtleDocument",
			"type": "event"
		},
		{
			"anonymous": false,
			"inputs": [
				{
					"indexed": true,
					"internalType": "address",
					"name": "previousOwner",
					"type": "address"
				},
				{
					"indexed": true,
					"internalType": "address",
					"name": "newOwner",
					"type": "address"
				}
			],
			"name": "OwnershipTransferred",
			"type": "event"
		},
		{
			"anonymous": false,
			"inputs": [
				{
					"indexed": true,
					"internalType": "string",
					"name": "turtleId",
					"type": "string"
				},
				{
					"indexed": true,
					"internalType": "string",
					"name": "applicant",
					"type": "string"
				},
				{
					"indexed": true,
					"internalType": "bytes32",
					"name": "documentHash",
					"type": "bytes32"
				}
			],
			"name": "TurtleDeath",
			"type": "event"
		},
		{
			"anonymous": false,
			"inputs": [
				{
					"indexed": true,
					"internalType": "string",
					"name": "turtleId",
					"type": "string"
				},
				{
					"indexed": true,
					"internalType": "string",
					"name": "applicant",
					"type": "string"
				},
				{
					"indexed": true,
					"internalType": "bytes32",
					"name": "documentHash",
					"type": "bytes32"
				}
			],
			"name": "TurtleMultiplication",
			"type": "event"
		},
		{
			"anonymous": false,
			"inputs": [
				{
					"indexed": true,
					"internalType": "string",
					"name": "turtleId",
					"type": "string"
				},
				{
					"indexed": true,
					"internalType": "string",
					"name": "oldOwner",
					"type": "string"
				},
				{
					"indexed": true,
					"internalType": "string",
					"name": "newOwner",
					"type": "string"
				}
			],
			"name": "TurtleOwnerChanged",
			"type": "event"
		},
		{
			"anonymous": false,
			"inputs": [
				{
					"indexed": true,
					"internalType": "string",
					"name": "turtleId",
					"type": "string"
				},
				{
					"indexed": true,
					"internalType": "string",
					"name": "applicant",
					"type": "string"
				}
			],
			"name": "TurtleRegistered",
			"type": "event"
		},
		{
			"anonymous": false,
			"inputs": [
				{
					"indexed": true,
					"internalType": "string",
					"name": "turtleId",
					"type": "string"
				},
				{
					"indexed": false,
					"internalType": "string",
					"name": "grantApplicant",
					"type": "string"
				},
				{
					"indexed": false,
					"internalType": "string",
					"name": "assignApplicant",
					"type": "string"
				},
				{
					"indexed": true,
					"internalType": "bytes32",
					"name": "documentHash",
					"type": "bytes32"
				}
			],
			"name": "TurtleTransferred",
			"type": "event"
		},
		{
			"inputs": [
				{
					"internalType": "string",
					"name": "_turtleId",
					"type": "string"
				},
				{
					"internalType": "bytes32",
					"name": "_documentHash",
					"type": "bytes32"
				}
			],
			"name": "approveMultiplicationDocByReviewer",
			"outputs": [
				{
					"internalType": "bytes32",
					"name": "",
					"type": "bytes32"
				}
			],
			"stateMutability": "nonpayable",
			"type": "function"
		},
		{
			"inputs": [
				{
					"internalType": "string",
					"name": "_turtleId",
					"type": "string"
				},
				{
					"internalType": "bytes32",
					"name": "_documentHash",
					"type": "bytes32"
				}
			],
			"name": "approveTransferDocByReviewer",
			"outputs": [
				{
					"internalType": "bytes32",
					"name": "",
					"type": "bytes32"
				}
			],
			"stateMutability": "nonpayable",
			"type": "function"
		},
		{
			"inputs": [
				{
					"internalType": "string",
					"name": "_turtleId",
					"type": "string"
				},
				{
					"internalType": "string",
					"name": "_oldOwner",
					"type": "string"
				},
				{
					"internalType": "string",
					"name": "_newOwner",
					"type": "string"
				}
			],
			"name": "changeTurtleOwner",
			"outputs": [],
			"stateMutability": "nonpayable",
			"type": "function"
		},
		{
			"inputs": [],
			"name": "owner",
			"outputs": [
				{
					"internalType": "address",
					"name": "",
					"type": "address"
				}
			],
			"stateMutability": "view",
			"type": "function"
		},
		{
			"inputs": [
				{
					"internalType": "string",
					"name": "_turtleId",
					"type": "string"
				},
				{
					"internalType": "string",
					"name": "_applicant",
					"type": "string"
				}
			],
			"name": "registerTurtle",
			"outputs": [],
			"stateMutability": "nonpayable",
			"type": "function"
		},
		{
			"inputs": [
				{
					"internalType": "string",
					"name": "_turtleId",
					"type": "string"
				},
				{
					"internalType": "string",
					"name": "_applicant",
					"type": "string"
				},
				{
					"internalType": "bytes32",
					"name": "_documentHash",
					"type": "bytes32"
				},
				{
					"internalType": "string",
					"name": "_assigneeId",
					"type": "string"
				},
				{
					"internalType": "uint8",
					"name": "_count",
					"type": "uint8"
				},
				{
					"internalType": "string",
					"name": "_transferReason",
					"type": "string"
				},
				{
					"internalType": "string",
					"name": "_purpose",
					"type": "string"
				}
			],
			"name": "registerTurtleAssigneeDocument",
			"outputs": [
				{
					"internalType": "bytes32",
					"name": "",
					"type": "bytes32"
				}
			],
			"stateMutability": "nonpayable",
			"type": "function"
		},
		{
			"inputs": [
				{
					"internalType": "string",
					"name": "_turtleId",
					"type": "string"
				},
				{
					"internalType": "string",
					"name": "_applicant",
					"type": "string"
				},
				{
					"internalType": "bytes32",
					"name": "_documentHash",
					"type": "bytes32"
				},
				{
					"internalType": "string",
					"name": "_shelter",
					"type": "string"
				},
				{
					"internalType": "uint8",
					"name": "_count",
					"type": "uint8"
				},
				{
					"internalType": "string",
					"name": "_deathReason",
					"type": "string"
				},
				{
					"internalType": "string",
					"name": "_plan",
					"type": "string"
				},
				{
					"internalType": "string",
					"name": "_deathImage",
					"type": "string"
				},
				{
					"internalType": "string",
					"name": "_diagnosis",
					"type": "string"
				}
			],
			"name": "registerTurtleDeathDocument",
			"outputs": [
				{
					"internalType": "bytes32",
					"name": "",
					"type": "bytes32"
				}
			],
			"stateMutability": "nonpayable",
			"type": "function"
		},
		{
			"inputs": [
				{
					"internalType": "string",
					"name": "_turtleId",
					"type": "string"
				},
				{
					"internalType": "string",
					"name": "_applicant",
					"type": "string"
				},
				{
					"internalType": "bytes32",
					"name": "_documentHash",
					"type": "bytes32"
				},
				{
					"internalType": "string",
					"name": "_grantorId",
					"type": "string"
				},
				{
					"internalType": "string",
					"name": "_aquisition",
					"type": "string"
				},
				{
					"internalType": "string",
					"name": "_fatherId",
					"type": "string"
				},
				{
					"internalType": "string",
					"name": "_motherId",
					"type": "string"
				}
			],
			"name": "registerTurtleGrantorDocument",
			"outputs": [
				{
					"internalType": "bytes32",
					"name": "",
					"type": "bytes32"
				}
			],
			"stateMutability": "nonpayable",
			"type": "function"
		},
		{
			"inputs": [
				{
					"internalType": "string",
					"name": "_turtleId",
					"type": "string"
				},
				{
					"internalType": "string",
					"name": "_applicant",
					"type": "string"
				},
				{
					"internalType": "bytes32",
					"name": "_documentHash",
					"type": "bytes32"
				},
				{
					"internalType": "uint8",
					"name": "_count",
					"type": "uint8"
				},
				{
					"internalType": "string",
					"name": "_area",
					"type": "string"
				},
				{
					"internalType": "string",
					"name": "_purpose",
					"type": "string"
				},
				{
					"internalType": "string",
					"name": "_location",
					"type": "string"
				},
				{
					"internalType": "string",
					"name": "_fatherId",
					"type": "string"
				},
				{
					"internalType": "string",
					"name": "_motherId",
					"type": "string"
				},
				{
					"internalType": "string",
					"name": "_birth",
					"type": "string"
				},
				{
					"internalType": "string",
					"name": "_name",
					"type": "string"
				},
				{
					"internalType": "uint256",
					"name": "_weight",
					"type": "uint256"
				},
				{
					"internalType": "string",
					"name": "_gender",
					"type": "string"
				},
				{
					"internalType": "string",
					"name": "_locationSpecification",
					"type": "string"
				},
				{
					"internalType": "string",
					"name": "_multiplicationMethod",
					"type": "string"
				},
				{
					"internalType": "string",
					"name": "_shelterSpecification",
					"type": "string"
				}
			],
			"name": "registerTurtleMultiplicationDocument",
			"outputs": [
				{
					"internalType": "bytes32",
					"name": "",
					"type": "bytes32"
				}
			],
			"stateMutability": "nonpayable",
			"type": "function"
		},
		{
			"inputs": [],
			"name": "renounceOwnership",
			"outputs": [],
			"stateMutability": "nonpayable",
			"type": "function"
		},
		{
			"inputs": [
				{
					"internalType": "string",
					"name": "_turtleId",
					"type": "string"
				}
			],
			"name": "searchCurrentDocumentHash",
			"outputs": [
				{
					"internalType": "bytes32",
					"name": "",
					"type": "bytes32"
				}
			],
			"stateMutability": "nonpayable",
			"type": "function"
		},
		{
			"inputs": [
				{
					"internalType": "string",
					"name": "_turtleId",
					"type": "string"
				},
				{
					"internalType": "bytes32",
					"name": "_documentHash",
					"type": "bytes32"
				}
			],
			"name": "searchTurtleDeathDocument",
			"outputs": [
				{
					"components": [
						{
							"internalType": "string",
							"name": "applicant",
							"type": "string"
						},
						{
							"internalType": "string",
							"name": "shelter",
							"type": "string"
						},
						{
							"internalType": "uint8",
							"name": "count",
							"type": "uint8"
						},
						{
							"internalType": "string",
							"name": "deathReason",
							"type": "string"
						},
						{
							"internalType": "string",
							"name": "plan",
							"type": "string"
						},
						{
							"internalType": "string",
							"name": "deathImage",
							"type": "string"
						},
						{
							"internalType": "string",
							"name": "diagnosis",
							"type": "string"
						}
					],
					"internalType": "struct TurtleDocumentation.Death",
					"name": "",
					"type": "tuple"
				}
			],
			"stateMutability": "view",
			"type": "function"
		},
		{
			"inputs": [
				{
					"internalType": "string",
					"name": "_turtleId",
					"type": "string"
				},
				{
					"internalType": "bytes32",
					"name": "_documentHash",
					"type": "bytes32"
				}
			],
			"name": "searchTurtleMultiplicationDocument",
			"outputs": [
				{
					"components": [
						{
							"internalType": "string",
							"name": "applicant",
							"type": "string"
						},
						{
							"internalType": "uint8",
							"name": "count",
							"type": "uint8"
						},
						{
							"internalType": "string",
							"name": "area",
							"type": "string"
						},
						{
							"internalType": "string",
							"name": "purpose",
							"type": "string"
						},
						{
							"internalType": "string",
							"name": "location",
							"type": "string"
						},
						{
							"internalType": "string",
							"name": "fatherId",
							"type": "string"
						},
						{
							"internalType": "string",
							"name": "motherId",
							"type": "string"
						},
						{
							"internalType": "string",
							"name": "birth",
							"type": "string"
						},
						{
							"internalType": "string",
							"name": "name",
							"type": "string"
						},
						{
							"internalType": "uint256",
							"name": "weight",
							"type": "uint256"
						},
						{
							"internalType": "string",
							"name": "gender",
							"type": "string"
						},
						{
							"internalType": "string",
							"name": "locationSpecification",
							"type": "string"
						},
						{
							"internalType": "string",
							"name": "multiplicationMethod",
							"type": "string"
						},
						{
							"internalType": "string",
							"name": "shelterSpecification",
							"type": "string"
						}
					],
					"internalType": "struct TurtleDocumentation.Multiplication",
					"name": "",
					"type": "tuple"
				}
			],
			"stateMutability": "view",
			"type": "function"
		},
		{
			"inputs": [
				{
					"internalType": "string",
					"name": "_turtleId",
					"type": "string"
				},
				{
					"internalType": "bytes32",
					"name": "_documentHash",
					"type": "bytes32"
				}
			],
			"name": "searchTurtleTransferDocument",
			"outputs": [
				{
					"components": [
						{
							"internalType": "string",
							"name": "grantApplicant",
							"type": "string"
						},
						{
							"internalType": "string",
							"name": "assignApplicant",
							"type": "string"
						},
						{
							"internalType": "string",
							"name": "grantorId",
							"type": "string"
						},
						{
							"internalType": "string",
							"name": "assigneeId",
							"type": "string"
						},
						{
							"internalType": "uint8",
							"name": "count",
							"type": "uint8"
						},
						{
							"internalType": "string",
							"name": "transferReason",
							"type": "string"
						},
						{
							"internalType": "string",
							"name": "purpose",
							"type": "string"
						},
						{
							"internalType": "string",
							"name": "aquisition",
							"type": "string"
						},
						{
							"internalType": "string",
							"name": "fatherId",
							"type": "string"
						},
						{
							"internalType": "string",
							"name": "motherId",
							"type": "string"
						}
					],
					"internalType": "struct TurtleDocumentation.Transfer",
					"name": "",
					"type": "tuple"
				}
			],
			"stateMutability": "view",
			"type": "function"
		},
		{
			"inputs": [
				{
					"internalType": "address",
					"name": "newOwner",
					"type": "address"
				}
			],
			"name": "transferOwnership",
			"outputs": [],
			"stateMutability": "nonpayable",
			"type": "function"
		}
	]
}