{
	"data": {
		"bytecode": {
			"linkReferences": {},
			"object": "6080806040523461005b5760008054336001600160a01b0319821681178355916001600160a01b03909116907f8be0079c531659141344cd1fd0a4f28419497f9722a3daafe3b4186f6b6457e09080a361229290816100618239f35b600080fdfe6080604052600436101561001257600080fd5b60003560e01c806317aa1f4814611a9b57806318e1a28a146118dc5780631a0642ef146116ad578063229aa9141461165a578063482346bd146115f4578063596c442a146113e45780635c493eaa146112ff578063673ae4c1146110105780636c1dcaf814610d6b578063715018a614610d125780638da5cb5b14610ce9578063ce5f0b7d146108ac578063f2fde38b146107e1578063f3cb197d146107965763ff39b1ae146100c157600080fd5b3461079157610200366003190112610791576001600160401b03600435818111610791576100f3903690600401611cc0565b6024358281116107915761010b903690600401611cc0565b60643560ff811681036107915760843584811161079157610130903690600401611cc0565b9060a43585811161079157610149903690600401611cc0565b9460c43581811161079157610162903690600401611cc0565b9560e4358281116107915761017b903690600401611cc0565b966101043583811161079157610195903690600401611cc0565b61012435848111610791576101ae903690600401611cc0565b9061014435858111610791576101c8903690600401611cc0565b9961018435868111610791576101e2903690600401611cc0565b936101a435878111610791576101fc903690600401611cc0565b956101c43588811161079157610216903690600401611cc0565b976101e43511610791578b9960ff600561027b602061023b366101e435600401611cc0565b9e6102688585604051858186516102558183858b01611d47565b8101600181520301902001541615611df7565b8160405193828580945193849201611d47565b810160018152030190200154161560001461046d578c60409e9798999a9b9c9d9e5181818093516020819301916102b192611d47565b8101600181520360200190209a6044356000528b6020528d6040600020906102d891611f09565b6044356000528b602052604060002090600182019060ff1660ff198254161790556002019061030691611f09565b6044356000528960205260406000206003019061032291611f09565b6044356000528860205260406000206004019061033e91611f09565b6044356000528760205260406000206005019061035a91611f09565b6044356000528660205260406000206006019061037691611f09565b6044356000528560205260406000206007019061039291611f09565b604435600052846020526040600020600801906103ae91611f09565b604435600052836020526040600020610164356009820155600a01906103d391611f09565b604435600052826020526040600020600b01906103ef91611f09565b604435600052816020526040600020600c019061040b91611f09565b6044356000526020526040600020600d019061042691611f09565b61043a610434602093612002565b91612002565b604051916044359182917f406d6a39963b189ae4d4ba0b53780ecdf05dc013e196662687a246b0a2b70548600080a48152f35b60209d6106508f978e9f9c61043a9f996104349f9c988f9061078c9f9c9b6105fd6107599f9a926105ca6107269f9d6105956106f19f966105606106879f6106309c6104ea6102689b6104ce8f8f8160405193828580945193849201611d47565b810160018152030190206044356000528f526040600020611f09565b6105028d8d8160405193828580945193849201611d47565b810160018152030190206044356000528d5260ff6001604060002001911660ff198254161790556105418c8c8160405193828580945193849201611d47565b810160018152030190206044356000528c526002604060002001611f09565b6040518a81816105768d83815193849201611d47565b810160018152030190206044356000528a526003604060002001611f09565b6040518881816105ab8b83815193849201611d47565b8101600181520301902060443560005288526004604060002001611f09565b604051868187516105de8183858c01611d47565b8101600181520301902060443560005286526005604060002001611f09565b604051848185516106118183858a01611d47565b8101600181520301902060443560005284526006604060002001611f09565b810160018152030190206044356000526020526007604060002001611f09565b6106688f8c8160405193828580945193849201611d47565b810160018152030190206044356000528f526008604060002001611f09565b6040518d818161069d8d83815193849201611d47565b810160018152030190206044356000528d52610164356009604060002001556040518d81816106d28d83815193849201611d47565b810160018152030190206044356000528d52600a604060002001611f09565b6040518b81816107078b83815193849201611d47565b810160018152030190206044356000528b52600b604060002001611f09565b6040518981875161073a8183858c01611d47565b810160018152030190206044356000528952600c604060002001611f09565b6040518781855161076d8183858a01611d47565b810160018152030190206044356000528752600d604060002001611f09565b612002565b600080fd5b34610791576020366003190112610791576004356001600160401b0381116107915760046107cd6020610268819436908501611cc0565b810160018152030190200154604051908152f35b34610791576020366003190112610791576004356001600160a01b038181169182900361079157610810611d9f565b811561085857600054826bffffffffffffffffffffffff60a01b821617600055167f8be0079c531659141344cd1fd0a4f28419497f9722a3daafe3b4186f6b6457e0600080a3005b60405162461bcd60e51b815260206004820152602660248201527f4f776e61626c653a206e6577206f776e657220697320746865207a65726f206160448201526564647265737360d01b6064820152608490fd5b34610791576060366003190112610791576001600160401b03600435818111610791576108dd903690600401611cc0565b602435828111610791576108f5903690600401611cc0565b916044359081116107915761090e903690600401611cc0565b9160ff600560405160208186516109288183858b01611d47565b8101600181520301902001541615610cac576040519181519260208181850195610953818389611d47565b810160028152030190205415610c5c5760009260005b604051602081865161097c818388611d47565b8101600281520301902054811015610c53576109b48160405160208188516109a581838a611d47565b81016002815203019020611e43565b506040516109d8816109ca6020820180956120fd565b03601f198101835282611c9f565b5190206040516020810190610a0560208288516109f88187858d01611d47565b8101038084520182611c9f565b51902014610a1b57610a16906120ee565b610969565b509091925060015b15610c03576020610a3f91604051809381928751928391611d47565b810160028152030190209060005b82549081811015610b9f57610a628185611e43565b50604051610a78816109ca6020820180956120fd565b5190206040516020810190610a9860208288516109f88187858d01611d47565b51902014610ab0575b610aab91506120ee565b610a4d565b60001991808301908111610b8957610ac89085611e43565b50610ad38286611e43565b919091610b5d57610ae391612180565b8354918215610b7357610af881840186611e43565b939093610b5d5783610b0d610aab9554611e71565b9081610b1e575b5050018455610aa1565b600091601f808211600114610b38575050555b8880610b14565b91610b5684929382845260208420940160051c840160018501611eab565b5555610b31565b634e487b7160e01b600052600060045260246000fd5b634e487b7160e01b600052603160045260246000fd5b634e487b7160e01b600052601160045260246000fd5b8486610bdb610434610bd58761078c8160405160208181610bc68b83815193849201611d47565b81016002815203019020611fd0565b93612002565b917f80d739977bb0030fd7e876dc1ca9a667adfc1b71fea4820c4266de2ee6d6c657600080a4005b60405162461bcd60e51b815260206004820152602260248201527f4f6c64206f776e657220646f6573206e6f74206f776e207468697320747572746044820152616c6560f01b6064820152608490fd5b50909192610a23565b60405162461bcd60e51b815260206004820152602260248201527f4f6c64206f776e657220646f6573206e6f74206f776e20616e7920747572746c604482015261657360f01b6064820152608490fd5b60405162461bcd60e51b8152602060048201526015602482015274151d5c9d1b1948191bd95cc81b9bdd08195e1a5cdd605a1b6044820152606490fd5b34610791576000366003190112610791576000546040516001600160a01b039091168152602090f35b3461079157600036600319011261079157610d2b611d9f565b600080546001600160a01b0319811682556001600160a01b03167f8be0079c531659141344cd1fd0a4f28419497f9722a3daafe3b4186f6b6457e08280a3005b3461079157610120366003190112610791576001600160401b0360043581811161079157610d9d903690600401611cc0565b9060243581811161079157610db6903690600401611cc0565b9060643581811161079157610dcf903690600401611cc0565b610dd7611d8f565b9360a43583811161079157610df0903690600401611cc0565b9160c43584811161079157610e09903690600401611cc0565b9260e43585811161079157610e22903690600401611cc0565b966101043595861161079157602097610f6f61043496610f378a95610fa595610ebb61078c998f610e9a610fdb9f918e610268610e656002953690600401611cc0565b9e8560405185818651610e7b8183858b01611d47565b6001818301528101030190200160443560005284526040600020611f09565b81016001815203019020016044356000526020526001604060002001611f09565b6002610ed58f8c8160405193828580945193849201611d47565b81016001815203019020016044356000528e5260ff6002604060002001911660ff198254161790556002610f178e8b8160405193828580945193849201611d47565b81016001815203019020016044356000528d526003604060002001611f09565b60026040518c8181610f4f8c83815193849201611d47565b81016001815203019020016044356000528b526004604060002001611f09565b60026040518a818851610f858183858d01611d47565b810160018152030190200160443560005289526005604060002001611f09565b600260405188818651610fbb8183858b01611d47565b810160018152030190200160443560005287526006604060002001611f09565b9060405191604435917fbf4ff8efb9c111a99679d7a6a4263272c5fa30a2fa39bec8f6e4ce26902fc0be600080a46044358152f35b3461079157602061109b61102336611d16565b929060606101a060405161103681611c83565b82815260008582015282604082015282808201528260808201528260a08201528260c08201528260e082015282610100820152600061012082015282610140820152826101608201528261018082015201528160405193828580945193849201611d47565b810160018152030190209060005260205261120b604060002061119d600d604051926110c684611c83565b6110cf81612022565b845260ff60018201541660208501526110ea60028201612022565b60408501526110fb60038201612022565b606085015261110c60048201612022565b608085015261111d60058201612022565b60a085015261112e60068201612022565b60c085015261113f60078201612022565b60e085015261115060088201612022565b610100850152600981015461012085015261116d600a8201612022565b61014085015261117f600b8201612022565b610160850152611191600c8201612022565b61018085015201612022565b6101a08201526112fb816101a06112e66112d06112b861129461127c61126561124f6112396112236040519d8e9d8e6020815260406111ea83516101c060208501526101e0840190611d6a565b9260ff602082015116828401520151906060601f1982850301910152611d6a565b8d60608d0151906080601f1982850301910152611d6a565b60808b01518d8203601f190160a08f0152611d6a565b60a08a01518c8203601f190160c08e0152611d6a565b60c08901518b8203601f190160e08d0152611d6a565b60e08801518a8203601f19016101008c0152611d6a565b610100870151898203601f19016101208b0152611d6a565b610120860151610140890152610140860151601f19898303016101608a0152611d6a565b610160850151878203601f1901610180890152611d6a565b610180840151868203601f190184880152611d6a565b910151838203601f19016101c0850152611d6a565b0390f35b34610791576040366003190112610791576001600160401b0360043581811161079157611330903690600401611cc0565b906024359081116107915761043461134f6113bc923690600401611cc0565b92611358611d9f565b600561138d602060405161137c60ff858751938581818b019661025581838a611d47565b604051809381928751928391611d47565b8101600181520301902001600160ff1982541617905561078c816040516020818851610bc68183858d01611d47565b907f7d904e478df0f515c7058df56a2295c88f46c97f269f153cb964c1574e4ad9e8600080a3005b346107915760e0366003190112610791576001600160401b0360043581811161079157611415903690600401611cc0565b906024358181116107915761142e903690600401611cc0565b90604435916064358281116107915761144b903690600401611cc0565b9060843583811161079157611464903690600401611cc0565b9460a4358481116107915761147d903690600401611cc0565b60c435948511610791578594611497903690600401611cc0565b90604051908351906020998a8601926114b1818686611d47565b8401848c60019683888095520301902001896000528b52866040600020906114d891611f09565b836040518c8189516114eb81838a611d47565b81018481520301902001896000528b528760406000206002019061150e91611f09565b836040518c81895161152181838a611d47565b81018481520301902001896000528b5260406000206007019061154391611f09565b826040518b818851611556818389611d47565b81018481520301902001886000528a5260406000206008019061157891611f09565b886040518080938751809261158c92611d47565b810184815203019020018560005287526040600020600901906115ae91611f09565b6115b790612002565b916040519182916115c891836120c6565b037f5900e70e78483b52bbe5c26fe3eddc846f885a9fe48efe16abcda778278f4f1291a3604051908152f35b3461079157602080611646600461160a36611d16565b938493916040519085600382519385818186019661162981838a611d47565b810160018152030190200155604051938492839251928391611d47565b810160018152030190200155604051908152f35b3461079157602080611646600461167036611d16565b93849391604051908481519284818185019561168d818389611d47565b81016001815203019020015460036040518581855161162981838a611d47565b34610791576020600161171d6116c236611d16565b939060606101206040516116d581611c67565b82815282858201528260408201528280820152600060808201528260a08201528260c08201528260e08201528261010082015201528160405193828580945193849201611d47565b81018481520301902001906000526020526112fb60406000206117de60096040519261174884611c67565b61175181612022565b845261175f60018201612022565b602085015261177060028201612022565b604085015261178160038201612022565b606085015260ff600482015416608085015261179f60058201612022565b60a08501526117b060068201612022565b60c08501526117c160078201612022565b60e08501526117d260088201612022565b61010085015201612022565b610120820152604051918291602083526101206118c76118b161189a61188461186161184b61183561181f8b61014060208c519201526101608d0190611d6a565b60208a01518c8203601f190160408e0152611d6a565b60408901518b8203601f190160608d0152611d6a565b60608801518a8203601f190160808c0152611d6a565b60ff60808801511660a08a015260a0870151601f198a83030160c08b0152611d6a565b60c0860151888203601f190160e08a0152611d6a565b60e0850151878203601f1901610100890152611d6a565b610100840151868203601f190184880152611d6a565b910151838203601f1901610140850152611d6a565b346107915760e0366003190112610791576001600160401b036004358181116107915761190d903690600401611cc0565b9060243581811161079157611926903690600401611cc0565b906044359160643582811161079157611943903690600401611cc0565b9061194c611d8f565b9460a43584811161079157611965903690600401611cc0565b60c43594851161079157859461197f903690600401611cc0565b90604051908351906020998a860192611999818686611d47565b8401848c60019683888095520301902001896000528b528684604060002001906119c291611f09565b836040518c8189516119d581838a611d47565b81018481520301902001896000528b52876040600020600301906119f891611f09565b836040518c818951611a0b81838a611d47565b81018481520301902001896000528b5260406000206004019060ff1660ff19825416179055826040518b818851611a43818389611d47565b81018481520301902001886000528a52604060002060050190611a6591611f09565b8860405180809387518092611a7992611d47565b810184815203019020018560005287526040600020600601906115ae91611f09565b3461079157611aa936611d16565b60405190611ab682611c36565b60608281809452602094828287948580950152604081016000905281808201528160808201528160a082015260c001526040519283828193519283910191611afd92611d47565b81016001815203019020600201906000528252604060002060405191611b2283611c36565b611b2b82612022565b8352611b3960018301612022565b91848401928352600281015460ff166040850190815260038201611b5c90612022565b85840190815290611b6f60048401612022565b6080870190815291611b8360058501612022565b9360a08801948552600601611b9790612022565b9460c08801958652604051988998818a525190890160e090526101008901611bbe91611d6a565b9651601f1997888a82030160408b0152611bd791611d6a565b925160ff1690880152519085878203016080880152611bf591611d6a565b905190848682030160a0870152611c0b91611d6a565b905190838582030160c0860152611c2191611d6a565b9051918382030160e08401526112fb91611d6a565b60e081019081106001600160401b03821117611c5157604052565b634e487b7160e01b600052604160045260246000fd5b61014081019081106001600160401b03821117611c5157604052565b6101c081019081106001600160401b03821117611c5157604052565b90601f801991011681019081106001600160401b03821117611c5157604052565b81601f82011215610791578035906001600160401b038211611c515760405192611cf4601f8401601f191660200185611c9f565b8284526020838301011161079157816000926020809301838601378301015290565b604060031982011261079157600435906001600160401b03821161079157611d4091600401611cc0565b9060243590565b60005b838110611d5a5750506000910152565b8181015183820152602001611d4a565b90602091611d8381518092818552858086019101611d47565b601f01601f1916010190565b6084359060ff8216820361079157565b6000546001600160a01b03163303611db357565b606460405162461bcd60e51b815260206004820152602060248201527f4f776e61626c653a2063616c6c6572206973206e6f7420746865206f776e65726044820152fd5b15611dfe57565b60405162461bcd60e51b815260206004820152601960248201527f547572746c6520616c72656164792072656769737465726564000000000000006044820152606490fd5b8054821015611e5b5760005260206000200190600090565b634e487b7160e01b600052603260045260246000fd5b90600182811c92168015611ea1575b6020831014611e8b57565b634e487b7160e01b600052602260045260246000fd5b91607f1691611e80565b818110611eb6575050565b60008155600101611eab565b9190601f8111611ed157505050565b611efd926000526020600020906020601f840160051c83019310611eff575b601f0160051c0190611eab565b565b9091508190611ef0565b91909182516001600160401b038111611c5157611f3081611f2a8454611e71565b84611ec2565b602080601f8311600114611f6c575081929394600092611f61575b50508160011b916000199060031b1c1916179055565b015190503880611f4b565b90601f198316958460005282600020926000905b888210611fb857505083600195969710611f9f575b505050811b019055565b015160001960f88460031b161c19169055388080611f95565b80600185968294968601518155019501930190611f80565b805468010000000000000000811015611c5157611ff291600182018155611e43565b919091610b5d57611efd91611f09565b61201a90602060405192828480945193849201611d47565b810103902090565b906040519182600082549261203684611e71565b9081845260019485811690816000146120a35750600114612060575b5050611efd92500383611c9f565b9093915060005260209081600020936000915b81831061208b575050611efd93508201013880612052565b85548884018501529485019487945091830191612073565b915050611efd94506020925060ff191682840152151560051b8201013880612052565b90916120dd6120eb93604084526040840190611d6a565b916020818403910152611d6a565b90565b6000198114610b895760010190565b60009291815461210c81611e71565b926001918083169081156121655750600114612129575b50505050565b90919293945060005260209081600020906000915b8583106121545750505050019038808080612123565b80548584015291830191810161213e565b60ff1916845250505081151590910201915038808080612123565b90808214612258576121928154611e71565b906001600160401b038211611c515781906121b7826121b18654611e71565b86611ec2565b600090601f83116001146121ed576000926121e25750508160011b916000199060031b1c1916179055565b015490503880611f4b565b81526020808220858352818320935090601f1985169083905b82821061223f57505090846001959493921061222657505050811b019055565b015460001960f88460031b161c19169055388080611f95565b8495819295850154815560018091019601940190612206565b505056fea2646970667358221220ee071e59dcfef72630f30607428ef8b77ff4116526869a995e08dcecc63d79b564736f6c63430008120033",
			"opcodes": "PUSH1 0x80 DUP1 PUSH1 0x40 MSTORE CALLVALUE PUSH2 0x5B JUMPI PUSH1 0x0 DUP1 SLOAD CALLER PUSH1 0x1 PUSH1 0x1 PUSH1 0xA0 SHL SUB NOT DUP3 AND DUP2 OR DUP4 SSTORE SWAP2 PUSH1 0x1 PUSH1 0x1 PUSH1 0xA0 SHL SUB SWAP1 SWAP2 AND SWAP1 PUSH32 0x8BE0079C531659141344CD1FD0A4F28419497F9722A3DAAFE3B4186F6B6457E0 SWAP1 DUP1 LOG3 PUSH2 0x2292 SWAP1 DUP2 PUSH2 0x61 DUP3 CODECOPY RETURN JUMPDEST PUSH1 0x0 DUP1 REVERT INVALID PUSH1 0x80 PUSH1 0x40 MSTORE PUSH1 0x4 CALLDATASIZE LT ISZERO PUSH2 0x12 JUMPI PUSH1 0x0 DUP1 REVERT JUMPDEST PUSH1 0x0 CALLDATALOAD PUSH1 0xE0 SHR DUP1 PUSH4 0x17AA1F48 EQ PUSH2 0x1A9B JUMPI DUP1 PUSH4 0x18E1A28A EQ PUSH2 0x18DC JUMPI DUP1 PUSH4 0x1A0642EF EQ PUSH2 0x16AD JUMPI DUP1 PUSH4 0x229AA914 EQ PUSH2 0x165A JUMPI DUP1 PUSH4 0x482346BD EQ PUSH2 0x15F4 JUMPI DUP1 PUSH4 0x596C442A EQ PUSH2 0x13E4 JUMPI DUP1 PUSH4 0x5C493EAA EQ PUSH2 0x12FF JUMPI DUP1 PUSH4 0x673AE4C1 EQ PUSH2 0x1010 JUMPI DUP1 PUSH4 0x6C1DCAF8 EQ PUSH2 0xD6B JUMPI DUP1 PUSH4 0x715018A6 EQ PUSH2 0xD12 JUMPI DUP1 PUSH4 0x8DA5CB5B EQ PUSH2 0xCE9 JUMPI DUP1 PUSH4 0xCE5F0B7D EQ PUSH2 0x8AC JUMPI DUP1 PUSH4 0xF2FDE38B EQ PUSH2 0x7E1 JUMPI DUP1 PUSH4 0xF3CB197D EQ PUSH2 0x796 JUMPI PUSH4 0xFF39B1AE EQ PUSH2 0xC1 JUMPI PUSH1 0x0 DUP1 REVERT JUMPDEST CALLVALUE PUSH2 0x791 JUMPI PUSH2 0x200 CALLDATASIZE PUSH1 0x3 NOT ADD SLT PUSH2 0x791 JUMPI PUSH1 0x1 PUSH1 0x1 PUSH1 0x40 SHL SUB PUSH1 0x4 CALLDATALOAD DUP2 DUP2 GT PUSH2 0x791 JUMPI PUSH2 0xF3 SWAP1 CALLDATASIZE SWAP1 PUSH1 0x4 ADD PUSH2 0x1CC0 JUMP JUMPDEST PUSH1 0x24 CALLDATALOAD DUP3 DUP2 GT PUSH2 0x791 JUMPI PUSH2 0x10B SWAP1 CALLDATASIZE SWAP1 PUSH1 0x4 ADD PUSH2 0x1CC0 JUMP JUMPDEST PUSH1 0x64 CALLDATALOAD PUSH1 0xFF DUP2 AND DUP2 SUB PUSH2 0x791 JUMPI PUSH1 0x84 CALLDATALOAD DUP5 DUP2 GT PUSH2 0x791 JUMPI PUSH2 0x130 SWAP1 CALLDATASIZE SWAP1 PUSH1 0x4 ADD PUSH2 0x1CC0 JUMP JUMPDEST SWAP1 PUSH1 0xA4 CALLDATALOAD DUP6 DUP2 GT PUSH2 0x791 JUMPI PUSH2 0x149 SWAP1 CALLDATASIZE SWAP1 PUSH1 0x4 ADD PUSH2 0x1CC0 JUMP JUMPDEST SWAP5 PUSH1 0xC4 CALLDATALOAD DUP2 DUP2 GT PUSH2 0x791 JUMPI PUSH2 0x162 SWAP1 CALLDATASIZE SWAP1 PUSH1 0x4 ADD PUSH2 0x1CC0 JUMP JUMPDEST SWAP6 PUSH1 0xE4 CALLDATALOAD DUP3 DUP2 GT PUSH2 0x791 JUMPI PUSH2 0x17B SWAP1 CALLDATASIZE SWAP1 PUSH1 0x4 ADD PUSH2 0x1CC0 JUMP JUMPDEST SWAP7 PUSH2 0x104 CALLDATALOAD DUP4 DUP2 GT PUSH2 0x791 JUMPI PUSH2 0x195 SWAP1 CALLDATASIZE SWAP1 PUSH1 0x4 ADD PUSH2 0x1CC0 JUMP JUMPDEST PUSH2 0x124 CALLDATALOAD DUP5 DUP2 GT PUSH2 0x791 JUMPI PUSH2 0x1AE SWAP1 CALLDATASIZE SWAP1 PUSH1 0x4 ADD PUSH2 0x1CC0 JUMP JUMPDEST SWAP1 PUSH2 0x144 CALLDATALOAD DUP6 DUP2 GT PUSH2 0x791 JUMPI PUSH2 0x1C8 SWAP1 CALLDATASIZE SWAP1 PUSH1 0x4 ADD PUSH2 0x1CC0 JUMP JUMPDEST SWAP10 PUSH2 0x184 CALLDATALOAD DUP7 DUP2 GT PUSH2 0x791 JUMPI PUSH2 0x1E2 SWAP1 CALLDATASIZE SWAP1 PUSH1 0x4 ADD PUSH2 0x1CC0 JUMP JUMPDEST SWAP4 PUSH2 0x1A4 CALLDATALOAD DUP8 DUP2 GT PUSH2 0x791 JUMPI PUSH2 0x1FC SWAP1 CALLDATASIZE SWAP1 PUSH1 0x4 ADD PUSH2 0x1CC0 JUMP JUMPDEST SWAP6 PUSH2 0x1C4 CALLDATALOAD DUP9 DUP2 GT PUSH2 0x791 JUMPI PUSH2 0x216 SWAP1 CALLDATASIZE SWAP1 PUSH1 0x4 ADD PUSH2 0x1CC0 JUMP JUMPDEST SWAP8 PUSH2 0x1E4 CALLDATALOAD GT PUSH2 0x791 JUMPI DUP12 SWAP10 PUSH1 0xFF PUSH1 0x5 PUSH2 0x27B PUSH1 0x20 PUSH2 0x23B CALLDATASIZE PUSH2 0x1E4 CALLDATALOAD PUSH1 0x4 ADD PUSH2 0x1CC0 JUMP JUMPDEST SWAP15 PUSH2 0x268 DUP6 DUP6 PUSH1 0x40 MLOAD DUP6 DUP2 DUP7 MLOAD PUSH2 0x255 DUP2 DUP4 DUP6 DUP12 ADD PUSH2 0x1D47 JUMP JUMPDEST DUP2 ADD PUSH1 0x1 DUP2 MSTORE SUB ADD SWAP1 KECCAK256 ADD SLOAD AND ISZERO PUSH2 0x1DF7 JUMP JUMPDEST DUP2 PUSH1 0x40 MLOAD SWAP4 DUP3 DUP6 DUP1 SWAP5 MLOAD SWAP4 DUP5 SWAP3 ADD PUSH2 0x1D47 JUMP JUMPDEST DUP2 ADD PUSH1 0x1 DUP2 MSTORE SUB ADD SWAP1 KECCAK256 ADD SLOAD AND ISZERO PUSH1 0x0 EQ PUSH2 0x46D JUMPI DUP13 PUSH1 0x40 SWAP15 SWAP8 SWAP9 SWAP10 SWAP11 SWAP12 SWAP13 SWAP14 SWAP15 MLOAD DUP2 DUP2 DUP1 SWAP4 MLOAD PUSH1 0x20 DUP2 SWAP4 ADD SWAP2 PUSH2 0x2B1 SWAP3 PUSH2 0x1D47 JUMP JUMPDEST DUP2 ADD PUSH1 0x1 DUP2 MSTORE SUB PUSH1 0x20 ADD SWAP1 KECCAK256 SWAP11 PUSH1 0x44 CALLDATALOAD PUSH1 0x0 MSTORE DUP12 PUSH1 0x20 MSTORE DUP14 PUSH1 0x40 PUSH1 0x0 KECCAK256 SWAP1 PUSH2 0x2D8 SWAP2 PUSH2 0x1F09 JUMP JUMPDEST PUSH1 0x44 CALLDATALOAD PUSH1 0x0 MSTORE DUP12 PUSH1 0x20 MSTORE PUSH1 0x40 PUSH1 0x0 KECCAK256 SWAP1 PUSH1 0x1 DUP3 ADD SWAP1 PUSH1 0xFF AND PUSH1 0xFF NOT DUP3 SLOAD AND OR SWAP1 SSTORE PUSH1 0x2 ADD SWAP1 PUSH2 0x306 SWAP2 PUSH2 0x1F09 JUMP JUMPDEST PUSH1 0x44 CALLDATALOAD PUSH1 0x0 MSTORE DUP10 PUSH1 0x20 MSTORE PUSH1 0x40 PUSH1 0x0 KECCAK256 PUSH1 0x3 ADD SWAP1 PUSH2 0x322 SWAP2 PUSH2 0x1F09 JUMP JUMPDEST PUSH1 0x44 CALLDATALOAD PUSH1 0x0 MSTORE DUP9 PUSH1 0x20 MSTORE PUSH1 0x40 PUSH1 0x0 KECCAK256 PUSH1 0x4 ADD SWAP1 PUSH2 0x33E SWAP2 PUSH2 0x1F09 JUMP JUMPDEST PUSH1 0x44 CALLDATALOAD PUSH1 0x0 MSTORE DUP8 PUSH1 0x20 MSTORE PUSH1 0x40 PUSH1 0x0 KECCAK256 PUSH1 0x5 ADD SWAP1 PUSH2 0x35A SWAP2 PUSH2 0x1F09 JUMP JUMPDEST PUSH1 0x44 CALLDATALOAD PUSH1 0x0 MSTORE DUP7 PUSH1 0x20 MSTORE PUSH1 0x40 PUSH1 0x0 KECCAK256 PUSH1 0x6 ADD SWAP1 PUSH2 0x376 SWAP2 PUSH2 0x1F09 JUMP JUMPDEST PUSH1 0x44 CALLDATALOAD PUSH1 0x0 MSTORE DUP6 PUSH1 0x20 MSTORE PUSH1 0x40 PUSH1 0x0 KECCAK256 PUSH1 0x7 ADD SWAP1 PUSH2 0x392 SWAP2 PUSH2 0x1F09 JUMP JUMPDEST PUSH1 0x44 CALLDATALOAD PUSH1 0x0 MSTORE DUP5 PUSH1 0x20 MSTORE PUSH1 0x40 PUSH1 0x0 KECCAK256 PUSH1 0x8 ADD SWAP1 PUSH2 0x3AE SWAP2 PUSH2 0x1F09 JUMP JUMPDEST PUSH1 0x44 CALLDATALOAD PUSH1 0x0 MSTORE DUP4 PUSH1 0x20 MSTORE PUSH1 0x40 PUSH1 0x0 KECCAK256 PUSH2 0x164 CALLDATALOAD PUSH1 0x9 DUP3 ADD SSTORE PUSH1 0xA ADD SWAP1 PUSH2 0x3D3 SWAP2 PUSH2 0x1F09 JUMP JUMPDEST PUSH1 0x44 CALLDATALOAD PUSH1 0x0 MSTORE DUP3 PUSH1 0x20 MSTORE PUSH1 0x40 PUSH1 0x0 KECCAK256 PUSH1 0xB ADD SWAP1 PUSH2 0x3EF SWAP2 PUSH2 0x1F09 JUMP JUMPDEST PUSH1 0x44 CALLDATALOAD PUSH1 0x0 MSTORE DUP2 PUSH1 0x20 MSTORE PUSH1 0x40 PUSH1 0x0 KECCAK256 PUSH1 0xC ADD SWAP1 PUSH2 0x40B SWAP2 PUSH2 0x1F09 JUMP JUMPDEST PUSH1 0x44 CALLDATALOAD PUSH1 0x0 MSTORE PUSH1 0x20 MSTORE PUSH1 0x40 PUSH1 0x0 KECCAK256 PUSH1 0xD ADD SWAP1 PUSH2 0x426 SWAP2 PUSH2 0x1F09 JUMP JUMPDEST PUSH2 0x43A PUSH2 0x434 PUSH1 0x20 SWAP4 PUSH2 0x2002 JUMP JUMPDEST SWAP2 PUSH2 0x2002 JUMP JUMPDEST PUSH1 0x40 MLOAD SWAP2 PUSH1 0x44 CALLDATALOAD SWAP2 DUP3 SWAP2 PUSH32 0x406D6A39963B189AE4D4BA0B53780ECDF05DC013E196662687A246B0A2B70548 PUSH1 0x0 DUP1 LOG4 DUP2 MSTORE RETURN JUMPDEST PUSH1 0x20 SWAP14 PUSH2 0x650 DUP16 SWAP8 DUP15 SWAP16 SWAP13 PUSH2 0x43A SWAP16 SWAP10 PUSH2 0x434 SWAP16 SWAP13 SWAP9 DUP16 SWAP1 PUSH2 0x78C SWAP16 SWAP13 SWAP12 PUSH2 0x5FD PUSH2 0x759 SWAP16 SWAP11 SWAP3 PUSH2 0x5CA PUSH2 0x726 SWAP16 SWAP14 PUSH2 0x595 PUSH2 0x6F1 SWAP16 SWAP7 PUSH2 0x560 PUSH2 0x687 SWAP16 PUSH2 0x630 SWAP13 PUSH2 0x4EA PUSH2 0x268 SWAP12 PUSH2 0x4CE DUP16 DUP16 DUP2 PUSH1 0x40 MLOAD SWAP4 DUP3 DUP6 DUP1 SWAP5 MLOAD SWAP4 DUP5 SWAP3 ADD PUSH2 0x1D47 JUMP JUMPDEST DUP2 ADD PUSH1 0x1 DUP2 MSTORE SUB ADD SWAP1 KECCAK256 PUSH1 0x44 CALLDATALOAD PUSH1 0x0 MSTORE DUP16 MSTORE PUSH1 0x40 PUSH1 0x0 KECCAK256 PUSH2 0x1F09 JUMP JUMPDEST PUSH2 0x502 DUP14 DUP14 DUP2 PUSH1 0x40 MLOAD SWAP4 DUP3 DUP6 DUP1 SWAP5 MLOAD SWAP4 DUP5 SWAP3 ADD PUSH2 0x1D47 JUMP JUMPDEST DUP2 ADD PUSH1 0x1 DUP2 MSTORE SUB ADD SWAP1 KECCAK256 PUSH1 0x44 CALLDATALOAD PUSH1 0x0 MSTORE DUP14 MSTORE PUSH1 0xFF PUSH1 0x1 PUSH1 0x40 PUSH1 0x0 KECCAK256 ADD SWAP2 AND PUSH1 0xFF NOT DUP3 SLOAD AND OR SWAP1 SSTORE PUSH2 0x541 DUP13 DUP13 DUP2 PUSH1 0x40 MLOAD SWAP4 DUP3 DUP6 DUP1 SWAP5 MLOAD SWAP4 DUP5 SWAP3 ADD PUSH2 0x1D47 JUMP JUMPDEST DUP2 ADD PUSH1 0x1 DUP2 MSTORE SUB ADD SWAP1 KECCAK256 PUSH1 0x44 CALLDATALOAD PUSH1 0x0 MSTORE DUP13 MSTORE PUSH1 0x2 PUSH1 0x40 PUSH1 0x0 KECCAK256 ADD PUSH2 0x1F09 JUMP JUMPDEST PUSH1 0x40 MLOAD DUP11 DUP2 DUP2 PUSH2 0x576 DUP14 DUP4 DUP2 MLOAD SWAP4 DUP5 SWAP3 ADD PUSH2 0x1D47 JUMP JUMPDEST DUP2 ADD PUSH1 0x1 DUP2 MSTORE SUB ADD SWAP1 KECCAK256 PUSH1 0x44 CALLDATALOAD PUSH1 0x0 MSTORE DUP11 MSTORE PUSH1 0x3 PUSH1 0x40 PUSH1 0x0 KECCAK256 ADD PUSH2 0x1F09 JUMP JUMPDEST PUSH1 0x40 MLOAD DUP9 DUP2 DUP2 PUSH2 0x5AB DUP12 DUP4 DUP2 MLOAD SWAP4 DUP5 SWAP3 ADD PUSH2 0x1D47 JUMP JUMPDEST DUP2 ADD PUSH1 0x1 DUP2 MSTORE SUB ADD SWAP1 KECCAK256 PUSH1 0x44 CALLDATALOAD PUSH1 0x0 MSTORE DUP9 MSTORE PUSH1 0x4 PUSH1 0x40 PUSH1 0x0 KECCAK256 ADD PUSH2 0x1F09 JUMP JUMPDEST PUSH1 0x40 MLOAD DUP7 DUP2 DUP8 MLOAD PUSH2 0x5DE DUP2 DUP4 DUP6 DUP13 ADD PUSH2 0x1D47 JUMP JUMPDEST DUP2 ADD PUSH1 0x1 DUP2 MSTORE SUB ADD SWAP1 KECCAK256 PUSH1 0x44 CALLDATALOAD PUSH1 0x0 MSTORE DUP7 MSTORE PUSH1 0x5 PUSH1 0x40 PUSH1 0x0 KECCAK256 ADD PUSH2 0x1F09 JUMP JUMPDEST PUSH1 0x40 MLOAD DUP5 DUP2 DUP6 MLOAD PUSH2 0x611 DUP2 DUP4 DUP6 DUP11 ADD PUSH2 0x1D47 JUMP JUMPDEST DUP2 ADD PUSH1 0x1 DUP2 MSTORE SUB ADD SWAP1 KECCAK256 PUSH1 0x44 CALLDATALOAD PUSH1 0x0 MSTORE DUP5 MSTORE PUSH1 0x6 PUSH1 0x40 PUSH1 0x0 KECCAK256 ADD PUSH2 0x1F09 JUMP JUMPDEST DUP2 ADD PUSH1 0x1 DUP2 MSTORE SUB ADD SWAP1 KECCAK256 PUSH1 0x44 CALLDATALOAD PUSH1 0x0 MSTORE PUSH1 0x20 MSTORE PUSH1 0x7 PUSH1 0x40 PUSH1 0x0 KECCAK256 ADD PUSH2 0x1F09 JUMP JUMPDEST PUSH2 0x668 DUP16 DUP13 DUP2 PUSH1 0x40 MLOAD SWAP4 DUP3 DUP6 DUP1 SWAP5 MLOAD SWAP4 DUP5 SWAP3 ADD PUSH2 0x1D47 JUMP JUMPDEST DUP2 ADD PUSH1 0x1 DUP2 MSTORE SUB ADD SWAP1 KECCAK256 PUSH1 0x44 CALLDATALOAD PUSH1 0x0 MSTORE DUP16 MSTORE PUSH1 0x8 PUSH1 0x40 PUSH1 0x0 KECCAK256 ADD PUSH2 0x1F09 JUMP JUMPDEST PUSH1 0x40 MLOAD DUP14 DUP2 DUP2 PUSH2 0x69D DUP14 DUP4 DUP2 MLOAD SWAP4 DUP5 SWAP3 ADD PUSH2 0x1D47 JUMP JUMPDEST DUP2 ADD PUSH1 0x1 DUP2 MSTORE SUB ADD SWAP1 KECCAK256 PUSH1 0x44 CALLDATALOAD PUSH1 0x0 MSTORE DUP14 MSTORE PUSH2 0x164 CALLDATALOAD PUSH1 0x9 PUSH1 0x40 PUSH1 0x0 KECCAK256 ADD SSTORE PUSH1 0x40 MLOAD DUP14 DUP2 DUP2 PUSH2 0x6D2 DUP14 DUP4 DUP2 MLOAD SWAP4 DUP5 SWAP3 ADD PUSH2 0x1D47 JUMP JUMPDEST DUP2 ADD PUSH1 0x1 DUP2 MSTORE SUB ADD SWAP1 KECCAK256 PUSH1 0x44 CALLDATALOAD PUSH1 0x0 MSTORE DUP14 MSTORE PUSH1 0xA PUSH1 0x40 PUSH1 0x0 KECCAK256 ADD PUSH2 0x1F09 JUMP JUMPDEST PUSH1 0x40 MLOAD DUP12 DUP2 DUP2 PUSH2 0x707 DUP12 DUP4 DUP2 MLOAD SWAP4 DUP5 SWAP3 ADD PUSH2 0x1D47 JUMP JUMPDEST DUP2 ADD PUSH1 0x1 DUP2 MSTORE SUB ADD SWAP1 KECCAK256 PUSH1 0x44 CALLDATALOAD PUSH1 0x0 MSTORE DUP12 MSTORE PUSH1 0xB PUSH1 0x40 PUSH1 0x0 KECCAK256 ADD PUSH2 0x1F09 JUMP JUMPDEST PUSH1 0x40 MLOAD DUP10 DUP2 DUP8 MLOAD PUSH2 0x73A DUP2 DUP4 DUP6 DUP13 ADD PUSH2 0x1D47 JUMP JUMPDEST DUP2 ADD PUSH1 0x1 DUP2 MSTORE SUB ADD SWAP1 KECCAK256 PUSH1 0x44 CALLDATALOAD PUSH1 0x0 MSTORE DUP10 MSTORE PUSH1 0xC PUSH1 0x40 PUSH1 0x0 KECCAK256 ADD PUSH2 0x1F09 JUMP JUMPDEST PUSH1 0x40 MLOAD DUP8 DUP2 DUP6 MLOAD PUSH2 0x76D DUP2 DUP4 DUP6 DUP11 ADD PUSH2 0x1D47 JUMP JUMPDEST DUP2 ADD PUSH1 0x1 DUP2 MSTORE SUB ADD SWAP1 KECCAK256 PUSH1 0x44 CALLDATALOAD PUSH1 0x0 MSTORE DUP8 MSTORE PUSH1 0xD PUSH1 0x40 PUSH1 0x0 KECCAK256 ADD PUSH2 0x1F09 JUMP JUMPDEST PUSH2 0x2002 JUMP JUMPDEST PUSH1 0x0 DUP1 REVERT JUMPDEST CALLVALUE PUSH2 0x791 JUMPI PUSH1 0x20 CALLDATASIZE PUSH1 0x3 NOT ADD SLT PUSH2 0x791 JUMPI PUSH1 0x4 CALLDATALOAD PUSH1 0x1 PUSH1 0x1 PUSH1 0x40 SHL SUB DUP2 GT PUSH2 0x791 JUMPI PUSH1 0x4 PUSH2 0x7CD PUSH1 0x20 PUSH2 0x268 DUP2 SWAP5 CALLDATASIZE SWAP1 DUP6 ADD PUSH2 0x1CC0 JUMP JUMPDEST DUP2 ADD PUSH1 0x1 DUP2 MSTORE SUB ADD SWAP1 KECCAK256 ADD SLOAD PUSH1 0x40 MLOAD SWAP1 DUP2 MSTORE RETURN JUMPDEST CALLVALUE PUSH2 0x791 JUMPI PUSH1 0x20 CALLDATASIZE PUSH1 0x3 NOT ADD SLT PUSH2 0x791 JUMPI PUSH1 0x4 CALLDATALOAD PUSH1 0x1 PUSH1 0x1 PUSH1 0xA0 SHL SUB DUP2 DUP2 AND SWAP2 DUP3 SWAP1 SUB PUSH2 0x791 JUMPI PUSH2 0x810 PUSH2 0x1D9F JUMP JUMPDEST DUP2 ISZERO PUSH2 0x858 JUMPI PUSH1 0x0 SLOAD DUP3 PUSH12 0xFFFFFFFFFFFFFFFFFFFFFFFF PUSH1 0xA0 SHL DUP3 AND OR PUSH1 0x0 SSTORE AND PUSH32 0x8BE0079C531659141344CD1FD0A4F28419497F9722A3DAAFE3B4186F6B6457E0 PUSH1 0x0 DUP1 LOG3 STOP JUMPDEST PUSH1 0x40 MLOAD PUSH3 0x461BCD PUSH1 0xE5 SHL DUP2 MSTORE PUSH1 0x20 PUSH1 0x4 DUP3 ADD MSTORE PUSH1 0x26 PUSH1 0x24 DUP3 ADD MSTORE PUSH32 0x4F776E61626C653A206E6577206F776E657220697320746865207A65726F2061 PUSH1 0x44 DUP3 ADD MSTORE PUSH6 0x646472657373 PUSH1 0xD0 SHL PUSH1 0x64 DUP3 ADD MSTORE PUSH1 0x84 SWAP1 REVERT JUMPDEST CALLVALUE PUSH2 0x791 JUMPI PUSH1 0x60 CALLDATASIZE PUSH1 0x3 NOT ADD SLT PUSH2 0x791 JUMPI PUSH1 0x1 PUSH1 0x1 PUSH1 0x40 SHL SUB PUSH1 0x4 CALLDATALOAD DUP2 DUP2 GT PUSH2 0x791 JUMPI PUSH2 0x8DD SWAP1 CALLDATASIZE SWAP1 PUSH1 0x4 ADD PUSH2 0x1CC0 JUMP JUMPDEST PUSH1 0x24 CALLDATALOAD DUP3 DUP2 GT PUSH2 0x791 JUMPI PUSH2 0x8F5 SWAP1 CALLDATASIZE SWAP1 PUSH1 0x4 ADD PUSH2 0x1CC0 JUMP JUMPDEST SWAP2 PUSH1 0x44 CALLDATALOAD SWAP1 DUP2 GT PUSH2 0x791 JUMPI PUSH2 0x90E SWAP1 CALLDATASIZE SWAP1 PUSH1 0x4 ADD PUSH2 0x1CC0 JUMP JUMPDEST SWAP2 PUSH1 0xFF PUSH1 0x5 PUSH1 0x40 MLOAD PUSH1 0x20 DUP2 DUP7 MLOAD PUSH2 0x928 DUP2 DUP4 DUP6 DUP12 ADD PUSH2 0x1D47 JUMP JUMPDEST DUP2 ADD PUSH1 0x1 DUP2 MSTORE SUB ADD SWAP1 KECCAK256 ADD SLOAD AND ISZERO PUSH2 0xCAC JUMPI PUSH1 0x40 MLOAD SWAP2 DUP2 MLOAD SWAP3 PUSH1 0x20 DUP2 DUP2 DUP6 ADD SWAP6 PUSH2 0x953 DUP2 DUP4 DUP10 PUSH2 0x1D47 JUMP JUMPDEST DUP2 ADD PUSH1 0x2 DUP2 MSTORE SUB ADD SWAP1 KECCAK256 SLOAD ISZERO PUSH2 0xC5C JUMPI PUSH1 0x0 SWAP3 PUSH1 0x0 JUMPDEST PUSH1 0x40 MLOAD PUSH1 0x20 DUP2 DUP7 MLOAD PUSH2 0x97C DUP2 DUP4 DUP9 PUSH2 0x1D47 JUMP JUMPDEST DUP2 ADD PUSH1 0x2 DUP2 MSTORE SUB ADD SWAP1 KECCAK256 SLOAD DUP2 LT ISZERO PUSH2 0xC53 JUMPI PUSH2 0x9B4 DUP2 PUSH1 0x40 MLOAD PUSH1 0x20 DUP2 DUP9 MLOAD PUSH2 0x9A5 DUP2 DUP4 DUP11 PUSH2 0x1D47 JUMP JUMPDEST DUP2 ADD PUSH1 0x2 DUP2 MSTORE SUB ADD SWAP1 KECCAK256 PUSH2 0x1E43 JUMP JUMPDEST POP PUSH1 0x40 MLOAD PUSH2 0x9D8 DUP2 PUSH2 0x9CA PUSH1 0x20 DUP3 ADD DUP1 SWAP6 PUSH2 0x20FD JUMP JUMPDEST SUB PUSH1 0x1F NOT DUP2 ADD DUP4 MSTORE DUP3 PUSH2 0x1C9F JUMP JUMPDEST MLOAD SWAP1 KECCAK256 PUSH1 0x40 MLOAD PUSH1 0x20 DUP2 ADD SWAP1 PUSH2 0xA05 PUSH1 0x20 DUP3 DUP9 MLOAD PUSH2 0x9F8 DUP2 DUP8 DUP6 DUP14 ADD PUSH2 0x1D47 JUMP JUMPDEST DUP2 ADD SUB DUP1 DUP5 MSTORE ADD DUP3 PUSH2 0x1C9F JUMP JUMPDEST MLOAD SWAP1 KECCAK256 EQ PUSH2 0xA1B JUMPI PUSH2 0xA16 SWAP1 PUSH2 0x20EE JUMP JUMPDEST PUSH2 0x969 JUMP JUMPDEST POP SWAP1 SWAP2 SWAP3 POP PUSH1 0x1 JUMPDEST ISZERO PUSH2 0xC03 JUMPI PUSH1 0x20 PUSH2 0xA3F SWAP2 PUSH1 0x40 MLOAD DUP1 SWAP4 DUP2 SWAP3 DUP8 MLOAD SWAP3 DUP4 SWAP2 PUSH2 0x1D47 JUMP JUMPDEST DUP2 ADD PUSH1 0x2 DUP2 MSTORE SUB ADD SWAP1 KECCAK256 SWAP1 PUSH1 0x0 JUMPDEST DUP3 SLOAD SWAP1 DUP2 DUP2 LT ISZERO PUSH2 0xB9F JUMPI PUSH2 0xA62 DUP2 DUP6 PUSH2 0x1E43 JUMP JUMPDEST POP PUSH1 0x40 MLOAD PUSH2 0xA78 DUP2 PUSH2 0x9CA PUSH1 0x20 DUP3 ADD DUP1 SWAP6 PUSH2 0x20FD JUMP JUMPDEST MLOAD SWAP1 KECCAK256 PUSH1 0x40 MLOAD PUSH1 0x20 DUP2 ADD SWAP1 PUSH2 0xA98 PUSH1 0x20 DUP3 DUP9 MLOAD PUSH2 0x9F8 DUP2 DUP8 DUP6 DUP14 ADD PUSH2 0x1D47 JUMP JUMPDEST MLOAD SWAP1 KECCAK256 EQ PUSH2 0xAB0 JUMPI JUMPDEST PUSH2 0xAAB SWAP2 POP PUSH2 0x20EE JUMP JUMPDEST PUSH2 0xA4D JUMP JUMPDEST PUSH1 0x0 NOT SWAP2 DUP1 DUP4 ADD SWAP1 DUP2 GT PUSH2 0xB89 JUMPI PUSH2 0xAC8 SWAP1 DUP6 PUSH2 0x1E43 JUMP JUMPDEST POP PUSH2 0xAD3 DUP3 DUP7 PUSH2 0x1E43 JUMP JUMPDEST SWAP2 SWAP1 SWAP2 PUSH2 0xB5D JUMPI PUSH2 0xAE3 SWAP2 PUSH2 0x2180 JUMP JUMPDEST DUP4 SLOAD SWAP2 DUP3 ISZERO PUSH2 0xB73 JUMPI PUSH2 0xAF8 DUP2 DUP5 ADD DUP7 PUSH2 0x1E43 JUMP JUMPDEST SWAP4 SWAP1 SWAP4 PUSH2 0xB5D JUMPI DUP4 PUSH2 0xB0D PUSH2 0xAAB SWAP6 SLOAD PUSH2 0x1E71 JUMP JUMPDEST SWAP1 DUP2 PUSH2 0xB1E JUMPI JUMPDEST POP POP ADD DUP5 SSTORE PUSH2 0xAA1 JUMP JUMPDEST PUSH1 0x0 SWAP2 PUSH1 0x1F DUP1 DUP3 GT PUSH1 0x1 EQ PUSH2 0xB38 JUMPI POP POP SSTORE JUMPDEST DUP9 DUP1 PUSH2 0xB14 JUMP JUMPDEST SWAP2 PUSH2 0xB56 DUP5 SWAP3 SWAP4 DUP3 DUP5 MSTORE PUSH1 0x20 DUP5 KECCAK256 SWAP5 ADD PUSH1 0x5 SHR DUP5 ADD PUSH1 0x1 DUP6 ADD PUSH2 0x1EAB JUMP JUMPDEST SSTORE SSTORE PUSH2 0xB31 JUMP JUMPDEST PUSH4 0x4E487B71 PUSH1 0xE0 SHL PUSH1 0x0 MSTORE PUSH1 0x0 PUSH1 0x4 MSTORE PUSH1 0x24 PUSH1 0x0 REVERT JUMPDEST PUSH4 0x4E487B71 PUSH1 0xE0 SHL PUSH1 0x0 MSTORE PUSH1 0x31 PUSH1 0x4 MSTORE PUSH1 0x24 PUSH1 0x0 REVERT JUMPDEST PUSH4 0x4E487B71 PUSH1 0xE0 SHL PUSH1 0x0 MSTORE PUSH1 0x11 PUSH1 0x4 MSTORE PUSH1 0x24 PUSH1 0x0 REVERT JUMPDEST DUP5 DUP7 PUSH2 0xBDB PUSH2 0x434 PUSH2 0xBD5 DUP8 PUSH2 0x78C DUP2 PUSH1 0x40 MLOAD PUSH1 0x20 DUP2 DUP2 PUSH2 0xBC6 DUP12 DUP4 DUP2 MLOAD SWAP4 DUP5 SWAP3 ADD PUSH2 0x1D47 JUMP JUMPDEST DUP2 ADD PUSH1 0x2 DUP2 MSTORE SUB ADD SWAP1 KECCAK256 PUSH2 0x1FD0 JUMP JUMPDEST SWAP4 PUSH2 0x2002 JUMP JUMPDEST SWAP2 PUSH32 0x80D739977BB0030FD7E876DC1CA9A667ADFC1B71FEA4820C4266DE2EE6D6C657 PUSH1 0x0 DUP1 LOG4 STOP JUMPDEST PUSH1 0x40 MLOAD PUSH3 0x461BCD PUSH1 0xE5 SHL DUP2 MSTORE PUSH1 0x20 PUSH1 0x4 DUP3 ADD MSTORE PUSH1 0x22 PUSH1 0x24 DUP3 ADD MSTORE PUSH32 0x4F6C64206F776E657220646F6573206E6F74206F776E20746869732074757274 PUSH1 0x44 DUP3 ADD MSTORE PUSH2 0x6C65 PUSH1 0xF0 SHL PUSH1 0x64 DUP3 ADD MSTORE PUSH1 0x84 SWAP1 REVERT JUMPDEST POP SWAP1 SWAP2 SWAP3 PUSH2 0xA23 JUMP JUMPDEST PUSH1 0x40 MLOAD PUSH3 0x461BCD PUSH1 0xE5 SHL DUP2 MSTORE PUSH1 0x20 PUSH1 0x4 DUP3 ADD MSTORE PUSH1 0x22 PUSH1 0x24 DUP3 ADD MSTORE PUSH32 0x4F6C64206F776E657220646F6573206E6F74206F776E20616E7920747572746C PUSH1 0x44 DUP3 ADD MSTORE PUSH2 0x6573 PUSH1 0xF0 SHL PUSH1 0x64 DUP3 ADD MSTORE PUSH1 0x84 SWAP1 REVERT JUMPDEST PUSH1 0x40 MLOAD PUSH3 0x461BCD PUSH1 0xE5 SHL DUP2 MSTORE PUSH1 0x20 PUSH1 0x4 DUP3 ADD MSTORE PUSH1 0x15 PUSH1 0x24 DUP3 ADD MSTORE PUSH21 0x151D5C9D1B1948191BD95CC81B9BDD08195E1A5CDD PUSH1 0x5A SHL PUSH1 0x44 DUP3 ADD MSTORE PUSH1 0x64 SWAP1 REVERT JUMPDEST CALLVALUE PUSH2 0x791 JUMPI PUSH1 0x0 CALLDATASIZE PUSH1 0x3 NOT ADD SLT PUSH2 0x791 JUMPI PUSH1 0x0 SLOAD PUSH1 0x40 MLOAD PUSH1 0x1 PUSH1 0x1 PUSH1 0xA0 SHL SUB SWAP1 SWAP2 AND DUP2 MSTORE PUSH1 0x20 SWAP1 RETURN JUMPDEST CALLVALUE PUSH2 0x791 JUMPI PUSH1 0x0 CALLDATASIZE PUSH1 0x3 NOT ADD SLT PUSH2 0x791 JUMPI PUSH2 0xD2B PUSH2 0x1D9F JUMP JUMPDEST PUSH1 0x0 DUP1 SLOAD PUSH1 0x1 PUSH1 0x1 PUSH1 0xA0 SHL SUB NOT DUP2 AND DUP3 SSTORE PUSH1 0x1 PUSH1 0x1 PUSH1 0xA0 SHL SUB AND PUSH32 0x8BE0079C531659141344CD1FD0A4F28419497F9722A3DAAFE3B4186F6B6457E0 DUP3 DUP1 LOG3 STOP JUMPDEST CALLVALUE PUSH2 0x791 JUMPI PUSH2 0x120 CALLDATASIZE PUSH1 0x3 NOT ADD SLT PUSH2 0x791 JUMPI PUSH1 0x1 PUSH1 0x1 PUSH1 0x40 SHL SUB PUSH1 0x4 CALLDATALOAD DUP2 DUP2 GT PUSH2 0x791 JUMPI PUSH2 0xD9D SWAP1 CALLDATASIZE SWAP1 PUSH1 0x4 ADD PUSH2 0x1CC0 JUMP JUMPDEST SWAP1 PUSH1 0x24 CALLDATALOAD DUP2 DUP2 GT PUSH2 0x791 JUMPI PUSH2 0xDB6 SWAP1 CALLDATASIZE SWAP1 PUSH1 0x4 ADD PUSH2 0x1CC0 JUMP JUMPDEST SWAP1 PUSH1 0x64 CALLDATALOAD DUP2 DUP2 GT PUSH2 0x791 JUMPI PUSH2 0xDCF SWAP1 CALLDATASIZE SWAP1 PUSH1 0x4 ADD PUSH2 0x1CC0 JUMP JUMPDEST PUSH2 0xDD7 PUSH2 0x1D8F JUMP JUMPDEST SWAP4 PUSH1 0xA4 CALLDATALOAD DUP4 DUP2 GT PUSH2 0x791 JUMPI PUSH2 0xDF0 SWAP1 CALLDATASIZE SWAP1 PUSH1 0x4 ADD PUSH2 0x1CC0 JUMP JUMPDEST SWAP2 PUSH1 0xC4 CALLDATALOAD DUP5 DUP2 GT PUSH2 0x791 JUMPI PUSH2 0xE09 SWAP1 CALLDATASIZE SWAP1 PUSH1 0x4 ADD PUSH2 0x1CC0 JUMP JUMPDEST SWAP3 PUSH1 0xE4 CALLDATALOAD DUP6 DUP2 GT PUSH2 0x791 JUMPI PUSH2 0xE22 SWAP1 CALLDATASIZE SWAP1 PUSH1 0x4 ADD PUSH2 0x1CC0 JUMP JUMPDEST SWAP7 PUSH2 0x104 CALLDATALOAD SWAP6 DUP7 GT PUSH2 0x791 JUMPI PUSH1 0x20 SWAP8 PUSH2 0xF6F PUSH2 0x434 SWAP7 PUSH2 0xF37 DUP11 SWAP6 PUSH2 0xFA5 SWAP6 PUSH2 0xEBB PUSH2 0x78C SWAP10 DUP16 PUSH2 0xE9A PUSH2 0xFDB SWAP16 SWAP2 DUP15 PUSH2 0x268 PUSH2 0xE65 PUSH1 0x2 SWAP6 CALLDATASIZE SWAP1 PUSH1 0x4 ADD PUSH2 0x1CC0 JUMP JUMPDEST SWAP15 DUP6 PUSH1 0x40 MLOAD DUP6 DUP2 DUP7 MLOAD PUSH2 0xE7B DUP2 DUP4 DUP6 DUP12 ADD PUSH2 0x1D47 JUMP JUMPDEST PUSH1 0x1 DUP2 DUP4 ADD MSTORE DUP2 ADD SUB ADD SWAP1 KECCAK256 ADD PUSH1 0x44 CALLDATALOAD PUSH1 0x0 MSTORE DUP5 MSTORE PUSH1 0x40 PUSH1 0x0 KECCAK256 PUSH2 0x1F09 JUMP JUMPDEST DUP2 ADD PUSH1 0x1 DUP2 MSTORE SUB ADD SWAP1 KECCAK256 ADD PUSH1 0x44 CALLDATALOAD PUSH1 0x0 MSTORE PUSH1 0x20 MSTORE PUSH1 0x1 PUSH1 0x40 PUSH1 0x0 KECCAK256 ADD PUSH2 0x1F09 JUMP JUMPDEST PUSH1 0x2 PUSH2 0xED5 DUP16 DUP13 DUP2 PUSH1 0x40 MLOAD SWAP4 DUP3 DUP6 DUP1 SWAP5 MLOAD SWAP4 DUP5 SWAP3 ADD PUSH2 0x1D47 JUMP JUMPDEST DUP2 ADD PUSH1 0x1 DUP2 MSTORE SUB ADD SWAP1 KECCAK256 ADD PUSH1 0x44 CALLDATALOAD PUSH1 0x0 MSTORE DUP15 MSTORE PUSH1 0xFF PUSH1 0x2 PUSH1 0x40 PUSH1 0x0 KECCAK256 ADD SWAP2 AND PUSH1 0xFF NOT DUP3 SLOAD AND OR SWAP1 SSTORE PUSH1 0x2 PUSH2 0xF17 DUP15 DUP12 DUP2 PUSH1 0x40 MLOAD SWAP4 DUP3 DUP6 DUP1 SWAP5 MLOAD SWAP4 DUP5 SWAP3 ADD PUSH2 0x1D47 JUMP JUMPDEST DUP2 ADD PUSH1 0x1 DUP2 MSTORE SUB ADD SWAP1 KECCAK256 ADD PUSH1 0x44 CALLDATALOAD PUSH1 0x0 MSTORE DUP14 MSTORE PUSH1 0x3 PUSH1 0x40 PUSH1 0x0 KECCAK256 ADD PUSH2 0x1F09 JUMP JUMPDEST PUSH1 0x2 PUSH1 0x40 MLOAD DUP13 DUP2 DUP2 PUSH2 0xF4F DUP13 DUP4 DUP2 MLOAD SWAP4 DUP5 SWAP3 ADD PUSH2 0x1D47 JUMP JUMPDEST DUP2 ADD PUSH1 0x1 DUP2 MSTORE SUB ADD SWAP1 KECCAK256 ADD PUSH1 0x44 CALLDATALOAD PUSH1 0x0 MSTORE DUP12 MSTORE PUSH1 0x4 PUSH1 0x40 PUSH1 0x0 KECCAK256 ADD PUSH2 0x1F09 JUMP JUMPDEST PUSH1 0x2 PUSH1 0x40 MLOAD DUP11 DUP2 DUP9 MLOAD PUSH2 0xF85 DUP2 DUP4 DUP6 DUP14 ADD PUSH2 0x1D47 JUMP JUMPDEST DUP2 ADD PUSH1 0x1 DUP2 MSTORE SUB ADD SWAP1 KECCAK256 ADD PUSH1 0x44 CALLDATALOAD PUSH1 0x0 MSTORE DUP10 MSTORE PUSH1 0x5 PUSH1 0x40 PUSH1 0x0 KECCAK256 ADD PUSH2 0x1F09 JUMP JUMPDEST PUSH1 0x2 PUSH1 0x40 MLOAD DUP9 DUP2 DUP7 MLOAD PUSH2 0xFBB DUP2 DUP4 DUP6 DUP12 ADD PUSH2 0x1D47 JUMP JUMPDEST DUP2 ADD PUSH1 0x1 DUP2 MSTORE SUB ADD SWAP1 KECCAK256 ADD PUSH1 0x44 CALLDATALOAD PUSH1 0x0 MSTORE DUP8 MSTORE PUSH1 0x6 PUSH1 0x40 PUSH1 0x0 KECCAK256 ADD PUSH2 0x1F09 JUMP JUMPDEST SWAP1 PUSH1 0x40 MLOAD SWAP2 PUSH1 0x44 CALLDATALOAD SWAP2 PUSH32 0xBF4FF8EFB9C111A99679D7A6A4263272C5FA30A2FA39BEC8F6E4CE26902FC0BE PUSH1 0x0 DUP1 LOG4 PUSH1 0x44 CALLDATALOAD DUP2 MSTORE RETURN JUMPDEST CALLVALUE PUSH2 0x791 JUMPI PUSH1 0x20 PUSH2 0x109B PUSH2 0x1023 CALLDATASIZE PUSH2 0x1D16 JUMP JUMPDEST SWAP3 SWAP1 PUSH1 0x60 PUSH2 0x1A0 PUSH1 0x40 MLOAD PUSH2 0x1036 DUP2 PUSH2 0x1C83 JUMP JUMPDEST DUP3 DUP2 MSTORE PUSH1 0x0 DUP6 DUP3 ADD MSTORE DUP3 PUSH1 0x40 DUP3 ADD MSTORE DUP3 DUP1 DUP3 ADD MSTORE DUP3 PUSH1 0x80 DUP3 ADD MSTORE DUP3 PUSH1 0xA0 DUP3 ADD MSTORE DUP3 PUSH1 0xC0 DUP3 ADD MSTORE DUP3 PUSH1 0xE0 DUP3 ADD MSTORE DUP3 PUSH2 0x100 DUP3 ADD MSTORE PUSH1 0x0 PUSH2 0x120 DUP3 ADD MSTORE DUP3 PUSH2 0x140 DUP3 ADD MSTORE DUP3 PUSH2 0x160 DUP3 ADD MSTORE DUP3 PUSH2 0x180 DUP3 ADD MSTORE ADD MSTORE DUP2 PUSH1 0x40 MLOAD SWAP4 DUP3 DUP6 DUP1 SWAP5 MLOAD SWAP4 DUP5 SWAP3 ADD PUSH2 0x1D47 JUMP JUMPDEST DUP2 ADD PUSH1 0x1 DUP2 MSTORE SUB ADD SWAP1 KECCAK256 SWAP1 PUSH1 0x0 MSTORE PUSH1 0x20 MSTORE PUSH2 0x120B PUSH1 0x40 PUSH1 0x0 KECCAK256 PUSH2 0x119D PUSH1 0xD PUSH1 0x40 MLOAD SWAP3 PUSH2 0x10C6 DUP5 PUSH2 0x1C83 JUMP JUMPDEST PUSH2 0x10CF DUP2 PUSH2 0x2022 JUMP JUMPDEST DUP5 MSTORE PUSH1 0xFF PUSH1 0x1 DUP3 ADD SLOAD AND PUSH1 0x20 DUP6 ADD MSTORE PUSH2 0x10EA PUSH1 0x2 DUP3 ADD PUSH2 0x2022 JUMP JUMPDEST PUSH1 0x40 DUP6 ADD MSTORE PUSH2 0x10FB PUSH1 0x3 DUP3 ADD PUSH2 0x2022 JUMP JUMPDEST PUSH1 0x60 DUP6 ADD MSTORE PUSH2 0x110C PUSH1 0x4 DUP3 ADD PUSH2 0x2022 JUMP JUMPDEST PUSH1 0x80 DUP6 ADD MSTORE PUSH2 0x111D PUSH1 0x5 DUP3 ADD PUSH2 0x2022 JUMP JUMPDEST PUSH1 0xA0 DUP6 ADD MSTORE PUSH2 0x112E PUSH1 0x6 DUP3 ADD PUSH2 0x2022 JUMP JUMPDEST PUSH1 0xC0 DUP6 ADD MSTORE PUSH2 0x113F PUSH1 0x7 DUP3 ADD PUSH2 0x2022 JUMP JUMPDEST PUSH1 0xE0 DUP6 ADD MSTORE PUSH2 0x1150 PUSH1 0x8 DUP3 ADD PUSH2 0x2022 JUMP JUMPDEST PUSH2 0x100 DUP6 ADD MSTORE PUSH1 0x9 DUP2 ADD SLOAD PUSH2 0x120 DUP6 ADD MSTORE PUSH2 0x116D PUSH1 0xA DUP3 ADD PUSH2 0x2022 JUMP JUMPDEST PUSH2 0x140 DUP6 ADD MSTORE PUSH2 0x117F PUSH1 0xB DUP3 ADD PUSH2 0x2022 JUMP JUMPDEST PUSH2 0x160 DUP6 ADD MSTORE PUSH2 0x1191 PUSH1 0xC DUP3 ADD PUSH2 0x2022 JUMP JUMPDEST PUSH2 0x180 DUP6 ADD MSTORE ADD PUSH2 0x2022 JUMP JUMPDEST PUSH2 0x1A0 DUP3 ADD MSTORE PUSH2 0x12FB DUP2 PUSH2 0x1A0 PUSH2 0x12E6 PUSH2 0x12D0 PUSH2 0x12B8 PUSH2 0x1294 PUSH2 0x127C PUSH2 0x1265 PUSH2 0x124F PUSH2 0x1239 PUSH2 0x1223 PUSH1 0x40 MLOAD SWAP14 DUP15 SWAP14 DUP15 PUSH1 0x20 DUP2 MSTORE PUSH1 0x40 PUSH2 0x11EA DUP4 MLOAD PUSH2 0x1C0 PUSH1 0x20 DUP6 ADD MSTORE PUSH2 0x1E0 DUP5 ADD SWAP1 PUSH2 0x1D6A JUMP JUMPDEST SWAP3 PUSH1 0xFF PUSH1 0x20 DUP3 ADD MLOAD AND DUP3 DUP5 ADD MSTORE ADD MLOAD SWAP1 PUSH1 0x60 PUSH1 0x1F NOT DUP3 DUP6 SUB ADD SWAP2 ADD MSTORE PUSH2 0x1D6A JUMP JUMPDEST DUP14 PUSH1 0x60 DUP14 ADD MLOAD SWAP1 PUSH1 0x80 PUSH1 0x1F NOT DUP3 DUP6 SUB ADD SWAP2 ADD MSTORE PUSH2 0x1D6A JUMP JUMPDEST PUSH1 0x80 DUP12 ADD MLOAD DUP14 DUP3 SUB PUSH1 0x1F NOT ADD PUSH1 0xA0 DUP16 ADD MSTORE PUSH2 0x1D6A JUMP JUMPDEST PUSH1 0xA0 DUP11 ADD MLOAD DUP13 DUP3 SUB PUSH1 0x1F NOT ADD PUSH1 0xC0 DUP15 ADD MSTORE PUSH2 0x1D6A JUMP JUMPDEST PUSH1 0xC0 DUP10 ADD MLOAD DUP12 DUP3 SUB PUSH1 0x1F NOT ADD PUSH1 0xE0 DUP14 ADD MSTORE PUSH2 0x1D6A JUMP JUMPDEST PUSH1 0xE0 DUP9 ADD MLOAD DUP11 DUP3 SUB PUSH1 0x1F NOT ADD PUSH2 0x100 DUP13 ADD MSTORE PUSH2 0x1D6A JUMP JUMPDEST PUSH2 0x100 DUP8 ADD MLOAD DUP10 DUP3 SUB PUSH1 0x1F NOT ADD PUSH2 0x120 DUP12 ADD MSTORE PUSH2 0x1D6A JUMP JUMPDEST PUSH2 0x120 DUP7 ADD MLOAD PUSH2 0x140 DUP10 ADD MSTORE PUSH2 0x140 DUP7 ADD MLOAD PUSH1 0x1F NOT DUP10 DUP4 SUB ADD PUSH2 0x160 DUP11 ADD MSTORE PUSH2 0x1D6A JUMP JUMPDEST PUSH2 0x160 DUP6 ADD MLOAD DUP8 DUP3 SUB PUSH1 0x1F NOT ADD PUSH2 0x180 DUP10 ADD MSTORE PUSH2 0x1D6A JUMP JUMPDEST PUSH2 0x180 DUP5 ADD MLOAD DUP7 DUP3 SUB PUSH1 0x1F NOT ADD DUP5 DUP9 ADD MSTORE PUSH2 0x1D6A JUMP JUMPDEST SWAP2 ADD MLOAD DUP4 DUP3 SUB PUSH1 0x1F NOT ADD PUSH2 0x1C0 DUP6 ADD MSTORE PUSH2 0x1D6A JUMP JUMPDEST SUB SWAP1 RETURN JUMPDEST CALLVALUE PUSH2 0x791 JUMPI PUSH1 0x40 CALLDATASIZE PUSH1 0x3 NOT ADD SLT PUSH2 0x791 JUMPI PUSH1 0x1 PUSH1 0x1 PUSH1 0x40 SHL SUB PUSH1 0x4 CALLDATALOAD DUP2 DUP2 GT PUSH2 0x791 JUMPI PUSH2 0x1330 SWAP1 CALLDATASIZE SWAP1 PUSH1 0x4 ADD PUSH2 0x1CC0 JUMP JUMPDEST SWAP1 PUSH1 0x24 CALLDATALOAD SWAP1 DUP2 GT PUSH2 0x791 JUMPI PUSH2 0x434 PUSH2 0x134F PUSH2 0x13BC SWAP3 CALLDATASIZE SWAP1 PUSH1 0x4 ADD PUSH2 0x1CC0 JUMP JUMPDEST SWAP3 PUSH2 0x1358 PUSH2 0x1D9F JUMP JUMPDEST PUSH1 0x5 PUSH2 0x138D PUSH1 0x20 PUSH1 0x40 MLOAD PUSH2 0x137C PUSH1 0xFF DUP6 DUP8 MLOAD SWAP4 DUP6 DUP2 DUP2 DUP12 ADD SWAP7 PUSH2 0x255 DUP2 DUP4 DUP11 PUSH2 0x1D47 JUMP JUMPDEST PUSH1 0x40 MLOAD DUP1 SWAP4 DUP2 SWAP3 DUP8 MLOAD SWAP3 DUP4 SWAP2 PUSH2 0x1D47 JUMP JUMPDEST DUP2 ADD PUSH1 0x1 DUP2 MSTORE SUB ADD SWAP1 KECCAK256 ADD PUSH1 0x1 PUSH1 0xFF NOT DUP3 SLOAD AND OR SWAP1 SSTORE PUSH2 0x78C DUP2 PUSH1 0x40 MLOAD PUSH1 0x20 DUP2 DUP9 MLOAD PUSH2 0xBC6 DUP2 DUP4 DUP6 DUP14 ADD PUSH2 0x1D47 JUMP JUMPDEST SWAP1 PUSH32 0x7D904E478DF0F515C7058DF56A2295C88F46C97F269F153CB964C1574E4AD9E8 PUSH1 0x0 DUP1 LOG3 STOP JUMPDEST CALLVALUE PUSH2 0x791 JUMPI PUSH1 0xE0 CALLDATASIZE PUSH1 0x3 NOT ADD SLT PUSH2 0x791 JUMPI PUSH1 0x1 PUSH1 0x1 PUSH1 0x40 SHL SUB PUSH1 0x4 CALLDATALOAD DUP2 DUP2 GT PUSH2 0x791 JUMPI PUSH2 0x1415 SWAP1 CALLDATASIZE SWAP1 PUSH1 0x4 ADD PUSH2 0x1CC0 JUMP JUMPDEST SWAP1 PUSH1 0x24 CALLDATALOAD DUP2 DUP2 GT PUSH2 0x791 JUMPI PUSH2 0x142E SWAP1 CALLDATASIZE SWAP1 PUSH1 0x4 ADD PUSH2 0x1CC0 JUMP JUMPDEST SWAP1 PUSH1 0x44 CALLDATALOAD SWAP2 PUSH1 0x64 CALLDATALOAD DUP3 DUP2 GT PUSH2 0x791 JUMPI PUSH2 0x144B SWAP1 CALLDATASIZE SWAP1 PUSH1 0x4 ADD PUSH2 0x1CC0 JUMP JUMPDEST SWAP1 PUSH1 0x84 CALLDATALOAD DUP4 DUP2 GT PUSH2 0x791 JUMPI PUSH2 0x1464 SWAP1 CALLDATASIZE SWAP1 PUSH1 0x4 ADD PUSH2 0x1CC0 JUMP JUMPDEST SWAP5 PUSH1 0xA4 CALLDATALOAD DUP5 DUP2 GT PUSH2 0x791 JUMPI PUSH2 0x147D SWAP1 CALLDATASIZE SWAP1 PUSH1 0x4 ADD PUSH2 0x1CC0 JUMP JUMPDEST PUSH1 0xC4 CALLDATALOAD SWAP5 DUP6 GT PUSH2 0x791 JUMPI DUP6 SWAP5 PUSH2 0x1497 SWAP1 CALLDATASIZE SWAP1 PUSH1 0x4 ADD PUSH2 0x1CC0 JUMP JUMPDEST SWAP1 PUSH1 0x40 MLOAD SWAP1 DUP4 MLOAD SWAP1 PUSH1 0x20 SWAP10 DUP11 DUP7 ADD SWAP3 PUSH2 0x14B1 DUP2 DUP7 DUP7 PUSH2 0x1D47 JUMP JUMPDEST DUP5 ADD DUP5 DUP13 PUSH1 0x1 SWAP7 DUP4 DUP9 DUP1 SWAP6 MSTORE SUB ADD SWAP1 KECCAK256 ADD DUP10 PUSH1 0x0 MSTORE DUP12 MSTORE DUP7 PUSH1 0x40 PUSH1 0x0 KECCAK256 SWAP1 PUSH2 0x14D8 SWAP2 PUSH2 0x1F09 JUMP JUMPDEST DUP4 PUSH1 0x40 MLOAD DUP13 DUP2 DUP10 MLOAD PUSH2 0x14EB DUP2 DUP4 DUP11 PUSH2 0x1D47 JUMP JUMPDEST DUP2 ADD DUP5 DUP2 MSTORE SUB ADD SWAP1 KECCAK256 ADD DUP10 PUSH1 0x0 MSTORE DUP12 MSTORE DUP8 PUSH1 0x40 PUSH1 0x0 KECCAK256 PUSH1 0x2 ADD SWAP1 PUSH2 0x150E SWAP2 PUSH2 0x1F09 JUMP JUMPDEST DUP4 PUSH1 0x40 MLOAD DUP13 DUP2 DUP10 MLOAD PUSH2 0x1521 DUP2 DUP4 DUP11 PUSH2 0x1D47 JUMP JUMPDEST DUP2 ADD DUP5 DUP2 MSTORE SUB ADD SWAP1 KECCAK256 ADD DUP10 PUSH1 0x0 MSTORE DUP12 MSTORE PUSH1 0x40 PUSH1 0x0 KECCAK256 PUSH1 0x7 ADD SWAP1 PUSH2 0x1543 SWAP2 PUSH2 0x1F09 JUMP JUMPDEST DUP3 PUSH1 0x40 MLOAD DUP12 DUP2 DUP9 MLOAD PUSH2 0x1556 DUP2 DUP4 DUP10 PUSH2 0x1D47 JUMP JUMPDEST DUP2 ADD DUP5 DUP2 MSTORE SUB ADD SWAP1 KECCAK256 ADD DUP9 PUSH1 0x0 MSTORE DUP11 MSTORE PUSH1 0x40 PUSH1 0x0 KECCAK256 PUSH1 0x8 ADD SWAP1 PUSH2 0x1578 SWAP2 PUSH2 0x1F09 JUMP JUMPDEST DUP9 PUSH1 0x40 MLOAD DUP1 DUP1 SWAP4 DUP8 MLOAD DUP1 SWAP3 PUSH2 0x158C SWAP3 PUSH2 0x1D47 JUMP JUMPDEST DUP2 ADD DUP5 DUP2 MSTORE SUB ADD SWAP1 KECCAK256 ADD DUP6 PUSH1 0x0 MSTORE DUP8 MSTORE PUSH1 0x40 PUSH1 0x0 KECCAK256 PUSH1 0x9 ADD SWAP1 PUSH2 0x15AE SWAP2 PUSH2 0x1F09 JUMP JUMPDEST PUSH2 0x15B7 SWAP1 PUSH2 0x2002 JUMP JUMPDEST SWAP2 PUSH1 0x40 MLOAD SWAP2 DUP3 SWAP2 PUSH2 0x15C8 SWAP2 DUP4 PUSH2 0x20C6 JUMP JUMPDEST SUB PUSH32 0x5900E70E78483B52BBE5C26FE3EDDC846F885A9FE48EFE16ABCDA778278F4F12 SWAP2 LOG3 PUSH1 0x40 MLOAD SWAP1 DUP2 MSTORE RETURN JUMPDEST CALLVALUE PUSH2 0x791 JUMPI PUSH1 0x20 DUP1 PUSH2 0x1646 PUSH1 0x4 PUSH2 0x160A CALLDATASIZE PUSH2 0x1D16 JUMP JUMPDEST SWAP4 DUP5 SWAP4 SWAP2 PUSH1 0x40 MLOAD SWAP1 DUP6 PUSH1 0x3 DUP3 MLOAD SWAP4 DUP6 DUP2 DUP2 DUP7 ADD SWAP7 PUSH2 0x1629 DUP2 DUP4 DUP11 PUSH2 0x1D47 JUMP JUMPDEST DUP2 ADD PUSH1 0x1 DUP2 MSTORE SUB ADD SWAP1 KECCAK256 ADD SSTORE PUSH1 0x40 MLOAD SWAP4 DUP5 SWAP3 DUP4 SWAP3 MLOAD SWAP3 DUP4 SWAP2 PUSH2 0x1D47 JUMP JUMPDEST DUP2 ADD PUSH1 0x1 DUP2 MSTORE SUB ADD SWAP1 KECCAK256 ADD SSTORE PUSH1 0x40 MLOAD SWAP1 DUP2 MSTORE RETURN JUMPDEST CALLVALUE PUSH2 0x791 JUMPI PUSH1 0x20 DUP1 PUSH2 0x1646 PUSH1 0x4 PUSH2 0x1670 CALLDATASIZE PUSH2 0x1D16 JUMP JUMPDEST SWAP4 DUP5 SWAP4 SWAP2 PUSH1 0x40 MLOAD SWAP1 DUP5 DUP2 MLOAD SWAP3 DUP5 DUP2 DUP2 DUP6 ADD SWAP6 PUSH2 0x168D DUP2 DUP4 DUP10 PUSH2 0x1D47 JUMP JUMPDEST DUP2 ADD PUSH1 0x1 DUP2 MSTORE SUB ADD SWAP1 KECCAK256 ADD SLOAD PUSH1 0x3 PUSH1 0x40 MLOAD DUP6 DUP2 DUP6 MLOAD PUSH2 0x1629 DUP2 DUP4 DUP11 PUSH2 0x1D47 JUMP JUMPDEST CALLVALUE PUSH2 0x791 JUMPI PUSH1 0x20 PUSH1 0x1 PUSH2 0x171D PUSH2 0x16C2 CALLDATASIZE PUSH2 0x1D16 JUMP JUMPDEST SWAP4 SWAP1 PUSH1 0x60 PUSH2 0x120 PUSH1 0x40 MLOAD PUSH2 0x16D5 DUP2 PUSH2 0x1C67 JUMP JUMPDEST DUP3 DUP2 MSTORE DUP3 DUP6 DUP3 ADD MSTORE DUP3 PUSH1 0x40 DUP3 ADD MSTORE DUP3 DUP1 DUP3 ADD MSTORE PUSH1 0x0 PUSH1 0x80 DUP3 ADD MSTORE DUP3 PUSH1 0xA0 DUP3 ADD MSTORE DUP3 PUSH1 0xC0 DUP3 ADD MSTORE DUP3 PUSH1 0xE0 DUP3 ADD MSTORE DUP3 PUSH2 0x100 DUP3 ADD MSTORE ADD MSTORE DUP2 PUSH1 0x40 MLOAD SWAP4 DUP3 DUP6 DUP1 SWAP5 MLOAD SWAP4 DUP5 SWAP3 ADD PUSH2 0x1D47 JUMP JUMPDEST DUP2 ADD DUP5 DUP2 MSTORE SUB ADD SWAP1 KECCAK256 ADD SWAP1 PUSH1 0x0 MSTORE PUSH1 0x20 MSTORE PUSH2 0x12FB PUSH1 0x40 PUSH1 0x0 KECCAK256 PUSH2 0x17DE PUSH1 0x9 PUSH1 0x40 MLOAD SWAP3 PUSH2 0x1748 DUP5 PUSH2 0x1C67 JUMP JUMPDEST PUSH2 0x1751 DUP2 PUSH2 0x2022 JUMP JUMPDEST DUP5 MSTORE PUSH2 0x175F PUSH1 0x1 DUP3 ADD PUSH2 0x2022 JUMP JUMPDEST PUSH1 0x20 DUP6 ADD MSTORE PUSH2 0x1770 PUSH1 0x2 DUP3 ADD PUSH2 0x2022 JUMP JUMPDEST PUSH1 0x40 DUP6 ADD MSTORE PUSH2 0x1781 PUSH1 0x3 DUP3 ADD PUSH2 0x2022 JUMP JUMPDEST PUSH1 0x60 DUP6 ADD MSTORE PUSH1 0xFF PUSH1 0x4 DUP3 ADD SLOAD AND PUSH1 0x80 DUP6 ADD MSTORE PUSH2 0x179F PUSH1 0x5 DUP3 ADD PUSH2 0x2022 JUMP JUMPDEST PUSH1 0xA0 DUP6 ADD MSTORE PUSH2 0x17B0 PUSH1 0x6 DUP3 ADD PUSH2 0x2022 JUMP JUMPDEST PUSH1 0xC0 DUP6 ADD MSTORE PUSH2 0x17C1 PUSH1 0x7 DUP3 ADD PUSH2 0x2022 JUMP JUMPDEST PUSH1 0xE0 DUP6 ADD MSTORE PUSH2 0x17D2 PUSH1 0x8 DUP3 ADD PUSH2 0x2022 JUMP JUMPDEST PUSH2 0x100 DUP6 ADD MSTORE ADD PUSH2 0x2022 JUMP JUMPDEST PUSH2 0x120 DUP3 ADD MSTORE PUSH1 0x40 MLOAD SWAP2 DUP3 SWAP2 PUSH1 0x20 DUP4 MSTORE PUSH2 0x120 PUSH2 0x18C7 PUSH2 0x18B1 PUSH2 0x189A PUSH2 0x1884 PUSH2 0x1861 PUSH2 0x184B PUSH2 0x1835 PUSH2 0x181F DUP12 PUSH2 0x140 PUSH1 0x20 DUP13 MLOAD SWAP3 ADD MSTORE PUSH2 0x160 DUP14 ADD SWAP1 PUSH2 0x1D6A JUMP JUMPDEST PUSH1 0x20 DUP11 ADD MLOAD DUP13 DUP3 SUB PUSH1 0x1F NOT ADD PUSH1 0x40 DUP15 ADD MSTORE PUSH2 0x1D6A JUMP JUMPDEST PUSH1 0x40 DUP10 ADD MLOAD DUP12 DUP3 SUB PUSH1 0x1F NOT ADD PUSH1 0x60 DUP14 ADD MSTORE PUSH2 0x1D6A JUMP JUMPDEST PUSH1 0x60 DUP9 ADD MLOAD DUP11 DUP3 SUB PUSH1 0x1F NOT ADD PUSH1 0x80 DUP13 ADD MSTORE PUSH2 0x1D6A JUMP JUMPDEST PUSH1 0xFF PUSH1 0x80 DUP9 ADD MLOAD AND PUSH1 0xA0 DUP11 ADD MSTORE PUSH1 0xA0 DUP8 ADD MLOAD PUSH1 0x1F NOT DUP11 DUP4 SUB ADD PUSH1 0xC0 DUP12 ADD MSTORE PUSH2 0x1D6A JUMP JUMPDEST PUSH1 0xC0 DUP7 ADD MLOAD DUP9 DUP3 SUB PUSH1 0x1F NOT ADD PUSH1 0xE0 DUP11 ADD MSTORE PUSH2 0x1D6A JUMP JUMPDEST PUSH1 0xE0 DUP6 ADD MLOAD DUP8 DUP3 SUB PUSH1 0x1F NOT ADD PUSH2 0x100 DUP10 ADD MSTORE PUSH2 0x1D6A JUMP JUMPDEST PUSH2 0x100 DUP5 ADD MLOAD DUP7 DUP3 SUB PUSH1 0x1F NOT ADD DUP5 DUP9 ADD MSTORE PUSH2 0x1D6A JUMP JUMPDEST SWAP2 ADD MLOAD DUP4 DUP3 SUB PUSH1 0x1F NOT ADD PUSH2 0x140 DUP6 ADD MSTORE PUSH2 0x1D6A JUMP JUMPDEST CALLVALUE PUSH2 0x791 JUMPI PUSH1 0xE0 CALLDATASIZE PUSH1 0x3 NOT ADD SLT PUSH2 0x791 JUMPI PUSH1 0x1 PUSH1 0x1 PUSH1 0x40 SHL SUB PUSH1 0x4 CALLDATALOAD DUP2 DUP2 GT PUSH2 0x791 JUMPI PUSH2 0x190D SWAP1 CALLDATASIZE SWAP1 PUSH1 0x4 ADD PUSH2 0x1CC0 JUMP JUMPDEST SWAP1 PUSH1 0x24 CALLDATALOAD DUP2 DUP2 GT PUSH2 0x791 JUMPI PUSH2 0x1926 SWAP1 CALLDATASIZE SWAP1 PUSH1 0x4 ADD PUSH2 0x1CC0 JUMP JUMPDEST SWAP1 PUSH1 0x44 CALLDATALOAD SWAP2 PUSH1 0x64 CALLDATALOAD DUP3 DUP2 GT PUSH2 0x791 JUMPI PUSH2 0x1943 SWAP1 CALLDATASIZE SWAP1 PUSH1 0x4 ADD PUSH2 0x1CC0 JUMP JUMPDEST SWAP1 PUSH2 0x194C PUSH2 0x1D8F JUMP JUMPDEST SWAP5 PUSH1 0xA4 CALLDATALOAD DUP5 DUP2 GT PUSH2 0x791 JUMPI PUSH2 0x1965 SWAP1 CALLDATASIZE SWAP1 PUSH1 0x4 ADD PUSH2 0x1CC0 JUMP JUMPDEST PUSH1 0xC4 CALLDATALOAD SWAP5 DUP6 GT PUSH2 0x791 JUMPI DUP6 SWAP5 PUSH2 0x197F SWAP1 CALLDATASIZE SWAP1 PUSH1 0x4 ADD PUSH2 0x1CC0 JUMP JUMPDEST SWAP1 PUSH1 0x40 MLOAD SWAP1 DUP4 MLOAD SWAP1 PUSH1 0x20 SWAP10 DUP11 DUP7 ADD SWAP3 PUSH2 0x1999 DUP2 DUP7 DUP7 PUSH2 0x1D47 JUMP JUMPDEST DUP5 ADD DUP5 DUP13 PUSH1 0x1 SWAP7 DUP4 DUP9 DUP1 SWAP6 MSTORE SUB ADD SWAP1 KECCAK256 ADD DUP10 PUSH1 0x0 MSTORE DUP12 MSTORE DUP7 DUP5 PUSH1 0x40 PUSH1 0x0 KECCAK256 ADD SWAP1 PUSH2 0x19C2 SWAP2 PUSH2 0x1F09 JUMP JUMPDEST DUP4 PUSH1 0x40 MLOAD DUP13 DUP2 DUP10 MLOAD PUSH2 0x19D5 DUP2 DUP4 DUP11 PUSH2 0x1D47 JUMP JUMPDEST DUP2 ADD DUP5 DUP2 MSTORE SUB ADD SWAP1 KECCAK256 ADD DUP10 PUSH1 0x0 MSTORE DUP12 MSTORE DUP8 PUSH1 0x40 PUSH1 0x0 KECCAK256 PUSH1 0x3 ADD SWAP1 PUSH2 0x19F8 SWAP2 PUSH2 0x1F09 JUMP JUMPDEST DUP4 PUSH1 0x40 MLOAD DUP13 DUP2 DUP10 MLOAD PUSH2 0x1A0B DUP2 DUP4 DUP11 PUSH2 0x1D47 JUMP JUMPDEST DUP2 ADD DUP5 DUP2 MSTORE SUB ADD SWAP1 KECCAK256 ADD DUP10 PUSH1 0x0 MSTORE DUP12 MSTORE PUSH1 0x40 PUSH1 0x0 KECCAK256 PUSH1 0x4 ADD SWAP1 PUSH1 0xFF AND PUSH1 0xFF NOT DUP3 SLOAD AND OR SWAP1 SSTORE DUP3 PUSH1 0x40 MLOAD DUP12 DUP2 DUP9 MLOAD PUSH2 0x1A43 DUP2 DUP4 DUP10 PUSH2 0x1D47 JUMP JUMPDEST DUP2 ADD DUP5 DUP2 MSTORE SUB ADD SWAP1 KECCAK256 ADD DUP9 PUSH1 0x0 MSTORE DUP11 MSTORE PUSH1 0x40 PUSH1 0x0 KECCAK256 PUSH1 0x5 ADD SWAP1 PUSH2 0x1A65 SWAP2 PUSH2 0x1F09 JUMP JUMPDEST DUP9 PUSH1 0x40 MLOAD DUP1 DUP1 SWAP4 DUP8 MLOAD DUP1 SWAP3 PUSH2 0x1A79 SWAP3 PUSH2 0x1D47 JUMP JUMPDEST DUP2 ADD DUP5 DUP2 MSTORE SUB ADD SWAP1 KECCAK256 ADD DUP6 PUSH1 0x0 MSTORE DUP8 MSTORE PUSH1 0x40 PUSH1 0x0 KECCAK256 PUSH1 0x6 ADD SWAP1 PUSH2 0x15AE SWAP2 PUSH2 0x1F09 JUMP JUMPDEST CALLVALUE PUSH2 0x791 JUMPI PUSH2 0x1AA9 CALLDATASIZE PUSH2 0x1D16 JUMP JUMPDEST PUSH1 0x40 MLOAD SWAP1 PUSH2 0x1AB6 DUP3 PUSH2 0x1C36 JUMP JUMPDEST PUSH1 0x60 DUP3 DUP2 DUP1 SWAP5 MSTORE PUSH1 0x20 SWAP5 DUP3 DUP3 DUP8 SWAP5 DUP6 DUP1 SWAP6 ADD MSTORE PUSH1 0x40 DUP2 ADD PUSH1 0x0 SWAP1 MSTORE DUP2 DUP1 DUP3 ADD MSTORE DUP2 PUSH1 0x80 DUP3 ADD MSTORE DUP2 PUSH1 0xA0 DUP3 ADD MSTORE PUSH1 0xC0 ADD MSTORE PUSH1 0x40 MLOAD SWAP3 DUP4 DUP3 DUP2 SWAP4 MLOAD SWAP3 DUP4 SWAP2 ADD SWAP2 PUSH2 0x1AFD SWAP3 PUSH2 0x1D47 JUMP JUMPDEST DUP2 ADD PUSH1 0x1 DUP2 MSTORE SUB ADD SWAP1 KECCAK256 PUSH1 0x2 ADD SWAP1 PUSH1 0x0 MSTORE DUP3 MSTORE PUSH1 0x40 PUSH1 0x0 KECCAK256 PUSH1 0x40 MLOAD SWAP2 PUSH2 0x1B22 DUP4 PUSH2 0x1C36 JUMP JUMPDEST PUSH2 0x1B2B DUP3 PUSH2 0x2022 JUMP JUMPDEST DUP4 MSTORE PUSH2 0x1B39 PUSH1 0x1 DUP4 ADD PUSH2 0x2022 JUMP JUMPDEST SWAP2 DUP5 DUP5 ADD SWAP3 DUP4 MSTORE PUSH1 0x2 DUP2 ADD SLOAD PUSH1 0xFF AND PUSH1 0x40 DUP6 ADD SWAP1 DUP2 MSTORE PUSH1 0x3 DUP3 ADD PUSH2 0x1B5C SWAP1 PUSH2 0x2022 JUMP JUMPDEST DUP6 DUP5 ADD SWAP1 DUP2 MSTORE SWAP1 PUSH2 0x1B6F PUSH1 0x4 DUP5 ADD PUSH2 0x2022 JUMP JUMPDEST PUSH1 0x80 DUP8 ADD SWAP1 DUP2 MSTORE SWAP2 PUSH2 0x1B83 PUSH1 0x5 DUP6 ADD PUSH2 0x2022 JUMP JUMPDEST SWAP4 PUSH1 0xA0 DUP9 ADD SWAP5 DUP6 MSTORE PUSH1 0x6 ADD PUSH2 0x1B97 SWAP1 PUSH2 0x2022 JUMP JUMPDEST SWAP5 PUSH1 0xC0 DUP9 ADD SWAP6 DUP7 MSTORE PUSH1 0x40 MLOAD SWAP9 DUP10 SWAP9 DUP2 DUP11 MSTORE MLOAD SWAP1 DUP10 ADD PUSH1 0xE0 SWAP1 MSTORE PUSH2 0x100 DUP10 ADD PUSH2 0x1BBE SWAP2 PUSH2 0x1D6A JUMP JUMPDEST SWAP7 MLOAD PUSH1 0x1F NOT SWAP8 DUP9 DUP11 DUP3 SUB ADD PUSH1 0x40 DUP12 ADD MSTORE PUSH2 0x1BD7 SWAP2 PUSH2 0x1D6A JUMP JUMPDEST SWAP3 MLOAD PUSH1 0xFF AND SWAP1 DUP9 ADD MSTORE MLOAD SWAP1 DUP6 DUP8 DUP3 SUB ADD PUSH1 0x80 DUP9 ADD MSTORE PUSH2 0x1BF5 SWAP2 PUSH2 0x1D6A JUMP JUMPDEST SWAP1 MLOAD SWAP1 DUP5 DUP7 DUP3 SUB ADD PUSH1 0xA0 DUP8 ADD MSTORE PUSH2 0x1C0B SWAP2 PUSH2 0x1D6A JUMP JUMPDEST SWAP1 MLOAD SWAP1 DUP4 DUP6 DUP3 SUB ADD PUSH1 0xC0 DUP7 ADD MSTORE PUSH2 0x1C21 SWAP2 PUSH2 0x1D6A JUMP JUMPDEST SWAP1 MLOAD SWAP2 DUP4 DUP3 SUB ADD PUSH1 0xE0 DUP5 ADD MSTORE PUSH2 0x12FB SWAP2 PUSH2 0x1D6A JUMP JUMPDEST PUSH1 0xE0 DUP2 ADD SWAP1 DUP2 LT PUSH1 0x1 PUSH1 0x1 PUSH1 0x40 SHL SUB DUP3 GT OR PUSH2 0x1C51 JUMPI PUSH1 0x40 MSTORE JUMP JUMPDEST PUSH4 0x4E487B71 PUSH1 0xE0 SHL PUSH1 0x0 MSTORE PUSH1 0x41 PUSH1 0x4 MSTORE PUSH1 0x24 PUSH1 0x0 REVERT JUMPDEST PUSH2 0x140 DUP2 ADD SWAP1 DUP2 LT PUSH1 0x1 PUSH1 0x1 PUSH1 0x40 SHL SUB DUP3 GT OR PUSH2 0x1C51 JUMPI PUSH1 0x40 MSTORE JUMP JUMPDEST PUSH2 0x1C0 DUP2 ADD SWAP1 DUP2 LT PUSH1 0x1 PUSH1 0x1 PUSH1 0x40 SHL SUB DUP3 GT OR PUSH2 0x1C51 JUMPI PUSH1 0x40 MSTORE JUMP JUMPDEST SWAP1 PUSH1 0x1F DUP1 NOT SWAP2 ADD AND DUP2 ADD SWAP1 DUP2 LT PUSH1 0x1 PUSH1 0x1 PUSH1 0x40 SHL SUB DUP3 GT OR PUSH2 0x1C51 JUMPI PUSH1 0x40 MSTORE JUMP JUMPDEST DUP2 PUSH1 0x1F DUP3 ADD SLT ISZERO PUSH2 0x791 JUMPI DUP1 CALLDATALOAD SWAP1 PUSH1 0x1 PUSH1 0x1 PUSH1 0x40 SHL SUB DUP3 GT PUSH2 0x1C51 JUMPI PUSH1 0x40 MLOAD SWAP3 PUSH2 0x1CF4 PUSH1 0x1F DUP5 ADD PUSH1 0x1F NOT AND PUSH1 0x20 ADD DUP6 PUSH2 0x1C9F JUMP JUMPDEST DUP3 DUP5 MSTORE PUSH1 0x20 DUP4 DUP4 ADD ADD GT PUSH2 0x791 JUMPI DUP2 PUSH1 0x0 SWAP3 PUSH1 0x20 DUP1 SWAP4 ADD DUP4 DUP7 ADD CALLDATACOPY DUP4 ADD ADD MSTORE SWAP1 JUMP JUMPDEST PUSH1 0x40 PUSH1 0x3 NOT DUP3 ADD SLT PUSH2 0x791 JUMPI PUSH1 0x4 CALLDATALOAD SWAP1 PUSH1 0x1 PUSH1 0x1 PUSH1 0x40 SHL SUB DUP3 GT PUSH2 0x791 JUMPI PUSH2 0x1D40 SWAP2 PUSH1 0x4 ADD PUSH2 0x1CC0 JUMP JUMPDEST SWAP1 PUSH1 0x24 CALLDATALOAD SWAP1 JUMP JUMPDEST PUSH1 0x0 JUMPDEST DUP4 DUP2 LT PUSH2 0x1D5A JUMPI POP POP PUSH1 0x0 SWAP2 ADD MSTORE JUMP JUMPDEST DUP2 DUP2 ADD MLOAD DUP4 DUP3 ADD MSTORE PUSH1 0x20 ADD PUSH2 0x1D4A JUMP JUMPDEST SWAP1 PUSH1 0x20 SWAP2 PUSH2 0x1D83 DUP2 MLOAD DUP1 SWAP3 DUP2 DUP6 MSTORE DUP6 DUP1 DUP7 ADD SWAP2 ADD PUSH2 0x1D47 JUMP JUMPDEST PUSH1 0x1F ADD PUSH1 0x1F NOT AND ADD ADD SWAP1 JUMP JUMPDEST PUSH1 0x84 CALLDATALOAD SWAP1 PUSH1 0xFF DUP3 AND DUP3 SUB PUSH2 0x791 JUMPI JUMP JUMPDEST PUSH1 0x0 SLOAD PUSH1 0x1 PUSH1 0x1 PUSH1 0xA0 SHL SUB AND CALLER SUB PUSH2 0x1DB3 JUMPI JUMP JUMPDEST PUSH1 0x64 PUSH1 0x40 MLOAD PUSH3 0x461BCD PUSH1 0xE5 SHL DUP2 MSTORE PUSH1 0x20 PUSH1 0x4 DUP3 ADD MSTORE PUSH1 0x20 PUSH1 0x24 DUP3 ADD MSTORE PUSH32 0x4F776E61626C653A2063616C6C6572206973206E6F7420746865206F776E6572 PUSH1 0x44 DUP3 ADD MSTORE REVERT JUMPDEST ISZERO PUSH2 0x1DFE JUMPI JUMP JUMPDEST PUSH1 0x40 MLOAD PUSH3 0x461BCD PUSH1 0xE5 SHL DUP2 MSTORE PUSH1 0x20 PUSH1 0x4 DUP3 ADD MSTORE PUSH1 0x19 PUSH1 0x24 DUP3 ADD MSTORE PUSH32 0x547572746C6520616C7265616479207265676973746572656400000000000000 PUSH1 0x44 DUP3 ADD MSTORE PUSH1 0x64 SWAP1 REVERT JUMPDEST DUP1 SLOAD DUP3 LT ISZERO PUSH2 0x1E5B JUMPI PUSH1 0x0 MSTORE PUSH1 0x20 PUSH1 0x0 KECCAK256 ADD SWAP1 PUSH1 0x0 SWAP1 JUMP JUMPDEST PUSH4 0x4E487B71 PUSH1 0xE0 SHL PUSH1 0x0 MSTORE PUSH1 0x32 PUSH1 0x4 MSTORE PUSH1 0x24 PUSH1 0x0 REVERT JUMPDEST SWAP1 PUSH1 0x1 DUP3 DUP2 SHR SWAP3 AND DUP1 ISZERO PUSH2 0x1EA1 JUMPI JUMPDEST PUSH1 0x20 DUP4 LT EQ PUSH2 0x1E8B JUMPI JUMP JUMPDEST PUSH4 0x4E487B71 PUSH1 0xE0 SHL PUSH1 0x0 MSTORE PUSH1 0x22 PUSH1 0x4 MSTORE PUSH1 0x24 PUSH1 0x0 REVERT JUMPDEST SWAP2 PUSH1 0x7F AND SWAP2 PUSH2 0x1E80 JUMP JUMPDEST DUP2 DUP2 LT PUSH2 0x1EB6 JUMPI POP POP JUMP JUMPDEST PUSH1 0x0 DUP2 SSTORE PUSH1 0x1 ADD PUSH2 0x1EAB JUMP JUMPDEST SWAP2 SWAP1 PUSH1 0x1F DUP2 GT PUSH2 0x1ED1 JUMPI POP POP POP JUMP JUMPDEST PUSH2 0x1EFD SWAP3 PUSH1 0x0 MSTORE PUSH1 0x20 PUSH1 0x0 KECCAK256 SWAP1 PUSH1 0x20 PUSH1 0x1F DUP5 ADD PUSH1 0x5 SHR DUP4 ADD SWAP4 LT PUSH2 0x1EFF JUMPI JUMPDEST PUSH1 0x1F ADD PUSH1 0x5 SHR ADD SWAP1 PUSH2 0x1EAB JUMP JUMPDEST JUMP JUMPDEST SWAP1 SWAP2 POP DUP2 SWAP1 PUSH2 0x1EF0 JUMP JUMPDEST SWAP2 SWAP1 SWAP2 DUP3 MLOAD PUSH1 0x1 PUSH1 0x1 PUSH1 0x40 SHL SUB DUP2 GT PUSH2 0x1C51 JUMPI PUSH2 0x1F30 DUP2 PUSH2 0x1F2A DUP5 SLOAD PUSH2 0x1E71 JUMP JUMPDEST DUP5 PUSH2 0x1EC2 JUMP JUMPDEST PUSH1 0x20 DUP1 PUSH1 0x1F DUP4 GT PUSH1 0x1 EQ PUSH2 0x1F6C JUMPI POP DUP2 SWAP3 SWAP4 SWAP5 PUSH1 0x0 SWAP3 PUSH2 0x1F61 JUMPI JUMPDEST POP POP DUP2 PUSH1 0x1 SHL SWAP2 PUSH1 0x0 NOT SWAP1 PUSH1 0x3 SHL SHR NOT AND OR SWAP1 SSTORE JUMP JUMPDEST ADD MLOAD SWAP1 POP CODESIZE DUP1 PUSH2 0x1F4B JUMP JUMPDEST SWAP1 PUSH1 0x1F NOT DUP4 AND SWAP6 DUP5 PUSH1 0x0 MSTORE DUP3 PUSH1 0x0 KECCAK256 SWAP3 PUSH1 0x0 SWAP1 JUMPDEST DUP9 DUP3 LT PUSH2 0x1FB8 JUMPI POP POP DUP4 PUSH1 0x1 SWAP6 SWAP7 SWAP8 LT PUSH2 0x1F9F JUMPI JUMPDEST POP POP POP DUP2 SHL ADD SWAP1 SSTORE JUMP JUMPDEST ADD MLOAD PUSH1 0x0 NOT PUSH1 0xF8 DUP5 PUSH1 0x3 SHL AND SHR NOT AND SWAP1 SSTORE CODESIZE DUP1 DUP1 PUSH2 0x1F95 JUMP JUMPDEST DUP1 PUSH1 0x1 DUP6 SWAP7 DUP3 SWAP5 SWAP7 DUP7 ADD MLOAD DUP2 SSTORE ADD SWAP6 ADD SWAP4 ADD SWAP1 PUSH2 0x1F80 JUMP JUMPDEST DUP1 SLOAD PUSH9 0x10000000000000000 DUP2 LT ISZERO PUSH2 0x1C51 JUMPI PUSH2 0x1FF2 SWAP2 PUSH1 0x1 DUP3 ADD DUP2 SSTORE PUSH2 0x1E43 JUMP JUMPDEST SWAP2 SWAP1 SWAP2 PUSH2 0xB5D JUMPI PUSH2 0x1EFD SWAP2 PUSH2 0x1F09 JUMP JUMPDEST PUSH2 0x201A SWAP1 PUSH1 0x20 PUSH1 0x40 MLOAD SWAP3 DUP3 DUP5 DUP1 SWAP5 MLOAD SWAP4 DUP5 SWAP3 ADD PUSH2 0x1D47 JUMP JUMPDEST DUP2 ADD SUB SWAP1 KECCAK256 SWAP1 JUMP JUMPDEST SWAP1 PUSH1 0x40 MLOAD SWAP2 DUP3 PUSH1 0x0 DUP3 SLOAD SWAP3 PUSH2 0x2036 DUP5 PUSH2 0x1E71 JUMP JUMPDEST SWAP1 DUP2 DUP5 MSTORE PUSH1 0x1 SWAP5 DUP6 DUP2 AND SWAP1 DUP2 PUSH1 0x0 EQ PUSH2 0x20A3 JUMPI POP PUSH1 0x1 EQ PUSH2 0x2060 JUMPI JUMPDEST POP POP PUSH2 0x1EFD SWAP3 POP SUB DUP4 PUSH2 0x1C9F JUMP JUMPDEST SWAP1 SWAP4 SWAP2 POP PUSH1 0x0 MSTORE PUSH1 0x20 SWAP1 DUP2 PUSH1 0x0 KECCAK256 SWAP4 PUSH1 0x0 SWAP2 JUMPDEST DUP2 DUP4 LT PUSH2 0x208B JUMPI POP POP PUSH2 0x1EFD SWAP4 POP DUP3 ADD ADD CODESIZE DUP1 PUSH2 0x2052 JUMP JUMPDEST DUP6 SLOAD DUP9 DUP5 ADD DUP6 ADD MSTORE SWAP5 DUP6 ADD SWAP5 DUP8 SWAP5 POP SWAP2 DUP4 ADD SWAP2 PUSH2 0x2073 JUMP JUMPDEST SWAP2 POP POP PUSH2 0x1EFD SWAP5 POP PUSH1 0x20 SWAP3 POP PUSH1 0xFF NOT AND DUP3 DUP5 ADD MSTORE ISZERO ISZERO PUSH1 0x5 SHL DUP3 ADD ADD CODESIZE DUP1 PUSH2 0x2052 JUMP JUMPDEST SWAP1 SWAP2 PUSH2 0x20DD PUSH2 0x20EB SWAP4 PUSH1 0x40 DUP5 MSTORE PUSH1 0x40 DUP5 ADD SWAP1 PUSH2 0x1D6A JUMP JUMPDEST SWAP2 PUSH1 0x20 DUP2 DUP5 SUB SWAP2 ADD MSTORE PUSH2 0x1D6A JUMP JUMPDEST SWAP1 JUMP JUMPDEST PUSH1 0x0 NOT DUP2 EQ PUSH2 0xB89 JUMPI PUSH1 0x1 ADD SWAP1 JUMP JUMPDEST PUSH1 0x0 SWAP3 SWAP2 DUP2 SLOAD PUSH2 0x210C DUP2 PUSH2 0x1E71 JUMP JUMPDEST SWAP3 PUSH1 0x1 SWAP2 DUP1 DUP4 AND SWAP1 DUP2 ISZERO PUSH2 0x2165 JUMPI POP PUSH1 0x1 EQ PUSH2 0x2129 JUMPI JUMPDEST POP POP POP POP JUMP JUMPDEST SWAP1 SWAP2 SWAP3 SWAP4 SWAP5 POP PUSH1 0x0 MSTORE PUSH1 0x20 SWAP1 DUP2 PUSH1 0x0 KECCAK256 SWAP1 PUSH1 0x0 SWAP2 JUMPDEST DUP6 DUP4 LT PUSH2 0x2154 JUMPI POP POP POP POP ADD SWAP1 CODESIZE DUP1 DUP1 DUP1 PUSH2 0x2123 JUMP JUMPDEST DUP1 SLOAD DUP6 DUP5 ADD MSTORE SWAP2 DUP4 ADD SWAP2 DUP2 ADD PUSH2 0x213E JUMP JUMPDEST PUSH1 0xFF NOT AND DUP5 MSTORE POP POP POP DUP2 ISZERO ISZERO SWAP1 SWAP2 MUL ADD SWAP2 POP CODESIZE DUP1 DUP1 DUP1 PUSH2 0x2123 JUMP JUMPDEST SWAP1 DUP1 DUP3 EQ PUSH2 0x2258 JUMPI PUSH2 0x2192 DUP2 SLOAD PUSH2 0x1E71 JUMP JUMPDEST SWAP1 PUSH1 0x1 PUSH1 0x1 PUSH1 0x40 SHL SUB DUP3 GT PUSH2 0x1C51 JUMPI DUP2 SWAP1 PUSH2 0x21B7 DUP3 PUSH2 0x21B1 DUP7 SLOAD PUSH2 0x1E71 JUMP JUMPDEST DUP7 PUSH2 0x1EC2 JUMP JUMPDEST PUSH1 0x0 SWAP1 PUSH1 0x1F DUP4 GT PUSH1 0x1 EQ PUSH2 0x21ED JUMPI PUSH1 0x0 SWAP3 PUSH2 0x21E2 JUMPI POP POP DUP2 PUSH1 0x1 SHL SWAP2 PUSH1 0x0 NOT SWAP1 PUSH1 0x3 SHL SHR NOT AND OR SWAP1 SSTORE JUMP JUMPDEST ADD SLOAD SWAP1 POP CODESIZE DUP1 PUSH2 0x1F4B JUMP JUMPDEST DUP2 MSTORE PUSH1 0x20 DUP1 DUP3 KECCAK256 DUP6 DUP4 MSTORE DUP2 DUP4 KECCAK256 SWAP4 POP SWAP1 PUSH1 0x1F NOT DUP6 AND SWAP1 DUP4 SWAP1 JUMPDEST DUP3 DUP3 LT PUSH2 0x223F JUMPI POP POP SWAP1 DUP5 PUSH1 0x1 SWAP6 SWAP5 SWAP4 SWAP3 LT PUSH2 0x2226 JUMPI POP POP POP DUP2 SHL ADD SWAP1 SSTORE JUMP JUMPDEST ADD SLOAD PUSH1 0x0 NOT PUSH1 0xF8 DUP5 PUSH1 0x3 SHL AND SHR NOT AND SWAP1 SSTORE CODESIZE DUP1 DUP1 PUSH2 0x1F95 JUMP JUMPDEST DUP5 SWAP6 DUP2 SWAP3 SWAP6 DUP6 ADD SLOAD DUP2 SSTORE PUSH1 0x1 DUP1 SWAP2 ADD SWAP7 ADD SWAP5 ADD SWAP1 PUSH2 0x2206 JUMP JUMPDEST POP POP JUMP INVALID LOG2 PUSH5 0x6970667358 0x22 SLT KECCAK256 0xEE SMOD 0x1E MSIZE 0xDC INVALID 0xF7 0x26 ADDRESS RETURN MOD SMOD TIMESTAMP DUP15 0xF8 0xB7 PUSH32 0xF4116526869A995E08DCECC63D79B564736F6C63430008120033000000000000 "
		},
		"gasEstimates": {
			"creation": {
				"codeDepositCost": "1770000",
				"executionCost": "27653",
				"totalCost": "1797653"
			},
			"external": {
				"approveMultiplicationDocByReviewer(string,bytes32)": "infinite",
				"approveTransferDocByReviewer(string,bytes32)": "infinite",
				"changeTurtleOwner(string,string,string)": "infinite",
				"owner()": "2494",
				"registerTurtle(string,string)": "infinite",
				"registerTurtleAssigneeDocument(string,string,bytes32,string,uint8,string,string)": "infinite",
				"registerTurtleDeathDocument(string,string,bytes32,string,uint8,string,string,string,string)": "infinite",
				"registerTurtleGrantorDocument(string,string,bytes32,string,string,string,string)": "infinite",
				"registerTurtleMultiplicationDocument(string,string,bytes32,uint8,string,string,string,string,string,string,string,uint256,string,string,string,string)": "infinite",
				"renounceOwnership()": "28244",
				"searchCurrentDocumentHash(string)": "infinite",
				"searchTurtleDeathDocument(string,bytes32)": "infinite",
				"searchTurtleMultiplicationDocument(string,bytes32)": "infinite",
				"searchTurtleTransferDocument(string,bytes32)": "infinite",
				"transferOwnership(address)": "28363"
			}
		},
		"methodIdentifiers": {
			"approveMultiplicationDocByReviewer(string,bytes32)": "482346bd",
			"approveTransferDocByReviewer(string,bytes32)": "229aa914",
			"changeTurtleOwner(string,string,string)": "ce5f0b7d",
			"owner()": "8da5cb5b",
			"registerTurtle(string,string)": "5c493eaa",
			"registerTurtleAssigneeDocument(string,string,bytes32,string,uint8,string,string)": "18e1a28a",
			"registerTurtleDeathDocument(string,string,bytes32,string,uint8,string,string,string,string)": "6c1dcaf8",
			"registerTurtleGrantorDocument(string,string,bytes32,string,string,string,string)": "596c442a",
			"registerTurtleMultiplicationDocument(string,string,bytes32,uint8,string,string,string,string,string,string,string,uint256,string,string,string,string)": "ff39b1ae",
			"renounceOwnership()": "715018a6",
			"searchCurrentDocumentHash(string)": "f3cb197d",
			"searchTurtleDeathDocument(string,bytes32)": "17aa1f48",
			"searchTurtleMultiplicationDocument(string,bytes32)": "673ae4c1",
			"searchTurtleTransferDocument(string,bytes32)": "1a0642ef",
			"transferOwnership(address)": "f2fde38b"
		}
	},
	"abi": [
		{
			"anonymous": false,
			"inputs": [
				{
					"indexed": true,
					"internalType": "string",
					"name": "turtleId",
					"type": "string"
				},
				{
					"indexed": true,
					"internalType": "bytes32",
					"name": "documentHash",
					"type": "bytes32"
				}
			],
			"name": "CurrentTurtleDocument",
			"type": "event"
		},
		{
			"anonymous": false,
			"inputs": [
				{
					"indexed": true,
					"internalType": "address",
					"name": "previousOwner",
					"type": "address"
				},
				{
					"indexed": true,
					"internalType": "address",
					"name": "newOwner",
					"type": "address"
				}
			],
			"name": "OwnershipTransferred",
			"type": "event"
		},
		{
			"anonymous": false,
			"inputs": [
				{
					"indexed": true,
					"internalType": "string",
					"name": "turtleId",
					"type": "string"
				},
				{
					"indexed": true,
					"internalType": "string",
					"name": "applicant",
					"type": "string"
				},
				{
					"indexed": true,
					"internalType": "bytes32",
					"name": "documentHash",
					"type": "bytes32"
				}
			],
			"name": "TurtleDeath",
			"type": "event"
		},
		{
			"anonymous": false,
			"inputs": [
				{
					"indexed": true,
					"internalType": "string",
					"name": "turtleId",
					"type": "string"
				},
				{
					"indexed": true,
					"internalType": "string",
					"name": "applicant",
					"type": "string"
				},
				{
					"indexed": true,
					"internalType": "bytes32",
					"name": "documentHash",
					"type": "bytes32"
				}
			],
			"name": "TurtleMultiplication",
			"type": "event"
		},
		{
			"anonymous": false,
			"inputs": [
				{
					"indexed": true,
					"internalType": "string",
					"name": "turtleId",
					"type": "string"
				},
				{
					"indexed": true,
					"internalType": "string",
					"name": "oldOwner",
					"type": "string"
				},
				{
					"indexed": true,
					"internalType": "string",
					"name": "newOwner",
					"type": "string"
				}
			],
			"name": "TurtleOwnerChanged",
			"type": "event"
		},
		{
			"anonymous": false,
			"inputs": [
				{
					"indexed": true,
					"internalType": "string",
					"name": "turtleId",
					"type": "string"
				},
				{
					"indexed": true,
					"internalType": "string",
					"name": "applicant",
					"type": "string"
				}
			],
			"name": "TurtleRegistered",
			"type": "event"
		},
		{
			"anonymous": false,
			"inputs": [
				{
					"indexed": true,
					"internalType": "string",
					"name": "turtleId",
					"type": "string"
				},
				{
					"indexed": false,
					"internalType": "string",
					"name": "grantApplicant",
					"type": "string"
				},
				{
					"indexed": false,
					"internalType": "string",
					"name": "assignApplicant",
					"type": "string"
				},
				{
					"indexed": true,
					"internalType": "bytes32",
					"name": "documentHash",
					"type": "bytes32"
				}
			],
			"name": "TurtleTransferred",
			"type": "event"
		},
		{
			"inputs": [
				{
					"internalType": "string",
					"name": "_turtleId",
					"type": "string"
				},
				{
					"internalType": "bytes32",
					"name": "_documentHash",
					"type": "bytes32"
				}
			],
			"name": "approveMultiplicationDocByReviewer",
			"outputs": [
				{
					"internalType": "bytes32",
					"name": "",
					"type": "bytes32"
				}
			],
			"stateMutability": "nonpayable",
			"type": "function"
		},
		{
			"inputs": [
				{
					"internalType": "string",
					"name": "_turtleId",
					"type": "string"
				},
				{
					"internalType": "bytes32",
					"name": "_documentHash",
					"type": "bytes32"
				}
			],
			"name": "approveTransferDocByReviewer",
			"outputs": [
				{
					"internalType": "bytes32",
					"name": "",
					"type": "bytes32"
				}
			],
			"stateMutability": "nonpayable",
			"type": "function"
		},
		{
			"inputs": [
				{
					"internalType": "string",
					"name": "_turtleId",
					"type": "string"
				},
				{
					"internalType": "string",
					"name": "_oldOwner",
					"type": "string"
				},
				{
					"internalType": "string",
					"name": "_newOwner",
					"type": "string"
				}
			],
			"name": "changeTurtleOwner",
			"outputs": [],
			"stateMutability": "nonpayable",
			"type": "function"
		},
		{
			"inputs": [],
			"name": "owner",
			"outputs": [
				{
					"internalType": "address",
					"name": "",
					"type": "address"
				}
			],
			"stateMutability": "view",
			"type": "function"
		},
		{
			"inputs": [
				{
					"internalType": "string",
					"name": "_turtleId",
					"type": "string"
				},
				{
					"internalType": "string",
					"name": "_applicant",
					"type": "string"
				}
			],
			"name": "registerTurtle",
			"outputs": [],
			"stateMutability": "nonpayable",
			"type": "function"
		},
		{
			"inputs": [
				{
					"internalType": "string",
					"name": "_turtleId",
					"type": "string"
				},
				{
					"internalType": "string",
					"name": "_applicant",
					"type": "string"
				},
				{
					"internalType": "bytes32",
					"name": "_documentHash",
					"type": "bytes32"
				},
				{
					"internalType": "string",
					"name": "_assigneeId",
					"type": "string"
				},
				{
					"internalType": "uint8",
					"name": "_count",
					"type": "uint8"
				},
				{
					"internalType": "string",
					"name": "_transferReason",
					"type": "string"
				},
				{
					"internalType": "string",
					"name": "_purpose",
					"type": "string"
				}
			],
			"name": "registerTurtleAssigneeDocument",
			"outputs": [
				{
					"internalType": "bytes32",
					"name": "",
					"type": "bytes32"
				}
			],
			"stateMutability": "nonpayable",
			"type": "function"
		},
		{
			"inputs": [
				{
					"internalType": "string",
					"name": "_turtleId",
					"type": "string"
				},
				{
					"internalType": "string",
					"name": "_applicant",
					"type": "string"
				},
				{
					"internalType": "bytes32",
					"name": "_documentHash",
					"type": "bytes32"
				},
				{
					"internalType": "string",
					"name": "_shelter",
					"type": "string"
				},
				{
					"internalType": "uint8",
					"name": "_count",
					"type": "uint8"
				},
				{
					"internalType": "string",
					"name": "_deathReason",
					"type": "string"
				},
				{
					"internalType": "string",
					"name": "_plan",
					"type": "string"
				},
				{
					"internalType": "string",
					"name": "_deathImage",
					"type": "string"
				},
				{
					"internalType": "string",
					"name": "_diagnosis",
					"type": "string"
				}
			],
			"name": "registerTurtleDeathDocument",
			"outputs": [
				{
					"internalType": "bytes32",
					"name": "",
					"type": "bytes32"
				}
			],
			"stateMutability": "nonpayable",
			"type": "function"
		},
		{
			"inputs": [
				{
					"internalType": "string",
					"name": "_turtleId",
					"type": "string"
				},
				{
					"internalType": "string",
					"name": "_applicant",
					"type": "string"
				},
				{
					"internalType": "bytes32",
					"name": "_documentHash",
					"type": "bytes32"
				},
				{
					"internalType": "string",
					"name": "_grantorId",
					"type": "string"
				},
				{
					"internalType": "string",
					"name": "_aquisition",
					"type": "string"
				},
				{
					"internalType": "string",
					"name": "_fatherId",
					"type": "string"
				},
				{
					"internalType": "string",
					"name": "_motherId",
					"type": "string"
				}
			],
			"name": "registerTurtleGrantorDocument",
			"outputs": [
				{
					"internalType": "bytes32",
					"name": "",
					"type": "bytes32"
				}
			],
			"stateMutability": "nonpayable",
			"type": "function"
		},
		{
			"inputs": [
				{
					"internalType": "string",
					"name": "_turtleId",
					"type": "string"
				},
				{
					"internalType": "string",
					"name": "_applicant",
					"type": "string"
				},
				{
					"internalType": "bytes32",
					"name": "_documentHash",
					"type": "bytes32"
				},
				{
					"internalType": "uint8",
					"name": "_count",
					"type": "uint8"
				},
				{
					"internalType": "string",
					"name": "_area",
					"type": "string"
				},
				{
					"internalType": "string",
					"name": "_purpose",
					"type": "string"
				},
				{
					"internalType": "string",
					"name": "_location",
					"type": "string"
				},
				{
					"internalType": "string",
					"name": "_fatherId",
					"type": "string"
				},
				{
					"internalType": "string",
					"name": "_motherId",
					"type": "string"
				},
				{
					"internalType": "string",
					"name": "_birth",
					"type": "string"
				},
				{
					"internalType": "string",
					"name": "_name",
					"type": "string"
				},
				{
					"internalType": "uint256",
					"name": "_weight",
					"type": "uint256"
				},
				{
					"internalType": "string",
					"name": "_gender",
					"type": "string"
				},
				{
					"internalType": "string",
					"name": "_locationSpecification",
					"type": "string"
				},
				{
					"internalType": "string",
					"name": "_multiplicationMethod",
					"type": "string"
				},
				{
					"internalType": "string",
					"name": "_shelterSpecification",
					"type": "string"
				}
			],
			"name": "registerTurtleMultiplicationDocument",
			"outputs": [
				{
					"internalType": "bytes32",
					"name": "",
					"type": "bytes32"
				}
			],
			"stateMutability": "nonpayable",
			"type": "function"
		},
		{
			"inputs": [],
			"name": "renounceOwnership",
			"outputs": [],
			"stateMutability": "nonpayable",
			"type": "function"
		},
		{
			"inputs": [
				{
					"internalType": "string",
					"name": "_turtleId",
					"type": "string"
				}
			],
			"name": "searchCurrentDocumentHash",
			"outputs": [
				{
					"internalType": "bytes32",
					"name": "",
					"type": "bytes32"
				}
			],
			"stateMutability": "view",
			"type": "function"
		},
		{
			"inputs": [
				{
					"internalType": "string",
					"name": "_turtleId",
					"type": "string"
				},
				{
					"internalType": "bytes32",
					"name": "_documentHash",
					"type": "bytes32"
				}
			],
			"name": "searchTurtleDeathDocument",
			"outputs": [
				{
					"components": [
						{
							"internalType": "string",
							"name": "applicant",
							"type": "string"
						},
						{
							"internalType": "string",
							"name": "shelter",
							"type": "string"
						},
						{
							"internalType": "uint8",
							"name": "count",
							"type": "uint8"
						},
						{
							"internalType": "string",
							"name": "deathReason",
							"type": "string"
						},
						{
							"internalType": "string",
							"name": "plan",
							"type": "string"
						},
						{
							"internalType": "string",
							"name": "deathImage",
							"type": "string"
						},
						{
							"internalType": "string",
							"name": "diagnosis",
							"type": "string"
						}
					],
					"internalType": "struct TurtleDocumentation.Death",
					"name": "",
					"type": "tuple"
				}
			],
			"stateMutability": "view",
			"type": "function"
		},
		{
			"inputs": [
				{
					"internalType": "string",
					"name": "_turtleId",
					"type": "string"
				},
				{
					"internalType": "bytes32",
					"name": "_documentHash",
					"type": "bytes32"
				}
			],
			"name": "searchTurtleMultiplicationDocument",
			"outputs": [
				{
					"components": [
						{
							"internalType": "string",
							"name": "applicant",
							"type": "string"
						},
						{
							"internalType": "uint8",
							"name": "count",
							"type": "uint8"
						},
						{
							"internalType": "string",
							"name": "area",
							"type": "string"
						},
						{
							"internalType": "string",
							"name": "purpose",
							"type": "string"
						},
						{
							"internalType": "string",
							"name": "location",
							"type": "string"
						},
						{
							"internalType": "string",
							"name": "fatherId",
							"type": "string"
						},
						{
							"internalType": "string",
							"name": "motherId",
							"type": "string"
						},
						{
							"internalType": "string",
							"name": "birth",
							"type": "string"
						},
						{
							"internalType": "string",
							"name": "name",
							"type": "string"
						},
						{
							"internalType": "uint256",
							"name": "weight",
							"type": "uint256"
						},
						{
							"internalType": "string",
							"name": "gender",
							"type": "string"
						},
						{
							"internalType": "string",
							"name": "locationSpecification",
							"type": "string"
						},
						{
							"internalType": "string",
							"name": "multiplicationMethod",
							"type": "string"
						},
						{
							"internalType": "string",
							"name": "shelterSpecification",
							"type": "string"
						}
					],
					"internalType": "struct TurtleDocumentation.Multiplication",
					"name": "",
					"type": "tuple"
				}
			],
			"stateMutability": "view",
			"type": "function"
		},
		{
			"inputs": [
				{
					"internalType": "string",
					"name": "_turtleId",
					"type": "string"
				},
				{
					"internalType": "bytes32",
					"name": "_documentHash",
					"type": "bytes32"
				}
			],
			"name": "searchTurtleTransferDocument",
			"outputs": [
				{
					"components": [
						{
							"internalType": "string",
							"name": "grantApplicant",
							"type": "string"
						},
						{
							"internalType": "string",
							"name": "assignApplicant",
							"type": "string"
						},
						{
							"internalType": "string",
							"name": "grantorId",
							"type": "string"
						},
						{
							"internalType": "string",
							"name": "assigneeId",
							"type": "string"
						},
						{
							"internalType": "uint8",
							"name": "count",
							"type": "uint8"
						},
						{
							"internalType": "string",
							"name": "transferReason",
							"type": "string"
						},
						{
							"internalType": "string",
							"name": "purpose",
							"type": "string"
						},
						{
							"internalType": "string",
							"name": "aquisition",
							"type": "string"
						},
						{
							"internalType": "string",
							"name": "fatherId",
							"type": "string"
						},
						{
							"internalType": "string",
							"name": "motherId",
							"type": "string"
						}
					],
					"internalType": "struct TurtleDocumentation.Transfer",
					"name": "",
					"type": "tuple"
				}
			],
			"stateMutability": "view",
			"type": "function"
		},
		{
			"inputs": [
				{
					"internalType": "address",
					"name": "newOwner",
					"type": "address"
				}
			],
			"name": "transferOwnership",
			"outputs": [],
			"stateMutability": "nonpayable",
			"type": "function"
		}
	]
}