{
	"data": {
		"bytecode": {
			"linkReferences": {},
			"object": "6080346100f157601f6115a438819003918201601f19168301916001600160401b038311848410176100f6578084926020946040528339810103126100f157516001600160a01b0390818116908190036100f1576000549160018060a01b0319923384821617600055604051913391167f8be0079c531659141344cd1fd0a4f28419497f9722a3daafe3b4186f6b6457e0600080a381156100bd575081600454161760045533906003541617600355604051611497908161010d8239f35b62461bcd60e51b815260206004820152600f60248201526e496e76616c6964206164647265737360881b6044820152606490fd5b600080fd5b634e487b7160e01b600052604160045260246000fdfe608060408181526004918236101561001657600080fd5b600092833560e01c9182631820cabb1461109f575081631c9c088a1461105f57816335ba2e8714610f9c578163369d91e914610cbb5781633ceafc8c14610ae657816345301974146104ff5781635996eda91461047f578163715018a614610425578163899d7879146103085781638da5cb5b146102e0578163aa7f3bae14610285578163ce48dd4f14610218578163ddb28071146101ef578163f2fde38b1461012c578163fc0c546a14610100575063fe25e00a146100d557600080fd5b346100fc57816003193601126100fc5760035490516001600160a01b039091168152602090f35b5080fd5b9050346101285782600319360112610128575490516001600160a01b03909116815260209150f35b8280fd5b905034610128576020366003190112610128576101476110bc565b9061015061131e565b6001600160a01b0391821692831561019d57505082546001600160a01b0319811683178455167f8be0079c531659141344cd1fd0a4f28419497f9722a3daafe3b4186f6b6457e08380a380f35b906020608492519162461bcd60e51b8352820152602660248201527f4f776e61626c653a206e6577206f776e657220697320746865207a65726f206160448201526564647265737360d01b6064820152fd5b5050346100fc57816003193601126100fc5760055490516001600160a01b039091168152602090f35b828434610282576020366003190112610282578161027e91843581526001602052209160018060a01b039283815416936001820154169460028201549060ff60038401541690830154916102736006600586015495016111ee565b9451978897886112d4565b0390f35b80fd5b828434610282576020366003190112610282578161027e91843581526002602052209160018060a01b039283815416936001820154169460028201549060ff60038401541690830154916102736006600586015495016111ee565b5050346100fc57816003193601126100fc57905490516001600160a01b039091168152602090f35b8284346102825781600319360112610282576103226110d7565b602435901561041657815260016020528181205b825191610342836110e6565b60018060a01b0380835416845280600184015416946020850195865260028401549481810195865260ff60038601541692606082019389811015610403578452808987015492608081019384526103a7600660058a01549960a084019a8b52016111ee565b60c082015251169751169551925193888510156103f057505193518151968752602087019590955285015260c094506103e4906060850190611191565b608083015260a0820152f35b634e487b7160e01b815260218952602490fd5b634e487b7160e01b865260218a52602486fd5b81526002602052818120610336565b833461028257806003193601126102825761043e61131e565b80546001600160a01b03198116825581906001600160a01b03167f8be0079c531659141344cd1fd0a4f28419497f9722a3daafe3b4186f6b6457e08280a380f35b9050346101285760203660031901126101285761049a6110bc565b6104a261131e565b6001600160a01b03169182156104ca5750506001600160601b0360a01b600554161760055580f35b906020606492519162461bcd60e51b8352820152600f60248201526e496e76616c6964206164647265737360881b6044820152fd5b8383346100fc5760a03660031901126100fc5761051a6110d7565b6024803594919390916001600160a01b0360443581811690819003610ae2576064359067ffffffffffffffff608435818111610ade5761055d903690870161113a565b918015610aa3578315610a4b57670de0b6b3a764000080850294850403610a395786908a1561089a578951610591816110e6565b3381528c8b60209384840190815281840189815260608501918783528b608087019442865260a088019662093a80885260c089019c8d528a526001998a8a52209651166001600160601b0360a01b90818854161787558c89880192511690825416179055516002850155518a8110156108885790610616849392600360069601611376565b518a830155516005820155019351805193841161087657908493929161063e8a9796546111b4565b601f8111610822575b5081601f85116001146107be5750869284929091836107b3575b50501b916000199060031b1c19161790555b828454168751916323b872dd60e01b83523386840152308884015260448301528160648160209586945af19081156107a957906106b791869161077c575b506113a6565b861561076c5787845260018152858420915b825416330361072b57506003019283549260ff8416928084101561071b5750505061027e9392916106fc600192156113ea565b60ff191617905551911515825260208201929092529081906040820190565b634e487b7160e01b825260219052fd5b8260198660649389519362461bcd60e51b85528401528201527f4f6e6c792062757965722063616e206c6f636b2066756e6473000000000000006044820152fd5b87845260028152858420916106c9565b61079c9150833d85116107a2575b6107948183611118565b81019061138e565b8a6106b1565b503d61078a565b87513d87823e3d90fd5b015192508e80610661565b9190601f9493941984168689528389209389905b82821061080857505084116107ef575b505050811b019055610673565b015160001960f88460031b161c191690558c80806107e2565b8385015186558d9a509487019493840193908101906107d2565b909192939480969752828a20601f860160051c81019184871061086c575b90601f8c99989796959493920160051c01905b8181106108605750610647565b9788558a978401610853565b9091508190610840565b634e487b7160e01b8952604188528989fd5b634e487b7160e01b8c5260218b528c8cfd5b905088516108a7816110e6565b3381526020908181019283528c898c8084018981528a6060860192848452608087019442865260a088019662093a80885260c089019c8d5281526002895220955116966001600160601b0360a01b97888754161786556001978c89880192511690825416179055516002850155518a811015610888579061092f849392600360069601611376565b518a83015551600582015501935180519384116108765790849392916109578a9796546111b4565b601f81116109e5575b5081601f851160011461099b575086928492909183610990575b50501b916000199060031b1c1916179055610673565b015192508e8061097a565b9190601f9493941984168689528389209389905b8282106109cb57505084116107ef57505050811b019055610673565b8385015186558d9a509487019493840193908101906109af565b909192939480969752828a20601f860160051c810191848710610a2f575b90601f8c99989796959493920160051c01905b818110610a235750610960565b9788558a978401610a16565b9091508190610a03565b634e487b7160e01b8752601186528787fd5b885162461bcd60e51b8152602081880152602d818a01527f496e76616c696420616d6f756e742120416d6f756e74206d757374206265206760448201526c0726561746572207468616e203609c1b6064820152608490fd5b885162461bcd60e51b81526020818801526016818a015275496e76616c69642073656c6c6572206164647265737360501b6044820152606490fd5b8680fd5b8380fd5b8383346100fc57806003193601126100fc57610b006110d7565b916024359383600014610cab5784825260016020528282205b60018101546001600160a01b039190821633148015610c9e575b610b3c90611426565b60038101805460ff811685811015610c8b576001610b5a91146113ea565b8483015460058401548101809111610c78574210801590610c6b575b15610c2857600360ff199190911617905582548154600290920154865163a9059cbb60e01b81529284166001600160a01b03169483019485526020808601919091529193919284928390036040019183918791165af1918215610c1d5761027e9392610be79290610bff57506113a6565b51911515825260208201929092529081906040820190565b610c17915060203d81116107a2576107948183611118565b866106b1565b8351903d90823e3d90fd5b865162461bcd60e51b8152602081870152601760248201527f4c6f636b20706572696f64206e6f7420657870697265640000000000000000006044820152606490fd5b5083600354163314610b76565b634e487b7160e01b875260118652602487fd5b634e487b7160e01b875260218652602487fd5b5060035482163314610b33565b8482526002602052828220610b19565b82843461028257600319916080368401126100fc57610cd86110d7565b91602435936044359067ffffffffffffffff91828111610ae257610cff903690890161113a565b90606435838111610f9857610d179036908a0161113a565b8615610f87578785526001602052858520925b83546001600160a01b039190821633148015610f7a575b610d4a90611426565b600385019182549060ff8216938d851015610f665790898e8c93610d7160018099146113ea565b600260ff19809716179055610dc28382541684898d0154169560028d0154905194858094819363a9059cbb60e01b835260209a8b98840160209093929193604081019460018060a01b031681520152565b03925af1908115610f5c5760069291610de1918d91610f3f57506113a6565b60055416970193873b15610f3b57928d95928a9998959260609b98958d519c8d9963ce5f0b7d60e01b8b528a0152899480548a8c610e1e836111b4565b968760648401528584169384600014610f0c5750505050600114610ec7575b50505050838793610e5d84610e6c948a9889809803016024880152611294565b91848303016044850152611294565b03925af18015610ebd57610e92575b505090519115158252506020810191909152604090f35b8211610eaa57508152919250829161027e8580610e7b565b634e487b7160e01b815260418652602490fd5b84513d84823e3d90fd5b8a52818a2093945089935b838510610ef057505050508501608401908383610e5d610e6c610e3d565b8054998501608401999099528b99508c98938201938101610ed2565b1660848084019190915296151560051b9091019095019650889450879350610e5d9250610e6c9150610e3d9050565b8980fd5b610f569150853d87116107a2576107948183611118565b386106b1565b8c513d8d823e3d90fd5b50634e487b7160e01b895260218d52602489fd5b5060035482163314610d41565b878552600260205285852092610d2a565b8480fd5b9190503461012857606036600319011261012857610fb86110d7565b9181602435948460001461105057858152600160205220905b6003546001600160a01b031633036110015750604435600591909101555190151581526020810191909152604090f35b608490602084519162461bcd60e51b8352820152602360248201527f4f6e6c7920617262697465722063616e20757064617465206c6f636b207065726044820152621a5bd960ea1b6064820152fd5b85815260026020522090610fd1565b8334610282576020366003190112610282576110796110bc565b61108161131e565b60018060a01b03166001600160601b0360a01b600354161760035580f35b8490346100fc57816003193601126100fc578062093a8060209252f35b600435906001600160a01b03821682036110d257565b600080fd5b6004359081151582036110d257565b60e0810190811067ffffffffffffffff82111761110257604052565b634e487b7160e01b600052604160045260246000fd5b90601f8019910116810190811067ffffffffffffffff82111761110257604052565b81601f820112156110d25780359067ffffffffffffffff8211611102576040519261116f601f8401601f191660200185611118565b828452602083830101116110d257816000926020809301838601378301015290565b90600482101561119e5752565b634e487b7160e01b600052602160045260246000fd5b90600182811c921680156111e4575b60208310146111ce57565b634e487b7160e01b600052602260045260246000fd5b91607f16916111c3565b9060405191826000825492611202846111b4565b908184526001948581169081600014611271575060011461122e575b505061122c92500383611118565b565b9093915060005260209081600020936000915b81831061125957505061122c9350820101388061121e565b85548884018501529485019487945091830191611241565b91505061122c94506020925060ff191682840152151560051b820101388061121e565b919082519283825260005b8481106112c0575050826000602080949584010152601f8019910116010190565b60208183018101518483018201520161129f565b9361131b9796936113049260e0979460018060a01b03809216885216602087015260408601526060850190611191565b608083015260a08201528160c08201520190611294565b90565b6000546001600160a01b0316330361133257565b606460405162461bcd60e51b815260206004820152602060248201527f4f776e61626c653a2063616c6c6572206973206e6f7420746865206f776e65726044820152fd5b90600481101561119e5760ff80198354169116179055565b908160209103126110d2575180151581036110d25790565b156113ad57565b60405162461bcd60e51b8152602060048201526015602482015274151bdad95b881d1c985b9cd9995c8819985a5b1959605a1b6044820152606490fd5b156113f157565b60405162461bcd60e51b815260206004820152600d60248201526c496e76616c696420737461746560981b6044820152606490fd5b1561142d57565b60405162461bcd60e51b815260206004820152600c60248201526b155b985d5d1a1bdc9a5e995960a21b6044820152606490fdfea26469706673582212204b8e421b3e837eaf23e52e807143bd864aae8122226f260abf1cb8461bca59c564736f6c63430008120033",
			"opcodes": "PUSH1 0x80 CALLVALUE PUSH2 0xF1 JUMPI PUSH1 0x1F PUSH2 0x15A4 CODESIZE DUP2 SWAP1 SUB SWAP2 DUP3 ADD PUSH1 0x1F NOT AND DUP4 ADD SWAP2 PUSH1 0x1 PUSH1 0x1 PUSH1 0x40 SHL SUB DUP4 GT DUP5 DUP5 LT OR PUSH2 0xF6 JUMPI DUP1 DUP5 SWAP3 PUSH1 0x20 SWAP5 PUSH1 0x40 MSTORE DUP4 CODECOPY DUP2 ADD SUB SLT PUSH2 0xF1 JUMPI MLOAD PUSH1 0x1 PUSH1 0x1 PUSH1 0xA0 SHL SUB SWAP1 DUP2 DUP2 AND SWAP1 DUP2 SWAP1 SUB PUSH2 0xF1 JUMPI PUSH1 0x0 SLOAD SWAP2 PUSH1 0x1 DUP1 PUSH1 0xA0 SHL SUB NOT SWAP3 CALLER DUP5 DUP3 AND OR PUSH1 0x0 SSTORE PUSH1 0x40 MLOAD SWAP2 CALLER SWAP2 AND PUSH32 0x8BE0079C531659141344CD1FD0A4F28419497F9722A3DAAFE3B4186F6B6457E0 PUSH1 0x0 DUP1 LOG3 DUP2 ISZERO PUSH2 0xBD JUMPI POP DUP2 PUSH1 0x4 SLOAD AND OR PUSH1 0x4 SSTORE CALLER SWAP1 PUSH1 0x3 SLOAD AND OR PUSH1 0x3 SSTORE PUSH1 0x40 MLOAD PUSH2 0x1497 SWAP1 DUP2 PUSH2 0x10D DUP3 CODECOPY RETURN JUMPDEST PUSH3 0x461BCD PUSH1 0xE5 SHL DUP2 MSTORE PUSH1 0x20 PUSH1 0x4 DUP3 ADD MSTORE PUSH1 0xF PUSH1 0x24 DUP3 ADD MSTORE PUSH15 0x496E76616C69642061646472657373 PUSH1 0x88 SHL PUSH1 0x44 DUP3 ADD MSTORE PUSH1 0x64 SWAP1 REVERT JUMPDEST PUSH1 0x0 DUP1 REVERT JUMPDEST PUSH4 0x4E487B71 PUSH1 0xE0 SHL PUSH1 0x0 MSTORE PUSH1 0x41 PUSH1 0x4 MSTORE PUSH1 0x24 PUSH1 0x0 REVERT INVALID PUSH1 0x80 PUSH1 0x40 DUP2 DUP2 MSTORE PUSH1 0x4 SWAP2 DUP3 CALLDATASIZE LT ISZERO PUSH2 0x16 JUMPI PUSH1 0x0 DUP1 REVERT JUMPDEST PUSH1 0x0 SWAP3 DUP4 CALLDATALOAD PUSH1 0xE0 SHR SWAP2 DUP3 PUSH4 0x1820CABB EQ PUSH2 0x109F JUMPI POP DUP2 PUSH4 0x1C9C088A EQ PUSH2 0x105F JUMPI DUP2 PUSH4 0x35BA2E87 EQ PUSH2 0xF9C JUMPI DUP2 PUSH4 0x369D91E9 EQ PUSH2 0xCBB JUMPI DUP2 PUSH4 0x3CEAFC8C EQ PUSH2 0xAE6 JUMPI DUP2 PUSH4 0x45301974 EQ PUSH2 0x4FF JUMPI DUP2 PUSH4 0x5996EDA9 EQ PUSH2 0x47F JUMPI DUP2 PUSH4 0x715018A6 EQ PUSH2 0x425 JUMPI DUP2 PUSH4 0x899D7879 EQ PUSH2 0x308 JUMPI DUP2 PUSH4 0x8DA5CB5B EQ PUSH2 0x2E0 JUMPI DUP2 PUSH4 0xAA7F3BAE EQ PUSH2 0x285 JUMPI DUP2 PUSH4 0xCE48DD4F EQ PUSH2 0x218 JUMPI DUP2 PUSH4 0xDDB28071 EQ PUSH2 0x1EF JUMPI DUP2 PUSH4 0xF2FDE38B EQ PUSH2 0x12C JUMPI DUP2 PUSH4 0xFC0C546A EQ PUSH2 0x100 JUMPI POP PUSH4 0xFE25E00A EQ PUSH2 0xD5 JUMPI PUSH1 0x0 DUP1 REVERT JUMPDEST CALLVALUE PUSH2 0xFC JUMPI DUP2 PUSH1 0x3 NOT CALLDATASIZE ADD SLT PUSH2 0xFC JUMPI PUSH1 0x3 SLOAD SWAP1 MLOAD PUSH1 0x1 PUSH1 0x1 PUSH1 0xA0 SHL SUB SWAP1 SWAP2 AND DUP2 MSTORE PUSH1 0x20 SWAP1 RETURN JUMPDEST POP DUP1 REVERT JUMPDEST SWAP1 POP CALLVALUE PUSH2 0x128 JUMPI DUP3 PUSH1 0x3 NOT CALLDATASIZE ADD SLT PUSH2 0x128 JUMPI SLOAD SWAP1 MLOAD PUSH1 0x1 PUSH1 0x1 PUSH1 0xA0 SHL SUB SWAP1 SWAP2 AND DUP2 MSTORE PUSH1 0x20 SWAP2 POP RETURN JUMPDEST DUP3 DUP1 REVERT JUMPDEST SWAP1 POP CALLVALUE PUSH2 0x128 JUMPI PUSH1 0x20 CALLDATASIZE PUSH1 0x3 NOT ADD SLT PUSH2 0x128 JUMPI PUSH2 0x147 PUSH2 0x10BC JUMP JUMPDEST SWAP1 PUSH2 0x150 PUSH2 0x131E JUMP JUMPDEST PUSH1 0x1 PUSH1 0x1 PUSH1 0xA0 SHL SUB SWAP2 DUP3 AND SWAP3 DUP4 ISZERO PUSH2 0x19D JUMPI POP POP DUP3 SLOAD PUSH1 0x1 PUSH1 0x1 PUSH1 0xA0 SHL SUB NOT DUP2 AND DUP4 OR DUP5 SSTORE AND PUSH32 0x8BE0079C531659141344CD1FD0A4F28419497F9722A3DAAFE3B4186F6B6457E0 DUP4 DUP1 LOG3 DUP1 RETURN JUMPDEST SWAP1 PUSH1 0x20 PUSH1 0x84 SWAP3 MLOAD SWAP2 PUSH3 0x461BCD PUSH1 0xE5 SHL DUP4 MSTORE DUP3 ADD MSTORE PUSH1 0x26 PUSH1 0x24 DUP3 ADD MSTORE PUSH32 0x4F776E61626C653A206E6577206F776E657220697320746865207A65726F2061 PUSH1 0x44 DUP3 ADD MSTORE PUSH6 0x646472657373 PUSH1 0xD0 SHL PUSH1 0x64 DUP3 ADD MSTORE REVERT JUMPDEST POP POP CALLVALUE PUSH2 0xFC JUMPI DUP2 PUSH1 0x3 NOT CALLDATASIZE ADD SLT PUSH2 0xFC JUMPI PUSH1 0x5 SLOAD SWAP1 MLOAD PUSH1 0x1 PUSH1 0x1 PUSH1 0xA0 SHL SUB SWAP1 SWAP2 AND DUP2 MSTORE PUSH1 0x20 SWAP1 RETURN JUMPDEST DUP3 DUP5 CALLVALUE PUSH2 0x282 JUMPI PUSH1 0x20 CALLDATASIZE PUSH1 0x3 NOT ADD SLT PUSH2 0x282 JUMPI DUP2 PUSH2 0x27E SWAP2 DUP5 CALLDATALOAD DUP2 MSTORE PUSH1 0x1 PUSH1 0x20 MSTORE KECCAK256 SWAP2 PUSH1 0x1 DUP1 PUSH1 0xA0 SHL SUB SWAP3 DUP4 DUP2 SLOAD AND SWAP4 PUSH1 0x1 DUP3 ADD SLOAD AND SWAP5 PUSH1 0x2 DUP3 ADD SLOAD SWAP1 PUSH1 0xFF PUSH1 0x3 DUP5 ADD SLOAD AND SWAP1 DUP4 ADD SLOAD SWAP2 PUSH2 0x273 PUSH1 0x6 PUSH1 0x5 DUP7 ADD SLOAD SWAP6 ADD PUSH2 0x11EE JUMP JUMPDEST SWAP5 MLOAD SWAP8 DUP9 SWAP8 DUP9 PUSH2 0x12D4 JUMP JUMPDEST SUB SWAP1 RETURN JUMPDEST DUP1 REVERT JUMPDEST DUP3 DUP5 CALLVALUE PUSH2 0x282 JUMPI PUSH1 0x20 CALLDATASIZE PUSH1 0x3 NOT ADD SLT PUSH2 0x282 JUMPI DUP2 PUSH2 0x27E SWAP2 DUP5 CALLDATALOAD DUP2 MSTORE PUSH1 0x2 PUSH1 0x20 MSTORE KECCAK256 SWAP2 PUSH1 0x1 DUP1 PUSH1 0xA0 SHL SUB SWAP3 DUP4 DUP2 SLOAD AND SWAP4 PUSH1 0x1 DUP3 ADD SLOAD AND SWAP5 PUSH1 0x2 DUP3 ADD SLOAD SWAP1 PUSH1 0xFF PUSH1 0x3 DUP5 ADD SLOAD AND SWAP1 DUP4 ADD SLOAD SWAP2 PUSH2 0x273 PUSH1 0x6 PUSH1 0x5 DUP7 ADD SLOAD SWAP6 ADD PUSH2 0x11EE JUMP JUMPDEST POP POP CALLVALUE PUSH2 0xFC JUMPI DUP2 PUSH1 0x3 NOT CALLDATASIZE ADD SLT PUSH2 0xFC JUMPI SWAP1 SLOAD SWAP1 MLOAD PUSH1 0x1 PUSH1 0x1 PUSH1 0xA0 SHL SUB SWAP1 SWAP2 AND DUP2 MSTORE PUSH1 0x20 SWAP1 RETURN JUMPDEST DUP3 DUP5 CALLVALUE PUSH2 0x282 JUMPI DUP2 PUSH1 0x3 NOT CALLDATASIZE ADD SLT PUSH2 0x282 JUMPI PUSH2 0x322 PUSH2 0x10D7 JUMP JUMPDEST PUSH1 0x24 CALLDATALOAD SWAP1 ISZERO PUSH2 0x416 JUMPI DUP2 MSTORE PUSH1 0x1 PUSH1 0x20 MSTORE DUP2 DUP2 KECCAK256 JUMPDEST DUP3 MLOAD SWAP2 PUSH2 0x342 DUP4 PUSH2 0x10E6 JUMP JUMPDEST PUSH1 0x1 DUP1 PUSH1 0xA0 SHL SUB DUP1 DUP4 SLOAD AND DUP5 MSTORE DUP1 PUSH1 0x1 DUP5 ADD SLOAD AND SWAP5 PUSH1 0x20 DUP6 ADD SWAP6 DUP7 MSTORE PUSH1 0x2 DUP5 ADD SLOAD SWAP5 DUP2 DUP2 ADD SWAP6 DUP7 MSTORE PUSH1 0xFF PUSH1 0x3 DUP7 ADD SLOAD AND SWAP3 PUSH1 0x60 DUP3 ADD SWAP4 DUP10 DUP2 LT ISZERO PUSH2 0x403 JUMPI DUP5 MSTORE DUP1 DUP10 DUP8 ADD SLOAD SWAP3 PUSH1 0x80 DUP2 ADD SWAP4 DUP5 MSTORE PUSH2 0x3A7 PUSH1 0x6 PUSH1 0x5 DUP11 ADD SLOAD SWAP10 PUSH1 0xA0 DUP5 ADD SWAP11 DUP12 MSTORE ADD PUSH2 0x11EE JUMP JUMPDEST PUSH1 0xC0 DUP3 ADD MSTORE MLOAD AND SWAP8 MLOAD AND SWAP6 MLOAD SWAP3 MLOAD SWAP4 DUP9 DUP6 LT ISZERO PUSH2 0x3F0 JUMPI POP MLOAD SWAP4 MLOAD DUP2 MLOAD SWAP7 DUP8 MSTORE PUSH1 0x20 DUP8 ADD SWAP6 SWAP1 SWAP6 MSTORE DUP6 ADD MSTORE PUSH1 0xC0 SWAP5 POP PUSH2 0x3E4 SWAP1 PUSH1 0x60 DUP6 ADD SWAP1 PUSH2 0x1191 JUMP JUMPDEST PUSH1 0x80 DUP4 ADD MSTORE PUSH1 0xA0 DUP3 ADD MSTORE RETURN JUMPDEST PUSH4 0x4E487B71 PUSH1 0xE0 SHL DUP2 MSTORE PUSH1 0x21 DUP10 MSTORE PUSH1 0x24 SWAP1 REVERT JUMPDEST PUSH4 0x4E487B71 PUSH1 0xE0 SHL DUP7 MSTORE PUSH1 0x21 DUP11 MSTORE PUSH1 0x24 DUP7 REVERT JUMPDEST DUP2 MSTORE PUSH1 0x2 PUSH1 0x20 MSTORE DUP2 DUP2 KECCAK256 PUSH2 0x336 JUMP JUMPDEST DUP4 CALLVALUE PUSH2 0x282 JUMPI DUP1 PUSH1 0x3 NOT CALLDATASIZE ADD SLT PUSH2 0x282 JUMPI PUSH2 0x43E PUSH2 0x131E JUMP JUMPDEST DUP1 SLOAD PUSH1 0x1 PUSH1 0x1 PUSH1 0xA0 SHL SUB NOT DUP2 AND DUP3 SSTORE DUP2 SWAP1 PUSH1 0x1 PUSH1 0x1 PUSH1 0xA0 SHL SUB AND PUSH32 0x8BE0079C531659141344CD1FD0A4F28419497F9722A3DAAFE3B4186F6B6457E0 DUP3 DUP1 LOG3 DUP1 RETURN JUMPDEST SWAP1 POP CALLVALUE PUSH2 0x128 JUMPI PUSH1 0x20 CALLDATASIZE PUSH1 0x3 NOT ADD SLT PUSH2 0x128 JUMPI PUSH2 0x49A PUSH2 0x10BC JUMP JUMPDEST PUSH2 0x4A2 PUSH2 0x131E JUMP JUMPDEST PUSH1 0x1 PUSH1 0x1 PUSH1 0xA0 SHL SUB AND SWAP2 DUP3 ISZERO PUSH2 0x4CA JUMPI POP POP PUSH1 0x1 PUSH1 0x1 PUSH1 0x60 SHL SUB PUSH1 0xA0 SHL PUSH1 0x5 SLOAD AND OR PUSH1 0x5 SSTORE DUP1 RETURN JUMPDEST SWAP1 PUSH1 0x20 PUSH1 0x64 SWAP3 MLOAD SWAP2 PUSH3 0x461BCD PUSH1 0xE5 SHL DUP4 MSTORE DUP3 ADD MSTORE PUSH1 0xF PUSH1 0x24 DUP3 ADD MSTORE PUSH15 0x496E76616C69642061646472657373 PUSH1 0x88 SHL PUSH1 0x44 DUP3 ADD MSTORE REVERT JUMPDEST DUP4 DUP4 CALLVALUE PUSH2 0xFC JUMPI PUSH1 0xA0 CALLDATASIZE PUSH1 0x3 NOT ADD SLT PUSH2 0xFC JUMPI PUSH2 0x51A PUSH2 0x10D7 JUMP JUMPDEST PUSH1 0x24 DUP1 CALLDATALOAD SWAP5 SWAP2 SWAP4 SWAP1 SWAP2 PUSH1 0x1 PUSH1 0x1 PUSH1 0xA0 SHL SUB PUSH1 0x44 CALLDATALOAD DUP2 DUP2 AND SWAP1 DUP2 SWAP1 SUB PUSH2 0xAE2 JUMPI PUSH1 0x64 CALLDATALOAD SWAP1 PUSH8 0xFFFFFFFFFFFFFFFF PUSH1 0x84 CALLDATALOAD DUP2 DUP2 GT PUSH2 0xADE JUMPI PUSH2 0x55D SWAP1 CALLDATASIZE SWAP1 DUP8 ADD PUSH2 0x113A JUMP JUMPDEST SWAP2 DUP1 ISZERO PUSH2 0xAA3 JUMPI DUP4 ISZERO PUSH2 0xA4B JUMPI PUSH8 0xDE0B6B3A7640000 DUP1 DUP6 MUL SWAP5 DUP6 DIV SUB PUSH2 0xA39 JUMPI DUP7 SWAP1 DUP11 ISZERO PUSH2 0x89A JUMPI DUP10 MLOAD PUSH2 0x591 DUP2 PUSH2 0x10E6 JUMP JUMPDEST CALLER DUP2 MSTORE DUP13 DUP12 PUSH1 0x20 SWAP4 DUP5 DUP5 ADD SWAP1 DUP2 MSTORE DUP2 DUP5 ADD DUP10 DUP2 MSTORE PUSH1 0x60 DUP6 ADD SWAP2 DUP8 DUP4 MSTORE DUP12 PUSH1 0x80 DUP8 ADD SWAP5 TIMESTAMP DUP7 MSTORE PUSH1 0xA0 DUP9 ADD SWAP7 PUSH3 0x93A80 DUP9 MSTORE PUSH1 0xC0 DUP10 ADD SWAP13 DUP14 MSTORE DUP11 MSTORE PUSH1 0x1 SWAP10 DUP11 DUP11 MSTORE KECCAK256 SWAP7 MLOAD AND PUSH1 0x1 PUSH1 0x1 PUSH1 0x60 SHL SUB PUSH1 0xA0 SHL SWAP1 DUP2 DUP9 SLOAD AND OR DUP8 SSTORE DUP13 DUP10 DUP9 ADD SWAP3 MLOAD AND SWAP1 DUP3 SLOAD AND OR SWAP1 SSTORE MLOAD PUSH1 0x2 DUP6 ADD SSTORE MLOAD DUP11 DUP2 LT ISZERO PUSH2 0x888 JUMPI SWAP1 PUSH2 0x616 DUP5 SWAP4 SWAP3 PUSH1 0x3 PUSH1 0x6 SWAP7 ADD PUSH2 0x1376 JUMP JUMPDEST MLOAD DUP11 DUP4 ADD SSTORE MLOAD PUSH1 0x5 DUP3 ADD SSTORE ADD SWAP4 MLOAD DUP1 MLOAD SWAP4 DUP5 GT PUSH2 0x876 JUMPI SWAP1 DUP5 SWAP4 SWAP3 SWAP2 PUSH2 0x63E DUP11 SWAP8 SWAP7 SLOAD PUSH2 0x11B4 JUMP JUMPDEST PUSH1 0x1F DUP2 GT PUSH2 0x822 JUMPI JUMPDEST POP DUP2 PUSH1 0x1F DUP6 GT PUSH1 0x1 EQ PUSH2 0x7BE JUMPI POP DUP7 SWAP3 DUP5 SWAP3 SWAP1 SWAP2 DUP4 PUSH2 0x7B3 JUMPI JUMPDEST POP POP SHL SWAP2 PUSH1 0x0 NOT SWAP1 PUSH1 0x3 SHL SHR NOT AND OR SWAP1 SSTORE JUMPDEST DUP3 DUP5 SLOAD AND DUP8 MLOAD SWAP2 PUSH4 0x23B872DD PUSH1 0xE0 SHL DUP4 MSTORE CALLER DUP7 DUP5 ADD MSTORE ADDRESS DUP9 DUP5 ADD MSTORE PUSH1 0x44 DUP4 ADD MSTORE DUP2 PUSH1 0x64 DUP2 PUSH1 0x20 SWAP6 DUP7 SWAP5 GAS CALL SWAP1 DUP2 ISZERO PUSH2 0x7A9 JUMPI SWAP1 PUSH2 0x6B7 SWAP2 DUP7 SWAP2 PUSH2 0x77C JUMPI JUMPDEST POP PUSH2 0x13A6 JUMP JUMPDEST DUP7 ISZERO PUSH2 0x76C JUMPI DUP8 DUP5 MSTORE PUSH1 0x1 DUP2 MSTORE DUP6 DUP5 KECCAK256 SWAP2 JUMPDEST DUP3 SLOAD AND CALLER SUB PUSH2 0x72B JUMPI POP PUSH1 0x3 ADD SWAP3 DUP4 SLOAD SWAP3 PUSH1 0xFF DUP5 AND SWAP3 DUP1 DUP5 LT ISZERO PUSH2 0x71B JUMPI POP POP POP PUSH2 0x27E SWAP4 SWAP3 SWAP2 PUSH2 0x6FC PUSH1 0x1 SWAP3 ISZERO PUSH2 0x13EA JUMP JUMPDEST PUSH1 0xFF NOT AND OR SWAP1 SSTORE MLOAD SWAP2 ISZERO ISZERO DUP3 MSTORE PUSH1 0x20 DUP3 ADD SWAP3 SWAP1 SWAP3 MSTORE SWAP1 DUP2 SWAP1 PUSH1 0x40 DUP3 ADD SWAP1 JUMP JUMPDEST PUSH4 0x4E487B71 PUSH1 0xE0 SHL DUP3 MSTORE PUSH1 0x21 SWAP1 MSTORE REVERT JUMPDEST DUP3 PUSH1 0x19 DUP7 PUSH1 0x64 SWAP4 DUP10 MLOAD SWAP4 PUSH3 0x461BCD PUSH1 0xE5 SHL DUP6 MSTORE DUP5 ADD MSTORE DUP3 ADD MSTORE PUSH32 0x4F6E6C792062757965722063616E206C6F636B2066756E647300000000000000 PUSH1 0x44 DUP3 ADD MSTORE REVERT JUMPDEST DUP8 DUP5 MSTORE PUSH1 0x2 DUP2 MSTORE DUP6 DUP5 KECCAK256 SWAP2 PUSH2 0x6C9 JUMP JUMPDEST PUSH2 0x79C SWAP2 POP DUP4 RETURNDATASIZE DUP6 GT PUSH2 0x7A2 JUMPI JUMPDEST PUSH2 0x794 DUP2 DUP4 PUSH2 0x1118 JUMP JUMPDEST DUP2 ADD SWAP1 PUSH2 0x138E JUMP JUMPDEST DUP11 PUSH2 0x6B1 JUMP JUMPDEST POP RETURNDATASIZE PUSH2 0x78A JUMP JUMPDEST DUP8 MLOAD RETURNDATASIZE DUP8 DUP3 RETURNDATACOPY RETURNDATASIZE SWAP1 REVERT JUMPDEST ADD MLOAD SWAP3 POP DUP15 DUP1 PUSH2 0x661 JUMP JUMPDEST SWAP2 SWAP1 PUSH1 0x1F SWAP5 SWAP4 SWAP5 NOT DUP5 AND DUP7 DUP10 MSTORE DUP4 DUP10 KECCAK256 SWAP4 DUP10 SWAP1 JUMPDEST DUP3 DUP3 LT PUSH2 0x808 JUMPI POP POP DUP5 GT PUSH2 0x7EF JUMPI JUMPDEST POP POP POP DUP2 SHL ADD SWAP1 SSTORE PUSH2 0x673 JUMP JUMPDEST ADD MLOAD PUSH1 0x0 NOT PUSH1 0xF8 DUP5 PUSH1 0x3 SHL AND SHR NOT AND SWAP1 SSTORE DUP13 DUP1 DUP1 PUSH2 0x7E2 JUMP JUMPDEST DUP4 DUP6 ADD MLOAD DUP7 SSTORE DUP14 SWAP11 POP SWAP5 DUP8 ADD SWAP5 SWAP4 DUP5 ADD SWAP4 SWAP1 DUP2 ADD SWAP1 PUSH2 0x7D2 JUMP JUMPDEST SWAP1 SWAP2 SWAP3 SWAP4 SWAP5 DUP1 SWAP7 SWAP8 MSTORE DUP3 DUP11 KECCAK256 PUSH1 0x1F DUP7 ADD PUSH1 0x5 SHR DUP2 ADD SWAP2 DUP5 DUP8 LT PUSH2 0x86C JUMPI JUMPDEST SWAP1 PUSH1 0x1F DUP13 SWAP10 SWAP9 SWAP8 SWAP7 SWAP6 SWAP5 SWAP4 SWAP3 ADD PUSH1 0x5 SHR ADD SWAP1 JUMPDEST DUP2 DUP2 LT PUSH2 0x860 JUMPI POP PUSH2 0x647 JUMP JUMPDEST SWAP8 DUP9 SSTORE DUP11 SWAP8 DUP5 ADD PUSH2 0x853 JUMP JUMPDEST SWAP1 SWAP2 POP DUP2 SWAP1 PUSH2 0x840 JUMP JUMPDEST PUSH4 0x4E487B71 PUSH1 0xE0 SHL DUP10 MSTORE PUSH1 0x41 DUP9 MSTORE DUP10 DUP10 REVERT JUMPDEST PUSH4 0x4E487B71 PUSH1 0xE0 SHL DUP13 MSTORE PUSH1 0x21 DUP12 MSTORE DUP13 DUP13 REVERT JUMPDEST SWAP1 POP DUP9 MLOAD PUSH2 0x8A7 DUP2 PUSH2 0x10E6 JUMP JUMPDEST CALLER DUP2 MSTORE PUSH1 0x20 SWAP1 DUP2 DUP2 ADD SWAP3 DUP4 MSTORE DUP13 DUP10 DUP13 DUP1 DUP5 ADD DUP10 DUP2 MSTORE DUP11 PUSH1 0x60 DUP7 ADD SWAP3 DUP5 DUP5 MSTORE PUSH1 0x80 DUP8 ADD SWAP5 TIMESTAMP DUP7 MSTORE PUSH1 0xA0 DUP9 ADD SWAP7 PUSH3 0x93A80 DUP9 MSTORE PUSH1 0xC0 DUP10 ADD SWAP13 DUP14 MSTORE DUP2 MSTORE PUSH1 0x2 DUP10 MSTORE KECCAK256 SWAP6 MLOAD AND SWAP7 PUSH1 0x1 PUSH1 0x1 PUSH1 0x60 SHL SUB PUSH1 0xA0 SHL SWAP8 DUP9 DUP8 SLOAD AND OR DUP7 SSTORE PUSH1 0x1 SWAP8 DUP13 DUP10 DUP9 ADD SWAP3 MLOAD AND SWAP1 DUP3 SLOAD AND OR SWAP1 SSTORE MLOAD PUSH1 0x2 DUP6 ADD SSTORE MLOAD DUP11 DUP2 LT ISZERO PUSH2 0x888 JUMPI SWAP1 PUSH2 0x92F DUP5 SWAP4 SWAP3 PUSH1 0x3 PUSH1 0x6 SWAP7 ADD PUSH2 0x1376 JUMP JUMPDEST MLOAD DUP11 DUP4 ADD SSTORE MLOAD PUSH1 0x5 DUP3 ADD SSTORE ADD SWAP4 MLOAD DUP1 MLOAD SWAP4 DUP5 GT PUSH2 0x876 JUMPI SWAP1 DUP5 SWAP4 SWAP3 SWAP2 PUSH2 0x957 DUP11 SWAP8 SWAP7 SLOAD PUSH2 0x11B4 JUMP JUMPDEST PUSH1 0x1F DUP2 GT PUSH2 0x9E5 JUMPI JUMPDEST POP DUP2 PUSH1 0x1F DUP6 GT PUSH1 0x1 EQ PUSH2 0x99B JUMPI POP DUP7 SWAP3 DUP5 SWAP3 SWAP1 SWAP2 DUP4 PUSH2 0x990 JUMPI JUMPDEST POP POP SHL SWAP2 PUSH1 0x0 NOT SWAP1 PUSH1 0x3 SHL SHR NOT AND OR SWAP1 SSTORE PUSH2 0x673 JUMP JUMPDEST ADD MLOAD SWAP3 POP DUP15 DUP1 PUSH2 0x97A JUMP JUMPDEST SWAP2 SWAP1 PUSH1 0x1F SWAP5 SWAP4 SWAP5 NOT DUP5 AND DUP7 DUP10 MSTORE DUP4 DUP10 KECCAK256 SWAP4 DUP10 SWAP1 JUMPDEST DUP3 DUP3 LT PUSH2 0x9CB JUMPI POP POP DUP5 GT PUSH2 0x7EF JUMPI POP POP POP DUP2 SHL ADD SWAP1 SSTORE PUSH2 0x673 JUMP JUMPDEST DUP4 DUP6 ADD MLOAD DUP7 SSTORE DUP14 SWAP11 POP SWAP5 DUP8 ADD SWAP5 SWAP4 DUP5 ADD SWAP4 SWAP1 DUP2 ADD SWAP1 PUSH2 0x9AF JUMP JUMPDEST SWAP1 SWAP2 SWAP3 SWAP4 SWAP5 DUP1 SWAP7 SWAP8 MSTORE DUP3 DUP11 KECCAK256 PUSH1 0x1F DUP7 ADD PUSH1 0x5 SHR DUP2 ADD SWAP2 DUP5 DUP8 LT PUSH2 0xA2F JUMPI JUMPDEST SWAP1 PUSH1 0x1F DUP13 SWAP10 SWAP9 SWAP8 SWAP7 SWAP6 SWAP5 SWAP4 SWAP3 ADD PUSH1 0x5 SHR ADD SWAP1 JUMPDEST DUP2 DUP2 LT PUSH2 0xA23 JUMPI POP PUSH2 0x960 JUMP JUMPDEST SWAP8 DUP9 SSTORE DUP11 SWAP8 DUP5 ADD PUSH2 0xA16 JUMP JUMPDEST SWAP1 SWAP2 POP DUP2 SWAP1 PUSH2 0xA03 JUMP JUMPDEST PUSH4 0x4E487B71 PUSH1 0xE0 SHL DUP8 MSTORE PUSH1 0x11 DUP7 MSTORE DUP8 DUP8 REVERT JUMPDEST DUP9 MLOAD PUSH3 0x461BCD PUSH1 0xE5 SHL DUP2 MSTORE PUSH1 0x20 DUP2 DUP9 ADD MSTORE PUSH1 0x2D DUP2 DUP11 ADD MSTORE PUSH32 0x496E76616C696420616D6F756E742120416D6F756E74206D7573742062652067 PUSH1 0x44 DUP3 ADD MSTORE PUSH13 0x726561746572207468616E203 PUSH1 0x9C SHL PUSH1 0x64 DUP3 ADD MSTORE PUSH1 0x84 SWAP1 REVERT JUMPDEST DUP9 MLOAD PUSH3 0x461BCD PUSH1 0xE5 SHL DUP2 MSTORE PUSH1 0x20 DUP2 DUP9 ADD MSTORE PUSH1 0x16 DUP2 DUP11 ADD MSTORE PUSH22 0x496E76616C69642073656C6C65722061646472657373 PUSH1 0x50 SHL PUSH1 0x44 DUP3 ADD MSTORE PUSH1 0x64 SWAP1 REVERT JUMPDEST DUP7 DUP1 REVERT JUMPDEST DUP4 DUP1 REVERT JUMPDEST DUP4 DUP4 CALLVALUE PUSH2 0xFC JUMPI DUP1 PUSH1 0x3 NOT CALLDATASIZE ADD SLT PUSH2 0xFC JUMPI PUSH2 0xB00 PUSH2 0x10D7 JUMP JUMPDEST SWAP2 PUSH1 0x24 CALLDATALOAD SWAP4 DUP4 PUSH1 0x0 EQ PUSH2 0xCAB JUMPI DUP5 DUP3 MSTORE PUSH1 0x1 PUSH1 0x20 MSTORE DUP3 DUP3 KECCAK256 JUMPDEST PUSH1 0x1 DUP2 ADD SLOAD PUSH1 0x1 PUSH1 0x1 PUSH1 0xA0 SHL SUB SWAP2 SWAP1 DUP3 AND CALLER EQ DUP1 ISZERO PUSH2 0xC9E JUMPI JUMPDEST PUSH2 0xB3C SWAP1 PUSH2 0x1426 JUMP JUMPDEST PUSH1 0x3 DUP2 ADD DUP1 SLOAD PUSH1 0xFF DUP2 AND DUP6 DUP2 LT ISZERO PUSH2 0xC8B JUMPI PUSH1 0x1 PUSH2 0xB5A SWAP2 EQ PUSH2 0x13EA JUMP JUMPDEST DUP5 DUP4 ADD SLOAD PUSH1 0x5 DUP5 ADD SLOAD DUP2 ADD DUP1 SWAP2 GT PUSH2 0xC78 JUMPI TIMESTAMP LT DUP1 ISZERO SWAP1 PUSH2 0xC6B JUMPI JUMPDEST ISZERO PUSH2 0xC28 JUMPI PUSH1 0x3 PUSH1 0xFF NOT SWAP2 SWAP1 SWAP2 AND OR SWAP1 SSTORE DUP3 SLOAD DUP2 SLOAD PUSH1 0x2 SWAP1 SWAP3 ADD SLOAD DUP7 MLOAD PUSH4 0xA9059CBB PUSH1 0xE0 SHL DUP2 MSTORE SWAP3 DUP5 AND PUSH1 0x1 PUSH1 0x1 PUSH1 0xA0 SHL SUB AND SWAP5 DUP4 ADD SWAP5 DUP6 MSTORE PUSH1 0x20 DUP1 DUP7 ADD SWAP2 SWAP1 SWAP2 MSTORE SWAP2 SWAP4 SWAP2 SWAP3 DUP5 SWAP3 DUP4 SWAP1 SUB PUSH1 0x40 ADD SWAP2 DUP4 SWAP2 DUP8 SWAP2 AND GAS CALL SWAP2 DUP3 ISZERO PUSH2 0xC1D JUMPI PUSH2 0x27E SWAP4 SWAP3 PUSH2 0xBE7 SWAP3 SWAP1 PUSH2 0xBFF JUMPI POP PUSH2 0x13A6 JUMP JUMPDEST MLOAD SWAP2 ISZERO ISZERO DUP3 MSTORE PUSH1 0x20 DUP3 ADD SWAP3 SWAP1 SWAP3 MSTORE SWAP1 DUP2 SWAP1 PUSH1 0x40 DUP3 ADD SWAP1 JUMP JUMPDEST PUSH2 0xC17 SWAP2 POP PUSH1 0x20 RETURNDATASIZE DUP2 GT PUSH2 0x7A2 JUMPI PUSH2 0x794 DUP2 DUP4 PUSH2 0x1118 JUMP JUMPDEST DUP7 PUSH2 0x6B1 JUMP JUMPDEST DUP4 MLOAD SWAP1 RETURNDATASIZE SWAP1 DUP3 RETURNDATACOPY RETURNDATASIZE SWAP1 REVERT JUMPDEST DUP7 MLOAD PUSH3 0x461BCD PUSH1 0xE5 SHL DUP2 MSTORE PUSH1 0x20 DUP2 DUP8 ADD MSTORE PUSH1 0x17 PUSH1 0x24 DUP3 ADD MSTORE PUSH32 0x4C6F636B20706572696F64206E6F742065787069726564000000000000000000 PUSH1 0x44 DUP3 ADD MSTORE PUSH1 0x64 SWAP1 REVERT JUMPDEST POP DUP4 PUSH1 0x3 SLOAD AND CALLER EQ PUSH2 0xB76 JUMP JUMPDEST PUSH4 0x4E487B71 PUSH1 0xE0 SHL DUP8 MSTORE PUSH1 0x11 DUP7 MSTORE PUSH1 0x24 DUP8 REVERT JUMPDEST PUSH4 0x4E487B71 PUSH1 0xE0 SHL DUP8 MSTORE PUSH1 0x21 DUP7 MSTORE PUSH1 0x24 DUP8 REVERT JUMPDEST POP PUSH1 0x3 SLOAD DUP3 AND CALLER EQ PUSH2 0xB33 JUMP JUMPDEST DUP5 DUP3 MSTORE PUSH1 0x2 PUSH1 0x20 MSTORE DUP3 DUP3 KECCAK256 PUSH2 0xB19 JUMP JUMPDEST DUP3 DUP5 CALLVALUE PUSH2 0x282 JUMPI PUSH1 0x3 NOT SWAP2 PUSH1 0x80 CALLDATASIZE DUP5 ADD SLT PUSH2 0xFC JUMPI PUSH2 0xCD8 PUSH2 0x10D7 JUMP JUMPDEST SWAP2 PUSH1 0x24 CALLDATALOAD SWAP4 PUSH1 0x44 CALLDATALOAD SWAP1 PUSH8 0xFFFFFFFFFFFFFFFF SWAP2 DUP3 DUP2 GT PUSH2 0xAE2 JUMPI PUSH2 0xCFF SWAP1 CALLDATASIZE SWAP1 DUP10 ADD PUSH2 0x113A JUMP JUMPDEST SWAP1 PUSH1 0x64 CALLDATALOAD DUP4 DUP2 GT PUSH2 0xF98 JUMPI PUSH2 0xD17 SWAP1 CALLDATASIZE SWAP1 DUP11 ADD PUSH2 0x113A JUMP JUMPDEST DUP7 ISZERO PUSH2 0xF87 JUMPI DUP8 DUP6 MSTORE PUSH1 0x1 PUSH1 0x20 MSTORE DUP6 DUP6 KECCAK256 SWAP3 JUMPDEST DUP4 SLOAD PUSH1 0x1 PUSH1 0x1 PUSH1 0xA0 SHL SUB SWAP2 SWAP1 DUP3 AND CALLER EQ DUP1 ISZERO PUSH2 0xF7A JUMPI JUMPDEST PUSH2 0xD4A SWAP1 PUSH2 0x1426 JUMP JUMPDEST PUSH1 0x3 DUP6 ADD SWAP2 DUP3 SLOAD SWAP1 PUSH1 0xFF DUP3 AND SWAP4 DUP14 DUP6 LT ISZERO PUSH2 0xF66 JUMPI SWAP1 DUP10 DUP15 DUP13 SWAP4 PUSH2 0xD71 PUSH1 0x1 DUP1 SWAP10 EQ PUSH2 0x13EA JUMP JUMPDEST PUSH1 0x2 PUSH1 0xFF NOT DUP1 SWAP8 AND OR SWAP1 SSTORE PUSH2 0xDC2 DUP4 DUP3 SLOAD AND DUP5 DUP10 DUP14 ADD SLOAD AND SWAP6 PUSH1 0x2 DUP14 ADD SLOAD SWAP1 MLOAD SWAP5 DUP6 DUP1 SWAP5 DUP2 SWAP4 PUSH4 0xA9059CBB PUSH1 0xE0 SHL DUP4 MSTORE PUSH1 0x20 SWAP11 DUP12 SWAP9 DUP5 ADD PUSH1 0x20 SWAP1 SWAP4 SWAP3 SWAP2 SWAP4 PUSH1 0x40 DUP2 ADD SWAP5 PUSH1 0x1 DUP1 PUSH1 0xA0 SHL SUB AND DUP2 MSTORE ADD MSTORE JUMP JUMPDEST SUB SWAP3 GAS CALL SWAP1 DUP2 ISZERO PUSH2 0xF5C JUMPI PUSH1 0x6 SWAP3 SWAP2 PUSH2 0xDE1 SWAP2 DUP14 SWAP2 PUSH2 0xF3F JUMPI POP PUSH2 0x13A6 JUMP JUMPDEST PUSH1 0x5 SLOAD AND SWAP8 ADD SWAP4 DUP8 EXTCODESIZE ISZERO PUSH2 0xF3B JUMPI SWAP3 DUP14 SWAP6 SWAP3 DUP11 SWAP10 SWAP9 SWAP6 SWAP3 PUSH1 0x60 SWAP12 SWAP9 SWAP6 DUP14 MLOAD SWAP13 DUP14 SWAP10 PUSH4 0xCE5F0B7D PUSH1 0xE0 SHL DUP12 MSTORE DUP11 ADD MSTORE DUP10 SWAP5 DUP1 SLOAD DUP11 DUP13 PUSH2 0xE1E DUP4 PUSH2 0x11B4 JUMP JUMPDEST SWAP7 DUP8 PUSH1 0x64 DUP5 ADD MSTORE DUP6 DUP5 AND SWAP4 DUP5 PUSH1 0x0 EQ PUSH2 0xF0C JUMPI POP POP POP POP PUSH1 0x1 EQ PUSH2 0xEC7 JUMPI JUMPDEST POP POP POP POP DUP4 DUP8 SWAP4 PUSH2 0xE5D DUP5 PUSH2 0xE6C SWAP5 DUP11 SWAP9 DUP10 DUP1 SWAP9 SUB ADD PUSH1 0x24 DUP9 ADD MSTORE PUSH2 0x1294 JUMP JUMPDEST SWAP2 DUP5 DUP4 SUB ADD PUSH1 0x44 DUP6 ADD MSTORE PUSH2 0x1294 JUMP JUMPDEST SUB SWAP3 GAS CALL DUP1 ISZERO PUSH2 0xEBD JUMPI PUSH2 0xE92 JUMPI JUMPDEST POP POP SWAP1 MLOAD SWAP2 ISZERO ISZERO DUP3 MSTORE POP PUSH1 0x20 DUP2 ADD SWAP2 SWAP1 SWAP2 MSTORE PUSH1 0x40 SWAP1 RETURN JUMPDEST DUP3 GT PUSH2 0xEAA JUMPI POP DUP2 MSTORE SWAP2 SWAP3 POP DUP3 SWAP2 PUSH2 0x27E DUP6 DUP1 PUSH2 0xE7B JUMP JUMPDEST PUSH4 0x4E487B71 PUSH1 0xE0 SHL DUP2 MSTORE PUSH1 0x41 DUP7 MSTORE PUSH1 0x24 SWAP1 REVERT JUMPDEST DUP5 MLOAD RETURNDATASIZE DUP5 DUP3 RETURNDATACOPY RETURNDATASIZE SWAP1 REVERT JUMPDEST DUP11 MSTORE DUP2 DUP11 KECCAK256 SWAP4 SWAP5 POP DUP10 SWAP4 JUMPDEST DUP4 DUP6 LT PUSH2 0xEF0 JUMPI POP POP POP POP DUP6 ADD PUSH1 0x84 ADD SWAP1 DUP4 DUP4 PUSH2 0xE5D PUSH2 0xE6C PUSH2 0xE3D JUMP JUMPDEST DUP1 SLOAD SWAP10 DUP6 ADD PUSH1 0x84 ADD SWAP10 SWAP1 SWAP10 MSTORE DUP12 SWAP10 POP DUP13 SWAP9 SWAP4 DUP3 ADD SWAP4 DUP2 ADD PUSH2 0xED2 JUMP JUMPDEST AND PUSH1 0x84 DUP1 DUP5 ADD SWAP2 SWAP1 SWAP2 MSTORE SWAP7 ISZERO ISZERO PUSH1 0x5 SHL SWAP1 SWAP2 ADD SWAP1 SWAP6 ADD SWAP7 POP DUP9 SWAP5 POP DUP8 SWAP4 POP PUSH2 0xE5D SWAP3 POP PUSH2 0xE6C SWAP2 POP PUSH2 0xE3D SWAP1 POP JUMP JUMPDEST DUP10 DUP1 REVERT JUMPDEST PUSH2 0xF56 SWAP2 POP DUP6 RETURNDATASIZE DUP8 GT PUSH2 0x7A2 JUMPI PUSH2 0x794 DUP2 DUP4 PUSH2 0x1118 JUMP JUMPDEST CODESIZE PUSH2 0x6B1 JUMP JUMPDEST DUP13 MLOAD RETURNDATASIZE DUP14 DUP3 RETURNDATACOPY RETURNDATASIZE SWAP1 REVERT JUMPDEST POP PUSH4 0x4E487B71 PUSH1 0xE0 SHL DUP10 MSTORE PUSH1 0x21 DUP14 MSTORE PUSH1 0x24 DUP10 REVERT JUMPDEST POP PUSH1 0x3 SLOAD DUP3 AND CALLER EQ PUSH2 0xD41 JUMP JUMPDEST DUP8 DUP6 MSTORE PUSH1 0x2 PUSH1 0x20 MSTORE DUP6 DUP6 KECCAK256 SWAP3 PUSH2 0xD2A JUMP JUMPDEST DUP5 DUP1 REVERT JUMPDEST SWAP2 SWAP1 POP CALLVALUE PUSH2 0x128 JUMPI PUSH1 0x60 CALLDATASIZE PUSH1 0x3 NOT ADD SLT PUSH2 0x128 JUMPI PUSH2 0xFB8 PUSH2 0x10D7 JUMP JUMPDEST SWAP2 DUP2 PUSH1 0x24 CALLDATALOAD SWAP5 DUP5 PUSH1 0x0 EQ PUSH2 0x1050 JUMPI DUP6 DUP2 MSTORE PUSH1 0x1 PUSH1 0x20 MSTORE KECCAK256 SWAP1 JUMPDEST PUSH1 0x3 SLOAD PUSH1 0x1 PUSH1 0x1 PUSH1 0xA0 SHL SUB AND CALLER SUB PUSH2 0x1001 JUMPI POP PUSH1 0x44 CALLDATALOAD PUSH1 0x5 SWAP2 SWAP1 SWAP2 ADD SSTORE MLOAD SWAP1 ISZERO ISZERO DUP2 MSTORE PUSH1 0x20 DUP2 ADD SWAP2 SWAP1 SWAP2 MSTORE PUSH1 0x40 SWAP1 RETURN JUMPDEST PUSH1 0x84 SWAP1 PUSH1 0x20 DUP5 MLOAD SWAP2 PUSH3 0x461BCD PUSH1 0xE5 SHL DUP4 MSTORE DUP3 ADD MSTORE PUSH1 0x23 PUSH1 0x24 DUP3 ADD MSTORE PUSH32 0x4F6E6C7920617262697465722063616E20757064617465206C6F636B20706572 PUSH1 0x44 DUP3 ADD MSTORE PUSH3 0x1A5BD9 PUSH1 0xEA SHL PUSH1 0x64 DUP3 ADD MSTORE REVERT JUMPDEST DUP6 DUP2 MSTORE PUSH1 0x2 PUSH1 0x20 MSTORE KECCAK256 SWAP1 PUSH2 0xFD1 JUMP JUMPDEST DUP4 CALLVALUE PUSH2 0x282 JUMPI PUSH1 0x20 CALLDATASIZE PUSH1 0x3 NOT ADD SLT PUSH2 0x282 JUMPI PUSH2 0x1079 PUSH2 0x10BC JUMP JUMPDEST PUSH2 0x1081 PUSH2 0x131E JUMP JUMPDEST PUSH1 0x1 DUP1 PUSH1 0xA0 SHL SUB AND PUSH1 0x1 PUSH1 0x1 PUSH1 0x60 SHL SUB PUSH1 0xA0 SHL PUSH1 0x3 SLOAD AND OR PUSH1 0x3 SSTORE DUP1 RETURN JUMPDEST DUP5 SWAP1 CALLVALUE PUSH2 0xFC JUMPI DUP2 PUSH1 0x3 NOT CALLDATASIZE ADD SLT PUSH2 0xFC JUMPI DUP1 PUSH3 0x93A80 PUSH1 0x20 SWAP3 MSTORE RETURN JUMPDEST PUSH1 0x4 CALLDATALOAD SWAP1 PUSH1 0x1 PUSH1 0x1 PUSH1 0xA0 SHL SUB DUP3 AND DUP3 SUB PUSH2 0x10D2 JUMPI JUMP JUMPDEST PUSH1 0x0 DUP1 REVERT JUMPDEST PUSH1 0x4 CALLDATALOAD SWAP1 DUP2 ISZERO ISZERO DUP3 SUB PUSH2 0x10D2 JUMPI JUMP JUMPDEST PUSH1 0xE0 DUP2 ADD SWAP1 DUP2 LT PUSH8 0xFFFFFFFFFFFFFFFF DUP3 GT OR PUSH2 0x1102 JUMPI PUSH1 0x40 MSTORE JUMP JUMPDEST PUSH4 0x4E487B71 PUSH1 0xE0 SHL PUSH1 0x0 MSTORE PUSH1 0x41 PUSH1 0x4 MSTORE PUSH1 0x24 PUSH1 0x0 REVERT JUMPDEST SWAP1 PUSH1 0x1F DUP1 NOT SWAP2 ADD AND DUP2 ADD SWAP1 DUP2 LT PUSH8 0xFFFFFFFFFFFFFFFF DUP3 GT OR PUSH2 0x1102 JUMPI PUSH1 0x40 MSTORE JUMP JUMPDEST DUP2 PUSH1 0x1F DUP3 ADD SLT ISZERO PUSH2 0x10D2 JUMPI DUP1 CALLDATALOAD SWAP1 PUSH8 0xFFFFFFFFFFFFFFFF DUP3 GT PUSH2 0x1102 JUMPI PUSH1 0x40 MLOAD SWAP3 PUSH2 0x116F PUSH1 0x1F DUP5 ADD PUSH1 0x1F NOT AND PUSH1 0x20 ADD DUP6 PUSH2 0x1118 JUMP JUMPDEST DUP3 DUP5 MSTORE PUSH1 0x20 DUP4 DUP4 ADD ADD GT PUSH2 0x10D2 JUMPI DUP2 PUSH1 0x0 SWAP3 PUSH1 0x20 DUP1 SWAP4 ADD DUP4 DUP7 ADD CALLDATACOPY DUP4 ADD ADD MSTORE SWAP1 JUMP JUMPDEST SWAP1 PUSH1 0x4 DUP3 LT ISZERO PUSH2 0x119E JUMPI MSTORE JUMP JUMPDEST PUSH4 0x4E487B71 PUSH1 0xE0 SHL PUSH1 0x0 MSTORE PUSH1 0x21 PUSH1 0x4 MSTORE PUSH1 0x24 PUSH1 0x0 REVERT JUMPDEST SWAP1 PUSH1 0x1 DUP3 DUP2 SHR SWAP3 AND DUP1 ISZERO PUSH2 0x11E4 JUMPI JUMPDEST PUSH1 0x20 DUP4 LT EQ PUSH2 0x11CE JUMPI JUMP JUMPDEST PUSH4 0x4E487B71 PUSH1 0xE0 SHL PUSH1 0x0 MSTORE PUSH1 0x22 PUSH1 0x4 MSTORE PUSH1 0x24 PUSH1 0x0 REVERT JUMPDEST SWAP2 PUSH1 0x7F AND SWAP2 PUSH2 0x11C3 JUMP JUMPDEST SWAP1 PUSH1 0x40 MLOAD SWAP2 DUP3 PUSH1 0x0 DUP3 SLOAD SWAP3 PUSH2 0x1202 DUP5 PUSH2 0x11B4 JUMP JUMPDEST SWAP1 DUP2 DUP5 MSTORE PUSH1 0x1 SWAP5 DUP6 DUP2 AND SWAP1 DUP2 PUSH1 0x0 EQ PUSH2 0x1271 JUMPI POP PUSH1 0x1 EQ PUSH2 0x122E JUMPI JUMPDEST POP POP PUSH2 0x122C SWAP3 POP SUB DUP4 PUSH2 0x1118 JUMP JUMPDEST JUMP JUMPDEST SWAP1 SWAP4 SWAP2 POP PUSH1 0x0 MSTORE PUSH1 0x20 SWAP1 DUP2 PUSH1 0x0 KECCAK256 SWAP4 PUSH1 0x0 SWAP2 JUMPDEST DUP2 DUP4 LT PUSH2 0x1259 JUMPI POP POP PUSH2 0x122C SWAP4 POP DUP3 ADD ADD CODESIZE DUP1 PUSH2 0x121E JUMP JUMPDEST DUP6 SLOAD DUP9 DUP5 ADD DUP6 ADD MSTORE SWAP5 DUP6 ADD SWAP5 DUP8 SWAP5 POP SWAP2 DUP4 ADD SWAP2 PUSH2 0x1241 JUMP JUMPDEST SWAP2 POP POP PUSH2 0x122C SWAP5 POP PUSH1 0x20 SWAP3 POP PUSH1 0xFF NOT AND DUP3 DUP5 ADD MSTORE ISZERO ISZERO PUSH1 0x5 SHL DUP3 ADD ADD CODESIZE DUP1 PUSH2 0x121E JUMP JUMPDEST SWAP2 SWAP1 DUP3 MLOAD SWAP3 DUP4 DUP3 MSTORE PUSH1 0x0 JUMPDEST DUP5 DUP2 LT PUSH2 0x12C0 JUMPI POP POP DUP3 PUSH1 0x0 PUSH1 0x20 DUP1 SWAP5 SWAP6 DUP5 ADD ADD MSTORE PUSH1 0x1F DUP1 NOT SWAP2 ADD AND ADD ADD SWAP1 JUMP JUMPDEST PUSH1 0x20 DUP2 DUP4 ADD DUP2 ADD MLOAD DUP5 DUP4 ADD DUP3 ADD MSTORE ADD PUSH2 0x129F JUMP JUMPDEST SWAP4 PUSH2 0x131B SWAP8 SWAP7 SWAP4 PUSH2 0x1304 SWAP3 PUSH1 0xE0 SWAP8 SWAP5 PUSH1 0x1 DUP1 PUSH1 0xA0 SHL SUB DUP1 SWAP3 AND DUP9 MSTORE AND PUSH1 0x20 DUP8 ADD MSTORE PUSH1 0x40 DUP7 ADD MSTORE PUSH1 0x60 DUP6 ADD SWAP1 PUSH2 0x1191 JUMP JUMPDEST PUSH1 0x80 DUP4 ADD MSTORE PUSH1 0xA0 DUP3 ADD MSTORE DUP2 PUSH1 0xC0 DUP3 ADD MSTORE ADD SWAP1 PUSH2 0x1294 JUMP JUMPDEST SWAP1 JUMP JUMPDEST PUSH1 0x0 SLOAD PUSH1 0x1 PUSH1 0x1 PUSH1 0xA0 SHL SUB AND CALLER SUB PUSH2 0x1332 JUMPI JUMP JUMPDEST PUSH1 0x64 PUSH1 0x40 MLOAD PUSH3 0x461BCD PUSH1 0xE5 SHL DUP2 MSTORE PUSH1 0x20 PUSH1 0x4 DUP3 ADD MSTORE PUSH1 0x20 PUSH1 0x24 DUP3 ADD MSTORE PUSH32 0x4F776E61626C653A2063616C6C6572206973206E6F7420746865206F776E6572 PUSH1 0x44 DUP3 ADD MSTORE REVERT JUMPDEST SWAP1 PUSH1 0x4 DUP2 LT ISZERO PUSH2 0x119E JUMPI PUSH1 0xFF DUP1 NOT DUP4 SLOAD AND SWAP2 AND OR SWAP1 SSTORE JUMP JUMPDEST SWAP1 DUP2 PUSH1 0x20 SWAP2 SUB SLT PUSH2 0x10D2 JUMPI MLOAD DUP1 ISZERO ISZERO DUP2 SUB PUSH2 0x10D2 JUMPI SWAP1 JUMP JUMPDEST ISZERO PUSH2 0x13AD JUMPI JUMP JUMPDEST PUSH1 0x40 MLOAD PUSH3 0x461BCD PUSH1 0xE5 SHL DUP2 MSTORE PUSH1 0x20 PUSH1 0x4 DUP3 ADD MSTORE PUSH1 0x15 PUSH1 0x24 DUP3 ADD MSTORE PUSH21 0x151BDAD95B881D1C985B9CD9995C8819985A5B1959 PUSH1 0x5A SHL PUSH1 0x44 DUP3 ADD MSTORE PUSH1 0x64 SWAP1 REVERT JUMPDEST ISZERO PUSH2 0x13F1 JUMPI JUMP JUMPDEST PUSH1 0x40 MLOAD PUSH3 0x461BCD PUSH1 0xE5 SHL DUP2 MSTORE PUSH1 0x20 PUSH1 0x4 DUP3 ADD MSTORE PUSH1 0xD PUSH1 0x24 DUP3 ADD MSTORE PUSH13 0x496E76616C6964207374617465 PUSH1 0x98 SHL PUSH1 0x44 DUP3 ADD MSTORE PUSH1 0x64 SWAP1 REVERT JUMPDEST ISZERO PUSH2 0x142D JUMPI JUMP JUMPDEST PUSH1 0x40 MLOAD PUSH3 0x461BCD PUSH1 0xE5 SHL DUP2 MSTORE PUSH1 0x20 PUSH1 0x4 DUP3 ADD MSTORE PUSH1 0xC PUSH1 0x24 DUP3 ADD MSTORE PUSH12 0x155B985D5D1A1BDC9A5E9959 PUSH1 0xA2 SHL PUSH1 0x44 DUP3 ADD MSTORE PUSH1 0x64 SWAP1 REVERT INVALID LOG2 PUSH5 0x6970667358 0x22 SLT KECCAK256 0x4B DUP15 TIMESTAMP SHL RETURNDATACOPY DUP4 PUSH31 0xAF23E52E807143BD864AAE8122226F260ABF1CB8461BCA59C564736F6C6343 STOP ADDMOD SLT STOP CALLER "
		},
		"gasEstimates": {
			"creation": {
				"codeDepositCost": "1054200",
				"executionCost": "infinite",
				"totalCost": "infinite"
			},
			"external": {
				"LOCK_PERIOD()": "171",
				"arbiter()": "2626",
				"auctionTransactions(uint256)": "infinite",
				"createTransaction(bool,uint256,address,uint256,string)": "infinite",
				"getTransactionDetails(bool,uint256)": "infinite",
				"normalTransactions(uint256)": "infinite",
				"owner()": "2499",
				"refund(bool,uint256)": "infinite",
				"releaseFunds(bool,uint256,string,string)": "infinite",
				"renounceOwnership()": "28232",
				"setArbiter(address)": "26661",
				"setTurtleDocumentationAddress(address)": "26799",
				"token()": "2609",
				"transferOwnership(address)": "28477",
				"turtleDocumentation()": "2565",
				"updateLockPeriod(bool,uint256,uint256)": "24688"
			},
			"internal": {
				"lockFunds(bool,uint256)": "infinite"
			}
		},
		"methodIdentifiers": {
			"LOCK_PERIOD()": "1820cabb",
			"arbiter()": "fe25e00a",
			"auctionTransactions(uint256)": "ce48dd4f",
			"createTransaction(bool,uint256,address,uint256,string)": "45301974",
			"getTransactionDetails(bool,uint256)": "899d7879",
			"normalTransactions(uint256)": "aa7f3bae",
			"owner()": "8da5cb5b",
			"refund(bool,uint256)": "3ceafc8c",
			"releaseFunds(bool,uint256,string,string)": "369d91e9",
			"renounceOwnership()": "715018a6",
			"setArbiter(address)": "1c9c088a",
			"setTurtleDocumentationAddress(address)": "5996eda9",
			"token()": "fc0c546a",
			"transferOwnership(address)": "f2fde38b",
			"turtleDocumentation()": "ddb28071",
			"updateLockPeriod(bool,uint256,uint256)": "35ba2e87"
		}
	},
	"abi": [
		{
			"inputs": [
				{
					"internalType": "address",
					"name": "_token",
					"type": "address"
				}
			],
			"stateMutability": "nonpayable",
			"type": "constructor"
		},
		{
			"anonymous": false,
			"inputs": [
				{
					"indexed": true,
					"internalType": "address",
					"name": "previousOwner",
					"type": "address"
				},
				{
					"indexed": true,
					"internalType": "address",
					"name": "newOwner",
					"type": "address"
				}
			],
			"name": "OwnershipTransferred",
			"type": "event"
		},
		{
			"inputs": [],
			"name": "LOCK_PERIOD",
			"outputs": [
				{
					"internalType": "uint256",
					"name": "",
					"type": "uint256"
				}
			],
			"stateMutability": "view",
			"type": "function"
		},
		{
			"inputs": [],
			"name": "arbiter",
			"outputs": [
				{
					"internalType": "address",
					"name": "",
					"type": "address"
				}
			],
			"stateMutability": "view",
			"type": "function"
		},
		{
			"inputs": [
				{
					"internalType": "uint256",
					"name": "",
					"type": "uint256"
				}
			],
			"name": "auctionTransactions",
			"outputs": [
				{
					"internalType": "address",
					"name": "buyer",
					"type": "address"
				},
				{
					"internalType": "address",
					"name": "seller",
					"type": "address"
				},
				{
					"internalType": "uint256",
					"name": "amount",
					"type": "uint256"
				},
				{
					"internalType": "enum TurtleEscrow.State",
					"name": "state",
					"type": "uint8"
				},
				{
					"internalType": "uint256",
					"name": "createdAt",
					"type": "uint256"
				},
				{
					"internalType": "uint256",
					"name": "lockPeriod",
					"type": "uint256"
				},
				{
					"internalType": "string",
					"name": "turtleId",
					"type": "string"
				}
			],
			"stateMutability": "view",
			"type": "function"
		},
		{
			"inputs": [
				{
					"internalType": "bool",
					"name": "_isAuction",
					"type": "bool"
				},
				{
					"internalType": "uint256",
					"name": "_transactionId",
					"type": "uint256"
				},
				{
					"internalType": "address",
					"name": "_seller",
					"type": "address"
				},
				{
					"internalType": "uint256",
					"name": "_amount",
					"type": "uint256"
				},
				{
					"internalType": "string",
					"name": "_turtleId",
					"type": "string"
				}
			],
			"name": "createTransaction",
			"outputs": [
				{
					"internalType": "bool",
					"name": "",
					"type": "bool"
				},
				{
					"internalType": "uint256",
					"name": "",
					"type": "uint256"
				}
			],
			"stateMutability": "nonpayable",
			"type": "function"
		},
		{
			"inputs": [
				{
					"internalType": "bool",
					"name": "_isAuction",
					"type": "bool"
				},
				{
					"internalType": "uint256",
					"name": "_transactionId",
					"type": "uint256"
				}
			],
			"name": "getTransactionDetails",
			"outputs": [
				{
					"internalType": "address",
					"name": "",
					"type": "address"
				},
				{
					"internalType": "address",
					"name": "",
					"type": "address"
				},
				{
					"internalType": "uint256",
					"name": "",
					"type": "uint256"
				},
				{
					"internalType": "enum TurtleEscrow.State",
					"name": "",
					"type": "uint8"
				},
				{
					"internalType": "uint256",
					"name": "",
					"type": "uint256"
				},
				{
					"internalType": "uint256",
					"name": "",
					"type": "uint256"
				}
			],
			"stateMutability": "view",
			"type": "function"
		},
		{
			"inputs": [
				{
					"internalType": "uint256",
					"name": "",
					"type": "uint256"
				}
			],
			"name": "normalTransactions",
			"outputs": [
				{
					"internalType": "address",
					"name": "buyer",
					"type": "address"
				},
				{
					"internalType": "address",
					"name": "seller",
					"type": "address"
				},
				{
					"internalType": "uint256",
					"name": "amount",
					"type": "uint256"
				},
				{
					"internalType": "enum TurtleEscrow.State",
					"name": "state",
					"type": "uint8"
				},
				{
					"internalType": "uint256",
					"name": "createdAt",
					"type": "uint256"
				},
				{
					"internalType": "uint256",
					"name": "lockPeriod",
					"type": "uint256"
				},
				{
					"internalType": "string",
					"name": "turtleId",
					"type": "string"
				}
			],
			"stateMutability": "view",
			"type": "function"
		},
		{
			"inputs": [],
			"name": "owner",
			"outputs": [
				{
					"internalType": "address",
					"name": "",
					"type": "address"
				}
			],
			"stateMutability": "view",
			"type": "function"
		},
		{
			"inputs": [
				{
					"internalType": "bool",
					"name": "_isAuction",
					"type": "bool"
				},
				{
					"internalType": "uint256",
					"name": "_transactionId",
					"type": "uint256"
				}
			],
			"name": "refund",
			"outputs": [
				{
					"internalType": "bool",
					"name": "",
					"type": "bool"
				},
				{
					"internalType": "uint256",
					"name": "",
					"type": "uint256"
				}
			],
			"stateMutability": "nonpayable",
			"type": "function"
		},
		{
			"inputs": [
				{
					"internalType": "bool",
					"name": "_isAuction",
					"type": "bool"
				},
				{
					"internalType": "uint256",
					"name": "_transactionId",
					"type": "uint256"
				},
				{
					"internalType": "string",
					"name": "_sellerId",
					"type": "string"
				},
				{
					"internalType": "string",
					"name": "_buyerId",
					"type": "string"
				}
			],
			"name": "releaseFunds",
			"outputs": [
				{
					"internalType": "bool",
					"name": "",
					"type": "bool"
				},
				{
					"internalType": "uint256",
					"name": "",
					"type": "uint256"
				}
			],
			"stateMutability": "nonpayable",
			"type": "function"
		},
		{
			"inputs": [],
			"name": "renounceOwnership",
			"outputs": [],
			"stateMutability": "nonpayable",
			"type": "function"
		},
		{
			"inputs": [
				{
					"internalType": "address",
					"name": "_newArbiter",
					"type": "address"
				}
			],
			"name": "setArbiter",
			"outputs": [],
			"stateMutability": "nonpayable",
			"type": "function"
		},
		{
			"inputs": [
				{
					"internalType": "address",
					"name": "_turtleDocumentationAddress",
					"type": "address"
				}
			],
			"name": "setTurtleDocumentationAddress",
			"outputs": [],
			"stateMutability": "nonpayable",
			"type": "function"
		},
		{
			"inputs": [],
			"name": "token",
			"outputs": [
				{
					"internalType": "contract IERC20",
					"name": "",
					"type": "address"
				}
			],
			"stateMutability": "view",
			"type": "function"
		},
		{
			"inputs": [
				{
					"internalType": "address",
					"name": "newOwner",
					"type": "address"
				}
			],
			"name": "transferOwnership",
			"outputs": [],
			"stateMutability": "nonpayable",
			"type": "function"
		},
		{
			"inputs": [],
			"name": "turtleDocumentation",
			"outputs": [
				{
					"internalType": "contract ITurtleDocumentation",
					"name": "",
					"type": "address"
				}
			],
			"stateMutability": "view",
			"type": "function"
		},
		{
			"inputs": [
				{
					"internalType": "bool",
					"name": "_isAuction",
					"type": "bool"
				},
				{
					"internalType": "uint256",
					"name": "_transactionId",
					"type": "uint256"
				},
				{
					"internalType": "uint256",
					"name": "_newLockPeriod",
					"type": "uint256"
				}
			],
			"name": "updateLockPeriod",
			"outputs": [
				{
					"internalType": "bool",
					"name": "",
					"type": "bool"
				},
				{
					"internalType": "uint256",
					"name": "",
					"type": "uint256"
				}
			],
			"stateMutability": "nonpayable",
			"type": "function"
		}
	]
}