{
	"data": {
		"bytecode": {
			"linkReferences": {},
			"object": "6080806040523461005b5760008054336001600160a01b0319821681178355916001600160a01b03909116907f8be0079c531659141344cd1fd0a4f28419497f9722a3daafe3b4186f6b6457e09080a361220890816100618239f35b600080fdfe6080604052600436101561001257600080fd5b60003560e01c80631294ffcf14611b0257806317aa1f481461196757806318e1a28a146117a85780631a0642ef146115795780631b979af11461152d578063229aa914146114d757806322d2378f1461149d578063358a3d37146110e0578063482346bd14611059578063596c442a14610e495780635c493eaa14610d42578063673ae4c114610a575780636c1dcaf814610786578063715018a61461072d5780638da5cb5b14610704578063997480e51461065c578063ce5f0b7d1461021b578063f2fde38b146101505763f3cb197d146100ed57600080fd5b3461014b57602036600319011261014b576004356001600160401b03811161014b5760046101376020610124819436908501611bc6565b8160405193828580945193849201611c4d565b810160018152030190200154604051908152f35b600080fd5b3461014b57602036600319011261014b576004356001600160a01b038181169182900361014b5761017f611ca5565b81156101c757600054826bffffffffffffffffffffffff60a01b821617600055167f8be0079c531659141344cd1fd0a4f28419497f9722a3daafe3b4186f6b6457e0600080a3005b60405162461bcd60e51b815260206004820152602660248201527f4f776e61626c653a206e6577206f776e657220697320746865207a65726f206160448201526564647265737360d01b6064820152608490fd5b3461014b57606036600319011261014b576001600160401b0360043581811161014b5761024c903690600401611bc6565b602490813583811161014b57610266903690600401611bc6565b9260443590811161014b5761027f903690600401611bc6565b916040518251916020916102b660ff60098588019661029f81868a611c4d565b84019386816001968781520301902001541661200a565b604051938751848901906102cb818884611c4d565b860195858160029889815203019020541561060d5760008381815b610563575b505015610514578461030891604051809381928d51928391611c4d565b810188815203019020906000835b61038a575b898961036261035c6103568c610351818e8e6040518092826103438c84815193849201611c4d565b820190815203019020611ed6565b611f1e565b93611f1e565b91611f1e565b917f80d739977bb0030fd7e876dc1ca9a667adfc1b71fea4820c4266de2ee6d6c657600080a4005b82548082101561050e57908392916103a3828796611d49565b506040516103c6816103b88c82018095612073565b03601f198101835282611ba5565b5190208a6040516103ef8b8281810194516103e281878c611c4d565b8101038084520182611ba5565b5190201461040a575b506104029061204e565b909192610316565b9293509091600019908181019081116104f9576104279085611d49565b506104328386611d49565b6104e45790610440916120f6565b835480156104cf57016104538185611d49565b6104ba5791610402918361046a8897969554611d77565b908161047b575b50508455906103f8565b600091601f8c81831160011461049757505050555b8d80610471565b83916104b39186949585528420940160051c84018b8501611db1565b5555610490565b86634e487b7160e01b60005260006004526000fd5b86634e487b7160e01b60005260316004526000fd5b87634e487b7160e01b60005260006004526000fd5b86634e487b7160e01b60005260116004526000fd5b5061031b565b60405162461bcd60e51b8152600481018690526022818601527f4f6c64206f776e657220646f6573206e6f74206f776e207468697320747572746044820152616c6560f01b6064820152608490fd5b878c8a6040518381845161057881838d611c4d565b81018481520301902054841015610605576105af928492604051928391516105a181848d611c4d565b820190815203019020611d49565b506040516105c4816103b88c82018095612073565b519020858b6105e48b60405180936103e283830196879251928391611c4d565b519020146105fb576105f59061204e565b816102e6565b509050838b6102eb565b5050506102eb565b60405162461bcd60e51b8152600481018690526022818601527f4f6c64206f776e657220646f6573206e6f74206f776e20616e7920747572746c604482015261657360f01b6064820152608490fd5b3461014b57602036600319011261014b576004356001600160401b03811161014b5760056106d86020610696610700943690600401611bc6565b604051906106c760ff60098351948681818701976106b581838b611c4d565b8101600181520301902001541661200a565b604051938492839251928391611c4d565b6001908201908152030190200154604080518215158152602081019290925290918291820190565b0390f35b3461014b57600036600319011261014b576000546040516001600160a01b039091168152602090f35b3461014b57600036600319011261014b57610746611ca5565b600080546001600160a01b0319811682556001600160a01b03167f8be0079c531659141344cd1fd0a4f28419497f9722a3daafe3b4186f6b6457e08280a3005b3461014b5761012036600319011261014b576001600160401b0360043581811161014b576107b8903690600401611bc6565b9060243581811161014b576107d1903690600401611bc6565b9060643581811161014b576107ea903690600401611bc6565b6107f2611c95565b9360a43583811161014b5761080b903690600401611bc6565b9160c43584811161014b57610824903690600401611bc6565b9260e43585811161014b5761083d903690600401611bc6565b966101043595861161014b5760209761098a61035c966109528a956109c0956108d66109f6998f6108b5610a229f918e6101246108806002953690600401611bc6565b9e85604051858186516108968183858b01611c4d565b6001818301528101030190200160443560005284526040600020611e0f565b81016001815203019020016044356000526020526001604060002001611e0f565b60026108f08f8c8160405193828580945193849201611c4d565b81016001815203019020016044356000528e5260ff6002604060002001911660ff1982541617905560026109328e8b8160405193828580945193849201611c4d565b81016001815203019020016044356000528d526003604060002001611e0f565b60026040518c818161096a8c83815193849201611c4d565b81016001815203019020016044356000528b526004604060002001611e0f565b60026040518a8188516109a08183858d01611c4d565b810160018152030190200160443560005289526005604060002001611e0f565b6002604051888186516109d68183858b01611c4d565b810160018152030190200160443560005287526006604060002001611e0f565b60405160078251610a0a81848a8701611c4d565b82019160018352878160443594030190200155611f1e565b9060405191604435917fbf4ff8efb9c111a99679d7a6a4263272c5fa30a2fa39bec8f6e4ce26902fc0be600080a46044358152f35b3461014b576020610ae2610a6a36611c1c565b929060606101a0604051610a7d81611b89565b82815260008582015282604082015282808201528260808201528260a08201528260c08201528260e082015282610100820152600061012082015282610140820152826101608201528261018082015201528160405193828580945193849201611c4d565b8101600181520301902090600052602052610c526040600020610be4600d60405192610b0d84611b89565b610b1681611f3e565b845260ff6001820154166020850152610b3160028201611f3e565b6040850152610b4260038201611f3e565b6060850152610b5360048201611f3e565b6080850152610b6460058201611f3e565b60a0850152610b7560068201611f3e565b60c0850152610b8660078201611f3e565b60e0850152610b9760088201611f3e565b6101008501526009810154610120850152610bb4600a8201611f3e565b610140850152610bc6600b8201611f3e565b610160850152610bd8600c8201611f3e565b61018085015201611f3e565b6101a0820152610700816101a0610d2d610d17610cff610cdb610cc3610cac610c96610c80610c6a6040519d8e9d8e602081526040610c3183516101c060208501526101e0840190611c70565b9260ff602082015116828401520151906060601f1982850301910152611c70565b8d60608d0151906080601f1982850301910152611c70565b60808b01518d8203601f190160a08f0152611c70565b60a08a01518c8203601f190160c08e0152611c70565b60c08901518b8203601f190160e08d0152611c70565b60e08801518a8203601f19016101008c0152611c70565b610100870151898203601f19016101208b0152611c70565b610120860151610140890152610140860151601f19898303016101608a0152611c70565b610160850151878203601f1901610180890152611c70565b610180840151868203601f190184880152611c70565b910151838203601f19016101c0850152611c70565b3461014b57604036600319011261014b576001600160401b0360043581811161014b57610d73903690600401611bc6565b9060243590811161014b5761035c610d92610e21923690600401611bc6565b92610d9b611ca5565b6009610de36020604051610dd260ff858751938581818b0196610dbf81838a611c4d565b8101600181520301902001541615611cfd565b604051809381928751928391611c4d565b8101600181520301902001600160ff19825416179055610351816040516020818851610e128183858d01611c4d565b81016002815203019020611ed6565b907f7d904e478df0f515c7058df56a2295c88f46c97f269f153cb964c1574e4ad9e8600080a3005b3461014b5760e036600319011261014b576001600160401b0360043581811161014b57610e7a903690600401611bc6565b9060243581811161014b57610e93903690600401611bc6565b906044359160643582811161014b57610eb0903690600401611bc6565b9060843583811161014b57610ec9903690600401611bc6565b9460a43584811161014b57610ee2903690600401611bc6565b60c43594851161014b578594610efc903690600401611bc6565b90604051908351906020998a860192610f16818686611c4d565b8401848c60019683888095520301902001896000528b5286604060002090610f3d91611e0f565b836040518c818951610f5081838a611c4d565b81018481520301902001896000528b5287604060002060020190610f7391611e0f565b836040518c818951610f8681838a611c4d565b81018481520301902001896000528b52604060002060070190610fa891611e0f565b826040518b818851610fbb818389611c4d565b81018481520301902001886000528a52604060002060080190610fdd91611e0f565b8860405180809387518092610ff192611c4d565b8101848152030190200185600052875260406000206009019061101391611e0f565b61101c90611f1e565b9160405191829161102d9183611fe2565b037f5900e70e78483b52bbe5c26fe3eddc846f885a9fe48efe16abcda778278f4f1291a3604051908152f35b3461014b576020806110cc600561106f36611c1c565b938493916040519085600382519385818186019661108e81838a611c4d565b810160018152030190200155856004604051858185516110af81838a611c4d565b810160018152030190200155604051938492839251928391611c4d565b810160018152030190200155604051908152f35b3461014b5761022036600319011261014b576001600160401b0360043581811161014b57611112903690600401611bc6565b60243582811161014b5761112a903690600401611bc6565b9160643560ff8116810361014b5760843582811161014b57611150903690600401611bc6565b60a43583811161014b57611168903690600401611bc6565b60c43584811161014b57611180903690600401611bc6565b60e43585811161014b57611198903690600401611bc6565b6101043586811161014b576111b1903690600401611bc6565b6101243587811161014b576111ca903690600401611bc6565b906101443588811161014b576111e4903690600401611bc6565b926101843589811161014b576111fe903690600401611bc6565b946101a4358a811161014b57611218903690600401611bc6565b966101c4358b811161014b57611232903690600401611bc6565b986101e4359b8c1161014b578d9b61124e903690600401611bc6565b9a8d60405190805191806020830193611268818387611c4d565b8101600181520360200190206009015460ff161561128590611cfd565b6040518092819251809261129892611c4d565b8101600181520360200190209c6044356000528d6020526040600020906112be91611e0f565b6044356000528c60205260406000209060ff1660ff19600183015416176001820155600201906112ed91611e0f565b6044356000528a60205260406000206003019061130991611e0f565b6044356000528960205260406000206004019061132591611e0f565b6044356000528860205260406000206005019061134191611e0f565b6044356000528760205260406000206006019061135d91611e0f565b6044356000528660205260406000206007019061137991611e0f565b6044356000528560205260406000206008019061139591611e0f565b604435600052846020526040600020610164356009820155600a01906113ba91611e0f565b604435600052836020526040600020600b01906113d691611e0f565b604435600052826020526040600020600c01906113f291611e0f565b604435600052816020526040600020600d019061140e91611e0f565b61020435600882015560090160ff198154166001179055806040518084518181602088019161143c92611c4d565b8101600281520360200190209061145291611ed6565b61145b90611f1e565b9061146590611f1e565b9060405191604435917f406d6a39963b189ae4d4ba0b53780ecdf05dc013e196662687a246b0a2b70548600080a46044358152602090f35b3461014b57602036600319011261014b576004356001600160401b03811161014b5760066106d86020610696610700943690600401611bc6565b3461014b5760046110cc60066114ec36611c1c565b9283929160405190805190602097838980958185019561150d818389611c4d565b81016001815203019020015460036040518581855161108e81838a611c4d565b3461014b57602080600861156461154336611c1c565b9390604051906106c760ff60098351948681818701976106b581838b611c4d565b81016001815203019020015414604051908152f35b3461014b57602060016115e961158e36611c1c565b939060606101206040516115a181611b6d565b82815282858201528260408201528280820152600060808201528260a08201528260c08201528260e08201528261010082015201528160405193828580945193849201611c4d565b810184815203019020019060005260205261070060406000206116aa60096040519261161484611b6d565b61161d81611f3e565b845261162b60018201611f3e565b602085015261163c60028201611f3e565b604085015261164d60038201611f3e565b606085015260ff600482015416608085015261166b60058201611f3e565b60a085015261167c60068201611f3e565b60c085015261168d60078201611f3e565b60e085015261169e60088201611f3e565b61010085015201611f3e565b6101208201526040519182916020835261012061179361177d61176661175061172d6117176117016116eb8b61014060208c519201526101608d0190611c70565b60208a01518c8203601f190160408e0152611c70565b60408901518b8203601f190160608d0152611c70565b60608801518a8203601f190160808c0152611c70565b60ff60808801511660a08a015260a0870151601f198a83030160c08b0152611c70565b60c0860151888203601f190160e08a0152611c70565b60e0850151878203601f1901610100890152611c70565b610100840151868203601f190184880152611c70565b910151838203601f1901610140850152611c70565b3461014b5760e036600319011261014b576001600160401b0360043581811161014b576117d9903690600401611bc6565b9060243581811161014b576117f2903690600401611bc6565b906044359160643582811161014b5761180f903690600401611bc6565b90611818611c95565b9460a43584811161014b57611831903690600401611bc6565b60c43594851161014b57859461184b903690600401611bc6565b90604051908351906020998a860192611865818686611c4d565b8401848c60019683888095520301902001896000528b5286846040600020019061188e91611e0f565b836040518c8189516118a181838a611c4d565b81018481520301902001896000528b52876040600020600301906118c491611e0f565b836040518c8189516118d781838a611c4d565b81018481520301902001896000528b5260406000206004019060ff1660ff19825416179055826040518b81885161190f818389611c4d565b81018481520301902001886000528a5260406000206005019061193191611e0f565b886040518080938751809261194592611c4d565b8101848152030190200185600052875260406000206006019061101391611e0f565b3461014b5761197536611c1c565b6040519061198282611b3c565b60608281809452602094828287948580950152604081016000905281808201528160808201528160a082015260c0015260405192838281935192839101916119c992611c4d565b810160018152030190206002019060005282526040600020604051916119ee83611b3c565b6119f782611f3e565b8352611a0560018301611f3e565b91848401928352600281015460ff166040850190815260038201611a2890611f3e565b85840190815290611a3b60048401611f3e565b6080870190815291611a4f60058501611f3e565b9360a08801948552600601611a6390611f3e565b9460c08801958652604051988998818a525190890160e090526101008901611a8a91611c70565b9651601f1997888a82030160408b0152611aa391611c70565b925160ff1690880152519085878203016080880152611ac191611c70565b905190848682030160a0870152611ad791611c70565b905190838582030160c0860152611aed91611c70565b9051918382030160e084015261070091611c70565b3461014b57602036600319011261014b576004356001600160401b03811161014b5760076106d86020610696610700943690600401611bc6565b60e081019081106001600160401b03821117611b5757604052565b634e487b7160e01b600052604160045260246000fd5b61014081019081106001600160401b03821117611b5757604052565b6101c081019081106001600160401b03821117611b5757604052565b90601f801991011681019081106001600160401b03821117611b5757604052565b81601f8201121561014b578035906001600160401b038211611b575760405192611bfa601f8401601f191660200185611ba5565b8284526020838301011161014b57816000926020809301838601378301015290565b604060031982011261014b57600435906001600160401b03821161014b57611c4691600401611bc6565b9060243590565b60005b838110611c605750506000910152565b8181015183820152602001611c50565b90602091611c8981518092818552858086019101611c4d565b601f01601f1916010190565b6084359060ff8216820361014b57565b6000546001600160a01b03163303611cb957565b606460405162461bcd60e51b815260206004820152602060248201527f4f776e61626c653a2063616c6c6572206973206e6f7420746865206f776e65726044820152fd5b15611d0457565b60405162461bcd60e51b815260206004820152601960248201527f547572746c6520616c72656164792072656769737465726564000000000000006044820152606490fd5b8054821015611d615760005260206000200190600090565b634e487b7160e01b600052603260045260246000fd5b90600182811c92168015611da7575b6020831014611d9157565b634e487b7160e01b600052602260045260246000fd5b91607f1691611d86565b818110611dbc575050565b60008155600101611db1565b9190601f8111611dd757505050565b611e03926000526020600020906020601f840160051c83019310611e05575b601f0160051c0190611db1565b565b9091508190611df6565b91909182516001600160401b038111611b5757611e3681611e308454611d77565b84611dc8565b602080601f8311600114611e72575081929394600092611e67575b50508160011b916000199060031b1c1916179055565b015190503880611e51565b90601f198316958460005282600020926000905b888210611ebe57505083600195969710611ea5575b505050811b019055565b015160001960f88460031b161c19169055388080611e9b565b80600185968294968601518155019501930190611e86565b805468010000000000000000811015611b5757611ef891600182018155611d49565b919091611f0857611e0391611e0f565b634e487b7160e01b600052600060045260246000fd5b611f3690602060405192828480945193849201611c4d565b810103902090565b9060405191826000825492611f5284611d77565b908184526001948581169081600014611fbf5750600114611f7c575b5050611e0392500383611ba5565b9093915060005260209081600020936000915b818310611fa7575050611e0393508201013880611f6e565b85548884018501529485019487945091830191611f8f565b915050611e0394506020925060ff191682840152151560051b8201013880611f6e565b9091611ff961200793604084526040840190611c70565b916020818403910152611c70565b90565b1561201157565b60405162461bcd60e51b8152602060048201526015602482015274151d5c9d1b1948191bd95cc81b9bdd08195e1a5cdd605a1b6044820152606490fd5b600019811461205d5760010190565b634e487b7160e01b600052601160045260246000fd5b60009291815461208281611d77565b926001918083169081156120db575060011461209f575b50505050565b90919293945060005260209081600020906000915b8583106120ca5750505050019038808080612099565b8054858401529183019181016120b4565b60ff1916845250505081151590910201915038808080612099565b908082146121ce576121088154611d77565b906001600160401b038211611b5757819061212d826121278654611d77565b86611dc8565b600090601f8311600114612163576000926121585750508160011b916000199060031b1c1916179055565b015490503880611e51565b81526020808220858352818320935090601f1985169083905b8282106121b557505090846001959493921061219c57505050811b019055565b015460001960f88460031b161c19169055388080611e9b565b849581929585015481556001809101960194019061217c565b505056fea26469706673582212203ad25776ccf9057b4bb3efcbcc52e7a393261064c56e312c1bc94dddc256064d64736f6c63430008120033",
			"opcodes": "PUSH1 0x80 DUP1 PUSH1 0x40 MSTORE CALLVALUE PUSH2 0x5B JUMPI PUSH1 0x0 DUP1 SLOAD CALLER PUSH1 0x1 PUSH1 0x1 PUSH1 0xA0 SHL SUB NOT DUP3 AND DUP2 OR DUP4 SSTORE SWAP2 PUSH1 0x1 PUSH1 0x1 PUSH1 0xA0 SHL SUB SWAP1 SWAP2 AND SWAP1 PUSH32 0x8BE0079C531659141344CD1FD0A4F28419497F9722A3DAAFE3B4186F6B6457E0 SWAP1 DUP1 LOG3 PUSH2 0x2208 SWAP1 DUP2 PUSH2 0x61 DUP3 CODECOPY RETURN JUMPDEST PUSH1 0x0 DUP1 REVERT INVALID PUSH1 0x80 PUSH1 0x40 MSTORE PUSH1 0x4 CALLDATASIZE LT ISZERO PUSH2 0x12 JUMPI PUSH1 0x0 DUP1 REVERT JUMPDEST PUSH1 0x0 CALLDATALOAD PUSH1 0xE0 SHR DUP1 PUSH4 0x1294FFCF EQ PUSH2 0x1B02 JUMPI DUP1 PUSH4 0x17AA1F48 EQ PUSH2 0x1967 JUMPI DUP1 PUSH4 0x18E1A28A EQ PUSH2 0x17A8 JUMPI DUP1 PUSH4 0x1A0642EF EQ PUSH2 0x1579 JUMPI DUP1 PUSH4 0x1B979AF1 EQ PUSH2 0x152D JUMPI DUP1 PUSH4 0x229AA914 EQ PUSH2 0x14D7 JUMPI DUP1 PUSH4 0x22D2378F EQ PUSH2 0x149D JUMPI DUP1 PUSH4 0x358A3D37 EQ PUSH2 0x10E0 JUMPI DUP1 PUSH4 0x482346BD EQ PUSH2 0x1059 JUMPI DUP1 PUSH4 0x596C442A EQ PUSH2 0xE49 JUMPI DUP1 PUSH4 0x5C493EAA EQ PUSH2 0xD42 JUMPI DUP1 PUSH4 0x673AE4C1 EQ PUSH2 0xA57 JUMPI DUP1 PUSH4 0x6C1DCAF8 EQ PUSH2 0x786 JUMPI DUP1 PUSH4 0x715018A6 EQ PUSH2 0x72D JUMPI DUP1 PUSH4 0x8DA5CB5B EQ PUSH2 0x704 JUMPI DUP1 PUSH4 0x997480E5 EQ PUSH2 0x65C JUMPI DUP1 PUSH4 0xCE5F0B7D EQ PUSH2 0x21B JUMPI DUP1 PUSH4 0xF2FDE38B EQ PUSH2 0x150 JUMPI PUSH4 0xF3CB197D EQ PUSH2 0xED JUMPI PUSH1 0x0 DUP1 REVERT JUMPDEST CALLVALUE PUSH2 0x14B JUMPI PUSH1 0x20 CALLDATASIZE PUSH1 0x3 NOT ADD SLT PUSH2 0x14B JUMPI PUSH1 0x4 CALLDATALOAD PUSH1 0x1 PUSH1 0x1 PUSH1 0x40 SHL SUB DUP2 GT PUSH2 0x14B JUMPI PUSH1 0x4 PUSH2 0x137 PUSH1 0x20 PUSH2 0x124 DUP2 SWAP5 CALLDATASIZE SWAP1 DUP6 ADD PUSH2 0x1BC6 JUMP JUMPDEST DUP2 PUSH1 0x40 MLOAD SWAP4 DUP3 DUP6 DUP1 SWAP5 MLOAD SWAP4 DUP5 SWAP3 ADD PUSH2 0x1C4D JUMP JUMPDEST DUP2 ADD PUSH1 0x1 DUP2 MSTORE SUB ADD SWAP1 KECCAK256 ADD SLOAD PUSH1 0x40 MLOAD SWAP1 DUP2 MSTORE RETURN JUMPDEST PUSH1 0x0 DUP1 REVERT JUMPDEST CALLVALUE PUSH2 0x14B JUMPI PUSH1 0x20 CALLDATASIZE PUSH1 0x3 NOT ADD SLT PUSH2 0x14B JUMPI PUSH1 0x4 CALLDATALOAD PUSH1 0x1 PUSH1 0x1 PUSH1 0xA0 SHL SUB DUP2 DUP2 AND SWAP2 DUP3 SWAP1 SUB PUSH2 0x14B JUMPI PUSH2 0x17F PUSH2 0x1CA5 JUMP JUMPDEST DUP2 ISZERO PUSH2 0x1C7 JUMPI PUSH1 0x0 SLOAD DUP3 PUSH12 0xFFFFFFFFFFFFFFFFFFFFFFFF PUSH1 0xA0 SHL DUP3 AND OR PUSH1 0x0 SSTORE AND PUSH32 0x8BE0079C531659141344CD1FD0A4F28419497F9722A3DAAFE3B4186F6B6457E0 PUSH1 0x0 DUP1 LOG3 STOP JUMPDEST PUSH1 0x40 MLOAD PUSH3 0x461BCD PUSH1 0xE5 SHL DUP2 MSTORE PUSH1 0x20 PUSH1 0x4 DUP3 ADD MSTORE PUSH1 0x26 PUSH1 0x24 DUP3 ADD MSTORE PUSH32 0x4F776E61626C653A206E6577206F776E657220697320746865207A65726F2061 PUSH1 0x44 DUP3 ADD MSTORE PUSH6 0x646472657373 PUSH1 0xD0 SHL PUSH1 0x64 DUP3 ADD MSTORE PUSH1 0x84 SWAP1 REVERT JUMPDEST CALLVALUE PUSH2 0x14B JUMPI PUSH1 0x60 CALLDATASIZE PUSH1 0x3 NOT ADD SLT PUSH2 0x14B JUMPI PUSH1 0x1 PUSH1 0x1 PUSH1 0x40 SHL SUB PUSH1 0x4 CALLDATALOAD DUP2 DUP2 GT PUSH2 0x14B JUMPI PUSH2 0x24C SWAP1 CALLDATASIZE SWAP1 PUSH1 0x4 ADD PUSH2 0x1BC6 JUMP JUMPDEST PUSH1 0x24 SWAP1 DUP2 CALLDATALOAD DUP4 DUP2 GT PUSH2 0x14B JUMPI PUSH2 0x266 SWAP1 CALLDATASIZE SWAP1 PUSH1 0x4 ADD PUSH2 0x1BC6 JUMP JUMPDEST SWAP3 PUSH1 0x44 CALLDATALOAD SWAP1 DUP2 GT PUSH2 0x14B JUMPI PUSH2 0x27F SWAP1 CALLDATASIZE SWAP1 PUSH1 0x4 ADD PUSH2 0x1BC6 JUMP JUMPDEST SWAP2 PUSH1 0x40 MLOAD DUP3 MLOAD SWAP2 PUSH1 0x20 SWAP2 PUSH2 0x2B6 PUSH1 0xFF PUSH1 0x9 DUP6 DUP9 ADD SWAP7 PUSH2 0x29F DUP2 DUP7 DUP11 PUSH2 0x1C4D JUMP JUMPDEST DUP5 ADD SWAP4 DUP7 DUP2 PUSH1 0x1 SWAP7 DUP8 DUP2 MSTORE SUB ADD SWAP1 KECCAK256 ADD SLOAD AND PUSH2 0x200A JUMP JUMPDEST PUSH1 0x40 MLOAD SWAP4 DUP8 MLOAD DUP5 DUP10 ADD SWAP1 PUSH2 0x2CB DUP2 DUP9 DUP5 PUSH2 0x1C4D JUMP JUMPDEST DUP7 ADD SWAP6 DUP6 DUP2 PUSH1 0x2 SWAP9 DUP10 DUP2 MSTORE SUB ADD SWAP1 KECCAK256 SLOAD ISZERO PUSH2 0x60D JUMPI PUSH1 0x0 DUP4 DUP2 DUP2 JUMPDEST PUSH2 0x563 JUMPI JUMPDEST POP POP ISZERO PUSH2 0x514 JUMPI DUP5 PUSH2 0x308 SWAP2 PUSH1 0x40 MLOAD DUP1 SWAP4 DUP2 SWAP3 DUP14 MLOAD SWAP3 DUP4 SWAP2 PUSH2 0x1C4D JUMP JUMPDEST DUP2 ADD DUP9 DUP2 MSTORE SUB ADD SWAP1 KECCAK256 SWAP1 PUSH1 0x0 DUP4 JUMPDEST PUSH2 0x38A JUMPI JUMPDEST DUP10 DUP10 PUSH2 0x362 PUSH2 0x35C PUSH2 0x356 DUP13 PUSH2 0x351 DUP2 DUP15 DUP15 PUSH1 0x40 MLOAD DUP1 SWAP3 DUP3 PUSH2 0x343 DUP13 DUP5 DUP2 MLOAD SWAP4 DUP5 SWAP3 ADD PUSH2 0x1C4D JUMP JUMPDEST DUP3 ADD SWAP1 DUP2 MSTORE SUB ADD SWAP1 KECCAK256 PUSH2 0x1ED6 JUMP JUMPDEST PUSH2 0x1F1E JUMP JUMPDEST SWAP4 PUSH2 0x1F1E JUMP JUMPDEST SWAP2 PUSH2 0x1F1E JUMP JUMPDEST SWAP2 PUSH32 0x80D739977BB0030FD7E876DC1CA9A667ADFC1B71FEA4820C4266DE2EE6D6C657 PUSH1 0x0 DUP1 LOG4 STOP JUMPDEST DUP3 SLOAD DUP1 DUP3 LT ISZERO PUSH2 0x50E JUMPI SWAP1 DUP4 SWAP3 SWAP2 PUSH2 0x3A3 DUP3 DUP8 SWAP7 PUSH2 0x1D49 JUMP JUMPDEST POP PUSH1 0x40 MLOAD PUSH2 0x3C6 DUP2 PUSH2 0x3B8 DUP13 DUP3 ADD DUP1 SWAP6 PUSH2 0x2073 JUMP JUMPDEST SUB PUSH1 0x1F NOT DUP2 ADD DUP4 MSTORE DUP3 PUSH2 0x1BA5 JUMP JUMPDEST MLOAD SWAP1 KECCAK256 DUP11 PUSH1 0x40 MLOAD PUSH2 0x3EF DUP12 DUP3 DUP2 DUP2 ADD SWAP5 MLOAD PUSH2 0x3E2 DUP2 DUP8 DUP13 PUSH2 0x1C4D JUMP JUMPDEST DUP2 ADD SUB DUP1 DUP5 MSTORE ADD DUP3 PUSH2 0x1BA5 JUMP JUMPDEST MLOAD SWAP1 KECCAK256 EQ PUSH2 0x40A JUMPI JUMPDEST POP PUSH2 0x402 SWAP1 PUSH2 0x204E JUMP JUMPDEST SWAP1 SWAP2 SWAP3 PUSH2 0x316 JUMP JUMPDEST SWAP3 SWAP4 POP SWAP1 SWAP2 PUSH1 0x0 NOT SWAP1 DUP2 DUP2 ADD SWAP1 DUP2 GT PUSH2 0x4F9 JUMPI PUSH2 0x427 SWAP1 DUP6 PUSH2 0x1D49 JUMP JUMPDEST POP PUSH2 0x432 DUP4 DUP7 PUSH2 0x1D49 JUMP JUMPDEST PUSH2 0x4E4 JUMPI SWAP1 PUSH2 0x440 SWAP2 PUSH2 0x20F6 JUMP JUMPDEST DUP4 SLOAD DUP1 ISZERO PUSH2 0x4CF JUMPI ADD PUSH2 0x453 DUP2 DUP6 PUSH2 0x1D49 JUMP JUMPDEST PUSH2 0x4BA JUMPI SWAP2 PUSH2 0x402 SWAP2 DUP4 PUSH2 0x46A DUP9 SWAP8 SWAP7 SWAP6 SLOAD PUSH2 0x1D77 JUMP JUMPDEST SWAP1 DUP2 PUSH2 0x47B JUMPI JUMPDEST POP POP DUP5 SSTORE SWAP1 PUSH2 0x3F8 JUMP JUMPDEST PUSH1 0x0 SWAP2 PUSH1 0x1F DUP13 DUP2 DUP4 GT PUSH1 0x1 EQ PUSH2 0x497 JUMPI POP POP POP SSTORE JUMPDEST DUP14 DUP1 PUSH2 0x471 JUMP JUMPDEST DUP4 SWAP2 PUSH2 0x4B3 SWAP2 DUP7 SWAP5 SWAP6 DUP6 MSTORE DUP5 KECCAK256 SWAP5 ADD PUSH1 0x5 SHR DUP5 ADD DUP12 DUP6 ADD PUSH2 0x1DB1 JUMP JUMPDEST SSTORE SSTORE PUSH2 0x490 JUMP JUMPDEST DUP7 PUSH4 0x4E487B71 PUSH1 0xE0 SHL PUSH1 0x0 MSTORE PUSH1 0x0 PUSH1 0x4 MSTORE PUSH1 0x0 REVERT JUMPDEST DUP7 PUSH4 0x4E487B71 PUSH1 0xE0 SHL PUSH1 0x0 MSTORE PUSH1 0x31 PUSH1 0x4 MSTORE PUSH1 0x0 REVERT JUMPDEST DUP8 PUSH4 0x4E487B71 PUSH1 0xE0 SHL PUSH1 0x0 MSTORE PUSH1 0x0 PUSH1 0x4 MSTORE PUSH1 0x0 REVERT JUMPDEST DUP7 PUSH4 0x4E487B71 PUSH1 0xE0 SHL PUSH1 0x0 MSTORE PUSH1 0x11 PUSH1 0x4 MSTORE PUSH1 0x0 REVERT JUMPDEST POP PUSH2 0x31B JUMP JUMPDEST PUSH1 0x40 MLOAD PUSH3 0x461BCD PUSH1 0xE5 SHL DUP2 MSTORE PUSH1 0x4 DUP2 ADD DUP7 SWAP1 MSTORE PUSH1 0x22 DUP2 DUP7 ADD MSTORE PUSH32 0x4F6C64206F776E657220646F6573206E6F74206F776E20746869732074757274 PUSH1 0x44 DUP3 ADD MSTORE PUSH2 0x6C65 PUSH1 0xF0 SHL PUSH1 0x64 DUP3 ADD MSTORE PUSH1 0x84 SWAP1 REVERT JUMPDEST DUP8 DUP13 DUP11 PUSH1 0x40 MLOAD DUP4 DUP2 DUP5 MLOAD PUSH2 0x578 DUP2 DUP4 DUP14 PUSH2 0x1C4D JUMP JUMPDEST DUP2 ADD DUP5 DUP2 MSTORE SUB ADD SWAP1 KECCAK256 SLOAD DUP5 LT ISZERO PUSH2 0x605 JUMPI PUSH2 0x5AF SWAP3 DUP5 SWAP3 PUSH1 0x40 MLOAD SWAP3 DUP4 SWAP2 MLOAD PUSH2 0x5A1 DUP2 DUP5 DUP14 PUSH2 0x1C4D JUMP JUMPDEST DUP3 ADD SWAP1 DUP2 MSTORE SUB ADD SWAP1 KECCAK256 PUSH2 0x1D49 JUMP JUMPDEST POP PUSH1 0x40 MLOAD PUSH2 0x5C4 DUP2 PUSH2 0x3B8 DUP13 DUP3 ADD DUP1 SWAP6 PUSH2 0x2073 JUMP JUMPDEST MLOAD SWAP1 KECCAK256 DUP6 DUP12 PUSH2 0x5E4 DUP12 PUSH1 0x40 MLOAD DUP1 SWAP4 PUSH2 0x3E2 DUP4 DUP4 ADD SWAP7 DUP8 SWAP3 MLOAD SWAP3 DUP4 SWAP2 PUSH2 0x1C4D JUMP JUMPDEST MLOAD SWAP1 KECCAK256 EQ PUSH2 0x5FB JUMPI PUSH2 0x5F5 SWAP1 PUSH2 0x204E JUMP JUMPDEST DUP2 PUSH2 0x2E6 JUMP JUMPDEST POP SWAP1 POP DUP4 DUP12 PUSH2 0x2EB JUMP JUMPDEST POP POP POP PUSH2 0x2EB JUMP JUMPDEST PUSH1 0x40 MLOAD PUSH3 0x461BCD PUSH1 0xE5 SHL DUP2 MSTORE PUSH1 0x4 DUP2 ADD DUP7 SWAP1 MSTORE PUSH1 0x22 DUP2 DUP7 ADD MSTORE PUSH32 0x4F6C64206F776E657220646F6573206E6F74206F776E20616E7920747572746C PUSH1 0x44 DUP3 ADD MSTORE PUSH2 0x6573 PUSH1 0xF0 SHL PUSH1 0x64 DUP3 ADD MSTORE PUSH1 0x84 SWAP1 REVERT JUMPDEST CALLVALUE PUSH2 0x14B JUMPI PUSH1 0x20 CALLDATASIZE PUSH1 0x3 NOT ADD SLT PUSH2 0x14B JUMPI PUSH1 0x4 CALLDATALOAD PUSH1 0x1 PUSH1 0x1 PUSH1 0x40 SHL SUB DUP2 GT PUSH2 0x14B JUMPI PUSH1 0x5 PUSH2 0x6D8 PUSH1 0x20 PUSH2 0x696 PUSH2 0x700 SWAP5 CALLDATASIZE SWAP1 PUSH1 0x4 ADD PUSH2 0x1BC6 JUMP JUMPDEST PUSH1 0x40 MLOAD SWAP1 PUSH2 0x6C7 PUSH1 0xFF PUSH1 0x9 DUP4 MLOAD SWAP5 DUP7 DUP2 DUP2 DUP8 ADD SWAP8 PUSH2 0x6B5 DUP2 DUP4 DUP12 PUSH2 0x1C4D JUMP JUMPDEST DUP2 ADD PUSH1 0x1 DUP2 MSTORE SUB ADD SWAP1 KECCAK256 ADD SLOAD AND PUSH2 0x200A JUMP JUMPDEST PUSH1 0x40 MLOAD SWAP4 DUP5 SWAP3 DUP4 SWAP3 MLOAD SWAP3 DUP4 SWAP2 PUSH2 0x1C4D JUMP JUMPDEST PUSH1 0x1 SWAP1 DUP3 ADD SWAP1 DUP2 MSTORE SUB ADD SWAP1 KECCAK256 ADD SLOAD PUSH1 0x40 DUP1 MLOAD DUP3 ISZERO ISZERO DUP2 MSTORE PUSH1 0x20 DUP2 ADD SWAP3 SWAP1 SWAP3 MSTORE SWAP1 SWAP2 DUP3 SWAP2 DUP3 ADD SWAP1 JUMP JUMPDEST SUB SWAP1 RETURN JUMPDEST CALLVALUE PUSH2 0x14B JUMPI PUSH1 0x0 CALLDATASIZE PUSH1 0x3 NOT ADD SLT PUSH2 0x14B JUMPI PUSH1 0x0 SLOAD PUSH1 0x40 MLOAD PUSH1 0x1 PUSH1 0x1 PUSH1 0xA0 SHL SUB SWAP1 SWAP2 AND DUP2 MSTORE PUSH1 0x20 SWAP1 RETURN JUMPDEST CALLVALUE PUSH2 0x14B JUMPI PUSH1 0x0 CALLDATASIZE PUSH1 0x3 NOT ADD SLT PUSH2 0x14B JUMPI PUSH2 0x746 PUSH2 0x1CA5 JUMP JUMPDEST PUSH1 0x0 DUP1 SLOAD PUSH1 0x1 PUSH1 0x1 PUSH1 0xA0 SHL SUB NOT DUP2 AND DUP3 SSTORE PUSH1 0x1 PUSH1 0x1 PUSH1 0xA0 SHL SUB AND PUSH32 0x8BE0079C531659141344CD1FD0A4F28419497F9722A3DAAFE3B4186F6B6457E0 DUP3 DUP1 LOG3 STOP JUMPDEST CALLVALUE PUSH2 0x14B JUMPI PUSH2 0x120 CALLDATASIZE PUSH1 0x3 NOT ADD SLT PUSH2 0x14B JUMPI PUSH1 0x1 PUSH1 0x1 PUSH1 0x40 SHL SUB PUSH1 0x4 CALLDATALOAD DUP2 DUP2 GT PUSH2 0x14B JUMPI PUSH2 0x7B8 SWAP1 CALLDATASIZE SWAP1 PUSH1 0x4 ADD PUSH2 0x1BC6 JUMP JUMPDEST SWAP1 PUSH1 0x24 CALLDATALOAD DUP2 DUP2 GT PUSH2 0x14B JUMPI PUSH2 0x7D1 SWAP1 CALLDATASIZE SWAP1 PUSH1 0x4 ADD PUSH2 0x1BC6 JUMP JUMPDEST SWAP1 PUSH1 0x64 CALLDATALOAD DUP2 DUP2 GT PUSH2 0x14B JUMPI PUSH2 0x7EA SWAP1 CALLDATASIZE SWAP1 PUSH1 0x4 ADD PUSH2 0x1BC6 JUMP JUMPDEST PUSH2 0x7F2 PUSH2 0x1C95 JUMP JUMPDEST SWAP4 PUSH1 0xA4 CALLDATALOAD DUP4 DUP2 GT PUSH2 0x14B JUMPI PUSH2 0x80B SWAP1 CALLDATASIZE SWAP1 PUSH1 0x4 ADD PUSH2 0x1BC6 JUMP JUMPDEST SWAP2 PUSH1 0xC4 CALLDATALOAD DUP5 DUP2 GT PUSH2 0x14B JUMPI PUSH2 0x824 SWAP1 CALLDATASIZE SWAP1 PUSH1 0x4 ADD PUSH2 0x1BC6 JUMP JUMPDEST SWAP3 PUSH1 0xE4 CALLDATALOAD DUP6 DUP2 GT PUSH2 0x14B JUMPI PUSH2 0x83D SWAP1 CALLDATASIZE SWAP1 PUSH1 0x4 ADD PUSH2 0x1BC6 JUMP JUMPDEST SWAP7 PUSH2 0x104 CALLDATALOAD SWAP6 DUP7 GT PUSH2 0x14B JUMPI PUSH1 0x20 SWAP8 PUSH2 0x98A PUSH2 0x35C SWAP7 PUSH2 0x952 DUP11 SWAP6 PUSH2 0x9C0 SWAP6 PUSH2 0x8D6 PUSH2 0x9F6 SWAP10 DUP16 PUSH2 0x8B5 PUSH2 0xA22 SWAP16 SWAP2 DUP15 PUSH2 0x124 PUSH2 0x880 PUSH1 0x2 SWAP6 CALLDATASIZE SWAP1 PUSH1 0x4 ADD PUSH2 0x1BC6 JUMP JUMPDEST SWAP15 DUP6 PUSH1 0x40 MLOAD DUP6 DUP2 DUP7 MLOAD PUSH2 0x896 DUP2 DUP4 DUP6 DUP12 ADD PUSH2 0x1C4D JUMP JUMPDEST PUSH1 0x1 DUP2 DUP4 ADD MSTORE DUP2 ADD SUB ADD SWAP1 KECCAK256 ADD PUSH1 0x44 CALLDATALOAD PUSH1 0x0 MSTORE DUP5 MSTORE PUSH1 0x40 PUSH1 0x0 KECCAK256 PUSH2 0x1E0F JUMP JUMPDEST DUP2 ADD PUSH1 0x1 DUP2 MSTORE SUB ADD SWAP1 KECCAK256 ADD PUSH1 0x44 CALLDATALOAD PUSH1 0x0 MSTORE PUSH1 0x20 MSTORE PUSH1 0x1 PUSH1 0x40 PUSH1 0x0 KECCAK256 ADD PUSH2 0x1E0F JUMP JUMPDEST PUSH1 0x2 PUSH2 0x8F0 DUP16 DUP13 DUP2 PUSH1 0x40 MLOAD SWAP4 DUP3 DUP6 DUP1 SWAP5 MLOAD SWAP4 DUP5 SWAP3 ADD PUSH2 0x1C4D JUMP JUMPDEST DUP2 ADD PUSH1 0x1 DUP2 MSTORE SUB ADD SWAP1 KECCAK256 ADD PUSH1 0x44 CALLDATALOAD PUSH1 0x0 MSTORE DUP15 MSTORE PUSH1 0xFF PUSH1 0x2 PUSH1 0x40 PUSH1 0x0 KECCAK256 ADD SWAP2 AND PUSH1 0xFF NOT DUP3 SLOAD AND OR SWAP1 SSTORE PUSH1 0x2 PUSH2 0x932 DUP15 DUP12 DUP2 PUSH1 0x40 MLOAD SWAP4 DUP3 DUP6 DUP1 SWAP5 MLOAD SWAP4 DUP5 SWAP3 ADD PUSH2 0x1C4D JUMP JUMPDEST DUP2 ADD PUSH1 0x1 DUP2 MSTORE SUB ADD SWAP1 KECCAK256 ADD PUSH1 0x44 CALLDATALOAD PUSH1 0x0 MSTORE DUP14 MSTORE PUSH1 0x3 PUSH1 0x40 PUSH1 0x0 KECCAK256 ADD PUSH2 0x1E0F JUMP JUMPDEST PUSH1 0x2 PUSH1 0x40 MLOAD DUP13 DUP2 DUP2 PUSH2 0x96A DUP13 DUP4 DUP2 MLOAD SWAP4 DUP5 SWAP3 ADD PUSH2 0x1C4D JUMP JUMPDEST DUP2 ADD PUSH1 0x1 DUP2 MSTORE SUB ADD SWAP1 KECCAK256 ADD PUSH1 0x44 CALLDATALOAD PUSH1 0x0 MSTORE DUP12 MSTORE PUSH1 0x4 PUSH1 0x40 PUSH1 0x0 KECCAK256 ADD PUSH2 0x1E0F JUMP JUMPDEST PUSH1 0x2 PUSH1 0x40 MLOAD DUP11 DUP2 DUP9 MLOAD PUSH2 0x9A0 DUP2 DUP4 DUP6 DUP14 ADD PUSH2 0x1C4D JUMP JUMPDEST DUP2 ADD PUSH1 0x1 DUP2 MSTORE SUB ADD SWAP1 KECCAK256 ADD PUSH1 0x44 CALLDATALOAD PUSH1 0x0 MSTORE DUP10 MSTORE PUSH1 0x5 PUSH1 0x40 PUSH1 0x0 KECCAK256 ADD PUSH2 0x1E0F JUMP JUMPDEST PUSH1 0x2 PUSH1 0x40 MLOAD DUP9 DUP2 DUP7 MLOAD PUSH2 0x9D6 DUP2 DUP4 DUP6 DUP12 ADD PUSH2 0x1C4D JUMP JUMPDEST DUP2 ADD PUSH1 0x1 DUP2 MSTORE SUB ADD SWAP1 KECCAK256 ADD PUSH1 0x44 CALLDATALOAD PUSH1 0x0 MSTORE DUP8 MSTORE PUSH1 0x6 PUSH1 0x40 PUSH1 0x0 KECCAK256 ADD PUSH2 0x1E0F JUMP JUMPDEST PUSH1 0x40 MLOAD PUSH1 0x7 DUP3 MLOAD PUSH2 0xA0A DUP2 DUP5 DUP11 DUP8 ADD PUSH2 0x1C4D JUMP JUMPDEST DUP3 ADD SWAP2 PUSH1 0x1 DUP4 MSTORE DUP8 DUP2 PUSH1 0x44 CALLDATALOAD SWAP5 SUB ADD SWAP1 KECCAK256 ADD SSTORE PUSH2 0x1F1E JUMP JUMPDEST SWAP1 PUSH1 0x40 MLOAD SWAP2 PUSH1 0x44 CALLDATALOAD SWAP2 PUSH32 0xBF4FF8EFB9C111A99679D7A6A4263272C5FA30A2FA39BEC8F6E4CE26902FC0BE PUSH1 0x0 DUP1 LOG4 PUSH1 0x44 CALLDATALOAD DUP2 MSTORE RETURN JUMPDEST CALLVALUE PUSH2 0x14B JUMPI PUSH1 0x20 PUSH2 0xAE2 PUSH2 0xA6A CALLDATASIZE PUSH2 0x1C1C JUMP JUMPDEST SWAP3 SWAP1 PUSH1 0x60 PUSH2 0x1A0 PUSH1 0x40 MLOAD PUSH2 0xA7D DUP2 PUSH2 0x1B89 JUMP JUMPDEST DUP3 DUP2 MSTORE PUSH1 0x0 DUP6 DUP3 ADD MSTORE DUP3 PUSH1 0x40 DUP3 ADD MSTORE DUP3 DUP1 DUP3 ADD MSTORE DUP3 PUSH1 0x80 DUP3 ADD MSTORE DUP3 PUSH1 0xA0 DUP3 ADD MSTORE DUP3 PUSH1 0xC0 DUP3 ADD MSTORE DUP3 PUSH1 0xE0 DUP3 ADD MSTORE DUP3 PUSH2 0x100 DUP3 ADD MSTORE PUSH1 0x0 PUSH2 0x120 DUP3 ADD MSTORE DUP3 PUSH2 0x140 DUP3 ADD MSTORE DUP3 PUSH2 0x160 DUP3 ADD MSTORE DUP3 PUSH2 0x180 DUP3 ADD MSTORE ADD MSTORE DUP2 PUSH1 0x40 MLOAD SWAP4 DUP3 DUP6 DUP1 SWAP5 MLOAD SWAP4 DUP5 SWAP3 ADD PUSH2 0x1C4D JUMP JUMPDEST DUP2 ADD PUSH1 0x1 DUP2 MSTORE SUB ADD SWAP1 KECCAK256 SWAP1 PUSH1 0x0 MSTORE PUSH1 0x20 MSTORE PUSH2 0xC52 PUSH1 0x40 PUSH1 0x0 KECCAK256 PUSH2 0xBE4 PUSH1 0xD PUSH1 0x40 MLOAD SWAP3 PUSH2 0xB0D DUP5 PUSH2 0x1B89 JUMP JUMPDEST PUSH2 0xB16 DUP2 PUSH2 0x1F3E JUMP JUMPDEST DUP5 MSTORE PUSH1 0xFF PUSH1 0x1 DUP3 ADD SLOAD AND PUSH1 0x20 DUP6 ADD MSTORE PUSH2 0xB31 PUSH1 0x2 DUP3 ADD PUSH2 0x1F3E JUMP JUMPDEST PUSH1 0x40 DUP6 ADD MSTORE PUSH2 0xB42 PUSH1 0x3 DUP3 ADD PUSH2 0x1F3E JUMP JUMPDEST PUSH1 0x60 DUP6 ADD MSTORE PUSH2 0xB53 PUSH1 0x4 DUP3 ADD PUSH2 0x1F3E JUMP JUMPDEST PUSH1 0x80 DUP6 ADD MSTORE PUSH2 0xB64 PUSH1 0x5 DUP3 ADD PUSH2 0x1F3E JUMP JUMPDEST PUSH1 0xA0 DUP6 ADD MSTORE PUSH2 0xB75 PUSH1 0x6 DUP3 ADD PUSH2 0x1F3E JUMP JUMPDEST PUSH1 0xC0 DUP6 ADD MSTORE PUSH2 0xB86 PUSH1 0x7 DUP3 ADD PUSH2 0x1F3E JUMP JUMPDEST PUSH1 0xE0 DUP6 ADD MSTORE PUSH2 0xB97 PUSH1 0x8 DUP3 ADD PUSH2 0x1F3E JUMP JUMPDEST PUSH2 0x100 DUP6 ADD MSTORE PUSH1 0x9 DUP2 ADD SLOAD PUSH2 0x120 DUP6 ADD MSTORE PUSH2 0xBB4 PUSH1 0xA DUP3 ADD PUSH2 0x1F3E JUMP JUMPDEST PUSH2 0x140 DUP6 ADD MSTORE PUSH2 0xBC6 PUSH1 0xB DUP3 ADD PUSH2 0x1F3E JUMP JUMPDEST PUSH2 0x160 DUP6 ADD MSTORE PUSH2 0xBD8 PUSH1 0xC DUP3 ADD PUSH2 0x1F3E JUMP JUMPDEST PUSH2 0x180 DUP6 ADD MSTORE ADD PUSH2 0x1F3E JUMP JUMPDEST PUSH2 0x1A0 DUP3 ADD MSTORE PUSH2 0x700 DUP2 PUSH2 0x1A0 PUSH2 0xD2D PUSH2 0xD17 PUSH2 0xCFF PUSH2 0xCDB PUSH2 0xCC3 PUSH2 0xCAC PUSH2 0xC96 PUSH2 0xC80 PUSH2 0xC6A PUSH1 0x40 MLOAD SWAP14 DUP15 SWAP14 DUP15 PUSH1 0x20 DUP2 MSTORE PUSH1 0x40 PUSH2 0xC31 DUP4 MLOAD PUSH2 0x1C0 PUSH1 0x20 DUP6 ADD MSTORE PUSH2 0x1E0 DUP5 ADD SWAP1 PUSH2 0x1C70 JUMP JUMPDEST SWAP3 PUSH1 0xFF PUSH1 0x20 DUP3 ADD MLOAD AND DUP3 DUP5 ADD MSTORE ADD MLOAD SWAP1 PUSH1 0x60 PUSH1 0x1F NOT DUP3 DUP6 SUB ADD SWAP2 ADD MSTORE PUSH2 0x1C70 JUMP JUMPDEST DUP14 PUSH1 0x60 DUP14 ADD MLOAD SWAP1 PUSH1 0x80 PUSH1 0x1F NOT DUP3 DUP6 SUB ADD SWAP2 ADD MSTORE PUSH2 0x1C70 JUMP JUMPDEST PUSH1 0x80 DUP12 ADD MLOAD DUP14 DUP3 SUB PUSH1 0x1F NOT ADD PUSH1 0xA0 DUP16 ADD MSTORE PUSH2 0x1C70 JUMP JUMPDEST PUSH1 0xA0 DUP11 ADD MLOAD DUP13 DUP3 SUB PUSH1 0x1F NOT ADD PUSH1 0xC0 DUP15 ADD MSTORE PUSH2 0x1C70 JUMP JUMPDEST PUSH1 0xC0 DUP10 ADD MLOAD DUP12 DUP3 SUB PUSH1 0x1F NOT ADD PUSH1 0xE0 DUP14 ADD MSTORE PUSH2 0x1C70 JUMP JUMPDEST PUSH1 0xE0 DUP9 ADD MLOAD DUP11 DUP3 SUB PUSH1 0x1F NOT ADD PUSH2 0x100 DUP13 ADD MSTORE PUSH2 0x1C70 JUMP JUMPDEST PUSH2 0x100 DUP8 ADD MLOAD DUP10 DUP3 SUB PUSH1 0x1F NOT ADD PUSH2 0x120 DUP12 ADD MSTORE PUSH2 0x1C70 JUMP JUMPDEST PUSH2 0x120 DUP7 ADD MLOAD PUSH2 0x140 DUP10 ADD MSTORE PUSH2 0x140 DUP7 ADD MLOAD PUSH1 0x1F NOT DUP10 DUP4 SUB ADD PUSH2 0x160 DUP11 ADD MSTORE PUSH2 0x1C70 JUMP JUMPDEST PUSH2 0x160 DUP6 ADD MLOAD DUP8 DUP3 SUB PUSH1 0x1F NOT ADD PUSH2 0x180 DUP10 ADD MSTORE PUSH2 0x1C70 JUMP JUMPDEST PUSH2 0x180 DUP5 ADD MLOAD DUP7 DUP3 SUB PUSH1 0x1F NOT ADD DUP5 DUP9 ADD MSTORE PUSH2 0x1C70 JUMP JUMPDEST SWAP2 ADD MLOAD DUP4 DUP3 SUB PUSH1 0x1F NOT ADD PUSH2 0x1C0 DUP6 ADD MSTORE PUSH2 0x1C70 JUMP JUMPDEST CALLVALUE PUSH2 0x14B JUMPI PUSH1 0x40 CALLDATASIZE PUSH1 0x3 NOT ADD SLT PUSH2 0x14B JUMPI PUSH1 0x1 PUSH1 0x1 PUSH1 0x40 SHL SUB PUSH1 0x4 CALLDATALOAD DUP2 DUP2 GT PUSH2 0x14B JUMPI PUSH2 0xD73 SWAP1 CALLDATASIZE SWAP1 PUSH1 0x4 ADD PUSH2 0x1BC6 JUMP JUMPDEST SWAP1 PUSH1 0x24 CALLDATALOAD SWAP1 DUP2 GT PUSH2 0x14B JUMPI PUSH2 0x35C PUSH2 0xD92 PUSH2 0xE21 SWAP3 CALLDATASIZE SWAP1 PUSH1 0x4 ADD PUSH2 0x1BC6 JUMP JUMPDEST SWAP3 PUSH2 0xD9B PUSH2 0x1CA5 JUMP JUMPDEST PUSH1 0x9 PUSH2 0xDE3 PUSH1 0x20 PUSH1 0x40 MLOAD PUSH2 0xDD2 PUSH1 0xFF DUP6 DUP8 MLOAD SWAP4 DUP6 DUP2 DUP2 DUP12 ADD SWAP7 PUSH2 0xDBF DUP2 DUP4 DUP11 PUSH2 0x1C4D JUMP JUMPDEST DUP2 ADD PUSH1 0x1 DUP2 MSTORE SUB ADD SWAP1 KECCAK256 ADD SLOAD AND ISZERO PUSH2 0x1CFD JUMP JUMPDEST PUSH1 0x40 MLOAD DUP1 SWAP4 DUP2 SWAP3 DUP8 MLOAD SWAP3 DUP4 SWAP2 PUSH2 0x1C4D JUMP JUMPDEST DUP2 ADD PUSH1 0x1 DUP2 MSTORE SUB ADD SWAP1 KECCAK256 ADD PUSH1 0x1 PUSH1 0xFF NOT DUP3 SLOAD AND OR SWAP1 SSTORE PUSH2 0x351 DUP2 PUSH1 0x40 MLOAD PUSH1 0x20 DUP2 DUP9 MLOAD PUSH2 0xE12 DUP2 DUP4 DUP6 DUP14 ADD PUSH2 0x1C4D JUMP JUMPDEST DUP2 ADD PUSH1 0x2 DUP2 MSTORE SUB ADD SWAP1 KECCAK256 PUSH2 0x1ED6 JUMP JUMPDEST SWAP1 PUSH32 0x7D904E478DF0F515C7058DF56A2295C88F46C97F269F153CB964C1574E4AD9E8 PUSH1 0x0 DUP1 LOG3 STOP JUMPDEST CALLVALUE PUSH2 0x14B JUMPI PUSH1 0xE0 CALLDATASIZE PUSH1 0x3 NOT ADD SLT PUSH2 0x14B JUMPI PUSH1 0x1 PUSH1 0x1 PUSH1 0x40 SHL SUB PUSH1 0x4 CALLDATALOAD DUP2 DUP2 GT PUSH2 0x14B JUMPI PUSH2 0xE7A SWAP1 CALLDATASIZE SWAP1 PUSH1 0x4 ADD PUSH2 0x1BC6 JUMP JUMPDEST SWAP1 PUSH1 0x24 CALLDATALOAD DUP2 DUP2 GT PUSH2 0x14B JUMPI PUSH2 0xE93 SWAP1 CALLDATASIZE SWAP1 PUSH1 0x4 ADD PUSH2 0x1BC6 JUMP JUMPDEST SWAP1 PUSH1 0x44 CALLDATALOAD SWAP2 PUSH1 0x64 CALLDATALOAD DUP3 DUP2 GT PUSH2 0x14B JUMPI PUSH2 0xEB0 SWAP1 CALLDATASIZE SWAP1 PUSH1 0x4 ADD PUSH2 0x1BC6 JUMP JUMPDEST SWAP1 PUSH1 0x84 CALLDATALOAD DUP4 DUP2 GT PUSH2 0x14B JUMPI PUSH2 0xEC9 SWAP1 CALLDATASIZE SWAP1 PUSH1 0x4 ADD PUSH2 0x1BC6 JUMP JUMPDEST SWAP5 PUSH1 0xA4 CALLDATALOAD DUP5 DUP2 GT PUSH2 0x14B JUMPI PUSH2 0xEE2 SWAP1 CALLDATASIZE SWAP1 PUSH1 0x4 ADD PUSH2 0x1BC6 JUMP JUMPDEST PUSH1 0xC4 CALLDATALOAD SWAP5 DUP6 GT PUSH2 0x14B JUMPI DUP6 SWAP5 PUSH2 0xEFC SWAP1 CALLDATASIZE SWAP1 PUSH1 0x4 ADD PUSH2 0x1BC6 JUMP JUMPDEST SWAP1 PUSH1 0x40 MLOAD SWAP1 DUP4 MLOAD SWAP1 PUSH1 0x20 SWAP10 DUP11 DUP7 ADD SWAP3 PUSH2 0xF16 DUP2 DUP7 DUP7 PUSH2 0x1C4D JUMP JUMPDEST DUP5 ADD DUP5 DUP13 PUSH1 0x1 SWAP7 DUP4 DUP9 DUP1 SWAP6 MSTORE SUB ADD SWAP1 KECCAK256 ADD DUP10 PUSH1 0x0 MSTORE DUP12 MSTORE DUP7 PUSH1 0x40 PUSH1 0x0 KECCAK256 SWAP1 PUSH2 0xF3D SWAP2 PUSH2 0x1E0F JUMP JUMPDEST DUP4 PUSH1 0x40 MLOAD DUP13 DUP2 DUP10 MLOAD PUSH2 0xF50 DUP2 DUP4 DUP11 PUSH2 0x1C4D JUMP JUMPDEST DUP2 ADD DUP5 DUP2 MSTORE SUB ADD SWAP1 KECCAK256 ADD DUP10 PUSH1 0x0 MSTORE DUP12 MSTORE DUP8 PUSH1 0x40 PUSH1 0x0 KECCAK256 PUSH1 0x2 ADD SWAP1 PUSH2 0xF73 SWAP2 PUSH2 0x1E0F JUMP JUMPDEST DUP4 PUSH1 0x40 MLOAD DUP13 DUP2 DUP10 MLOAD PUSH2 0xF86 DUP2 DUP4 DUP11 PUSH2 0x1C4D JUMP JUMPDEST DUP2 ADD DUP5 DUP2 MSTORE SUB ADD SWAP1 KECCAK256 ADD DUP10 PUSH1 0x0 MSTORE DUP12 MSTORE PUSH1 0x40 PUSH1 0x0 KECCAK256 PUSH1 0x7 ADD SWAP1 PUSH2 0xFA8 SWAP2 PUSH2 0x1E0F JUMP JUMPDEST DUP3 PUSH1 0x40 MLOAD DUP12 DUP2 DUP9 MLOAD PUSH2 0xFBB DUP2 DUP4 DUP10 PUSH2 0x1C4D JUMP JUMPDEST DUP2 ADD DUP5 DUP2 MSTORE SUB ADD SWAP1 KECCAK256 ADD DUP9 PUSH1 0x0 MSTORE DUP11 MSTORE PUSH1 0x40 PUSH1 0x0 KECCAK256 PUSH1 0x8 ADD SWAP1 PUSH2 0xFDD SWAP2 PUSH2 0x1E0F JUMP JUMPDEST DUP9 PUSH1 0x40 MLOAD DUP1 DUP1 SWAP4 DUP8 MLOAD DUP1 SWAP3 PUSH2 0xFF1 SWAP3 PUSH2 0x1C4D JUMP JUMPDEST DUP2 ADD DUP5 DUP2 MSTORE SUB ADD SWAP1 KECCAK256 ADD DUP6 PUSH1 0x0 MSTORE DUP8 MSTORE PUSH1 0x40 PUSH1 0x0 KECCAK256 PUSH1 0x9 ADD SWAP1 PUSH2 0x1013 SWAP2 PUSH2 0x1E0F JUMP JUMPDEST PUSH2 0x101C SWAP1 PUSH2 0x1F1E JUMP JUMPDEST SWAP2 PUSH1 0x40 MLOAD SWAP2 DUP3 SWAP2 PUSH2 0x102D SWAP2 DUP4 PUSH2 0x1FE2 JUMP JUMPDEST SUB PUSH32 0x5900E70E78483B52BBE5C26FE3EDDC846F885A9FE48EFE16ABCDA778278F4F12 SWAP2 LOG3 PUSH1 0x40 MLOAD SWAP1 DUP2 MSTORE RETURN JUMPDEST CALLVALUE PUSH2 0x14B JUMPI PUSH1 0x20 DUP1 PUSH2 0x10CC PUSH1 0x5 PUSH2 0x106F CALLDATASIZE PUSH2 0x1C1C JUMP JUMPDEST SWAP4 DUP5 SWAP4 SWAP2 PUSH1 0x40 MLOAD SWAP1 DUP6 PUSH1 0x3 DUP3 MLOAD SWAP4 DUP6 DUP2 DUP2 DUP7 ADD SWAP7 PUSH2 0x108E DUP2 DUP4 DUP11 PUSH2 0x1C4D JUMP JUMPDEST DUP2 ADD PUSH1 0x1 DUP2 MSTORE SUB ADD SWAP1 KECCAK256 ADD SSTORE DUP6 PUSH1 0x4 PUSH1 0x40 MLOAD DUP6 DUP2 DUP6 MLOAD PUSH2 0x10AF DUP2 DUP4 DUP11 PUSH2 0x1C4D JUMP JUMPDEST DUP2 ADD PUSH1 0x1 DUP2 MSTORE SUB ADD SWAP1 KECCAK256 ADD SSTORE PUSH1 0x40 MLOAD SWAP4 DUP5 SWAP3 DUP4 SWAP3 MLOAD SWAP3 DUP4 SWAP2 PUSH2 0x1C4D JUMP JUMPDEST DUP2 ADD PUSH1 0x1 DUP2 MSTORE SUB ADD SWAP1 KECCAK256 ADD SSTORE PUSH1 0x40 MLOAD SWAP1 DUP2 MSTORE RETURN JUMPDEST CALLVALUE PUSH2 0x14B JUMPI PUSH2 0x220 CALLDATASIZE PUSH1 0x3 NOT ADD SLT PUSH2 0x14B JUMPI PUSH1 0x1 PUSH1 0x1 PUSH1 0x40 SHL SUB PUSH1 0x4 CALLDATALOAD DUP2 DUP2 GT PUSH2 0x14B JUMPI PUSH2 0x1112 SWAP1 CALLDATASIZE SWAP1 PUSH1 0x4 ADD PUSH2 0x1BC6 JUMP JUMPDEST PUSH1 0x24 CALLDATALOAD DUP3 DUP2 GT PUSH2 0x14B JUMPI PUSH2 0x112A SWAP1 CALLDATASIZE SWAP1 PUSH1 0x4 ADD PUSH2 0x1BC6 JUMP JUMPDEST SWAP2 PUSH1 0x64 CALLDATALOAD PUSH1 0xFF DUP2 AND DUP2 SUB PUSH2 0x14B JUMPI PUSH1 0x84 CALLDATALOAD DUP3 DUP2 GT PUSH2 0x14B JUMPI PUSH2 0x1150 SWAP1 CALLDATASIZE SWAP1 PUSH1 0x4 ADD PUSH2 0x1BC6 JUMP JUMPDEST PUSH1 0xA4 CALLDATALOAD DUP4 DUP2 GT PUSH2 0x14B JUMPI PUSH2 0x1168 SWAP1 CALLDATASIZE SWAP1 PUSH1 0x4 ADD PUSH2 0x1BC6 JUMP JUMPDEST PUSH1 0xC4 CALLDATALOAD DUP5 DUP2 GT PUSH2 0x14B JUMPI PUSH2 0x1180 SWAP1 CALLDATASIZE SWAP1 PUSH1 0x4 ADD PUSH2 0x1BC6 JUMP JUMPDEST PUSH1 0xE4 CALLDATALOAD DUP6 DUP2 GT PUSH2 0x14B JUMPI PUSH2 0x1198 SWAP1 CALLDATASIZE SWAP1 PUSH1 0x4 ADD PUSH2 0x1BC6 JUMP JUMPDEST PUSH2 0x104 CALLDATALOAD DUP7 DUP2 GT PUSH2 0x14B JUMPI PUSH2 0x11B1 SWAP1 CALLDATASIZE SWAP1 PUSH1 0x4 ADD PUSH2 0x1BC6 JUMP JUMPDEST PUSH2 0x124 CALLDATALOAD DUP8 DUP2 GT PUSH2 0x14B JUMPI PUSH2 0x11CA SWAP1 CALLDATASIZE SWAP1 PUSH1 0x4 ADD PUSH2 0x1BC6 JUMP JUMPDEST SWAP1 PUSH2 0x144 CALLDATALOAD DUP9 DUP2 GT PUSH2 0x14B JUMPI PUSH2 0x11E4 SWAP1 CALLDATASIZE SWAP1 PUSH1 0x4 ADD PUSH2 0x1BC6 JUMP JUMPDEST SWAP3 PUSH2 0x184 CALLDATALOAD DUP10 DUP2 GT PUSH2 0x14B JUMPI PUSH2 0x11FE SWAP1 CALLDATASIZE SWAP1 PUSH1 0x4 ADD PUSH2 0x1BC6 JUMP JUMPDEST SWAP5 PUSH2 0x1A4 CALLDATALOAD DUP11 DUP2 GT PUSH2 0x14B JUMPI PUSH2 0x1218 SWAP1 CALLDATASIZE SWAP1 PUSH1 0x4 ADD PUSH2 0x1BC6 JUMP JUMPDEST SWAP7 PUSH2 0x1C4 CALLDATALOAD DUP12 DUP2 GT PUSH2 0x14B JUMPI PUSH2 0x1232 SWAP1 CALLDATASIZE SWAP1 PUSH1 0x4 ADD PUSH2 0x1BC6 JUMP JUMPDEST SWAP9 PUSH2 0x1E4 CALLDATALOAD SWAP12 DUP13 GT PUSH2 0x14B JUMPI DUP14 SWAP12 PUSH2 0x124E SWAP1 CALLDATASIZE SWAP1 PUSH1 0x4 ADD PUSH2 0x1BC6 JUMP JUMPDEST SWAP11 DUP14 PUSH1 0x40 MLOAD SWAP1 DUP1 MLOAD SWAP2 DUP1 PUSH1 0x20 DUP4 ADD SWAP4 PUSH2 0x1268 DUP2 DUP4 DUP8 PUSH2 0x1C4D JUMP JUMPDEST DUP2 ADD PUSH1 0x1 DUP2 MSTORE SUB PUSH1 0x20 ADD SWAP1 KECCAK256 PUSH1 0x9 ADD SLOAD PUSH1 0xFF AND ISZERO PUSH2 0x1285 SWAP1 PUSH2 0x1CFD JUMP JUMPDEST PUSH1 0x40 MLOAD DUP1 SWAP3 DUP2 SWAP3 MLOAD DUP1 SWAP3 PUSH2 0x1298 SWAP3 PUSH2 0x1C4D JUMP JUMPDEST DUP2 ADD PUSH1 0x1 DUP2 MSTORE SUB PUSH1 0x20 ADD SWAP1 KECCAK256 SWAP13 PUSH1 0x44 CALLDATALOAD PUSH1 0x0 MSTORE DUP14 PUSH1 0x20 MSTORE PUSH1 0x40 PUSH1 0x0 KECCAK256 SWAP1 PUSH2 0x12BE SWAP2 PUSH2 0x1E0F JUMP JUMPDEST PUSH1 0x44 CALLDATALOAD PUSH1 0x0 MSTORE DUP13 PUSH1 0x20 MSTORE PUSH1 0x40 PUSH1 0x0 KECCAK256 SWAP1 PUSH1 0xFF AND PUSH1 0xFF NOT PUSH1 0x1 DUP4 ADD SLOAD AND OR PUSH1 0x1 DUP3 ADD SSTORE PUSH1 0x2 ADD SWAP1 PUSH2 0x12ED SWAP2 PUSH2 0x1E0F JUMP JUMPDEST PUSH1 0x44 CALLDATALOAD PUSH1 0x0 MSTORE DUP11 PUSH1 0x20 MSTORE PUSH1 0x40 PUSH1 0x0 KECCAK256 PUSH1 0x3 ADD SWAP1 PUSH2 0x1309 SWAP2 PUSH2 0x1E0F JUMP JUMPDEST PUSH1 0x44 CALLDATALOAD PUSH1 0x0 MSTORE DUP10 PUSH1 0x20 MSTORE PUSH1 0x40 PUSH1 0x0 KECCAK256 PUSH1 0x4 ADD SWAP1 PUSH2 0x1325 SWAP2 PUSH2 0x1E0F JUMP JUMPDEST PUSH1 0x44 CALLDATALOAD PUSH1 0x0 MSTORE DUP9 PUSH1 0x20 MSTORE PUSH1 0x40 PUSH1 0x0 KECCAK256 PUSH1 0x5 ADD SWAP1 PUSH2 0x1341 SWAP2 PUSH2 0x1E0F JUMP JUMPDEST PUSH1 0x44 CALLDATALOAD PUSH1 0x0 MSTORE DUP8 PUSH1 0x20 MSTORE PUSH1 0x40 PUSH1 0x0 KECCAK256 PUSH1 0x6 ADD SWAP1 PUSH2 0x135D SWAP2 PUSH2 0x1E0F JUMP JUMPDEST PUSH1 0x44 CALLDATALOAD PUSH1 0x0 MSTORE DUP7 PUSH1 0x20 MSTORE PUSH1 0x40 PUSH1 0x0 KECCAK256 PUSH1 0x7 ADD SWAP1 PUSH2 0x1379 SWAP2 PUSH2 0x1E0F JUMP JUMPDEST PUSH1 0x44 CALLDATALOAD PUSH1 0x0 MSTORE DUP6 PUSH1 0x20 MSTORE PUSH1 0x40 PUSH1 0x0 KECCAK256 PUSH1 0x8 ADD SWAP1 PUSH2 0x1395 SWAP2 PUSH2 0x1E0F JUMP JUMPDEST PUSH1 0x44 CALLDATALOAD PUSH1 0x0 MSTORE DUP5 PUSH1 0x20 MSTORE PUSH1 0x40 PUSH1 0x0 KECCAK256 PUSH2 0x164 CALLDATALOAD PUSH1 0x9 DUP3 ADD SSTORE PUSH1 0xA ADD SWAP1 PUSH2 0x13BA SWAP2 PUSH2 0x1E0F JUMP JUMPDEST PUSH1 0x44 CALLDATALOAD PUSH1 0x0 MSTORE DUP4 PUSH1 0x20 MSTORE PUSH1 0x40 PUSH1 0x0 KECCAK256 PUSH1 0xB ADD SWAP1 PUSH2 0x13D6 SWAP2 PUSH2 0x1E0F JUMP JUMPDEST PUSH1 0x44 CALLDATALOAD PUSH1 0x0 MSTORE DUP3 PUSH1 0x20 MSTORE PUSH1 0x40 PUSH1 0x0 KECCAK256 PUSH1 0xC ADD SWAP1 PUSH2 0x13F2 SWAP2 PUSH2 0x1E0F JUMP JUMPDEST PUSH1 0x44 CALLDATALOAD PUSH1 0x0 MSTORE DUP2 PUSH1 0x20 MSTORE PUSH1 0x40 PUSH1 0x0 KECCAK256 PUSH1 0xD ADD SWAP1 PUSH2 0x140E SWAP2 PUSH2 0x1E0F JUMP JUMPDEST PUSH2 0x204 CALLDATALOAD PUSH1 0x8 DUP3 ADD SSTORE PUSH1 0x9 ADD PUSH1 0xFF NOT DUP2 SLOAD AND PUSH1 0x1 OR SWAP1 SSTORE DUP1 PUSH1 0x40 MLOAD DUP1 DUP5 MLOAD DUP2 DUP2 PUSH1 0x20 DUP9 ADD SWAP2 PUSH2 0x143C SWAP3 PUSH2 0x1C4D JUMP JUMPDEST DUP2 ADD PUSH1 0x2 DUP2 MSTORE SUB PUSH1 0x20 ADD SWAP1 KECCAK256 SWAP1 PUSH2 0x1452 SWAP2 PUSH2 0x1ED6 JUMP JUMPDEST PUSH2 0x145B SWAP1 PUSH2 0x1F1E JUMP JUMPDEST SWAP1 PUSH2 0x1465 SWAP1 PUSH2 0x1F1E JUMP JUMPDEST SWAP1 PUSH1 0x40 MLOAD SWAP2 PUSH1 0x44 CALLDATALOAD SWAP2 PUSH32 0x406D6A39963B189AE4D4BA0B53780ECDF05DC013E196662687A246B0A2B70548 PUSH1 0x0 DUP1 LOG4 PUSH1 0x44 CALLDATALOAD DUP2 MSTORE PUSH1 0x20 SWAP1 RETURN JUMPDEST CALLVALUE PUSH2 0x14B JUMPI PUSH1 0x20 CALLDATASIZE PUSH1 0x3 NOT ADD SLT PUSH2 0x14B JUMPI PUSH1 0x4 CALLDATALOAD PUSH1 0x1 PUSH1 0x1 PUSH1 0x40 SHL SUB DUP2 GT PUSH2 0x14B JUMPI PUSH1 0x6 PUSH2 0x6D8 PUSH1 0x20 PUSH2 0x696 PUSH2 0x700 SWAP5 CALLDATASIZE SWAP1 PUSH1 0x4 ADD PUSH2 0x1BC6 JUMP JUMPDEST CALLVALUE PUSH2 0x14B JUMPI PUSH1 0x4 PUSH2 0x10CC PUSH1 0x6 PUSH2 0x14EC CALLDATASIZE PUSH2 0x1C1C JUMP JUMPDEST SWAP3 DUP4 SWAP3 SWAP2 PUSH1 0x40 MLOAD SWAP1 DUP1 MLOAD SWAP1 PUSH1 0x20 SWAP8 DUP4 DUP10 DUP1 SWAP6 DUP2 DUP6 ADD SWAP6 PUSH2 0x150D DUP2 DUP4 DUP10 PUSH2 0x1C4D JUMP JUMPDEST DUP2 ADD PUSH1 0x1 DUP2 MSTORE SUB ADD SWAP1 KECCAK256 ADD SLOAD PUSH1 0x3 PUSH1 0x40 MLOAD DUP6 DUP2 DUP6 MLOAD PUSH2 0x108E DUP2 DUP4 DUP11 PUSH2 0x1C4D JUMP JUMPDEST CALLVALUE PUSH2 0x14B JUMPI PUSH1 0x20 DUP1 PUSH1 0x8 PUSH2 0x1564 PUSH2 0x1543 CALLDATASIZE PUSH2 0x1C1C JUMP JUMPDEST SWAP4 SWAP1 PUSH1 0x40 MLOAD SWAP1 PUSH2 0x6C7 PUSH1 0xFF PUSH1 0x9 DUP4 MLOAD SWAP5 DUP7 DUP2 DUP2 DUP8 ADD SWAP8 PUSH2 0x6B5 DUP2 DUP4 DUP12 PUSH2 0x1C4D JUMP JUMPDEST DUP2 ADD PUSH1 0x1 DUP2 MSTORE SUB ADD SWAP1 KECCAK256 ADD SLOAD EQ PUSH1 0x40 MLOAD SWAP1 DUP2 MSTORE RETURN JUMPDEST CALLVALUE PUSH2 0x14B JUMPI PUSH1 0x20 PUSH1 0x1 PUSH2 0x15E9 PUSH2 0x158E CALLDATASIZE PUSH2 0x1C1C JUMP JUMPDEST SWAP4 SWAP1 PUSH1 0x60 PUSH2 0x120 PUSH1 0x40 MLOAD PUSH2 0x15A1 DUP2 PUSH2 0x1B6D JUMP JUMPDEST DUP3 DUP2 MSTORE DUP3 DUP6 DUP3 ADD MSTORE DUP3 PUSH1 0x40 DUP3 ADD MSTORE DUP3 DUP1 DUP3 ADD MSTORE PUSH1 0x0 PUSH1 0x80 DUP3 ADD MSTORE DUP3 PUSH1 0xA0 DUP3 ADD MSTORE DUP3 PUSH1 0xC0 DUP3 ADD MSTORE DUP3 PUSH1 0xE0 DUP3 ADD MSTORE DUP3 PUSH2 0x100 DUP3 ADD MSTORE ADD MSTORE DUP2 PUSH1 0x40 MLOAD SWAP4 DUP3 DUP6 DUP1 SWAP5 MLOAD SWAP4 DUP5 SWAP3 ADD PUSH2 0x1C4D JUMP JUMPDEST DUP2 ADD DUP5 DUP2 MSTORE SUB ADD SWAP1 KECCAK256 ADD SWAP1 PUSH1 0x0 MSTORE PUSH1 0x20 MSTORE PUSH2 0x700 PUSH1 0x40 PUSH1 0x0 KECCAK256 PUSH2 0x16AA PUSH1 0x9 PUSH1 0x40 MLOAD SWAP3 PUSH2 0x1614 DUP5 PUSH2 0x1B6D JUMP JUMPDEST PUSH2 0x161D DUP2 PUSH2 0x1F3E JUMP JUMPDEST DUP5 MSTORE PUSH2 0x162B PUSH1 0x1 DUP3 ADD PUSH2 0x1F3E JUMP JUMPDEST PUSH1 0x20 DUP6 ADD MSTORE PUSH2 0x163C PUSH1 0x2 DUP3 ADD PUSH2 0x1F3E JUMP JUMPDEST PUSH1 0x40 DUP6 ADD MSTORE PUSH2 0x164D PUSH1 0x3 DUP3 ADD PUSH2 0x1F3E JUMP JUMPDEST PUSH1 0x60 DUP6 ADD MSTORE PUSH1 0xFF PUSH1 0x4 DUP3 ADD SLOAD AND PUSH1 0x80 DUP6 ADD MSTORE PUSH2 0x166B PUSH1 0x5 DUP3 ADD PUSH2 0x1F3E JUMP JUMPDEST PUSH1 0xA0 DUP6 ADD MSTORE PUSH2 0x167C PUSH1 0x6 DUP3 ADD PUSH2 0x1F3E JUMP JUMPDEST PUSH1 0xC0 DUP6 ADD MSTORE PUSH2 0x168D PUSH1 0x7 DUP3 ADD PUSH2 0x1F3E JUMP JUMPDEST PUSH1 0xE0 DUP6 ADD MSTORE PUSH2 0x169E PUSH1 0x8 DUP3 ADD PUSH2 0x1F3E JUMP JUMPDEST PUSH2 0x100 DUP6 ADD MSTORE ADD PUSH2 0x1F3E JUMP JUMPDEST PUSH2 0x120 DUP3 ADD MSTORE PUSH1 0x40 MLOAD SWAP2 DUP3 SWAP2 PUSH1 0x20 DUP4 MSTORE PUSH2 0x120 PUSH2 0x1793 PUSH2 0x177D PUSH2 0x1766 PUSH2 0x1750 PUSH2 0x172D PUSH2 0x1717 PUSH2 0x1701 PUSH2 0x16EB DUP12 PUSH2 0x140 PUSH1 0x20 DUP13 MLOAD SWAP3 ADD MSTORE PUSH2 0x160 DUP14 ADD SWAP1 PUSH2 0x1C70 JUMP JUMPDEST PUSH1 0x20 DUP11 ADD MLOAD DUP13 DUP3 SUB PUSH1 0x1F NOT ADD PUSH1 0x40 DUP15 ADD MSTORE PUSH2 0x1C70 JUMP JUMPDEST PUSH1 0x40 DUP10 ADD MLOAD DUP12 DUP3 SUB PUSH1 0x1F NOT ADD PUSH1 0x60 DUP14 ADD MSTORE PUSH2 0x1C70 JUMP JUMPDEST PUSH1 0x60 DUP9 ADD MLOAD DUP11 DUP3 SUB PUSH1 0x1F NOT ADD PUSH1 0x80 DUP13 ADD MSTORE PUSH2 0x1C70 JUMP JUMPDEST PUSH1 0xFF PUSH1 0x80 DUP9 ADD MLOAD AND PUSH1 0xA0 DUP11 ADD MSTORE PUSH1 0xA0 DUP8 ADD MLOAD PUSH1 0x1F NOT DUP11 DUP4 SUB ADD PUSH1 0xC0 DUP12 ADD MSTORE PUSH2 0x1C70 JUMP JUMPDEST PUSH1 0xC0 DUP7 ADD MLOAD DUP9 DUP3 SUB PUSH1 0x1F NOT ADD PUSH1 0xE0 DUP11 ADD MSTORE PUSH2 0x1C70 JUMP JUMPDEST PUSH1 0xE0 DUP6 ADD MLOAD DUP8 DUP3 SUB PUSH1 0x1F NOT ADD PUSH2 0x100 DUP10 ADD MSTORE PUSH2 0x1C70 JUMP JUMPDEST PUSH2 0x100 DUP5 ADD MLOAD DUP7 DUP3 SUB PUSH1 0x1F NOT ADD DUP5 DUP9 ADD MSTORE PUSH2 0x1C70 JUMP JUMPDEST SWAP2 ADD MLOAD DUP4 DUP3 SUB PUSH1 0x1F NOT ADD PUSH2 0x140 DUP6 ADD MSTORE PUSH2 0x1C70 JUMP JUMPDEST CALLVALUE PUSH2 0x14B JUMPI PUSH1 0xE0 CALLDATASIZE PUSH1 0x3 NOT ADD SLT PUSH2 0x14B JUMPI PUSH1 0x1 PUSH1 0x1 PUSH1 0x40 SHL SUB PUSH1 0x4 CALLDATALOAD DUP2 DUP2 GT PUSH2 0x14B JUMPI PUSH2 0x17D9 SWAP1 CALLDATASIZE SWAP1 PUSH1 0x4 ADD PUSH2 0x1BC6 JUMP JUMPDEST SWAP1 PUSH1 0x24 CALLDATALOAD DUP2 DUP2 GT PUSH2 0x14B JUMPI PUSH2 0x17F2 SWAP1 CALLDATASIZE SWAP1 PUSH1 0x4 ADD PUSH2 0x1BC6 JUMP JUMPDEST SWAP1 PUSH1 0x44 CALLDATALOAD SWAP2 PUSH1 0x64 CALLDATALOAD DUP3 DUP2 GT PUSH2 0x14B JUMPI PUSH2 0x180F SWAP1 CALLDATASIZE SWAP1 PUSH1 0x4 ADD PUSH2 0x1BC6 JUMP JUMPDEST SWAP1 PUSH2 0x1818 PUSH2 0x1C95 JUMP JUMPDEST SWAP5 PUSH1 0xA4 CALLDATALOAD DUP5 DUP2 GT PUSH2 0x14B JUMPI PUSH2 0x1831 SWAP1 CALLDATASIZE SWAP1 PUSH1 0x4 ADD PUSH2 0x1BC6 JUMP JUMPDEST PUSH1 0xC4 CALLDATALOAD SWAP5 DUP6 GT PUSH2 0x14B JUMPI DUP6 SWAP5 PUSH2 0x184B SWAP1 CALLDATASIZE SWAP1 PUSH1 0x4 ADD PUSH2 0x1BC6 JUMP JUMPDEST SWAP1 PUSH1 0x40 MLOAD SWAP1 DUP4 MLOAD SWAP1 PUSH1 0x20 SWAP10 DUP11 DUP7 ADD SWAP3 PUSH2 0x1865 DUP2 DUP7 DUP7 PUSH2 0x1C4D JUMP JUMPDEST DUP5 ADD DUP5 DUP13 PUSH1 0x1 SWAP7 DUP4 DUP9 DUP1 SWAP6 MSTORE SUB ADD SWAP1 KECCAK256 ADD DUP10 PUSH1 0x0 MSTORE DUP12 MSTORE DUP7 DUP5 PUSH1 0x40 PUSH1 0x0 KECCAK256 ADD SWAP1 PUSH2 0x188E SWAP2 PUSH2 0x1E0F JUMP JUMPDEST DUP4 PUSH1 0x40 MLOAD DUP13 DUP2 DUP10 MLOAD PUSH2 0x18A1 DUP2 DUP4 DUP11 PUSH2 0x1C4D JUMP JUMPDEST DUP2 ADD DUP5 DUP2 MSTORE SUB ADD SWAP1 KECCAK256 ADD DUP10 PUSH1 0x0 MSTORE DUP12 MSTORE DUP8 PUSH1 0x40 PUSH1 0x0 KECCAK256 PUSH1 0x3 ADD SWAP1 PUSH2 0x18C4 SWAP2 PUSH2 0x1E0F JUMP JUMPDEST DUP4 PUSH1 0x40 MLOAD DUP13 DUP2 DUP10 MLOAD PUSH2 0x18D7 DUP2 DUP4 DUP11 PUSH2 0x1C4D JUMP JUMPDEST DUP2 ADD DUP5 DUP2 MSTORE SUB ADD SWAP1 KECCAK256 ADD DUP10 PUSH1 0x0 MSTORE DUP12 MSTORE PUSH1 0x40 PUSH1 0x0 KECCAK256 PUSH1 0x4 ADD SWAP1 PUSH1 0xFF AND PUSH1 0xFF NOT DUP3 SLOAD AND OR SWAP1 SSTORE DUP3 PUSH1 0x40 MLOAD DUP12 DUP2 DUP9 MLOAD PUSH2 0x190F DUP2 DUP4 DUP10 PUSH2 0x1C4D JUMP JUMPDEST DUP2 ADD DUP5 DUP2 MSTORE SUB ADD SWAP1 KECCAK256 ADD DUP9 PUSH1 0x0 MSTORE DUP11 MSTORE PUSH1 0x40 PUSH1 0x0 KECCAK256 PUSH1 0x5 ADD SWAP1 PUSH2 0x1931 SWAP2 PUSH2 0x1E0F JUMP JUMPDEST DUP9 PUSH1 0x40 MLOAD DUP1 DUP1 SWAP4 DUP8 MLOAD DUP1 SWAP3 PUSH2 0x1945 SWAP3 PUSH2 0x1C4D JUMP JUMPDEST DUP2 ADD DUP5 DUP2 MSTORE SUB ADD SWAP1 KECCAK256 ADD DUP6 PUSH1 0x0 MSTORE DUP8 MSTORE PUSH1 0x40 PUSH1 0x0 KECCAK256 PUSH1 0x6 ADD SWAP1 PUSH2 0x1013 SWAP2 PUSH2 0x1E0F JUMP JUMPDEST CALLVALUE PUSH2 0x14B JUMPI PUSH2 0x1975 CALLDATASIZE PUSH2 0x1C1C JUMP JUMPDEST PUSH1 0x40 MLOAD SWAP1 PUSH2 0x1982 DUP3 PUSH2 0x1B3C JUMP JUMPDEST PUSH1 0x60 DUP3 DUP2 DUP1 SWAP5 MSTORE PUSH1 0x20 SWAP5 DUP3 DUP3 DUP8 SWAP5 DUP6 DUP1 SWAP6 ADD MSTORE PUSH1 0x40 DUP2 ADD PUSH1 0x0 SWAP1 MSTORE DUP2 DUP1 DUP3 ADD MSTORE DUP2 PUSH1 0x80 DUP3 ADD MSTORE DUP2 PUSH1 0xA0 DUP3 ADD MSTORE PUSH1 0xC0 ADD MSTORE PUSH1 0x40 MLOAD SWAP3 DUP4 DUP3 DUP2 SWAP4 MLOAD SWAP3 DUP4 SWAP2 ADD SWAP2 PUSH2 0x19C9 SWAP3 PUSH2 0x1C4D JUMP JUMPDEST DUP2 ADD PUSH1 0x1 DUP2 MSTORE SUB ADD SWAP1 KECCAK256 PUSH1 0x2 ADD SWAP1 PUSH1 0x0 MSTORE DUP3 MSTORE PUSH1 0x40 PUSH1 0x0 KECCAK256 PUSH1 0x40 MLOAD SWAP2 PUSH2 0x19EE DUP4 PUSH2 0x1B3C JUMP JUMPDEST PUSH2 0x19F7 DUP3 PUSH2 0x1F3E JUMP JUMPDEST DUP4 MSTORE PUSH2 0x1A05 PUSH1 0x1 DUP4 ADD PUSH2 0x1F3E JUMP JUMPDEST SWAP2 DUP5 DUP5 ADD SWAP3 DUP4 MSTORE PUSH1 0x2 DUP2 ADD SLOAD PUSH1 0xFF AND PUSH1 0x40 DUP6 ADD SWAP1 DUP2 MSTORE PUSH1 0x3 DUP3 ADD PUSH2 0x1A28 SWAP1 PUSH2 0x1F3E JUMP JUMPDEST DUP6 DUP5 ADD SWAP1 DUP2 MSTORE SWAP1 PUSH2 0x1A3B PUSH1 0x4 DUP5 ADD PUSH2 0x1F3E JUMP JUMPDEST PUSH1 0x80 DUP8 ADD SWAP1 DUP2 MSTORE SWAP2 PUSH2 0x1A4F PUSH1 0x5 DUP6 ADD PUSH2 0x1F3E JUMP JUMPDEST SWAP4 PUSH1 0xA0 DUP9 ADD SWAP5 DUP6 MSTORE PUSH1 0x6 ADD PUSH2 0x1A63 SWAP1 PUSH2 0x1F3E JUMP JUMPDEST SWAP5 PUSH1 0xC0 DUP9 ADD SWAP6 DUP7 MSTORE PUSH1 0x40 MLOAD SWAP9 DUP10 SWAP9 DUP2 DUP11 MSTORE MLOAD SWAP1 DUP10 ADD PUSH1 0xE0 SWAP1 MSTORE PUSH2 0x100 DUP10 ADD PUSH2 0x1A8A SWAP2 PUSH2 0x1C70 JUMP JUMPDEST SWAP7 MLOAD PUSH1 0x1F NOT SWAP8 DUP9 DUP11 DUP3 SUB ADD PUSH1 0x40 DUP12 ADD MSTORE PUSH2 0x1AA3 SWAP2 PUSH2 0x1C70 JUMP JUMPDEST SWAP3 MLOAD PUSH1 0xFF AND SWAP1 DUP9 ADD MSTORE MLOAD SWAP1 DUP6 DUP8 DUP3 SUB ADD PUSH1 0x80 DUP9 ADD MSTORE PUSH2 0x1AC1 SWAP2 PUSH2 0x1C70 JUMP JUMPDEST SWAP1 MLOAD SWAP1 DUP5 DUP7 DUP3 SUB ADD PUSH1 0xA0 DUP8 ADD MSTORE PUSH2 0x1AD7 SWAP2 PUSH2 0x1C70 JUMP JUMPDEST SWAP1 MLOAD SWAP1 DUP4 DUP6 DUP3 SUB ADD PUSH1 0xC0 DUP7 ADD MSTORE PUSH2 0x1AED SWAP2 PUSH2 0x1C70 JUMP JUMPDEST SWAP1 MLOAD SWAP2 DUP4 DUP3 SUB ADD PUSH1 0xE0 DUP5 ADD MSTORE PUSH2 0x700 SWAP2 PUSH2 0x1C70 JUMP JUMPDEST CALLVALUE PUSH2 0x14B JUMPI PUSH1 0x20 CALLDATASIZE PUSH1 0x3 NOT ADD SLT PUSH2 0x14B JUMPI PUSH1 0x4 CALLDATALOAD PUSH1 0x1 PUSH1 0x1 PUSH1 0x40 SHL SUB DUP2 GT PUSH2 0x14B JUMPI PUSH1 0x7 PUSH2 0x6D8 PUSH1 0x20 PUSH2 0x696 PUSH2 0x700 SWAP5 CALLDATASIZE SWAP1 PUSH1 0x4 ADD PUSH2 0x1BC6 JUMP JUMPDEST PUSH1 0xE0 DUP2 ADD SWAP1 DUP2 LT PUSH1 0x1 PUSH1 0x1 PUSH1 0x40 SHL SUB DUP3 GT OR PUSH2 0x1B57 JUMPI PUSH1 0x40 MSTORE JUMP JUMPDEST PUSH4 0x4E487B71 PUSH1 0xE0 SHL PUSH1 0x0 MSTORE PUSH1 0x41 PUSH1 0x4 MSTORE PUSH1 0x24 PUSH1 0x0 REVERT JUMPDEST PUSH2 0x140 DUP2 ADD SWAP1 DUP2 LT PUSH1 0x1 PUSH1 0x1 PUSH1 0x40 SHL SUB DUP3 GT OR PUSH2 0x1B57 JUMPI PUSH1 0x40 MSTORE JUMP JUMPDEST PUSH2 0x1C0 DUP2 ADD SWAP1 DUP2 LT PUSH1 0x1 PUSH1 0x1 PUSH1 0x40 SHL SUB DUP3 GT OR PUSH2 0x1B57 JUMPI PUSH1 0x40 MSTORE JUMP JUMPDEST SWAP1 PUSH1 0x1F DUP1 NOT SWAP2 ADD AND DUP2 ADD SWAP1 DUP2 LT PUSH1 0x1 PUSH1 0x1 PUSH1 0x40 SHL SUB DUP3 GT OR PUSH2 0x1B57 JUMPI PUSH1 0x40 MSTORE JUMP JUMPDEST DUP2 PUSH1 0x1F DUP3 ADD SLT ISZERO PUSH2 0x14B JUMPI DUP1 CALLDATALOAD SWAP1 PUSH1 0x1 PUSH1 0x1 PUSH1 0x40 SHL SUB DUP3 GT PUSH2 0x1B57 JUMPI PUSH1 0x40 MLOAD SWAP3 PUSH2 0x1BFA PUSH1 0x1F DUP5 ADD PUSH1 0x1F NOT AND PUSH1 0x20 ADD DUP6 PUSH2 0x1BA5 JUMP JUMPDEST DUP3 DUP5 MSTORE PUSH1 0x20 DUP4 DUP4 ADD ADD GT PUSH2 0x14B JUMPI DUP2 PUSH1 0x0 SWAP3 PUSH1 0x20 DUP1 SWAP4 ADD DUP4 DUP7 ADD CALLDATACOPY DUP4 ADD ADD MSTORE SWAP1 JUMP JUMPDEST PUSH1 0x40 PUSH1 0x3 NOT DUP3 ADD SLT PUSH2 0x14B JUMPI PUSH1 0x4 CALLDATALOAD SWAP1 PUSH1 0x1 PUSH1 0x1 PUSH1 0x40 SHL SUB DUP3 GT PUSH2 0x14B JUMPI PUSH2 0x1C46 SWAP2 PUSH1 0x4 ADD PUSH2 0x1BC6 JUMP JUMPDEST SWAP1 PUSH1 0x24 CALLDATALOAD SWAP1 JUMP JUMPDEST PUSH1 0x0 JUMPDEST DUP4 DUP2 LT PUSH2 0x1C60 JUMPI POP POP PUSH1 0x0 SWAP2 ADD MSTORE JUMP JUMPDEST DUP2 DUP2 ADD MLOAD DUP4 DUP3 ADD MSTORE PUSH1 0x20 ADD PUSH2 0x1C50 JUMP JUMPDEST SWAP1 PUSH1 0x20 SWAP2 PUSH2 0x1C89 DUP2 MLOAD DUP1 SWAP3 DUP2 DUP6 MSTORE DUP6 DUP1 DUP7 ADD SWAP2 ADD PUSH2 0x1C4D JUMP JUMPDEST PUSH1 0x1F ADD PUSH1 0x1F NOT AND ADD ADD SWAP1 JUMP JUMPDEST PUSH1 0x84 CALLDATALOAD SWAP1 PUSH1 0xFF DUP3 AND DUP3 SUB PUSH2 0x14B JUMPI JUMP JUMPDEST PUSH1 0x0 SLOAD PUSH1 0x1 PUSH1 0x1 PUSH1 0xA0 SHL SUB AND CALLER SUB PUSH2 0x1CB9 JUMPI JUMP JUMPDEST PUSH1 0x64 PUSH1 0x40 MLOAD PUSH3 0x461BCD PUSH1 0xE5 SHL DUP2 MSTORE PUSH1 0x20 PUSH1 0x4 DUP3 ADD MSTORE PUSH1 0x20 PUSH1 0x24 DUP3 ADD MSTORE PUSH32 0x4F776E61626C653A2063616C6C6572206973206E6F7420746865206F776E6572 PUSH1 0x44 DUP3 ADD MSTORE REVERT JUMPDEST ISZERO PUSH2 0x1D04 JUMPI JUMP JUMPDEST PUSH1 0x40 MLOAD PUSH3 0x461BCD PUSH1 0xE5 SHL DUP2 MSTORE PUSH1 0x20 PUSH1 0x4 DUP3 ADD MSTORE PUSH1 0x19 PUSH1 0x24 DUP3 ADD MSTORE PUSH32 0x547572746C6520616C7265616479207265676973746572656400000000000000 PUSH1 0x44 DUP3 ADD MSTORE PUSH1 0x64 SWAP1 REVERT JUMPDEST DUP1 SLOAD DUP3 LT ISZERO PUSH2 0x1D61 JUMPI PUSH1 0x0 MSTORE PUSH1 0x20 PUSH1 0x0 KECCAK256 ADD SWAP1 PUSH1 0x0 SWAP1 JUMP JUMPDEST PUSH4 0x4E487B71 PUSH1 0xE0 SHL PUSH1 0x0 MSTORE PUSH1 0x32 PUSH1 0x4 MSTORE PUSH1 0x24 PUSH1 0x0 REVERT JUMPDEST SWAP1 PUSH1 0x1 DUP3 DUP2 SHR SWAP3 AND DUP1 ISZERO PUSH2 0x1DA7 JUMPI JUMPDEST PUSH1 0x20 DUP4 LT EQ PUSH2 0x1D91 JUMPI JUMP JUMPDEST PUSH4 0x4E487B71 PUSH1 0xE0 SHL PUSH1 0x0 MSTORE PUSH1 0x22 PUSH1 0x4 MSTORE PUSH1 0x24 PUSH1 0x0 REVERT JUMPDEST SWAP2 PUSH1 0x7F AND SWAP2 PUSH2 0x1D86 JUMP JUMPDEST DUP2 DUP2 LT PUSH2 0x1DBC JUMPI POP POP JUMP JUMPDEST PUSH1 0x0 DUP2 SSTORE PUSH1 0x1 ADD PUSH2 0x1DB1 JUMP JUMPDEST SWAP2 SWAP1 PUSH1 0x1F DUP2 GT PUSH2 0x1DD7 JUMPI POP POP POP JUMP JUMPDEST PUSH2 0x1E03 SWAP3 PUSH1 0x0 MSTORE PUSH1 0x20 PUSH1 0x0 KECCAK256 SWAP1 PUSH1 0x20 PUSH1 0x1F DUP5 ADD PUSH1 0x5 SHR DUP4 ADD SWAP4 LT PUSH2 0x1E05 JUMPI JUMPDEST PUSH1 0x1F ADD PUSH1 0x5 SHR ADD SWAP1 PUSH2 0x1DB1 JUMP JUMPDEST JUMP JUMPDEST SWAP1 SWAP2 POP DUP2 SWAP1 PUSH2 0x1DF6 JUMP JUMPDEST SWAP2 SWAP1 SWAP2 DUP3 MLOAD PUSH1 0x1 PUSH1 0x1 PUSH1 0x40 SHL SUB DUP2 GT PUSH2 0x1B57 JUMPI PUSH2 0x1E36 DUP2 PUSH2 0x1E30 DUP5 SLOAD PUSH2 0x1D77 JUMP JUMPDEST DUP5 PUSH2 0x1DC8 JUMP JUMPDEST PUSH1 0x20 DUP1 PUSH1 0x1F DUP4 GT PUSH1 0x1 EQ PUSH2 0x1E72 JUMPI POP DUP2 SWAP3 SWAP4 SWAP5 PUSH1 0x0 SWAP3 PUSH2 0x1E67 JUMPI JUMPDEST POP POP DUP2 PUSH1 0x1 SHL SWAP2 PUSH1 0x0 NOT SWAP1 PUSH1 0x3 SHL SHR NOT AND OR SWAP1 SSTORE JUMP JUMPDEST ADD MLOAD SWAP1 POP CODESIZE DUP1 PUSH2 0x1E51 JUMP JUMPDEST SWAP1 PUSH1 0x1F NOT DUP4 AND SWAP6 DUP5 PUSH1 0x0 MSTORE DUP3 PUSH1 0x0 KECCAK256 SWAP3 PUSH1 0x0 SWAP1 JUMPDEST DUP9 DUP3 LT PUSH2 0x1EBE JUMPI POP POP DUP4 PUSH1 0x1 SWAP6 SWAP7 SWAP8 LT PUSH2 0x1EA5 JUMPI JUMPDEST POP POP POP DUP2 SHL ADD SWAP1 SSTORE JUMP JUMPDEST ADD MLOAD PUSH1 0x0 NOT PUSH1 0xF8 DUP5 PUSH1 0x3 SHL AND SHR NOT AND SWAP1 SSTORE CODESIZE DUP1 DUP1 PUSH2 0x1E9B JUMP JUMPDEST DUP1 PUSH1 0x1 DUP6 SWAP7 DUP3 SWAP5 SWAP7 DUP7 ADD MLOAD DUP2 SSTORE ADD SWAP6 ADD SWAP4 ADD SWAP1 PUSH2 0x1E86 JUMP JUMPDEST DUP1 SLOAD PUSH9 0x10000000000000000 DUP2 LT ISZERO PUSH2 0x1B57 JUMPI PUSH2 0x1EF8 SWAP2 PUSH1 0x1 DUP3 ADD DUP2 SSTORE PUSH2 0x1D49 JUMP JUMPDEST SWAP2 SWAP1 SWAP2 PUSH2 0x1F08 JUMPI PUSH2 0x1E03 SWAP2 PUSH2 0x1E0F JUMP JUMPDEST PUSH4 0x4E487B71 PUSH1 0xE0 SHL PUSH1 0x0 MSTORE PUSH1 0x0 PUSH1 0x4 MSTORE PUSH1 0x24 PUSH1 0x0 REVERT JUMPDEST PUSH2 0x1F36 SWAP1 PUSH1 0x20 PUSH1 0x40 MLOAD SWAP3 DUP3 DUP5 DUP1 SWAP5 MLOAD SWAP4 DUP5 SWAP3 ADD PUSH2 0x1C4D JUMP JUMPDEST DUP2 ADD SUB SWAP1 KECCAK256 SWAP1 JUMP JUMPDEST SWAP1 PUSH1 0x40 MLOAD SWAP2 DUP3 PUSH1 0x0 DUP3 SLOAD SWAP3 PUSH2 0x1F52 DUP5 PUSH2 0x1D77 JUMP JUMPDEST SWAP1 DUP2 DUP5 MSTORE PUSH1 0x1 SWAP5 DUP6 DUP2 AND SWAP1 DUP2 PUSH1 0x0 EQ PUSH2 0x1FBF JUMPI POP PUSH1 0x1 EQ PUSH2 0x1F7C JUMPI JUMPDEST POP POP PUSH2 0x1E03 SWAP3 POP SUB DUP4 PUSH2 0x1BA5 JUMP JUMPDEST SWAP1 SWAP4 SWAP2 POP PUSH1 0x0 MSTORE PUSH1 0x20 SWAP1 DUP2 PUSH1 0x0 KECCAK256 SWAP4 PUSH1 0x0 SWAP2 JUMPDEST DUP2 DUP4 LT PUSH2 0x1FA7 JUMPI POP POP PUSH2 0x1E03 SWAP4 POP DUP3 ADD ADD CODESIZE DUP1 PUSH2 0x1F6E JUMP JUMPDEST DUP6 SLOAD DUP9 DUP5 ADD DUP6 ADD MSTORE SWAP5 DUP6 ADD SWAP5 DUP8 SWAP5 POP SWAP2 DUP4 ADD SWAP2 PUSH2 0x1F8F JUMP JUMPDEST SWAP2 POP POP PUSH2 0x1E03 SWAP5 POP PUSH1 0x20 SWAP3 POP PUSH1 0xFF NOT AND DUP3 DUP5 ADD MSTORE ISZERO ISZERO PUSH1 0x5 SHL DUP3 ADD ADD CODESIZE DUP1 PUSH2 0x1F6E JUMP JUMPDEST SWAP1 SWAP2 PUSH2 0x1FF9 PUSH2 0x2007 SWAP4 PUSH1 0x40 DUP5 MSTORE PUSH1 0x40 DUP5 ADD SWAP1 PUSH2 0x1C70 JUMP JUMPDEST SWAP2 PUSH1 0x20 DUP2 DUP5 SUB SWAP2 ADD MSTORE PUSH2 0x1C70 JUMP JUMPDEST SWAP1 JUMP JUMPDEST ISZERO PUSH2 0x2011 JUMPI JUMP JUMPDEST PUSH1 0x40 MLOAD PUSH3 0x461BCD PUSH1 0xE5 SHL DUP2 MSTORE PUSH1 0x20 PUSH1 0x4 DUP3 ADD MSTORE PUSH1 0x15 PUSH1 0x24 DUP3 ADD MSTORE PUSH21 0x151D5C9D1B1948191BD95CC81B9BDD08195E1A5CDD PUSH1 0x5A SHL PUSH1 0x44 DUP3 ADD MSTORE PUSH1 0x64 SWAP1 REVERT JUMPDEST PUSH1 0x0 NOT DUP2 EQ PUSH2 0x205D JUMPI PUSH1 0x1 ADD SWAP1 JUMP JUMPDEST PUSH4 0x4E487B71 PUSH1 0xE0 SHL PUSH1 0x0 MSTORE PUSH1 0x11 PUSH1 0x4 MSTORE PUSH1 0x24 PUSH1 0x0 REVERT JUMPDEST PUSH1 0x0 SWAP3 SWAP2 DUP2 SLOAD PUSH2 0x2082 DUP2 PUSH2 0x1D77 JUMP JUMPDEST SWAP3 PUSH1 0x1 SWAP2 DUP1 DUP4 AND SWAP1 DUP2 ISZERO PUSH2 0x20DB JUMPI POP PUSH1 0x1 EQ PUSH2 0x209F JUMPI JUMPDEST POP POP POP POP JUMP JUMPDEST SWAP1 SWAP2 SWAP3 SWAP4 SWAP5 POP PUSH1 0x0 MSTORE PUSH1 0x20 SWAP1 DUP2 PUSH1 0x0 KECCAK256 SWAP1 PUSH1 0x0 SWAP2 JUMPDEST DUP6 DUP4 LT PUSH2 0x20CA JUMPI POP POP POP POP ADD SWAP1 CODESIZE DUP1 DUP1 DUP1 PUSH2 0x2099 JUMP JUMPDEST DUP1 SLOAD DUP6 DUP5 ADD MSTORE SWAP2 DUP4 ADD SWAP2 DUP2 ADD PUSH2 0x20B4 JUMP JUMPDEST PUSH1 0xFF NOT AND DUP5 MSTORE POP POP POP DUP2 ISZERO ISZERO SWAP1 SWAP2 MUL ADD SWAP2 POP CODESIZE DUP1 DUP1 DUP1 PUSH2 0x2099 JUMP JUMPDEST SWAP1 DUP1 DUP3 EQ PUSH2 0x21CE JUMPI PUSH2 0x2108 DUP2 SLOAD PUSH2 0x1D77 JUMP JUMPDEST SWAP1 PUSH1 0x1 PUSH1 0x1 PUSH1 0x40 SHL SUB DUP3 GT PUSH2 0x1B57 JUMPI DUP2 SWAP1 PUSH2 0x212D DUP3 PUSH2 0x2127 DUP7 SLOAD PUSH2 0x1D77 JUMP JUMPDEST DUP7 PUSH2 0x1DC8 JUMP JUMPDEST PUSH1 0x0 SWAP1 PUSH1 0x1F DUP4 GT PUSH1 0x1 EQ PUSH2 0x2163 JUMPI PUSH1 0x0 SWAP3 PUSH2 0x2158 JUMPI POP POP DUP2 PUSH1 0x1 SHL SWAP2 PUSH1 0x0 NOT SWAP1 PUSH1 0x3 SHL SHR NOT AND OR SWAP1 SSTORE JUMP JUMPDEST ADD SLOAD SWAP1 POP CODESIZE DUP1 PUSH2 0x1E51 JUMP JUMPDEST DUP2 MSTORE PUSH1 0x20 DUP1 DUP3 KECCAK256 DUP6 DUP4 MSTORE DUP2 DUP4 KECCAK256 SWAP4 POP SWAP1 PUSH1 0x1F NOT DUP6 AND SWAP1 DUP4 SWAP1 JUMPDEST DUP3 DUP3 LT PUSH2 0x21B5 JUMPI POP POP SWAP1 DUP5 PUSH1 0x1 SWAP6 SWAP5 SWAP4 SWAP3 LT PUSH2 0x219C JUMPI POP POP POP DUP2 SHL ADD SWAP1 SSTORE JUMP JUMPDEST ADD SLOAD PUSH1 0x0 NOT PUSH1 0xF8 DUP5 PUSH1 0x3 SHL AND SHR NOT AND SWAP1 SSTORE CODESIZE DUP1 DUP1 PUSH2 0x1E9B JUMP JUMPDEST DUP5 SWAP6 DUP2 SWAP3 SWAP6 DUP6 ADD SLOAD DUP2 SSTORE PUSH1 0x1 DUP1 SWAP2 ADD SWAP7 ADD SWAP5 ADD SWAP1 PUSH2 0x217C JUMP JUMPDEST POP POP JUMP INVALID LOG2 PUSH5 0x6970667358 0x22 SLT KECCAK256 GASPRICE 0xD2 JUMPI PUSH23 0xCCF9057B4BB3EFCBCC52E7A393261064C56E312C1BC94D 0xDD 0xC2 JUMP MOD 0x4D PUSH5 0x736F6C6343 STOP ADDMOD SLT STOP CALLER "
		},
		"gasEstimates": {
			"creation": {
				"codeDepositCost": "1742400",
				"executionCost": "27624",
				"totalCost": "1770024"
			},
			"external": {
				"approveMultiplicationDocByReviewer(string,bytes32)": "infinite",
				"approveTransferDocByReviewer(string,bytes32)": "infinite",
				"changeTurtleOwner(string,string,string)": "infinite",
				"owner()": "2582",
				"registerTurtle(string,string)": "infinite",
				"registerTurtleAssigneeDocument(string,string,bytes32,string,uint8,string,string)": "infinite",
				"registerTurtleDeathDocument(string,string,bytes32,string,uint8,string,string,string,string)": "infinite",
				"registerTurtleGrantorDocument(string,string,bytes32,string,string,string,string)": "infinite",
				"registerTurtleMultiplicationDocument(string,string,bytes32,uint8,string,string,string,string,string,string,string,uint256,string,string,string,string,bytes32)": "infinite",
				"renounceOwnership()": "28332",
				"searchCurrentDeathDocumentHash(string)": "infinite",
				"searchCurrentDocumentHash(string)": "infinite",
				"searchCurrentMultiplicationDocumentHash(string)": "infinite",
				"searchCurrentTransferredDocumentHash(string)": "infinite",
				"searchTurtleDeathDocument(string,bytes32)": "infinite",
				"searchTurtleMultiplicationDocument(string,bytes32)": "infinite",
				"searchTurtleTransferDocument(string,bytes32)": "infinite",
				"transferOwnership(address)": "28473",
				"turtleValid(string,bytes32)": "infinite"
			}
		},
		"methodIdentifiers": {
			"approveMultiplicationDocByReviewer(string,bytes32)": "482346bd",
			"approveTransferDocByReviewer(string,bytes32)": "229aa914",
			"changeTurtleOwner(string,string,string)": "ce5f0b7d",
			"owner()": "8da5cb5b",
			"registerTurtle(string,string)": "5c493eaa",
			"registerTurtleAssigneeDocument(string,string,bytes32,string,uint8,string,string)": "18e1a28a",
			"registerTurtleDeathDocument(string,string,bytes32,string,uint8,string,string,string,string)": "6c1dcaf8",
			"registerTurtleGrantorDocument(string,string,bytes32,string,string,string,string)": "596c442a",
			"registerTurtleMultiplicationDocument(string,string,bytes32,uint8,string,string,string,string,string,string,string,uint256,string,string,string,string,bytes32)": "358a3d37",
			"renounceOwnership()": "715018a6",
			"searchCurrentDeathDocumentHash(string)": "1294ffcf",
			"searchCurrentDocumentHash(string)": "f3cb197d",
			"searchCurrentMultiplicationDocumentHash(string)": "997480e5",
			"searchCurrentTransferredDocumentHash(string)": "22d2378f",
			"searchTurtleDeathDocument(string,bytes32)": "17aa1f48",
			"searchTurtleMultiplicationDocument(string,bytes32)": "673ae4c1",
			"searchTurtleTransferDocument(string,bytes32)": "1a0642ef",
			"transferOwnership(address)": "f2fde38b",
			"turtleValid(string,bytes32)": "1b979af1"
		}
	},
	"abi": [
		{
			"anonymous": false,
			"inputs": [
				{
					"indexed": true,
					"internalType": "string",
					"name": "turtleId",
					"type": "string"
				},
				{
					"indexed": true,
					"internalType": "bytes32",
					"name": "documentHash",
					"type": "bytes32"
				}
			],
			"name": "CurrentTurtleDocument",
			"type": "event"
		},
		{
			"anonymous": false,
			"inputs": [
				{
					"indexed": true,
					"internalType": "address",
					"name": "previousOwner",
					"type": "address"
				},
				{
					"indexed": true,
					"internalType": "address",
					"name": "newOwner",
					"type": "address"
				}
			],
			"name": "OwnershipTransferred",
			"type": "event"
		},
		{
			"anonymous": false,
			"inputs": [
				{
					"indexed": true,
					"internalType": "string",
					"name": "turtleId",
					"type": "string"
				},
				{
					"indexed": true,
					"internalType": "string",
					"name": "applicant",
					"type": "string"
				},
				{
					"indexed": true,
					"internalType": "bytes32",
					"name": "documentHash",
					"type": "bytes32"
				}
			],
			"name": "TurtleDeath",
			"type": "event"
		},
		{
			"anonymous": false,
			"inputs": [
				{
					"indexed": true,
					"internalType": "string",
					"name": "turtleId",
					"type": "string"
				},
				{
					"indexed": true,
					"internalType": "string",
					"name": "applicant",
					"type": "string"
				},
				{
					"indexed": true,
					"internalType": "bytes32",
					"name": "documentHash",
					"type": "bytes32"
				}
			],
			"name": "TurtleMultiplication",
			"type": "event"
		},
		{
			"anonymous": false,
			"inputs": [
				{
					"indexed": true,
					"internalType": "string",
					"name": "turtleId",
					"type": "string"
				},
				{
					"indexed": true,
					"internalType": "string",
					"name": "oldOwner",
					"type": "string"
				},
				{
					"indexed": true,
					"internalType": "string",
					"name": "newOwner",
					"type": "string"
				}
			],
			"name": "TurtleOwnerChanged",
			"type": "event"
		},
		{
			"anonymous": false,
			"inputs": [
				{
					"indexed": true,
					"internalType": "string",
					"name": "turtleId",
					"type": "string"
				},
				{
					"indexed": true,
					"internalType": "string",
					"name": "applicant",
					"type": "string"
				}
			],
			"name": "TurtleRegistered",
			"type": "event"
		},
		{
			"anonymous": false,
			"inputs": [
				{
					"indexed": true,
					"internalType": "string",
					"name": "turtleId",
					"type": "string"
				},
				{
					"indexed": false,
					"internalType": "string",
					"name": "grantApplicant",
					"type": "string"
				},
				{
					"indexed": false,
					"internalType": "string",
					"name": "assignApplicant",
					"type": "string"
				},
				{
					"indexed": true,
					"internalType": "bytes32",
					"name": "documentHash",
					"type": "bytes32"
				}
			],
			"name": "TurtleTransferred",
			"type": "event"
		},
		{
			"inputs": [
				{
					"internalType": "string",
					"name": "_turtleId",
					"type": "string"
				},
				{
					"internalType": "bytes32",
					"name": "_documentHash",
					"type": "bytes32"
				}
			],
			"name": "approveMultiplicationDocByReviewer",
			"outputs": [
				{
					"internalType": "bytes32",
					"name": "",
					"type": "bytes32"
				}
			],
			"stateMutability": "nonpayable",
			"type": "function"
		},
		{
			"inputs": [
				{
					"internalType": "string",
					"name": "_turtleId",
					"type": "string"
				},
				{
					"internalType": "bytes32",
					"name": "_documentHash",
					"type": "bytes32"
				}
			],
			"name": "approveTransferDocByReviewer",
			"outputs": [
				{
					"internalType": "bytes32",
					"name": "",
					"type": "bytes32"
				}
			],
			"stateMutability": "nonpayable",
			"type": "function"
		},
		{
			"inputs": [
				{
					"internalType": "string",
					"name": "_turtleId",
					"type": "string"
				},
				{
					"internalType": "string",
					"name": "_oldOwner",
					"type": "string"
				},
				{
					"internalType": "string",
					"name": "_newOwner",
					"type": "string"
				}
			],
			"name": "changeTurtleOwner",
			"outputs": [],
			"stateMutability": "nonpayable",
			"type": "function"
		},
		{
			"inputs": [],
			"name": "owner",
			"outputs": [
				{
					"internalType": "address",
					"name": "",
					"type": "address"
				}
			],
			"stateMutability": "view",
			"type": "function"
		},
		{
			"inputs": [
				{
					"internalType": "string",
					"name": "_turtleId",
					"type": "string"
				},
				{
					"internalType": "string",
					"name": "_applicant",
					"type": "string"
				}
			],
			"name": "registerTurtle",
			"outputs": [],
			"stateMutability": "nonpayable",
			"type": "function"
		},
		{
			"inputs": [
				{
					"internalType": "string",
					"name": "_turtleId",
					"type": "string"
				},
				{
					"internalType": "string",
					"name": "_applicant",
					"type": "string"
				},
				{
					"internalType": "bytes32",
					"name": "_documentHash",
					"type": "bytes32"
				},
				{
					"internalType": "string",
					"name": "_assigneeId",
					"type": "string"
				},
				{
					"internalType": "uint8",
					"name": "_count",
					"type": "uint8"
				},
				{
					"internalType": "string",
					"name": "_transferReason",
					"type": "string"
				},
				{
					"internalType": "string",
					"name": "_purpose",
					"type": "string"
				}
			],
			"name": "registerTurtleAssigneeDocument",
			"outputs": [
				{
					"internalType": "bytes32",
					"name": "",
					"type": "bytes32"
				}
			],
			"stateMutability": "nonpayable",
			"type": "function"
		},
		{
			"inputs": [
				{
					"internalType": "string",
					"name": "_turtleId",
					"type": "string"
				},
				{
					"internalType": "string",
					"name": "_applicant",
					"type": "string"
				},
				{
					"internalType": "bytes32",
					"name": "_documentHash",
					"type": "bytes32"
				},
				{
					"internalType": "string",
					"name": "_shelter",
					"type": "string"
				},
				{
					"internalType": "uint8",
					"name": "_count",
					"type": "uint8"
				},
				{
					"internalType": "string",
					"name": "_deathReason",
					"type": "string"
				},
				{
					"internalType": "string",
					"name": "_plan",
					"type": "string"
				},
				{
					"internalType": "string",
					"name": "_deathImage",
					"type": "string"
				},
				{
					"internalType": "string",
					"name": "_diagnosis",
					"type": "string"
				}
			],
			"name": "registerTurtleDeathDocument",
			"outputs": [
				{
					"internalType": "bytes32",
					"name": "",
					"type": "bytes32"
				}
			],
			"stateMutability": "nonpayable",
			"type": "function"
		},
		{
			"inputs": [
				{
					"internalType": "string",
					"name": "_turtleId",
					"type": "string"
				},
				{
					"internalType": "string",
					"name": "_applicant",
					"type": "string"
				},
				{
					"internalType": "bytes32",
					"name": "_documentHash",
					"type": "bytes32"
				},
				{
					"internalType": "string",
					"name": "_grantorId",
					"type": "string"
				},
				{
					"internalType": "string",
					"name": "_aquisition",
					"type": "string"
				},
				{
					"internalType": "string",
					"name": "_fatherId",
					"type": "string"
				},
				{
					"internalType": "string",
					"name": "_motherId",
					"type": "string"
				}
			],
			"name": "registerTurtleGrantorDocument",
			"outputs": [
				{
					"internalType": "bytes32",
					"name": "",
					"type": "bytes32"
				}
			],
			"stateMutability": "nonpayable",
			"type": "function"
		},
		{
			"inputs": [
				{
					"internalType": "string",
					"name": "_turtleId",
					"type": "string"
				},
				{
					"internalType": "string",
					"name": "_applicant",
					"type": "string"
				},
				{
					"internalType": "bytes32",
					"name": "_documentHash",
					"type": "bytes32"
				},
				{
					"internalType": "uint8",
					"name": "_count",
					"type": "uint8"
				},
				{
					"internalType": "string",
					"name": "_area",
					"type": "string"
				},
				{
					"internalType": "string",
					"name": "_purpose",
					"type": "string"
				},
				{
					"internalType": "string",
					"name": "_location",
					"type": "string"
				},
				{
					"internalType": "string",
					"name": "_fatherId",
					"type": "string"
				},
				{
					"internalType": "string",
					"name": "_motherId",
					"type": "string"
				},
				{
					"internalType": "string",
					"name": "_birth",
					"type": "string"
				},
				{
					"internalType": "string",
					"name": "_name",
					"type": "string"
				},
				{
					"internalType": "uint256",
					"name": "_weight",
					"type": "uint256"
				},
				{
					"internalType": "string",
					"name": "_gender",
					"type": "string"
				},
				{
					"internalType": "string",
					"name": "_locationSpecification",
					"type": "string"
				},
				{
					"internalType": "string",
					"name": "_multiplicationMethod",
					"type": "string"
				},
				{
					"internalType": "string",
					"name": "_shelterSpecification",
					"type": "string"
				},
				{
					"internalType": "bytes32",
					"name": "_turtleHash",
					"type": "bytes32"
				}
			],
			"name": "registerTurtleMultiplicationDocument",
			"outputs": [
				{
					"internalType": "bytes32",
					"name": "",
					"type": "bytes32"
				}
			],
			"stateMutability": "nonpayable",
			"type": "function"
		},
		{
			"inputs": [],
			"name": "renounceOwnership",
			"outputs": [],
			"stateMutability": "nonpayable",
			"type": "function"
		},
		{
			"inputs": [
				{
					"internalType": "string",
					"name": "_turtleId",
					"type": "string"
				}
			],
			"name": "searchCurrentDeathDocumentHash",
			"outputs": [
				{
					"internalType": "bool",
					"name": "",
					"type": "bool"
				},
				{
					"internalType": "bytes32",
					"name": "",
					"type": "bytes32"
				}
			],
			"stateMutability": "view",
			"type": "function"
		},
		{
			"inputs": [
				{
					"internalType": "string",
					"name": "_turtleId",
					"type": "string"
				}
			],
			"name": "searchCurrentDocumentHash",
			"outputs": [
				{
					"internalType": "bytes32",
					"name": "",
					"type": "bytes32"
				}
			],
			"stateMutability": "view",
			"type": "function"
		},
		{
			"inputs": [
				{
					"internalType": "string",
					"name": "_turtleId",
					"type": "string"
				}
			],
			"name": "searchCurrentMultiplicationDocumentHash",
			"outputs": [
				{
					"internalType": "bool",
					"name": "",
					"type": "bool"
				},
				{
					"internalType": "bytes32",
					"name": "",
					"type": "bytes32"
				}
			],
			"stateMutability": "view",
			"type": "function"
		},
		{
			"inputs": [
				{
					"internalType": "string",
					"name": "_turtleId",
					"type": "string"
				}
			],
			"name": "searchCurrentTransferredDocumentHash",
			"outputs": [
				{
					"internalType": "bool",
					"name": "",
					"type": "bool"
				},
				{
					"internalType": "bytes32",
					"name": "",
					"type": "bytes32"
				}
			],
			"stateMutability": "view",
			"type": "function"
		},
		{
			"inputs": [
				{
					"internalType": "string",
					"name": "_turtleId",
					"type": "string"
				},
				{
					"internalType": "bytes32",
					"name": "_documentHash",
					"type": "bytes32"
				}
			],
			"name": "searchTurtleDeathDocument",
			"outputs": [
				{
					"components": [
						{
							"internalType": "string",
							"name": "applicant",
							"type": "string"
						},
						{
							"internalType": "string",
							"name": "shelter",
							"type": "string"
						},
						{
							"internalType": "uint8",
							"name": "count",
							"type": "uint8"
						},
						{
							"internalType": "string",
							"name": "deathReason",
							"type": "string"
						},
						{
							"internalType": "string",
							"name": "plan",
							"type": "string"
						},
						{
							"internalType": "string",
							"name": "deathImage",
							"type": "string"
						},
						{
							"internalType": "string",
							"name": "diagnosis",
							"type": "string"
						}
					],
					"internalType": "struct TurtleDocumentation.Death",
					"name": "",
					"type": "tuple"
				}
			],
			"stateMutability": "view",
			"type": "function"
		},
		{
			"inputs": [
				{
					"internalType": "string",
					"name": "_turtleId",
					"type": "string"
				},
				{
					"internalType": "bytes32",
					"name": "_documentHash",
					"type": "bytes32"
				}
			],
			"name": "searchTurtleMultiplicationDocument",
			"outputs": [
				{
					"components": [
						{
							"internalType": "string",
							"name": "applicant",
							"type": "string"
						},
						{
							"internalType": "uint8",
							"name": "count",
							"type": "uint8"
						},
						{
							"internalType": "string",
							"name": "area",
							"type": "string"
						},
						{
							"internalType": "string",
							"name": "purpose",
							"type": "string"
						},
						{
							"internalType": "string",
							"name": "location",
							"type": "string"
						},
						{
							"internalType": "string",
							"name": "fatherId",
							"type": "string"
						},
						{
							"internalType": "string",
							"name": "motherId",
							"type": "string"
						},
						{
							"internalType": "string",
							"name": "birth",
							"type": "string"
						},
						{
							"internalType": "string",
							"name": "name",
							"type": "string"
						},
						{
							"internalType": "uint256",
							"name": "weight",
							"type": "uint256"
						},
						{
							"internalType": "string",
							"name": "gender",
							"type": "string"
						},
						{
							"internalType": "string",
							"name": "locationSpecification",
							"type": "string"
						},
						{
							"internalType": "string",
							"name": "multiplicationMethod",
							"type": "string"
						},
						{
							"internalType": "string",
							"name": "shelterSpecification",
							"type": "string"
						}
					],
					"internalType": "struct TurtleDocumentation.Multiplication",
					"name": "",
					"type": "tuple"
				}
			],
			"stateMutability": "view",
			"type": "function"
		},
		{
			"inputs": [
				{
					"internalType": "string",
					"name": "_turtleId",
					"type": "string"
				},
				{
					"internalType": "bytes32",
					"name": "_documentHash",
					"type": "bytes32"
				}
			],
			"name": "searchTurtleTransferDocument",
			"outputs": [
				{
					"components": [
						{
							"internalType": "string",
							"name": "grantApplicant",
							"type": "string"
						},
						{
							"internalType": "string",
							"name": "assignApplicant",
							"type": "string"
						},
						{
							"internalType": "string",
							"name": "grantorId",
							"type": "string"
						},
						{
							"internalType": "string",
							"name": "assigneeId",
							"type": "string"
						},
						{
							"internalType": "uint8",
							"name": "count",
							"type": "uint8"
						},
						{
							"internalType": "string",
							"name": "transferReason",
							"type": "string"
						},
						{
							"internalType": "string",
							"name": "purpose",
							"type": "string"
						},
						{
							"internalType": "string",
							"name": "aquisition",
							"type": "string"
						},
						{
							"internalType": "string",
							"name": "fatherId",
							"type": "string"
						},
						{
							"internalType": "string",
							"name": "motherId",
							"type": "string"
						}
					],
					"internalType": "struct TurtleDocumentation.Transfer",
					"name": "",
					"type": "tuple"
				}
			],
			"stateMutability": "view",
			"type": "function"
		},
		{
			"inputs": [
				{
					"internalType": "address",
					"name": "newOwner",
					"type": "address"
				}
			],
			"name": "transferOwnership",
			"outputs": [],
			"stateMutability": "nonpayable",
			"type": "function"
		},
		{
			"inputs": [
				{
					"internalType": "string",
					"name": "_turtleId",
					"type": "string"
				},
				{
					"internalType": "bytes32",
					"name": "_hash",
					"type": "bytes32"
				}
			],
			"name": "turtleValid",
			"outputs": [
				{
					"internalType": "bool",
					"name": "",
					"type": "bool"
				}
			],
			"stateMutability": "view",
			"type": "function"
		}
	]
}