{
	"contracts\\TurtleDocumentation.sol": {
		"TurtleDocumentation": {
			"abi": [
				{
					"anonymous": false,
					"inputs": [
						{
							"indexed": true,
							"internalType": "string",
							"name": "turtleId",
							"type": "string"
						},
						{
							"indexed": true,
							"internalType": "bytes32",
							"name": "documentHash",
							"type": "bytes32"
						}
					],
					"name": "CurrentTurtleDocument",
					"type": "event"
				},
				{
					"anonymous": false,
					"inputs": [
						{
							"indexed": true,
							"internalType": "address",
							"name": "previousOwner",
							"type": "address"
						},
						{
							"indexed": true,
							"internalType": "address",
							"name": "newOwner",
							"type": "address"
						}
					],
					"name": "OwnershipTransferred",
					"type": "event"
				},
				{
					"anonymous": false,
					"inputs": [
						{
							"indexed": true,
							"internalType": "string",
							"name": "turtleId",
							"type": "string"
						},
						{
							"indexed": true,
							"internalType": "string",
							"name": "applicant",
							"type": "string"
						},
						{
							"indexed": true,
							"internalType": "bytes32",
							"name": "documentHash",
							"type": "bytes32"
						}
					],
					"name": "TurtleDeath",
					"type": "event"
				},
				{
					"anonymous": false,
					"inputs": [
						{
							"indexed": true,
							"internalType": "string",
							"name": "turtleId",
							"type": "string"
						},
						{
							"indexed": true,
							"internalType": "string",
							"name": "applicant",
							"type": "string"
						},
						{
							"indexed": true,
							"internalType": "bytes32",
							"name": "documentHash",
							"type": "bytes32"
						}
					],
					"name": "TurtleMultiplication",
					"type": "event"
				},
				{
					"anonymous": false,
					"inputs": [
						{
							"indexed": true,
							"internalType": "string",
							"name": "turtleId",
							"type": "string"
						},
						{
							"indexed": true,
							"internalType": "string",
							"name": "oldOwner",
							"type": "string"
						},
						{
							"indexed": true,
							"internalType": "string",
							"name": "newOwner",
							"type": "string"
						}
					],
					"name": "TurtleOwnerChanged",
					"type": "event"
				},
				{
					"anonymous": false,
					"inputs": [
						{
							"indexed": true,
							"internalType": "string",
							"name": "turtleId",
							"type": "string"
						},
						{
							"indexed": true,
							"internalType": "string",
							"name": "applicant",
							"type": "string"
						}
					],
					"name": "TurtleRegistered",
					"type": "event"
				},
				{
					"anonymous": false,
					"inputs": [
						{
							"indexed": true,
							"internalType": "string",
							"name": "turtleId",
							"type": "string"
						},
						{
							"indexed": false,
							"internalType": "string",
							"name": "grantApplicant",
							"type": "string"
						},
						{
							"indexed": false,
							"internalType": "string",
							"name": "assignApplicant",
							"type": "string"
						},
						{
							"indexed": true,
							"internalType": "bytes32",
							"name": "documentHash",
							"type": "bytes32"
						}
					],
					"name": "TurtleTransferred",
					"type": "event"
				},
				{
					"inputs": [
						{
							"internalType": "string",
							"name": "_turtleId",
							"type": "string"
						},
						{
							"internalType": "bytes32",
							"name": "_documentHash",
							"type": "bytes32"
						}
					],
					"name": "approveMultiplicationDocByReviewer",
					"outputs": [
						{
							"internalType": "bytes32",
							"name": "",
							"type": "bytes32"
						}
					],
					"stateMutability": "nonpayable",
					"type": "function"
				},
				{
					"inputs": [
						{
							"internalType": "string",
							"name": "_turtleId",
							"type": "string"
						},
						{
							"internalType": "bytes32",
							"name": "_documentHash",
							"type": "bytes32"
						}
					],
					"name": "approveTransferDocByReviewer",
					"outputs": [
						{
							"internalType": "bytes32",
							"name": "",
							"type": "bytes32"
						}
					],
					"stateMutability": "nonpayable",
					"type": "function"
				},
				{
					"inputs": [
						{
							"internalType": "string",
							"name": "_turtleId",
							"type": "string"
						},
						{
							"internalType": "string",
							"name": "_oldOwner",
							"type": "string"
						},
						{
							"internalType": "string",
							"name": "_newOwner",
							"type": "string"
						}
					],
					"name": "changeTurtleOwner",
					"outputs": [],
					"stateMutability": "nonpayable",
					"type": "function"
				},
				{
					"inputs": [],
					"name": "owner",
					"outputs": [
						{
							"internalType": "address",
							"name": "",
							"type": "address"
						}
					],
					"stateMutability": "view",
					"type": "function"
				},
				{
					"inputs": [
						{
							"internalType": "string",
							"name": "_turtleId",
							"type": "string"
						},
						{
							"internalType": "string",
							"name": "_applicant",
							"type": "string"
						},
						{
							"internalType": "bytes32",
							"name": "_turtleHash",
							"type": "bytes32"
						}
					],
					"name": "registerTurtle",
					"outputs": [],
					"stateMutability": "nonpayable",
					"type": "function"
				},
				{
					"inputs": [
						{
							"internalType": "string",
							"name": "_turtleId",
							"type": "string"
						},
						{
							"internalType": "string",
							"name": "_applicant",
							"type": "string"
						},
						{
							"internalType": "bytes32",
							"name": "_documentHash",
							"type": "bytes32"
						},
						{
							"internalType": "string",
							"name": "_assigneeId",
							"type": "string"
						},
						{
							"internalType": "uint8",
							"name": "_count",
							"type": "uint8"
						},
						{
							"internalType": "string",
							"name": "_transferReason",
							"type": "string"
						},
						{
							"internalType": "string",
							"name": "_purpose",
							"type": "string"
						}
					],
					"name": "registerTurtleAssigneeDocument",
					"outputs": [
						{
							"internalType": "bytes32",
							"name": "",
							"type": "bytes32"
						}
					],
					"stateMutability": "nonpayable",
					"type": "function"
				},
				{
					"inputs": [
						{
							"internalType": "string",
							"name": "_turtleId",
							"type": "string"
						},
						{
							"internalType": "string",
							"name": "_applicant",
							"type": "string"
						},
						{
							"internalType": "bytes32",
							"name": "_documentHash",
							"type": "bytes32"
						},
						{
							"internalType": "string",
							"name": "_shelter",
							"type": "string"
						},
						{
							"internalType": "uint8",
							"name": "_count",
							"type": "uint8"
						},
						{
							"internalType": "string",
							"name": "_deathReason",
							"type": "string"
						},
						{
							"internalType": "string",
							"name": "_plan",
							"type": "string"
						},
						{
							"internalType": "string",
							"name": "_deathImage",
							"type": "string"
						},
						{
							"internalType": "string",
							"name": "_diagnosis",
							"type": "string"
						}
					],
					"name": "registerTurtleDeathDocument",
					"outputs": [
						{
							"internalType": "bytes32",
							"name": "",
							"type": "bytes32"
						}
					],
					"stateMutability": "nonpayable",
					"type": "function"
				},
				{
					"inputs": [
						{
							"internalType": "string",
							"name": "_turtleId",
							"type": "string"
						},
						{
							"internalType": "string",
							"name": "_applicant",
							"type": "string"
						},
						{
							"internalType": "bytes32",
							"name": "_documentHash",
							"type": "bytes32"
						},
						{
							"internalType": "string",
							"name": "_grantorId",
							"type": "string"
						},
						{
							"internalType": "string",
							"name": "_aquisition",
							"type": "string"
						},
						{
							"internalType": "string",
							"name": "_fatherId",
							"type": "string"
						},
						{
							"internalType": "string",
							"name": "_motherId",
							"type": "string"
						}
					],
					"name": "registerTurtleGrantorDocument",
					"outputs": [
						{
							"internalType": "bytes32",
							"name": "",
							"type": "bytes32"
						}
					],
					"stateMutability": "nonpayable",
					"type": "function"
				},
				{
					"inputs": [
						{
							"internalType": "string",
							"name": "_turtleId",
							"type": "string"
						},
						{
							"internalType": "string",
							"name": "_applicant",
							"type": "string"
						},
						{
							"internalType": "bytes32",
							"name": "_documentHash",
							"type": "bytes32"
						},
						{
							"internalType": "uint8",
							"name": "_count",
							"type": "uint8"
						},
						{
							"internalType": "string",
							"name": "_area",
							"type": "string"
						},
						{
							"internalType": "string",
							"name": "_purpose",
							"type": "string"
						},
						{
							"internalType": "string",
							"name": "_location",
							"type": "string"
						},
						{
							"internalType": "string",
							"name": "_fatherId",
							"type": "string"
						},
						{
							"internalType": "string",
							"name": "_motherId",
							"type": "string"
						},
						{
							"internalType": "string",
							"name": "_birth",
							"type": "string"
						},
						{
							"internalType": "string",
							"name": "_name",
							"type": "string"
						},
						{
							"internalType": "uint256",
							"name": "_weight",
							"type": "uint256"
						},
						{
							"internalType": "string",
							"name": "_gender",
							"type": "string"
						},
						{
							"internalType": "string",
							"name": "_locationSpecification",
							"type": "string"
						},
						{
							"internalType": "string",
							"name": "_multiplicationMethod",
							"type": "string"
						},
						{
							"internalType": "string",
							"name": "_shelterSpecification",
							"type": "string"
						},
						{
							"internalType": "bytes32",
							"name": "_turtleHash",
							"type": "bytes32"
						}
					],
					"name": "registerTurtleMultiplicationDocument",
					"outputs": [
						{
							"internalType": "bytes32",
							"name": "",
							"type": "bytes32"
						}
					],
					"stateMutability": "nonpayable",
					"type": "function"
				},
				{
					"inputs": [],
					"name": "renounceOwnership",
					"outputs": [],
					"stateMutability": "nonpayable",
					"type": "function"
				},
				{
					"inputs": [
						{
							"internalType": "string",
							"name": "_turtleId",
							"type": "string"
						}
					],
					"name": "searchCurrentDeathDocumentHash",
					"outputs": [
						{
							"internalType": "bool",
							"name": "",
							"type": "bool"
						},
						{
							"internalType": "bytes32",
							"name": "",
							"type": "bytes32"
						}
					],
					"stateMutability": "view",
					"type": "function"
				},
				{
					"inputs": [
						{
							"internalType": "string",
							"name": "_turtleId",
							"type": "string"
						}
					],
					"name": "searchCurrentDocumentHash",
					"outputs": [
						{
							"internalType": "bytes32",
							"name": "",
							"type": "bytes32"
						}
					],
					"stateMutability": "view",
					"type": "function"
				},
				{
					"inputs": [
						{
							"internalType": "string",
							"name": "_turtleId",
							"type": "string"
						}
					],
					"name": "searchCurrentMultiplicationDocumentHash",
					"outputs": [
						{
							"internalType": "bool",
							"name": "",
							"type": "bool"
						},
						{
							"internalType": "bytes32",
							"name": "",
							"type": "bytes32"
						}
					],
					"stateMutability": "view",
					"type": "function"
				},
				{
					"inputs": [
						{
							"internalType": "string",
							"name": "_turtleId",
							"type": "string"
						}
					],
					"name": "searchCurrentTransferredDocumentHash",
					"outputs": [
						{
							"internalType": "bool",
							"name": "",
							"type": "bool"
						},
						{
							"internalType": "bytes32",
							"name": "",
							"type": "bytes32"
						}
					],
					"stateMutability": "view",
					"type": "function"
				},
				{
					"inputs": [
						{
							"internalType": "string",
							"name": "_turtleId",
							"type": "string"
						},
						{
							"internalType": "bytes32",
							"name": "_documentHash",
							"type": "bytes32"
						}
					],
					"name": "searchTurtleDeathDocument",
					"outputs": [
						{
							"components": [
								{
									"internalType": "string",
									"name": "applicant",
									"type": "string"
								},
								{
									"internalType": "string",
									"name": "shelter",
									"type": "string"
								},
								{
									"internalType": "uint8",
									"name": "count",
									"type": "uint8"
								},
								{
									"internalType": "string",
									"name": "deathReason",
									"type": "string"
								},
								{
									"internalType": "string",
									"name": "plan",
									"type": "string"
								},
								{
									"internalType": "string",
									"name": "deathImage",
									"type": "string"
								},
								{
									"internalType": "string",
									"name": "diagnosis",
									"type": "string"
								}
							],
							"internalType": "struct TurtleDocumentation.Death",
							"name": "",
							"type": "tuple"
						}
					],
					"stateMutability": "view",
					"type": "function"
				},
				{
					"inputs": [
						{
							"internalType": "string",
							"name": "_turtleId",
							"type": "string"
						},
						{
							"internalType": "bytes32",
							"name": "_documentHash",
							"type": "bytes32"
						}
					],
					"name": "searchTurtleMultiplicationDocument",
					"outputs": [
						{
							"components": [
								{
									"internalType": "string",
									"name": "applicant",
									"type": "string"
								},
								{
									"internalType": "uint8",
									"name": "count",
									"type": "uint8"
								},
								{
									"internalType": "string",
									"name": "area",
									"type": "string"
								},
								{
									"internalType": "string",
									"name": "purpose",
									"type": "string"
								},
								{
									"internalType": "string",
									"name": "location",
									"type": "string"
								},
								{
									"internalType": "string",
									"name": "fatherId",
									"type": "string"
								},
								{
									"internalType": "string",
									"name": "motherId",
									"type": "string"
								},
								{
									"internalType": "string",
									"name": "birth",
									"type": "string"
								},
								{
									"internalType": "string",
									"name": "name",
									"type": "string"
								},
								{
									"internalType": "uint256",
									"name": "weight",
									"type": "uint256"
								},
								{
									"internalType": "string",
									"name": "gender",
									"type": "string"
								},
								{
									"internalType": "string",
									"name": "locationSpecification",
									"type": "string"
								},
								{
									"internalType": "string",
									"name": "multiplicationMethod",
									"type": "string"
								},
								{
									"internalType": "string",
									"name": "shelterSpecification",
									"type": "string"
								}
							],
							"internalType": "struct TurtleDocumentation.Multiplication",
							"name": "",
							"type": "tuple"
						}
					],
					"stateMutability": "view",
					"type": "function"
				},
				{
					"inputs": [
						{
							"internalType": "string",
							"name": "_turtleId",
							"type": "string"
						},
						{
							"internalType": "bytes32",
							"name": "_documentHash",
							"type": "bytes32"
						}
					],
					"name": "searchTurtleTransferDocument",
					"outputs": [
						{
							"components": [
								{
									"internalType": "string",
									"name": "grantApplicant",
									"type": "string"
								},
								{
									"internalType": "string",
									"name": "assignApplicant",
									"type": "string"
								},
								{
									"internalType": "string",
									"name": "grantorId",
									"type": "string"
								},
								{
									"internalType": "string",
									"name": "assigneeId",
									"type": "string"
								},
								{
									"internalType": "uint8",
									"name": "count",
									"type": "uint8"
								},
								{
									"internalType": "string",
									"name": "transferReason",
									"type": "string"
								},
								{
									"internalType": "string",
									"name": "purpose",
									"type": "string"
								},
								{
									"internalType": "string",
									"name": "aquisition",
									"type": "string"
								},
								{
									"internalType": "string",
									"name": "fatherId",
									"type": "string"
								},
								{
									"internalType": "string",
									"name": "motherId",
									"type": "string"
								}
							],
							"internalType": "struct TurtleDocumentation.Transfer",
							"name": "",
							"type": "tuple"
						}
					],
					"stateMutability": "view",
					"type": "function"
				},
				{
					"inputs": [
						{
							"internalType": "address",
							"name": "newOwner",
							"type": "address"
						}
					],
					"name": "transferOwnership",
					"outputs": [],
					"stateMutability": "nonpayable",
					"type": "function"
				},
				{
					"inputs": [
						{
							"internalType": "string",
							"name": "_turtleId",
							"type": "string"
						},
						{
							"internalType": "bytes32",
							"name": "_hash",
							"type": "bytes32"
						}
					],
					"name": "turtleValid",
					"outputs": [
						{
							"internalType": "bool",
							"name": "",
							"type": "bool"
						}
					],
					"stateMutability": "view",
					"type": "function"
				}
			],
			"devdoc": {
				"kind": "dev",
				"methods": {
					"owner()": {
						"details": "Returns the address of the current owner."
					},
					"renounceOwnership()": {
						"details": "Leaves the contract without owner. It will not be possible to call `onlyOwner` functions. Can only be called by the current owner. NOTE: Renouncing ownership will leave the contract without an owner, thereby disabling any functionality that is only available to the owner."
					},
					"transferOwnership(address)": {
						"details": "Transfers ownership of the contract to a new account (`newOwner`). Can only be called by the current owner."
					}
				},
				"version": 1
			},
			"evm": {
				"assembly": "    /* \"contracts\\\\TurtleDocumentation.sol\":124:13334  contract TurtleDocumentation is Ownable {... */\n  0x80\n  dup1\n  0x40\n  mstore\n  jumpi(tag_1, callvalue)\n    /* \"@openzeppelin/contracts/access/Ownable.sol\":2518:2524  _owner */\n  0x00\n    /* \"contracts\\\\TurtleDocumentation.sol\":124:13334  contract TurtleDocumentation is Ownable {... */\n  dup1\n  sload\n    /* \"@openzeppelin/contracts/utils/Context.sol\":734:744  msg.sender */\n  caller\n  not(sub(shl(0xa0, 0x01), 0x01))\n    /* \"contracts\\\\TurtleDocumentation.sol\":124:13334  contract TurtleDocumentation is Ownable {... */\n  dup3\n  and\n  dup2\n  or\n  dup4\n  sstore\n    /* \"@openzeppelin/contracts/utils/Context.sol\":734:744  msg.sender */\n  swap2\n  sub(shl(0xa0, 0x01), 0x01)\n    /* \"contracts\\\\TurtleDocumentation.sol\":124:13334  contract TurtleDocumentation is Ownable {... */\n  swap1\n  swap2\n  and\n  swap1\n    /* \"@openzeppelin/contracts/access/Ownable.sol\":2566:2606  OwnershipTransferred(oldOwner, newOwner) */\n  0x8be0079c531659141344cd1fd0a4f28419497f9722a3daafe3b4186f6b6457e0\n  swap1\n    /* \"@openzeppelin/contracts/access/Ownable.sol\":2518:2524  _owner */\n  dup1\n    /* \"@openzeppelin/contracts/access/Ownable.sol\":2566:2606  OwnershipTransferred(oldOwner, newOwner) */\n  log3\n    /* \"contracts\\\\TurtleDocumentation.sol\":124:13334  contract TurtleDocumentation is Ownable {... */\n  dataSize(sub_0)\n  swap1\n  dup2\n  dataOffset(sub_0)\n  dup3\n  codecopy\n  return\ntag_1:\n  0x00\n  dup1\n  revert\nstop\n\nsub_0: assembly {\n        /* \"contracts\\\\TurtleDocumentation.sol\":124:13334  contract TurtleDocumentation is Ownable {... */\n      mstore(0x40, 0x80)\n      jumpi(tag_26, iszero(lt(calldatasize, 0x04)))\n      0x00\n      dup1\n      revert\n    tag_26:\n      shr(0xe0, calldataload(0x00))\n      dup1\n      0x1294ffcf\n      eq\n      tag_28\n      jumpi\n      dup1\n      0x17aa1f48\n      eq\n      tag_30\n      jumpi\n      dup1\n      0x18e1a28a\n      eq\n      tag_32\n      jumpi\n      dup1\n      0x1a0642ef\n      eq\n      tag_34\n      jumpi\n      dup1\n      0x1b979af1\n      eq\n      tag_36\n      jumpi\n      dup1\n      0x229aa914\n      eq\n      tag_38\n      jumpi\n      dup1\n      0x22d2378f\n      eq\n      tag_40\n      jumpi\n      dup1\n      0x358a3d37\n      eq\n      tag_42\n      jumpi\n      dup1\n      0x482346bd\n      eq\n      tag_44\n      jumpi\n      dup1\n      0x596c442a\n      eq\n      tag_46\n      jumpi\n      dup1\n      0x673ae4c1\n      eq\n      tag_48\n      jumpi\n      dup1\n      0x6c1dcaf8\n      eq\n      tag_50\n      jumpi\n      dup1\n      0x715018a6\n      eq\n      tag_52\n      jumpi\n      dup1\n      0x7ca2d3cd\n      eq\n      tag_54\n      jumpi\n      dup1\n      0x8da5cb5b\n      eq\n      tag_56\n      jumpi\n      dup1\n      0x997480e5\n      eq\n      tag_58\n      jumpi\n      dup1\n      0xce5f0b7d\n      eq\n      tag_60\n      jumpi\n      dup1\n      0xf2fde38b\n      eq\n      tag_62\n      jumpi\n      0xf3cb197d\n      eq\n      tag_64\n      jumpi\n      0x00\n      dup1\n      revert\n    tag_64:\n      jumpi(tag_70, callvalue)\n      jumpi(tag_70, slt(add(not(0x03), calldatasize), 0x20))\n      calldataload(0x04)\n      sub(shl(0x40, 0x01), 0x01)\n      dup2\n      gt\n      tag_70\n      jumpi\n      0x04\n      tag_72\n      0x20\n      tag_73\n      dup2\n      swap5\n      calldatasize\n      swap1\n      dup6\n      add\n      tag_5\n      jump\t// in\n    tag_73:\n      dup2\n      mload(0x40)\n      swap4\n      dup3\n      dup6\n      dup1\n      swap5\n      mload\n      swap4\n      dup5\n      swap3\n      add\n      tag_8\n      jump\t// in\n    tag_72:\n      dup2\n      add\n        /* \"contracts\\\\TurtleDocumentation.sol\":11711:11718  turtles */\n      0x01\n        /* \"contracts\\\\TurtleDocumentation.sol\":124:13334  contract TurtleDocumentation is Ownable {... */\n      dup2\n      mstore\n      sub\n      add\n      swap1\n      keccak256\n        /* \"contracts\\\\TurtleDocumentation.sol\":11711:11749  turtles[_turtleId].currentDocumentHash */\n      add\n        /* \"contracts\\\\TurtleDocumentation.sol\":124:13334  contract TurtleDocumentation is Ownable {... */\n      sload\n      mload(0x40)\n      swap1\n      dup2\n      mstore\n      return\n    tag_70:\n      0x00\n      dup1\n      revert\n    tag_62:\n      jumpi(tag_70, callvalue)\n      jumpi(tag_70, slt(add(not(0x03), calldatasize), 0x20))\n      calldataload(0x04)\n      sub(shl(0xa0, 0x01), 0x01)\n      dup2\n      dup2\n      and\n      swap2\n      dup3\n      swap1\n      sub\n      tag_70\n      jumpi\n        /* \"@openzeppelin/contracts/access/Ownable.sol\":1063:1125  modifier onlyOwner() {... */\n      tag_80\n      tag_11\n      jump\t// in\n    tag_80:\n        /* \"@openzeppelin/contracts/access/Ownable.sol\":2162:2184  newOwner != address(0) */\n      dup2\n      iszero\n        /* \"contracts\\\\TurtleDocumentation.sol\":124:13334  contract TurtleDocumentation is Ownable {... */\n      tag_81\n      jumpi\n      sload(0x00)\n      dup3\n      shl(0xa0, 0xffffffffffffffffffffffff)\n      dup3\n      and\n      or\n      0x00\n      sstore\n      and\n        /* \"@openzeppelin/contracts/access/Ownable.sol\":2566:2606  OwnershipTransferred(oldOwner, newOwner) */\n      0x8be0079c531659141344cd1fd0a4f28419497f9722a3daafe3b4186f6b6457e0\n        /* \"contracts\\\\TurtleDocumentation.sol\":124:13334  contract TurtleDocumentation is Ownable {... */\n      0x00\n        /* \"@openzeppelin/contracts/access/Ownable.sol\":2566:2606  OwnershipTransferred(oldOwner, newOwner) */\n      dup1\n      log3\n        /* \"contracts\\\\TurtleDocumentation.sol\":124:13334  contract TurtleDocumentation is Ownable {... */\n      stop\n    tag_81:\n      mload(0x40)\n      shl(0xe5, 0x461bcd)\n      dup2\n      mstore\n      0x20\n      0x04\n      dup3\n      add\n      mstore\n      0x26\n      0x24\n      dup3\n      add\n      mstore\n      0x4f776e61626c653a206e6577206f776e657220697320746865207a65726f2061\n      0x44\n      dup3\n      add\n      mstore\n      shl(0xd0, 0x646472657373)\n      0x64\n      dup3\n      add\n      mstore\n      0x84\n      swap1\n      revert\n    tag_60:\n      jumpi(tag_70, callvalue)\n      jumpi(tag_70, slt(add(not(0x03), calldatasize), 0x60))\n      sub(shl(0x40, 0x01), 0x01)\n      calldataload(0x04)\n      dup2\n      dup2\n      gt\n      tag_70\n      jumpi\n      tag_89\n      swap1\n      calldatasize\n      swap1\n      0x04\n      add\n      tag_5\n      jump\t// in\n    tag_89:\n      0x24\n      swap1\n      dup2\n      calldataload\n      dup4\n      dup2\n      gt\n      tag_70\n      jumpi\n      tag_92\n      swap1\n      calldatasize\n      swap1\n      0x04\n      add\n      tag_5\n      jump\t// in\n    tag_92:\n      swap3\n      calldataload(0x44)\n      swap1\n      dup2\n      gt\n      tag_70\n      jumpi\n      tag_95\n      swap1\n      calldatasize\n      swap1\n      0x04\n      add\n      tag_5\n      jump\t// in\n    tag_95:\n      swap2\n      mload(0x40)\n      dup3\n      mload\n      swap2\n      0x20\n      swap2\n        /* \"contracts\\\\TurtleDocumentation.sol\":9280:9339  require(turtles[_turtleId].exists, \"Turtle does not exist\") */\n      tag_96\n        /* \"contracts\\\\TurtleDocumentation.sol\":124:13334  contract TurtleDocumentation is Ownable {... */\n      0xff\n        /* \"contracts\\\\TurtleDocumentation.sol\":9288:9313  turtles[_turtleId].exists */\n      0x09\n        /* \"contracts\\\\TurtleDocumentation.sol\":124:13334  contract TurtleDocumentation is Ownable {... */\n      dup6\n      dup9\n      add\n      swap7\n      tag_97\n      dup2\n      dup7\n      dup11\n      tag_8\n      jump\t// in\n    tag_97:\n      dup5\n      add\n        /* \"contracts\\\\TurtleDocumentation.sol\":9288:9295  turtles */\n      swap4\n      dup7\n      dup2\n      0x01\n        /* \"contracts\\\\TurtleDocumentation.sol\":124:13334  contract TurtleDocumentation is Ownable {... */\n      swap7\n      dup8\n      dup2\n      mstore\n      sub\n      add\n      swap1\n      keccak256\n        /* \"contracts\\\\TurtleDocumentation.sol\":9288:9313  turtles[_turtleId].exists */\n      add\n        /* \"contracts\\\\TurtleDocumentation.sol\":124:13334  contract TurtleDocumentation is Ownable {... */\n      sload\n      and\n        /* \"contracts\\\\TurtleDocumentation.sol\":9280:9339  require(turtles[_turtleId].exists, \"Turtle does not exist\") */\n      tag_22\n      jump\t// in\n    tag_96:\n        /* \"contracts\\\\TurtleDocumentation.sol\":124:13334  contract TurtleDocumentation is Ownable {... */\n      mload(0x40)\n      swap4\n      dup8\n      mload\n      dup5\n      dup10\n      add\n      swap1\n      tag_98\n      dup2\n      dup9\n      dup5\n      tag_8\n      jump\t// in\n    tag_98:\n      dup7\n      add\n        /* \"contracts\\\\TurtleDocumentation.sol\":9358:9374  ownerToTurtleIds */\n      swap6\n      dup6\n      dup2\n      0x02\n        /* \"contracts\\\\TurtleDocumentation.sol\":124:13334  contract TurtleDocumentation is Ownable {... */\n      swap9\n      dup10\n      dup2\n      mstore\n      sub\n      add\n      swap1\n      keccak256\n      sload\n        /* \"contracts\\\\TurtleDocumentation.sol\":9358:9396  ownerToTurtleIds[_oldOwner].length > 0 */\n      iszero\n        /* \"contracts\\\\TurtleDocumentation.sol\":124:13334  contract TurtleDocumentation is Ownable {... */\n      tag_99\n      jumpi\n      0x00\n        /* \"contracts\\\\TurtleDocumentation.sol\":9575:9588  uint256 i = 0 */\n      dup4\n        /* \"contracts\\\\TurtleDocumentation.sol\":124:13334  contract TurtleDocumentation is Ownable {... */\n      dup2\n        /* \"contracts\\\\TurtleDocumentation.sol\":9575:9588  uint256 i = 0 */\n      dup2\n        /* \"contracts\\\\TurtleDocumentation.sol\":9288:9295  turtles */\n    tag_101:\n      tag_102\n      jumpi\n        /* \"contracts\\\\TurtleDocumentation.sol\":9570:9839  for (uint256 i = 0; i < ownerToTurtleIds[_oldOwner].length; i++) {... */\n    tag_103:\n        /* \"contracts\\\\TurtleDocumentation.sol\":124:13334  contract TurtleDocumentation is Ownable {... */\n      pop\n      pop\n      iszero\n      tag_104\n      jumpi\n      dup5\n      tag_106\n      swap2\n      mload(0x40)\n      dup1\n      swap4\n      dup2\n      swap3\n      dup14\n      mload\n      swap3\n      dup4\n      swap2\n      tag_8\n      jump\t// in\n    tag_106:\n      dup2\n      add\n      dup9\n      dup2\n      mstore\n      sub\n      add\n      swap1\n      keccak256\n      swap1\n      0x00\n        /* \"contracts\\\\TurtleDocumentation.sol\":10081:10094  uint256 i = 0 */\n      dup4\n        /* \"contracts\\\\TurtleDocumentation.sol\":9288:9295  turtles */\n    tag_107:\n      tag_108\n      jumpi\n        /* \"contracts\\\\TurtleDocumentation.sol\":10076:10389  for (uint256 i = 0; i < oldOwnerTurtles.length; i++) {... */\n    tag_109:\n        /* \"contracts\\\\TurtleDocumentation.sol\":124:13334  contract TurtleDocumentation is Ownable {... */\n      dup10\n      dup10\n        /* \"contracts\\\\TurtleDocumentation.sol\":10551:10602  TurtleOwnerChanged(_turtleId, _oldOwner, _newOwner) */\n      tag_110\n      tag_111\n      tag_112\n        /* \"contracts\\\\TurtleDocumentation.sol\":124:13334  contract TurtleDocumentation is Ownable {... */\n      dup13\n        /* \"contracts\\\\TurtleDocumentation.sol\":10490:10533  ownerToTurtleIds[_newOwner].push(_turtleId) */\n      tag_113\n        /* \"contracts\\\\TurtleDocumentation.sol\":124:13334  contract TurtleDocumentation is Ownable {... */\n      dup2\n      dup15\n      dup15\n      mload(0x40)\n      dup1\n      swap3\n      dup3\n      tag_114\n      dup13\n      dup5\n      dup2\n      mload\n      swap4\n      dup5\n      swap3\n      add\n      tag_8\n      jump\t// in\n    tag_114:\n      dup3\n      add\n      swap1\n      dup2\n      mstore\n      sub\n      add\n      swap1\n      keccak256\n        /* \"contracts\\\\TurtleDocumentation.sol\":10490:10533  ownerToTurtleIds[_newOwner].push(_turtleId) */\n      tag_18\n      jump\t// in\n    tag_113:\n        /* \"contracts\\\\TurtleDocumentation.sol\":10551:10602  TurtleOwnerChanged(_turtleId, _oldOwner, _newOwner) */\n      tag_19\n      jump\t// in\n    tag_112:\n      swap4\n      tag_19\n      jump\t// in\n    tag_111:\n      swap2\n      tag_19\n      jump\t// in\n    tag_110:\n      swap2\n      0x80d739977bb0030fd7e876dc1ca9a667adfc1b71fea4820c4266de2ee6d6c657\n        /* \"contracts\\\\TurtleDocumentation.sol\":124:13334  contract TurtleDocumentation is Ownable {... */\n      0x00\n        /* \"contracts\\\\TurtleDocumentation.sol\":10551:10602  TurtleOwnerChanged(_turtleId, _oldOwner, _newOwner) */\n      dup1\n      log4\n        /* \"contracts\\\\TurtleDocumentation.sol\":124:13334  contract TurtleDocumentation is Ownable {... */\n      stop\n        /* \"contracts\\\\TurtleDocumentation.sol\":10124:10127  i++ */\n    tag_108:\n        /* \"contracts\\\\TurtleDocumentation.sol\":124:13334  contract TurtleDocumentation is Ownable {... */\n      dup3\n      sload\n        /* \"contracts\\\\TurtleDocumentation.sol\":10096:10122  i < oldOwnerTurtles.length */\n      dup1\n      dup3\n      lt\n      iszero\n      tag_115\n      jumpi\n        /* \"contracts\\\\TurtleDocumentation.sol\":10175:10193  oldOwnerTurtles[i] */\n      swap1\n      dup4\n      swap3\n      swap2\n      tag_117\n      dup3\n      dup8\n      swap7\n      tag_13\n      jump\t// in\n    tag_117:\n        /* \"contracts\\\\TurtleDocumentation.sol\":124:13334  contract TurtleDocumentation is Ownable {... */\n      pop\n      mload(0x40)\n        /* \"contracts\\\\TurtleDocumentation.sol\":10158:10194  abi.encodePacked(oldOwnerTurtles[i]) */\n      tag_118\n      dup2\n        /* \"contracts\\\\TurtleDocumentation.sol\":124:13334  contract TurtleDocumentation is Ownable {... */\n      tag_119\n        /* \"contracts\\\\TurtleDocumentation.sol\":10158:10194  abi.encodePacked(oldOwnerTurtles[i]) */\n      dup13\n      dup3\n      add\n        /* \"contracts\\\\TurtleDocumentation.sol\":124:13334  contract TurtleDocumentation is Ownable {... */\n      dup1\n      swap6\n      tag_24\n      jump\t// in\n    tag_119:\n        /* \"contracts\\\\TurtleDocumentation.sol\":10158:10194  abi.encodePacked(oldOwnerTurtles[i]) */\n      sub\n        /* \"contracts\\\\TurtleDocumentation.sol\":124:13334  contract TurtleDocumentation is Ownable {... */\n      not(0x1f)\n        /* \"contracts\\\\TurtleDocumentation.sol\":10158:10194  abi.encodePacked(oldOwnerTurtles[i]) */\n      dup2\n      add\n      dup4\n      mstore\n      dup3\n      tag_4\n      jump\t// in\n    tag_118:\n        /* \"contracts\\\\TurtleDocumentation.sol\":124:13334  contract TurtleDocumentation is Ownable {... */\n      mload\n        /* \"contracts\\\\TurtleDocumentation.sol\":10148:10195  keccak256(abi.encodePacked(oldOwnerTurtles[i])) */\n      swap1\n      keccak256\n        /* \"contracts\\\\TurtleDocumentation.sol\":124:13334  contract TurtleDocumentation is Ownable {... */\n      dup11\n      mload(0x40)\n        /* \"contracts\\\\TurtleDocumentation.sol\":10209:10236  abi.encodePacked(_turtleId) */\n      tag_120\n      dup12\n      dup3\n      dup2\n      dup2\n      add\n        /* \"contracts\\\\TurtleDocumentation.sol\":124:13334  contract TurtleDocumentation is Ownable {... */\n      swap5\n      mload\n      tag_121\n      dup2\n      dup8\n      dup13\n      tag_8\n      jump\t// in\n    tag_121:\n      dup2\n      add\n        /* \"contracts\\\\TurtleDocumentation.sol\":10209:10236  abi.encodePacked(_turtleId) */\n      sub\n      dup1\n      dup5\n      mstore\n      add\n      dup3\n      tag_4\n      jump\t// in\n    tag_120:\n        /* \"contracts\\\\TurtleDocumentation.sol\":124:13334  contract TurtleDocumentation is Ownable {... */\n      mload\n        /* \"contracts\\\\TurtleDocumentation.sol\":10199:10237  keccak256(abi.encodePacked(_turtleId)) */\n      swap1\n      keccak256\n        /* \"contracts\\\\TurtleDocumentation.sol\":10148:10237  keccak256(abi.encodePacked(oldOwnerTurtles[i])) == keccak256(abi.encodePacked(_turtleId)) */\n      eq\n        /* \"contracts\\\\TurtleDocumentation.sol\":10144:10378  if (keccak256(abi.encodePacked(oldOwnerTurtles[i])) == keccak256(abi.encodePacked(_turtleId))) {... */\n      tag_122\n      jumpi\n        /* \"contracts\\\\TurtleDocumentation.sol\":10124:10127  i++ */\n    tag_123:\n      pop\n      tag_124\n      swap1\n      tag_23\n      jump\t// in\n    tag_124:\n        /* \"contracts\\\\TurtleDocumentation.sol\":10081:10094  uint256 i = 0 */\n      swap1\n      swap2\n      swap3\n      jump(tag_107)\n        /* \"contracts\\\\TurtleDocumentation.sol\":10144:10378  if (keccak256(abi.encodePacked(oldOwnerTurtles[i])) == keccak256(abi.encodePacked(_turtleId))) {... */\n    tag_122:\n        /* \"contracts\\\\TurtleDocumentation.sol\":124:13334  contract TurtleDocumentation is Ownable {... */\n      swap3\n      swap4\n      pop\n      swap1\n      swap2\n      not(0x00)\n      swap1\n      dup2\n      dup2\n      add\n      swap1\n      dup2\n      gt\n      tag_125\n      jumpi\n        /* \"contracts\\\\TurtleDocumentation.sol\":10279:10322  oldOwnerTurtles[oldOwnerTurtles.length - 1] */\n      tag_127\n      swap1\n      dup6\n      tag_13\n      jump\t// in\n    tag_127:\n        /* \"contracts\\\\TurtleDocumentation.sol\":10258:10276  oldOwnerTurtles[i] */\n      pop\n      tag_128\n      dup4\n      dup7\n      tag_13\n      jump\t// in\n    tag_128:\n        /* \"contracts\\\\TurtleDocumentation.sol\":124:13334  contract TurtleDocumentation is Ownable {... */\n      tag_129\n      jumpi\n      swap1\n      tag_131\n      swap2\n      tag_25\n      jump\t// in\n    tag_131:\n      dup4\n      sload\n      dup1\n      iszero\n      tag_132\n      jumpi\n      add\n      tag_134\n      dup2\n      dup6\n      tag_13\n      jump\t// in\n    tag_134:\n      tag_135\n      jumpi\n      swap2\n        /* \"contracts\\\\TurtleDocumentation.sol\":10124:10127  i++ */\n      tag_124\n        /* \"contracts\\\\TurtleDocumentation.sol\":124:13334  contract TurtleDocumentation is Ownable {... */\n      swap2\n      dup4\n      tag_137\n      dup9\n      swap8\n      swap7\n      swap6\n      sload\n      tag_14\n      jump\t// in\n    tag_137:\n      swap1\n      dup2\n      tag_138\n      jumpi\n        /* \"contracts\\\\TurtleDocumentation.sol\":10144:10378  if (keccak256(abi.encodePacked(oldOwnerTurtles[i])) == keccak256(abi.encodePacked(_turtleId))) {... */\n    tag_139:\n        /* \"contracts\\\\TurtleDocumentation.sol\":124:13334  contract TurtleDocumentation is Ownable {... */\n      pop\n      pop\n      dup5\n      sstore\n        /* \"contracts\\\\TurtleDocumentation.sol\":10144:10378  if (keccak256(abi.encodePacked(oldOwnerTurtles[i])) == keccak256(abi.encodePacked(_turtleId))) {... */\n      swap1\n      jump(tag_123)\n        /* \"contracts\\\\TurtleDocumentation.sol\":124:13334  contract TurtleDocumentation is Ownable {... */\n    tag_138:\n      0x00\n      swap2\n      0x1f\n      dup13\n      dup2\n      dup4\n      gt\n      0x01\n      eq\n      tag_140\n      jumpi\n      pop\n      pop\n      pop\n      sstore\n    tag_142:\n      dup14\n      dup1\n      jump(tag_139)\n    tag_140:\n      dup4\n      swap2\n      tag_143\n      swap2\n      dup7\n      swap5\n      swap6\n      dup6\n      mstore\n      dup5\n      keccak256\n      swap5\n      add\n      0x05\n      shr\n      dup5\n      add\n      dup12\n      dup6\n      add\n      tag_15\n      jump\t// in\n    tag_143:\n      sstore\n      sstore\n      jump(tag_142)\n    tag_135:\n      dup7\n      mstore(0x00, shl(0xe0, 0x4e487b71))\n      mstore(0x04, 0x00)\n      0x00\n      revert\n    tag_132:\n      dup7\n      mstore(0x00, shl(0xe0, 0x4e487b71))\n      mstore(0x04, 0x31)\n      0x00\n      revert\n    tag_129:\n      dup8\n      mstore(0x00, shl(0xe0, 0x4e487b71))\n      mstore(0x04, 0x00)\n      0x00\n      revert\n    tag_125:\n      dup7\n      mstore(0x00, shl(0xe0, 0x4e487b71))\n      mstore(0x04, 0x11)\n      0x00\n      revert\n        /* \"contracts\\\\TurtleDocumentation.sol\":10096:10122  i < oldOwnerTurtles.length */\n    tag_115:\n      pop\n      jump(tag_109)\n        /* \"contracts\\\\TurtleDocumentation.sol\":124:13334  contract TurtleDocumentation is Ownable {... */\n    tag_104:\n      mload(0x40)\n      shl(0xe5, 0x461bcd)\n      dup2\n      mstore\n      0x04\n      dup2\n      add\n      dup7\n      swap1\n      mstore\n      0x22\n      dup2\n      dup7\n      add\n      mstore\n      0x4f6c64206f776e657220646f6573206e6f74206f776e20746869732074757274\n      0x44\n      dup3\n      add\n      mstore\n      shl(0xf0, 0x6c65)\n      0x64\n      dup3\n      add\n      mstore\n      0x84\n      swap1\n      revert\n        /* \"contracts\\\\TurtleDocumentation.sol\":9630:9633  i++ */\n    tag_102:\n        /* \"contracts\\\\TurtleDocumentation.sol\":124:13334  contract TurtleDocumentation is Ownable {... */\n      dup8\n      dup13\n      dup11\n      mload(0x40)\n      dup4\n      dup2\n      dup5\n      mload\n      tag_144\n      dup2\n      dup4\n      dup14\n      tag_8\n      jump\t// in\n    tag_144:\n      dup2\n      add\n      dup5\n      dup2\n      mstore\n      sub\n      add\n      swap1\n      keccak256\n      sload\n        /* \"contracts\\\\TurtleDocumentation.sol\":9590:9628  i < ownerToTurtleIds[_oldOwner].length */\n      dup5\n      lt\n      iszero\n      tag_145\n      jumpi\n        /* \"contracts\\\\TurtleDocumentation.sol\":9681:9711  ownerToTurtleIds[_oldOwner][i] */\n      tag_147\n        /* \"contracts\\\\TurtleDocumentation.sol\":124:13334  contract TurtleDocumentation is Ownable {... */\n      swap3\n      dup5\n      swap3\n      mload(0x40)\n      swap3\n      dup4\n      swap2\n      mload\n      tag_148\n      dup2\n      dup5\n      dup14\n      tag_8\n      jump\t// in\n    tag_148:\n      dup3\n      add\n      swap1\n      dup2\n      mstore\n      sub\n      add\n      swap1\n      keccak256\n        /* \"contracts\\\\TurtleDocumentation.sol\":9681:9711  ownerToTurtleIds[_oldOwner][i] */\n      tag_13\n      jump\t// in\n    tag_147:\n        /* \"contracts\\\\TurtleDocumentation.sol\":124:13334  contract TurtleDocumentation is Ownable {... */\n      pop\n      mload(0x40)\n        /* \"contracts\\\\TurtleDocumentation.sol\":9664:9712  abi.encodePacked(ownerToTurtleIds[_oldOwner][i]) */\n      tag_149\n      dup2\n        /* \"contracts\\\\TurtleDocumentation.sol\":124:13334  contract TurtleDocumentation is Ownable {... */\n      tag_119\n        /* \"contracts\\\\TurtleDocumentation.sol\":9664:9712  abi.encodePacked(ownerToTurtleIds[_oldOwner][i]) */\n      dup13\n      dup3\n      add\n        /* \"contracts\\\\TurtleDocumentation.sol\":124:13334  contract TurtleDocumentation is Ownable {... */\n      dup1\n      swap6\n      tag_24\n      jump\t// in\n        /* \"contracts\\\\TurtleDocumentation.sol\":9664:9712  abi.encodePacked(ownerToTurtleIds[_oldOwner][i]) */\n    tag_149:\n        /* \"contracts\\\\TurtleDocumentation.sol\":124:13334  contract TurtleDocumentation is Ownable {... */\n      mload\n        /* \"contracts\\\\TurtleDocumentation.sol\":9654:9713  keccak256(abi.encodePacked(ownerToTurtleIds[_oldOwner][i])) */\n      swap1\n      keccak256\n        /* \"contracts\\\\TurtleDocumentation.sol\":124:13334  contract TurtleDocumentation is Ownable {... */\n      dup6\n      dup12\n        /* \"contracts\\\\TurtleDocumentation.sol\":9727:9754  abi.encodePacked(_turtleId) */\n      tag_151\n        /* \"contracts\\\\TurtleDocumentation.sol\":124:13334  contract TurtleDocumentation is Ownable {... */\n      dup12\n      mload(0x40)\n        /* \"contracts\\\\TurtleDocumentation.sol\":9727:9754  abi.encodePacked(_turtleId) */\n      dup1\n      swap4\n        /* \"contracts\\\\TurtleDocumentation.sol\":124:13334  contract TurtleDocumentation is Ownable {... */\n      tag_121\n        /* \"contracts\\\\TurtleDocumentation.sol\":9727:9754  abi.encodePacked(_turtleId) */\n      dup4\n      dup4\n      add\n        /* \"contracts\\\\TurtleDocumentation.sol\":124:13334  contract TurtleDocumentation is Ownable {... */\n      swap7\n      dup8\n      swap3\n      mload\n      swap3\n      dup4\n      swap2\n      tag_8\n      jump\t// in\n        /* \"contracts\\\\TurtleDocumentation.sol\":9727:9754  abi.encodePacked(_turtleId) */\n    tag_151:\n        /* \"contracts\\\\TurtleDocumentation.sol\":124:13334  contract TurtleDocumentation is Ownable {... */\n      mload\n        /* \"contracts\\\\TurtleDocumentation.sol\":9717:9755  keccak256(abi.encodePacked(_turtleId)) */\n      swap1\n      keccak256\n        /* \"contracts\\\\TurtleDocumentation.sol\":9654:9755  keccak256(abi.encodePacked(ownerToTurtleIds[_oldOwner][i])) == keccak256(abi.encodePacked(_turtleId)) */\n      eq\n        /* \"contracts\\\\TurtleDocumentation.sol\":9650:9828  if (keccak256(abi.encodePacked(ownerToTurtleIds[_oldOwner][i])) == keccak256(abi.encodePacked(_turtleId))) {... */\n      tag_153\n      jumpi\n        /* \"contracts\\\\TurtleDocumentation.sol\":9630:9633  i++ */\n      tag_155\n      swap1\n      tag_23\n      jump\t// in\n    tag_155:\n        /* \"contracts\\\\TurtleDocumentation.sol\":9575:9588  uint256 i = 0 */\n      dup2\n      jump(tag_101)\n        /* \"contracts\\\\TurtleDocumentation.sol\":9650:9828  if (keccak256(abi.encodePacked(ownerToTurtleIds[_oldOwner][i])) == keccak256(abi.encodePacked(_turtleId))) {... */\n    tag_153:\n        /* \"contracts\\\\TurtleDocumentation.sol\":9776:9788  found = true */\n      pop\n      swap1\n      pop\n        /* \"contracts\\\\TurtleDocumentation.sol\":9807:9812  break */\n      dup4\n      dup12\n      jump(tag_103)\n        /* \"contracts\\\\TurtleDocumentation.sol\":9590:9628  i < ownerToTurtleIds[_oldOwner].length */\n    tag_145:\n      pop\n      pop\n      pop\n      jump(tag_103)\n        /* \"contracts\\\\TurtleDocumentation.sol\":124:13334  contract TurtleDocumentation is Ownable {... */\n    tag_99:\n      mload(0x40)\n      shl(0xe5, 0x461bcd)\n      dup2\n      mstore\n      0x04\n      dup2\n      add\n      dup7\n      swap1\n      mstore\n      0x22\n      dup2\n      dup7\n      add\n      mstore\n      0x4f6c64206f776e657220646f6573206e6f74206f776e20616e7920747572746c\n      0x44\n      dup3\n      add\n      mstore\n      shl(0xf0, 0x6573)\n      0x64\n      dup3\n      add\n      mstore\n      0x84\n      swap1\n      revert\n    tag_58:\n      jumpi(tag_70, callvalue)\n      jumpi(tag_70, slt(add(not(0x03), calldatasize), 0x20))\n      calldataload(0x04)\n      sub(shl(0x40, 0x01), 0x01)\n      dup2\n      gt\n      tag_70\n      jumpi\n        /* \"contracts\\\\TurtleDocumentation.sol\":12034:12081  turtles[_turtleId].currentMultiplicationDocHash */\n      0x05\n        /* \"contracts\\\\TurtleDocumentation.sol\":124:13334  contract TurtleDocumentation is Ownable {... */\n      tag_162\n      0x20\n      tag_163\n      tag_164\n      swap5\n      calldatasize\n      swap1\n      0x04\n      add\n      tag_5\n      jump\t// in\n    tag_163:\n      mload(0x40)\n      swap1\n        /* \"contracts\\\\TurtleDocumentation.sol\":11939:11998  require(turtles[_turtleId].exists, \"Turtle does not exist\") */\n      tag_165\n        /* \"contracts\\\\TurtleDocumentation.sol\":124:13334  contract TurtleDocumentation is Ownable {... */\n      0xff\n        /* \"contracts\\\\TurtleDocumentation.sol\":11947:11972  turtles[_turtleId].exists */\n      0x09\n        /* \"contracts\\\\TurtleDocumentation.sol\":124:13334  contract TurtleDocumentation is Ownable {... */\n      dup4\n      mload\n      swap5\n      dup7\n      dup2\n      dup2\n      dup8\n      add\n      swap8\n      tag_166\n      dup2\n      dup4\n      dup12\n      tag_8\n      jump\t// in\n    tag_166:\n      dup2\n      add\n        /* \"contracts\\\\TurtleDocumentation.sol\":11947:11954  turtles */\n      0x01\n        /* \"contracts\\\\TurtleDocumentation.sol\":124:13334  contract TurtleDocumentation is Ownable {... */\n      dup2\n      mstore\n      sub\n      add\n      swap1\n      keccak256\n        /* \"contracts\\\\TurtleDocumentation.sol\":11947:11972  turtles[_turtleId].exists */\n      add\n        /* \"contracts\\\\TurtleDocumentation.sol\":124:13334  contract TurtleDocumentation is Ownable {... */\n      sload\n      and\n        /* \"contracts\\\\TurtleDocumentation.sol\":11939:11998  require(turtles[_turtleId].exists, \"Turtle does not exist\") */\n      tag_22\n      jump\t// in\n    tag_165:\n        /* \"contracts\\\\TurtleDocumentation.sol\":124:13334  contract TurtleDocumentation is Ownable {... */\n      mload(0x40)\n      swap4\n      dup5\n      swap3\n      dup4\n      swap3\n      mload\n      swap3\n      dup4\n      swap2\n      tag_8\n      jump\t// in\n    tag_162:\n        /* \"contracts\\\\TurtleDocumentation.sol\":11947:11954  turtles */\n      0x01\n        /* \"contracts\\\\TurtleDocumentation.sol\":124:13334  contract TurtleDocumentation is Ownable {... */\n      swap1\n      dup3\n      add\n      swap1\n      dup2\n      mstore\n      sub\n      add\n      swap1\n      keccak256\n        /* \"contracts\\\\TurtleDocumentation.sol\":12034:12081  turtles[_turtleId].currentMultiplicationDocHash */\n      add\n        /* \"contracts\\\\TurtleDocumentation.sol\":124:13334  contract TurtleDocumentation is Ownable {... */\n      sload\n      0x40\n      dup1\n      mload\n        /* \"contracts\\\\TurtleDocumentation.sol\":12123:12149  documentHash != bytes32(0) */\n      dup3\n      iszero\n      iszero\n        /* \"contracts\\\\TurtleDocumentation.sol\":124:13334  contract TurtleDocumentation is Ownable {... */\n      dup2\n      mstore\n      0x20\n      dup2\n      add\n      swap3\n      swap1\n      swap3\n      mstore\n      swap1\n      swap2\n      dup3\n      swap2\n      dup3\n      add\n      swap1\n      jump\n    tag_164:\n      sub\n      swap1\n      return\n    tag_56:\n      jumpi(tag_70, callvalue)\n      jumpi(tag_70, slt(add(not(0x03), calldatasize), 0x00))\n      sload(0x00)\n      mload(0x40)\n      sub(shl(0xa0, 0x01), 0x01)\n      swap1\n      swap2\n      and\n      dup2\n      mstore\n      0x20\n      swap1\n      return\n    tag_54:\n      jumpi(tag_70, callvalue)\n      jumpi(tag_70, slt(add(not(0x03), calldatasize), 0x60))\n      sub(shl(0x40, 0x01), 0x01)\n      calldataload(0x04)\n      dup2\n      dup2\n      gt\n      tag_70\n      jumpi\n      tag_177\n      swap1\n      calldatasize\n      swap1\n      0x04\n      add\n      tag_5\n      jump\t// in\n    tag_177:\n      swap1\n      calldataload(0x24)\n      swap1\n      dup2\n      gt\n      tag_70\n      jumpi\n        /* \"contracts\\\\TurtleDocumentation.sol\":3271:3310  TurtleRegistered(_turtleId, _applicant) */\n      tag_111\n        /* \"contracts\\\\TurtleDocumentation.sol\":124:13334  contract TurtleDocumentation is Ownable {... */\n      tag_181\n        /* \"contracts\\\\TurtleDocumentation.sol\":3271:3310  TurtleRegistered(_turtleId, _applicant) */\n      tag_182\n        /* \"contracts\\\\TurtleDocumentation.sol\":124:13334  contract TurtleDocumentation is Ownable {... */\n      swap3\n      calldatasize\n      swap1\n      0x04\n      add\n      tag_5\n      jump\t// in\n    tag_181:\n        /* \"@openzeppelin/contracts/access/Ownable.sol\":1063:1125  modifier onlyOwner() {... */\n      swap3\n      tag_183\n      tag_11\n      jump\t// in\n    tag_183:\n        /* \"contracts\\\\TurtleDocumentation.sol\":3006:3031  turtles[_turtleId].exists */\n      0x09\n        /* \"contracts\\\\TurtleDocumentation.sol\":124:13334  contract TurtleDocumentation is Ownable {... */\n      tag_184\n      0x20\n      mload(0x40)\n        /* \"contracts\\\\TurtleDocumentation.sol\":2997:3061  require(!turtles[_turtleId].exists, \"Turtle already registered\") */\n      tag_185\n        /* \"contracts\\\\TurtleDocumentation.sol\":124:13334  contract TurtleDocumentation is Ownable {... */\n      0xff\n      dup6\n      dup8\n      mload\n      swap4\n      dup6\n      dup2\n      dup2\n      dup12\n      add\n      swap7\n      tag_186\n      dup2\n      dup4\n      dup11\n      tag_8\n      jump\t// in\n    tag_186:\n      dup2\n      add\n      0x01\n      dup2\n      mstore\n      sub\n      add\n      swap1\n      keccak256\n        /* \"contracts\\\\TurtleDocumentation.sol\":3006:3031  turtles[_turtleId].exists */\n      add\n        /* \"contracts\\\\TurtleDocumentation.sol\":124:13334  contract TurtleDocumentation is Ownable {... */\n      sload\n      and\n        /* \"contracts\\\\TurtleDocumentation.sol\":3005:3031  !turtles[_turtleId].exists */\n      iszero\n        /* \"contracts\\\\TurtleDocumentation.sol\":2997:3061  require(!turtles[_turtleId].exists, \"Turtle already registered\") */\n      tag_12\n      jump\t// in\n    tag_185:\n        /* \"contracts\\\\TurtleDocumentation.sol\":124:13334  contract TurtleDocumentation is Ownable {... */\n      mload(0x40)\n      dup1\n      swap4\n      dup2\n      swap3\n      dup8\n      mload\n      swap3\n      dup4\n      swap2\n      tag_8\n      jump\t// in\n    tag_184:\n      dup2\n      add\n      0x01\n      dup2\n      mstore\n      sub\n      add\n      swap1\n      keccak256\n      calldataload(0x44)\n        /* \"contracts\\\\TurtleDocumentation.sol\":3130:3150  newTurtle.turtleHash */\n      0x08\n      dup3\n      add\n        /* \"contracts\\\\TurtleDocumentation.sol\":124:13334  contract TurtleDocumentation is Ownable {... */\n      sstore\n        /* \"contracts\\\\TurtleDocumentation.sol\":3175:3191  newTurtle.exists */\n      add\n        /* \"contracts\\\\TurtleDocumentation.sol\":124:13334  contract TurtleDocumentation is Ownable {... */\n      0x01\n      not(0xff)\n      dup3\n      sload\n      and\n      or\n      swap1\n      sstore\n        /* \"contracts\\\\TurtleDocumentation.sol\":3209:3253  ownerToTurtleIds[_applicant].push(_turtleId) */\n      tag_113\n        /* \"contracts\\\\TurtleDocumentation.sol\":124:13334  contract TurtleDocumentation is Ownable {... */\n      dup2\n      mload(0x40)\n      0x20\n      dup2\n      dup9\n      mload\n      tag_188\n      dup2\n      dup4\n      dup6\n      dup14\n      add\n      tag_8\n      jump\t// in\n    tag_188:\n      dup2\n      add\n        /* \"contracts\\\\TurtleDocumentation.sol\":3209:3225  ownerToTurtleIds */\n      0x02\n        /* \"contracts\\\\TurtleDocumentation.sol\":124:13334  contract TurtleDocumentation is Ownable {... */\n      dup2\n      mstore\n      sub\n      add\n      swap1\n      keccak256\n        /* \"contracts\\\\TurtleDocumentation.sol\":3209:3253  ownerToTurtleIds[_applicant].push(_turtleId) */\n      tag_18\n      jump\t// in\n        /* \"contracts\\\\TurtleDocumentation.sol\":3271:3310  TurtleRegistered(_turtleId, _applicant) */\n    tag_182:\n      swap1\n      0x7d904e478df0f515c7058df56a2295c88f46c97f269f153cb964c1574e4ad9e8\n        /* \"contracts\\\\TurtleDocumentation.sol\":124:13334  contract TurtleDocumentation is Ownable {... */\n      0x00\n        /* \"contracts\\\\TurtleDocumentation.sol\":3271:3310  TurtleRegistered(_turtleId, _applicant) */\n      dup1\n      log3\n        /* \"contracts\\\\TurtleDocumentation.sol\":124:13334  contract TurtleDocumentation is Ownable {... */\n      stop\n    tag_52:\n      jumpi(tag_70, callvalue)\n      jumpi(tag_70, slt(add(not(0x03), calldatasize), 0x00))\n        /* \"@openzeppelin/contracts/access/Ownable.sol\":1063:1125  modifier onlyOwner() {... */\n      tag_193\n      tag_11\n      jump\t// in\n    tag_193:\n        /* \"contracts\\\\TurtleDocumentation.sol\":124:13334  contract TurtleDocumentation is Ownable {... */\n      0x00\n      dup1\n      sload\n      not(sub(shl(0xa0, 0x01), 0x01))\n      dup2\n      and\n      dup3\n      sstore\n      sub(shl(0xa0, 0x01), 0x01)\n      and\n        /* \"@openzeppelin/contracts/access/Ownable.sol\":2566:2606  OwnershipTransferred(oldOwner, newOwner) */\n      0x8be0079c531659141344cd1fd0a4f28419497f9722a3daafe3b4186f6b6457e0\n        /* \"contracts\\\\TurtleDocumentation.sol\":124:13334  contract TurtleDocumentation is Ownable {... */\n      dup3\n      dup1\n        /* \"@openzeppelin/contracts/access/Ownable.sol\":2566:2606  OwnershipTransferred(oldOwner, newOwner) */\n      log3\n        /* \"contracts\\\\TurtleDocumentation.sol\":124:13334  contract TurtleDocumentation is Ownable {... */\n      stop\n    tag_50:\n      jumpi(tag_70, callvalue)\n      jumpi(tag_70, slt(add(not(0x03), calldatasize), 0x0120))\n      sub(shl(0x40, 0x01), 0x01)\n      calldataload(0x04)\n      dup2\n      dup2\n      gt\n      tag_70\n      jumpi\n      tag_200\n      swap1\n      calldatasize\n      swap1\n      0x04\n      add\n      tag_5\n      jump\t// in\n    tag_200:\n      swap1\n      calldataload(0x24)\n      dup2\n      dup2\n      gt\n      tag_70\n      jumpi\n      tag_203\n      swap1\n      calldatasize\n      swap1\n      0x04\n      add\n      tag_5\n      jump\t// in\n    tag_203:\n      swap1\n      calldataload(0x64)\n      dup2\n      dup2\n      gt\n      tag_70\n      jumpi\n      tag_206\n      swap1\n      calldatasize\n      swap1\n      0x04\n      add\n      tag_5\n      jump\t// in\n    tag_206:\n      tag_207\n      tag_10\n      jump\t// in\n    tag_207:\n      swap4\n      calldataload(0xa4)\n      dup4\n      dup2\n      gt\n      tag_70\n      jumpi\n      tag_210\n      swap1\n      calldatasize\n      swap1\n      0x04\n      add\n      tag_5\n      jump\t// in\n    tag_210:\n      swap2\n      calldataload(0xc4)\n      dup5\n      dup2\n      gt\n      tag_70\n      jumpi\n      tag_213\n      swap1\n      calldatasize\n      swap1\n      0x04\n      add\n      tag_5\n      jump\t// in\n    tag_213:\n      swap3\n      calldataload(0xe4)\n      dup6\n      dup2\n      gt\n      tag_70\n      jumpi\n      tag_216\n      swap1\n      calldatasize\n      swap1\n      0x04\n      add\n      tag_5\n      jump\t// in\n    tag_216:\n      swap7\n      calldataload(0x0104)\n      swap6\n      dup7\n      gt\n      tag_70\n      jumpi\n      0x20\n      swap8\n      tag_219\n        /* \"contracts\\\\TurtleDocumentation.sol\":8788:8837  TurtleDeath(_turtleId, _applicant, _documentHash) */\n      tag_111\n        /* \"contracts\\\\TurtleDocumentation.sol\":124:13334  contract TurtleDocumentation is Ownable {... */\n      swap7\n      tag_221\n      dup11\n      swap6\n      tag_222\n      swap6\n      tag_223\n      tag_224\n      swap10\n      dup16\n      tag_225\n        /* \"contracts\\\\TurtleDocumentation.sol\":8788:8837  TurtleDeath(_turtleId, _applicant, _documentHash) */\n      tag_226\n        /* \"contracts\\\\TurtleDocumentation.sol\":124:13334  contract TurtleDocumentation is Ownable {... */\n      swap16\n      swap2\n      dup15\n      tag_73\n      tag_228\n        /* \"contracts\\\\TurtleDocumentation.sol\":8198:8225  turtles[_turtleId].deathDoc */\n      0x02\n        /* \"contracts\\\\TurtleDocumentation.sol\":124:13334  contract TurtleDocumentation is Ownable {... */\n      swap6\n      calldatasize\n      swap1\n      0x04\n      add\n      tag_5\n      jump\t// in\n    tag_228:\n      swap15\n      dup6\n      mload(0x40)\n      dup6\n      dup2\n      dup7\n      mload\n      tag_229\n      dup2\n      dup4\n      dup6\n      dup12\n      add\n      tag_8\n      jump\t// in\n    tag_229:\n      0x01\n      dup2\n      dup4\n      add\n      mstore\n      dup2\n      add\n      sub\n      add\n      swap1\n      keccak256\n        /* \"contracts\\\\TurtleDocumentation.sol\":8198:8225  turtles[_turtleId].deathDoc */\n      add\n        /* \"contracts\\\\TurtleDocumentation.sol\":124:13334  contract TurtleDocumentation is Ownable {... */\n      mstore(0x00, calldataload(0x44))\n      dup5\n      mstore\n      keccak256(0x00, 0x40)\n      tag_17\n      jump\t// in\n    tag_225:\n      dup2\n      add\n      0x01\n      dup2\n      mstore\n      sub\n      add\n      swap1\n      keccak256\n        /* \"contracts\\\\TurtleDocumentation.sol\":8274:8301  turtles[_turtleId].deathDoc */\n      add\n        /* \"contracts\\\\TurtleDocumentation.sol\":124:13334  contract TurtleDocumentation is Ownable {... */\n      mstore(0x00, calldataload(0x44))\n      0x20\n      mstore\n      0x01\n      keccak256(0x00, 0x40)\n        /* \"contracts\\\\TurtleDocumentation.sol\":8274:8324  turtles[_turtleId].deathDoc[_documentHash].shelter */\n      add\n        /* \"contracts\\\\TurtleDocumentation.sol\":124:13334  contract TurtleDocumentation is Ownable {... */\n      tag_17\n      jump\t// in\n    tag_223:\n        /* \"contracts\\\\TurtleDocumentation.sol\":8198:8225  turtles[_turtleId].deathDoc */\n      0x02\n        /* \"contracts\\\\TurtleDocumentation.sol\":124:13334  contract TurtleDocumentation is Ownable {... */\n      tag_230\n      dup16\n      dup13\n      dup2\n      mload(0x40)\n      swap4\n      dup3\n      dup6\n      dup1\n      swap5\n      mload\n      swap4\n      dup5\n      swap3\n      add\n      tag_8\n      jump\t// in\n    tag_230:\n      dup2\n      add\n      0x01\n      dup2\n      mstore\n      sub\n      add\n      swap1\n      keccak256\n        /* \"contracts\\\\TurtleDocumentation.sol\":8346:8373  turtles[_turtleId].deathDoc */\n      add\n        /* \"contracts\\\\TurtleDocumentation.sol\":124:13334  contract TurtleDocumentation is Ownable {... */\n      mstore(0x00, calldataload(0x44))\n      dup15\n      mstore\n      0xff\n        /* \"contracts\\\\TurtleDocumentation.sol\":8198:8225  turtles[_turtleId].deathDoc */\n      0x02\n        /* \"contracts\\\\TurtleDocumentation.sol\":124:13334  contract TurtleDocumentation is Ownable {... */\n      keccak256(0x00, 0x40)\n        /* \"contracts\\\\TurtleDocumentation.sol\":8346:8394  turtles[_turtleId].deathDoc[_documentHash].count */\n      add\n        /* \"contracts\\\\TurtleDocumentation.sol\":124:13334  contract TurtleDocumentation is Ownable {... */\n      swap2\n      and\n      not(0xff)\n      dup3\n      sload\n      and\n      or\n      swap1\n      sstore\n        /* \"contracts\\\\TurtleDocumentation.sol\":8198:8225  turtles[_turtleId].deathDoc */\n      0x02\n        /* \"contracts\\\\TurtleDocumentation.sol\":124:13334  contract TurtleDocumentation is Ownable {... */\n      tag_231\n      dup15\n      dup12\n      dup2\n      mload(0x40)\n      swap4\n      dup3\n      dup6\n      dup1\n      swap5\n      mload\n      swap4\n      dup5\n      swap3\n      add\n      tag_8\n      jump\t// in\n    tag_231:\n      dup2\n      add\n      0x01\n      dup2\n      mstore\n      sub\n      add\n      swap1\n      keccak256\n        /* \"contracts\\\\TurtleDocumentation.sol\":8414:8441  turtles[_turtleId].deathDoc */\n      add\n        /* \"contracts\\\\TurtleDocumentation.sol\":124:13334  contract TurtleDocumentation is Ownable {... */\n      mstore(0x00, calldataload(0x44))\n      dup14\n      mstore\n      0x03\n      keccak256(0x00, 0x40)\n        /* \"contracts\\\\TurtleDocumentation.sol\":8414:8468  turtles[_turtleId].deathDoc[_documentHash].deathReason */\n      add\n        /* \"contracts\\\\TurtleDocumentation.sol\":124:13334  contract TurtleDocumentation is Ownable {... */\n      tag_17\n      jump\t// in\n    tag_221:\n        /* \"contracts\\\\TurtleDocumentation.sol\":8198:8225  turtles[_turtleId].deathDoc */\n      0x02\n        /* \"contracts\\\\TurtleDocumentation.sol\":124:13334  contract TurtleDocumentation is Ownable {... */\n      mload(0x40)\n      dup13\n      dup2\n      dup2\n      tag_232\n      dup13\n      dup4\n      dup2\n      mload\n      swap4\n      dup5\n      swap3\n      add\n      tag_8\n      jump\t// in\n    tag_232:\n      dup2\n      add\n      0x01\n      dup2\n      mstore\n      sub\n      add\n      swap1\n      keccak256\n        /* \"contracts\\\\TurtleDocumentation.sol\":8494:8521  turtles[_turtleId].deathDoc */\n      add\n        /* \"contracts\\\\TurtleDocumentation.sol\":124:13334  contract TurtleDocumentation is Ownable {... */\n      mstore(0x00, calldataload(0x44))\n      dup12\n      mstore\n      0x04\n      keccak256(0x00, 0x40)\n        /* \"contracts\\\\TurtleDocumentation.sol\":8494:8541  turtles[_turtleId].deathDoc[_documentHash].plan */\n      add\n        /* \"contracts\\\\TurtleDocumentation.sol\":124:13334  contract TurtleDocumentation is Ownable {... */\n      tag_17\n      jump\t// in\n    tag_219:\n        /* \"contracts\\\\TurtleDocumentation.sol\":8198:8225  turtles[_turtleId].deathDoc */\n      0x02\n        /* \"contracts\\\\TurtleDocumentation.sol\":124:13334  contract TurtleDocumentation is Ownable {... */\n      mload(0x40)\n      dup11\n      dup2\n      dup9\n      mload\n      tag_233\n      dup2\n      dup4\n      dup6\n      dup14\n      add\n      tag_8\n      jump\t// in\n    tag_233:\n      dup2\n      add\n      0x01\n      dup2\n      mstore\n      sub\n      add\n      swap1\n      keccak256\n        /* \"contracts\\\\TurtleDocumentation.sol\":8560:8587  turtles[_turtleId].deathDoc */\n      add\n        /* \"contracts\\\\TurtleDocumentation.sol\":124:13334  contract TurtleDocumentation is Ownable {... */\n      mstore(0x00, calldataload(0x44))\n      dup10\n      mstore\n        /* \"contracts\\\\TurtleDocumentation.sol\":8560:8613  turtles[_turtleId].deathDoc[_documentHash].deathImage */\n      0x05\n        /* \"contracts\\\\TurtleDocumentation.sol\":124:13334  contract TurtleDocumentation is Ownable {... */\n      keccak256(0x00, 0x40)\n        /* \"contracts\\\\TurtleDocumentation.sol\":8560:8613  turtles[_turtleId].deathDoc[_documentHash].deathImage */\n      add\n        /* \"contracts\\\\TurtleDocumentation.sol\":124:13334  contract TurtleDocumentation is Ownable {... */\n      tag_17\n      jump\t// in\n    tag_222:\n        /* \"contracts\\\\TurtleDocumentation.sol\":8198:8225  turtles[_turtleId].deathDoc */\n      0x02\n        /* \"contracts\\\\TurtleDocumentation.sol\":124:13334  contract TurtleDocumentation is Ownable {... */\n      mload(0x40)\n      dup9\n      dup2\n      dup7\n      mload\n      tag_234\n      dup2\n      dup4\n      dup6\n      dup12\n      add\n      tag_8\n      jump\t// in\n    tag_234:\n      dup2\n      add\n      0x01\n      dup2\n      mstore\n      sub\n      add\n      swap1\n      keccak256\n        /* \"contracts\\\\TurtleDocumentation.sol\":8638:8665  turtles[_turtleId].deathDoc */\n      add\n        /* \"contracts\\\\TurtleDocumentation.sol\":124:13334  contract TurtleDocumentation is Ownable {... */\n      mstore(0x00, calldataload(0x44))\n      dup8\n      mstore\n        /* \"contracts\\\\TurtleDocumentation.sol\":8638:8690  turtles[_turtleId].deathDoc[_documentHash].diagnosis */\n      0x06\n        /* \"contracts\\\\TurtleDocumentation.sol\":124:13334  contract TurtleDocumentation is Ownable {... */\n      keccak256(0x00, 0x40)\n        /* \"contracts\\\\TurtleDocumentation.sol\":8638:8690  turtles[_turtleId].deathDoc[_documentHash].diagnosis */\n      add\n        /* \"contracts\\\\TurtleDocumentation.sol\":124:13334  contract TurtleDocumentation is Ownable {... */\n      tag_17\n      jump\t// in\n    tag_224:\n      mload(0x40)\n        /* \"contracts\\\\TurtleDocumentation.sol\":8716:8754  turtles[_turtleId].currentDeathDocHash */\n      0x07\n        /* \"contracts\\\\TurtleDocumentation.sol\":124:13334  contract TurtleDocumentation is Ownable {... */\n      dup3\n      mload\n      tag_235\n      dup2\n      dup5\n      dup11\n      dup8\n      add\n      tag_8\n      jump\t// in\n    tag_235:\n      dup3\n      add\n      swap2\n      0x01\n      dup4\n      mstore\n      dup8\n      dup2\n      calldataload(0x44)\n      swap5\n      sub\n      add\n      swap1\n      keccak256\n        /* \"contracts\\\\TurtleDocumentation.sol\":8716:8754  turtles[_turtleId].currentDeathDocHash */\n      add\n        /* \"contracts\\\\TurtleDocumentation.sol\":124:13334  contract TurtleDocumentation is Ownable {... */\n      sstore\n        /* \"contracts\\\\TurtleDocumentation.sol\":8788:8837  TurtleDeath(_turtleId, _applicant, _documentHash) */\n      tag_19\n      jump\t// in\n    tag_226:\n        /* \"contracts\\\\TurtleDocumentation.sol\":124:13334  contract TurtleDocumentation is Ownable {... */\n      swap1\n      mload(0x40)\n      swap2\n      calldataload(0x44)\n        /* \"contracts\\\\TurtleDocumentation.sol\":8788:8837  TurtleDeath(_turtleId, _applicant, _documentHash) */\n      swap2\n      0xbf4ff8efb9c111a99679d7a6a4263272c5fa30a2fa39bec8f6e4ce26902fc0be\n        /* \"contracts\\\\TurtleDocumentation.sol\":124:13334  contract TurtleDocumentation is Ownable {... */\n      0x00\n        /* \"contracts\\\\TurtleDocumentation.sol\":8788:8837  TurtleDeath(_turtleId, _applicant, _documentHash) */\n      dup1\n      log4\n        /* \"contracts\\\\TurtleDocumentation.sol\":124:13334  contract TurtleDocumentation is Ownable {... */\n      calldataload(0x44)\n      dup2\n      mstore\n      return\n    tag_48:\n      jumpi(tag_70, callvalue)\n      0x20\n      tag_238\n      tag_239\n      calldatasize\n      tag_7\n      jump\t// in\n    tag_239:\n      swap3\n      swap1\n      0x60\n      0x01a0\n      mload(0x40)\n      tag_240\n      dup2\n      tag_3\n      jump\t// in\n    tag_240:\n      dup3\n      dup2\n      mstore\n      0x00\n      dup6\n      dup3\n      add\n      mstore\n      dup3\n      0x40\n      dup3\n      add\n      mstore\n      dup3\n      dup1\n      dup3\n      add\n      mstore\n      dup3\n      0x80\n      dup3\n      add\n      mstore\n      dup3\n      0xa0\n      dup3\n      add\n      mstore\n      dup3\n      0xc0\n      dup3\n      add\n      mstore\n      dup3\n      0xe0\n      dup3\n      add\n      mstore\n      dup3\n      0x0100\n      dup3\n      add\n      mstore\n      0x00\n      0x0120\n      dup3\n      add\n      mstore\n      dup3\n      0x0140\n      dup3\n      add\n      mstore\n      dup3\n      0x0160\n      dup3\n      add\n      mstore\n      dup3\n      0x0180\n      dup3\n      add\n      mstore\n      add\n      mstore\n      dup2\n      mload(0x40)\n      swap4\n      dup3\n      dup6\n      dup1\n      swap5\n      mload\n      swap4\n      dup5\n      swap3\n      add\n      tag_8\n      jump\t// in\n    tag_238:\n      dup2\n      add\n        /* \"contracts\\\\TurtleDocumentation.sol\":5690:5697  turtles */\n      0x01\n        /* \"contracts\\\\TurtleDocumentation.sol\":124:13334  contract TurtleDocumentation is Ownable {... */\n      dup2\n      mstore\n      sub\n      add\n      swap1\n      keccak256\n      swap1\n      0x00\n      mstore\n      0x20\n      mstore\n      tag_241\n      keccak256(0x00, 0x40)\n      tag_242\n      0x0d\n      mload(0x40)\n      swap3\n      tag_243\n      dup5\n      tag_3\n      jump\t// in\n    tag_243:\n      tag_244\n      dup2\n      tag_20\n      jump\t// in\n    tag_244:\n      dup5\n      mstore\n      0xff\n        /* \"contracts\\\\TurtleDocumentation.sol\":5690:5697  turtles */\n      0x01\n        /* \"contracts\\\\TurtleDocumentation.sol\":124:13334  contract TurtleDocumentation is Ownable {... */\n      dup3\n      add\n      sload\n      and\n      0x20\n      dup6\n      add\n      mstore\n      tag_245\n      0x02\n      dup3\n      add\n      tag_20\n      jump\t// in\n    tag_245:\n      0x40\n      dup6\n      add\n      mstore\n      tag_246\n      0x03\n      dup3\n      add\n      tag_20\n      jump\t// in\n    tag_246:\n      0x60\n      dup6\n      add\n      mstore\n      tag_247\n      0x04\n      dup3\n      add\n      tag_20\n      jump\t// in\n    tag_247:\n      0x80\n      dup6\n      add\n      mstore\n      tag_248\n      0x05\n      dup3\n      add\n      tag_20\n      jump\t// in\n    tag_248:\n      0xa0\n      dup6\n      add\n      mstore\n      tag_249\n      0x06\n      dup3\n      add\n      tag_20\n      jump\t// in\n    tag_249:\n      0xc0\n      dup6\n      add\n      mstore\n      tag_250\n      0x07\n      dup3\n      add\n      tag_20\n      jump\t// in\n    tag_250:\n      0xe0\n      dup6\n      add\n      mstore\n      tag_251\n      0x08\n      dup3\n      add\n      tag_20\n      jump\t// in\n    tag_251:\n      0x0100\n      dup6\n      add\n      mstore\n      0x09\n      dup2\n      add\n      sload\n      0x0120\n      dup6\n      add\n      mstore\n      tag_252\n      0x0a\n      dup3\n      add\n      tag_20\n      jump\t// in\n    tag_252:\n      0x0140\n      dup6\n      add\n      mstore\n      tag_253\n      0x0b\n      dup3\n      add\n      tag_20\n      jump\t// in\n    tag_253:\n      0x0160\n      dup6\n      add\n      mstore\n      tag_254\n      0x0c\n      dup3\n      add\n      tag_20\n      jump\t// in\n    tag_254:\n      0x0180\n      dup6\n      add\n      mstore\n      add\n      tag_20\n      jump\t// in\n    tag_242:\n      0x01a0\n      dup3\n      add\n      mstore\n      tag_164\n      dup2\n      0x01a0\n      tag_256\n      tag_257\n      tag_258\n      tag_259\n      tag_260\n      tag_261\n      tag_262\n      tag_263\n      tag_264\n      mload(0x40)\n      swap14\n      dup15\n      swap14\n      dup15\n      0x20\n      dup2\n      mstore\n      0x40\n      tag_265\n      dup4\n      mload\n      0x01c0\n      0x20\n      dup6\n      add\n      mstore\n      0x01e0\n      dup5\n      add\n      swap1\n      tag_9\n      jump\t// in\n    tag_265:\n      swap3\n      0xff\n      0x20\n      dup3\n      add\n      mload\n      and\n      dup3\n      dup5\n      add\n      mstore\n      add\n      mload\n      swap1\n      0x60\n      not(0x1f)\n      dup3\n      dup6\n      sub\n      add\n      swap2\n      add\n      mstore\n      tag_9\n      jump\t// in\n    tag_241:\n      dup14\n      0x60\n      dup14\n      add\n      mload\n      swap1\n      0x80\n      not(0x1f)\n      dup3\n      dup6\n      sub\n      add\n      swap2\n      add\n      mstore\n      tag_9\n      jump\t// in\n    tag_264:\n      0x80\n      dup12\n      add\n      mload\n      dup14\n      dup3\n      sub\n      not(0x1f)\n      add\n      0xa0\n      dup16\n      add\n      mstore\n      tag_9\n      jump\t// in\n    tag_263:\n      0xa0\n      dup11\n      add\n      mload\n      dup13\n      dup3\n      sub\n      not(0x1f)\n      add\n      0xc0\n      dup15\n      add\n      mstore\n      tag_9\n      jump\t// in\n    tag_262:\n      0xc0\n      dup10\n      add\n      mload\n      dup12\n      dup3\n      sub\n      not(0x1f)\n      add\n      0xe0\n      dup14\n      add\n      mstore\n      tag_9\n      jump\t// in\n    tag_261:\n      0xe0\n      dup9\n      add\n      mload\n      dup11\n      dup3\n      sub\n      not(0x1f)\n      add\n      0x0100\n      dup13\n      add\n      mstore\n      tag_9\n      jump\t// in\n    tag_260:\n      0x0100\n      dup8\n      add\n      mload\n      dup10\n      dup3\n      sub\n      not(0x1f)\n      add\n      0x0120\n      dup12\n      add\n      mstore\n      tag_9\n      jump\t// in\n    tag_259:\n      0x0120\n      dup7\n      add\n      mload\n      0x0140\n      dup10\n      add\n      mstore\n      0x0140\n      dup7\n      add\n      mload\n      not(0x1f)\n      dup10\n      dup4\n      sub\n      add\n      0x0160\n      dup11\n      add\n      mstore\n      tag_9\n      jump\t// in\n    tag_258:\n      0x0160\n      dup6\n      add\n      mload\n      dup8\n      dup3\n      sub\n      not(0x1f)\n      add\n      0x0180\n      dup10\n      add\n      mstore\n      tag_9\n      jump\t// in\n    tag_257:\n      0x0180\n      dup5\n      add\n      mload\n      dup7\n      dup3\n      sub\n      not(0x1f)\n      add\n      dup5\n      dup9\n      add\n      mstore\n      tag_9\n      jump\t// in\n    tag_256:\n      swap2\n      add\n      mload\n      dup4\n      dup3\n      sub\n      not(0x1f)\n      add\n      0x01c0\n      dup6\n      add\n      mstore\n      tag_9\n      jump\t// in\n    tag_46:\n      jumpi(tag_70, callvalue)\n      jumpi(tag_70, slt(add(not(0x03), calldatasize), 0xe0))\n      sub(shl(0x40, 0x01), 0x01)\n      calldataload(0x04)\n      dup2\n      dup2\n      gt\n      tag_70\n      jumpi\n      tag_272\n      swap1\n      calldatasize\n      swap1\n      0x04\n      add\n      tag_5\n      jump\t// in\n    tag_272:\n      swap1\n      calldataload(0x24)\n      dup2\n      dup2\n      gt\n      tag_70\n      jumpi\n      tag_275\n      swap1\n      calldatasize\n      swap1\n      0x04\n      add\n      tag_5\n      jump\t// in\n    tag_275:\n      swap1\n      calldataload(0x44)\n      swap2\n      calldataload(0x64)\n      dup3\n      dup2\n      gt\n      tag_70\n      jumpi\n      tag_278\n      swap1\n      calldatasize\n      swap1\n      0x04\n      add\n      tag_5\n      jump\t// in\n    tag_278:\n      swap1\n      calldataload(0x84)\n      dup4\n      dup2\n      gt\n      tag_70\n      jumpi\n      tag_281\n      swap1\n      calldatasize\n      swap1\n      0x04\n      add\n      tag_5\n      jump\t// in\n    tag_281:\n      swap5\n      calldataload(0xa4)\n      dup5\n      dup2\n      gt\n      tag_70\n      jumpi\n      tag_284\n      swap1\n      calldatasize\n      swap1\n      0x04\n      add\n      tag_5\n      jump\t// in\n    tag_284:\n      calldataload(0xc4)\n      swap5\n      dup6\n      gt\n      tag_70\n      jumpi\n      dup6\n      swap5\n      tag_287\n      swap1\n      calldatasize\n      swap1\n      0x04\n      add\n      tag_5\n      jump\t// in\n    tag_287:\n      swap1\n      mload(0x40)\n      swap1\n      dup4\n      mload\n      swap1\n      0x20\n      swap10\n      dup11\n      dup7\n      add\n      swap3\n      tag_288\n      dup2\n      dup7\n      dup7\n      tag_8\n      jump\t// in\n    tag_288:\n      dup5\n      add\n      dup5\n      dup13\n      0x01\n      swap7\n      dup4\n      dup9\n      dup1\n      swap6\n      mstore\n      sub\n      add\n      swap1\n      keccak256\n        /* \"contracts\\\\TurtleDocumentation.sol\":7003:7034  turtles[_turtleId].transferDocs */\n      add\n        /* \"contracts\\\\TurtleDocumentation.sol\":124:13334  contract TurtleDocumentation is Ownable {... */\n      dup10\n      0x00\n      mstore\n      dup12\n      mstore\n      dup7\n      keccak256(0x00, 0x40)\n      swap1\n      tag_289\n      swap2\n      tag_17\n      jump\t// in\n    tag_289:\n      dup4\n      mload(0x40)\n      dup13\n      dup2\n      dup10\n      mload\n      tag_290\n      dup2\n      dup4\n      dup11\n      tag_8\n      jump\t// in\n    tag_290:\n      dup2\n      add\n      dup5\n      dup2\n      mstore\n      sub\n      add\n      swap1\n      keccak256\n        /* \"contracts\\\\TurtleDocumentation.sol\":7088:7119  turtles[_turtleId].transferDocs */\n      add\n        /* \"contracts\\\\TurtleDocumentation.sol\":124:13334  contract TurtleDocumentation is Ownable {... */\n      dup10\n      0x00\n      mstore\n      dup12\n      mstore\n      dup8\n      keccak256(0x00, 0x40)\n        /* \"contracts\\\\TurtleDocumentation.sol\":7088:7144  turtles[_turtleId].transferDocs[_documentHash].grantorId */\n      0x02\n      add\n        /* \"contracts\\\\TurtleDocumentation.sol\":124:13334  contract TurtleDocumentation is Ownable {... */\n      swap1\n      tag_291\n      swap2\n      tag_17\n      jump\t// in\n    tag_291:\n      dup4\n      mload(0x40)\n      dup13\n      dup2\n      dup10\n      mload\n      tag_292\n      dup2\n      dup4\n      dup11\n      tag_8\n      jump\t// in\n    tag_292:\n      dup2\n      add\n      dup5\n      dup2\n      mstore\n      sub\n      add\n      swap1\n      keccak256\n        /* \"contracts\\\\TurtleDocumentation.sol\":7168:7199  turtles[_turtleId].transferDocs */\n      add\n        /* \"contracts\\\\TurtleDocumentation.sol\":124:13334  contract TurtleDocumentation is Ownable {... */\n      dup10\n      0x00\n      mstore\n      dup12\n      mstore\n      keccak256(0x00, 0x40)\n        /* \"contracts\\\\TurtleDocumentation.sol\":7168:7225  turtles[_turtleId].transferDocs[_documentHash].aquisition */\n      0x07\n      add\n        /* \"contracts\\\\TurtleDocumentation.sol\":124:13334  contract TurtleDocumentation is Ownable {... */\n      swap1\n      tag_293\n      swap2\n      tag_17\n      jump\t// in\n    tag_293:\n      dup3\n      mload(0x40)\n      dup12\n      dup2\n      dup9\n      mload\n      tag_294\n      dup2\n      dup4\n      dup10\n      tag_8\n      jump\t// in\n    tag_294:\n      dup2\n      add\n      dup5\n      dup2\n      mstore\n      sub\n      add\n      swap1\n      keccak256\n        /* \"contracts\\\\TurtleDocumentation.sol\":7250:7281  turtles[_turtleId].transferDocs */\n      add\n        /* \"contracts\\\\TurtleDocumentation.sol\":124:13334  contract TurtleDocumentation is Ownable {... */\n      dup9\n      0x00\n      mstore\n      dup11\n      mstore\n      keccak256(0x00, 0x40)\n        /* \"contracts\\\\TurtleDocumentation.sol\":7250:7305  turtles[_turtleId].transferDocs[_documentHash].fatherId */\n      0x08\n      add\n        /* \"contracts\\\\TurtleDocumentation.sol\":124:13334  contract TurtleDocumentation is Ownable {... */\n      swap1\n      tag_295\n      swap2\n      tag_17\n      jump\t// in\n    tag_295:\n      dup9\n      mload(0x40)\n      dup1\n      dup1\n      swap4\n      dup8\n      mload\n      dup1\n      swap3\n      tag_296\n      swap3\n      tag_8\n      jump\t// in\n    tag_296:\n      dup2\n      add\n      dup5\n      dup2\n      mstore\n      sub\n      add\n      swap1\n      keccak256\n        /* \"contracts\\\\TurtleDocumentation.sol\":7328:7359  turtles[_turtleId].transferDocs */\n      add\n        /* \"contracts\\\\TurtleDocumentation.sol\":124:13334  contract TurtleDocumentation is Ownable {... */\n      dup6\n      0x00\n      mstore\n      dup8\n      mstore\n      keccak256(0x00, 0x40)\n        /* \"contracts\\\\TurtleDocumentation.sol\":7328:7383  turtles[_turtleId].transferDocs[_documentHash].motherId */\n      0x09\n      add\n        /* \"contracts\\\\TurtleDocumentation.sol\":124:13334  contract TurtleDocumentation is Ownable {... */\n      swap1\n      tag_297\n      swap2\n      tag_17\n      jump\t// in\n    tag_297:\n        /* \"contracts\\\\TurtleDocumentation.sol\":7413:7480  TurtleTransferred(_turtleId, _applicant, _grantorId, _documentHash) */\n      tag_298\n      swap1\n      tag_19\n      jump\t// in\n    tag_298:\n        /* \"contracts\\\\TurtleDocumentation.sol\":124:13334  contract TurtleDocumentation is Ownable {... */\n      swap2\n      mload(0x40)\n        /* \"contracts\\\\TurtleDocumentation.sol\":7413:7480  TurtleTransferred(_turtleId, _applicant, _grantorId, _documentHash) */\n      swap2\n      dup3\n      swap2\n      tag_299\n      swap2\n      dup4\n      tag_21\n      jump\t// in\n    tag_299:\n      sub\n      0x5900e70e78483b52bbe5c26fe3eddc846f885a9fe48efe16abcda778278f4f12\n      swap2\n      log3\n        /* \"contracts\\\\TurtleDocumentation.sol\":124:13334  contract TurtleDocumentation is Ownable {... */\n      mload(0x40)\n      swap1\n      dup2\n      mstore\n      return\n    tag_44:\n      jumpi(tag_70, callvalue)\n      0x20\n      dup1\n      tag_302\n        /* \"contracts\\\\TurtleDocumentation.sol\":10949:10996  turtles[_turtleId].currentMultiplicationDocHash */\n      0x05\n        /* \"contracts\\\\TurtleDocumentation.sol\":124:13334  contract TurtleDocumentation is Ownable {... */\n      tag_303\n      calldatasize\n      tag_7\n      jump\t// in\n    tag_303:\n      swap4\n      dup5\n      swap4\n      swap2\n      mload(0x40)\n      swap1\n      dup6\n        /* \"contracts\\\\TurtleDocumentation.sol\":10820:10857  turtles[_turtleId].beforeDocumentHash */\n      0x03\n        /* \"contracts\\\\TurtleDocumentation.sol\":124:13334  contract TurtleDocumentation is Ownable {... */\n      dup3\n      mload\n      swap4\n      dup6\n      dup2\n      dup2\n      dup7\n      add\n      swap7\n      tag_304\n      dup2\n      dup4\n      dup11\n      tag_8\n      jump\t// in\n    tag_304:\n      dup2\n      add\n        /* \"contracts\\\\TurtleDocumentation.sol\":10820:10827  turtles */\n      0x01\n        /* \"contracts\\\\TurtleDocumentation.sol\":124:13334  contract TurtleDocumentation is Ownable {... */\n      dup2\n      mstore\n      sub\n      add\n      swap1\n      keccak256\n        /* \"contracts\\\\TurtleDocumentation.sol\":10820:10857  turtles[_turtleId].beforeDocumentHash */\n      add\n        /* \"contracts\\\\TurtleDocumentation.sol\":124:13334  contract TurtleDocumentation is Ownable {... */\n      sstore\n      dup6\n      0x04\n      mload(0x40)\n      dup6\n      dup2\n      dup6\n      mload\n      tag_305\n      dup2\n      dup4\n      dup11\n      tag_8\n      jump\t// in\n    tag_305:\n      dup2\n      add\n        /* \"contracts\\\\TurtleDocumentation.sol\":10820:10827  turtles */\n      0x01\n        /* \"contracts\\\\TurtleDocumentation.sol\":124:13334  contract TurtleDocumentation is Ownable {... */\n      dup2\n      mstore\n      sub\n      add\n      swap1\n      keccak256\n        /* \"contracts\\\\TurtleDocumentation.sol\":10884:10922  turtles[_turtleId].currentDocumentHash */\n      add\n        /* \"contracts\\\\TurtleDocumentation.sol\":124:13334  contract TurtleDocumentation is Ownable {... */\n      sstore\n      mload(0x40)\n      swap4\n      dup5\n      swap3\n      dup4\n      swap3\n      mload\n      swap3\n      dup4\n      swap2\n      tag_8\n      jump\t// in\n    tag_302:\n      dup2\n      add\n        /* \"contracts\\\\TurtleDocumentation.sol\":10820:10827  turtles */\n      0x01\n        /* \"contracts\\\\TurtleDocumentation.sol\":124:13334  contract TurtleDocumentation is Ownable {... */\n      dup2\n      mstore\n      sub\n      add\n      swap1\n      keccak256\n        /* \"contracts\\\\TurtleDocumentation.sol\":10949:10996  turtles[_turtleId].currentMultiplicationDocHash */\n      add\n        /* \"contracts\\\\TurtleDocumentation.sol\":124:13334  contract TurtleDocumentation is Ownable {... */\n      sstore\n      mload(0x40)\n      swap1\n      dup2\n      mstore\n      return\n    tag_42:\n      jumpi(tag_70, callvalue)\n      jumpi(tag_70, slt(add(not(0x03), calldatasize), 0x0220))\n      sub(shl(0x40, 0x01), 0x01)\n      calldataload(0x04)\n      dup2\n      dup2\n      gt\n      tag_70\n      jumpi\n      tag_312\n      swap1\n      calldatasize\n      swap1\n      0x04\n      add\n      tag_5\n      jump\t// in\n    tag_312:\n      calldataload(0x24)\n      dup3\n      dup2\n      gt\n      tag_70\n      jumpi\n      tag_315\n      swap1\n      calldatasize\n      swap1\n      0x04\n      add\n      tag_5\n      jump\t// in\n    tag_315:\n      swap2\n      calldataload(0x64)\n      0xff\n      dup2\n      and\n      dup2\n      sub\n      tag_70\n      jumpi\n      calldataload(0x84)\n      dup3\n      dup2\n      gt\n      tag_70\n      jumpi\n      tag_320\n      swap1\n      calldatasize\n      swap1\n      0x04\n      add\n      tag_5\n      jump\t// in\n    tag_320:\n      calldataload(0xa4)\n      dup4\n      dup2\n      gt\n      tag_70\n      jumpi\n      tag_323\n      swap1\n      calldatasize\n      swap1\n      0x04\n      add\n      tag_5\n      jump\t// in\n    tag_323:\n      calldataload(0xc4)\n      dup5\n      dup2\n      gt\n      tag_70\n      jumpi\n      tag_326\n      swap1\n      calldatasize\n      swap1\n      0x04\n      add\n      tag_5\n      jump\t// in\n    tag_326:\n      calldataload(0xe4)\n      dup6\n      dup2\n      gt\n      tag_70\n      jumpi\n      tag_329\n      swap1\n      calldatasize\n      swap1\n      0x04\n      add\n      tag_5\n      jump\t// in\n    tag_329:\n      calldataload(0x0104)\n      dup7\n      dup2\n      gt\n      tag_70\n      jumpi\n      tag_332\n      swap1\n      calldatasize\n      swap1\n      0x04\n      add\n      tag_5\n      jump\t// in\n    tag_332:\n      calldataload(0x0124)\n      dup8\n      dup2\n      gt\n      tag_70\n      jumpi\n      tag_335\n      swap1\n      calldatasize\n      swap1\n      0x04\n      add\n      tag_5\n      jump\t// in\n    tag_335:\n      swap1\n      calldataload(0x0144)\n      dup9\n      dup2\n      gt\n      tag_70\n      jumpi\n      tag_338\n      swap1\n      calldatasize\n      swap1\n      0x04\n      add\n      tag_5\n      jump\t// in\n    tag_338:\n      swap3\n      calldataload(0x0184)\n      dup10\n      dup2\n      gt\n      tag_70\n      jumpi\n      tag_341\n      swap1\n      calldatasize\n      swap1\n      0x04\n      add\n      tag_5\n      jump\t// in\n    tag_341:\n      swap5\n      calldataload(0x01a4)\n      dup11\n      dup2\n      gt\n      tag_70\n      jumpi\n      tag_344\n      swap1\n      calldatasize\n      swap1\n      0x04\n      add\n      tag_5\n      jump\t// in\n    tag_344:\n      swap7\n      calldataload(0x01c4)\n      dup12\n      dup2\n      gt\n      tag_70\n      jumpi\n      tag_347\n      swap1\n      calldatasize\n      swap1\n      0x04\n      add\n      tag_5\n      jump\t// in\n    tag_347:\n      swap9\n      calldataload(0x01e4)\n      swap12\n      dup13\n      gt\n      tag_70\n      jumpi\n      dup14\n      swap12\n      tag_350\n      swap1\n      calldatasize\n      swap1\n      0x04\n      add\n      tag_5\n      jump\t// in\n    tag_350:\n      swap11\n      dup14\n      mload(0x40)\n      swap1\n      dup1\n      mload\n      swap2\n      dup1\n      0x20\n      dup4\n      add\n      swap4\n      tag_351\n      dup2\n      dup4\n      dup8\n      tag_8\n      jump\t// in\n    tag_351:\n      dup2\n      add\n      0x01\n      dup2\n      mstore\n      sub\n      0x20\n      add\n      swap1\n      keccak256\n        /* \"contracts\\\\TurtleDocumentation.sol\":4043:4068  turtles[_turtleId].exists */\n      0x09\n      add\n        /* \"contracts\\\\TurtleDocumentation.sol\":124:13334  contract TurtleDocumentation is Ownable {... */\n      sload\n      0xff\n      and\n        /* \"contracts\\\\TurtleDocumentation.sol\":4042:4068  !turtles[_turtleId].exists */\n      iszero\n        /* \"contracts\\\\TurtleDocumentation.sol\":4034:4098  require(!turtles[_turtleId].exists, \"Turtle already registered\") */\n      tag_352\n      swap1\n      tag_12\n      jump\t// in\n    tag_352:\n        /* \"contracts\\\\TurtleDocumentation.sol\":124:13334  contract TurtleDocumentation is Ownable {... */\n      mload(0x40)\n      dup1\n      swap3\n      dup2\n      swap3\n      mload\n      dup1\n      swap3\n      tag_353\n      swap3\n      tag_8\n      jump\t// in\n    tag_353:\n      dup2\n      add\n      0x01\n      dup2\n      mstore\n      sub\n      0x20\n      add\n      swap1\n      keccak256\n      swap13\n      mstore(0x00, calldataload(0x44))\n      dup14\n      0x20\n      mstore\n      keccak256(0x00, 0x40)\n      swap1\n      tag_354\n      swap2\n      tag_17\n      jump\t// in\n    tag_354:\n      mstore(0x00, calldataload(0x44))\n      dup13\n      0x20\n      mstore\n      keccak256(0x00, 0x40)\n      swap1\n      0xff\n      and\n      not(0xff)\n      0x01\n        /* \"contracts\\\\TurtleDocumentation.sol\":4243:4291  newTurtle.multiplicationDoc[_documentHash].count */\n      dup4\n      add\n        /* \"contracts\\\\TurtleDocumentation.sol\":124:13334  contract TurtleDocumentation is Ownable {... */\n      sload\n      and\n      or\n      0x01\n        /* \"contracts\\\\TurtleDocumentation.sol\":4243:4291  newTurtle.multiplicationDoc[_documentHash].count */\n      dup3\n      add\n        /* \"contracts\\\\TurtleDocumentation.sol\":124:13334  contract TurtleDocumentation is Ownable {... */\n      sstore\n        /* \"contracts\\\\TurtleDocumentation.sol\":4311:4358  newTurtle.multiplicationDoc[_documentHash].area */\n      0x02\n      add\n        /* \"contracts\\\\TurtleDocumentation.sol\":124:13334  contract TurtleDocumentation is Ownable {... */\n      swap1\n      tag_355\n      swap2\n      tag_17\n      jump\t// in\n    tag_355:\n      mstore(0x00, calldataload(0x44))\n      dup11\n      0x20\n      mstore\n      keccak256(0x00, 0x40)\n      0x03\n        /* \"contracts\\\\TurtleDocumentation.sol\":4377:4427  newTurtle.multiplicationDoc[_documentHash].purpose */\n      add\n        /* \"contracts\\\\TurtleDocumentation.sol\":124:13334  contract TurtleDocumentation is Ownable {... */\n      swap1\n      tag_356\n      swap2\n      tag_17\n      jump\t// in\n    tag_356:\n      mstore(0x00, calldataload(0x44))\n      dup10\n      0x20\n      mstore\n      keccak256(0x00, 0x40)\n      0x04\n        /* \"contracts\\\\TurtleDocumentation.sol\":4449:4500  newTurtle.multiplicationDoc[_documentHash].location */\n      add\n        /* \"contracts\\\\TurtleDocumentation.sol\":124:13334  contract TurtleDocumentation is Ownable {... */\n      swap1\n      tag_357\n      swap2\n      tag_17\n      jump\t// in\n    tag_357:\n      mstore(0x00, calldataload(0x44))\n      dup9\n      0x20\n      mstore\n      keccak256(0x00, 0x40)\n        /* \"contracts\\\\TurtleDocumentation.sol\":4523:4574  newTurtle.multiplicationDoc[_documentHash].fatherId */\n      0x05\n      add\n        /* \"contracts\\\\TurtleDocumentation.sol\":124:13334  contract TurtleDocumentation is Ownable {... */\n      swap1\n      tag_358\n      swap2\n      tag_17\n      jump\t// in\n    tag_358:\n      mstore(0x00, calldataload(0x44))\n      dup8\n      0x20\n      mstore\n      keccak256(0x00, 0x40)\n        /* \"contracts\\\\TurtleDocumentation.sol\":4597:4648  newTurtle.multiplicationDoc[_documentHash].motherId */\n      0x06\n      add\n        /* \"contracts\\\\TurtleDocumentation.sol\":124:13334  contract TurtleDocumentation is Ownable {... */\n      swap1\n      tag_359\n      swap2\n      tag_17\n      jump\t// in\n    tag_359:\n      mstore(0x00, calldataload(0x44))\n      dup7\n      0x20\n      mstore\n      keccak256(0x00, 0x40)\n        /* \"contracts\\\\TurtleDocumentation.sol\":4671:4719  newTurtle.multiplicationDoc[_documentHash].birth */\n      0x07\n      add\n        /* \"contracts\\\\TurtleDocumentation.sol\":124:13334  contract TurtleDocumentation is Ownable {... */\n      swap1\n      tag_360\n      swap2\n      tag_17\n      jump\t// in\n    tag_360:\n      mstore(0x00, calldataload(0x44))\n      dup6\n      0x20\n      mstore\n      keccak256(0x00, 0x40)\n        /* \"contracts\\\\TurtleDocumentation.sol\":4739:4786  newTurtle.multiplicationDoc[_documentHash].name */\n      0x08\n      add\n        /* \"contracts\\\\TurtleDocumentation.sol\":124:13334  contract TurtleDocumentation is Ownable {... */\n      swap1\n      tag_361\n      swap2\n      tag_17\n      jump\t// in\n    tag_361:\n      mstore(0x00, calldataload(0x44))\n      dup5\n      0x20\n      mstore\n      keccak256(0x00, 0x40)\n      calldataload(0x0164)\n        /* \"contracts\\\\TurtleDocumentation.sol\":4043:4068  turtles[_turtleId].exists */\n      0x09\n        /* \"contracts\\\\TurtleDocumentation.sol\":4805:4854  newTurtle.multiplicationDoc[_documentHash].weight */\n      dup3\n      add\n        /* \"contracts\\\\TurtleDocumentation.sol\":124:13334  contract TurtleDocumentation is Ownable {... */\n      sstore\n        /* \"contracts\\\\TurtleDocumentation.sol\":4875:4924  newTurtle.multiplicationDoc[_documentHash].gender */\n      0x0a\n      add\n        /* \"contracts\\\\TurtleDocumentation.sol\":124:13334  contract TurtleDocumentation is Ownable {... */\n      swap1\n      tag_362\n      swap2\n      tag_17\n      jump\t// in\n    tag_362:\n      mstore(0x00, calldataload(0x44))\n      dup4\n      0x20\n      mstore\n      keccak256(0x00, 0x40)\n        /* \"contracts\\\\TurtleDocumentation.sol\":4945:5009  newTurtle.multiplicationDoc[_documentHash].locationSpecification */\n      0x0b\n      add\n        /* \"contracts\\\\TurtleDocumentation.sol\":124:13334  contract TurtleDocumentation is Ownable {... */\n      swap1\n      tag_363\n      swap2\n      tag_17\n      jump\t// in\n    tag_363:\n      mstore(0x00, calldataload(0x44))\n      dup3\n      0x20\n      mstore\n      keccak256(0x00, 0x40)\n        /* \"contracts\\\\TurtleDocumentation.sol\":5045:5108  newTurtle.multiplicationDoc[_documentHash].multiplicationMethod */\n      0x0c\n      add\n        /* \"contracts\\\\TurtleDocumentation.sol\":124:13334  contract TurtleDocumentation is Ownable {... */\n      swap1\n      tag_364\n      swap2\n      tag_17\n      jump\t// in\n    tag_364:\n      mstore(0x00, calldataload(0x44))\n      dup2\n      0x20\n      mstore\n      keccak256(0x00, 0x40)\n        /* \"contracts\\\\TurtleDocumentation.sol\":5143:5206  newTurtle.multiplicationDoc[_documentHash].shelterSpecification */\n      0x0d\n      add\n        /* \"contracts\\\\TurtleDocumentation.sol\":124:13334  contract TurtleDocumentation is Ownable {... */\n      swap1\n      tag_365\n      swap2\n      tag_17\n      jump\t// in\n    tag_365:\n      calldataload(0x0204)\n        /* \"contracts\\\\TurtleDocumentation.sol\":4739:4786  newTurtle.multiplicationDoc[_documentHash].name */\n      0x08\n        /* \"contracts\\\\TurtleDocumentation.sol\":5241:5261  newTurtle.turtleHash */\n      dup3\n      add\n        /* \"contracts\\\\TurtleDocumentation.sol\":124:13334  contract TurtleDocumentation is Ownable {... */\n      sstore\n        /* \"contracts\\\\TurtleDocumentation.sol\":4043:4068  turtles[_turtleId].exists */\n      0x09\n        /* \"contracts\\\\TurtleDocumentation.sol\":5286:5302  newTurtle.exists */\n      add\n        /* \"contracts\\\\TurtleDocumentation.sol\":124:13334  contract TurtleDocumentation is Ownable {... */\n      not(0xff)\n      dup2\n      sload\n      and\n      0x01\n      or\n      swap1\n      sstore\n      dup1\n      mload(0x40)\n      dup1\n      dup5\n      mload\n      dup2\n      dup2\n      0x20\n      dup9\n      add\n      swap2\n      tag_366\n      swap3\n      tag_8\n      jump\t// in\n    tag_366:\n      dup2\n      add\n        /* \"contracts\\\\TurtleDocumentation.sol\":4311:4358  newTurtle.multiplicationDoc[_documentHash].area */\n      0x02\n        /* \"contracts\\\\TurtleDocumentation.sol\":124:13334  contract TurtleDocumentation is Ownable {... */\n      dup2\n      mstore\n      sub\n      0x20\n      add\n      swap1\n      keccak256\n        /* \"contracts\\\\TurtleDocumentation.sol\":5322:5366  ownerToTurtleIds[_applicant].push(_turtleId) */\n      swap1\n      tag_367\n      swap2\n      tag_18\n      jump\t// in\n    tag_367:\n        /* \"contracts\\\\TurtleDocumentation.sol\":5384:5442  TurtleMultiplication(_turtleId, _applicant, _documentHash) */\n      tag_368\n      swap1\n      tag_19\n      jump\t// in\n    tag_368:\n      swap1\n      tag_369\n      swap1\n      tag_19\n      jump\t// in\n    tag_369:\n        /* \"contracts\\\\TurtleDocumentation.sol\":124:13334  contract TurtleDocumentation is Ownable {... */\n      swap1\n      mload(0x40)\n      swap2\n      calldataload(0x44)\n        /* \"contracts\\\\TurtleDocumentation.sol\":5384:5442  TurtleMultiplication(_turtleId, _applicant, _documentHash) */\n      swap2\n      0x406d6a39963b189ae4d4ba0b53780ecdf05dc013e196662687a246b0a2b70548\n        /* \"contracts\\\\TurtleDocumentation.sol\":124:13334  contract TurtleDocumentation is Ownable {... */\n      0x00\n        /* \"contracts\\\\TurtleDocumentation.sol\":5384:5442  TurtleMultiplication(_turtleId, _applicant, _documentHash) */\n      dup1\n      log4\n        /* \"contracts\\\\TurtleDocumentation.sol\":124:13334  contract TurtleDocumentation is Ownable {... */\n      calldataload(0x44)\n      dup2\n      mstore\n      0x20\n      swap1\n      return\n    tag_40:\n      jumpi(tag_70, callvalue)\n      jumpi(tag_70, slt(add(not(0x03), calldatasize), 0x20))\n      calldataload(0x04)\n      sub(shl(0x40, 0x01), 0x01)\n      dup2\n      gt\n      tag_70\n      jumpi\n        /* \"contracts\\\\TurtleDocumentation.sol\":12490:12534  turtles[_turtleId].currentTransferredDocHash */\n      0x06\n        /* \"contracts\\\\TurtleDocumentation.sol\":124:13334  contract TurtleDocumentation is Ownable {... */\n      tag_162\n      0x20\n      tag_163\n      tag_164\n      swap5\n      calldatasize\n      swap1\n      0x04\n      add\n      tag_5\n      jump\t// in\n    tag_38:\n      jumpi(tag_70, callvalue)\n      0x04\n      tag_302\n        /* \"contracts\\\\TurtleDocumentation.sol\":11372:11416  turtles[_turtleId].currentTransferredDocHash */\n      0x06\n        /* \"contracts\\\\TurtleDocumentation.sol\":124:13334  contract TurtleDocumentation is Ownable {... */\n      tag_384\n      calldatasize\n      tag_7\n      jump\t// in\n    tag_384:\n      swap3\n      dup4\n      swap3\n      swap2\n      mload(0x40)\n      swap1\n      dup1\n      mload\n      swap1\n      0x20\n      swap8\n      dup4\n      dup10\n      dup1\n      swap6\n      dup2\n      dup6\n      add\n      swap6\n      tag_385\n      dup2\n      dup4\n      dup10\n      tag_8\n      jump\t// in\n    tag_385:\n      dup2\n      add\n        /* \"contracts\\\\TurtleDocumentation.sol\":11258:11265  turtles */\n      0x01\n        /* \"contracts\\\\TurtleDocumentation.sol\":124:13334  contract TurtleDocumentation is Ownable {... */\n      dup2\n      mstore\n      sub\n      add\n      swap1\n      keccak256\n        /* \"contracts\\\\TurtleDocumentation.sol\":11258:11296  turtles[_turtleId].currentDocumentHash */\n      add\n        /* \"contracts\\\\TurtleDocumentation.sol\":124:13334  contract TurtleDocumentation is Ownable {... */\n      sload\n        /* \"contracts\\\\TurtleDocumentation.sol\":11218:11255  turtles[_turtleId].beforeDocumentHash */\n      0x03\n        /* \"contracts\\\\TurtleDocumentation.sol\":124:13334  contract TurtleDocumentation is Ownable {... */\n      mload(0x40)\n      dup6\n      dup2\n      dup6\n      mload\n      tag_304\n      dup2\n      dup4\n      dup11\n      tag_8\n      jump\t// in\n    tag_36:\n      jumpi(tag_70, callvalue)\n      0x20\n      dup1\n        /* \"contracts\\\\TurtleDocumentation.sol\":13285:13314  turtles[_turtleId].turtleHash */\n      0x08\n        /* \"contracts\\\\TurtleDocumentation.sol\":124:13334  contract TurtleDocumentation is Ownable {... */\n      tag_390\n      tag_391\n      calldatasize\n      tag_7\n      jump\t// in\n    tag_391:\n      swap4\n      swap1\n      mload(0x40)\n      swap1\n        /* \"contracts\\\\TurtleDocumentation.sol\":13206:13265  require(turtles[_turtleId].exists, \"Turtle does not exist\") */\n      tag_165\n        /* \"contracts\\\\TurtleDocumentation.sol\":124:13334  contract TurtleDocumentation is Ownable {... */\n      0xff\n        /* \"contracts\\\\TurtleDocumentation.sol\":13214:13239  turtles[_turtleId].exists */\n      0x09\n        /* \"contracts\\\\TurtleDocumentation.sol\":124:13334  contract TurtleDocumentation is Ownable {... */\n      dup4\n      mload\n      swap5\n      dup7\n      dup2\n      dup2\n      dup8\n      add\n      swap8\n      tag_166\n      dup2\n      dup4\n      dup12\n      tag_8\n      jump\t// in\n    tag_390:\n      dup2\n      add\n        /* \"contracts\\\\TurtleDocumentation.sol\":13214:13221  turtles */\n      0x01\n        /* \"contracts\\\\TurtleDocumentation.sol\":124:13334  contract TurtleDocumentation is Ownable {... */\n      dup2\n      mstore\n      sub\n      add\n      swap1\n      keccak256\n        /* \"contracts\\\\TurtleDocumentation.sol\":13285:13314  turtles[_turtleId].turtleHash */\n      add\n        /* \"contracts\\\\TurtleDocumentation.sol\":124:13334  contract TurtleDocumentation is Ownable {... */\n      sload\n        /* \"contracts\\\\TurtleDocumentation.sol\":13285:13323  turtles[_turtleId].turtleHash == _hash */\n      eq\n        /* \"contracts\\\\TurtleDocumentation.sol\":124:13334  contract TurtleDocumentation is Ownable {... */\n      mload(0x40)\n      swap1\n      dup2\n      mstore\n      return\n    tag_34:\n      jumpi(tag_70, callvalue)\n      0x20\n        /* \"contracts\\\\TurtleDocumentation.sol\":7716:7723  turtles */\n      0x01\n        /* \"contracts\\\\TurtleDocumentation.sol\":124:13334  contract TurtleDocumentation is Ownable {... */\n      tag_396\n      tag_397\n      calldatasize\n      tag_7\n      jump\t// in\n    tag_397:\n      swap4\n      swap1\n      0x60\n      0x0120\n      mload(0x40)\n      tag_398\n      dup2\n      tag_2\n      jump\t// in\n    tag_398:\n      dup3\n      dup2\n      mstore\n      dup3\n      dup6\n      dup3\n      add\n      mstore\n      dup3\n      0x40\n      dup3\n      add\n      mstore\n      dup3\n      dup1\n      dup3\n      add\n      mstore\n      0x00\n      0x80\n      dup3\n      add\n      mstore\n      dup3\n      0xa0\n      dup3\n      add\n      mstore\n      dup3\n      0xc0\n      dup3\n      add\n      mstore\n      dup3\n      0xe0\n      dup3\n      add\n      mstore\n      dup3\n      0x0100\n      dup3\n      add\n      mstore\n      add\n      mstore\n      dup2\n      mload(0x40)\n      swap4\n      dup3\n      dup6\n      dup1\n      swap5\n      mload\n      swap4\n      dup5\n      swap3\n      add\n      tag_8\n      jump\t// in\n    tag_396:\n      dup2\n      add\n      dup5\n      dup2\n      mstore\n      sub\n      add\n      swap1\n      keccak256\n        /* \"contracts\\\\TurtleDocumentation.sol\":7716:7747  turtles[_turtleId].transferDocs */\n      add\n        /* \"contracts\\\\TurtleDocumentation.sol\":124:13334  contract TurtleDocumentation is Ownable {... */\n      swap1\n      0x00\n      mstore\n      0x20\n      mstore\n      tag_164\n      keccak256(0x00, 0x40)\n      tag_400\n      0x09\n      mload(0x40)\n      swap3\n      tag_401\n      dup5\n      tag_2\n      jump\t// in\n    tag_401:\n      tag_402\n      dup2\n      tag_20\n      jump\t// in\n    tag_402:\n      dup5\n      mstore\n      tag_403\n        /* \"contracts\\\\TurtleDocumentation.sol\":7716:7723  turtles */\n      0x01\n        /* \"contracts\\\\TurtleDocumentation.sol\":124:13334  contract TurtleDocumentation is Ownable {... */\n      dup3\n      add\n      tag_20\n      jump\t// in\n    tag_403:\n      0x20\n      dup6\n      add\n      mstore\n      tag_404\n      0x02\n      dup3\n      add\n      tag_20\n      jump\t// in\n    tag_404:\n      0x40\n      dup6\n      add\n      mstore\n      tag_405\n      0x03\n      dup3\n      add\n      tag_20\n      jump\t// in\n    tag_405:\n      0x60\n      dup6\n      add\n      mstore\n      0xff\n      0x04\n      dup3\n      add\n      sload\n      and\n      0x80\n      dup6\n      add\n      mstore\n      tag_406\n      0x05\n      dup3\n      add\n      tag_20\n      jump\t// in\n    tag_406:\n      0xa0\n      dup6\n      add\n      mstore\n      tag_407\n      0x06\n      dup3\n      add\n      tag_20\n      jump\t// in\n    tag_407:\n      0xc0\n      dup6\n      add\n      mstore\n      tag_408\n      0x07\n      dup3\n      add\n      tag_20\n      jump\t// in\n    tag_408:\n      0xe0\n      dup6\n      add\n      mstore\n      tag_409\n      0x08\n      dup3\n      add\n      tag_20\n      jump\t// in\n    tag_409:\n      0x0100\n      dup6\n      add\n      mstore\n      add\n      tag_20\n      jump\t// in\n    tag_400:\n      0x0120\n      dup3\n      add\n      mstore\n      mload(0x40)\n      swap2\n      dup3\n      swap2\n      0x20\n      dup4\n      mstore\n      0x0120\n      tag_410\n      tag_411\n      tag_412\n      tag_413\n      tag_414\n      tag_415\n      tag_416\n      tag_417\n      dup12\n      0x0140\n      0x20\n      dup13\n      mload\n      swap3\n      add\n      mstore\n      0x0160\n      dup14\n      add\n      swap1\n      tag_9\n      jump\t// in\n    tag_417:\n      0x20\n      dup11\n      add\n      mload\n      dup13\n      dup3\n      sub\n      not(0x1f)\n      add\n      0x40\n      dup15\n      add\n      mstore\n      tag_9\n      jump\t// in\n    tag_416:\n      0x40\n      dup10\n      add\n      mload\n      dup12\n      dup3\n      sub\n      not(0x1f)\n      add\n      0x60\n      dup14\n      add\n      mstore\n      tag_9\n      jump\t// in\n    tag_415:\n      0x60\n      dup9\n      add\n      mload\n      dup11\n      dup3\n      sub\n      not(0x1f)\n      add\n      0x80\n      dup13\n      add\n      mstore\n      tag_9\n      jump\t// in\n    tag_414:\n      0xff\n      0x80\n      dup9\n      add\n      mload\n      and\n      0xa0\n      dup11\n      add\n      mstore\n      0xa0\n      dup8\n      add\n      mload\n      not(0x1f)\n      dup11\n      dup4\n      sub\n      add\n      0xc0\n      dup12\n      add\n      mstore\n      tag_9\n      jump\t// in\n    tag_413:\n      0xc0\n      dup7\n      add\n      mload\n      dup9\n      dup3\n      sub\n      not(0x1f)\n      add\n      0xe0\n      dup11\n      add\n      mstore\n      tag_9\n      jump\t// in\n    tag_412:\n      0xe0\n      dup6\n      add\n      mload\n      dup8\n      dup3\n      sub\n      not(0x1f)\n      add\n      0x0100\n      dup10\n      add\n      mstore\n      tag_9\n      jump\t// in\n    tag_411:\n      0x0100\n      dup5\n      add\n      mload\n      dup7\n      dup3\n      sub\n      not(0x1f)\n      add\n      dup5\n      dup9\n      add\n      mstore\n      tag_9\n      jump\t// in\n    tag_410:\n      swap2\n      add\n      mload\n      dup4\n      dup3\n      sub\n      not(0x1f)\n      add\n      0x0140\n      dup6\n      add\n      mstore\n      tag_9\n      jump\t// in\n    tag_32:\n      jumpi(tag_70, callvalue)\n      jumpi(tag_70, slt(add(not(0x03), calldatasize), 0xe0))\n      sub(shl(0x40, 0x01), 0x01)\n      calldataload(0x04)\n      dup2\n      dup2\n      gt\n      tag_70\n      jumpi\n      tag_424\n      swap1\n      calldatasize\n      swap1\n      0x04\n      add\n      tag_5\n      jump\t// in\n    tag_424:\n      swap1\n      calldataload(0x24)\n      dup2\n      dup2\n      gt\n      tag_70\n      jumpi\n      tag_427\n      swap1\n      calldatasize\n      swap1\n      0x04\n      add\n      tag_5\n      jump\t// in\n    tag_427:\n      swap1\n      calldataload(0x44)\n      swap2\n      calldataload(0x64)\n      dup3\n      dup2\n      gt\n      tag_70\n      jumpi\n      tag_430\n      swap1\n      calldatasize\n      swap1\n      0x04\n      add\n      tag_5\n      jump\t// in\n    tag_430:\n      swap1\n      tag_431\n      tag_10\n      jump\t// in\n    tag_431:\n      swap5\n      calldataload(0xa4)\n      dup5\n      dup2\n      gt\n      tag_70\n      jumpi\n      tag_434\n      swap1\n      calldatasize\n      swap1\n      0x04\n      add\n      tag_5\n      jump\t// in\n    tag_434:\n      calldataload(0xc4)\n      swap5\n      dup6\n      gt\n      tag_70\n      jumpi\n      dup6\n      swap5\n      tag_437\n      swap1\n      calldatasize\n      swap1\n      0x04\n      add\n      tag_5\n      jump\t// in\n    tag_437:\n      swap1\n      mload(0x40)\n      swap1\n      dup4\n      mload\n      swap1\n      0x20\n      swap10\n      dup11\n      dup7\n      add\n      swap3\n      tag_438\n      dup2\n      dup7\n      dup7\n      tag_8\n      jump\t// in\n    tag_438:\n      dup5\n      add\n      dup5\n      dup13\n      0x01\n      swap7\n      dup4\n      dup9\n      dup1\n      swap6\n      mstore\n      sub\n      add\n      swap1\n      keccak256\n        /* \"contracts\\\\TurtleDocumentation.sol\":6112:6143  turtles[_turtleId].transferDocs */\n      add\n        /* \"contracts\\\\TurtleDocumentation.sol\":124:13334  contract TurtleDocumentation is Ownable {... */\n      dup10\n      0x00\n      mstore\n      dup12\n      mstore\n      dup7\n      dup5\n      keccak256(0x00, 0x40)\n        /* \"contracts\\\\TurtleDocumentation.sol\":6112:6174  turtles[_turtleId].transferDocs[_documentHash].assignApplicant */\n      add\n        /* \"contracts\\\\TurtleDocumentation.sol\":124:13334  contract TurtleDocumentation is Ownable {... */\n      swap1\n      tag_439\n      swap2\n      tag_17\n      jump\t// in\n    tag_439:\n      dup4\n      mload(0x40)\n      dup13\n      dup2\n      dup10\n      mload\n      tag_440\n      dup2\n      dup4\n      dup11\n      tag_8\n      jump\t// in\n    tag_440:\n      dup2\n      add\n      dup5\n      dup2\n      mstore\n      sub\n      add\n      swap1\n      keccak256\n        /* \"contracts\\\\TurtleDocumentation.sol\":6198:6229  turtles[_turtleId].transferDocs */\n      add\n        /* \"contracts\\\\TurtleDocumentation.sol\":124:13334  contract TurtleDocumentation is Ownable {... */\n      dup10\n      0x00\n      mstore\n      dup12\n      mstore\n      dup8\n      keccak256(0x00, 0x40)\n      0x03\n        /* \"contracts\\\\TurtleDocumentation.sol\":6198:6255  turtles[_turtleId].transferDocs[_documentHash].assigneeId */\n      add\n        /* \"contracts\\\\TurtleDocumentation.sol\":124:13334  contract TurtleDocumentation is Ownable {... */\n      swap1\n      tag_441\n      swap2\n      tag_17\n      jump\t// in\n    tag_441:\n      dup4\n      mload(0x40)\n      dup13\n      dup2\n      dup10\n      mload\n      tag_442\n      dup2\n      dup4\n      dup11\n      tag_8\n      jump\t// in\n    tag_442:\n      dup2\n      add\n      dup5\n      dup2\n      mstore\n      sub\n      add\n      swap1\n      keccak256\n        /* \"contracts\\\\TurtleDocumentation.sol\":6280:6311  turtles[_turtleId].transferDocs */\n      add\n        /* \"contracts\\\\TurtleDocumentation.sol\":124:13334  contract TurtleDocumentation is Ownable {... */\n      dup10\n      0x00\n      mstore\n      dup12\n      mstore\n      keccak256(0x00, 0x40)\n      0x04\n        /* \"contracts\\\\TurtleDocumentation.sol\":6280:6332  turtles[_turtleId].transferDocs[_documentHash].count */\n      add\n        /* \"contracts\\\\TurtleDocumentation.sol\":124:13334  contract TurtleDocumentation is Ownable {... */\n      swap1\n      0xff\n      and\n      not(0xff)\n      dup3\n      sload\n      and\n      or\n      swap1\n      sstore\n      dup3\n      mload(0x40)\n      dup12\n      dup2\n      dup9\n      mload\n      tag_443\n      dup2\n      dup4\n      dup10\n      tag_8\n      jump\t// in\n    tag_443:\n      dup2\n      add\n      dup5\n      dup2\n      mstore\n      sub\n      add\n      swap1\n      keccak256\n        /* \"contracts\\\\TurtleDocumentation.sol\":6352:6383  turtles[_turtleId].transferDocs */\n      add\n        /* \"contracts\\\\TurtleDocumentation.sol\":124:13334  contract TurtleDocumentation is Ownable {... */\n      dup9\n      0x00\n      mstore\n      dup11\n      mstore\n      keccak256(0x00, 0x40)\n        /* \"contracts\\\\TurtleDocumentation.sol\":6352:6413  turtles[_turtleId].transferDocs[_documentHash].transferReason */\n      0x05\n      add\n        /* \"contracts\\\\TurtleDocumentation.sol\":124:13334  contract TurtleDocumentation is Ownable {... */\n      swap1\n      tag_444\n      swap2\n      tag_17\n      jump\t// in\n    tag_444:\n      dup9\n      mload(0x40)\n      dup1\n      dup1\n      swap4\n      dup8\n      mload\n      dup1\n      swap3\n      tag_445\n      swap3\n      tag_8\n      jump\t// in\n    tag_445:\n      dup2\n      add\n      dup5\n      dup2\n      mstore\n      sub\n      add\n      swap1\n      keccak256\n        /* \"contracts\\\\TurtleDocumentation.sol\":6442:6473  turtles[_turtleId].transferDocs */\n      add\n        /* \"contracts\\\\TurtleDocumentation.sol\":124:13334  contract TurtleDocumentation is Ownable {... */\n      dup6\n      0x00\n      mstore\n      dup8\n      mstore\n      keccak256(0x00, 0x40)\n        /* \"contracts\\\\TurtleDocumentation.sol\":6442:6496  turtles[_turtleId].transferDocs[_documentHash].purpose */\n      0x06\n      add\n        /* \"contracts\\\\TurtleDocumentation.sol\":124:13334  contract TurtleDocumentation is Ownable {... */\n      swap1\n      tag_297\n      swap2\n      tag_17\n      jump\t// in\n    tag_30:\n      jumpi(tag_70, callvalue)\n      tag_451\n      calldatasize\n      tag_7\n      jump\t// in\n    tag_451:\n      mload(0x40)\n      swap1\n      tag_452\n      dup3\n      tag_1\n      jump\t// in\n    tag_452:\n      0x60\n      dup3\n      dup2\n      dup1\n      swap5\n      mstore\n      0x20\n      swap5\n      dup3\n      dup3\n      dup8\n      swap5\n      dup6\n      dup1\n      swap6\n      add\n      mstore\n      0x40\n      dup2\n      add\n      0x00\n      swap1\n      mstore\n      dup2\n      dup1\n      dup3\n      add\n      mstore\n      dup2\n      0x80\n      dup3\n      add\n      mstore\n      dup2\n      0xa0\n      dup3\n      add\n      mstore\n      0xc0\n      add\n      mstore\n      mload(0x40)\n      swap3\n      dup4\n      dup3\n      dup2\n      swap4\n      mload\n      swap3\n      dup4\n      swap2\n      add\n      swap2\n      tag_453\n      swap3\n      tag_8\n      jump\t// in\n    tag_453:\n      dup2\n      add\n        /* \"contracts\\\\TurtleDocumentation.sol\":9067:9074  turtles */\n      0x01\n        /* \"contracts\\\\TurtleDocumentation.sol\":124:13334  contract TurtleDocumentation is Ownable {... */\n      dup2\n      mstore\n      sub\n      add\n      swap1\n      keccak256\n        /* \"contracts\\\\TurtleDocumentation.sol\":9067:9094  turtles[_turtleId].deathDoc */\n      0x02\n      add\n        /* \"contracts\\\\TurtleDocumentation.sol\":124:13334  contract TurtleDocumentation is Ownable {... */\n      swap1\n      0x00\n      mstore\n      dup3\n      mstore\n      keccak256(0x00, 0x40)\n      mload(0x40)\n      swap2\n      tag_454\n      dup4\n      tag_1\n      jump\t// in\n    tag_454:\n      tag_455\n      dup3\n      tag_20\n      jump\t// in\n    tag_455:\n      dup4\n      mstore\n      tag_456\n        /* \"contracts\\\\TurtleDocumentation.sol\":9067:9074  turtles */\n      0x01\n        /* \"contracts\\\\TurtleDocumentation.sol\":124:13334  contract TurtleDocumentation is Ownable {... */\n      dup4\n      add\n      tag_20\n      jump\t// in\n    tag_456:\n      swap2\n      dup5\n      dup5\n      add\n      swap3\n      dup4\n      mstore\n        /* \"contracts\\\\TurtleDocumentation.sol\":9067:9094  turtles[_turtleId].deathDoc */\n      0x02\n        /* \"contracts\\\\TurtleDocumentation.sol\":124:13334  contract TurtleDocumentation is Ownable {... */\n      dup2\n      add\n      sload\n      0xff\n      and\n      0x40\n      dup6\n      add\n      swap1\n      dup2\n      mstore\n      0x03\n      dup3\n      add\n      tag_457\n      swap1\n      tag_20\n      jump\t// in\n    tag_457:\n      dup6\n      dup5\n      add\n      swap1\n      dup2\n      mstore\n      swap1\n      tag_458\n      0x04\n      dup5\n      add\n      tag_20\n      jump\t// in\n    tag_458:\n      0x80\n      dup8\n      add\n      swap1\n      dup2\n      mstore\n      swap2\n      tag_459\n      0x05\n      dup6\n      add\n      tag_20\n      jump\t// in\n    tag_459:\n      swap4\n      0xa0\n      dup9\n      add\n      swap5\n      dup6\n      mstore\n      0x06\n      add\n      tag_460\n      swap1\n      tag_20\n      jump\t// in\n    tag_460:\n      swap5\n      0xc0\n      dup9\n      add\n      swap6\n      dup7\n      mstore\n      mload(0x40)\n      swap9\n      dup10\n      swap9\n      dup2\n      dup11\n      mstore\n      mload\n      swap1\n      dup10\n      add\n      0xe0\n      swap1\n      mstore\n      0x0100\n      dup10\n      add\n      tag_461\n      swap2\n      tag_9\n      jump\t// in\n    tag_461:\n      swap7\n      mload\n      not(0x1f)\n      swap8\n      dup9\n      dup11\n      dup3\n      sub\n      add\n      0x40\n      dup12\n      add\n      mstore\n      tag_462\n      swap2\n      tag_9\n      jump\t// in\n    tag_462:\n      swap3\n      mload\n      0xff\n      and\n      swap1\n      dup9\n      add\n      mstore\n      mload\n      swap1\n      dup6\n      dup8\n      dup3\n      sub\n      add\n      0x80\n      dup9\n      add\n      mstore\n      tag_463\n      swap2\n      tag_9\n      jump\t// in\n    tag_463:\n      swap1\n      mload\n      swap1\n      dup5\n      dup7\n      dup3\n      sub\n      add\n      0xa0\n      dup8\n      add\n      mstore\n      tag_464\n      swap2\n      tag_9\n      jump\t// in\n    tag_464:\n      swap1\n      mload\n      swap1\n      dup4\n      dup6\n      dup3\n      sub\n      add\n      0xc0\n      dup7\n      add\n      mstore\n      tag_465\n      swap2\n      tag_9\n      jump\t// in\n    tag_465:\n      swap1\n      mload\n      swap2\n      dup4\n      dup3\n      sub\n      add\n      0xe0\n      dup5\n      add\n      mstore\n      tag_164\n      swap2\n      tag_9\n      jump\t// in\n    tag_28:\n      jumpi(tag_70, callvalue)\n      jumpi(tag_70, slt(add(not(0x03), calldatasize), 0x20))\n      calldataload(0x04)\n      sub(shl(0x40, 0x01), 0x01)\n      dup2\n      gt\n      tag_70\n      jumpi\n        /* \"contracts\\\\TurtleDocumentation.sol\":12919:12957  turtles[_turtleId].currentDeathDocHash */\n      0x07\n        /* \"contracts\\\\TurtleDocumentation.sol\":124:13334  contract TurtleDocumentation is Ownable {... */\n      tag_162\n      0x20\n      tag_163\n      tag_164\n      swap5\n      calldatasize\n      swap1\n      0x04\n      add\n      tag_5\n      jump\t// in\n    tag_1:\n      0xe0\n      dup2\n      add\n      swap1\n      dup2\n      lt\n      sub(shl(0x40, 0x01), 0x01)\n      dup3\n      gt\n      or\n      tag_478\n      jumpi\n      0x40\n      mstore\n      jump\t// out\n    tag_478:\n      mstore(0x00, shl(0xe0, 0x4e487b71))\n      mstore(0x04, 0x41)\n      revert(0x00, 0x24)\n    tag_2:\n      0x0140\n      dup2\n      add\n      swap1\n      dup2\n      lt\n      sub(shl(0x40, 0x01), 0x01)\n      dup3\n      gt\n      or\n      tag_478\n      jumpi\n      0x40\n      mstore\n      jump\t// out\n    tag_3:\n      0x01c0\n      dup2\n      add\n      swap1\n      dup2\n      lt\n      sub(shl(0x40, 0x01), 0x01)\n      dup3\n      gt\n      or\n      tag_478\n      jumpi\n      0x40\n      mstore\n      jump\t// out\n    tag_4:\n      swap1\n      0x1f\n      dup1\n      not\n      swap2\n      add\n      and\n      dup2\n      add\n      swap1\n      dup2\n      lt\n      sub(shl(0x40, 0x01), 0x01)\n      dup3\n      gt\n      or\n      tag_478\n      jumpi\n      0x40\n      mstore\n      jump\t// out\n    tag_5:\n      dup2\n      0x1f\n      dup3\n      add\n      slt\n      iszero\n      tag_70\n      jumpi\n      dup1\n      calldataload\n      swap1\n      sub(shl(0x40, 0x01), 0x01)\n      dup3\n      gt\n      tag_478\n      jumpi\n      mload(0x40)\n      swap3\n      tag_490\n      0x1f\n      dup5\n      add\n      not(0x1f)\n      and\n      0x20\n      add\n      dup6\n      tag_4\n      jump\t// in\n    tag_490:\n      dup3\n      dup5\n      mstore\n      0x20\n      dup4\n      dup4\n      add\n      add\n      gt\n      tag_70\n      jumpi\n      dup2\n      0x00\n      swap3\n      0x20\n      dup1\n      swap4\n      add\n      dup4\n      dup7\n      add\n      calldatacopy\n      dup4\n      add\n      add\n      mstore\n      swap1\n      jump\t// out\n    tag_7:\n      0x40\n      not(0x03)\n      dup3\n      add\n      slt\n      tag_70\n      jumpi\n      calldataload(0x04)\n      swap1\n      sub(shl(0x40, 0x01), 0x01)\n      dup3\n      gt\n      tag_70\n      jumpi\n      tag_497\n      swap2\n      0x04\n      add\n      tag_5\n      jump\t// in\n    tag_497:\n      swap1\n      calldataload(0x24)\n      swap1\n      jump\t// out\n    tag_8:\n      0x00\n    tag_498:\n      dup4\n      dup2\n      lt\n      tag_499\n      jumpi\n      pop\n      pop\n      0x00\n      swap2\n      add\n      mstore\n      jump\t// out\n    tag_499:\n      dup2\n      dup2\n      add\n      mload\n      dup4\n      dup3\n      add\n      mstore\n      0x20\n      add\n      jump(tag_498)\n    tag_9:\n      swap1\n      0x20\n      swap2\n      tag_501\n      dup2\n      mload\n      dup1\n      swap3\n      dup2\n      dup6\n      mstore\n      dup6\n      dup1\n      dup7\n      add\n      swap2\n      add\n      tag_8\n      jump\t// in\n    tag_501:\n      0x1f\n      add\n      not(0x1f)\n      and\n      add\n      add\n      swap1\n      jump\t// out\n    tag_10:\n      calldataload(0x84)\n      swap1\n      0xff\n      dup3\n      and\n      dup3\n      sub\n      tag_70\n      jumpi\n      jump\t// out\n        /* \"@openzeppelin/contracts/access/Ownable.sol\":1359:1489  function _checkOwner() internal view virtual {... */\n    tag_11:\n        /* \"@openzeppelin/contracts/access/Ownable.sol\":1273:1279  _owner */\n      0x00\n        /* \"contracts\\\\TurtleDocumentation.sol\":124:13334  contract TurtleDocumentation is Ownable {... */\n      sload\n      sub(shl(0xa0, 0x01), 0x01)\n      and\n        /* \"@openzeppelin/contracts/utils/Context.sol\":734:744  msg.sender */\n      caller\n        /* \"@openzeppelin/contracts/access/Ownable.sol\":1422:1445  owner() == _msgSender() */\n      sub\n        /* \"contracts\\\\TurtleDocumentation.sol\":124:13334  contract TurtleDocumentation is Ownable {... */\n      tag_504\n      jumpi\n        /* \"@openzeppelin/contracts/access/Ownable.sol\":1359:1489  function _checkOwner() internal view virtual {... */\n      jump\t// out\n        /* \"contracts\\\\TurtleDocumentation.sol\":124:13334  contract TurtleDocumentation is Ownable {... */\n    tag_504:\n      0x64\n      mload(0x40)\n      shl(0xe5, 0x461bcd)\n      dup2\n      mstore\n      0x20\n      0x04\n      dup3\n      add\n      mstore\n      0x20\n      0x24\n      dup3\n      add\n      mstore\n      0x4f776e61626c653a2063616c6c6572206973206e6f7420746865206f776e6572\n      0x44\n      dup3\n      add\n      mstore\n      revert\n    tag_12:\n      iszero\n      tag_506\n      jumpi\n      jump\t// out\n    tag_506:\n      mload(0x40)\n      shl(0xe5, 0x461bcd)\n      dup2\n      mstore\n      0x20\n      0x04\n      dup3\n      add\n      mstore\n      0x19\n      0x24\n      dup3\n      add\n      mstore\n      0x547572746c6520616c7265616479207265676973746572656400000000000000\n      0x44\n      dup3\n      add\n      mstore\n      0x64\n      swap1\n      revert\n    tag_13:\n      dup1\n      sload\n      dup3\n      lt\n      iszero\n      tag_508\n      jumpi\n      0x00\n      mstore\n      keccak256(0x00, 0x20)\n      add\n      swap1\n      0x00\n      swap1\n      jump\t// out\n    tag_508:\n      mstore(0x00, shl(0xe0, 0x4e487b71))\n      mstore(0x04, 0x32)\n      revert(0x00, 0x24)\n    tag_14:\n      swap1\n      0x01\n      dup3\n      dup2\n      shr\n      swap3\n      and\n      dup1\n      iszero\n      tag_510\n      jumpi\n    tag_511:\n      0x20\n      dup4\n      lt\n      eq\n      tag_512\n      jumpi\n      jump\t// out\n    tag_512:\n      mstore(0x00, shl(0xe0, 0x4e487b71))\n      mstore(0x04, 0x22)\n      revert(0x00, 0x24)\n    tag_510:\n      swap2\n      0x7f\n      and\n      swap2\n      jump(tag_511)\n    tag_15:\n      dup2\n      dup2\n      lt\n      tag_515\n      jumpi\n      pop\n      pop\n      jump\t// out\n    tag_515:\n      0x00\n      dup2\n      sstore\n      0x01\n      add\n      jump(tag_15)\n    tag_16:\n      swap2\n      swap1\n      0x1f\n      dup2\n      gt\n      tag_517\n      jumpi\n      pop\n      pop\n      pop\n      jump\t// out\n    tag_517:\n      tag_519\n      swap3\n      0x00\n      mstore\n      keccak256(0x00, 0x20)\n      swap1\n      0x20\n      0x1f\n      dup5\n      add\n      0x05\n      shr\n      dup4\n      add\n      swap4\n      lt\n      tag_520\n      jumpi\n    tag_521:\n      0x1f\n      add\n      0x05\n      shr\n      add\n      swap1\n      tag_15\n      jump\t// in\n    tag_519:\n      jump\t// out\n    tag_520:\n      swap1\n      swap2\n      pop\n      dup2\n      swap1\n      jump(tag_521)\n    tag_17:\n      swap2\n      swap1\n      swap2\n      dup3\n      mload\n      sub(shl(0x40, 0x01), 0x01)\n      dup2\n      gt\n      tag_478\n      jumpi\n      tag_524\n      dup2\n      tag_525\n      dup5\n      sload\n      tag_14\n      jump\t// in\n    tag_525:\n      dup5\n      tag_16\n      jump\t// in\n    tag_524:\n      0x20\n      dup1\n      0x1f\n      dup4\n      gt\n      0x01\n      eq\n      tag_526\n      jumpi\n      pop\n      dup2\n      swap3\n      swap4\n      swap5\n      0x00\n      swap3\n      tag_528\n      jumpi\n    tag_529:\n      pop\n      pop\n      dup2\n      0x01\n      shl\n      swap2\n      not(0x00)\n      swap1\n      0x03\n      shl\n      shr\n      not\n      and\n      or\n      swap1\n      sstore\n      jump\t// out\n    tag_528:\n      add\n      mload\n      swap1\n      pop\n      codesize\n      dup1\n      jump(tag_529)\n    tag_526:\n      swap1\n      not(0x1f)\n      dup4\n      and\n      swap6\n      dup5\n      0x00\n      mstore\n      dup3\n      0x00\n      keccak256\n      swap3\n      0x00\n      swap1\n    tag_531:\n      dup9\n      dup3\n      lt\n      tag_532\n      jumpi\n      pop\n      pop\n      dup4\n      0x01\n      swap6\n      swap7\n      swap8\n      lt\n      tag_534\n      jumpi\n    tag_535:\n      pop\n      pop\n      pop\n      dup2\n      shl\n      add\n      swap1\n      sstore\n      jump\t// out\n    tag_534:\n      add\n      mload\n      not(0x00)\n      0xf8\n      dup5\n      0x03\n      shl\n      and\n      shr\n      not\n      and\n      swap1\n      sstore\n      codesize\n      dup1\n      dup1\n      jump(tag_535)\n    tag_532:\n      dup1\n      0x01\n      dup6\n      swap7\n      dup3\n      swap5\n      swap7\n      dup7\n      add\n      mload\n      dup2\n      sstore\n      add\n      swap6\n      add\n      swap4\n      add\n      swap1\n      jump(tag_531)\n    tag_18:\n      dup1\n      sload\n      0x010000000000000000\n      dup2\n      lt\n      iszero\n      tag_478\n      jumpi\n      tag_538\n      swap2\n      0x01\n      dup3\n      add\n      dup2\n      sstore\n      tag_13\n      jump\t// in\n    tag_538:\n      swap2\n      swap1\n      swap2\n      tag_539\n      jumpi\n      tag_519\n      swap2\n      tag_17\n      jump\t// in\n    tag_539:\n      mstore(0x00, shl(0xe0, 0x4e487b71))\n      mstore(0x04, 0x00)\n      revert(0x00, 0x24)\n    tag_19:\n      tag_542\n      swap1\n      0x20\n      mload(0x40)\n      swap3\n      dup3\n      dup5\n      dup1\n      swap5\n      mload\n      swap4\n      dup5\n      swap3\n      add\n      tag_8\n      jump\t// in\n    tag_542:\n      dup2\n      add\n      sub\n      swap1\n      keccak256\n      swap1\n      jump\t// out\n    tag_20:\n      swap1\n      mload(0x40)\n      swap2\n      dup3\n      0x00\n      dup3\n      sload\n      swap3\n      tag_543\n      dup5\n      tag_14\n      jump\t// in\n    tag_543:\n      swap1\n      dup2\n      dup5\n      mstore\n      0x01\n      swap5\n      dup6\n      dup2\n      and\n      swap1\n      dup2\n      0x00\n      eq\n      tag_544\n      jumpi\n      pop\n      0x01\n      eq\n      tag_546\n      jumpi\n    tag_547:\n      pop\n      pop\n      tag_519\n      swap3\n      pop\n      sub\n      dup4\n      tag_4\n      jump\t// in\n    tag_546:\n      swap1\n      swap4\n      swap2\n      pop\n      0x00\n      mstore\n      0x20\n      swap1\n      dup2\n      0x00\n      keccak256\n      swap4\n      0x00\n      swap2\n    tag_549:\n      dup2\n      dup4\n      lt\n      tag_550\n      jumpi\n      pop\n      pop\n      tag_519\n      swap4\n      pop\n      dup3\n      add\n      add\n      codesize\n      dup1\n      jump(tag_547)\n    tag_550:\n      dup6\n      sload\n      dup9\n      dup5\n      add\n      dup6\n      add\n      mstore\n      swap5\n      dup6\n      add\n      swap5\n      dup8\n      swap5\n      pop\n      swap2\n      dup4\n      add\n      swap2\n      jump(tag_549)\n    tag_544:\n      swap2\n      pop\n      pop\n      tag_519\n      swap5\n      pop\n      0x20\n      swap3\n      pop\n      not(0xff)\n      and\n      dup3\n      dup5\n      add\n      mstore\n      iszero\n      iszero\n      0x05\n      shl\n      dup3\n      add\n      add\n      codesize\n      dup1\n      jump(tag_547)\n    tag_21:\n      swap1\n      swap2\n      tag_552\n      tag_553\n      swap4\n      0x40\n      dup5\n      mstore\n      0x40\n      dup5\n      add\n      swap1\n      tag_9\n      jump\t// in\n    tag_552:\n      swap2\n      0x20\n      dup2\n      dup5\n      sub\n      swap2\n      add\n      mstore\n      tag_9\n      jump\t// in\n    tag_553:\n      swap1\n      jump\t// out\n    tag_22:\n      iszero\n      tag_554\n      jumpi\n      jump\t// out\n    tag_554:\n      mload(0x40)\n      shl(0xe5, 0x461bcd)\n      dup2\n      mstore\n      0x20\n      0x04\n      dup3\n      add\n      mstore\n      0x15\n      0x24\n      dup3\n      add\n      mstore\n      shl(0x5a, 0x151d5c9d1b1948191bd95cc81b9bdd08195e1a5cdd)\n      0x44\n      dup3\n      add\n      mstore\n      0x64\n      swap1\n      revert\n    tag_23:\n      not(0x00)\n      dup2\n      eq\n      tag_556\n      jumpi\n      0x01\n      add\n      swap1\n      jump\t// out\n    tag_556:\n      mstore(0x00, shl(0xe0, 0x4e487b71))\n      mstore(0x04, 0x11)\n      revert(0x00, 0x24)\n    tag_24:\n      0x00\n      swap3\n      swap2\n      dup2\n      sload\n      tag_558\n      dup2\n      tag_14\n      jump\t// in\n    tag_558:\n      swap3\n      0x01\n      swap2\n      dup1\n      dup4\n      and\n      swap1\n      dup2\n      iszero\n      tag_559\n      jumpi\n      pop\n      0x01\n      eq\n      tag_561\n      jumpi\n    tag_562:\n      pop\n      pop\n      pop\n      pop\n      jump\t// out\n    tag_561:\n      swap1\n      swap2\n      swap3\n      swap4\n      swap5\n      pop\n      0x00\n      mstore\n      0x20\n      swap1\n      dup2\n      0x00\n      keccak256\n      swap1\n      0x00\n      swap2\n    tag_563:\n      dup6\n      dup4\n      lt\n      tag_564\n      jumpi\n      pop\n      pop\n      pop\n      pop\n      add\n      swap1\n      codesize\n      dup1\n      dup1\n      dup1\n      jump(tag_562)\n    tag_564:\n      dup1\n      sload\n      dup6\n      dup5\n      add\n      mstore\n      swap2\n      dup4\n      add\n      swap2\n      dup2\n      add\n      jump(tag_563)\n    tag_559:\n      not(0xff)\n      and\n      dup5\n      mstore\n      pop\n      pop\n      pop\n      dup2\n      iszero\n      iszero\n      swap1\n      swap2\n      mul\n      add\n      swap2\n      pop\n      codesize\n      dup1\n      dup1\n      dup1\n      jump(tag_562)\n    tag_25:\n      swap1\n      dup1\n      dup3\n      eq\n      tag_566\n      jumpi\n      tag_568\n      dup2\n      sload\n      tag_14\n      jump\t// in\n    tag_568:\n      swap1\n      sub(shl(0x40, 0x01), 0x01)\n      dup3\n      gt\n      tag_478\n      jumpi\n      dup2\n      swap1\n      tag_571\n      dup3\n      tag_572\n      dup7\n      sload\n      tag_14\n      jump\t// in\n    tag_572:\n      dup7\n      tag_16\n      jump\t// in\n    tag_571:\n      0x00\n      swap1\n      0x1f\n      dup4\n      gt\n      0x01\n      eq\n      tag_573\n      jumpi\n      0x00\n      swap3\n      tag_575\n      jumpi\n      pop\n      pop\n      dup2\n      0x01\n      shl\n      swap2\n      not(0x00)\n      swap1\n      0x03\n      shl\n      shr\n      not\n      and\n      or\n      swap1\n      sstore\n      jump\t// out\n    tag_575:\n      add\n      sload\n      swap1\n      pop\n      codesize\n      dup1\n      jump(tag_529)\n    tag_573:\n      dup2\n      mstore\n      0x20\n      dup1\n      dup3\n      keccak256\n      dup6\n      dup4\n      mstore\n      dup2\n      dup4\n      keccak256\n      swap4\n      pop\n      swap1\n      not(0x1f)\n      dup6\n      and\n      swap1\n      dup4\n      swap1\n    tag_578:\n      dup3\n      dup3\n      lt\n      tag_579\n      jumpi\n      pop\n      pop\n      swap1\n      dup5\n      0x01\n      swap6\n      swap5\n      swap4\n      swap3\n      lt\n      tag_581\n      jumpi\n      pop\n      pop\n      pop\n      dup2\n      shl\n      add\n      swap1\n      sstore\n      jump\t// out\n    tag_581:\n      add\n      sload\n      not(0x00)\n      0xf8\n      dup5\n      0x03\n      shl\n      and\n      shr\n      not\n      and\n      swap1\n      sstore\n      codesize\n      dup1\n      dup1\n      jump(tag_535)\n    tag_579:\n      dup5\n      swap6\n      dup2\n      swap3\n      swap6\n      dup6\n      add\n      sload\n      dup2\n      sstore\n      0x01\n      dup1\n      swap2\n      add\n      swap7\n      add\n      swap5\n      add\n      swap1\n      jump(tag_578)\n    tag_566:\n      pop\n      pop\n      jump\t// out\n\n    auxdata: 0xa264697066735822122020495b34f8cbfe24d50268f01aa08bbc84f0e3128c9ba7bf83cd078a4a1b267664736f6c63430008120033\n}\n",
				"bytecode": {
					"linkReferences": {},
					"object": "6080806040523461005b5760008054336001600160a01b0319821681178355916001600160a01b03909116907f8be0079c531659141344cd1fd0a4f28419497f9722a3daafe3b4186f6b6457e09080a361221090816100618239f35b600080fdfe6080604052600436101561001257600080fd5b60003560e01c80631294ffcf14611b0a57806317aa1f481461196f57806318e1a28a146117b05780631a0642ef146115815780631b979af114611535578063229aa914146114df57806322d2378f146114a5578063358a3d37146110e8578063482346bd14611061578063596c442a14610e51578063673ae4c114610b665780636c1dcaf814610895578063715018a61461083c5780637ca2d3cd1461072d5780638da5cb5b14610704578063997480e51461065c578063ce5f0b7d1461021b578063f2fde38b146101505763f3cb197d146100ed57600080fd5b3461014b57602036600319011261014b576004356001600160401b03811161014b5760046101376020610124819436908501611bce565b8160405193828580945193849201611c55565b810160018152030190200154604051908152f35b600080fd5b3461014b57602036600319011261014b576004356001600160a01b038181169182900361014b5761017f611cad565b81156101c757600054826bffffffffffffffffffffffff60a01b821617600055167f8be0079c531659141344cd1fd0a4f28419497f9722a3daafe3b4186f6b6457e0600080a3005b60405162461bcd60e51b815260206004820152602660248201527f4f776e61626c653a206e6577206f776e657220697320746865207a65726f206160448201526564647265737360d01b6064820152608490fd5b3461014b57606036600319011261014b576001600160401b0360043581811161014b5761024c903690600401611bce565b602490813583811161014b57610266903690600401611bce565b9260443590811161014b5761027f903690600401611bce565b916040518251916020916102b660ff60098588019661029f81868a611c55565b840193868160019687815203019020015416612012565b604051938751848901906102cb818884611c55565b860195858160029889815203019020541561060d5760008381815b610563575b505015610514578461030891604051809381928d51928391611c55565b810188815203019020906000835b61038a575b898961036261035c6103568c610351818e8e6040518092826103438c84815193849201611c55565b820190815203019020611ede565b611f26565b93611f26565b91611f26565b917f80d739977bb0030fd7e876dc1ca9a667adfc1b71fea4820c4266de2ee6d6c657600080a4005b82548082101561050e57908392916103a3828796611d51565b506040516103c6816103b88c8201809561207b565b03601f198101835282611bad565b5190208a6040516103ef8b8281810194516103e281878c611c55565b8101038084520182611bad565b5190201461040a575b5061040290612056565b909192610316565b9293509091600019908181019081116104f9576104279085611d51565b506104328386611d51565b6104e45790610440916120fe565b835480156104cf57016104538185611d51565b6104ba5791610402918361046a8897969554611d7f565b908161047b575b50508455906103f8565b600091601f8c81831160011461049757505050555b8d80610471565b83916104b39186949585528420940160051c84018b8501611db9565b5555610490565b86634e487b7160e01b60005260006004526000fd5b86634e487b7160e01b60005260316004526000fd5b87634e487b7160e01b60005260006004526000fd5b86634e487b7160e01b60005260116004526000fd5b5061031b565b60405162461bcd60e51b8152600481018690526022818601527f4f6c64206f776e657220646f6573206e6f74206f776e207468697320747572746044820152616c6560f01b6064820152608490fd5b878c8a6040518381845161057881838d611c55565b81018481520301902054841015610605576105af928492604051928391516105a181848d611c55565b820190815203019020611d51565b506040516105c4816103b88c8201809561207b565b519020858b6105e48b60405180936103e283830196879251928391611c55565b519020146105fb576105f590612056565b816102e6565b509050838b6102eb565b5050506102eb565b60405162461bcd60e51b8152600481018690526022818601527f4f6c64206f776e657220646f6573206e6f74206f776e20616e7920747572746c604482015261657360f01b6064820152608490fd5b3461014b57602036600319011261014b576004356001600160401b03811161014b5760056106d86020610696610700943690600401611bce565b604051906106c760ff60098351948681818701976106b581838b611c55565b81016001815203019020015416612012565b604051938492839251928391611c55565b6001908201908152030190200154604080518215158152602081019290925290918291820190565b0390f35b3461014b57600036600319011261014b576000546040516001600160a01b039091168152602090f35b3461014b57606036600319011261014b576001600160401b0360043581811161014b5761075e903690600401611bce565b9060243590811161014b5761035c61077d610814923690600401611bce565b92610786611cad565b60096107ce60206040516107bd60ff858751938581818b01966107aa81838a611c55565b8101600181520301902001541615611d05565b604051809381928751928391611c55565b81016001815203019020604435600882015501600160ff198254161790556103518160405160208188516108058183858d01611c55565b81016002815203019020611ede565b907f7d904e478df0f515c7058df56a2295c88f46c97f269f153cb964c1574e4ad9e8600080a3005b3461014b57600036600319011261014b57610855611cad565b600080546001600160a01b0319811682556001600160a01b03167f8be0079c531659141344cd1fd0a4f28419497f9722a3daafe3b4186f6b6457e08280a3005b3461014b5761012036600319011261014b576001600160401b0360043581811161014b576108c7903690600401611bce565b9060243581811161014b576108e0903690600401611bce565b9060643581811161014b576108f9903690600401611bce565b610901611c9d565b9360a43583811161014b5761091a903690600401611bce565b9160c43584811161014b57610933903690600401611bce565b9260e43585811161014b5761094c903690600401611bce565b966101043595861161014b57602097610a9961035c96610a618a95610acf956109e5610b05998f6109c4610b319f918e61012461098f6002953690600401611bce565b9e85604051858186516109a58183858b01611c55565b6001818301528101030190200160443560005284526040600020611e17565b81016001815203019020016044356000526020526001604060002001611e17565b60026109ff8f8c8160405193828580945193849201611c55565b81016001815203019020016044356000528e5260ff6002604060002001911660ff198254161790556002610a418e8b8160405193828580945193849201611c55565b81016001815203019020016044356000528d526003604060002001611e17565b60026040518c8181610a798c83815193849201611c55565b81016001815203019020016044356000528b526004604060002001611e17565b60026040518a818851610aaf8183858d01611c55565b810160018152030190200160443560005289526005604060002001611e17565b600260405188818651610ae58183858b01611c55565b810160018152030190200160443560005287526006604060002001611e17565b60405160078251610b1981848a8701611c55565b82019160018352878160443594030190200155611f26565b9060405191604435917fbf4ff8efb9c111a99679d7a6a4263272c5fa30a2fa39bec8f6e4ce26902fc0be600080a46044358152f35b3461014b576020610bf1610b7936611c24565b929060606101a0604051610b8c81611b91565b82815260008582015282604082015282808201528260808201528260a08201528260c08201528260e082015282610100820152600061012082015282610140820152826101608201528261018082015201528160405193828580945193849201611c55565b8101600181520301902090600052602052610d616040600020610cf3600d60405192610c1c84611b91565b610c2581611f46565b845260ff6001820154166020850152610c4060028201611f46565b6040850152610c5160038201611f46565b6060850152610c6260048201611f46565b6080850152610c7360058201611f46565b60a0850152610c8460068201611f46565b60c0850152610c9560078201611f46565b60e0850152610ca660088201611f46565b6101008501526009810154610120850152610cc3600a8201611f46565b610140850152610cd5600b8201611f46565b610160850152610ce7600c8201611f46565b61018085015201611f46565b6101a0820152610700816101a0610e3c610e26610e0e610dea610dd2610dbb610da5610d8f610d796040519d8e9d8e602081526040610d4083516101c060208501526101e0840190611c78565b9260ff602082015116828401520151906060601f1982850301910152611c78565b8d60608d0151906080601f1982850301910152611c78565b60808b01518d8203601f190160a08f0152611c78565b60a08a01518c8203601f190160c08e0152611c78565b60c08901518b8203601f190160e08d0152611c78565b60e08801518a8203601f19016101008c0152611c78565b610100870151898203601f19016101208b0152611c78565b610120860151610140890152610140860151601f19898303016101608a0152611c78565b610160850151878203601f1901610180890152611c78565b610180840151868203601f190184880152611c78565b910151838203601f19016101c0850152611c78565b3461014b5760e036600319011261014b576001600160401b0360043581811161014b57610e82903690600401611bce565b9060243581811161014b57610e9b903690600401611bce565b906044359160643582811161014b57610eb8903690600401611bce565b9060843583811161014b57610ed1903690600401611bce565b9460a43584811161014b57610eea903690600401611bce565b60c43594851161014b578594610f04903690600401611bce565b90604051908351906020998a860192610f1e818686611c55565b8401848c60019683888095520301902001896000528b5286604060002090610f4591611e17565b836040518c818951610f5881838a611c55565b81018481520301902001896000528b5287604060002060020190610f7b91611e17565b836040518c818951610f8e81838a611c55565b81018481520301902001896000528b52604060002060070190610fb091611e17565b826040518b818851610fc3818389611c55565b81018481520301902001886000528a52604060002060080190610fe591611e17565b8860405180809387518092610ff992611c55565b8101848152030190200185600052875260406000206009019061101b91611e17565b61102490611f26565b916040519182916110359183611fea565b037f5900e70e78483b52bbe5c26fe3eddc846f885a9fe48efe16abcda778278f4f1291a3604051908152f35b3461014b576020806110d4600561107736611c24565b938493916040519085600382519385818186019661109681838a611c55565b810160018152030190200155856004604051858185516110b781838a611c55565b810160018152030190200155604051938492839251928391611c55565b810160018152030190200155604051908152f35b3461014b5761022036600319011261014b576001600160401b0360043581811161014b5761111a903690600401611bce565b60243582811161014b57611132903690600401611bce565b9160643560ff8116810361014b5760843582811161014b57611158903690600401611bce565b60a43583811161014b57611170903690600401611bce565b60c43584811161014b57611188903690600401611bce565b60e43585811161014b576111a0903690600401611bce565b6101043586811161014b576111b9903690600401611bce565b6101243587811161014b576111d2903690600401611bce565b906101443588811161014b576111ec903690600401611bce565b926101843589811161014b57611206903690600401611bce565b946101a4358a811161014b57611220903690600401611bce565b966101c4358b811161014b5761123a903690600401611bce565b986101e4359b8c1161014b578d9b611256903690600401611bce565b9a8d60405190805191806020830193611270818387611c55565b8101600181520360200190206009015460ff161561128d90611d05565b604051809281925180926112a092611c55565b8101600181520360200190209c6044356000528d6020526040600020906112c691611e17565b6044356000528c60205260406000209060ff1660ff19600183015416176001820155600201906112f591611e17565b6044356000528a60205260406000206003019061131191611e17565b6044356000528960205260406000206004019061132d91611e17565b6044356000528860205260406000206005019061134991611e17565b6044356000528760205260406000206006019061136591611e17565b6044356000528660205260406000206007019061138191611e17565b6044356000528560205260406000206008019061139d91611e17565b604435600052846020526040600020610164356009820155600a01906113c291611e17565b604435600052836020526040600020600b01906113de91611e17565b604435600052826020526040600020600c01906113fa91611e17565b604435600052816020526040600020600d019061141691611e17565b61020435600882015560090160ff198154166001179055806040518084518181602088019161144492611c55565b8101600281520360200190209061145a91611ede565b61146390611f26565b9061146d90611f26565b9060405191604435917f406d6a39963b189ae4d4ba0b53780ecdf05dc013e196662687a246b0a2b70548600080a46044358152602090f35b3461014b57602036600319011261014b576004356001600160401b03811161014b5760066106d86020610696610700943690600401611bce565b3461014b5760046110d460066114f436611c24565b92839291604051908051906020978389809581850195611515818389611c55565b81016001815203019020015460036040518581855161109681838a611c55565b3461014b57602080600861156c61154b36611c24565b9390604051906106c760ff60098351948681818701976106b581838b611c55565b81016001815203019020015414604051908152f35b3461014b57602060016115f161159636611c24565b939060606101206040516115a981611b75565b82815282858201528260408201528280820152600060808201528260a08201528260c08201528260e08201528261010082015201528160405193828580945193849201611c55565b810184815203019020019060005260205261070060406000206116b260096040519261161c84611b75565b61162581611f46565b845261163360018201611f46565b602085015261164460028201611f46565b604085015261165560038201611f46565b606085015260ff600482015416608085015261167360058201611f46565b60a085015261168460068201611f46565b60c085015261169560078201611f46565b60e08501526116a660088201611f46565b61010085015201611f46565b6101208201526040519182916020835261012061179b61178561176e61175861173561171f6117096116f38b61014060208c519201526101608d0190611c78565b60208a01518c8203601f190160408e0152611c78565b60408901518b8203601f190160608d0152611c78565b60608801518a8203601f190160808c0152611c78565b60ff60808801511660a08a015260a0870151601f198a83030160c08b0152611c78565b60c0860151888203601f190160e08a0152611c78565b60e0850151878203601f1901610100890152611c78565b610100840151868203601f190184880152611c78565b910151838203601f1901610140850152611c78565b3461014b5760e036600319011261014b576001600160401b0360043581811161014b576117e1903690600401611bce565b9060243581811161014b576117fa903690600401611bce565b906044359160643582811161014b57611817903690600401611bce565b90611820611c9d565b9460a43584811161014b57611839903690600401611bce565b60c43594851161014b578594611853903690600401611bce565b90604051908351906020998a86019261186d818686611c55565b8401848c60019683888095520301902001896000528b5286846040600020019061189691611e17565b836040518c8189516118a981838a611c55565b81018481520301902001896000528b52876040600020600301906118cc91611e17565b836040518c8189516118df81838a611c55565b81018481520301902001896000528b5260406000206004019060ff1660ff19825416179055826040518b818851611917818389611c55565b81018481520301902001886000528a5260406000206005019061193991611e17565b886040518080938751809261194d92611c55565b8101848152030190200185600052875260406000206006019061101b91611e17565b3461014b5761197d36611c24565b6040519061198a82611b44565b60608281809452602094828287948580950152604081016000905281808201528160808201528160a082015260c0015260405192838281935192839101916119d192611c55565b810160018152030190206002019060005282526040600020604051916119f683611b44565b6119ff82611f46565b8352611a0d60018301611f46565b91848401928352600281015460ff166040850190815260038201611a3090611f46565b85840190815290611a4360048401611f46565b6080870190815291611a5760058501611f46565b9360a08801948552600601611a6b90611f46565b9460c08801958652604051988998818a525190890160e090526101008901611a9291611c78565b9651601f1997888a82030160408b0152611aab91611c78565b925160ff1690880152519085878203016080880152611ac991611c78565b905190848682030160a0870152611adf91611c78565b905190838582030160c0860152611af591611c78565b9051918382030160e084015261070091611c78565b3461014b57602036600319011261014b576004356001600160401b03811161014b5760076106d86020610696610700943690600401611bce565b60e081019081106001600160401b03821117611b5f57604052565b634e487b7160e01b600052604160045260246000fd5b61014081019081106001600160401b03821117611b5f57604052565b6101c081019081106001600160401b03821117611b5f57604052565b90601f801991011681019081106001600160401b03821117611b5f57604052565b81601f8201121561014b578035906001600160401b038211611b5f5760405192611c02601f8401601f191660200185611bad565b8284526020838301011161014b57816000926020809301838601378301015290565b604060031982011261014b57600435906001600160401b03821161014b57611c4e91600401611bce565b9060243590565b60005b838110611c685750506000910152565b8181015183820152602001611c58565b90602091611c9181518092818552858086019101611c55565b601f01601f1916010190565b6084359060ff8216820361014b57565b6000546001600160a01b03163303611cc157565b606460405162461bcd60e51b815260206004820152602060248201527f4f776e61626c653a2063616c6c6572206973206e6f7420746865206f776e65726044820152fd5b15611d0c57565b60405162461bcd60e51b815260206004820152601960248201527f547572746c6520616c72656164792072656769737465726564000000000000006044820152606490fd5b8054821015611d695760005260206000200190600090565b634e487b7160e01b600052603260045260246000fd5b90600182811c92168015611daf575b6020831014611d9957565b634e487b7160e01b600052602260045260246000fd5b91607f1691611d8e565b818110611dc4575050565b60008155600101611db9565b9190601f8111611ddf57505050565b611e0b926000526020600020906020601f840160051c83019310611e0d575b601f0160051c0190611db9565b565b9091508190611dfe565b91909182516001600160401b038111611b5f57611e3e81611e388454611d7f565b84611dd0565b602080601f8311600114611e7a575081929394600092611e6f575b50508160011b916000199060031b1c1916179055565b015190503880611e59565b90601f198316958460005282600020926000905b888210611ec657505083600195969710611ead575b505050811b019055565b015160001960f88460031b161c19169055388080611ea3565b80600185968294968601518155019501930190611e8e565b805468010000000000000000811015611b5f57611f0091600182018155611d51565b919091611f1057611e0b91611e17565b634e487b7160e01b600052600060045260246000fd5b611f3e90602060405192828480945193849201611c55565b810103902090565b9060405191826000825492611f5a84611d7f565b908184526001948581169081600014611fc75750600114611f84575b5050611e0b92500383611bad565b9093915060005260209081600020936000915b818310611faf575050611e0b93508201013880611f76565b85548884018501529485019487945091830191611f97565b915050611e0b94506020925060ff191682840152151560051b8201013880611f76565b909161200161200f93604084526040840190611c78565b916020818403910152611c78565b90565b1561201957565b60405162461bcd60e51b8152602060048201526015602482015274151d5c9d1b1948191bd95cc81b9bdd08195e1a5cdd605a1b6044820152606490fd5b60001981146120655760010190565b634e487b7160e01b600052601160045260246000fd5b60009291815461208a81611d7f565b926001918083169081156120e357506001146120a7575b50505050565b90919293945060005260209081600020906000915b8583106120d257505050500190388080806120a1565b8054858401529183019181016120bc565b60ff19168452505050811515909102019150388080806120a1565b908082146121d6576121108154611d7f565b906001600160401b038211611b5f5781906121358261212f8654611d7f565b86611dd0565b600090601f831160011461216b576000926121605750508160011b916000199060031b1c1916179055565b015490503880611e59565b81526020808220858352818320935090601f1985169083905b8282106121bd5750509084600195949392106121a457505050811b019055565b015460001960f88460031b161c19169055388080611ea3565b8495819295850154815560018091019601940190612184565b505056fea264697066735822122020495b34f8cbfe24d50268f01aa08bbc84f0e3128c9ba7bf83cd078a4a1b267664736f6c63430008120033",
					"opcodes": "PUSH1 0x80 DUP1 PUSH1 0x40 MSTORE CALLVALUE PUSH2 0x5B JUMPI PUSH1 0x0 DUP1 SLOAD CALLER PUSH1 0x1 PUSH1 0x1 PUSH1 0xA0 SHL SUB NOT DUP3 AND DUP2 OR DUP4 SSTORE SWAP2 PUSH1 0x1 PUSH1 0x1 PUSH1 0xA0 SHL SUB SWAP1 SWAP2 AND SWAP1 PUSH32 0x8BE0079C531659141344CD1FD0A4F28419497F9722A3DAAFE3B4186F6B6457E0 SWAP1 DUP1 LOG3 PUSH2 0x2210 SWAP1 DUP2 PUSH2 0x61 DUP3 CODECOPY RETURN JUMPDEST PUSH1 0x0 DUP1 REVERT INVALID PUSH1 0x80 PUSH1 0x40 MSTORE PUSH1 0x4 CALLDATASIZE LT ISZERO PUSH2 0x12 JUMPI PUSH1 0x0 DUP1 REVERT JUMPDEST PUSH1 0x0 CALLDATALOAD PUSH1 0xE0 SHR DUP1 PUSH4 0x1294FFCF EQ PUSH2 0x1B0A JUMPI DUP1 PUSH4 0x17AA1F48 EQ PUSH2 0x196F JUMPI DUP1 PUSH4 0x18E1A28A EQ PUSH2 0x17B0 JUMPI DUP1 PUSH4 0x1A0642EF EQ PUSH2 0x1581 JUMPI DUP1 PUSH4 0x1B979AF1 EQ PUSH2 0x1535 JUMPI DUP1 PUSH4 0x229AA914 EQ PUSH2 0x14DF JUMPI DUP1 PUSH4 0x22D2378F EQ PUSH2 0x14A5 JUMPI DUP1 PUSH4 0x358A3D37 EQ PUSH2 0x10E8 JUMPI DUP1 PUSH4 0x482346BD EQ PUSH2 0x1061 JUMPI DUP1 PUSH4 0x596C442A EQ PUSH2 0xE51 JUMPI DUP1 PUSH4 0x673AE4C1 EQ PUSH2 0xB66 JUMPI DUP1 PUSH4 0x6C1DCAF8 EQ PUSH2 0x895 JUMPI DUP1 PUSH4 0x715018A6 EQ PUSH2 0x83C JUMPI DUP1 PUSH4 0x7CA2D3CD EQ PUSH2 0x72D JUMPI DUP1 PUSH4 0x8DA5CB5B EQ PUSH2 0x704 JUMPI DUP1 PUSH4 0x997480E5 EQ PUSH2 0x65C JUMPI DUP1 PUSH4 0xCE5F0B7D EQ PUSH2 0x21B JUMPI DUP1 PUSH4 0xF2FDE38B EQ PUSH2 0x150 JUMPI PUSH4 0xF3CB197D EQ PUSH2 0xED JUMPI PUSH1 0x0 DUP1 REVERT JUMPDEST CALLVALUE PUSH2 0x14B JUMPI PUSH1 0x20 CALLDATASIZE PUSH1 0x3 NOT ADD SLT PUSH2 0x14B JUMPI PUSH1 0x4 CALLDATALOAD PUSH1 0x1 PUSH1 0x1 PUSH1 0x40 SHL SUB DUP2 GT PUSH2 0x14B JUMPI PUSH1 0x4 PUSH2 0x137 PUSH1 0x20 PUSH2 0x124 DUP2 SWAP5 CALLDATASIZE SWAP1 DUP6 ADD PUSH2 0x1BCE JUMP JUMPDEST DUP2 PUSH1 0x40 MLOAD SWAP4 DUP3 DUP6 DUP1 SWAP5 MLOAD SWAP4 DUP5 SWAP3 ADD PUSH2 0x1C55 JUMP JUMPDEST DUP2 ADD PUSH1 0x1 DUP2 MSTORE SUB ADD SWAP1 KECCAK256 ADD SLOAD PUSH1 0x40 MLOAD SWAP1 DUP2 MSTORE RETURN JUMPDEST PUSH1 0x0 DUP1 REVERT JUMPDEST CALLVALUE PUSH2 0x14B JUMPI PUSH1 0x20 CALLDATASIZE PUSH1 0x3 NOT ADD SLT PUSH2 0x14B JUMPI PUSH1 0x4 CALLDATALOAD PUSH1 0x1 PUSH1 0x1 PUSH1 0xA0 SHL SUB DUP2 DUP2 AND SWAP2 DUP3 SWAP1 SUB PUSH2 0x14B JUMPI PUSH2 0x17F PUSH2 0x1CAD JUMP JUMPDEST DUP2 ISZERO PUSH2 0x1C7 JUMPI PUSH1 0x0 SLOAD DUP3 PUSH12 0xFFFFFFFFFFFFFFFFFFFFFFFF PUSH1 0xA0 SHL DUP3 AND OR PUSH1 0x0 SSTORE AND PUSH32 0x8BE0079C531659141344CD1FD0A4F28419497F9722A3DAAFE3B4186F6B6457E0 PUSH1 0x0 DUP1 LOG3 STOP JUMPDEST PUSH1 0x40 MLOAD PUSH3 0x461BCD PUSH1 0xE5 SHL DUP2 MSTORE PUSH1 0x20 PUSH1 0x4 DUP3 ADD MSTORE PUSH1 0x26 PUSH1 0x24 DUP3 ADD MSTORE PUSH32 0x4F776E61626C653A206E6577206F776E657220697320746865207A65726F2061 PUSH1 0x44 DUP3 ADD MSTORE PUSH6 0x646472657373 PUSH1 0xD0 SHL PUSH1 0x64 DUP3 ADD MSTORE PUSH1 0x84 SWAP1 REVERT JUMPDEST CALLVALUE PUSH2 0x14B JUMPI PUSH1 0x60 CALLDATASIZE PUSH1 0x3 NOT ADD SLT PUSH2 0x14B JUMPI PUSH1 0x1 PUSH1 0x1 PUSH1 0x40 SHL SUB PUSH1 0x4 CALLDATALOAD DUP2 DUP2 GT PUSH2 0x14B JUMPI PUSH2 0x24C SWAP1 CALLDATASIZE SWAP1 PUSH1 0x4 ADD PUSH2 0x1BCE JUMP JUMPDEST PUSH1 0x24 SWAP1 DUP2 CALLDATALOAD DUP4 DUP2 GT PUSH2 0x14B JUMPI PUSH2 0x266 SWAP1 CALLDATASIZE SWAP1 PUSH1 0x4 ADD PUSH2 0x1BCE JUMP JUMPDEST SWAP3 PUSH1 0x44 CALLDATALOAD SWAP1 DUP2 GT PUSH2 0x14B JUMPI PUSH2 0x27F SWAP1 CALLDATASIZE SWAP1 PUSH1 0x4 ADD PUSH2 0x1BCE JUMP JUMPDEST SWAP2 PUSH1 0x40 MLOAD DUP3 MLOAD SWAP2 PUSH1 0x20 SWAP2 PUSH2 0x2B6 PUSH1 0xFF PUSH1 0x9 DUP6 DUP9 ADD SWAP7 PUSH2 0x29F DUP2 DUP7 DUP11 PUSH2 0x1C55 JUMP JUMPDEST DUP5 ADD SWAP4 DUP7 DUP2 PUSH1 0x1 SWAP7 DUP8 DUP2 MSTORE SUB ADD SWAP1 KECCAK256 ADD SLOAD AND PUSH2 0x2012 JUMP JUMPDEST PUSH1 0x40 MLOAD SWAP4 DUP8 MLOAD DUP5 DUP10 ADD SWAP1 PUSH2 0x2CB DUP2 DUP9 DUP5 PUSH2 0x1C55 JUMP JUMPDEST DUP7 ADD SWAP6 DUP6 DUP2 PUSH1 0x2 SWAP9 DUP10 DUP2 MSTORE SUB ADD SWAP1 KECCAK256 SLOAD ISZERO PUSH2 0x60D JUMPI PUSH1 0x0 DUP4 DUP2 DUP2 JUMPDEST PUSH2 0x563 JUMPI JUMPDEST POP POP ISZERO PUSH2 0x514 JUMPI DUP5 PUSH2 0x308 SWAP2 PUSH1 0x40 MLOAD DUP1 SWAP4 DUP2 SWAP3 DUP14 MLOAD SWAP3 DUP4 SWAP2 PUSH2 0x1C55 JUMP JUMPDEST DUP2 ADD DUP9 DUP2 MSTORE SUB ADD SWAP1 KECCAK256 SWAP1 PUSH1 0x0 DUP4 JUMPDEST PUSH2 0x38A JUMPI JUMPDEST DUP10 DUP10 PUSH2 0x362 PUSH2 0x35C PUSH2 0x356 DUP13 PUSH2 0x351 DUP2 DUP15 DUP15 PUSH1 0x40 MLOAD DUP1 SWAP3 DUP3 PUSH2 0x343 DUP13 DUP5 DUP2 MLOAD SWAP4 DUP5 SWAP3 ADD PUSH2 0x1C55 JUMP JUMPDEST DUP3 ADD SWAP1 DUP2 MSTORE SUB ADD SWAP1 KECCAK256 PUSH2 0x1EDE JUMP JUMPDEST PUSH2 0x1F26 JUMP JUMPDEST SWAP4 PUSH2 0x1F26 JUMP JUMPDEST SWAP2 PUSH2 0x1F26 JUMP JUMPDEST SWAP2 PUSH32 0x80D739977BB0030FD7E876DC1CA9A667ADFC1B71FEA4820C4266DE2EE6D6C657 PUSH1 0x0 DUP1 LOG4 STOP JUMPDEST DUP3 SLOAD DUP1 DUP3 LT ISZERO PUSH2 0x50E JUMPI SWAP1 DUP4 SWAP3 SWAP2 PUSH2 0x3A3 DUP3 DUP8 SWAP7 PUSH2 0x1D51 JUMP JUMPDEST POP PUSH1 0x40 MLOAD PUSH2 0x3C6 DUP2 PUSH2 0x3B8 DUP13 DUP3 ADD DUP1 SWAP6 PUSH2 0x207B JUMP JUMPDEST SUB PUSH1 0x1F NOT DUP2 ADD DUP4 MSTORE DUP3 PUSH2 0x1BAD JUMP JUMPDEST MLOAD SWAP1 KECCAK256 DUP11 PUSH1 0x40 MLOAD PUSH2 0x3EF DUP12 DUP3 DUP2 DUP2 ADD SWAP5 MLOAD PUSH2 0x3E2 DUP2 DUP8 DUP13 PUSH2 0x1C55 JUMP JUMPDEST DUP2 ADD SUB DUP1 DUP5 MSTORE ADD DUP3 PUSH2 0x1BAD JUMP JUMPDEST MLOAD SWAP1 KECCAK256 EQ PUSH2 0x40A JUMPI JUMPDEST POP PUSH2 0x402 SWAP1 PUSH2 0x2056 JUMP JUMPDEST SWAP1 SWAP2 SWAP3 PUSH2 0x316 JUMP JUMPDEST SWAP3 SWAP4 POP SWAP1 SWAP2 PUSH1 0x0 NOT SWAP1 DUP2 DUP2 ADD SWAP1 DUP2 GT PUSH2 0x4F9 JUMPI PUSH2 0x427 SWAP1 DUP6 PUSH2 0x1D51 JUMP JUMPDEST POP PUSH2 0x432 DUP4 DUP7 PUSH2 0x1D51 JUMP JUMPDEST PUSH2 0x4E4 JUMPI SWAP1 PUSH2 0x440 SWAP2 PUSH2 0x20FE JUMP JUMPDEST DUP4 SLOAD DUP1 ISZERO PUSH2 0x4CF JUMPI ADD PUSH2 0x453 DUP2 DUP6 PUSH2 0x1D51 JUMP JUMPDEST PUSH2 0x4BA JUMPI SWAP2 PUSH2 0x402 SWAP2 DUP4 PUSH2 0x46A DUP9 SWAP8 SWAP7 SWAP6 SLOAD PUSH2 0x1D7F JUMP JUMPDEST SWAP1 DUP2 PUSH2 0x47B JUMPI JUMPDEST POP POP DUP5 SSTORE SWAP1 PUSH2 0x3F8 JUMP JUMPDEST PUSH1 0x0 SWAP2 PUSH1 0x1F DUP13 DUP2 DUP4 GT PUSH1 0x1 EQ PUSH2 0x497 JUMPI POP POP POP SSTORE JUMPDEST DUP14 DUP1 PUSH2 0x471 JUMP JUMPDEST DUP4 SWAP2 PUSH2 0x4B3 SWAP2 DUP7 SWAP5 SWAP6 DUP6 MSTORE DUP5 KECCAK256 SWAP5 ADD PUSH1 0x5 SHR DUP5 ADD DUP12 DUP6 ADD PUSH2 0x1DB9 JUMP JUMPDEST SSTORE SSTORE PUSH2 0x490 JUMP JUMPDEST DUP7 PUSH4 0x4E487B71 PUSH1 0xE0 SHL PUSH1 0x0 MSTORE PUSH1 0x0 PUSH1 0x4 MSTORE PUSH1 0x0 REVERT JUMPDEST DUP7 PUSH4 0x4E487B71 PUSH1 0xE0 SHL PUSH1 0x0 MSTORE PUSH1 0x31 PUSH1 0x4 MSTORE PUSH1 0x0 REVERT JUMPDEST DUP8 PUSH4 0x4E487B71 PUSH1 0xE0 SHL PUSH1 0x0 MSTORE PUSH1 0x0 PUSH1 0x4 MSTORE PUSH1 0x0 REVERT JUMPDEST DUP7 PUSH4 0x4E487B71 PUSH1 0xE0 SHL PUSH1 0x0 MSTORE PUSH1 0x11 PUSH1 0x4 MSTORE PUSH1 0x0 REVERT JUMPDEST POP PUSH2 0x31B JUMP JUMPDEST PUSH1 0x40 MLOAD PUSH3 0x461BCD PUSH1 0xE5 SHL DUP2 MSTORE PUSH1 0x4 DUP2 ADD DUP7 SWAP1 MSTORE PUSH1 0x22 DUP2 DUP7 ADD MSTORE PUSH32 0x4F6C64206F776E657220646F6573206E6F74206F776E20746869732074757274 PUSH1 0x44 DUP3 ADD MSTORE PUSH2 0x6C65 PUSH1 0xF0 SHL PUSH1 0x64 DUP3 ADD MSTORE PUSH1 0x84 SWAP1 REVERT JUMPDEST DUP8 DUP13 DUP11 PUSH1 0x40 MLOAD DUP4 DUP2 DUP5 MLOAD PUSH2 0x578 DUP2 DUP4 DUP14 PUSH2 0x1C55 JUMP JUMPDEST DUP2 ADD DUP5 DUP2 MSTORE SUB ADD SWAP1 KECCAK256 SLOAD DUP5 LT ISZERO PUSH2 0x605 JUMPI PUSH2 0x5AF SWAP3 DUP5 SWAP3 PUSH1 0x40 MLOAD SWAP3 DUP4 SWAP2 MLOAD PUSH2 0x5A1 DUP2 DUP5 DUP14 PUSH2 0x1C55 JUMP JUMPDEST DUP3 ADD SWAP1 DUP2 MSTORE SUB ADD SWAP1 KECCAK256 PUSH2 0x1D51 JUMP JUMPDEST POP PUSH1 0x40 MLOAD PUSH2 0x5C4 DUP2 PUSH2 0x3B8 DUP13 DUP3 ADD DUP1 SWAP6 PUSH2 0x207B JUMP JUMPDEST MLOAD SWAP1 KECCAK256 DUP6 DUP12 PUSH2 0x5E4 DUP12 PUSH1 0x40 MLOAD DUP1 SWAP4 PUSH2 0x3E2 DUP4 DUP4 ADD SWAP7 DUP8 SWAP3 MLOAD SWAP3 DUP4 SWAP2 PUSH2 0x1C55 JUMP JUMPDEST MLOAD SWAP1 KECCAK256 EQ PUSH2 0x5FB JUMPI PUSH2 0x5F5 SWAP1 PUSH2 0x2056 JUMP JUMPDEST DUP2 PUSH2 0x2E6 JUMP JUMPDEST POP SWAP1 POP DUP4 DUP12 PUSH2 0x2EB JUMP JUMPDEST POP POP POP PUSH2 0x2EB JUMP JUMPDEST PUSH1 0x40 MLOAD PUSH3 0x461BCD PUSH1 0xE5 SHL DUP2 MSTORE PUSH1 0x4 DUP2 ADD DUP7 SWAP1 MSTORE PUSH1 0x22 DUP2 DUP7 ADD MSTORE PUSH32 0x4F6C64206F776E657220646F6573206E6F74206F776E20616E7920747572746C PUSH1 0x44 DUP3 ADD MSTORE PUSH2 0x6573 PUSH1 0xF0 SHL PUSH1 0x64 DUP3 ADD MSTORE PUSH1 0x84 SWAP1 REVERT JUMPDEST CALLVALUE PUSH2 0x14B JUMPI PUSH1 0x20 CALLDATASIZE PUSH1 0x3 NOT ADD SLT PUSH2 0x14B JUMPI PUSH1 0x4 CALLDATALOAD PUSH1 0x1 PUSH1 0x1 PUSH1 0x40 SHL SUB DUP2 GT PUSH2 0x14B JUMPI PUSH1 0x5 PUSH2 0x6D8 PUSH1 0x20 PUSH2 0x696 PUSH2 0x700 SWAP5 CALLDATASIZE SWAP1 PUSH1 0x4 ADD PUSH2 0x1BCE JUMP JUMPDEST PUSH1 0x40 MLOAD SWAP1 PUSH2 0x6C7 PUSH1 0xFF PUSH1 0x9 DUP4 MLOAD SWAP5 DUP7 DUP2 DUP2 DUP8 ADD SWAP8 PUSH2 0x6B5 DUP2 DUP4 DUP12 PUSH2 0x1C55 JUMP JUMPDEST DUP2 ADD PUSH1 0x1 DUP2 MSTORE SUB ADD SWAP1 KECCAK256 ADD SLOAD AND PUSH2 0x2012 JUMP JUMPDEST PUSH1 0x40 MLOAD SWAP4 DUP5 SWAP3 DUP4 SWAP3 MLOAD SWAP3 DUP4 SWAP2 PUSH2 0x1C55 JUMP JUMPDEST PUSH1 0x1 SWAP1 DUP3 ADD SWAP1 DUP2 MSTORE SUB ADD SWAP1 KECCAK256 ADD SLOAD PUSH1 0x40 DUP1 MLOAD DUP3 ISZERO ISZERO DUP2 MSTORE PUSH1 0x20 DUP2 ADD SWAP3 SWAP1 SWAP3 MSTORE SWAP1 SWAP2 DUP3 SWAP2 DUP3 ADD SWAP1 JUMP JUMPDEST SUB SWAP1 RETURN JUMPDEST CALLVALUE PUSH2 0x14B JUMPI PUSH1 0x0 CALLDATASIZE PUSH1 0x3 NOT ADD SLT PUSH2 0x14B JUMPI PUSH1 0x0 SLOAD PUSH1 0x40 MLOAD PUSH1 0x1 PUSH1 0x1 PUSH1 0xA0 SHL SUB SWAP1 SWAP2 AND DUP2 MSTORE PUSH1 0x20 SWAP1 RETURN JUMPDEST CALLVALUE PUSH2 0x14B JUMPI PUSH1 0x60 CALLDATASIZE PUSH1 0x3 NOT ADD SLT PUSH2 0x14B JUMPI PUSH1 0x1 PUSH1 0x1 PUSH1 0x40 SHL SUB PUSH1 0x4 CALLDATALOAD DUP2 DUP2 GT PUSH2 0x14B JUMPI PUSH2 0x75E SWAP1 CALLDATASIZE SWAP1 PUSH1 0x4 ADD PUSH2 0x1BCE JUMP JUMPDEST SWAP1 PUSH1 0x24 CALLDATALOAD SWAP1 DUP2 GT PUSH2 0x14B JUMPI PUSH2 0x35C PUSH2 0x77D PUSH2 0x814 SWAP3 CALLDATASIZE SWAP1 PUSH1 0x4 ADD PUSH2 0x1BCE JUMP JUMPDEST SWAP3 PUSH2 0x786 PUSH2 0x1CAD JUMP JUMPDEST PUSH1 0x9 PUSH2 0x7CE PUSH1 0x20 PUSH1 0x40 MLOAD PUSH2 0x7BD PUSH1 0xFF DUP6 DUP8 MLOAD SWAP4 DUP6 DUP2 DUP2 DUP12 ADD SWAP7 PUSH2 0x7AA DUP2 DUP4 DUP11 PUSH2 0x1C55 JUMP JUMPDEST DUP2 ADD PUSH1 0x1 DUP2 MSTORE SUB ADD SWAP1 KECCAK256 ADD SLOAD AND ISZERO PUSH2 0x1D05 JUMP JUMPDEST PUSH1 0x40 MLOAD DUP1 SWAP4 DUP2 SWAP3 DUP8 MLOAD SWAP3 DUP4 SWAP2 PUSH2 0x1C55 JUMP JUMPDEST DUP2 ADD PUSH1 0x1 DUP2 MSTORE SUB ADD SWAP1 KECCAK256 PUSH1 0x44 CALLDATALOAD PUSH1 0x8 DUP3 ADD SSTORE ADD PUSH1 0x1 PUSH1 0xFF NOT DUP3 SLOAD AND OR SWAP1 SSTORE PUSH2 0x351 DUP2 PUSH1 0x40 MLOAD PUSH1 0x20 DUP2 DUP9 MLOAD PUSH2 0x805 DUP2 DUP4 DUP6 DUP14 ADD PUSH2 0x1C55 JUMP JUMPDEST DUP2 ADD PUSH1 0x2 DUP2 MSTORE SUB ADD SWAP1 KECCAK256 PUSH2 0x1EDE JUMP JUMPDEST SWAP1 PUSH32 0x7D904E478DF0F515C7058DF56A2295C88F46C97F269F153CB964C1574E4AD9E8 PUSH1 0x0 DUP1 LOG3 STOP JUMPDEST CALLVALUE PUSH2 0x14B JUMPI PUSH1 0x0 CALLDATASIZE PUSH1 0x3 NOT ADD SLT PUSH2 0x14B JUMPI PUSH2 0x855 PUSH2 0x1CAD JUMP JUMPDEST PUSH1 0x0 DUP1 SLOAD PUSH1 0x1 PUSH1 0x1 PUSH1 0xA0 SHL SUB NOT DUP2 AND DUP3 SSTORE PUSH1 0x1 PUSH1 0x1 PUSH1 0xA0 SHL SUB AND PUSH32 0x8BE0079C531659141344CD1FD0A4F28419497F9722A3DAAFE3B4186F6B6457E0 DUP3 DUP1 LOG3 STOP JUMPDEST CALLVALUE PUSH2 0x14B JUMPI PUSH2 0x120 CALLDATASIZE PUSH1 0x3 NOT ADD SLT PUSH2 0x14B JUMPI PUSH1 0x1 PUSH1 0x1 PUSH1 0x40 SHL SUB PUSH1 0x4 CALLDATALOAD DUP2 DUP2 GT PUSH2 0x14B JUMPI PUSH2 0x8C7 SWAP1 CALLDATASIZE SWAP1 PUSH1 0x4 ADD PUSH2 0x1BCE JUMP JUMPDEST SWAP1 PUSH1 0x24 CALLDATALOAD DUP2 DUP2 GT PUSH2 0x14B JUMPI PUSH2 0x8E0 SWAP1 CALLDATASIZE SWAP1 PUSH1 0x4 ADD PUSH2 0x1BCE JUMP JUMPDEST SWAP1 PUSH1 0x64 CALLDATALOAD DUP2 DUP2 GT PUSH2 0x14B JUMPI PUSH2 0x8F9 SWAP1 CALLDATASIZE SWAP1 PUSH1 0x4 ADD PUSH2 0x1BCE JUMP JUMPDEST PUSH2 0x901 PUSH2 0x1C9D JUMP JUMPDEST SWAP4 PUSH1 0xA4 CALLDATALOAD DUP4 DUP2 GT PUSH2 0x14B JUMPI PUSH2 0x91A SWAP1 CALLDATASIZE SWAP1 PUSH1 0x4 ADD PUSH2 0x1BCE JUMP JUMPDEST SWAP2 PUSH1 0xC4 CALLDATALOAD DUP5 DUP2 GT PUSH2 0x14B JUMPI PUSH2 0x933 SWAP1 CALLDATASIZE SWAP1 PUSH1 0x4 ADD PUSH2 0x1BCE JUMP JUMPDEST SWAP3 PUSH1 0xE4 CALLDATALOAD DUP6 DUP2 GT PUSH2 0x14B JUMPI PUSH2 0x94C SWAP1 CALLDATASIZE SWAP1 PUSH1 0x4 ADD PUSH2 0x1BCE JUMP JUMPDEST SWAP7 PUSH2 0x104 CALLDATALOAD SWAP6 DUP7 GT PUSH2 0x14B JUMPI PUSH1 0x20 SWAP8 PUSH2 0xA99 PUSH2 0x35C SWAP7 PUSH2 0xA61 DUP11 SWAP6 PUSH2 0xACF SWAP6 PUSH2 0x9E5 PUSH2 0xB05 SWAP10 DUP16 PUSH2 0x9C4 PUSH2 0xB31 SWAP16 SWAP2 DUP15 PUSH2 0x124 PUSH2 0x98F PUSH1 0x2 SWAP6 CALLDATASIZE SWAP1 PUSH1 0x4 ADD PUSH2 0x1BCE JUMP JUMPDEST SWAP15 DUP6 PUSH1 0x40 MLOAD DUP6 DUP2 DUP7 MLOAD PUSH2 0x9A5 DUP2 DUP4 DUP6 DUP12 ADD PUSH2 0x1C55 JUMP JUMPDEST PUSH1 0x1 DUP2 DUP4 ADD MSTORE DUP2 ADD SUB ADD SWAP1 KECCAK256 ADD PUSH1 0x44 CALLDATALOAD PUSH1 0x0 MSTORE DUP5 MSTORE PUSH1 0x40 PUSH1 0x0 KECCAK256 PUSH2 0x1E17 JUMP JUMPDEST DUP2 ADD PUSH1 0x1 DUP2 MSTORE SUB ADD SWAP1 KECCAK256 ADD PUSH1 0x44 CALLDATALOAD PUSH1 0x0 MSTORE PUSH1 0x20 MSTORE PUSH1 0x1 PUSH1 0x40 PUSH1 0x0 KECCAK256 ADD PUSH2 0x1E17 JUMP JUMPDEST PUSH1 0x2 PUSH2 0x9FF DUP16 DUP13 DUP2 PUSH1 0x40 MLOAD SWAP4 DUP3 DUP6 DUP1 SWAP5 MLOAD SWAP4 DUP5 SWAP3 ADD PUSH2 0x1C55 JUMP JUMPDEST DUP2 ADD PUSH1 0x1 DUP2 MSTORE SUB ADD SWAP1 KECCAK256 ADD PUSH1 0x44 CALLDATALOAD PUSH1 0x0 MSTORE DUP15 MSTORE PUSH1 0xFF PUSH1 0x2 PUSH1 0x40 PUSH1 0x0 KECCAK256 ADD SWAP2 AND PUSH1 0xFF NOT DUP3 SLOAD AND OR SWAP1 SSTORE PUSH1 0x2 PUSH2 0xA41 DUP15 DUP12 DUP2 PUSH1 0x40 MLOAD SWAP4 DUP3 DUP6 DUP1 SWAP5 MLOAD SWAP4 DUP5 SWAP3 ADD PUSH2 0x1C55 JUMP JUMPDEST DUP2 ADD PUSH1 0x1 DUP2 MSTORE SUB ADD SWAP1 KECCAK256 ADD PUSH1 0x44 CALLDATALOAD PUSH1 0x0 MSTORE DUP14 MSTORE PUSH1 0x3 PUSH1 0x40 PUSH1 0x0 KECCAK256 ADD PUSH2 0x1E17 JUMP JUMPDEST PUSH1 0x2 PUSH1 0x40 MLOAD DUP13 DUP2 DUP2 PUSH2 0xA79 DUP13 DUP4 DUP2 MLOAD SWAP4 DUP5 SWAP3 ADD PUSH2 0x1C55 JUMP JUMPDEST DUP2 ADD PUSH1 0x1 DUP2 MSTORE SUB ADD SWAP1 KECCAK256 ADD PUSH1 0x44 CALLDATALOAD PUSH1 0x0 MSTORE DUP12 MSTORE PUSH1 0x4 PUSH1 0x40 PUSH1 0x0 KECCAK256 ADD PUSH2 0x1E17 JUMP JUMPDEST PUSH1 0x2 PUSH1 0x40 MLOAD DUP11 DUP2 DUP9 MLOAD PUSH2 0xAAF DUP2 DUP4 DUP6 DUP14 ADD PUSH2 0x1C55 JUMP JUMPDEST DUP2 ADD PUSH1 0x1 DUP2 MSTORE SUB ADD SWAP1 KECCAK256 ADD PUSH1 0x44 CALLDATALOAD PUSH1 0x0 MSTORE DUP10 MSTORE PUSH1 0x5 PUSH1 0x40 PUSH1 0x0 KECCAK256 ADD PUSH2 0x1E17 JUMP JUMPDEST PUSH1 0x2 PUSH1 0x40 MLOAD DUP9 DUP2 DUP7 MLOAD PUSH2 0xAE5 DUP2 DUP4 DUP6 DUP12 ADD PUSH2 0x1C55 JUMP JUMPDEST DUP2 ADD PUSH1 0x1 DUP2 MSTORE SUB ADD SWAP1 KECCAK256 ADD PUSH1 0x44 CALLDATALOAD PUSH1 0x0 MSTORE DUP8 MSTORE PUSH1 0x6 PUSH1 0x40 PUSH1 0x0 KECCAK256 ADD PUSH2 0x1E17 JUMP JUMPDEST PUSH1 0x40 MLOAD PUSH1 0x7 DUP3 MLOAD PUSH2 0xB19 DUP2 DUP5 DUP11 DUP8 ADD PUSH2 0x1C55 JUMP JUMPDEST DUP3 ADD SWAP2 PUSH1 0x1 DUP4 MSTORE DUP8 DUP2 PUSH1 0x44 CALLDATALOAD SWAP5 SUB ADD SWAP1 KECCAK256 ADD SSTORE PUSH2 0x1F26 JUMP JUMPDEST SWAP1 PUSH1 0x40 MLOAD SWAP2 PUSH1 0x44 CALLDATALOAD SWAP2 PUSH32 0xBF4FF8EFB9C111A99679D7A6A4263272C5FA30A2FA39BEC8F6E4CE26902FC0BE PUSH1 0x0 DUP1 LOG4 PUSH1 0x44 CALLDATALOAD DUP2 MSTORE RETURN JUMPDEST CALLVALUE PUSH2 0x14B JUMPI PUSH1 0x20 PUSH2 0xBF1 PUSH2 0xB79 CALLDATASIZE PUSH2 0x1C24 JUMP JUMPDEST SWAP3 SWAP1 PUSH1 0x60 PUSH2 0x1A0 PUSH1 0x40 MLOAD PUSH2 0xB8C DUP2 PUSH2 0x1B91 JUMP JUMPDEST DUP3 DUP2 MSTORE PUSH1 0x0 DUP6 DUP3 ADD MSTORE DUP3 PUSH1 0x40 DUP3 ADD MSTORE DUP3 DUP1 DUP3 ADD MSTORE DUP3 PUSH1 0x80 DUP3 ADD MSTORE DUP3 PUSH1 0xA0 DUP3 ADD MSTORE DUP3 PUSH1 0xC0 DUP3 ADD MSTORE DUP3 PUSH1 0xE0 DUP3 ADD MSTORE DUP3 PUSH2 0x100 DUP3 ADD MSTORE PUSH1 0x0 PUSH2 0x120 DUP3 ADD MSTORE DUP3 PUSH2 0x140 DUP3 ADD MSTORE DUP3 PUSH2 0x160 DUP3 ADD MSTORE DUP3 PUSH2 0x180 DUP3 ADD MSTORE ADD MSTORE DUP2 PUSH1 0x40 MLOAD SWAP4 DUP3 DUP6 DUP1 SWAP5 MLOAD SWAP4 DUP5 SWAP3 ADD PUSH2 0x1C55 JUMP JUMPDEST DUP2 ADD PUSH1 0x1 DUP2 MSTORE SUB ADD SWAP1 KECCAK256 SWAP1 PUSH1 0x0 MSTORE PUSH1 0x20 MSTORE PUSH2 0xD61 PUSH1 0x40 PUSH1 0x0 KECCAK256 PUSH2 0xCF3 PUSH1 0xD PUSH1 0x40 MLOAD SWAP3 PUSH2 0xC1C DUP5 PUSH2 0x1B91 JUMP JUMPDEST PUSH2 0xC25 DUP2 PUSH2 0x1F46 JUMP JUMPDEST DUP5 MSTORE PUSH1 0xFF PUSH1 0x1 DUP3 ADD SLOAD AND PUSH1 0x20 DUP6 ADD MSTORE PUSH2 0xC40 PUSH1 0x2 DUP3 ADD PUSH2 0x1F46 JUMP JUMPDEST PUSH1 0x40 DUP6 ADD MSTORE PUSH2 0xC51 PUSH1 0x3 DUP3 ADD PUSH2 0x1F46 JUMP JUMPDEST PUSH1 0x60 DUP6 ADD MSTORE PUSH2 0xC62 PUSH1 0x4 DUP3 ADD PUSH2 0x1F46 JUMP JUMPDEST PUSH1 0x80 DUP6 ADD MSTORE PUSH2 0xC73 PUSH1 0x5 DUP3 ADD PUSH2 0x1F46 JUMP JUMPDEST PUSH1 0xA0 DUP6 ADD MSTORE PUSH2 0xC84 PUSH1 0x6 DUP3 ADD PUSH2 0x1F46 JUMP JUMPDEST PUSH1 0xC0 DUP6 ADD MSTORE PUSH2 0xC95 PUSH1 0x7 DUP3 ADD PUSH2 0x1F46 JUMP JUMPDEST PUSH1 0xE0 DUP6 ADD MSTORE PUSH2 0xCA6 PUSH1 0x8 DUP3 ADD PUSH2 0x1F46 JUMP JUMPDEST PUSH2 0x100 DUP6 ADD MSTORE PUSH1 0x9 DUP2 ADD SLOAD PUSH2 0x120 DUP6 ADD MSTORE PUSH2 0xCC3 PUSH1 0xA DUP3 ADD PUSH2 0x1F46 JUMP JUMPDEST PUSH2 0x140 DUP6 ADD MSTORE PUSH2 0xCD5 PUSH1 0xB DUP3 ADD PUSH2 0x1F46 JUMP JUMPDEST PUSH2 0x160 DUP6 ADD MSTORE PUSH2 0xCE7 PUSH1 0xC DUP3 ADD PUSH2 0x1F46 JUMP JUMPDEST PUSH2 0x180 DUP6 ADD MSTORE ADD PUSH2 0x1F46 JUMP JUMPDEST PUSH2 0x1A0 DUP3 ADD MSTORE PUSH2 0x700 DUP2 PUSH2 0x1A0 PUSH2 0xE3C PUSH2 0xE26 PUSH2 0xE0E PUSH2 0xDEA PUSH2 0xDD2 PUSH2 0xDBB PUSH2 0xDA5 PUSH2 0xD8F PUSH2 0xD79 PUSH1 0x40 MLOAD SWAP14 DUP15 SWAP14 DUP15 PUSH1 0x20 DUP2 MSTORE PUSH1 0x40 PUSH2 0xD40 DUP4 MLOAD PUSH2 0x1C0 PUSH1 0x20 DUP6 ADD MSTORE PUSH2 0x1E0 DUP5 ADD SWAP1 PUSH2 0x1C78 JUMP JUMPDEST SWAP3 PUSH1 0xFF PUSH1 0x20 DUP3 ADD MLOAD AND DUP3 DUP5 ADD MSTORE ADD MLOAD SWAP1 PUSH1 0x60 PUSH1 0x1F NOT DUP3 DUP6 SUB ADD SWAP2 ADD MSTORE PUSH2 0x1C78 JUMP JUMPDEST DUP14 PUSH1 0x60 DUP14 ADD MLOAD SWAP1 PUSH1 0x80 PUSH1 0x1F NOT DUP3 DUP6 SUB ADD SWAP2 ADD MSTORE PUSH2 0x1C78 JUMP JUMPDEST PUSH1 0x80 DUP12 ADD MLOAD DUP14 DUP3 SUB PUSH1 0x1F NOT ADD PUSH1 0xA0 DUP16 ADD MSTORE PUSH2 0x1C78 JUMP JUMPDEST PUSH1 0xA0 DUP11 ADD MLOAD DUP13 DUP3 SUB PUSH1 0x1F NOT ADD PUSH1 0xC0 DUP15 ADD MSTORE PUSH2 0x1C78 JUMP JUMPDEST PUSH1 0xC0 DUP10 ADD MLOAD DUP12 DUP3 SUB PUSH1 0x1F NOT ADD PUSH1 0xE0 DUP14 ADD MSTORE PUSH2 0x1C78 JUMP JUMPDEST PUSH1 0xE0 DUP9 ADD MLOAD DUP11 DUP3 SUB PUSH1 0x1F NOT ADD PUSH2 0x100 DUP13 ADD MSTORE PUSH2 0x1C78 JUMP JUMPDEST PUSH2 0x100 DUP8 ADD MLOAD DUP10 DUP3 SUB PUSH1 0x1F NOT ADD PUSH2 0x120 DUP12 ADD MSTORE PUSH2 0x1C78 JUMP JUMPDEST PUSH2 0x120 DUP7 ADD MLOAD PUSH2 0x140 DUP10 ADD MSTORE PUSH2 0x140 DUP7 ADD MLOAD PUSH1 0x1F NOT DUP10 DUP4 SUB ADD PUSH2 0x160 DUP11 ADD MSTORE PUSH2 0x1C78 JUMP JUMPDEST PUSH2 0x160 DUP6 ADD MLOAD DUP8 DUP3 SUB PUSH1 0x1F NOT ADD PUSH2 0x180 DUP10 ADD MSTORE PUSH2 0x1C78 JUMP JUMPDEST PUSH2 0x180 DUP5 ADD MLOAD DUP7 DUP3 SUB PUSH1 0x1F NOT ADD DUP5 DUP9 ADD MSTORE PUSH2 0x1C78 JUMP JUMPDEST SWAP2 ADD MLOAD DUP4 DUP3 SUB PUSH1 0x1F NOT ADD PUSH2 0x1C0 DUP6 ADD MSTORE PUSH2 0x1C78 JUMP JUMPDEST CALLVALUE PUSH2 0x14B JUMPI PUSH1 0xE0 CALLDATASIZE PUSH1 0x3 NOT ADD SLT PUSH2 0x14B JUMPI PUSH1 0x1 PUSH1 0x1 PUSH1 0x40 SHL SUB PUSH1 0x4 CALLDATALOAD DUP2 DUP2 GT PUSH2 0x14B JUMPI PUSH2 0xE82 SWAP1 CALLDATASIZE SWAP1 PUSH1 0x4 ADD PUSH2 0x1BCE JUMP JUMPDEST SWAP1 PUSH1 0x24 CALLDATALOAD DUP2 DUP2 GT PUSH2 0x14B JUMPI PUSH2 0xE9B SWAP1 CALLDATASIZE SWAP1 PUSH1 0x4 ADD PUSH2 0x1BCE JUMP JUMPDEST SWAP1 PUSH1 0x44 CALLDATALOAD SWAP2 PUSH1 0x64 CALLDATALOAD DUP3 DUP2 GT PUSH2 0x14B JUMPI PUSH2 0xEB8 SWAP1 CALLDATASIZE SWAP1 PUSH1 0x4 ADD PUSH2 0x1BCE JUMP JUMPDEST SWAP1 PUSH1 0x84 CALLDATALOAD DUP4 DUP2 GT PUSH2 0x14B JUMPI PUSH2 0xED1 SWAP1 CALLDATASIZE SWAP1 PUSH1 0x4 ADD PUSH2 0x1BCE JUMP JUMPDEST SWAP5 PUSH1 0xA4 CALLDATALOAD DUP5 DUP2 GT PUSH2 0x14B JUMPI PUSH2 0xEEA SWAP1 CALLDATASIZE SWAP1 PUSH1 0x4 ADD PUSH2 0x1BCE JUMP JUMPDEST PUSH1 0xC4 CALLDATALOAD SWAP5 DUP6 GT PUSH2 0x14B JUMPI DUP6 SWAP5 PUSH2 0xF04 SWAP1 CALLDATASIZE SWAP1 PUSH1 0x4 ADD PUSH2 0x1BCE JUMP JUMPDEST SWAP1 PUSH1 0x40 MLOAD SWAP1 DUP4 MLOAD SWAP1 PUSH1 0x20 SWAP10 DUP11 DUP7 ADD SWAP3 PUSH2 0xF1E DUP2 DUP7 DUP7 PUSH2 0x1C55 JUMP JUMPDEST DUP5 ADD DUP5 DUP13 PUSH1 0x1 SWAP7 DUP4 DUP9 DUP1 SWAP6 MSTORE SUB ADD SWAP1 KECCAK256 ADD DUP10 PUSH1 0x0 MSTORE DUP12 MSTORE DUP7 PUSH1 0x40 PUSH1 0x0 KECCAK256 SWAP1 PUSH2 0xF45 SWAP2 PUSH2 0x1E17 JUMP JUMPDEST DUP4 PUSH1 0x40 MLOAD DUP13 DUP2 DUP10 MLOAD PUSH2 0xF58 DUP2 DUP4 DUP11 PUSH2 0x1C55 JUMP JUMPDEST DUP2 ADD DUP5 DUP2 MSTORE SUB ADD SWAP1 KECCAK256 ADD DUP10 PUSH1 0x0 MSTORE DUP12 MSTORE DUP8 PUSH1 0x40 PUSH1 0x0 KECCAK256 PUSH1 0x2 ADD SWAP1 PUSH2 0xF7B SWAP2 PUSH2 0x1E17 JUMP JUMPDEST DUP4 PUSH1 0x40 MLOAD DUP13 DUP2 DUP10 MLOAD PUSH2 0xF8E DUP2 DUP4 DUP11 PUSH2 0x1C55 JUMP JUMPDEST DUP2 ADD DUP5 DUP2 MSTORE SUB ADD SWAP1 KECCAK256 ADD DUP10 PUSH1 0x0 MSTORE DUP12 MSTORE PUSH1 0x40 PUSH1 0x0 KECCAK256 PUSH1 0x7 ADD SWAP1 PUSH2 0xFB0 SWAP2 PUSH2 0x1E17 JUMP JUMPDEST DUP3 PUSH1 0x40 MLOAD DUP12 DUP2 DUP9 MLOAD PUSH2 0xFC3 DUP2 DUP4 DUP10 PUSH2 0x1C55 JUMP JUMPDEST DUP2 ADD DUP5 DUP2 MSTORE SUB ADD SWAP1 KECCAK256 ADD DUP9 PUSH1 0x0 MSTORE DUP11 MSTORE PUSH1 0x40 PUSH1 0x0 KECCAK256 PUSH1 0x8 ADD SWAP1 PUSH2 0xFE5 SWAP2 PUSH2 0x1E17 JUMP JUMPDEST DUP9 PUSH1 0x40 MLOAD DUP1 DUP1 SWAP4 DUP8 MLOAD DUP1 SWAP3 PUSH2 0xFF9 SWAP3 PUSH2 0x1C55 JUMP JUMPDEST DUP2 ADD DUP5 DUP2 MSTORE SUB ADD SWAP1 KECCAK256 ADD DUP6 PUSH1 0x0 MSTORE DUP8 MSTORE PUSH1 0x40 PUSH1 0x0 KECCAK256 PUSH1 0x9 ADD SWAP1 PUSH2 0x101B SWAP2 PUSH2 0x1E17 JUMP JUMPDEST PUSH2 0x1024 SWAP1 PUSH2 0x1F26 JUMP JUMPDEST SWAP2 PUSH1 0x40 MLOAD SWAP2 DUP3 SWAP2 PUSH2 0x1035 SWAP2 DUP4 PUSH2 0x1FEA JUMP JUMPDEST SUB PUSH32 0x5900E70E78483B52BBE5C26FE3EDDC846F885A9FE48EFE16ABCDA778278F4F12 SWAP2 LOG3 PUSH1 0x40 MLOAD SWAP1 DUP2 MSTORE RETURN JUMPDEST CALLVALUE PUSH2 0x14B JUMPI PUSH1 0x20 DUP1 PUSH2 0x10D4 PUSH1 0x5 PUSH2 0x1077 CALLDATASIZE PUSH2 0x1C24 JUMP JUMPDEST SWAP4 DUP5 SWAP4 SWAP2 PUSH1 0x40 MLOAD SWAP1 DUP6 PUSH1 0x3 DUP3 MLOAD SWAP4 DUP6 DUP2 DUP2 DUP7 ADD SWAP7 PUSH2 0x1096 DUP2 DUP4 DUP11 PUSH2 0x1C55 JUMP JUMPDEST DUP2 ADD PUSH1 0x1 DUP2 MSTORE SUB ADD SWAP1 KECCAK256 ADD SSTORE DUP6 PUSH1 0x4 PUSH1 0x40 MLOAD DUP6 DUP2 DUP6 MLOAD PUSH2 0x10B7 DUP2 DUP4 DUP11 PUSH2 0x1C55 JUMP JUMPDEST DUP2 ADD PUSH1 0x1 DUP2 MSTORE SUB ADD SWAP1 KECCAK256 ADD SSTORE PUSH1 0x40 MLOAD SWAP4 DUP5 SWAP3 DUP4 SWAP3 MLOAD SWAP3 DUP4 SWAP2 PUSH2 0x1C55 JUMP JUMPDEST DUP2 ADD PUSH1 0x1 DUP2 MSTORE SUB ADD SWAP1 KECCAK256 ADD SSTORE PUSH1 0x40 MLOAD SWAP1 DUP2 MSTORE RETURN JUMPDEST CALLVALUE PUSH2 0x14B JUMPI PUSH2 0x220 CALLDATASIZE PUSH1 0x3 NOT ADD SLT PUSH2 0x14B JUMPI PUSH1 0x1 PUSH1 0x1 PUSH1 0x40 SHL SUB PUSH1 0x4 CALLDATALOAD DUP2 DUP2 GT PUSH2 0x14B JUMPI PUSH2 0x111A SWAP1 CALLDATASIZE SWAP1 PUSH1 0x4 ADD PUSH2 0x1BCE JUMP JUMPDEST PUSH1 0x24 CALLDATALOAD DUP3 DUP2 GT PUSH2 0x14B JUMPI PUSH2 0x1132 SWAP1 CALLDATASIZE SWAP1 PUSH1 0x4 ADD PUSH2 0x1BCE JUMP JUMPDEST SWAP2 PUSH1 0x64 CALLDATALOAD PUSH1 0xFF DUP2 AND DUP2 SUB PUSH2 0x14B JUMPI PUSH1 0x84 CALLDATALOAD DUP3 DUP2 GT PUSH2 0x14B JUMPI PUSH2 0x1158 SWAP1 CALLDATASIZE SWAP1 PUSH1 0x4 ADD PUSH2 0x1BCE JUMP JUMPDEST PUSH1 0xA4 CALLDATALOAD DUP4 DUP2 GT PUSH2 0x14B JUMPI PUSH2 0x1170 SWAP1 CALLDATASIZE SWAP1 PUSH1 0x4 ADD PUSH2 0x1BCE JUMP JUMPDEST PUSH1 0xC4 CALLDATALOAD DUP5 DUP2 GT PUSH2 0x14B JUMPI PUSH2 0x1188 SWAP1 CALLDATASIZE SWAP1 PUSH1 0x4 ADD PUSH2 0x1BCE JUMP JUMPDEST PUSH1 0xE4 CALLDATALOAD DUP6 DUP2 GT PUSH2 0x14B JUMPI PUSH2 0x11A0 SWAP1 CALLDATASIZE SWAP1 PUSH1 0x4 ADD PUSH2 0x1BCE JUMP JUMPDEST PUSH2 0x104 CALLDATALOAD DUP7 DUP2 GT PUSH2 0x14B JUMPI PUSH2 0x11B9 SWAP1 CALLDATASIZE SWAP1 PUSH1 0x4 ADD PUSH2 0x1BCE JUMP JUMPDEST PUSH2 0x124 CALLDATALOAD DUP8 DUP2 GT PUSH2 0x14B JUMPI PUSH2 0x11D2 SWAP1 CALLDATASIZE SWAP1 PUSH1 0x4 ADD PUSH2 0x1BCE JUMP JUMPDEST SWAP1 PUSH2 0x144 CALLDATALOAD DUP9 DUP2 GT PUSH2 0x14B JUMPI PUSH2 0x11EC SWAP1 CALLDATASIZE SWAP1 PUSH1 0x4 ADD PUSH2 0x1BCE JUMP JUMPDEST SWAP3 PUSH2 0x184 CALLDATALOAD DUP10 DUP2 GT PUSH2 0x14B JUMPI PUSH2 0x1206 SWAP1 CALLDATASIZE SWAP1 PUSH1 0x4 ADD PUSH2 0x1BCE JUMP JUMPDEST SWAP5 PUSH2 0x1A4 CALLDATALOAD DUP11 DUP2 GT PUSH2 0x14B JUMPI PUSH2 0x1220 SWAP1 CALLDATASIZE SWAP1 PUSH1 0x4 ADD PUSH2 0x1BCE JUMP JUMPDEST SWAP7 PUSH2 0x1C4 CALLDATALOAD DUP12 DUP2 GT PUSH2 0x14B JUMPI PUSH2 0x123A SWAP1 CALLDATASIZE SWAP1 PUSH1 0x4 ADD PUSH2 0x1BCE JUMP JUMPDEST SWAP9 PUSH2 0x1E4 CALLDATALOAD SWAP12 DUP13 GT PUSH2 0x14B JUMPI DUP14 SWAP12 PUSH2 0x1256 SWAP1 CALLDATASIZE SWAP1 PUSH1 0x4 ADD PUSH2 0x1BCE JUMP JUMPDEST SWAP11 DUP14 PUSH1 0x40 MLOAD SWAP1 DUP1 MLOAD SWAP2 DUP1 PUSH1 0x20 DUP4 ADD SWAP4 PUSH2 0x1270 DUP2 DUP4 DUP8 PUSH2 0x1C55 JUMP JUMPDEST DUP2 ADD PUSH1 0x1 DUP2 MSTORE SUB PUSH1 0x20 ADD SWAP1 KECCAK256 PUSH1 0x9 ADD SLOAD PUSH1 0xFF AND ISZERO PUSH2 0x128D SWAP1 PUSH2 0x1D05 JUMP JUMPDEST PUSH1 0x40 MLOAD DUP1 SWAP3 DUP2 SWAP3 MLOAD DUP1 SWAP3 PUSH2 0x12A0 SWAP3 PUSH2 0x1C55 JUMP JUMPDEST DUP2 ADD PUSH1 0x1 DUP2 MSTORE SUB PUSH1 0x20 ADD SWAP1 KECCAK256 SWAP13 PUSH1 0x44 CALLDATALOAD PUSH1 0x0 MSTORE DUP14 PUSH1 0x20 MSTORE PUSH1 0x40 PUSH1 0x0 KECCAK256 SWAP1 PUSH2 0x12C6 SWAP2 PUSH2 0x1E17 JUMP JUMPDEST PUSH1 0x44 CALLDATALOAD PUSH1 0x0 MSTORE DUP13 PUSH1 0x20 MSTORE PUSH1 0x40 PUSH1 0x0 KECCAK256 SWAP1 PUSH1 0xFF AND PUSH1 0xFF NOT PUSH1 0x1 DUP4 ADD SLOAD AND OR PUSH1 0x1 DUP3 ADD SSTORE PUSH1 0x2 ADD SWAP1 PUSH2 0x12F5 SWAP2 PUSH2 0x1E17 JUMP JUMPDEST PUSH1 0x44 CALLDATALOAD PUSH1 0x0 MSTORE DUP11 PUSH1 0x20 MSTORE PUSH1 0x40 PUSH1 0x0 KECCAK256 PUSH1 0x3 ADD SWAP1 PUSH2 0x1311 SWAP2 PUSH2 0x1E17 JUMP JUMPDEST PUSH1 0x44 CALLDATALOAD PUSH1 0x0 MSTORE DUP10 PUSH1 0x20 MSTORE PUSH1 0x40 PUSH1 0x0 KECCAK256 PUSH1 0x4 ADD SWAP1 PUSH2 0x132D SWAP2 PUSH2 0x1E17 JUMP JUMPDEST PUSH1 0x44 CALLDATALOAD PUSH1 0x0 MSTORE DUP9 PUSH1 0x20 MSTORE PUSH1 0x40 PUSH1 0x0 KECCAK256 PUSH1 0x5 ADD SWAP1 PUSH2 0x1349 SWAP2 PUSH2 0x1E17 JUMP JUMPDEST PUSH1 0x44 CALLDATALOAD PUSH1 0x0 MSTORE DUP8 PUSH1 0x20 MSTORE PUSH1 0x40 PUSH1 0x0 KECCAK256 PUSH1 0x6 ADD SWAP1 PUSH2 0x1365 SWAP2 PUSH2 0x1E17 JUMP JUMPDEST PUSH1 0x44 CALLDATALOAD PUSH1 0x0 MSTORE DUP7 PUSH1 0x20 MSTORE PUSH1 0x40 PUSH1 0x0 KECCAK256 PUSH1 0x7 ADD SWAP1 PUSH2 0x1381 SWAP2 PUSH2 0x1E17 JUMP JUMPDEST PUSH1 0x44 CALLDATALOAD PUSH1 0x0 MSTORE DUP6 PUSH1 0x20 MSTORE PUSH1 0x40 PUSH1 0x0 KECCAK256 PUSH1 0x8 ADD SWAP1 PUSH2 0x139D SWAP2 PUSH2 0x1E17 JUMP JUMPDEST PUSH1 0x44 CALLDATALOAD PUSH1 0x0 MSTORE DUP5 PUSH1 0x20 MSTORE PUSH1 0x40 PUSH1 0x0 KECCAK256 PUSH2 0x164 CALLDATALOAD PUSH1 0x9 DUP3 ADD SSTORE PUSH1 0xA ADD SWAP1 PUSH2 0x13C2 SWAP2 PUSH2 0x1E17 JUMP JUMPDEST PUSH1 0x44 CALLDATALOAD PUSH1 0x0 MSTORE DUP4 PUSH1 0x20 MSTORE PUSH1 0x40 PUSH1 0x0 KECCAK256 PUSH1 0xB ADD SWAP1 PUSH2 0x13DE SWAP2 PUSH2 0x1E17 JUMP JUMPDEST PUSH1 0x44 CALLDATALOAD PUSH1 0x0 MSTORE DUP3 PUSH1 0x20 MSTORE PUSH1 0x40 PUSH1 0x0 KECCAK256 PUSH1 0xC ADD SWAP1 PUSH2 0x13FA SWAP2 PUSH2 0x1E17 JUMP JUMPDEST PUSH1 0x44 CALLDATALOAD PUSH1 0x0 MSTORE DUP2 PUSH1 0x20 MSTORE PUSH1 0x40 PUSH1 0x0 KECCAK256 PUSH1 0xD ADD SWAP1 PUSH2 0x1416 SWAP2 PUSH2 0x1E17 JUMP JUMPDEST PUSH2 0x204 CALLDATALOAD PUSH1 0x8 DUP3 ADD SSTORE PUSH1 0x9 ADD PUSH1 0xFF NOT DUP2 SLOAD AND PUSH1 0x1 OR SWAP1 SSTORE DUP1 PUSH1 0x40 MLOAD DUP1 DUP5 MLOAD DUP2 DUP2 PUSH1 0x20 DUP9 ADD SWAP2 PUSH2 0x1444 SWAP3 PUSH2 0x1C55 JUMP JUMPDEST DUP2 ADD PUSH1 0x2 DUP2 MSTORE SUB PUSH1 0x20 ADD SWAP1 KECCAK256 SWAP1 PUSH2 0x145A SWAP2 PUSH2 0x1EDE JUMP JUMPDEST PUSH2 0x1463 SWAP1 PUSH2 0x1F26 JUMP JUMPDEST SWAP1 PUSH2 0x146D SWAP1 PUSH2 0x1F26 JUMP JUMPDEST SWAP1 PUSH1 0x40 MLOAD SWAP2 PUSH1 0x44 CALLDATALOAD SWAP2 PUSH32 0x406D6A39963B189AE4D4BA0B53780ECDF05DC013E196662687A246B0A2B70548 PUSH1 0x0 DUP1 LOG4 PUSH1 0x44 CALLDATALOAD DUP2 MSTORE PUSH1 0x20 SWAP1 RETURN JUMPDEST CALLVALUE PUSH2 0x14B JUMPI PUSH1 0x20 CALLDATASIZE PUSH1 0x3 NOT ADD SLT PUSH2 0x14B JUMPI PUSH1 0x4 CALLDATALOAD PUSH1 0x1 PUSH1 0x1 PUSH1 0x40 SHL SUB DUP2 GT PUSH2 0x14B JUMPI PUSH1 0x6 PUSH2 0x6D8 PUSH1 0x20 PUSH2 0x696 PUSH2 0x700 SWAP5 CALLDATASIZE SWAP1 PUSH1 0x4 ADD PUSH2 0x1BCE JUMP JUMPDEST CALLVALUE PUSH2 0x14B JUMPI PUSH1 0x4 PUSH2 0x10D4 PUSH1 0x6 PUSH2 0x14F4 CALLDATASIZE PUSH2 0x1C24 JUMP JUMPDEST SWAP3 DUP4 SWAP3 SWAP2 PUSH1 0x40 MLOAD SWAP1 DUP1 MLOAD SWAP1 PUSH1 0x20 SWAP8 DUP4 DUP10 DUP1 SWAP6 DUP2 DUP6 ADD SWAP6 PUSH2 0x1515 DUP2 DUP4 DUP10 PUSH2 0x1C55 JUMP JUMPDEST DUP2 ADD PUSH1 0x1 DUP2 MSTORE SUB ADD SWAP1 KECCAK256 ADD SLOAD PUSH1 0x3 PUSH1 0x40 MLOAD DUP6 DUP2 DUP6 MLOAD PUSH2 0x1096 DUP2 DUP4 DUP11 PUSH2 0x1C55 JUMP JUMPDEST CALLVALUE PUSH2 0x14B JUMPI PUSH1 0x20 DUP1 PUSH1 0x8 PUSH2 0x156C PUSH2 0x154B CALLDATASIZE PUSH2 0x1C24 JUMP JUMPDEST SWAP4 SWAP1 PUSH1 0x40 MLOAD SWAP1 PUSH2 0x6C7 PUSH1 0xFF PUSH1 0x9 DUP4 MLOAD SWAP5 DUP7 DUP2 DUP2 DUP8 ADD SWAP8 PUSH2 0x6B5 DUP2 DUP4 DUP12 PUSH2 0x1C55 JUMP JUMPDEST DUP2 ADD PUSH1 0x1 DUP2 MSTORE SUB ADD SWAP1 KECCAK256 ADD SLOAD EQ PUSH1 0x40 MLOAD SWAP1 DUP2 MSTORE RETURN JUMPDEST CALLVALUE PUSH2 0x14B JUMPI PUSH1 0x20 PUSH1 0x1 PUSH2 0x15F1 PUSH2 0x1596 CALLDATASIZE PUSH2 0x1C24 JUMP JUMPDEST SWAP4 SWAP1 PUSH1 0x60 PUSH2 0x120 PUSH1 0x40 MLOAD PUSH2 0x15A9 DUP2 PUSH2 0x1B75 JUMP JUMPDEST DUP3 DUP2 MSTORE DUP3 DUP6 DUP3 ADD MSTORE DUP3 PUSH1 0x40 DUP3 ADD MSTORE DUP3 DUP1 DUP3 ADD MSTORE PUSH1 0x0 PUSH1 0x80 DUP3 ADD MSTORE DUP3 PUSH1 0xA0 DUP3 ADD MSTORE DUP3 PUSH1 0xC0 DUP3 ADD MSTORE DUP3 PUSH1 0xE0 DUP3 ADD MSTORE DUP3 PUSH2 0x100 DUP3 ADD MSTORE ADD MSTORE DUP2 PUSH1 0x40 MLOAD SWAP4 DUP3 DUP6 DUP1 SWAP5 MLOAD SWAP4 DUP5 SWAP3 ADD PUSH2 0x1C55 JUMP JUMPDEST DUP2 ADD DUP5 DUP2 MSTORE SUB ADD SWAP1 KECCAK256 ADD SWAP1 PUSH1 0x0 MSTORE PUSH1 0x20 MSTORE PUSH2 0x700 PUSH1 0x40 PUSH1 0x0 KECCAK256 PUSH2 0x16B2 PUSH1 0x9 PUSH1 0x40 MLOAD SWAP3 PUSH2 0x161C DUP5 PUSH2 0x1B75 JUMP JUMPDEST PUSH2 0x1625 DUP2 PUSH2 0x1F46 JUMP JUMPDEST DUP5 MSTORE PUSH2 0x1633 PUSH1 0x1 DUP3 ADD PUSH2 0x1F46 JUMP JUMPDEST PUSH1 0x20 DUP6 ADD MSTORE PUSH2 0x1644 PUSH1 0x2 DUP3 ADD PUSH2 0x1F46 JUMP JUMPDEST PUSH1 0x40 DUP6 ADD MSTORE PUSH2 0x1655 PUSH1 0x3 DUP3 ADD PUSH2 0x1F46 JUMP JUMPDEST PUSH1 0x60 DUP6 ADD MSTORE PUSH1 0xFF PUSH1 0x4 DUP3 ADD SLOAD AND PUSH1 0x80 DUP6 ADD MSTORE PUSH2 0x1673 PUSH1 0x5 DUP3 ADD PUSH2 0x1F46 JUMP JUMPDEST PUSH1 0xA0 DUP6 ADD MSTORE PUSH2 0x1684 PUSH1 0x6 DUP3 ADD PUSH2 0x1F46 JUMP JUMPDEST PUSH1 0xC0 DUP6 ADD MSTORE PUSH2 0x1695 PUSH1 0x7 DUP3 ADD PUSH2 0x1F46 JUMP JUMPDEST PUSH1 0xE0 DUP6 ADD MSTORE PUSH2 0x16A6 PUSH1 0x8 DUP3 ADD PUSH2 0x1F46 JUMP JUMPDEST PUSH2 0x100 DUP6 ADD MSTORE ADD PUSH2 0x1F46 JUMP JUMPDEST PUSH2 0x120 DUP3 ADD MSTORE PUSH1 0x40 MLOAD SWAP2 DUP3 SWAP2 PUSH1 0x20 DUP4 MSTORE PUSH2 0x120 PUSH2 0x179B PUSH2 0x1785 PUSH2 0x176E PUSH2 0x1758 PUSH2 0x1735 PUSH2 0x171F PUSH2 0x1709 PUSH2 0x16F3 DUP12 PUSH2 0x140 PUSH1 0x20 DUP13 MLOAD SWAP3 ADD MSTORE PUSH2 0x160 DUP14 ADD SWAP1 PUSH2 0x1C78 JUMP JUMPDEST PUSH1 0x20 DUP11 ADD MLOAD DUP13 DUP3 SUB PUSH1 0x1F NOT ADD PUSH1 0x40 DUP15 ADD MSTORE PUSH2 0x1C78 JUMP JUMPDEST PUSH1 0x40 DUP10 ADD MLOAD DUP12 DUP3 SUB PUSH1 0x1F NOT ADD PUSH1 0x60 DUP14 ADD MSTORE PUSH2 0x1C78 JUMP JUMPDEST PUSH1 0x60 DUP9 ADD MLOAD DUP11 DUP3 SUB PUSH1 0x1F NOT ADD PUSH1 0x80 DUP13 ADD MSTORE PUSH2 0x1C78 JUMP JUMPDEST PUSH1 0xFF PUSH1 0x80 DUP9 ADD MLOAD AND PUSH1 0xA0 DUP11 ADD MSTORE PUSH1 0xA0 DUP8 ADD MLOAD PUSH1 0x1F NOT DUP11 DUP4 SUB ADD PUSH1 0xC0 DUP12 ADD MSTORE PUSH2 0x1C78 JUMP JUMPDEST PUSH1 0xC0 DUP7 ADD MLOAD DUP9 DUP3 SUB PUSH1 0x1F NOT ADD PUSH1 0xE0 DUP11 ADD MSTORE PUSH2 0x1C78 JUMP JUMPDEST PUSH1 0xE0 DUP6 ADD MLOAD DUP8 DUP3 SUB PUSH1 0x1F NOT ADD PUSH2 0x100 DUP10 ADD MSTORE PUSH2 0x1C78 JUMP JUMPDEST PUSH2 0x100 DUP5 ADD MLOAD DUP7 DUP3 SUB PUSH1 0x1F NOT ADD DUP5 DUP9 ADD MSTORE PUSH2 0x1C78 JUMP JUMPDEST SWAP2 ADD MLOAD DUP4 DUP3 SUB PUSH1 0x1F NOT ADD PUSH2 0x140 DUP6 ADD MSTORE PUSH2 0x1C78 JUMP JUMPDEST CALLVALUE PUSH2 0x14B JUMPI PUSH1 0xE0 CALLDATASIZE PUSH1 0x3 NOT ADD SLT PUSH2 0x14B JUMPI PUSH1 0x1 PUSH1 0x1 PUSH1 0x40 SHL SUB PUSH1 0x4 CALLDATALOAD DUP2 DUP2 GT PUSH2 0x14B JUMPI PUSH2 0x17E1 SWAP1 CALLDATASIZE SWAP1 PUSH1 0x4 ADD PUSH2 0x1BCE JUMP JUMPDEST SWAP1 PUSH1 0x24 CALLDATALOAD DUP2 DUP2 GT PUSH2 0x14B JUMPI PUSH2 0x17FA SWAP1 CALLDATASIZE SWAP1 PUSH1 0x4 ADD PUSH2 0x1BCE JUMP JUMPDEST SWAP1 PUSH1 0x44 CALLDATALOAD SWAP2 PUSH1 0x64 CALLDATALOAD DUP3 DUP2 GT PUSH2 0x14B JUMPI PUSH2 0x1817 SWAP1 CALLDATASIZE SWAP1 PUSH1 0x4 ADD PUSH2 0x1BCE JUMP JUMPDEST SWAP1 PUSH2 0x1820 PUSH2 0x1C9D JUMP JUMPDEST SWAP5 PUSH1 0xA4 CALLDATALOAD DUP5 DUP2 GT PUSH2 0x14B JUMPI PUSH2 0x1839 SWAP1 CALLDATASIZE SWAP1 PUSH1 0x4 ADD PUSH2 0x1BCE JUMP JUMPDEST PUSH1 0xC4 CALLDATALOAD SWAP5 DUP6 GT PUSH2 0x14B JUMPI DUP6 SWAP5 PUSH2 0x1853 SWAP1 CALLDATASIZE SWAP1 PUSH1 0x4 ADD PUSH2 0x1BCE JUMP JUMPDEST SWAP1 PUSH1 0x40 MLOAD SWAP1 DUP4 MLOAD SWAP1 PUSH1 0x20 SWAP10 DUP11 DUP7 ADD SWAP3 PUSH2 0x186D DUP2 DUP7 DUP7 PUSH2 0x1C55 JUMP JUMPDEST DUP5 ADD DUP5 DUP13 PUSH1 0x1 SWAP7 DUP4 DUP9 DUP1 SWAP6 MSTORE SUB ADD SWAP1 KECCAK256 ADD DUP10 PUSH1 0x0 MSTORE DUP12 MSTORE DUP7 DUP5 PUSH1 0x40 PUSH1 0x0 KECCAK256 ADD SWAP1 PUSH2 0x1896 SWAP2 PUSH2 0x1E17 JUMP JUMPDEST DUP4 PUSH1 0x40 MLOAD DUP13 DUP2 DUP10 MLOAD PUSH2 0x18A9 DUP2 DUP4 DUP11 PUSH2 0x1C55 JUMP JUMPDEST DUP2 ADD DUP5 DUP2 MSTORE SUB ADD SWAP1 KECCAK256 ADD DUP10 PUSH1 0x0 MSTORE DUP12 MSTORE DUP8 PUSH1 0x40 PUSH1 0x0 KECCAK256 PUSH1 0x3 ADD SWAP1 PUSH2 0x18CC SWAP2 PUSH2 0x1E17 JUMP JUMPDEST DUP4 PUSH1 0x40 MLOAD DUP13 DUP2 DUP10 MLOAD PUSH2 0x18DF DUP2 DUP4 DUP11 PUSH2 0x1C55 JUMP JUMPDEST DUP2 ADD DUP5 DUP2 MSTORE SUB ADD SWAP1 KECCAK256 ADD DUP10 PUSH1 0x0 MSTORE DUP12 MSTORE PUSH1 0x40 PUSH1 0x0 KECCAK256 PUSH1 0x4 ADD SWAP1 PUSH1 0xFF AND PUSH1 0xFF NOT DUP3 SLOAD AND OR SWAP1 SSTORE DUP3 PUSH1 0x40 MLOAD DUP12 DUP2 DUP9 MLOAD PUSH2 0x1917 DUP2 DUP4 DUP10 PUSH2 0x1C55 JUMP JUMPDEST DUP2 ADD DUP5 DUP2 MSTORE SUB ADD SWAP1 KECCAK256 ADD DUP9 PUSH1 0x0 MSTORE DUP11 MSTORE PUSH1 0x40 PUSH1 0x0 KECCAK256 PUSH1 0x5 ADD SWAP1 PUSH2 0x1939 SWAP2 PUSH2 0x1E17 JUMP JUMPDEST DUP9 PUSH1 0x40 MLOAD DUP1 DUP1 SWAP4 DUP8 MLOAD DUP1 SWAP3 PUSH2 0x194D SWAP3 PUSH2 0x1C55 JUMP JUMPDEST DUP2 ADD DUP5 DUP2 MSTORE SUB ADD SWAP1 KECCAK256 ADD DUP6 PUSH1 0x0 MSTORE DUP8 MSTORE PUSH1 0x40 PUSH1 0x0 KECCAK256 PUSH1 0x6 ADD SWAP1 PUSH2 0x101B SWAP2 PUSH2 0x1E17 JUMP JUMPDEST CALLVALUE PUSH2 0x14B JUMPI PUSH2 0x197D CALLDATASIZE PUSH2 0x1C24 JUMP JUMPDEST PUSH1 0x40 MLOAD SWAP1 PUSH2 0x198A DUP3 PUSH2 0x1B44 JUMP JUMPDEST PUSH1 0x60 DUP3 DUP2 DUP1 SWAP5 MSTORE PUSH1 0x20 SWAP5 DUP3 DUP3 DUP8 SWAP5 DUP6 DUP1 SWAP6 ADD MSTORE PUSH1 0x40 DUP2 ADD PUSH1 0x0 SWAP1 MSTORE DUP2 DUP1 DUP3 ADD MSTORE DUP2 PUSH1 0x80 DUP3 ADD MSTORE DUP2 PUSH1 0xA0 DUP3 ADD MSTORE PUSH1 0xC0 ADD MSTORE PUSH1 0x40 MLOAD SWAP3 DUP4 DUP3 DUP2 SWAP4 MLOAD SWAP3 DUP4 SWAP2 ADD SWAP2 PUSH2 0x19D1 SWAP3 PUSH2 0x1C55 JUMP JUMPDEST DUP2 ADD PUSH1 0x1 DUP2 MSTORE SUB ADD SWAP1 KECCAK256 PUSH1 0x2 ADD SWAP1 PUSH1 0x0 MSTORE DUP3 MSTORE PUSH1 0x40 PUSH1 0x0 KECCAK256 PUSH1 0x40 MLOAD SWAP2 PUSH2 0x19F6 DUP4 PUSH2 0x1B44 JUMP JUMPDEST PUSH2 0x19FF DUP3 PUSH2 0x1F46 JUMP JUMPDEST DUP4 MSTORE PUSH2 0x1A0D PUSH1 0x1 DUP4 ADD PUSH2 0x1F46 JUMP JUMPDEST SWAP2 DUP5 DUP5 ADD SWAP3 DUP4 MSTORE PUSH1 0x2 DUP2 ADD SLOAD PUSH1 0xFF AND PUSH1 0x40 DUP6 ADD SWAP1 DUP2 MSTORE PUSH1 0x3 DUP3 ADD PUSH2 0x1A30 SWAP1 PUSH2 0x1F46 JUMP JUMPDEST DUP6 DUP5 ADD SWAP1 DUP2 MSTORE SWAP1 PUSH2 0x1A43 PUSH1 0x4 DUP5 ADD PUSH2 0x1F46 JUMP JUMPDEST PUSH1 0x80 DUP8 ADD SWAP1 DUP2 MSTORE SWAP2 PUSH2 0x1A57 PUSH1 0x5 DUP6 ADD PUSH2 0x1F46 JUMP JUMPDEST SWAP4 PUSH1 0xA0 DUP9 ADD SWAP5 DUP6 MSTORE PUSH1 0x6 ADD PUSH2 0x1A6B SWAP1 PUSH2 0x1F46 JUMP JUMPDEST SWAP5 PUSH1 0xC0 DUP9 ADD SWAP6 DUP7 MSTORE PUSH1 0x40 MLOAD SWAP9 DUP10 SWAP9 DUP2 DUP11 MSTORE MLOAD SWAP1 DUP10 ADD PUSH1 0xE0 SWAP1 MSTORE PUSH2 0x100 DUP10 ADD PUSH2 0x1A92 SWAP2 PUSH2 0x1C78 JUMP JUMPDEST SWAP7 MLOAD PUSH1 0x1F NOT SWAP8 DUP9 DUP11 DUP3 SUB ADD PUSH1 0x40 DUP12 ADD MSTORE PUSH2 0x1AAB SWAP2 PUSH2 0x1C78 JUMP JUMPDEST SWAP3 MLOAD PUSH1 0xFF AND SWAP1 DUP9 ADD MSTORE MLOAD SWAP1 DUP6 DUP8 DUP3 SUB ADD PUSH1 0x80 DUP9 ADD MSTORE PUSH2 0x1AC9 SWAP2 PUSH2 0x1C78 JUMP JUMPDEST SWAP1 MLOAD SWAP1 DUP5 DUP7 DUP3 SUB ADD PUSH1 0xA0 DUP8 ADD MSTORE PUSH2 0x1ADF SWAP2 PUSH2 0x1C78 JUMP JUMPDEST SWAP1 MLOAD SWAP1 DUP4 DUP6 DUP3 SUB ADD PUSH1 0xC0 DUP7 ADD MSTORE PUSH2 0x1AF5 SWAP2 PUSH2 0x1C78 JUMP JUMPDEST SWAP1 MLOAD SWAP2 DUP4 DUP3 SUB ADD PUSH1 0xE0 DUP5 ADD MSTORE PUSH2 0x700 SWAP2 PUSH2 0x1C78 JUMP JUMPDEST CALLVALUE PUSH2 0x14B JUMPI PUSH1 0x20 CALLDATASIZE PUSH1 0x3 NOT ADD SLT PUSH2 0x14B JUMPI PUSH1 0x4 CALLDATALOAD PUSH1 0x1 PUSH1 0x1 PUSH1 0x40 SHL SUB DUP2 GT PUSH2 0x14B JUMPI PUSH1 0x7 PUSH2 0x6D8 PUSH1 0x20 PUSH2 0x696 PUSH2 0x700 SWAP5 CALLDATASIZE SWAP1 PUSH1 0x4 ADD PUSH2 0x1BCE JUMP JUMPDEST PUSH1 0xE0 DUP2 ADD SWAP1 DUP2 LT PUSH1 0x1 PUSH1 0x1 PUSH1 0x40 SHL SUB DUP3 GT OR PUSH2 0x1B5F JUMPI PUSH1 0x40 MSTORE JUMP JUMPDEST PUSH4 0x4E487B71 PUSH1 0xE0 SHL PUSH1 0x0 MSTORE PUSH1 0x41 PUSH1 0x4 MSTORE PUSH1 0x24 PUSH1 0x0 REVERT JUMPDEST PUSH2 0x140 DUP2 ADD SWAP1 DUP2 LT PUSH1 0x1 PUSH1 0x1 PUSH1 0x40 SHL SUB DUP3 GT OR PUSH2 0x1B5F JUMPI PUSH1 0x40 MSTORE JUMP JUMPDEST PUSH2 0x1C0 DUP2 ADD SWAP1 DUP2 LT PUSH1 0x1 PUSH1 0x1 PUSH1 0x40 SHL SUB DUP3 GT OR PUSH2 0x1B5F JUMPI PUSH1 0x40 MSTORE JUMP JUMPDEST SWAP1 PUSH1 0x1F DUP1 NOT SWAP2 ADD AND DUP2 ADD SWAP1 DUP2 LT PUSH1 0x1 PUSH1 0x1 PUSH1 0x40 SHL SUB DUP3 GT OR PUSH2 0x1B5F JUMPI PUSH1 0x40 MSTORE JUMP JUMPDEST DUP2 PUSH1 0x1F DUP3 ADD SLT ISZERO PUSH2 0x14B JUMPI DUP1 CALLDATALOAD SWAP1 PUSH1 0x1 PUSH1 0x1 PUSH1 0x40 SHL SUB DUP3 GT PUSH2 0x1B5F JUMPI PUSH1 0x40 MLOAD SWAP3 PUSH2 0x1C02 PUSH1 0x1F DUP5 ADD PUSH1 0x1F NOT AND PUSH1 0x20 ADD DUP6 PUSH2 0x1BAD JUMP JUMPDEST DUP3 DUP5 MSTORE PUSH1 0x20 DUP4 DUP4 ADD ADD GT PUSH2 0x14B JUMPI DUP2 PUSH1 0x0 SWAP3 PUSH1 0x20 DUP1 SWAP4 ADD DUP4 DUP7 ADD CALLDATACOPY DUP4 ADD ADD MSTORE SWAP1 JUMP JUMPDEST PUSH1 0x40 PUSH1 0x3 NOT DUP3 ADD SLT PUSH2 0x14B JUMPI PUSH1 0x4 CALLDATALOAD SWAP1 PUSH1 0x1 PUSH1 0x1 PUSH1 0x40 SHL SUB DUP3 GT PUSH2 0x14B JUMPI PUSH2 0x1C4E SWAP2 PUSH1 0x4 ADD PUSH2 0x1BCE JUMP JUMPDEST SWAP1 PUSH1 0x24 CALLDATALOAD SWAP1 JUMP JUMPDEST PUSH1 0x0 JUMPDEST DUP4 DUP2 LT PUSH2 0x1C68 JUMPI POP POP PUSH1 0x0 SWAP2 ADD MSTORE JUMP JUMPDEST DUP2 DUP2 ADD MLOAD DUP4 DUP3 ADD MSTORE PUSH1 0x20 ADD PUSH2 0x1C58 JUMP JUMPDEST SWAP1 PUSH1 0x20 SWAP2 PUSH2 0x1C91 DUP2 MLOAD DUP1 SWAP3 DUP2 DUP6 MSTORE DUP6 DUP1 DUP7 ADD SWAP2 ADD PUSH2 0x1C55 JUMP JUMPDEST PUSH1 0x1F ADD PUSH1 0x1F NOT AND ADD ADD SWAP1 JUMP JUMPDEST PUSH1 0x84 CALLDATALOAD SWAP1 PUSH1 0xFF DUP3 AND DUP3 SUB PUSH2 0x14B JUMPI JUMP JUMPDEST PUSH1 0x0 SLOAD PUSH1 0x1 PUSH1 0x1 PUSH1 0xA0 SHL SUB AND CALLER SUB PUSH2 0x1CC1 JUMPI JUMP JUMPDEST PUSH1 0x64 PUSH1 0x40 MLOAD PUSH3 0x461BCD PUSH1 0xE5 SHL DUP2 MSTORE PUSH1 0x20 PUSH1 0x4 DUP3 ADD MSTORE PUSH1 0x20 PUSH1 0x24 DUP3 ADD MSTORE PUSH32 0x4F776E61626C653A2063616C6C6572206973206E6F7420746865206F776E6572 PUSH1 0x44 DUP3 ADD MSTORE REVERT JUMPDEST ISZERO PUSH2 0x1D0C JUMPI JUMP JUMPDEST PUSH1 0x40 MLOAD PUSH3 0x461BCD PUSH1 0xE5 SHL DUP2 MSTORE PUSH1 0x20 PUSH1 0x4 DUP3 ADD MSTORE PUSH1 0x19 PUSH1 0x24 DUP3 ADD MSTORE PUSH32 0x547572746C6520616C7265616479207265676973746572656400000000000000 PUSH1 0x44 DUP3 ADD MSTORE PUSH1 0x64 SWAP1 REVERT JUMPDEST DUP1 SLOAD DUP3 LT ISZERO PUSH2 0x1D69 JUMPI PUSH1 0x0 MSTORE PUSH1 0x20 PUSH1 0x0 KECCAK256 ADD SWAP1 PUSH1 0x0 SWAP1 JUMP JUMPDEST PUSH4 0x4E487B71 PUSH1 0xE0 SHL PUSH1 0x0 MSTORE PUSH1 0x32 PUSH1 0x4 MSTORE PUSH1 0x24 PUSH1 0x0 REVERT JUMPDEST SWAP1 PUSH1 0x1 DUP3 DUP2 SHR SWAP3 AND DUP1 ISZERO PUSH2 0x1DAF JUMPI JUMPDEST PUSH1 0x20 DUP4 LT EQ PUSH2 0x1D99 JUMPI JUMP JUMPDEST PUSH4 0x4E487B71 PUSH1 0xE0 SHL PUSH1 0x0 MSTORE PUSH1 0x22 PUSH1 0x4 MSTORE PUSH1 0x24 PUSH1 0x0 REVERT JUMPDEST SWAP2 PUSH1 0x7F AND SWAP2 PUSH2 0x1D8E JUMP JUMPDEST DUP2 DUP2 LT PUSH2 0x1DC4 JUMPI POP POP JUMP JUMPDEST PUSH1 0x0 DUP2 SSTORE PUSH1 0x1 ADD PUSH2 0x1DB9 JUMP JUMPDEST SWAP2 SWAP1 PUSH1 0x1F DUP2 GT PUSH2 0x1DDF JUMPI POP POP POP JUMP JUMPDEST PUSH2 0x1E0B SWAP3 PUSH1 0x0 MSTORE PUSH1 0x20 PUSH1 0x0 KECCAK256 SWAP1 PUSH1 0x20 PUSH1 0x1F DUP5 ADD PUSH1 0x5 SHR DUP4 ADD SWAP4 LT PUSH2 0x1E0D JUMPI JUMPDEST PUSH1 0x1F ADD PUSH1 0x5 SHR ADD SWAP1 PUSH2 0x1DB9 JUMP JUMPDEST JUMP JUMPDEST SWAP1 SWAP2 POP DUP2 SWAP1 PUSH2 0x1DFE JUMP JUMPDEST SWAP2 SWAP1 SWAP2 DUP3 MLOAD PUSH1 0x1 PUSH1 0x1 PUSH1 0x40 SHL SUB DUP2 GT PUSH2 0x1B5F JUMPI PUSH2 0x1E3E DUP2 PUSH2 0x1E38 DUP5 SLOAD PUSH2 0x1D7F JUMP JUMPDEST DUP5 PUSH2 0x1DD0 JUMP JUMPDEST PUSH1 0x20 DUP1 PUSH1 0x1F DUP4 GT PUSH1 0x1 EQ PUSH2 0x1E7A JUMPI POP DUP2 SWAP3 SWAP4 SWAP5 PUSH1 0x0 SWAP3 PUSH2 0x1E6F JUMPI JUMPDEST POP POP DUP2 PUSH1 0x1 SHL SWAP2 PUSH1 0x0 NOT SWAP1 PUSH1 0x3 SHL SHR NOT AND OR SWAP1 SSTORE JUMP JUMPDEST ADD MLOAD SWAP1 POP CODESIZE DUP1 PUSH2 0x1E59 JUMP JUMPDEST SWAP1 PUSH1 0x1F NOT DUP4 AND SWAP6 DUP5 PUSH1 0x0 MSTORE DUP3 PUSH1 0x0 KECCAK256 SWAP3 PUSH1 0x0 SWAP1 JUMPDEST DUP9 DUP3 LT PUSH2 0x1EC6 JUMPI POP POP DUP4 PUSH1 0x1 SWAP6 SWAP7 SWAP8 LT PUSH2 0x1EAD JUMPI JUMPDEST POP POP POP DUP2 SHL ADD SWAP1 SSTORE JUMP JUMPDEST ADD MLOAD PUSH1 0x0 NOT PUSH1 0xF8 DUP5 PUSH1 0x3 SHL AND SHR NOT AND SWAP1 SSTORE CODESIZE DUP1 DUP1 PUSH2 0x1EA3 JUMP JUMPDEST DUP1 PUSH1 0x1 DUP6 SWAP7 DUP3 SWAP5 SWAP7 DUP7 ADD MLOAD DUP2 SSTORE ADD SWAP6 ADD SWAP4 ADD SWAP1 PUSH2 0x1E8E JUMP JUMPDEST DUP1 SLOAD PUSH9 0x10000000000000000 DUP2 LT ISZERO PUSH2 0x1B5F JUMPI PUSH2 0x1F00 SWAP2 PUSH1 0x1 DUP3 ADD DUP2 SSTORE PUSH2 0x1D51 JUMP JUMPDEST SWAP2 SWAP1 SWAP2 PUSH2 0x1F10 JUMPI PUSH2 0x1E0B SWAP2 PUSH2 0x1E17 JUMP JUMPDEST PUSH4 0x4E487B71 PUSH1 0xE0 SHL PUSH1 0x0 MSTORE PUSH1 0x0 PUSH1 0x4 MSTORE PUSH1 0x24 PUSH1 0x0 REVERT JUMPDEST PUSH2 0x1F3E SWAP1 PUSH1 0x20 PUSH1 0x40 MLOAD SWAP3 DUP3 DUP5 DUP1 SWAP5 MLOAD SWAP4 DUP5 SWAP3 ADD PUSH2 0x1C55 JUMP JUMPDEST DUP2 ADD SUB SWAP1 KECCAK256 SWAP1 JUMP JUMPDEST SWAP1 PUSH1 0x40 MLOAD SWAP2 DUP3 PUSH1 0x0 DUP3 SLOAD SWAP3 PUSH2 0x1F5A DUP5 PUSH2 0x1D7F JUMP JUMPDEST SWAP1 DUP2 DUP5 MSTORE PUSH1 0x1 SWAP5 DUP6 DUP2 AND SWAP1 DUP2 PUSH1 0x0 EQ PUSH2 0x1FC7 JUMPI POP PUSH1 0x1 EQ PUSH2 0x1F84 JUMPI JUMPDEST POP POP PUSH2 0x1E0B SWAP3 POP SUB DUP4 PUSH2 0x1BAD JUMP JUMPDEST SWAP1 SWAP4 SWAP2 POP PUSH1 0x0 MSTORE PUSH1 0x20 SWAP1 DUP2 PUSH1 0x0 KECCAK256 SWAP4 PUSH1 0x0 SWAP2 JUMPDEST DUP2 DUP4 LT PUSH2 0x1FAF JUMPI POP POP PUSH2 0x1E0B SWAP4 POP DUP3 ADD ADD CODESIZE DUP1 PUSH2 0x1F76 JUMP JUMPDEST DUP6 SLOAD DUP9 DUP5 ADD DUP6 ADD MSTORE SWAP5 DUP6 ADD SWAP5 DUP8 SWAP5 POP SWAP2 DUP4 ADD SWAP2 PUSH2 0x1F97 JUMP JUMPDEST SWAP2 POP POP PUSH2 0x1E0B SWAP5 POP PUSH1 0x20 SWAP3 POP PUSH1 0xFF NOT AND DUP3 DUP5 ADD MSTORE ISZERO ISZERO PUSH1 0x5 SHL DUP3 ADD ADD CODESIZE DUP1 PUSH2 0x1F76 JUMP JUMPDEST SWAP1 SWAP2 PUSH2 0x2001 PUSH2 0x200F SWAP4 PUSH1 0x40 DUP5 MSTORE PUSH1 0x40 DUP5 ADD SWAP1 PUSH2 0x1C78 JUMP JUMPDEST SWAP2 PUSH1 0x20 DUP2 DUP5 SUB SWAP2 ADD MSTORE PUSH2 0x1C78 JUMP JUMPDEST SWAP1 JUMP JUMPDEST ISZERO PUSH2 0x2019 JUMPI JUMP JUMPDEST PUSH1 0x40 MLOAD PUSH3 0x461BCD PUSH1 0xE5 SHL DUP2 MSTORE PUSH1 0x20 PUSH1 0x4 DUP3 ADD MSTORE PUSH1 0x15 PUSH1 0x24 DUP3 ADD MSTORE PUSH21 0x151D5C9D1B1948191BD95CC81B9BDD08195E1A5CDD PUSH1 0x5A SHL PUSH1 0x44 DUP3 ADD MSTORE PUSH1 0x64 SWAP1 REVERT JUMPDEST PUSH1 0x0 NOT DUP2 EQ PUSH2 0x2065 JUMPI PUSH1 0x1 ADD SWAP1 JUMP JUMPDEST PUSH4 0x4E487B71 PUSH1 0xE0 SHL PUSH1 0x0 MSTORE PUSH1 0x11 PUSH1 0x4 MSTORE PUSH1 0x24 PUSH1 0x0 REVERT JUMPDEST PUSH1 0x0 SWAP3 SWAP2 DUP2 SLOAD PUSH2 0x208A DUP2 PUSH2 0x1D7F JUMP JUMPDEST SWAP3 PUSH1 0x1 SWAP2 DUP1 DUP4 AND SWAP1 DUP2 ISZERO PUSH2 0x20E3 JUMPI POP PUSH1 0x1 EQ PUSH2 0x20A7 JUMPI JUMPDEST POP POP POP POP JUMP JUMPDEST SWAP1 SWAP2 SWAP3 SWAP4 SWAP5 POP PUSH1 0x0 MSTORE PUSH1 0x20 SWAP1 DUP2 PUSH1 0x0 KECCAK256 SWAP1 PUSH1 0x0 SWAP2 JUMPDEST DUP6 DUP4 LT PUSH2 0x20D2 JUMPI POP POP POP POP ADD SWAP1 CODESIZE DUP1 DUP1 DUP1 PUSH2 0x20A1 JUMP JUMPDEST DUP1 SLOAD DUP6 DUP5 ADD MSTORE SWAP2 DUP4 ADD SWAP2 DUP2 ADD PUSH2 0x20BC JUMP JUMPDEST PUSH1 0xFF NOT AND DUP5 MSTORE POP POP POP DUP2 ISZERO ISZERO SWAP1 SWAP2 MUL ADD SWAP2 POP CODESIZE DUP1 DUP1 DUP1 PUSH2 0x20A1 JUMP JUMPDEST SWAP1 DUP1 DUP3 EQ PUSH2 0x21D6 JUMPI PUSH2 0x2110 DUP2 SLOAD PUSH2 0x1D7F JUMP JUMPDEST SWAP1 PUSH1 0x1 PUSH1 0x1 PUSH1 0x40 SHL SUB DUP3 GT PUSH2 0x1B5F JUMPI DUP2 SWAP1 PUSH2 0x2135 DUP3 PUSH2 0x212F DUP7 SLOAD PUSH2 0x1D7F JUMP JUMPDEST DUP7 PUSH2 0x1DD0 JUMP JUMPDEST PUSH1 0x0 SWAP1 PUSH1 0x1F DUP4 GT PUSH1 0x1 EQ PUSH2 0x216B JUMPI PUSH1 0x0 SWAP3 PUSH2 0x2160 JUMPI POP POP DUP2 PUSH1 0x1 SHL SWAP2 PUSH1 0x0 NOT SWAP1 PUSH1 0x3 SHL SHR NOT AND OR SWAP1 SSTORE JUMP JUMPDEST ADD SLOAD SWAP1 POP CODESIZE DUP1 PUSH2 0x1E59 JUMP JUMPDEST DUP2 MSTORE PUSH1 0x20 DUP1 DUP3 KECCAK256 DUP6 DUP4 MSTORE DUP2 DUP4 KECCAK256 SWAP4 POP SWAP1 PUSH1 0x1F NOT DUP6 AND SWAP1 DUP4 SWAP1 JUMPDEST DUP3 DUP3 LT PUSH2 0x21BD JUMPI POP POP SWAP1 DUP5 PUSH1 0x1 SWAP6 SWAP5 SWAP4 SWAP3 LT PUSH2 0x21A4 JUMPI POP POP POP DUP2 SHL ADD SWAP1 SSTORE JUMP JUMPDEST ADD SLOAD PUSH1 0x0 NOT PUSH1 0xF8 DUP5 PUSH1 0x3 SHL AND SHR NOT AND SWAP1 SSTORE CODESIZE DUP1 DUP1 PUSH2 0x1EA3 JUMP JUMPDEST DUP5 SWAP6 DUP2 SWAP3 SWAP6 DUP6 ADD SLOAD DUP2 SSTORE PUSH1 0x1 DUP1 SWAP2 ADD SWAP7 ADD SWAP5 ADD SWAP1 PUSH2 0x2184 JUMP JUMPDEST POP POP JUMP INVALID LOG2 PUSH5 0x6970667358 0x22 SLT KECCAK256 KECCAK256 0x49 JUMPDEST CALLVALUE 0xF8 0xCB INVALID 0x24 0xD5 MUL PUSH9 0xF01AA08BBC84F0E312 DUP13 SWAP12 0xA7 0xBF DUP4 0xCD SMOD DUP11 0x4A SHL 0x26 PUSH23 0x64736F6C63430008120033000000000000000000000000 "
				},
				"gasEstimates": {
					"creation": {
						"codeDepositCost": "1744000",
						"executionCost": "27624",
						"totalCost": "1771624"
					},
					"external": {
						"approveMultiplicationDocByReviewer(string,bytes32)": "infinite",
						"approveTransferDocByReviewer(string,bytes32)": "infinite",
						"changeTurtleOwner(string,string,string)": "infinite",
						"owner()": "2582",
						"registerTurtle(string,string,bytes32)": "infinite",
						"registerTurtleAssigneeDocument(string,string,bytes32,string,uint8,string,string)": "infinite",
						"registerTurtleDeathDocument(string,string,bytes32,string,uint8,string,string,string,string)": "infinite",
						"registerTurtleGrantorDocument(string,string,bytes32,string,string,string,string)": "infinite",
						"registerTurtleMultiplicationDocument(string,string,bytes32,uint8,string,string,string,string,string,string,string,uint256,string,string,string,string,bytes32)": "infinite",
						"renounceOwnership()": "28310",
						"searchCurrentDeathDocumentHash(string)": "infinite",
						"searchCurrentDocumentHash(string)": "infinite",
						"searchCurrentMultiplicationDocumentHash(string)": "infinite",
						"searchCurrentTransferredDocumentHash(string)": "infinite",
						"searchTurtleDeathDocument(string,bytes32)": "infinite",
						"searchTurtleMultiplicationDocument(string,bytes32)": "infinite",
						"searchTurtleTransferDocument(string,bytes32)": "infinite",
						"transferOwnership(address)": "28473",
						"turtleValid(string,bytes32)": "infinite"
					}
				},
				"methodIdentifiers": {
					"approveMultiplicationDocByReviewer(string,bytes32)": "482346bd",
					"approveTransferDocByReviewer(string,bytes32)": "229aa914",
					"changeTurtleOwner(string,string,string)": "ce5f0b7d",
					"owner()": "8da5cb5b",
					"registerTurtle(string,string,bytes32)": "7ca2d3cd",
					"registerTurtleAssigneeDocument(string,string,bytes32,string,uint8,string,string)": "18e1a28a",
					"registerTurtleDeathDocument(string,string,bytes32,string,uint8,string,string,string,string)": "6c1dcaf8",
					"registerTurtleGrantorDocument(string,string,bytes32,string,string,string,string)": "596c442a",
					"registerTurtleMultiplicationDocument(string,string,bytes32,uint8,string,string,string,string,string,string,string,uint256,string,string,string,string,bytes32)": "358a3d37",
					"renounceOwnership()": "715018a6",
					"searchCurrentDeathDocumentHash(string)": "1294ffcf",
					"searchCurrentDocumentHash(string)": "f3cb197d",
					"searchCurrentMultiplicationDocumentHash(string)": "997480e5",
					"searchCurrentTransferredDocumentHash(string)": "22d2378f",
					"searchTurtleDeathDocument(string,bytes32)": "17aa1f48",
					"searchTurtleMultiplicationDocument(string,bytes32)": "673ae4c1",
					"searchTurtleTransferDocument(string,bytes32)": "1a0642ef",
					"transferOwnership(address)": "f2fde38b",
					"turtleValid(string,bytes32)": "1b979af1"
				}
			},
			"storageLayout": {
				"storage": [
					{
						"astId": 7,
						"contract": "contracts\\TurtleDocumentation.sol:TurtleDocumentation",
						"label": "_owner",
						"offset": 0,
						"slot": "0",
						"type": "t_address"
					},
					{
						"astId": 247,
						"contract": "contracts\\TurtleDocumentation.sol:TurtleDocumentation",
						"label": "turtles",
						"offset": 0,
						"slot": "1",
						"type": "t_mapping(t_string_memory_ptr,t_struct(Turtle)242_storage)"
					},
					{
						"astId": 252,
						"contract": "contracts\\TurtleDocumentation.sol:TurtleDocumentation",
						"label": "ownerToTurtleIds",
						"offset": 0,
						"slot": "2",
						"type": "t_mapping(t_string_memory_ptr,t_array(t_string_storage)dyn_storage)"
					}
				],
				"types": {
					"t_address": {
						"encoding": "inplace",
						"label": "address",
						"numberOfBytes": "20"
					},
					"t_array(t_string_storage)dyn_storage": {
						"base": "t_string_storage",
						"encoding": "dynamic_array",
						"label": "string[]",
						"numberOfBytes": "32"
					},
					"t_bool": {
						"encoding": "inplace",
						"label": "bool",
						"numberOfBytes": "1"
					},
					"t_bytes32": {
						"encoding": "inplace",
						"label": "bytes32",
						"numberOfBytes": "32"
					},
					"t_mapping(t_bytes32,t_struct(Death)212_storage)": {
						"encoding": "mapping",
						"key": "t_bytes32",
						"label": "mapping(bytes32 => struct TurtleDocumentation.Death)",
						"numberOfBytes": "32",
						"value": "t_struct(Death)212_storage"
					},
					"t_mapping(t_bytes32,t_struct(Multiplication)176_storage)": {
						"encoding": "mapping",
						"key": "t_bytes32",
						"label": "mapping(bytes32 => struct TurtleDocumentation.Multiplication)",
						"numberOfBytes": "32",
						"value": "t_struct(Multiplication)176_storage"
					},
					"t_mapping(t_bytes32,t_struct(Transfer)197_storage)": {
						"encoding": "mapping",
						"key": "t_bytes32",
						"label": "mapping(bytes32 => struct TurtleDocumentation.Transfer)",
						"numberOfBytes": "32",
						"value": "t_struct(Transfer)197_storage"
					},
					"t_mapping(t_string_memory_ptr,t_array(t_string_storage)dyn_storage)": {
						"encoding": "mapping",
						"key": "t_string_memory_ptr",
						"label": "mapping(string => string[])",
						"numberOfBytes": "32",
						"value": "t_array(t_string_storage)dyn_storage"
					},
					"t_mapping(t_string_memory_ptr,t_struct(Turtle)242_storage)": {
						"encoding": "mapping",
						"key": "t_string_memory_ptr",
						"label": "mapping(string => struct TurtleDocumentation.Turtle)",
						"numberOfBytes": "32",
						"value": "t_struct(Turtle)242_storage"
					},
					"t_string_memory_ptr": {
						"encoding": "bytes",
						"label": "string",
						"numberOfBytes": "32"
					},
					"t_string_storage": {
						"encoding": "bytes",
						"label": "string",
						"numberOfBytes": "32"
					},
					"t_struct(Death)212_storage": {
						"encoding": "inplace",
						"label": "struct TurtleDocumentation.Death",
						"members": [
							{
								"astId": 199,
								"contract": "contracts\\TurtleDocumentation.sol:TurtleDocumentation",
								"label": "applicant",
								"offset": 0,
								"slot": "0",
								"type": "t_string_storage"
							},
							{
								"astId": 201,
								"contract": "contracts\\TurtleDocumentation.sol:TurtleDocumentation",
								"label": "shelter",
								"offset": 0,
								"slot": "1",
								"type": "t_string_storage"
							},
							{
								"astId": 203,
								"contract": "contracts\\TurtleDocumentation.sol:TurtleDocumentation",
								"label": "count",
								"offset": 0,
								"slot": "2",
								"type": "t_uint8"
							},
							{
								"astId": 205,
								"contract": "contracts\\TurtleDocumentation.sol:TurtleDocumentation",
								"label": "deathReason",
								"offset": 0,
								"slot": "3",
								"type": "t_string_storage"
							},
							{
								"astId": 207,
								"contract": "contracts\\TurtleDocumentation.sol:TurtleDocumentation",
								"label": "plan",
								"offset": 0,
								"slot": "4",
								"type": "t_string_storage"
							},
							{
								"astId": 209,
								"contract": "contracts\\TurtleDocumentation.sol:TurtleDocumentation",
								"label": "deathImage",
								"offset": 0,
								"slot": "5",
								"type": "t_string_storage"
							},
							{
								"astId": 211,
								"contract": "contracts\\TurtleDocumentation.sol:TurtleDocumentation",
								"label": "diagnosis",
								"offset": 0,
								"slot": "6",
								"type": "t_string_storage"
							}
						],
						"numberOfBytes": "224"
					},
					"t_struct(Multiplication)176_storage": {
						"encoding": "inplace",
						"label": "struct TurtleDocumentation.Multiplication",
						"members": [
							{
								"astId": 149,
								"contract": "contracts\\TurtleDocumentation.sol:TurtleDocumentation",
								"label": "applicant",
								"offset": 0,
								"slot": "0",
								"type": "t_string_storage"
							},
							{
								"astId": 151,
								"contract": "contracts\\TurtleDocumentation.sol:TurtleDocumentation",
								"label": "count",
								"offset": 0,
								"slot": "1",
								"type": "t_uint8"
							},
							{
								"astId": 153,
								"contract": "contracts\\TurtleDocumentation.sol:TurtleDocumentation",
								"label": "area",
								"offset": 0,
								"slot": "2",
								"type": "t_string_storage"
							},
							{
								"astId": 155,
								"contract": "contracts\\TurtleDocumentation.sol:TurtleDocumentation",
								"label": "purpose",
								"offset": 0,
								"slot": "3",
								"type": "t_string_storage"
							},
							{
								"astId": 157,
								"contract": "contracts\\TurtleDocumentation.sol:TurtleDocumentation",
								"label": "location",
								"offset": 0,
								"slot": "4",
								"type": "t_string_storage"
							},
							{
								"astId": 159,
								"contract": "contracts\\TurtleDocumentation.sol:TurtleDocumentation",
								"label": "fatherId",
								"offset": 0,
								"slot": "5",
								"type": "t_string_storage"
							},
							{
								"astId": 161,
								"contract": "contracts\\TurtleDocumentation.sol:TurtleDocumentation",
								"label": "motherId",
								"offset": 0,
								"slot": "6",
								"type": "t_string_storage"
							},
							{
								"astId": 163,
								"contract": "contracts\\TurtleDocumentation.sol:TurtleDocumentation",
								"label": "birth",
								"offset": 0,
								"slot": "7",
								"type": "t_string_storage"
							},
							{
								"astId": 165,
								"contract": "contracts\\TurtleDocumentation.sol:TurtleDocumentation",
								"label": "name",
								"offset": 0,
								"slot": "8",
								"type": "t_string_storage"
							},
							{
								"astId": 167,
								"contract": "contracts\\TurtleDocumentation.sol:TurtleDocumentation",
								"label": "weight",
								"offset": 0,
								"slot": "9",
								"type": "t_uint256"
							},
							{
								"astId": 169,
								"contract": "contracts\\TurtleDocumentation.sol:TurtleDocumentation",
								"label": "gender",
								"offset": 0,
								"slot": "10",
								"type": "t_string_storage"
							},
							{
								"astId": 171,
								"contract": "contracts\\TurtleDocumentation.sol:TurtleDocumentation",
								"label": "locationSpecification",
								"offset": 0,
								"slot": "11",
								"type": "t_string_storage"
							},
							{
								"astId": 173,
								"contract": "contracts\\TurtleDocumentation.sol:TurtleDocumentation",
								"label": "multiplicationMethod",
								"offset": 0,
								"slot": "12",
								"type": "t_string_storage"
							},
							{
								"astId": 175,
								"contract": "contracts\\TurtleDocumentation.sol:TurtleDocumentation",
								"label": "shelterSpecification",
								"offset": 0,
								"slot": "13",
								"type": "t_string_storage"
							}
						],
						"numberOfBytes": "448"
					},
					"t_struct(Transfer)197_storage": {
						"encoding": "inplace",
						"label": "struct TurtleDocumentation.Transfer",
						"members": [
							{
								"astId": 178,
								"contract": "contracts\\TurtleDocumentation.sol:TurtleDocumentation",
								"label": "grantApplicant",
								"offset": 0,
								"slot": "0",
								"type": "t_string_storage"
							},
							{
								"astId": 180,
								"contract": "contracts\\TurtleDocumentation.sol:TurtleDocumentation",
								"label": "assignApplicant",
								"offset": 0,
								"slot": "1",
								"type": "t_string_storage"
							},
							{
								"astId": 182,
								"contract": "contracts\\TurtleDocumentation.sol:TurtleDocumentation",
								"label": "grantorId",
								"offset": 0,
								"slot": "2",
								"type": "t_string_storage"
							},
							{
								"astId": 184,
								"contract": "contracts\\TurtleDocumentation.sol:TurtleDocumentation",
								"label": "assigneeId",
								"offset": 0,
								"slot": "3",
								"type": "t_string_storage"
							},
							{
								"astId": 186,
								"contract": "contracts\\TurtleDocumentation.sol:TurtleDocumentation",
								"label": "count",
								"offset": 0,
								"slot": "4",
								"type": "t_uint8"
							},
							{
								"astId": 188,
								"contract": "contracts\\TurtleDocumentation.sol:TurtleDocumentation",
								"label": "transferReason",
								"offset": 0,
								"slot": "5",
								"type": "t_string_storage"
							},
							{
								"astId": 190,
								"contract": "contracts\\TurtleDocumentation.sol:TurtleDocumentation",
								"label": "purpose",
								"offset": 0,
								"slot": "6",
								"type": "t_string_storage"
							},
							{
								"astId": 192,
								"contract": "contracts\\TurtleDocumentation.sol:TurtleDocumentation",
								"label": "aquisition",
								"offset": 0,
								"slot": "7",
								"type": "t_string_storage"
							},
							{
								"astId": 194,
								"contract": "contracts\\TurtleDocumentation.sol:TurtleDocumentation",
								"label": "fatherId",
								"offset": 0,
								"slot": "8",
								"type": "t_string_storage"
							},
							{
								"astId": 196,
								"contract": "contracts\\TurtleDocumentation.sol:TurtleDocumentation",
								"label": "motherId",
								"offset": 0,
								"slot": "9",
								"type": "t_string_storage"
							}
						],
						"numberOfBytes": "320"
					},
					"t_struct(Turtle)242_storage": {
						"encoding": "inplace",
						"label": "struct TurtleDocumentation.Turtle",
						"members": [
							{
								"astId": 217,
								"contract": "contracts\\TurtleDocumentation.sol:TurtleDocumentation",
								"label": "multiplicationDoc",
								"offset": 0,
								"slot": "0",
								"type": "t_mapping(t_bytes32,t_struct(Multiplication)176_storage)"
							},
							{
								"astId": 222,
								"contract": "contracts\\TurtleDocumentation.sol:TurtleDocumentation",
								"label": "transferDocs",
								"offset": 0,
								"slot": "1",
								"type": "t_mapping(t_bytes32,t_struct(Transfer)197_storage)"
							},
							{
								"astId": 227,
								"contract": "contracts\\TurtleDocumentation.sol:TurtleDocumentation",
								"label": "deathDoc",
								"offset": 0,
								"slot": "2",
								"type": "t_mapping(t_bytes32,t_struct(Death)212_storage)"
							},
							{
								"astId": 229,
								"contract": "contracts\\TurtleDocumentation.sol:TurtleDocumentation",
								"label": "beforeDocumentHash",
								"offset": 0,
								"slot": "3",
								"type": "t_bytes32"
							},
							{
								"astId": 231,
								"contract": "contracts\\TurtleDocumentation.sol:TurtleDocumentation",
								"label": "currentDocumentHash",
								"offset": 0,
								"slot": "4",
								"type": "t_bytes32"
							},
							{
								"astId": 233,
								"contract": "contracts\\TurtleDocumentation.sol:TurtleDocumentation",
								"label": "currentMultiplicationDocHash",
								"offset": 0,
								"slot": "5",
								"type": "t_bytes32"
							},
							{
								"astId": 235,
								"contract": "contracts\\TurtleDocumentation.sol:TurtleDocumentation",
								"label": "currentTransferredDocHash",
								"offset": 0,
								"slot": "6",
								"type": "t_bytes32"
							},
							{
								"astId": 237,
								"contract": "contracts\\TurtleDocumentation.sol:TurtleDocumentation",
								"label": "currentDeathDocHash",
								"offset": 0,
								"slot": "7",
								"type": "t_bytes32"
							},
							{
								"astId": 239,
								"contract": "contracts\\TurtleDocumentation.sol:TurtleDocumentation",
								"label": "turtleHash",
								"offset": 0,
								"slot": "8",
								"type": "t_bytes32"
							},
							{
								"astId": 241,
								"contract": "contracts\\TurtleDocumentation.sol:TurtleDocumentation",
								"label": "exists",
								"offset": 0,
								"slot": "9",
								"type": "t_bool"
							}
						],
						"numberOfBytes": "320"
					},
					"t_uint256": {
						"encoding": "inplace",
						"label": "uint256",
						"numberOfBytes": "32"
					},
					"t_uint8": {
						"encoding": "inplace",
						"label": "uint8",
						"numberOfBytes": "1"
					}
				}
			},
			"userdoc": {
				"kind": "user",
				"methods": {},
				"version": 1
			}
		}
	}
}