{
  "contractName": "TurtleDocumentation",
  "abi": [
    {
      "inputs": [
        {
          "internalType": "string",
          "name": "_turtleId",
          "type": "string"
        },
        {
          "internalType": "bytes32",
          "name": "_documentHash",
          "type": "bytes32"
        }
      ],
      "name": "approveMultiplicationDocByReviewer",
      "outputs": [
        {
          "internalType": "bytes32",
          "name": "",
          "type": "bytes32"
        }
      ],
      "stateMutability": "nonpayable",
      "type": "function"
    },
    {
      "inputs": [
        {
          "internalType": "string",
          "name": "_turtleId",
          "type": "string"
        },
        {
          "internalType": "bytes32",
          "name": "_documentHash",
          "type": "bytes32"
        }
      ],
      "name": "approveTransferDocByReviewer",
      "outputs": [
        {
          "internalType": "bytes32",
          "name": "",
          "type": "bytes32"
        }
      ],
      "stateMutability": "nonpayable",
      "type": "function"
    },
    {
      "inputs": [
        {
          "internalType": "string",
          "name": "_turtleId",
          "type": "string"
        },
        {
          "internalType": "string",
          "name": "_oldOwner",
          "type": "string"
        },
        {
          "internalType": "string",
          "name": "_newOwner",
          "type": "string"
        }
      ],
      "name": "changeTurtleOwner",
      "outputs": [],
      "stateMutability": "nonpayable",
      "type": "function"
    },
    {
      "anonymous": false,
      "inputs": [
        {
          "indexed": true,
          "internalType": "string",
          "name": "turtleId",
          "type": "string"
        },
        {
          "indexed": true,
          "internalType": "bytes32",
          "name": "documentHash",
          "type": "bytes32"
        }
      ],
      "name": "CurrentTurtleDocument",
      "type": "event"
    },
    {
      "anonymous": false,
      "inputs": [
        {
          "indexed": true,
          "internalType": "address",
          "name": "previousOwner",
          "type": "address"
        },
        {
          "indexed": true,
          "internalType": "address",
          "name": "newOwner",
          "type": "address"
        }
      ],
      "name": "OwnershipTransferred",
      "type": "event"
    },
    {
      "inputs": [
        {
          "internalType": "string",
          "name": "_turtleId",
          "type": "string"
        },
        {
          "internalType": "string",
          "name": "_applicant",
          "type": "string"
        }
      ],
      "name": "registerTurtle",
      "outputs": [],
      "stateMutability": "nonpayable",
      "type": "function"
    },
    {
      "inputs": [
        {
          "internalType": "string",
          "name": "_turtleId",
          "type": "string"
        },
        {
          "internalType": "string",
          "name": "_applicant",
          "type": "string"
        },
        {
          "internalType": "bytes32",
          "name": "_documentHash",
          "type": "bytes32"
        },
        {
          "internalType": "string",
          "name": "_assigneeId",
          "type": "string"
        },
        {
          "internalType": "uint8",
          "name": "_count",
          "type": "uint8"
        },
        {
          "internalType": "string",
          "name": "_transferReason",
          "type": "string"
        },
        {
          "internalType": "string",
          "name": "_purpose",
          "type": "string"
        }
      ],
      "name": "registerTurtleAssigneeDocument",
      "outputs": [
        {
          "internalType": "bytes32",
          "name": "",
          "type": "bytes32"
        }
      ],
      "stateMutability": "nonpayable",
      "type": "function"
    },
    {
      "inputs": [
        {
          "internalType": "string",
          "name": "_turtleId",
          "type": "string"
        },
        {
          "internalType": "string",
          "name": "_applicant",
          "type": "string"
        },
        {
          "internalType": "bytes32",
          "name": "_documentHash",
          "type": "bytes32"
        },
        {
          "internalType": "string",
          "name": "_shelter",
          "type": "string"
        },
        {
          "internalType": "uint8",
          "name": "_count",
          "type": "uint8"
        },
        {
          "internalType": "string",
          "name": "_deathReason",
          "type": "string"
        },
        {
          "internalType": "string",
          "name": "_plan",
          "type": "string"
        },
        {
          "internalType": "string",
          "name": "_deathImage",
          "type": "string"
        },
        {
          "internalType": "string",
          "name": "_diagnosis",
          "type": "string"
        }
      ],
      "name": "registerTurtleDeathDocument",
      "outputs": [
        {
          "internalType": "bytes32",
          "name": "",
          "type": "bytes32"
        }
      ],
      "stateMutability": "nonpayable",
      "type": "function"
    },
    {
      "inputs": [
        {
          "internalType": "string",
          "name": "_turtleId",
          "type": "string"
        },
        {
          "internalType": "string",
          "name": "_applicant",
          "type": "string"
        },
        {
          "internalType": "bytes32",
          "name": "_documentHash",
          "type": "bytes32"
        },
        {
          "internalType": "string",
          "name": "_grantorId",
          "type": "string"
        },
        {
          "internalType": "string",
          "name": "_aquisition",
          "type": "string"
        },
        {
          "internalType": "string",
          "name": "_fatherId",
          "type": "string"
        },
        {
          "internalType": "string",
          "name": "_motherId",
          "type": "string"
        }
      ],
      "name": "registerTurtleGrantorDocument",
      "outputs": [
        {
          "internalType": "bytes32",
          "name": "",
          "type": "bytes32"
        }
      ],
      "stateMutability": "nonpayable",
      "type": "function"
    },
    {
      "inputs": [
        {
          "internalType": "string",
          "name": "_turtleId",
          "type": "string"
        },
        {
          "internalType": "string",
          "name": "_applicant",
          "type": "string"
        },
        {
          "internalType": "bytes32",
          "name": "_documentHash",
          "type": "bytes32"
        },
        {
          "internalType": "uint8",
          "name": "_count",
          "type": "uint8"
        },
        {
          "internalType": "string",
          "name": "_area",
          "type": "string"
        },
        {
          "internalType": "string",
          "name": "_purpose",
          "type": "string"
        },
        {
          "internalType": "string",
          "name": "_location",
          "type": "string"
        },
        {
          "internalType": "string",
          "name": "_fatherId",
          "type": "string"
        },
        {
          "internalType": "string",
          "name": "_motherId",
          "type": "string"
        },
        {
          "internalType": "string",
          "name": "_birth",
          "type": "string"
        },
        {
          "internalType": "string",
          "name": "_name",
          "type": "string"
        },
        {
          "internalType": "uint256",
          "name": "_weight",
          "type": "uint256"
        },
        {
          "internalType": "string",
          "name": "_gender",
          "type": "string"
        },
        {
          "internalType": "string",
          "name": "_locationSpecification",
          "type": "string"
        },
        {
          "internalType": "string",
          "name": "_multiplicationMethod",
          "type": "string"
        },
        {
          "internalType": "string",
          "name": "_shelterSpecification",
          "type": "string"
        },
        {
          "internalType": "bytes32",
          "name": "_turtleHash",
          "type": "bytes32"
        }
      ],
      "name": "registerTurtleMultiplicationDocument",
      "outputs": [
        {
          "internalType": "bytes32",
          "name": "",
          "type": "bytes32"
        }
      ],
      "stateMutability": "nonpayable",
      "type": "function"
    },
    {
      "inputs": [],
      "name": "renounceOwnership",
      "outputs": [],
      "stateMutability": "nonpayable",
      "type": "function"
    },
    {
      "inputs": [
        {
          "internalType": "address",
          "name": "newOwner",
          "type": "address"
        }
      ],
      "name": "transferOwnership",
      "outputs": [],
      "stateMutability": "nonpayable",
      "type": "function"
    },
    {
      "anonymous": false,
      "inputs": [
        {
          "indexed": true,
          "internalType": "string",
          "name": "turtleId",
          "type": "string"
        },
        {
          "indexed": true,
          "internalType": "string",
          "name": "applicant",
          "type": "string"
        },
        {
          "indexed": true,
          "internalType": "bytes32",
          "name": "documentHash",
          "type": "bytes32"
        }
      ],
      "name": "TurtleDeath",
      "type": "event"
    },
    {
      "anonymous": false,
      "inputs": [
        {
          "indexed": true,
          "internalType": "string",
          "name": "turtleId",
          "type": "string"
        },
        {
          "indexed": true,
          "internalType": "string",
          "name": "applicant",
          "type": "string"
        },
        {
          "indexed": true,
          "internalType": "bytes32",
          "name": "documentHash",
          "type": "bytes32"
        }
      ],
      "name": "TurtleMultiplication",
      "type": "event"
    },
    {
      "anonymous": false,
      "inputs": [
        {
          "indexed": true,
          "internalType": "string",
          "name": "turtleId",
          "type": "string"
        },
        {
          "indexed": true,
          "internalType": "string",
          "name": "oldOwner",
          "type": "string"
        },
        {
          "indexed": true,
          "internalType": "string",
          "name": "newOwner",
          "type": "string"
        }
      ],
      "name": "TurtleOwnerChanged",
      "type": "event"
    },
    {
      "anonymous": false,
      "inputs": [
        {
          "indexed": true,
          "internalType": "string",
          "name": "turtleId",
          "type": "string"
        },
        {
          "indexed": true,
          "internalType": "string",
          "name": "applicant",
          "type": "string"
        }
      ],
      "name": "TurtleRegistered",
      "type": "event"
    },
    {
      "anonymous": false,
      "inputs": [
        {
          "indexed": true,
          "internalType": "string",
          "name": "turtleId",
          "type": "string"
        },
        {
          "indexed": false,
          "internalType": "string",
          "name": "grantApplicant",
          "type": "string"
        },
        {
          "indexed": false,
          "internalType": "string",
          "name": "assignApplicant",
          "type": "string"
        },
        {
          "indexed": true,
          "internalType": "bytes32",
          "name": "documentHash",
          "type": "bytes32"
        }
      ],
      "name": "TurtleTransferred",
      "type": "event"
    },
    {
      "inputs": [],
      "name": "owner",
      "outputs": [
        {
          "internalType": "address",
          "name": "",
          "type": "address"
        }
      ],
      "stateMutability": "view",
      "type": "function"
    },
    {
      "inputs": [
        {
          "internalType": "string",
          "name": "_turtleId",
          "type": "string"
        }
      ],
      "name": "searchCurrentDocumentHash",
      "outputs": [
        {
          "internalType": "bytes32",
          "name": "",
          "type": "bytes32"
        }
      ],
      "stateMutability": "view",
      "type": "function"
    },
    {
      "inputs": [
        {
          "internalType": "string",
          "name": "_turtleId",
          "type": "string"
        },
        {
          "internalType": "bytes32",
          "name": "_documentHash",
          "type": "bytes32"
        }
      ],
      "name": "searchTurtleDeathDocument",
      "outputs": [
        {
          "components": [
            {
              "internalType": "string",
              "name": "applicant",
              "type": "string"
            },
            {
              "internalType": "string",
              "name": "shelter",
              "type": "string"
            },
            {
              "internalType": "uint8",
              "name": "count",
              "type": "uint8"
            },
            {
              "internalType": "string",
              "name": "deathReason",
              "type": "string"
            },
            {
              "internalType": "string",
              "name": "plan",
              "type": "string"
            },
            {
              "internalType": "string",
              "name": "deathImage",
              "type": "string"
            },
            {
              "internalType": "string",
              "name": "diagnosis",
              "type": "string"
            }
          ],
          "internalType": "struct TurtleDocumentation.Death",
          "name": "",
          "type": "tuple"
        }
      ],
      "stateMutability": "view",
      "type": "function"
    },
    {
      "inputs": [
        {
          "internalType": "string",
          "name": "_turtleId",
          "type": "string"
        },
        {
          "internalType": "bytes32",
          "name": "_documentHash",
          "type": "bytes32"
        }
      ],
      "name": "searchTurtleMultiplicationDocument",
      "outputs": [
        {
          "components": [
            {
              "internalType": "string",
              "name": "applicant",
              "type": "string"
            },
            {
              "internalType": "uint8",
              "name": "count",
              "type": "uint8"
            },
            {
              "internalType": "string",
              "name": "area",
              "type": "string"
            },
            {
              "internalType": "string",
              "name": "purpose",
              "type": "string"
            },
            {
              "internalType": "string",
              "name": "location",
              "type": "string"
            },
            {
              "internalType": "string",
              "name": "fatherId",
              "type": "string"
            },
            {
              "internalType": "string",
              "name": "motherId",
              "type": "string"
            },
            {
              "internalType": "string",
              "name": "birth",
              "type": "string"
            },
            {
              "internalType": "string",
              "name": "name",
              "type": "string"
            },
            {
              "internalType": "uint256",
              "name": "weight",
              "type": "uint256"
            },
            {
              "internalType": "string",
              "name": "gender",
              "type": "string"
            },
            {
              "internalType": "string",
              "name": "locationSpecification",
              "type": "string"
            },
            {
              "internalType": "string",
              "name": "multiplicationMethod",
              "type": "string"
            },
            {
              "internalType": "string",
              "name": "shelterSpecification",
              "type": "string"
            }
          ],
          "internalType": "struct TurtleDocumentation.Multiplication",
          "name": "",
          "type": "tuple"
        }
      ],
      "stateMutability": "view",
      "type": "function"
    },
    {
      "inputs": [
        {
          "internalType": "string",
          "name": "_turtleId",
          "type": "string"
        },
        {
          "internalType": "bytes32",
          "name": "_documentHash",
          "type": "bytes32"
        }
      ],
      "name": "searchTurtleTransferDocument",
      "outputs": [
        {
          "components": [
            {
              "internalType": "string",
              "name": "grantApplicant",
              "type": "string"
            },
            {
              "internalType": "string",
              "name": "assignApplicant",
              "type": "string"
            },
            {
              "internalType": "string",
              "name": "grantorId",
              "type": "string"
            },
            {
              "internalType": "string",
              "name": "assigneeId",
              "type": "string"
            },
            {
              "internalType": "uint8",
              "name": "count",
              "type": "uint8"
            },
            {
              "internalType": "string",
              "name": "transferReason",
              "type": "string"
            },
            {
              "internalType": "string",
              "name": "purpose",
              "type": "string"
            },
            {
              "internalType": "string",
              "name": "aquisition",
              "type": "string"
            },
            {
              "internalType": "string",
              "name": "fatherId",
              "type": "string"
            },
            {
              "internalType": "string",
              "name": "motherId",
              "type": "string"
            }
          ],
          "internalType": "struct TurtleDocumentation.Transfer",
          "name": "",
          "type": "tuple"
        }
      ],
      "stateMutability": "view",
      "type": "function"
    },
    {
      "inputs": [
        {
          "internalType": "string",
          "name": "_turtleId",
          "type": "string"
        },
        {
          "internalType": "bytes32",
          "name": "_hash",
          "type": "bytes32"
        }
      ],
      "name": "turtleValid",
      "outputs": [
        {
          "internalType": "bool",
          "name": "",
          "type": "bool"
        }
      ],
      "stateMutability": "view",
      "type": "function"
    }
  ],
  "bytecode": "0x60806040523480156200001157600080fd5b5062000032620000266200003860201b60201c565b6200004060201b60201c565b62000104565b600033905090565b60008060009054906101000a900473ffffffffffffffffffffffffffffffffffffffff169050816000806101000a81548173ffffffffffffffffffffffffffffffffffffffff021916908373ffffffffffffffffffffffffffffffffffffffff1602179055508173ffffffffffffffffffffffffffffffffffffffff168173ffffffffffffffffffffffffffffffffffffffff167f8be0079c531659141344cd1fd0a4f28419497f9722a3daafe3b4186f6b6457e060405160405180910390a35050565b613a9580620001146000396000f3fe608060405234801561001057600080fd5b50600436106100b45760003560e01c80635c493eaa116100715780635c493eaa146101d9578063715018a6146101f55780638da5cb5b146101ff578063ce5f0b7d1461021d578063e18b9d0514610239578063f2fde38b14610269576100b4565b806317aa1f48146100b95780631a0642ef146100e95780631c1b0157146101195780631c61849c146101495780634c3981fd14610179578063596c442a146101a9575b600080fd5b6100d360048036038101906100ce9190612390565b610285565b6040516100e09190612546565b60405180910390f35b61010360048036038101906100fe9190612390565b61065b565b604051610110919061267a565b60405180910390f35b610133600480360381019061012e91906126c8565b610be8565b60405161014091906127f0565b60405180910390f35b610163600480360381019061015e919061280b565b610dbd565b60405161017091906127f0565b60405180910390f35b610193600480360381019061018e9190612390565b611018565b6040516101a09190612a97565b60405180910390f35b6101c360048036038101906101be9190612ab9565b6115a5565b6040516101d091906127f0565b60405180910390f35b6101f360048036038101906101ee9190612c03565b611741565b005b6101fd611886565b005b61020761189a565b6040516102149190612cbc565b60405180910390f35b61023760048036038101906102329190612cd7565b6118c3565b005b610253600480360381019061024e9190612d7e565b611c79565b60405161026091906127f0565b60405180910390f35b610283600480360381019061027e9190612f85565b611eea565b005b61028d6120b7565b60018360405161029d9190612fee565b908152602001604051809103902060020160008381526020019081526020016000206040518060e00160405290816000820180546102da90613034565b80601f016020809104026020016040519081016040528092919081815260200182805461030690613034565b80156103535780601f1061032857610100808354040283529160200191610353565b820191906000526020600020905b81548152906001019060200180831161033657829003601f168201915b5050505050815260200160018201805461036c90613034565b80601f016020809104026020016040519081016040528092919081815260200182805461039890613034565b80156103e55780601f106103ba576101008083540402835291602001916103e5565b820191906000526020600020905b8154815290600101906020018083116103c857829003601f168201915b505050505081526020016002820160009054906101000a900460ff1660ff1660ff16815260200160038201805461041b90613034565b80601f016020809104026020016040519081016040528092919081815260200182805461044790613034565b80156104945780601f1061046957610100808354040283529160200191610494565b820191906000526020600020905b81548152906001019060200180831161047757829003601f168201915b505050505081526020016004820180546104ad90613034565b80601f01602080910402602001604051908101604052809291908181526020018280546104d990613034565b80156105265780601f106104fb57610100808354040283529160200191610526565b820191906000526020600020905b81548152906001019060200180831161050957829003601f168201915b5050505050815260200160058201805461053f90613034565b80601f016020809104026020016040519081016040528092919081815260200182805461056b90613034565b80156105b85780601f1061058d576101008083540402835291602001916105b8565b820191906000526020600020905b81548152906001019060200180831161059b57829003601f168201915b505050505081526020016006820180546105d190613034565b80601f01602080910402602001604051908101604052809291908181526020018280546105fd90613034565b801561064a5780601f1061061f5761010080835404028352916020019161064a565b820191906000526020600020905b81548152906001019060200180831161062d57829003601f168201915b505050505081525050905092915050565b6106636120f7565b6001836040516106739190612fee565b90815260200160405180910390206001016000838152602001908152602001600020604051806101400160405290816000820180546106b190613034565b80601f01602080910402602001604051908101604052809291908181526020018280546106dd90613034565b801561072a5780601f106106ff5761010080835404028352916020019161072a565b820191906000526020600020905b81548152906001019060200180831161070d57829003601f168201915b5050505050815260200160018201805461074390613034565b80601f016020809104026020016040519081016040528092919081815260200182805461076f90613034565b80156107bc5780601f10610791576101008083540402835291602001916107bc565b820191906000526020600020905b81548152906001019060200180831161079f57829003601f168201915b505050505081526020016002820180546107d590613034565b80601f016020809104026020016040519081016040528092919081815260200182805461080190613034565b801561084e5780601f106108235761010080835404028352916020019161084e565b820191906000526020600020905b81548152906001019060200180831161083157829003601f168201915b5050505050815260200160038201805461086790613034565b80601f016020809104026020016040519081016040528092919081815260200182805461089390613034565b80156108e05780601f106108b5576101008083540402835291602001916108e0565b820191906000526020600020905b8154815290600101906020018083116108c357829003601f168201915b505050505081526020016004820160009054906101000a900460ff1660ff1660ff16815260200160058201805461091690613034565b80601f016020809104026020016040519081016040528092919081815260200182805461094290613034565b801561098f5780601f106109645761010080835404028352916020019161098f565b820191906000526020600020905b81548152906001019060200180831161097257829003601f168201915b505050505081526020016006820180546109a890613034565b80601f01602080910402602001604051908101604052809291908181526020018280546109d490613034565b8015610a215780601f106109f657610100808354040283529160200191610a21565b820191906000526020600020905b815481529060010190602001808311610a0457829003601f168201915b50505050508152602001600782018054610a3a90613034565b80601f0160208091040260200160405190810160405280929190818152602001828054610a6690613034565b8015610ab35780601f10610a8857610100808354040283529160200191610ab3565b820191906000526020600020905b815481529060010190602001808311610a9657829003601f168201915b50505050508152602001600882018054610acc90613034565b80601f0160208091040260200160405190810160405280929190818152602001828054610af890613034565b8015610b455780601f10610b1a57610100808354040283529160200191610b45565b820191906000526020600020905b815481529060010190602001808311610b2857829003601f168201915b50505050508152602001600982018054610b5e90613034565b80601f0160208091040260200160405190810160405280929190818152602001828054610b8a90613034565b8015610bd75780601f10610bac57610100808354040283529160200191610bd7565b820191906000526020600020905b815481529060010190602001808311610bba57829003601f168201915b505050505081525050905092915050565b600080878742604051602001610c0093929190613090565b60405160208183030381529060405280519060200120905086600189604051610c299190612fee565b908152602001604051809103902060010160008381526020019081526020016000206001019081610c5a9190613271565b5085600189604051610c6c9190612fee565b908152602001604051809103902060010160008381526020019081526020016000206003019081610c9d9190613271565b5084600189604051610caf9190612fee565b9081526020016040518091039020600101600083815260200190815260200160002060040160006101000a81548160ff021916908360ff16021790555083600189604051610cfd9190612fee565b908152602001604051809103902060010160008381526020019081526020016000206005019081610d2e9190613271565b5082600189604051610d409190612fee565b908152602001604051809103902060010160008381526020019081526020016000206006019081610d719190613271565b507f5900e70e78483b52bbe5c26fe3eddc846f885a9fe48efe16abcda778278f4f1288888884604051610da7949392919061338d565b60405180910390a1809150509695505050505050565b600080898942604051602001610dd593929190613090565b6040516020818303038152906040528051906020012090508860018b604051610dfe9190612fee565b908152602001604051809103902060020160008381526020019081526020016000206000019081610e2f9190613271565b508760018b604051610e419190612fee565b908152602001604051809103902060020160008381526020019081526020016000206001019081610e729190613271565b508660018b604051610e849190612fee565b9081526020016040518091039020600201600083815260200190815260200160002060020160006101000a81548160ff021916908360ff1602179055508560018b604051610ed29190612fee565b908152602001604051809103902060020160008381526020019081526020016000206003019081610f039190613271565b508460018b604051610f159190612fee565b908152602001604051809103902060020160008381526020019081526020016000206004019081610f469190613271565b508360018b604051610f589190612fee565b908152602001604051809103902060020160008381526020019081526020016000206005019081610f899190613271565b508260018b604051610f9b9190612fee565b908152602001604051809103902060020160008381526020019081526020016000206006019081610fcc9190613271565b507fbf4ff8efb9c111a99679d7a6a4263272c5fa30a2fa39bec8f6e4ce26902fc0be8a8a83604051611000939291906133e7565b60405180910390a18091505098975050505050505050565b61102061214d565b6001836040516110309190612fee565b908152602001604051809103902060000160008381526020019081526020016000206040518061014001604052908160008201805461106e90613034565b80601f016020809104026020016040519081016040528092919081815260200182805461109a90613034565b80156110e75780601f106110bc576101008083540402835291602001916110e7565b820191906000526020600020905b8154815290600101906020018083116110ca57829003601f168201915b505050505081526020016001820160009054906101000a900460ff1660ff1660ff16815260200160028201805461111d90613034565b80601f016020809104026020016040519081016040528092919081815260200182805461114990613034565b80156111965780601f1061116b57610100808354040283529160200191611196565b820191906000526020600020905b81548152906001019060200180831161117957829003601f168201915b505050505081526020016003820180546111af90613034565b80601f01602080910402602001604051908101604052809291908181526020018280546111db90613034565b80156112285780601f106111fd57610100808354040283529160200191611228565b820191906000526020600020905b81548152906001019060200180831161120b57829003601f168201915b5050505050815260200160048201805461124190613034565b80601f016020809104026020016040519081016040528092919081815260200182805461126d90613034565b80156112ba5780601f1061128f576101008083540402835291602001916112ba565b820191906000526020600020905b81548152906001019060200180831161129d57829003601f168201915b505050505081526020016005820180546112d390613034565b80601f01602080910402602001604051908101604052809291908181526020018280546112ff90613034565b801561134c5780601f106113215761010080835404028352916020019161134c565b820191906000526020600020905b81548152906001019060200180831161132f57829003601f168201915b5050505050815260200160068201805461136590613034565b80601f016020809104026020016040519081016040528092919081815260200182805461139190613034565b80156113de5780601f106113b3576101008083540402835291602001916113de565b820191906000526020600020905b8154815290600101906020018083116113c157829003601f168201915b505050505081526020016007820180546113f790613034565b80601f016020809104026020016040519081016040528092919081815260200182805461142390613034565b80156114705780601f1061144557610100808354040283529160200191611470565b820191906000526020600020905b81548152906001019060200180831161145357829003601f168201915b5050505050815260200160088201805461148990613034565b80601f01602080910402602001604051908101604052809291908181526020018280546114b590613034565b80156115025780601f106114d757610100808354040283529160200191611502565b820191906000526020600020905b8154815290600101906020018083116114e557829003601f168201915b5050505050815260200160098201805461151b90613034565b80601f016020809104026020016040519081016040528092919081815260200182805461154790613034565b80156115945780601f1061156957610100808354040283529160200191611594565b820191906000526020600020905b81548152906001019060200180831161157757829003601f168201915b505050505081525050905092915050565b6000866001896040516115b89190612fee565b9081526020016040518091039020600101600088815260200190815260200160002060000190816115e99190613271565b50846001896040516115fb9190612fee565b90815260200160405180910390206001016000888152602001908152602001600020600201908161162c9190613271565b508360018960405161163e9190612fee565b90815260200160405180910390206001016000888152602001908152602001600020600701908161166f9190613271565b50826001896040516116819190612fee565b9081526020016040518091039020600101600088815260200190815260200160002060080190816116b29190613271565b50816001896040516116c49190612fee565b9081526020016040518091039020600101600088815260200190815260200160002060090190816116f59190613271565b507f5900e70e78483b52bbe5c26fe3eddc846f885a9fe48efe16abcda778278f4f128888878960405161172b949392919061338d565b60405180910390a1859050979650505050505050565b611749611f6d565b6001826040516117599190612fee565b908152602001604051809103902060030160009054906101000a900460ff16156117b8576040517f08c379a00000000000000000000000000000000000000000000000000000000081526004016117af90613478565b60405180910390fd5b60006001836040516117ca9190612fee565b9081526020016040518091039020905060018160030160006101000a81548160ff0219169083151502179055506002826040516118079190612fee565b9081526020016040518091039020839080600181540180825580915050600190039060005260206000200160009091909190915090816118479190613271565b507f7d904e478df0f515c7058df56a2295c88f46c97f269f153cb964c1574e4ad9e88383604051611879929190613498565b60405180910390a1505050565b61188e611f6d565b6118986000611feb565b565b60008060009054906101000a900473ffffffffffffffffffffffffffffffffffffffff16905090565b6001836040516118d39190612fee565b908152602001604051809103902060030160009054906101000a900460ff16611931576040517f08c379a00000000000000000000000000000000000000000000000000000000081526004016119289061351b565b60405180910390fd5b60006002836040516119439190612fee565b90815260200160405180910390208054905011611995576040517f08c379a000000000000000000000000000000000000000000000000000000000815260040161198c906135ad565b60405180910390fd5b6000805b6002846040516119a99190612fee565b908152602001604051809103902080549050811015611a6a57846040516020016119d39190612fee565b604051602081830303815290604052805190602001206002856040516119f99190612fee565b90815260200160405180910390208281548110611a1957611a186135cd565b5b90600052602060002001604051602001611a33919061367f565b6040516020818303038152906040528051906020012003611a575760019150611a6a565b8080611a62906136c5565b915050611999565b5080611aab576040517f08c379a0000000000000000000000000000000000000000000000000000000008152600401611aa29061377f565b60405180910390fd5b6000600284604051611abd9190612fee565b9081526020016040518091039020905060005b8180549050811015611be55785604051602001611aed9190612fee565b60405160208183030381529060405280519060200120828281548110611b1657611b156135cd565b5b90600052602060002001604051602001611b30919061367f565b6040516020818303038152906040528051906020012003611bd2578160018380549050611b5d919061379f565b81548110611b6e57611b6d6135cd565b5b90600052602060002001828281548110611b8b57611b8a6135cd565b5b906000526020600020019081611ba191906137fe565b5081805480611bb357611bb26138e6565b5b600190038181906000526020600020016000611bcf91906121a3565b90555b8080611bdd906136c5565b915050611ad0565b50600283604051611bf69190612fee565b908152602001604051809103902085908060018154018082558091505060019003906000526020600020016000909190919091509081611c369190613271565b507f80d739977bb0030fd7e876dc1ca9a667adfc1b71fea4820c4266de2ee6d6c657858585604051611c6a93929190613915565b60405180910390a15050505050565b600060018b604051611c8b9190612fee565b908152602001604051809103902060030160009054906101000a900460ff1615611cea576040517f08c379a0000000000000000000000000000000000000000000000000000000008152600401611ce190613478565b60405180910390fd5b60008b8b42604051602001611d0193929190613090565b604051602081830303815290604052805190602001209050600060018d604051611d2b9190612fee565b908152602001604051809103902090508b8160000160008481526020019081526020016000206000019081611d609190613271565b508a81600001600084815260200190815260200160002060010160006101000a81548160ff021916908360ff160217905550898160000160008481526020019081526020016000206003019081611db79190613271565b50888160000160008481526020019081526020016000206004019081611ddd9190613271565b50878160000160008481526020019081526020016000206005019081611e039190613271565b50868160000160008481526020019081526020016000206006019081611e299190613271565b50858160000160008481526020019081526020016000206007019081611e4f9190613271565b50848160000160008481526020019081526020016000206008019081611e759190613271565b50838160000160008481526020019081526020016000206009019081611e9b9190613271565b507f406d6a39963b189ae4d4ba0b53780ecdf05dc013e196662687a246b0a2b705488d8d84604051611ecf939291906133e7565b60405180910390a181925050509a9950505050505050505050565b611ef2611f6d565b600073ffffffffffffffffffffffffffffffffffffffff168173ffffffffffffffffffffffffffffffffffffffff1603611f61576040517f08c379a0000000000000000000000000000000000000000000000000000000008152600401611f58906139d3565b60405180910390fd5b611f6a81611feb565b50565b611f756120af565b73ffffffffffffffffffffffffffffffffffffffff16611f9361189a565b73ffffffffffffffffffffffffffffffffffffffff1614611fe9576040517f08c379a0000000000000000000000000000000000000000000000000000000008152600401611fe090613a3f565b60405180910390fd5b565b60008060009054906101000a900473ffffffffffffffffffffffffffffffffffffffff169050816000806101000a81548173ffffffffffffffffffffffffffffffffffffffff021916908373ffffffffffffffffffffffffffffffffffffffff1602179055508173ffffffffffffffffffffffffffffffffffffffff168173ffffffffffffffffffffffffffffffffffffffff167f8be0079c531659141344cd1fd0a4f28419497f9722a3daafe3b4186f6b6457e060405160405180910390a35050565b600033905090565b6040518060e001604052806060815260200160608152602001600060ff168152602001606081526020016060815260200160608152602001606081525090565b60405180610140016040528060608152602001606081526020016060815260200160608152602001600060ff16815260200160608152602001606081526020016060815260200160608152602001606081525090565b60405180610140016040528060608152602001600060ff16815260200160608152602001606081526020016060815260200160608152602001606081526020016060815260200160608152602001606081525090565b5080546121af90613034565b6000825580601f106121c157506121e0565b601f0160209004906000526020600020908101906121df91906121e3565b5b50565b5b808211156121fc5760008160009055506001016121e4565b5090565b6000604051905090565b600080fd5b600080fd5b600080fd5b600080fd5b6000601f19601f8301169050919050565b7f4e487b7100000000000000000000000000000000000000000000000000000000600052604160045260246000fd5b6122678261221e565b810181811067ffffffffffffffff821117156122865761228561222f565b5b80604052505050565b6000612299612200565b90506122a5828261225e565b919050565b600067ffffffffffffffff8211156122c5576122c461222f565b5b6122ce8261221e565b9050602081019050919050565b82818337600083830152505050565b60006122fd6122f8846122aa565b61228f565b90508281526020810184848401111561231957612318612219565b5b6123248482856122db565b509392505050565b600082601f83011261234157612340612214565b5b81356123518482602086016122ea565b91505092915050565b6000819050919050565b61236d8161235a565b811461237857600080fd5b50565b60008135905061238a81612364565b92915050565b600080604083850312156123a7576123a661220a565b5b600083013567ffffffffffffffff8111156123c5576123c461220f565b5b6123d18582860161232c565b92505060206123e28582860161237b565b9150509250929050565b600081519050919050565b600082825260208201905092915050565b60005b8381101561242657808201518184015260208101905061240b565b60008484015250505050565b600061243d826123ec565b61244781856123f7565b9350612457818560208601612408565b6124608161221e565b840191505092915050565b600060ff82169050919050565b6124818161246b565b82525050565b600060e08301600083015184820360008601526124a48282612432565b915050602083015184820360208601526124be8282612432565b91505060408301516124d36040860182612478565b50606083015184820360608601526124eb8282612432565b915050608083015184820360808601526125058282612432565b91505060a083015184820360a086015261251f8282612432565b91505060c083015184820360c08601526125398282612432565b9150508091505092915050565b600060208201905081810360008301526125608184612487565b905092915050565b60006101408301600083015184820360008601526125868282612432565b915050602083015184820360208601526125a08282612432565b915050604083015184820360408601526125ba8282612432565b915050606083015184820360608601526125d48282612432565b91505060808301516125e96080860182612478565b5060a083015184820360a08601526126018282612432565b91505060c083015184820360c086015261261b8282612432565b91505060e083015184820360e08601526126358282612432565b9150506101008301518482036101008601526126518282612432565b91505061012083015184820361012086015261266d8282612432565b9150508091505092915050565b600060208201905081810360008301526126948184612568565b905092915050565b6126a58161246b565b81146126b057600080fd5b50565b6000813590506126c28161269c565b92915050565b60008060008060008060c087890312156126e5576126e461220a565b5b600087013567ffffffffffffffff8111156127035761270261220f565b5b61270f89828a0161232c565b965050602087013567ffffffffffffffff8111156127305761272f61220f565b5b61273c89828a0161232c565b955050604087013567ffffffffffffffff81111561275d5761275c61220f565b5b61276989828a0161232c565b945050606061277a89828a016126b3565b935050608087013567ffffffffffffffff81111561279b5761279a61220f565b5b6127a789828a0161232c565b92505060a087013567ffffffffffffffff8111156127c8576127c761220f565b5b6127d489828a0161232c565b9150509295509295509295565b6127ea8161235a565b82525050565b600060208201905061280560008301846127e1565b92915050565b600080600080600080600080610100898b03121561282c5761282b61220a565b5b600089013567ffffffffffffffff81111561284a5761284961220f565b5b6128568b828c0161232c565b985050602089013567ffffffffffffffff8111156128775761287661220f565b5b6128838b828c0161232c565b975050604089013567ffffffffffffffff8111156128a4576128a361220f565b5b6128b08b828c0161232c565b96505060606128c18b828c016126b3565b955050608089013567ffffffffffffffff8111156128e2576128e161220f565b5b6128ee8b828c0161232c565b94505060a089013567ffffffffffffffff81111561290f5761290e61220f565b5b61291b8b828c0161232c565b93505060c089013567ffffffffffffffff81111561293c5761293b61220f565b5b6129488b828c0161232c565b92505060e089013567ffffffffffffffff8111156129695761296861220f565b5b6129758b828c0161232c565b9150509295985092959890939650565b60006101408301600083015184820360008601526129a38282612432565b91505060208301516129b86020860182612478565b50604083015184820360408601526129d08282612432565b915050606083015184820360608601526129ea8282612432565b91505060808301518482036080860152612a048282612432565b91505060a083015184820360a0860152612a1e8282612432565b91505060c083015184820360c0860152612a388282612432565b91505060e083015184820360e0860152612a528282612432565b915050610100830151848203610100860152612a6e8282612432565b915050610120830151848203610120860152612a8a8282612432565b9150508091505092915050565b60006020820190508181036000830152612ab18184612985565b905092915050565b600080600080600080600060e0888a031215612ad857612ad761220a565b5b600088013567ffffffffffffffff811115612af657612af561220f565b5b612b028a828b0161232c565b975050602088013567ffffffffffffffff811115612b2357612b2261220f565b5b612b2f8a828b0161232c565b9650506040612b408a828b0161237b565b955050606088013567ffffffffffffffff811115612b6157612b6061220f565b5b612b6d8a828b0161232c565b945050608088013567ffffffffffffffff811115612b8e57612b8d61220f565b5b612b9a8a828b0161232c565b93505060a088013567ffffffffffffffff811115612bbb57612bba61220f565b5b612bc78a828b0161232c565b92505060c088013567ffffffffffffffff811115612be857612be761220f565b5b612bf48a828b0161232c565b91505092959891949750929550565b60008060408385031215612c1a57612c1961220a565b5b600083013567ffffffffffffffff811115612c3857612c3761220f565b5b612c448582860161232c565b925050602083013567ffffffffffffffff811115612c6557612c6461220f565b5b612c718582860161232c565b9150509250929050565b600073ffffffffffffffffffffffffffffffffffffffff82169050919050565b6000612ca682612c7b565b9050919050565b612cb681612c9b565b82525050565b6000602082019050612cd16000830184612cad565b92915050565b600080600060608486031215612cf057612cef61220a565b5b600084013567ffffffffffffffff811115612d0e57612d0d61220f565b5b612d1a8682870161232c565b935050602084013567ffffffffffffffff811115612d3b57612d3a61220f565b5b612d478682870161232c565b925050604084013567ffffffffffffffff811115612d6857612d6761220f565b5b612d748682870161232c565b9150509250925092565b6000806000806000806000806000806101408b8d031215612da257612da161220a565b5b60008b013567ffffffffffffffff811115612dc057612dbf61220f565b5b612dcc8d828e0161232c565b9a505060208b013567ffffffffffffffff811115612ded57612dec61220f565b5b612df98d828e0161232c565b9950506040612e0a8d828e016126b3565b98505060608b013567ffffffffffffffff811115612e2b57612e2a61220f565b5b612e378d828e0161232c565b97505060808b013567ffffffffffffffff811115612e5857612e5761220f565b5b612e648d828e0161232c565b96505060a08b013567ffffffffffffffff811115612e8557612e8461220f565b5b612e918d828e0161232c565b95505060c08b013567ffffffffffffffff811115612eb257612eb161220f565b5b612ebe8d828e0161232c565b94505060e08b013567ffffffffffffffff811115612edf57612ede61220f565b5b612eeb8d828e0161232c565b9350506101008b013567ffffffffffffffff811115612f0d57612f0c61220f565b5b612f198d828e0161232c565b9250506101208b013567ffffffffffffffff811115612f3b57612f3a61220f565b5b612f478d828e0161232c565b9150509295989b9194979a5092959850565b612f6281612c9b565b8114612f6d57600080fd5b50565b600081359050612f7f81612f59565b92915050565b600060208284031215612f9b57612f9a61220a565b5b6000612fa984828501612f70565b91505092915050565b600081905092915050565b6000612fc8826123ec565b612fd28185612fb2565b9350612fe2818560208601612408565b80840191505092915050565b6000612ffa8284612fbd565b915081905092915050565b7f4e487b7100000000000000000000000000000000000000000000000000000000600052602260045260246000fd5b6000600282049050600182168061304c57607f821691505b60208210810361305f5761305e613005565b5b50919050565b6000819050919050565b6000819050919050565b61308a61308582613065565b61306f565b82525050565b600061309c8286612fbd565b91506130a88285612fbd565b91506130b48284613079565b602082019150819050949350505050565b60008190508160005260206000209050919050565b60006020601f8301049050919050565b600082821b905092915050565b6000600883026131277fffffffffffffffffffffffffffffffffffffffffffffffffffffffffffffffff826130ea565b61313186836130ea565b95508019841693508086168417925050509392505050565b6000819050919050565b600061316e61316961316484613065565b613149565b613065565b9050919050565b6000819050919050565b61318883613153565b61319c61319482613175565b8484546130f7565b825550505050565b600090565b6131b16131a4565b6131bc81848461317f565b505050565b5b818110156131e0576131d56000826131a9565b6001810190506131c2565b5050565b601f821115613225576131f6816130c5565b6131ff846130da565b8101602085101561320e578190505b61322261321a856130da565b8301826131c1565b50505b505050565b600082821c905092915050565b60006132486000198460080261322a565b1980831691505092915050565b60006132618383613237565b9150826002028217905092915050565b61327a826123ec565b67ffffffffffffffff8111156132935761329261222f565b5b61329d8254613034565b6132a88282856131e4565b600060209050601f8311600181146132db57600084156132c9578287015190505b6132d38582613255565b86555061333b565b601f1984166132e9866130c5565b60005b82811015613311578489015182556001820191506020850194506020810190506132ec565b8683101561332e578489015161332a601f891682613237565b8355505b6001600288020188555050505b505050505050565b600082825260208201905092915050565b600061335f826123ec565b6133698185613343565b9350613379818560208601612408565b6133828161221e565b840191505092915050565b600060808201905081810360008301526133a78187613354565b905081810360208301526133bb8186613354565b905081810360408301526133cf8185613354565b90506133de60608301846127e1565b95945050505050565b600060608201905081810360008301526134018186613354565b905081810360208301526134158185613354565b905061342460408301846127e1565b949350505050565b7f547572746c6520616c7265616479207265676973746572656400000000000000600082015250565b6000613462601983613343565b915061346d8261342c565b602082019050919050565b6000602082019050818103600083015261349181613455565b9050919050565b600060408201905081810360008301526134b28185613354565b905081810360208301526134c68184613354565b90509392505050565b7f547572746c6520646f6573206e6f742065786973740000000000000000000000600082015250565b6000613505601583613343565b9150613510826134cf565b602082019050919050565b60006020820190508181036000830152613534816134f8565b9050919050565b7f4f6c64206f776e657220646f6573206e6f74206f776e20616e7920747572746c60008201527f6573000000000000000000000000000000000000000000000000000000000000602082015250565b6000613597602283613343565b91506135a28261353b565b604082019050919050565b600060208201905081810360008301526135c68161358a565b9050919050565b7f4e487b7100000000000000000000000000000000000000000000000000000000600052603260045260246000fd5b6000815461360981613034565b6136138186612fb2565b9450600182166000811461362e576001811461364357613676565b60ff1983168652811515820286019350613676565b61364c856130c5565b60005b8381101561366e5781548189015260018201915060208101905061364f565b838801955050505b50505092915050565b600061368b82846135fc565b915081905092915050565b7f4e487b7100000000000000000000000000000000000000000000000000000000600052601160045260246000fd5b60006136d082613065565b91507fffffffffffffffffffffffffffffffffffffffffffffffffffffffffffffffff820361370257613701613696565b5b600182019050919050565b7f4f6c64206f776e657220646f6573206e6f74206f776e2074686973207475727460008201527f6c65000000000000000000000000000000000000000000000000000000000000602082015250565b6000613769602283613343565b91506137748261370d565b604082019050919050565b600060208201905081810360008301526137988161375c565b9050919050565b60006137aa82613065565b91506137b583613065565b92508282039050818111156137cd576137cc613696565b5b92915050565b6000815490506137e281613034565b9050919050565b60008190508160005260206000209050919050565b81810361380c5750506138e4565b613815826137d3565b67ffffffffffffffff81111561382e5761382d61222f565b5b6138388254613034565b6138438282856131e4565b6000601f8311600181146138725760008415613860578287015490505b61386a8582613255565b8655506138dd565b601f198416613880876137e9565b965061388b866130c5565b60005b828110156138b35784890154825560018201915060018501945060208101905061388e565b868310156138d057848901546138cc601f891682613237565b8355505b6001600288020188555050505b5050505050505b565b7f4e487b7100000000000000000000000000000000000000000000000000000000600052603160045260246000fd5b6000606082019050818103600083015261392f8186613354565b905081810360208301526139438185613354565b905081810360408301526139578184613354565b9050949350505050565b7f4f776e61626c653a206e6577206f776e657220697320746865207a65726f206160008201527f6464726573730000000000000000000000000000000000000000000000000000602082015250565b60006139bd602683613343565b91506139c882613961565b604082019050919050565b600060208201905081810360008301526139ec816139b0565b9050919050565b7f4f776e61626c653a2063616c6c6572206973206e6f7420746865206f776e6572600082015250565b6000613a29602083613343565b9150613a34826139f3565b602082019050919050565b60006020820190508181036000830152613a5881613a1c565b905091905056fea26469706673582212206c5c1a41ba79cc8b67535ced0c366e35f1ec23ed3259b164ba353c73d02cdf2b64736f6c63430008120033",
  "immutableReferences": {},
  "source": "// SPDX-License-Identifier: MIT\r\npragma solidity >=0.8.0 <0.9.0;\r\n\r\nimport \"@openzeppelin/contracts/access/Ownable.sol\";\r\n\r\ncontract TurtleDocumentation is Ownable {\r\n    //  \r\n    struct Multiplication {\r\n        //  \r\n        string applicant;\r\n        //  \r\n        uint8 count;\r\n        string area;\r\n        string purpose;\r\n        string location;\r\n        //  \r\n        string fatherId;\r\n        string motherId;\r\n        string locationSpecification;\r\n        string multiplicationMethod;\r\n        string shelterSpecification;\r\n    }\r\n\r\n    //  \r\n    struct Transfer {\r\n        //  \r\n        string grantApplicant;\r\n        string assignApplicant;\r\n        // ,  \r\n        string grantorId;\r\n        string assigneeId;\r\n        //  \r\n        uint8 count;\r\n        string transferReason;\r\n        string purpose;\r\n        //  \r\n        string aquisition;\r\n        string fatherId;\r\n        string motherId;\r\n    }\r\n\r\n    // , \r\n    struct Death {\r\n        //  \r\n        string applicant;\r\n        //  \r\n        string shelter;\r\n        //  \r\n        uint8 count;\r\n        string deathReason;\r\n        string plan;\r\n        //  \r\n        string deathImage;\r\n        string diagnosis;\r\n    }\r\n\r\n    struct Turtle {\r\n        mapping(bytes32 => Multiplication) multiplicationDoc;\r\n        mapping(bytes32 => Transfer) transferDocs;\r\n        mapping(bytes32 => Death) deathDoc;\r\n        bool exists;\r\n    }\r\n\r\n    //   ( UUID =>  )\r\n    mapping(string => Turtle) private turtles;\r\n    //    ( UUID =>  UUID )\r\n    mapping(string => string[]) private ownerToTurtleIds;\r\n\r\n    // event \r\n    event TurtleRegistered(string turtleId, string applicant);\r\n    event TurtleMultiplication(string turtleId, string applicant, bytes32 documentHash);\r\n    event TurtleTransferred(string turtleId, string grantApplicant, string assignApplicant, bytes32 docuemntHash);\r\n    event TurtleDeath(string turtleId, string applicant, bytes32 documentHash);\r\n    event TurtleOwnerChanged(string turtleId, string oldOwner, string newOwner);\r\n\r\n    // ()  \r\n    function registerTurtle(string memory _turtleId, string memory _applicant) public onlyOwner {\r\n        require(!turtles[_turtleId].exists, \"Turtle already registered\");\r\n\r\n        Turtle storage newTurtle = turtles[_turtleId];\r\n        newTurtle.exists = true;\r\n        ownerToTurtleIds[_applicant].push(_turtleId);\r\n\r\n        emit TurtleRegistered(_turtleId, _applicant);\r\n    }\r\n\r\n    //    \r\n    function registerTurtleMultiplicationDocument(\r\n        string memory _turtleId,\r\n        string memory _applicant,\r\n        uint8 _count,\r\n        string memory _purpose,\r\n        string memory _location,\r\n        string memory _fatherId,\r\n        string memory _motherId,\r\n        string memory _locationSpecification,\r\n        string memory _multiplicationMethod,\r\n        string memory _shelterSpecification\r\n    ) public returns (bytes32) {\r\n        require(!turtles[_turtleId].exists, \"Turtle already registered\");\r\n\r\n        bytes32 documentHash = keccak256(abi.encodePacked(_turtleId, _applicant, block.timestamp));\r\n\r\n        Turtle storage newTurtle = turtles[_turtleId];\r\n        newTurtle.multiplicationDoc[documentHash].applicant = _applicant;\r\n        newTurtle.multiplicationDoc[documentHash].count = _count;\r\n        newTurtle.multiplicationDoc[documentHash].purpose = _purpose;\r\n        newTurtle.multiplicationDoc[documentHash].location = _location;\r\n        newTurtle.multiplicationDoc[documentHash].fatherId = _fatherId;\r\n        newTurtle.multiplicationDoc[documentHash].motherId = _motherId;\r\n        newTurtle.multiplicationDoc[documentHash].locationSpecification = _locationSpecification;\r\n        newTurtle.multiplicationDoc[documentHash].multiplicationMethod = _multiplicationMethod;\r\n        newTurtle.multiplicationDoc[documentHash].shelterSpecification = _shelterSpecification;\r\n\r\n        emit TurtleMultiplication(_turtleId, _applicant, documentHash);\r\n\r\n        return documentHash;\r\n    }\r\n\r\n    //    \r\n    function searchTutleMultiplicationDocument(string memory _turtleId, bytes32 _documentHash) public view returns (Multiplication memory) {\r\n        return turtles[_turtleId].multiplicationDoc[_documentHash];\r\n    }\r\n\r\n    //    \r\n    function registerTurtleAssigneeDocument(\r\n        string memory _turtleId,\r\n        string memory _applicant,\r\n        string memory _assigneeId,\r\n        uint8 _count,\r\n        string memory _transferReason,\r\n        string memory _purpose\r\n    ) public returns (bytes32) {\r\n        bytes32 documentHash = keccak256(abi.encodePacked(_turtleId, _applicant, block.timestamp));\r\n\r\n        turtles[_turtleId].transferDocs[documentHash].assignApplicant = _applicant;\r\n        turtles[_turtleId].transferDocs[documentHash].assigneeId = _assigneeId;\r\n        turtles[_turtleId].transferDocs[documentHash].count = _count;\r\n        turtles[_turtleId].transferDocs[documentHash].transferReason = _transferReason;\r\n        turtles[_turtleId].transferDocs[documentHash].purpose = _purpose;\r\n\r\n        emit TurtleTransferred(_turtleId, _applicant, _assigneeId, documentHash);\r\n\r\n        return documentHash;\r\n    }\r\n\r\n    //    \r\n    function registerTurtleGrantorDocument(\r\n        string memory _turtleId,\r\n        string memory _applicant,\r\n        bytes32 _documentHash,\r\n        string memory _grantorId,\r\n        string memory _aquisition,\r\n        string memory _fatherId,\r\n        string memory _motherId\r\n    ) public returns (bytes32) {\r\n        turtles[_turtleId].transferDocs[_documentHash].grantApplicant = _applicant;\r\n        turtles[_turtleId].transferDocs[_documentHash].grantorId = _grantorId;\r\n        turtles[_turtleId].transferDocs[_documentHash].aquisition = _aquisition;\r\n        turtles[_turtleId].transferDocs[_documentHash].fatherId = _fatherId;\r\n        turtles[_turtleId].transferDocs[_documentHash].motherId = _motherId;\r\n\r\n        emit TurtleTransferred(_turtleId, _applicant, _grantorId, _documentHash);\r\n\r\n        return _documentHash;\r\n    }\r\n\r\n    //    \r\n    function searchTurtleTransferDocument(string memory _turtleId, bytes32 _documentHash) public view returns (Transfer memory) {\r\n        return turtles[_turtleId].transferDocs[_documentHash];\r\n    }\r\n\r\n    //    \r\n    function registerTurtlerDeathDocument(\r\n        string memory _turtleId,\r\n        string memory _applicant,\r\n        string memory _shelter,\r\n        uint8 _count,\r\n        string memory _deathReason,\r\n        string memory _plan,\r\n        string memory _deathImage,\r\n        string memory _diagnosis\r\n    ) public returns (bytes32) {\r\n        bytes32 documentHash = keccak256(abi.encodePacked(_turtleId, _applicant, block.timestamp));\r\n\r\n        turtles[_turtleId].deathDoc[documentHash].applicant = _applicant;\r\n        turtles[_turtleId].deathDoc[documentHash].shelter = _shelter;\r\n        turtles[_turtleId].deathDoc[documentHash].count = _count;\r\n        turtles[_turtleId].deathDoc[documentHash].deathReason = _deathReason;\r\n        turtles[_turtleId].deathDoc[documentHash].plan = _plan;\r\n        turtles[_turtleId].deathDoc[documentHash].deathImage = _deathImage;\r\n        turtles[_turtleId].deathDoc[documentHash].diagnosis = _diagnosis;\r\n\r\n        emit TurtleDeath(_turtleId, _applicant, documentHash);\r\n\r\n        return documentHash;\r\n    }\r\n\r\n    //    \r\n    function searchTurtleDeathDocument(string memory _turtleId, bytes32 _documentHash) public view returns (Death memory) {\r\n        return turtles[_turtleId].deathDoc[_documentHash];\r\n    }\r\n\r\n    //   \r\n    function changeTurtleOwner(string memory _turtleId, string memory _oldOwner, string memory _newOwner) public {\r\n        require(turtles[_turtleId].exists, \"Turtle does not exist\");\r\n        require(ownerToTurtleIds[_oldOwner].length > 0, \"Old owner does not own any turtles\");\r\n\r\n        //         \r\n        bool found = false;\r\n        for (uint256 i = 0; i < ownerToTurtleIds[_oldOwner].length; i++) {\r\n            if (keccak256(abi.encodePacked(ownerToTurtleIds[_oldOwner][i])) == keccak256(abi.encodePacked(_turtleId))) {\r\n                found = true;\r\n                break;\r\n            }\r\n        }\r\n        require(found, \"Old owner does not own this turtle\");\r\n\r\n        //        \r\n        string[] storage oldOwnerTurtles = ownerToTurtleIds[_oldOwner];\r\n        for (uint256 i = 0; i < oldOwnerTurtles.length; i++) {\r\n            if (keccak256(abi.encodePacked(oldOwnerTurtles[i])) == keccak256(abi.encodePacked(_turtleId))) {\r\n                oldOwnerTurtles[i] = oldOwnerTurtles[oldOwnerTurtles.length - 1];\r\n                oldOwnerTurtles.pop();\r\n            }\r\n        }\r\n\r\n        //        \r\n        ownerToTurtleIds[_newOwner].push(_turtleId);\r\n\r\n        emit TurtleOwnerChanged(_turtleId, _oldOwner, _newOwner);\r\n    }\r\n}\r\n",
  "sourcePath": "C:\\goosebbeoms\\gitlab\\specialized\\S11P21C107\\blockchain\\contracts\\TurtleDocumentation.sol",
  "compiler": {
    "name": "solc",
    "version": "0.8.18+commit.87f61d96.Emscripten.clang"
  },
  "schemaVersion": "3.4.16",
  "updatedAt": "2024-09-11T01:20:23.232Z",
  "devdoc": {
    "kind": "dev",
    "methods": {
      "owner()": {
        "details": "Returns the address of the current owner."
      },
      "renounceOwnership()": {
        "details": "Leaves the contract without owner. It will not be possible to call `onlyOwner` functions. Can only be called by the current owner. NOTE: Renouncing ownership will leave the contract without an owner, thereby disabling any functionality that is only available to the owner."
      },
      "transferOwnership(address)": {
        "details": "Transfers ownership of the contract to a new account (`newOwner`). Can only be called by the current owner."
      }
    },
    "version": 1
  },
  "userdoc": {
    "kind": "user",
    "methods": {},
    "version": 1
  }
}