{
  "contractName": "TurtleToken",
  "abi": [
    {
      "inputs": [
        {
          "internalType": "uint256",
          "name": "initialSupply",
          "type": "uint256"
        },
        {
          "internalType": "uint256",
          "name": "_exchangeRate",
          "type": "uint256"
        }
      ],
      "stateMutability": "nonpayable",
      "type": "constructor"
    },
    {
      "inputs": [],
      "name": "InvalidShortString",
      "type": "error"
    },
    {
      "inputs": [
        {
          "internalType": "string",
          "name": "str",
          "type": "string"
        }
      ],
      "name": "StringTooLong",
      "type": "error"
    },
    {
      "anonymous": false,
      "inputs": [
        {
          "indexed": true,
          "internalType": "address",
          "name": "owner",
          "type": "address"
        },
        {
          "indexed": true,
          "internalType": "address",
          "name": "spender",
          "type": "address"
        },
        {
          "indexed": false,
          "internalType": "uint256",
          "name": "value",
          "type": "uint256"
        }
      ],
      "name": "Approval",
      "type": "event"
    },
    {
      "anonymous": false,
      "inputs": [],
      "name": "EIP712DomainChanged",
      "type": "event"
    },
    {
      "anonymous": false,
      "inputs": [
        {
          "indexed": true,
          "internalType": "address",
          "name": "previousOwner",
          "type": "address"
        },
        {
          "indexed": true,
          "internalType": "address",
          "name": "newOwner",
          "type": "address"
        }
      ],
      "name": "OwnershipTransferred",
      "type": "event"
    },
    {
      "anonymous": false,
      "inputs": [
        {
          "indexed": true,
          "internalType": "address",
          "name": "buyer",
          "type": "address"
        },
        {
          "indexed": false,
          "internalType": "uint256",
          "name": "ethAmount",
          "type": "uint256"
        },
        {
          "indexed": false,
          "internalType": "uint256",
          "name": "tokenAmount",
          "type": "uint256"
        }
      ],
      "name": "TokensPurchased",
      "type": "event"
    },
    {
      "anonymous": false,
      "inputs": [
        {
          "indexed": true,
          "internalType": "address",
          "name": "seller",
          "type": "address"
        },
        {
          "indexed": false,
          "internalType": "uint256",
          "name": "tokenAmount",
          "type": "uint256"
        },
        {
          "indexed": false,
          "internalType": "uint256",
          "name": "ethAmount",
          "type": "uint256"
        }
      ],
      "name": "TokensSold",
      "type": "event"
    },
    {
      "anonymous": false,
      "inputs": [
        {
          "indexed": true,
          "internalType": "address",
          "name": "from",
          "type": "address"
        },
        {
          "indexed": true,
          "internalType": "address",
          "name": "to",
          "type": "address"
        },
        {
          "indexed": false,
          "internalType": "uint256",
          "name": "value",
          "type": "uint256"
        }
      ],
      "name": "Transfer",
      "type": "event"
    },
    {
      "inputs": [],
      "name": "DOMAIN_SEPARATOR",
      "outputs": [
        {
          "internalType": "bytes32",
          "name": "",
          "type": "bytes32"
        }
      ],
      "stateMutability": "view",
      "type": "function",
      "constant": true
    },
    {
      "inputs": [
        {
          "internalType": "address",
          "name": "owner",
          "type": "address"
        },
        {
          "internalType": "address",
          "name": "spender",
          "type": "address"
        }
      ],
      "name": "allowance",
      "outputs": [
        {
          "internalType": "uint256",
          "name": "",
          "type": "uint256"
        }
      ],
      "stateMutability": "view",
      "type": "function",
      "constant": true
    },
    {
      "inputs": [
        {
          "internalType": "address",
          "name": "spender",
          "type": "address"
        },
        {
          "internalType": "uint256",
          "name": "amount",
          "type": "uint256"
        }
      ],
      "name": "approve",
      "outputs": [
        {
          "internalType": "bool",
          "name": "",
          "type": "bool"
        }
      ],
      "stateMutability": "nonpayable",
      "type": "function"
    },
    {
      "inputs": [
        {
          "internalType": "address",
          "name": "account",
          "type": "address"
        }
      ],
      "name": "balanceOf",
      "outputs": [
        {
          "internalType": "uint256",
          "name": "",
          "type": "uint256"
        }
      ],
      "stateMutability": "view",
      "type": "function",
      "constant": true
    },
    {
      "inputs": [],
      "name": "decimals",
      "outputs": [
        {
          "internalType": "uint8",
          "name": "",
          "type": "uint8"
        }
      ],
      "stateMutability": "view",
      "type": "function",
      "constant": true
    },
    {
      "inputs": [
        {
          "internalType": "address",
          "name": "spender",
          "type": "address"
        },
        {
          "internalType": "uint256",
          "name": "subtractedValue",
          "type": "uint256"
        }
      ],
      "name": "decreaseAllowance",
      "outputs": [
        {
          "internalType": "bool",
          "name": "",
          "type": "bool"
        }
      ],
      "stateMutability": "nonpayable",
      "type": "function"
    },
    {
      "inputs": [],
      "name": "eip712Domain",
      "outputs": [
        {
          "internalType": "bytes1",
          "name": "fields",
          "type": "bytes1"
        },
        {
          "internalType": "string",
          "name": "name",
          "type": "string"
        },
        {
          "internalType": "string",
          "name": "version",
          "type": "string"
        },
        {
          "internalType": "uint256",
          "name": "chainId",
          "type": "uint256"
        },
        {
          "internalType": "address",
          "name": "verifyingContract",
          "type": "address"
        },
        {
          "internalType": "bytes32",
          "name": "salt",
          "type": "bytes32"
        },
        {
          "internalType": "uint256[]",
          "name": "extensions",
          "type": "uint256[]"
        }
      ],
      "stateMutability": "view",
      "type": "function",
      "constant": true
    },
    {
      "inputs": [],
      "name": "exchangeRate",
      "outputs": [
        {
          "internalType": "uint256",
          "name": "",
          "type": "uint256"
        }
      ],
      "stateMutability": "view",
      "type": "function",
      "constant": true
    },
    {
      "inputs": [
        {
          "internalType": "address",
          "name": "spender",
          "type": "address"
        },
        {
          "internalType": "uint256",
          "name": "addedValue",
          "type": "uint256"
        }
      ],
      "name": "increaseAllowance",
      "outputs": [
        {
          "internalType": "bool",
          "name": "",
          "type": "bool"
        }
      ],
      "stateMutability": "nonpayable",
      "type": "function"
    },
    {
      "inputs": [],
      "name": "name",
      "outputs": [
        {
          "internalType": "string",
          "name": "",
          "type": "string"
        }
      ],
      "stateMutability": "view",
      "type": "function",
      "constant": true
    },
    {
      "inputs": [
        {
          "internalType": "address",
          "name": "owner",
          "type": "address"
        }
      ],
      "name": "nonces",
      "outputs": [
        {
          "internalType": "uint256",
          "name": "",
          "type": "uint256"
        }
      ],
      "stateMutability": "view",
      "type": "function",
      "constant": true
    },
    {
      "inputs": [],
      "name": "owner",
      "outputs": [
        {
          "internalType": "address",
          "name": "",
          "type": "address"
        }
      ],
      "stateMutability": "view",
      "type": "function",
      "constant": true
    },
    {
      "inputs": [
        {
          "internalType": "address",
          "name": "owner",
          "type": "address"
        },
        {
          "internalType": "address",
          "name": "spender",
          "type": "address"
        },
        {
          "internalType": "uint256",
          "name": "value",
          "type": "uint256"
        },
        {
          "internalType": "uint256",
          "name": "deadline",
          "type": "uint256"
        },
        {
          "internalType": "uint8",
          "name": "v",
          "type": "uint8"
        },
        {
          "internalType": "bytes32",
          "name": "r",
          "type": "bytes32"
        },
        {
          "internalType": "bytes32",
          "name": "s",
          "type": "bytes32"
        }
      ],
      "name": "permit",
      "outputs": [],
      "stateMutability": "nonpayable",
      "type": "function"
    },
    {
      "inputs": [],
      "name": "renounceOwnership",
      "outputs": [],
      "stateMutability": "nonpayable",
      "type": "function"
    },
    {
      "inputs": [],
      "name": "symbol",
      "outputs": [
        {
          "internalType": "string",
          "name": "",
          "type": "string"
        }
      ],
      "stateMutability": "view",
      "type": "function",
      "constant": true
    },
    {
      "inputs": [],
      "name": "totalSupply",
      "outputs": [
        {
          "internalType": "uint256",
          "name": "",
          "type": "uint256"
        }
      ],
      "stateMutability": "view",
      "type": "function",
      "constant": true
    },
    {
      "inputs": [
        {
          "internalType": "address",
          "name": "to",
          "type": "address"
        },
        {
          "internalType": "uint256",
          "name": "amount",
          "type": "uint256"
        }
      ],
      "name": "transfer",
      "outputs": [
        {
          "internalType": "bool",
          "name": "",
          "type": "bool"
        }
      ],
      "stateMutability": "nonpayable",
      "type": "function"
    },
    {
      "inputs": [
        {
          "internalType": "address",
          "name": "from",
          "type": "address"
        },
        {
          "internalType": "address",
          "name": "to",
          "type": "address"
        },
        {
          "internalType": "uint256",
          "name": "amount",
          "type": "uint256"
        }
      ],
      "name": "transferFrom",
      "outputs": [
        {
          "internalType": "bool",
          "name": "",
          "type": "bool"
        }
      ],
      "stateMutability": "nonpayable",
      "type": "function"
    },
    {
      "inputs": [
        {
          "internalType": "address",
          "name": "newOwner",
          "type": "address"
        }
      ],
      "name": "transferOwnership",
      "outputs": [],
      "stateMutability": "nonpayable",
      "type": "function"
    },
    {
      "inputs": [],
      "name": "buyTokens",
      "outputs": [],
      "stateMutability": "payable",
      "type": "function",
      "payable": true
    },
    {
      "inputs": [
        {
          "internalType": "uint256",
          "name": "tokenAmount",
          "type": "uint256"
        }
      ],
      "name": "sellTokens",
      "outputs": [],
      "stateMutability": "nonpayable",
      "type": "function"
    },
    {
      "inputs": [
        {
          "internalType": "address",
          "name": "to",
          "type": "address"
        },
        {
          "internalType": "uint256",
          "name": "amount",
          "type": "uint256"
        }
      ],
      "name": "mint",
      "outputs": [],
      "stateMutability": "nonpayable",
      "type": "function"
    },
    {
      "inputs": [
        {
          "internalType": "uint256",
          "name": "newRate",
          "type": "uint256"
        }
      ],
      "name": "setExchangeRate",
      "outputs": [],
      "stateMutability": "nonpayable",
      "type": "function"
    },
    {
      "inputs": [],
      "name": "withdrawEth",
      "outputs": [],
      "stateMutability": "nonpayable",
      "type": "function"
    }
  ],
  "bytecode": "0x6101606040523480156200001257600080fd5b5060405162004172380380620041728339818101604052810190620000389190620005e9565b6040518060400160405280600b81526020017f547572746c65546f6b656e000000000000000000000000000000000000000000815250806040518060400160405280600181526020017f31000000000000000000000000000000000000000000000000000000000000008152506040518060400160405280600b81526020017f547572746c65546f6b656e0000000000000000000000000000000000000000008152506040518060400160405280600481526020017f54555254000000000000000000000000000000000000000000000000000000008152508160039081620001229190620008a0565b508060049081620001349190620008a0565b505050620001526005836200023360201b62000fa41790919060201c565b6101208181525050620001756006826200023360201b62000fa41790919060201c565b6101408181525050818051906020012060e08181525050808051906020012061010081815250504660a08181525050620001b46200029060201b60201c565b608081815250503073ffffffffffffffffffffffffffffffffffffffff1660c08173ffffffffffffffffffffffffffffffffffffffff16815250505050506200021262000206620002ed60201b60201c565b620002f560201b60201c565b620002243083620003bb60201b60201c565b80600a81905550505062000ca3565b6000602083511015620002595762000251836200052860201b60201c565b90506200028a565b8262000270836200059560201b62000fe81760201c565b6000019081620002819190620008a0565b5060ff60001b90505b92915050565b60007f8b73c3c69bb8fe3d512ecc4cf759cc79239f7b179b0ffacaa9a75d522b39400f60e051610100514630604051602001620002d2959493929190620009f8565b60405160208183030381529060405280519060200120905090565b600033905090565b6000600960009054906101000a900473ffffffffffffffffffffffffffffffffffffffff16905081600960006101000a81548173ffffffffffffffffffffffffffffffffffffffff021916908373ffffffffffffffffffffffffffffffffffffffff1602179055508173ffffffffffffffffffffffffffffffffffffffff168173ffffffffffffffffffffffffffffffffffffffff167f8be0079c531659141344cd1fd0a4f28419497f9722a3daafe3b4186f6b6457e060405160405180910390a35050565b600073ffffffffffffffffffffffffffffffffffffffff168273ffffffffffffffffffffffffffffffffffffffff16036200042d576040517f08c379a0000000000000000000000000000000000000000000000000000000008152600401620004249062000ab6565b60405180910390fd5b62000441600083836200059f60201b60201c565b806002600082825462000455919062000b07565b92505081905550806000808473ffffffffffffffffffffffffffffffffffffffff1673ffffffffffffffffffffffffffffffffffffffff168152602001908152602001600020600082825401925050819055508173ffffffffffffffffffffffffffffffffffffffff16600073ffffffffffffffffffffffffffffffffffffffff167fddf252ad1be2c89b69c2b068fc378daa952ba7f163c4a11628f55a4df523b3ef8360405162000508919062000b42565b60405180910390a36200052460008383620005a460201b60201c565b5050565b600080829050601f815111156200057857826040517f305a27a90000000000000000000000000000000000000000000000000000000081526004016200056f919062000bdd565b60405180910390fd5b805181620005869062000c33565b60001c1760001b915050919050565b6000819050919050565b505050565b505050565b600080fd5b6000819050919050565b620005c381620005ae565b8114620005cf57600080fd5b50565b600081519050620005e381620005b8565b92915050565b60008060408385031215620006035762000602620005a9565b5b60006200061385828601620005d2565b92505060206200062685828601620005d2565b9150509250929050565b600081519050919050565b7f4e487b7100000000000000000000000000000000000000000000000000000000600052604160045260246000fd5b7f4e487b7100000000000000000000000000000000000000000000000000000000600052602260045260246000fd5b60006002820490506001821680620006b257607f821691505b602082108103620006c857620006c76200066a565b5b50919050565b60008190508160005260206000209050919050565b60006020601f8301049050919050565b600082821b905092915050565b600060088302620007327fffffffffffffffffffffffffffffffffffffffffffffffffffffffffffffffff82620006f3565b6200073e8683620006f3565b95508019841693508086168417925050509392505050565b6000819050919050565b6000620007816200077b6200077584620005ae565b62000756565b620005ae565b9050919050565b6000819050919050565b6200079d8362000760565b620007b5620007ac8262000788565b84845462000700565b825550505050565b600090565b620007cc620007bd565b620007d981848462000792565b505050565b5b818110156200080157620007f5600082620007c2565b600181019050620007df565b5050565b601f82111562000850576200081a81620006ce565b6200082584620006e3565b8101602085101562000835578190505b6200084d6200084485620006e3565b830182620007de565b50505b505050565b600082821c905092915050565b6000620008756000198460080262000855565b1980831691505092915050565b600062000890838362000862565b9150826002028217905092915050565b620008ab8262000630565b67ffffffffffffffff811115620008c757620008c66200063b565b5b620008d3825462000699565b620008e082828562000805565b600060209050601f83116001811462000918576000841562000903578287015190505b6200090f858262000882565b8655506200097f565b601f1984166200092886620006ce565b60005b8281101562000952578489015182556001820191506020850194506020810190506200092b565b868310156200097257848901516200096e601f89168262000862565b8355505b6001600288020188555050505b505050505050565b6000819050919050565b6200099c8162000987565b82525050565b620009ad81620005ae565b82525050565b600073ffffffffffffffffffffffffffffffffffffffff82169050919050565b6000620009e082620009b3565b9050919050565b620009f281620009d3565b82525050565b600060a08201905062000a0f600083018862000991565b62000a1e602083018762000991565b62000a2d604083018662000991565b62000a3c6060830185620009a2565b62000a4b6080830184620009e7565b9695505050505050565b600082825260208201905092915050565b7f45524332303a206d696e7420746f20746865207a65726f206164647265737300600082015250565b600062000a9e601f8362000a55565b915062000aab8262000a66565b602082019050919050565b6000602082019050818103600083015262000ad18162000a8f565b9050919050565b7f4e487b7100000000000000000000000000000000000000000000000000000000600052601160045260246000fd5b600062000b1482620005ae565b915062000b2183620005ae565b925082820190508082111562000b3c5762000b3b62000ad8565b5b92915050565b600060208201905062000b596000830184620009a2565b92915050565b60005b8381101562000b7f57808201518184015260208101905062000b62565b60008484015250505050565b6000601f19601f8301169050919050565b600062000ba98262000630565b62000bb5818562000a55565b935062000bc781856020860162000b5f565b62000bd28162000b8b565b840191505092915050565b6000602082019050818103600083015262000bf9818462000b9c565b905092915050565b600081519050919050565b6000819050602082019050919050565b600062000c2a825162000987565b80915050919050565b600062000c408262000c01565b8262000c4c8462000c0c565b905062000c598162000c1c565b9250602082101562000c9c5762000c977fffffffffffffffffffffffffffffffffffffffffffffffffffffffffffffffff83602003600802620006f3565b831692505b5050919050565b60805160a05160c05160e05161010051610120516101405161347462000cfe60003960006109830152600061094f01526000611a2f01526000611a0e015260006114c90152600061151f0152600061154801526134746000f3fe60806040526004361061014b5760003560e01c80637ecebe00116100b6578063a9059cbb1161006f578063a9059cbb1461049c578063d0febe4c146104d9578063d505accf146104e3578063db068e0e1461050c578063dd62ed3e14610535578063f2fde38b146105725761014b565b80637ecebe001461038457806384b0196e146103c15780638da5cb5b146103f257806395d89b411461041d578063a0ef91df14610448578063a457c2d71461045f5761014b565b8063395093511161010857806339509351146102765780633ba0b9a9146102b357806340c10f19146102de5780636c11bcd31461030757806370a0823114610330578063715018a61461036d5761014b565b806306fdde0314610150578063095ea7b31461017b57806318160ddd146101b857806323b872dd146101e3578063313ce567146102205780633644e5151461024b575b600080fd5b34801561015c57600080fd5b5061016561059b565b6040516101729190611e72565b60405180910390f35b34801561018757600080fd5b506101a2600480360381019061019d9190611f2d565b61062d565b6040516101af9190611f88565b60405180910390f35b3480156101c457600080fd5b506101cd610650565b6040516101da9190611fb2565b60405180910390f35b3480156101ef57600080fd5b5061020a60048036038101906102059190611fcd565b61065a565b6040516102179190611f88565b60405180910390f35b34801561022c57600080fd5b50610235610689565b604051610242919061203c565b60405180910390f35b34801561025757600080fd5b50610260610692565b60405161026d9190612070565b60405180910390f35b34801561028257600080fd5b5061029d60048036038101906102989190611f2d565b6106a1565b6040516102aa9190611f88565b60405180910390f35b3480156102bf57600080fd5b506102c86106d8565b6040516102d59190611fb2565b60405180910390f35b3480156102ea57600080fd5b5061030560048036038101906103009190611f2d565b6106de565b005b34801561031357600080fd5b5061032e6004803603810190610329919061208b565b6106f4565b005b34801561033c57600080fd5b50610357600480360381019061035291906120b8565b610890565b6040516103649190611fb2565b60405180910390f35b34801561037957600080fd5b506103826108d8565b005b34801561039057600080fd5b506103ab60048036038101906103a691906120b8565b6108ec565b6040516103b89190611fb2565b60405180910390f35b3480156103cd57600080fd5b506103d661093c565b6040516103e997969594939291906121ed565b60405180910390f35b3480156103fe57600080fd5b50610407610a3e565b6040516104149190612271565b60405180910390f35b34801561042957600080fd5b50610432610a68565b60405161043f9190611e72565b60405180910390f35b34801561045457600080fd5b5061045d610afa565b005b34801561046b57600080fd5b5061048660048036038101906104819190611f2d565b610b9b565b6040516104939190611f88565b60405180910390f35b3480156104a857600080fd5b506104c360048036038101906104be9190611f2d565b610c12565b6040516104d09190611f88565b60405180910390f35b6104e1610c35565b005b3480156104ef57600080fd5b5061050a600480360381019061050591906122e4565b610d46565b005b34801561051857600080fd5b50610533600480360381019061052e919061208b565b610e88565b005b34801561054157600080fd5b5061055c60048036038101906105579190612386565b610e9a565b6040516105699190611fb2565b60405180910390f35b34801561057e57600080fd5b50610599600480360381019061059491906120b8565b610f21565b005b6060600380546105aa906123f5565b80601f01602080910402602001604051908101604052809291908181526020018280546105d6906123f5565b80156106235780601f106105f857610100808354040283529160200191610623565b820191906000526020600020905b81548152906001019060200180831161060657829003601f168201915b5050505050905090565b600080610638610ff2565b9050610645818585610ffa565b600191505092915050565b6000600254905090565b600080610665610ff2565b90506106728582856111c3565b61067d85858561124f565b60019150509392505050565b60006012905090565b600061069c6114c5565b905090565b6000806106ac610ff2565b90506106cd8185856106be8589610e9a565b6106c89190612455565b610ffa565b600191505092915050565b600a5481565b6106e661157c565b6106f082826115fa565b5050565b60008111610737576040517f08c379a000000000000000000000000000000000000000000000000000000000815260040161072e906124fb565b60405180910390fd5b8061074133610890565b1015610782576040517f08c379a000000000000000000000000000000000000000000000000000000000815260040161077990612567565b60405180910390fd5b6000600a54670de0b6b3a76400008361079b9190612587565b6107a591906125f8565b9050804710156107ea576040517f08c379a00000000000000000000000000000000000000000000000000000000081526004016107e19061269b565b60405180910390fd5b6107f533308461124f565b3373ffffffffffffffffffffffffffffffffffffffff166108fc829081150290604051600060405180830381858888f1935050505015801561083b573d6000803e3d6000fd5b503373ffffffffffffffffffffffffffffffffffffffff167f2dcf9433d75db0d8b1c172641f85e319ffe4ad22e108a95d1847ceb906e5195d83836040516108849291906126bb565b60405180910390a25050565b60008060008373ffffffffffffffffffffffffffffffffffffffff1673ffffffffffffffffffffffffffffffffffffffff168152602001908152602001600020549050919050565b6108e061157c565b6108ea6000611750565b565b6000610935600760008473ffffffffffffffffffffffffffffffffffffffff1673ffffffffffffffffffffffffffffffffffffffff168152602001908152602001600020611816565b9050919050565b60006060806000806000606061097c60057f000000000000000000000000000000000000000000000000000000000000000061182490919063ffffffff16565b6109b060067f000000000000000000000000000000000000000000000000000000000000000061182490919063ffffffff16565b46306000801b600067ffffffffffffffff8111156109d1576109d06126e4565b5b6040519080825280602002602001820160405280156109ff5781602001602082028036833780820191505090505b507f0f00000000000000000000000000000000000000000000000000000000000000959493929190965096509650965096509650965090919293949596565b6000600960009054906101000a900473ffffffffffffffffffffffffffffffffffffffff16905090565b606060048054610a77906123f5565b80601f0160208091040260200160405190810160405280929190818152602001828054610aa3906123f5565b8015610af05780601f10610ac557610100808354040283529160200191610af0565b820191906000526020600020905b815481529060010190602001808311610ad357829003601f168201915b5050505050905090565b610b0261157c565b600047905060008111610b4a576040517f08c379a0000000000000000000000000000000000000000000000000000000008152600401610b419061275f565b60405180910390fd5b610b52610a3e565b73ffffffffffffffffffffffffffffffffffffffff166108fc829081150290604051600060405180830381858888f19350505050158015610b97573d6000803e3d6000fd5b5050565b600080610ba6610ff2565b90506000610bb48286610e9a565b905083811015610bf9576040517f08c379a0000000000000000000000000000000000000000000000000000000008152600401610bf0906127f1565b60405180910390fd5b610c068286868403610ffa565b60019250505092915050565b600080610c1d610ff2565b9050610c2a81858561124f565b600191505092915050565b60003411610c78576040517f08c379a0000000000000000000000000000000000000000000000000000000008152600401610c6f9061285d565b60405180910390fd5b6000670de0b6b3a7640000600a5434610c919190612587565b610c9b91906125f8565b905080610ca730610890565b1015610ce8576040517f08c379a0000000000000000000000000000000000000000000000000000000008152600401610cdf906128ef565b60405180910390fd5b610cf330338361124f565b3373ffffffffffffffffffffffffffffffffffffffff167f8fafebcaf9d154343dad25669bfa277f4fbacd7ac6b0c4fed522580e040a0f333483604051610d3b9291906126bb565b60405180910390a250565b83421115610d89576040517f08c379a0000000000000000000000000000000000000000000000000000000008152600401610d809061295b565b60405180910390fd5b60007f6e71edae12b1b97f4d1f60370fef10105fa2faae0126114a169c64845d6126c9888888610db88c6118d4565b89604051602001610dce9695949392919061297b565b6040516020818303038152906040528051906020012090506000610df182611932565b90506000610e018287878761194c565b90508973ffffffffffffffffffffffffffffffffffffffff168173ffffffffffffffffffffffffffffffffffffffff1614610e71576040517f08c379a0000000000000000000000000000000000000000000000000000000008152600401610e6890612a28565b60405180910390fd5b610e7c8a8a8a610ffa565b50505050505050505050565b610e9061157c565b80600a8190555050565b6000600160008473ffffffffffffffffffffffffffffffffffffffff1673ffffffffffffffffffffffffffffffffffffffff16815260200190815260200160002060008373ffffffffffffffffffffffffffffffffffffffff1673ffffffffffffffffffffffffffffffffffffffff16815260200190815260200160002054905092915050565b610f2961157c565b600073ffffffffffffffffffffffffffffffffffffffff168173ffffffffffffffffffffffffffffffffffffffff1603610f98576040517f08c379a0000000000000000000000000000000000000000000000000000000008152600401610f8f90612aba565b60405180910390fd5b610fa181611750565b50565b6000602083511015610fc057610fb983611977565b9050610fe2565b82610fca83610fe8565b6000019081610fd99190612c86565b5060ff60001b90505b92915050565b6000819050919050565b600033905090565b600073ffffffffffffffffffffffffffffffffffffffff168373ffffffffffffffffffffffffffffffffffffffff1603611069576040517f08c379a000000000000000000000000000000000000000000000000000000000815260040161106090612dca565b60405180910390fd5b600073ffffffffffffffffffffffffffffffffffffffff168273ffffffffffffffffffffffffffffffffffffffff16036110d8576040517f08c379a00000000000000000000000000000000000000000000000000000000081526004016110cf90612e5c565b60405180910390fd5b80600160008573ffffffffffffffffffffffffffffffffffffffff1673ffffffffffffffffffffffffffffffffffffffff16815260200190815260200160002060008473ffffffffffffffffffffffffffffffffffffffff1673ffffffffffffffffffffffffffffffffffffffff168152602001908152602001600020819055508173ffffffffffffffffffffffffffffffffffffffff168373ffffffffffffffffffffffffffffffffffffffff167f8c5be1e5ebec7d5bd14f71427d1e84f3dd0314c0f7b2291e5b200ac8c7c3b925836040516111b69190611fb2565b60405180910390a3505050565b60006111cf8484610e9a565b90507fffffffffffffffffffffffffffffffffffffffffffffffffffffffffffffffff8114611249578181101561123b576040517f08c379a000000000000000000000000000000000000000000000000000000000815260040161123290612ec8565b60405180910390fd5b6112488484848403610ffa565b5b50505050565b600073ffffffffffffffffffffffffffffffffffffffff168373ffffffffffffffffffffffffffffffffffffffff16036112be576040517f08c379a00000000000000000000000000000000000000000000000000000000081526004016112b590612f5a565b60405180910390fd5b600073ffffffffffffffffffffffffffffffffffffffff168273ffffffffffffffffffffffffffffffffffffffff160361132d576040517f08c379a000000000000000000000000000000000000000000000000000000000815260040161132490612fec565b60405180910390fd5b6113388383836119df565b60008060008573ffffffffffffffffffffffffffffffffffffffff1673ffffffffffffffffffffffffffffffffffffffff168152602001908152602001600020549050818110156113be576040517f08c379a00000000000000000000000000000000000000000000000000000000081526004016113b59061307e565b60405180910390fd5b8181036000808673ffffffffffffffffffffffffffffffffffffffff1673ffffffffffffffffffffffffffffffffffffffff16815260200190815260200160002081905550816000808573ffffffffffffffffffffffffffffffffffffffff1673ffffffffffffffffffffffffffffffffffffffff168152602001908152602001600020600082825401925050819055508273ffffffffffffffffffffffffffffffffffffffff168473ffffffffffffffffffffffffffffffffffffffff167fddf252ad1be2c89b69c2b068fc378daa952ba7f163c4a11628f55a4df523b3ef846040516114ac9190611fb2565b60405180910390a36114bf8484846119e4565b50505050565b60007f000000000000000000000000000000000000000000000000000000000000000073ffffffffffffffffffffffffffffffffffffffff163073ffffffffffffffffffffffffffffffffffffffff1614801561154157507f000000000000000000000000000000000000000000000000000000000000000046145b1561156e577f00000000000000000000000000000000000000000000000000000000000000009050611579565b6115766119e9565b90505b90565b611584610ff2565b73ffffffffffffffffffffffffffffffffffffffff166115a2610a3e565b73ffffffffffffffffffffffffffffffffffffffff16146115f8576040517f08c379a00000000000000000000000000000000000000000000000000000000081526004016115ef906130ea565b60405180910390fd5b565b600073ffffffffffffffffffffffffffffffffffffffff168273ffffffffffffffffffffffffffffffffffffffff1603611669576040517f08c379a000000000000000000000000000000000000000000000000000000000815260040161166090613156565b60405180910390fd5b611675600083836119df565b80600260008282546116879190612455565b92505081905550806000808473ffffffffffffffffffffffffffffffffffffffff1673ffffffffffffffffffffffffffffffffffffffff168152602001908152602001600020600082825401925050819055508173ffffffffffffffffffffffffffffffffffffffff16600073ffffffffffffffffffffffffffffffffffffffff167fddf252ad1be2c89b69c2b068fc378daa952ba7f163c4a11628f55a4df523b3ef836040516117389190611fb2565b60405180910390a361174c600083836119e4565b5050565b6000600960009054906101000a900473ffffffffffffffffffffffffffffffffffffffff16905081600960006101000a81548173ffffffffffffffffffffffffffffffffffffffff021916908373ffffffffffffffffffffffffffffffffffffffff1602179055508173ffffffffffffffffffffffffffffffffffffffff168173ffffffffffffffffffffffffffffffffffffffff167f8be0079c531659141344cd1fd0a4f28419497f9722a3daafe3b4186f6b6457e060405160405180910390a35050565b600081600001549050919050565b606060ff60001b83146118415761183a83611a7f565b90506118ce565b81805461184d906123f5565b80601f0160208091040260200160405190810160405280929190818152602001828054611879906123f5565b80156118c65780601f1061189b576101008083540402835291602001916118c6565b820191906000526020600020905b8154815290600101906020018083116118a957829003601f168201915b505050505090505b92915050565b600080600760008473ffffffffffffffffffffffffffffffffffffffff1673ffffffffffffffffffffffffffffffffffffffff168152602001908152602001600020905061192181611816565b915061192c81611af3565b50919050565b600061194561193f6114c5565b83611b09565b9050919050565b600080600061195d87878787611b4a565b9150915061196a81611c2c565b8192505050949350505050565b600080829050601f815111156119c457826040517f305a27a90000000000000000000000000000000000000000000000000000000081526004016119bb9190611e72565b60405180910390fd5b8051816119d0906131a6565b60001c1760001b915050919050565b505050565b505050565b60007f8b73c3c69bb8fe3d512ecc4cf759cc79239f7b179b0ffacaa9a75d522b39400f7f00000000000000000000000000000000000000000000000000000000000000007f00000000000000000000000000000000000000000000000000000000000000004630604051602001611a6495949392919061320d565b60405160208183030381529060405280519060200120905090565b60606000611a8c83611d92565b90506000602067ffffffffffffffff811115611aab57611aaa6126e4565b5b6040519080825280601f01601f191660200182016040528015611add5781602001600182028036833780820191505090505b5090508181528360208201528092505050919050565b6001816000016000828254019250508190555050565b60006040517f190100000000000000000000000000000000000000000000000000000000000081528360028201528260228201526042812091505092915050565b6000807f7fffffffffffffffffffffffffffffff5d576e7357a4501ddfe92f46681b20a08360001c1115611b85576000600391509150611c23565b600060018787878760405160008152602001604052604051611baa9493929190613260565b6020604051602081039080840390855afa158015611bcc573d6000803e3d6000fd5b505050602060405103519050600073ffffffffffffffffffffffffffffffffffffffff168173ffffffffffffffffffffffffffffffffffffffff1603611c1a57600060019250925050611c23565b80600092509250505b94509492505050565b60006004811115611c4057611c3f6132a5565b5b816004811115611c5357611c526132a5565b5b0315611d8f5760016004811115611c6d57611c6c6132a5565b5b816004811115611c8057611c7f6132a5565b5b03611cc0576040517f08c379a0000000000000000000000000000000000000000000000000000000008152600401611cb790613320565b60405180910390fd5b60026004811115611cd457611cd36132a5565b5b816004811115611ce757611ce66132a5565b5b03611d27576040517f08c379a0000000000000000000000000000000000000000000000000000000008152600401611d1e9061338c565b60405180910390fd5b60036004811115611d3b57611d3a6132a5565b5b816004811115611d4e57611d4d6132a5565b5b03611d8e576040517f08c379a0000000000000000000000000000000000000000000000000000000008152600401611d859061341e565b60405180910390fd5b5b50565b60008060ff8360001c169050601f811115611dd9576040517fb3512b0c00000000000000000000000000000000000000000000000000000000815260040160405180910390fd5b80915050919050565b600081519050919050565b600082825260208201905092915050565b60005b83811015611e1c578082015181840152602081019050611e01565b60008484015250505050565b6000601f19601f8301169050919050565b6000611e4482611de2565b611e4e8185611ded565b9350611e5e818560208601611dfe565b611e6781611e28565b840191505092915050565b60006020820190508181036000830152611e8c8184611e39565b905092915050565b600080fd5b600073ffffffffffffffffffffffffffffffffffffffff82169050919050565b6000611ec482611e99565b9050919050565b611ed481611eb9565b8114611edf57600080fd5b50565b600081359050611ef181611ecb565b92915050565b6000819050919050565b611f0a81611ef7565b8114611f1557600080fd5b50565b600081359050611f2781611f01565b92915050565b60008060408385031215611f4457611f43611e94565b5b6000611f5285828601611ee2565b9250506020611f6385828601611f18565b9150509250929050565b60008115159050919050565b611f8281611f6d565b82525050565b6000602082019050611f9d6000830184611f79565b92915050565b611fac81611ef7565b82525050565b6000602082019050611fc76000830184611fa3565b92915050565b600080600060608486031215611fe657611fe5611e94565b5b6000611ff486828701611ee2565b935050602061200586828701611ee2565b925050604061201686828701611f18565b9150509250925092565b600060ff82169050919050565b61203681612020565b82525050565b6000602082019050612051600083018461202d565b92915050565b6000819050919050565b61206a81612057565b82525050565b60006020820190506120856000830184612061565b92915050565b6000602082840312156120a1576120a0611e94565b5b60006120af84828501611f18565b91505092915050565b6000602082840312156120ce576120cd611e94565b5b60006120dc84828501611ee2565b91505092915050565b60007fff0000000000000000000000000000000000000000000000000000000000000082169050919050565b61211a816120e5565b82525050565b61212981611eb9565b82525050565b600081519050919050565b600082825260208201905092915050565b6000819050602082019050919050565b61216481611ef7565b82525050565b6000612176838361215b565b60208301905092915050565b6000602082019050919050565b600061219a8261212f565b6121a4818561213a565b93506121af8361214b565b8060005b838110156121e05781516121c7888261216a565b97506121d283612182565b9250506001810190506121b3565b5085935050505092915050565b600060e082019050612202600083018a612111565b81810360208301526122148189611e39565b905081810360408301526122288188611e39565b90506122376060830187611fa3565b6122446080830186612120565b61225160a0830185612061565b81810360c0830152612263818461218f565b905098975050505050505050565b60006020820190506122866000830184612120565b92915050565b61229581612020565b81146122a057600080fd5b50565b6000813590506122b28161228c565b92915050565b6122c181612057565b81146122cc57600080fd5b50565b6000813590506122de816122b8565b92915050565b600080600080600080600060e0888a03121561230357612302611e94565b5b60006123118a828b01611ee2565b97505060206123228a828b01611ee2565b96505060406123338a828b01611f18565b95505060606123448a828b01611f18565b94505060806123558a828b016122a3565b93505060a06123668a828b016122cf565b92505060c06123778a828b016122cf565b91505092959891949750929550565b6000806040838503121561239d5761239c611e94565b5b60006123ab85828601611ee2565b92505060206123bc85828601611ee2565b9150509250929050565b7f4e487b7100000000000000000000000000000000000000000000000000000000600052602260045260246000fd5b6000600282049050600182168061240d57607f821691505b6020821081036124205761241f6123c6565b5b50919050565b7f4e487b7100000000000000000000000000000000000000000000000000000000600052601160045260246000fd5b600061246082611ef7565b915061246b83611ef7565b925082820190508082111561248357612482612426565b5b92915050565b7f4d7573742073656c6c206120706f73697469766520616d6f756e74206f66207460008201527f6f6b656e73000000000000000000000000000000000000000000000000000000602082015250565b60006124e5602583611ded565b91506124f082612489565b604082019050919050565b60006020820190508181036000830152612514816124d8565b9050919050565b7f496e73756666696369656e7420746f6b656e2062616c616e6365000000000000600082015250565b6000612551601a83611ded565b915061255c8261251b565b602082019050919050565b6000602082019050818103600083015261258081612544565b9050919050565b600061259282611ef7565b915061259d83611ef7565b92508282026125ab81611ef7565b915082820484148315176125c2576125c1612426565b5b5092915050565b7f4e487b7100000000000000000000000000000000000000000000000000000000600052601260045260246000fd5b600061260382611ef7565b915061260e83611ef7565b92508261261e5761261d6125c9565b5b828204905092915050565b7f496e73756666696369656e74204554482062616c616e636520696e20636f6e7460008201527f7261637400000000000000000000000000000000000000000000000000000000602082015250565b6000612685602483611ded565b915061269082612629565b604082019050919050565b600060208201905081810360008301526126b481612678565b9050919050565b60006040820190506126d06000830185611fa3565b6126dd6020830184611fa3565b9392505050565b7f4e487b7100000000000000000000000000000000000000000000000000000000600052604160045260246000fd5b7f4e6f2045544820746f2077697468647261770000000000000000000000000000600082015250565b6000612749601283611ded565b915061275482612713565b602082019050919050565b600060208201905081810360008301526127788161273c565b9050919050565b7f45524332303a2064656372656173656420616c6c6f77616e63652062656c6f7760008201527f207a65726f000000000000000000000000000000000000000000000000000000602082015250565b60006127db602583611ded565b91506127e68261277f565b604082019050919050565b6000602082019050818103600083015261280a816127ce565b9050919050565b7f4d7573742073656e642045544820746f2065786368616e676500000000000000600082015250565b6000612847601983611ded565b915061285282612811565b602082019050919050565b600060208201905081810360008301526128768161283a565b9050919050565b7f496e73756666696369656e7420746f6b656e2062616c616e636520696e20636f60008201527f6e74726163740000000000000000000000000000000000000000000000000000602082015250565b60006128d9602683611ded565b91506128e48261287d565b604082019050919050565b60006020820190508181036000830152612908816128cc565b9050919050565b7f45524332305065726d69743a206578706972656420646561646c696e65000000600082015250565b6000612945601d83611ded565b91506129508261290f565b602082019050919050565b6000602082019050818103600083015261297481612938565b9050919050565b600060c0820190506129906000830189612061565b61299d6020830188612120565b6129aa6040830187612120565b6129b76060830186611fa3565b6129c46080830185611fa3565b6129d160a0830184611fa3565b979650505050505050565b7f45524332305065726d69743a20696e76616c6964207369676e61747572650000600082015250565b6000612a12601e83611ded565b9150612a1d826129dc565b602082019050919050565b60006020820190508181036000830152612a4181612a05565b9050919050565b7f4f776e61626c653a206e6577206f776e657220697320746865207a65726f206160008201527f6464726573730000000000000000000000000000000000000000000000000000602082015250565b6000612aa4602683611ded565b9150612aaf82612a48565b604082019050919050565b60006020820190508181036000830152612ad381612a97565b9050919050565b60008190508160005260206000209050919050565b60006020601f8301049050919050565b600082821b905092915050565b600060088302612b3c7fffffffffffffffffffffffffffffffffffffffffffffffffffffffffffffffff82612aff565b612b468683612aff565b95508019841693508086168417925050509392505050565b6000819050919050565b6000612b83612b7e612b7984611ef7565b612b5e565b611ef7565b9050919050565b6000819050919050565b612b9d83612b68565b612bb1612ba982612b8a565b848454612b0c565b825550505050565b600090565b612bc6612bb9565b612bd1818484612b94565b505050565b5b81811015612bf557612bea600082612bbe565b600181019050612bd7565b5050565b601f821115612c3a57612c0b81612ada565b612c1484612aef565b81016020851015612c23578190505b612c37612c2f85612aef565b830182612bd6565b50505b505050565b600082821c905092915050565b6000612c5d60001984600802612c3f565b1980831691505092915050565b6000612c768383612c4c565b9150826002028217905092915050565b612c8f82611de2565b67ffffffffffffffff811115612ca857612ca76126e4565b5b612cb282546123f5565b612cbd828285612bf9565b600060209050601f831160018114612cf05760008415612cde578287015190505b612ce88582612c6a565b865550612d50565b601f198416612cfe86612ada565b60005b82811015612d2657848901518255600182019150602085019450602081019050612d01565b86831015612d435784890151612d3f601f891682612c4c565b8355505b6001600288020188555050505b505050505050565b7f45524332303a20617070726f76652066726f6d20746865207a65726f2061646460008201527f7265737300000000000000000000000000000000000000000000000000000000602082015250565b6000612db4602483611ded565b9150612dbf82612d58565b604082019050919050565b60006020820190508181036000830152612de381612da7565b9050919050565b7f45524332303a20617070726f766520746f20746865207a65726f20616464726560008201527f7373000000000000000000000000000000000000000000000000000000000000602082015250565b6000612e46602283611ded565b9150612e5182612dea565b604082019050919050565b60006020820190508181036000830152612e7581612e39565b9050919050565b7f45524332303a20696e73756666696369656e7420616c6c6f77616e6365000000600082015250565b6000612eb2601d83611ded565b9150612ebd82612e7c565b602082019050919050565b60006020820190508181036000830152612ee181612ea5565b9050919050565b7f45524332303a207472616e736665722066726f6d20746865207a65726f20616460008201527f6472657373000000000000000000000000000000000000000000000000000000602082015250565b6000612f44602583611ded565b9150612f4f82612ee8565b604082019050919050565b60006020820190508181036000830152612f7381612f37565b9050919050565b7f45524332303a207472616e7366657220746f20746865207a65726f206164647260008201527f6573730000000000000000000000000000000000000000000000000000000000602082015250565b6000612fd6602383611ded565b9150612fe182612f7a565b604082019050919050565b6000602082019050818103600083015261300581612fc9565b9050919050565b7f45524332303a207472616e7366657220616d6f756e742065786365656473206260008201527f616c616e63650000000000000000000000000000000000000000000000000000602082015250565b6000613068602683611ded565b91506130738261300c565b604082019050919050565b600060208201905081810360008301526130978161305b565b9050919050565b7f4f776e61626c653a2063616c6c6572206973206e6f7420746865206f776e6572600082015250565b60006130d4602083611ded565b91506130df8261309e565b602082019050919050565b60006020820190508181036000830152613103816130c7565b9050919050565b7f45524332303a206d696e7420746f20746865207a65726f206164647265737300600082015250565b6000613140601f83611ded565b915061314b8261310a565b602082019050919050565b6000602082019050818103600083015261316f81613133565b9050919050565b600081519050919050565b6000819050602082019050919050565b600061319d8251612057565b80915050919050565b60006131b182613176565b826131bb84613181565b90506131c681613191565b92506020821015613206576132017fffffffffffffffffffffffffffffffffffffffffffffffffffffffffffffffff83602003600802612aff565b831692505b5050919050565b600060a0820190506132226000830188612061565b61322f6020830187612061565b61323c6040830186612061565b6132496060830185611fa3565b6132566080830184612120565b9695505050505050565b60006080820190506132756000830187612061565b613282602083018661202d565b61328f6040830185612061565b61329c6060830184612061565b95945050505050565b7f4e487b7100000000000000000000000000000000000000000000000000000000600052602160045260246000fd5b7f45434453413a20696e76616c6964207369676e61747572650000000000000000600082015250565b600061330a601883611ded565b9150613315826132d4565b602082019050919050565b60006020820190508181036000830152613339816132fd565b9050919050565b7f45434453413a20696e76616c6964207369676e6174757265206c656e67746800600082015250565b6000613376601f83611ded565b915061338182613340565b602082019050919050565b600060208201905081810360008301526133a581613369565b9050919050565b7f45434453413a20696e76616c6964207369676e6174757265202773272076616c60008201527f7565000000000000000000000000000000000000000000000000000000000000602082015250565b6000613408602283611ded565b9150613413826133ac565b604082019050919050565b60006020820190508181036000830152613437816133fb565b905091905056fea2646970667358221220f65bd48d79b2714768d264810feac5ff2c0ce51d0037bc48229f4deaf755c37364736f6c63430008120033",
  "immutableReferences": {
    "2142": [
      {
        "length": 32,
        "start": 5448
      }
    ],
    "2144": [
      {
        "length": 32,
        "start": 5407
      }
    ],
    "2146": [
      {
        "length": 32,
        "start": 5321
      }
    ],
    "2148": [
      {
        "length": 32,
        "start": 6670
      }
    ],
    "2150": [
      {
        "length": 32,
        "start": 6703
      }
    ],
    "2153": [
      {
        "length": 32,
        "start": 2383
      }
    ],
    "2156": [
      {
        "length": 32,
        "start": 2435
      }
    ]
  },
  "source": "// SPDX-License-Identifier: MIT\r\npragma solidity >=0.8.0 <0.9.0;\r\n\r\nimport \"@openzeppelin/contracts/token/ERC20/ERC20.sol\";\r\nimport \"@openzeppelin/contracts/token/ERC20/extensions/ERC20Permit.sol\";\r\nimport \"@openzeppelin/contracts/access/Ownable.sol\";\r\n\r\ncontract TurtleToken is ERC20, ERC20Permit, Ownable {\r\n    // - 1 ETH TURT   (18 )\r\n    uint256 public exchangeRate;\r\n\r\n    // -  \r\n    // -    \r\n    event TokensPurchased(address indexed buyer, uint256 ethAmount, uint256 tokenAmount);\r\n    // -    \r\n    event TokensSold(address indexed seller, uint256 tokenAmount, uint256 ethAmount);\r\n\r\n    // - :     \r\n    // - :\r\n    //   - initialSupply:   \r\n    //   - _exchangeRate:   \r\n    constructor(uint256 initialSupply, uint256 _exchangeRate) ERC20(\"TurtleToken\", \"TURT\") ERC20Permit(\"TurtleToken\") Ownable() {\r\n        _mint(address(this), initialSupply);\r\n        exchangeRate = _exchangeRate;\r\n    }\r\n\r\n    // - ETH TURT  \r\n    // - payable: ETH   \r\n    // - nonReentrant:   \r\n    function buyTokens() public payable {\r\n        require(msg.value > 0, \"Must send ETH to exchange\");\r\n        // -     (18  )\r\n        uint256 tokenAmount = (msg.value * exchangeRate) / 1e18;\r\n        require(balanceOf(address(this)) >= tokenAmount, \"Insufficient token balance in contract\");\r\n\r\n        // -  \r\n        _transfer(address(this), msg.sender, tokenAmount);\r\n        // -  \r\n        emit TokensPurchased(msg.sender, msg.value, tokenAmount);\r\n    }\r\n\r\n    // - TURT ETH  \r\n    // - :\r\n    //   - tokenAmount:   \r\n    function sellTokens(uint256 tokenAmount) public {\r\n        require(tokenAmount > 0, \"Must sell a positive amount of tokens\");\r\n        require(balanceOf(msg.sender) >= tokenAmount, \"Insufficient token balance\");\r\n\r\n        // -  ETH   (18  )\r\n        uint256 ethAmount = (tokenAmount * 1e18) / exchangeRate;\r\n        require(address(this).balance >= ethAmount, \"Insufficient ETH balance in contract\");\r\n\r\n        // -  \r\n        _transfer(msg.sender, address(this), tokenAmount);\r\n        // - ETH \r\n        payable(msg.sender).transfer(ethAmount);\r\n\r\n        // -  \r\n        emit TokensSold(msg.sender, tokenAmount, ethAmount);\r\n    }\r\n\r\n    // -    \r\n    // - onlyOwner:     \r\n    function mint(address to, uint256 amount) public onlyOwner {\r\n        _mint(to, amount);\r\n    }\r\n\r\n    // -    ( )\r\n    // - :\r\n    //   - newRate:  \r\n    function setExchangeRate(uint256 newRate) public onlyOwner {\r\n        exchangeRate = newRate;\r\n    }\r\n\r\n    // -  ETH  ( )\r\n    function withdrawEth() public onlyOwner {\r\n        uint256 balance = address(this).balance;\r\n        require(balance > 0, \"No ETH to withdraw\");\r\n        payable(owner()).transfer(balance);\r\n    }\r\n}\r\n",
  "sourcePath": "C:\\goosebbeoms\\gitlab\\specialized\\S11P21C107\\blockchain\\contracts\\TurtleToken.sol",
  "compiler": {
    "name": "solc",
    "version": "0.8.18+commit.87f61d96.Emscripten.clang"
  },
  "schemaVersion": "3.4.16",
  "updatedAt": "2024-09-11T01:20:58.711Z",
  "networkType": "ethereum",
  "devdoc": {
    "events": {
      "Approval(address,address,uint256)": {
        "details": "Emitted when the allowance of a `spender` for an `owner` is set by a call to {approve}. `value` is the new allowance."
      },
      "EIP712DomainChanged()": {
        "details": "MAY be emitted to signal that the domain could have changed."
      },
      "Transfer(address,address,uint256)": {
        "details": "Emitted when `value` tokens are moved from one account (`from`) to another (`to`). Note that `value` may be zero."
      }
    },
    "kind": "dev",
    "methods": {
      "DOMAIN_SEPARATOR()": {
        "details": "Returns the domain separator used in the encoding of the signature for {permit}, as defined by {EIP712}."
      },
      "allowance(address,address)": {
        "details": "See {IERC20-allowance}."
      },
      "approve(address,uint256)": {
        "details": "See {IERC20-approve}. NOTE: If `amount` is the maximum `uint256`, the allowance is not updated on `transferFrom`. This is semantically equivalent to an infinite approval. Requirements: - `spender` cannot be the zero address."
      },
      "balanceOf(address)": {
        "details": "See {IERC20-balanceOf}."
      },
      "decimals()": {
        "details": "Returns the number of decimals used to get its user representation. For example, if `decimals` equals `2`, a balance of `505` tokens should be displayed to a user as `5.05` (`505 / 10 ** 2`). Tokens usually opt for a value of 18, imitating the relationship between Ether and Wei. This is the default value returned by this function, unless it's overridden. NOTE: This information is only used for _display_ purposes: it in no way affects any of the arithmetic of the contract, including {IERC20-balanceOf} and {IERC20-transfer}."
      },
      "decreaseAllowance(address,uint256)": {
        "details": "Atomically decreases the allowance granted to `spender` by the caller. This is an alternative to {approve} that can be used as a mitigation for problems described in {IERC20-approve}. Emits an {Approval} event indicating the updated allowance. Requirements: - `spender` cannot be the zero address. - `spender` must have allowance for the caller of at least `subtractedValue`."
      },
      "eip712Domain()": {
        "details": "See {EIP-5267}. _Available since v4.9._"
      },
      "increaseAllowance(address,uint256)": {
        "details": "Atomically increases the allowance granted to `spender` by the caller. This is an alternative to {approve} that can be used as a mitigation for problems described in {IERC20-approve}. Emits an {Approval} event indicating the updated allowance. Requirements: - `spender` cannot be the zero address."
      },
      "name()": {
        "details": "Returns the name of the token."
      },
      "nonces(address)": {
        "details": "Returns the current nonce for `owner`. This value must be included whenever a signature is generated for {permit}. Every successful call to {permit} increases ``owner``'s nonce by one. This prevents a signature from being used multiple times."
      },
      "owner()": {
        "details": "Returns the address of the current owner."
      },
      "permit(address,address,uint256,uint256,uint8,bytes32,bytes32)": {
        "details": "Sets `value` as the allowance of `spender` over ``owner``'s tokens, given ``owner``'s signed approval. IMPORTANT: The same issues {IERC20-approve} has related to transaction ordering also apply here. Emits an {Approval} event. Requirements: - `spender` cannot be the zero address. - `deadline` must be a timestamp in the future. - `v`, `r` and `s` must be a valid `secp256k1` signature from `owner` over the EIP712-formatted function arguments. - the signature must use ``owner``'s current nonce (see {nonces}). For more information on the signature format, see the https://eips.ethereum.org/EIPS/eip-2612#specification[relevant EIP section]. CAUTION: See Security Considerations above."
      },
      "renounceOwnership()": {
        "details": "Leaves the contract without owner. It will not be possible to call `onlyOwner` functions. Can only be called by the current owner. NOTE: Renouncing ownership will leave the contract without an owner, thereby disabling any functionality that is only available to the owner."
      },
      "symbol()": {
        "details": "Returns the symbol of the token, usually a shorter version of the name."
      },
      "totalSupply()": {
        "details": "See {IERC20-totalSupply}."
      },
      "transfer(address,uint256)": {
        "details": "See {IERC20-transfer}. Requirements: - `to` cannot be the zero address. - the caller must have a balance of at least `amount`."
      },
      "transferFrom(address,address,uint256)": {
        "details": "See {IERC20-transferFrom}. Emits an {Approval} event indicating the updated allowance. This is not required by the EIP. See the note at the beginning of {ERC20}. NOTE: Does not update the allowance if the current allowance is the maximum `uint256`. Requirements: - `from` and `to` cannot be the zero address. - `from` must have a balance of at least `amount`. - the caller must have allowance for ``from``'s tokens of at least `amount`."
      },
      "transferOwnership(address)": {
        "details": "Transfers ownership of the contract to a new account (`newOwner`). Can only be called by the current owner."
      }
    },
    "version": 1
  },
  "userdoc": {
    "kind": "user",
    "methods": {},
    "version": 1
  }
}