{
  "contractName": "TurtleEscrow",
  "abi": [
    {
      "inputs": [
        {
          "internalType": "address",
          "name": "_token",
          "type": "address"
        },
        {
          "internalType": "address",
          "name": "_turtleDocumentation",
          "type": "address"
        }
      ],
      "stateMutability": "nonpayable",
      "type": "constructor"
    },
    {
      "anonymous": false,
      "inputs": [
        {
          "indexed": true,
          "internalType": "uint256",
          "name": "transactionId",
          "type": "uint256"
        }
      ],
      "name": "FundsLocked",
      "type": "event"
    },
    {
      "anonymous": false,
      "inputs": [
        {
          "indexed": true,
          "internalType": "uint256",
          "name": "transactionId",
          "type": "uint256"
        }
      ],
      "name": "FundsRefunded",
      "type": "event"
    },
    {
      "anonymous": false,
      "inputs": [
        {
          "indexed": true,
          "internalType": "uint256",
          "name": "transactionId",
          "type": "uint256"
        }
      ],
      "name": "FundsReleased",
      "type": "event"
    },
    {
      "anonymous": false,
      "inputs": [
        {
          "indexed": true,
          "internalType": "address",
          "name": "previousOwner",
          "type": "address"
        },
        {
          "indexed": true,
          "internalType": "address",
          "name": "newOwner",
          "type": "address"
        }
      ],
      "name": "OwnershipTransferred",
      "type": "event"
    },
    {
      "anonymous": false,
      "inputs": [
        {
          "indexed": true,
          "internalType": "uint256",
          "name": "transactionId",
          "type": "uint256"
        },
        {
          "indexed": false,
          "internalType": "address",
          "name": "buyer",
          "type": "address"
        },
        {
          "indexed": false,
          "internalType": "address",
          "name": "seller",
          "type": "address"
        },
        {
          "indexed": false,
          "internalType": "uint256",
          "name": "amount",
          "type": "uint256"
        }
      ],
      "name": "TransactionCreated",
      "type": "event"
    },
    {
      "inputs": [],
      "name": "LOCK_PERIOD",
      "outputs": [
        {
          "internalType": "uint256",
          "name": "",
          "type": "uint256"
        }
      ],
      "stateMutability": "view",
      "type": "function"
    },
    {
      "inputs": [],
      "name": "arbiter",
      "outputs": [
        {
          "internalType": "address",
          "name": "",
          "type": "address"
        }
      ],
      "stateMutability": "view",
      "type": "function"
    },
    {
      "inputs": [],
      "name": "owner",
      "outputs": [
        {
          "internalType": "address",
          "name": "",
          "type": "address"
        }
      ],
      "stateMutability": "view",
      "type": "function"
    },
    {
      "inputs": [],
      "name": "renounceOwnership",
      "outputs": [],
      "stateMutability": "nonpayable",
      "type": "function"
    },
    {
      "inputs": [],
      "name": "token",
      "outputs": [
        {
          "internalType": "contract IERC20",
          "name": "",
          "type": "address"
        }
      ],
      "stateMutability": "view",
      "type": "function"
    },
    {
      "inputs": [],
      "name": "transactionCount",
      "outputs": [
        {
          "internalType": "uint256",
          "name": "",
          "type": "uint256"
        }
      ],
      "stateMutability": "view",
      "type": "function"
    },
    {
      "inputs": [
        {
          "internalType": "uint256",
          "name": "",
          "type": "uint256"
        }
      ],
      "name": "transactions",
      "outputs": [
        {
          "internalType": "address",
          "name": "buyer",
          "type": "address"
        },
        {
          "internalType": "address",
          "name": "seller",
          "type": "address"
        },
        {
          "internalType": "uint256",
          "name": "amount",
          "type": "uint256"
        },
        {
          "internalType": "enum TurtleEscrow.State",
          "name": "state",
          "type": "uint8"
        },
        {
          "internalType": "uint256",
          "name": "createdAt",
          "type": "uint256"
        },
        {
          "internalType": "uint256",
          "name": "lockPeriod",
          "type": "uint256"
        }
      ],
      "stateMutability": "view",
      "type": "function"
    },
    {
      "inputs": [
        {
          "internalType": "address",
          "name": "newOwner",
          "type": "address"
        }
      ],
      "name": "transferOwnership",
      "outputs": [],
      "stateMutability": "nonpayable",
      "type": "function"
    },
    {
      "inputs": [],
      "name": "turtleDocumentation",
      "outputs": [
        {
          "internalType": "contract TurtleDocumentation",
          "name": "",
          "type": "address"
        }
      ],
      "stateMutability": "view",
      "type": "function"
    },
    {
      "inputs": [
        {
          "internalType": "address",
          "name": "_seller",
          "type": "address"
        },
        {
          "internalType": "uint256",
          "name": "_amount",
          "type": "uint256"
        }
      ],
      "name": "createTransaction",
      "outputs": [
        {
          "internalType": "uint256",
          "name": "",
          "type": "uint256"
        }
      ],
      "stateMutability": "nonpayable",
      "type": "function"
    },
    {
      "inputs": [
        {
          "internalType": "uint256",
          "name": "_transactionId",
          "type": "uint256"
        }
      ],
      "name": "lockFunds",
      "outputs": [],
      "stateMutability": "nonpayable",
      "type": "function"
    },
    {
      "inputs": [
        {
          "internalType": "uint256",
          "name": "_transactionId",
          "type": "uint256"
        }
      ],
      "name": "releaseFunds",
      "outputs": [],
      "stateMutability": "nonpayable",
      "type": "function"
    },
    {
      "inputs": [
        {
          "internalType": "uint256",
          "name": "_transactionId",
          "type": "uint256"
        }
      ],
      "name": "refund",
      "outputs": [],
      "stateMutability": "nonpayable",
      "type": "function"
    },
    {
      "inputs": [
        {
          "internalType": "uint256",
          "name": "_transactionId",
          "type": "uint256"
        }
      ],
      "name": "getTransactionDetails",
      "outputs": [
        {
          "internalType": "address",
          "name": "",
          "type": "address"
        },
        {
          "internalType": "address",
          "name": "",
          "type": "address"
        },
        {
          "internalType": "uint256",
          "name": "",
          "type": "uint256"
        },
        {
          "internalType": "enum TurtleEscrow.State",
          "name": "",
          "type": "uint8"
        },
        {
          "internalType": "uint256",
          "name": "",
          "type": "uint256"
        },
        {
          "internalType": "uint256",
          "name": "",
          "type": "uint256"
        }
      ],
      "stateMutability": "view",
      "type": "function"
    },
    {
      "inputs": [
        {
          "internalType": "uint256",
          "name": "_transactionId",
          "type": "uint256"
        },
        {
          "internalType": "uint256",
          "name": "_newLockPeriod",
          "type": "uint256"
        }
      ],
      "name": "updateLockPeriod",
      "outputs": [],
      "stateMutability": "nonpayable",
      "type": "function"
    }
  ],
  "bytecode": "0x60806040523480156200001157600080fd5b50604051620021ba380380620021ba83398181016040528101906200003791906200039f565b620000576200004b6200026960201b60201c565b6200027160201b60201c565b60018081905550600073ffffffffffffffffffffffffffffffffffffffff168273ffffffffffffffffffffffffffffffffffffffff1614158015620000c95750600073ffffffffffffffffffffffffffffffffffffffff168173ffffffffffffffffffffffffffffffffffffffff1614155b6200010b576040517f08c379a0000000000000000000000000000000000000000000000000000000008152600401620001029062000447565b60405180910390fd5b81600560006101000a81548173ffffffffffffffffffffffffffffffffffffffff021916908373ffffffffffffffffffffffffffffffffffffffff16021790555080600660006101000a81548173ffffffffffffffffffffffffffffffffffffffff021916908373ffffffffffffffffffffffffffffffffffffffff160217905550600660009054906101000a900473ffffffffffffffffffffffffffffffffffffffff1673ffffffffffffffffffffffffffffffffffffffff16638da5cb5b6040518163ffffffff1660e01b8152600401602060405180830381865afa158015620001fb573d6000803e3d6000fd5b505050506040513d601f19601f8201168201806040525081019062000221919062000469565b600460006101000a81548173ffffffffffffffffffffffffffffffffffffffff021916908373ffffffffffffffffffffffffffffffffffffffff16021790555050506200049b565b600033905090565b60008060009054906101000a900473ffffffffffffffffffffffffffffffffffffffff169050816000806101000a81548173ffffffffffffffffffffffffffffffffffffffff021916908373ffffffffffffffffffffffffffffffffffffffff1602179055508173ffffffffffffffffffffffffffffffffffffffff168173ffffffffffffffffffffffffffffffffffffffff167f8be0079c531659141344cd1fd0a4f28419497f9722a3daafe3b4186f6b6457e060405160405180910390a35050565b600080fd5b600073ffffffffffffffffffffffffffffffffffffffff82169050919050565b600062000367826200033a565b9050919050565b62000379816200035a565b81146200038557600080fd5b50565b60008151905062000399816200036e565b92915050565b60008060408385031215620003b957620003b862000335565b5b6000620003c98582860162000388565b9250506020620003dc8582860162000388565b9150509250929050565b600082825260208201905092915050565b7f496e76616c696420616464726573730000000000000000000000000000000000600082015250565b60006200042f600f83620003e6565b91506200043c82620003f7565b602082019050919050565b60006020820190508181036000830152620004628162000420565b9050919050565b60006020828403121562000482576200048162000335565b5b6000620004928482850162000388565b91505092915050565b611d0f80620004ab6000396000f3fe608060405234801561001057600080fd5b50600436106100f55760003560e01c80638da5cb5b11610097578063ddb2807111610066578063ddb2807114610268578063f2fde38b14610286578063fc0c546a146102a2578063fe25e00a146102c0576100f5565b80638da5cb5b146101db5780639ace38c2146101f9578063b77bf6001461022e578063d73a84e91461024c576100f5565b8063278ecde1116100d3578063278ecde11461017d5780634d68282f14610199578063715018a6146101b55780638c8f95fb146101bf576100f5565b80630fa683d3146100fa5780631820cabb1461012f5780631e7f8f0f1461014d575b600080fd5b610114600480360381019061010f91906113ba565b6102de565b604051610126969594939291906114ae565b60405180910390f35b61013761037f565b604051610144919061150f565b60405180910390f35b61016760048036038101906101629190611556565b610386565b604051610174919061150f565b60405180910390f35b610197600480360381019061019291906113ba565b6106dc565b005b6101b360048036038101906101ae91906113ba565b610a20565b005b6101bd610d14565b005b6101d960048036038101906101d491906113ba565b610d28565b005b6101e3610ea7565b6040516101f09190611596565b60405180910390f35b610213600480360381019061020e91906113ba565b610ed0565b604051610225969594939291906114ae565b60405180910390f35b610236610f59565b604051610243919061150f565b60405180910390f35b610266600480360381019061026191906115b1565b610f5f565b005b6102706110e8565b60405161027d9190611650565b60405180910390f35b6102a0600480360381019061029b919061166b565b61110e565b005b6102aa611191565b6040516102b791906116b9565b60405180910390f35b6102c86111b7565b6040516102d59190611596565b60405180910390f35b60008060008060008060006002600089815260200190815260200160002090508060000160009054906101000a900473ffffffffffffffffffffffffffffffffffffffff168160010160009054906101000a900473ffffffffffffffffffffffffffffffffffffffff1682600201548360030160009054906101000a900460ff16846004015485600501549650965096509650965096505091939550919395565b62093a8081565b60008073ffffffffffffffffffffffffffffffffffffffff168373ffffffffffffffffffffffffffffffffffffffff16036103f6576040517f08c379a00000000000000000000000000000000000000000000000000000000081526004016103ed90611731565b60405180910390fd5b60008211610439576040517f08c379a0000000000000000000000000000000000000000000000000000000008152600401610430906117c3565b60405180910390fd5b60006003600081548092919061044e90611812565b9190505590506040518060c001604052803373ffffffffffffffffffffffffffffffffffffffff1681526020018573ffffffffffffffffffffffffffffffffffffffff168152602001848152602001600060038111156104b1576104b0611437565b5b815260200142815260200162093a808152506002600083815260200190815260200160002060008201518160000160006101000a81548173ffffffffffffffffffffffffffffffffffffffff021916908373ffffffffffffffffffffffffffffffffffffffff16021790555060208201518160010160006101000a81548173ffffffffffffffffffffffffffffffffffffffff021916908373ffffffffffffffffffffffffffffffffffffffff1602179055506040820151816002015560608201518160030160006101000a81548160ff0219169083600381111561059957610598611437565b5b02179055506080820151816004015560a08201518160050155905050600560009054906101000a900473ffffffffffffffffffffffffffffffffffffffff1673ffffffffffffffffffffffffffffffffffffffff166323b872dd3330866040518463ffffffff1660e01b81526004016106149392919061185a565b6020604051808303816000875af1158015610633573d6000803e3d6000fd5b505050506040513d601f19601f8201168201806040525081019061065791906118c9565b610696576040517f08c379a000000000000000000000000000000000000000000000000000000000815260040161068d90611942565b60405180910390fd5b807fe9097a4f4eddc0e5906640fcd9e1193c9db52771536ca4c8b06ab4c40aa045d23386866040516106ca9392919061185a565b60405180910390a28091505092915050565b6106e46111dd565b60006002600083815260200190815260200160002090508060010160009054906101000a900473ffffffffffffffffffffffffffffffffffffffff1673ffffffffffffffffffffffffffffffffffffffff163373ffffffffffffffffffffffffffffffffffffffff1614806107a65750600460009054906101000a900473ffffffffffffffffffffffffffffffffffffffff1673ffffffffffffffffffffffffffffffffffffffff163373ffffffffffffffffffffffffffffffffffffffff16145b6107e5576040517f08c379a00000000000000000000000000000000000000000000000000000000081526004016107dc906119ae565b60405180910390fd5b600160038111156107f9576107f8611437565b5b8160030160009054906101000a900460ff16600381111561081d5761081c611437565b5b1461085d576040517f08c379a000000000000000000000000000000000000000000000000000000000815260040161085490611a1a565b60405180910390fd5b806005015481600401546108719190611a3a565b4210156108b3576040517f08c379a00000000000000000000000000000000000000000000000000000000081526004016108aa90611aba565b60405180910390fd5b60038160030160006101000a81548160ff021916908360038111156108db576108da611437565b5b0217905550600560009054906101000a900473ffffffffffffffffffffffffffffffffffffffff1673ffffffffffffffffffffffffffffffffffffffff1663a9059cbb8260000160009054906101000a900473ffffffffffffffffffffffffffffffffffffffff1683600201546040518363ffffffff1660e01b8152600401610965929190611ada565b6020604051808303816000875af1158015610984573d6000803e3d6000fd5b505050506040513d601f19601f820116820180604052508101906109a891906118c9565b6109e7576040517f08c379a00000000000000000000000000000000000000000000000000000000081526004016109de90611942565b60405180910390fd5b817fca4bd5135a11e3fc146ac22d75f0d2eae9b6c61b6fa3eb6724a456b311ad72d360405160405180910390a250610a1d61122c565b50565b610a286111dd565b60006002600083815260200190815260200160002090508060000160009054906101000a900473ffffffffffffffffffffffffffffffffffffffff1673ffffffffffffffffffffffffffffffffffffffff163373ffffffffffffffffffffffffffffffffffffffff161480610aea5750600460009054906101000a900473ffffffffffffffffffffffffffffffffffffffff1673ffffffffffffffffffffffffffffffffffffffff163373ffffffffffffffffffffffffffffffffffffffff16145b610b29576040517f08c379a0000000000000000000000000000000000000000000000000000000008152600401610b20906119ae565b60405180910390fd5b60016003811115610b3d57610b3c611437565b5b8160030160009054906101000a900460ff166003811115610b6157610b60611437565b5b14610ba1576040517f08c379a0000000000000000000000000000000000000000000000000000000008152600401610b9890611a1a565b60405180910390fd5b60028160030160006101000a81548160ff02191690836003811115610bc957610bc8611437565b5b02179055506000600560009054906101000a900473ffffffffffffffffffffffffffffffffffffffff1673ffffffffffffffffffffffffffffffffffffffff1663a9059cbb8360010160009054906101000a900473ffffffffffffffffffffffffffffffffffffffff1684600201546040518363ffffffff1660e01b8152600401610c55929190611ada565b6020604051808303816000875af1158015610c74573d6000803e3d6000fd5b505050506040513d601f19601f82011682018060405250810190610c9891906118c9565b905080610cda576040517f08c379a0000000000000000000000000000000000000000000000000000000008152600401610cd190611942565b60405180910390fd5b827f952b264c8e0a06cddb4bbaa6d6af1d565145329fd95bbe72cb2b53942b2dc96660405160405180910390a25050610d1161122c565b50565b610d1c611235565b610d2660006112b3565b565b60006002600083815260200190815260200160002090508060000160009054906101000a900473ffffffffffffffffffffffffffffffffffffffff1673ffffffffffffffffffffffffffffffffffffffff163373ffffffffffffffffffffffffffffffffffffffff1614610dd1576040517f08c379a0000000000000000000000000000000000000000000000000000000008152600401610dc890611b4f565b60405180910390fd5b60006003811115610de557610de4611437565b5b8160030160009054906101000a900460ff166003811115610e0957610e08611437565b5b14610e49576040517f08c379a0000000000000000000000000000000000000000000000000000000008152600401610e4090611a1a565b60405180910390fd5b60018160030160006101000a81548160ff02191690836003811115610e7157610e70611437565b5b0217905550817f116c1aa90d7c9aeabdd6dc366dc0def60808db13d9c05023bde6fe57ca7625a860405160405180910390a25050565b60008060009054906101000a900473ffffffffffffffffffffffffffffffffffffffff16905090565b60026020528060005260406000206000915090508060000160009054906101000a900473ffffffffffffffffffffffffffffffffffffffff16908060010160009054906101000a900473ffffffffffffffffffffffffffffffffffffffff16908060020154908060030160009054906101000a900460ff16908060040154908060050154905086565b60035481565b60006002600084815260200190815260200160002090508060000160009054906101000a900473ffffffffffffffffffffffffffffffffffffffff1673ffffffffffffffffffffffffffffffffffffffff163373ffffffffffffffffffffffffffffffffffffffff16148061102357508060010160009054906101000a900473ffffffffffffffffffffffffffffffffffffffff1673ffffffffffffffffffffffffffffffffffffffff163373ffffffffffffffffffffffffffffffffffffffff16145b611062576040517f08c379a0000000000000000000000000000000000000000000000000000000008152600401611059906119ae565b60405180910390fd5b6001600381111561107657611075611437565b5b8160030160009054906101000a900460ff16600381111561109a57611099611437565b5b146110da576040517f08c379a00000000000000000000000000000000000000000000000000000000081526004016110d190611a1a565b60405180910390fd5b818160050181905550505050565b600660009054906101000a900473ffffffffffffffffffffffffffffffffffffffff1681565b611116611235565b600073ffffffffffffffffffffffffffffffffffffffff168173ffffffffffffffffffffffffffffffffffffffff1603611185576040517f08c379a000000000000000000000000000000000000000000000000000000000815260040161117c90611be1565b60405180910390fd5b61118e816112b3565b50565b600560009054906101000a900473ffffffffffffffffffffffffffffffffffffffff1681565b600460009054906101000a900473ffffffffffffffffffffffffffffffffffffffff1681565b600260015403611222576040517f08c379a000000000000000000000000000000000000000000000000000000000815260040161121990611c4d565b60405180910390fd5b6002600181905550565b60018081905550565b61123d611377565b73ffffffffffffffffffffffffffffffffffffffff1661125b610ea7565b73ffffffffffffffffffffffffffffffffffffffff16146112b1576040517f08c379a00000000000000000000000000000000000000000000000000000000081526004016112a890611cb9565b60405180910390fd5b565b60008060009054906101000a900473ffffffffffffffffffffffffffffffffffffffff169050816000806101000a81548173ffffffffffffffffffffffffffffffffffffffff021916908373ffffffffffffffffffffffffffffffffffffffff1602179055508173ffffffffffffffffffffffffffffffffffffffff168173ffffffffffffffffffffffffffffffffffffffff167f8be0079c531659141344cd1fd0a4f28419497f9722a3daafe3b4186f6b6457e060405160405180910390a35050565b600033905090565b600080fd5b6000819050919050565b61139781611384565b81146113a257600080fd5b50565b6000813590506113b48161138e565b92915050565b6000602082840312156113d0576113cf61137f565b5b60006113de848285016113a5565b91505092915050565b600073ffffffffffffffffffffffffffffffffffffffff82169050919050565b6000611412826113e7565b9050919050565b61142281611407565b82525050565b61143181611384565b82525050565b7f4e487b7100000000000000000000000000000000000000000000000000000000600052602160045260246000fd5b6004811061147757611476611437565b5b50565b600081905061148882611466565b919050565b60006114988261147a565b9050919050565b6114a88161148d565b82525050565b600060c0820190506114c36000830189611419565b6114d06020830188611419565b6114dd6040830187611428565b6114ea606083018661149f565b6114f76080830185611428565b61150460a0830184611428565b979650505050505050565b60006020820190506115246000830184611428565b92915050565b61153381611407565b811461153e57600080fd5b50565b6000813590506115508161152a565b92915050565b6000806040838503121561156d5761156c61137f565b5b600061157b85828601611541565b925050602061158c858286016113a5565b9150509250929050565b60006020820190506115ab6000830184611419565b92915050565b600080604083850312156115c8576115c761137f565b5b60006115d6858286016113a5565b92505060206115e7858286016113a5565b9150509250929050565b6000819050919050565b600061161661161161160c846113e7565b6115f1565b6113e7565b9050919050565b6000611628826115fb565b9050919050565b600061163a8261161d565b9050919050565b61164a8161162f565b82525050565b60006020820190506116656000830184611641565b92915050565b6000602082840312156116815761168061137f565b5b600061168f84828501611541565b91505092915050565b60006116a38261161d565b9050919050565b6116b381611698565b82525050565b60006020820190506116ce60008301846116aa565b92915050565b600082825260208201905092915050565b7f496e76616c69642073656c6c6572206164647265737300000000000000000000600082015250565b600061171b6016836116d4565b9150611726826116e5565b602082019050919050565b6000602082019050818103600083015261174a8161170e565b9050919050565b7f496e76616c696420616d6f756e742120416d6f756e74206d757374206265206760008201527f726561746572207468616e203000000000000000000000000000000000000000602082015250565b60006117ad602d836116d4565b91506117b882611751565b604082019050919050565b600060208201905081810360008301526117dc816117a0565b9050919050565b7f4e487b7100000000000000000000000000000000000000000000000000000000600052601160045260246000fd5b600061181d82611384565b91507fffffffffffffffffffffffffffffffffffffffffffffffffffffffffffffffff820361184f5761184e6117e3565b5b600182019050919050565b600060608201905061186f6000830186611419565b61187c6020830185611419565b6118896040830184611428565b949350505050565b60008115159050919050565b6118a681611891565b81146118b157600080fd5b50565b6000815190506118c38161189d565b92915050565b6000602082840312156118df576118de61137f565b5b60006118ed848285016118b4565b91505092915050565b7f546f6b656e207472616e73666572206661696c65640000000000000000000000600082015250565b600061192c6015836116d4565b9150611937826118f6565b602082019050919050565b6000602082019050818103600083015261195b8161191f565b9050919050565b7f556e617574686f72697a65640000000000000000000000000000000000000000600082015250565b6000611998600c836116d4565b91506119a382611962565b602082019050919050565b600060208201905081810360008301526119c78161198b565b9050919050565b7f496e76616c696420737461746500000000000000000000000000000000000000600082015250565b6000611a04600d836116d4565b9150611a0f826119ce565b602082019050919050565b60006020820190508181036000830152611a33816119f7565b9050919050565b6000611a4582611384565b9150611a5083611384565b9250828201905080821115611a6857611a676117e3565b5b92915050565b7f4c6f636b20706572696f64206e6f742065787069726564000000000000000000600082015250565b6000611aa46017836116d4565b9150611aaf82611a6e565b602082019050919050565b60006020820190508181036000830152611ad381611a97565b9050919050565b6000604082019050611aef6000830185611419565b611afc6020830184611428565b9392505050565b7f4f6e6c792062757965722063616e206c6f636b2066756e647300000000000000600082015250565b6000611b396019836116d4565b9150611b4482611b03565b602082019050919050565b60006020820190508181036000830152611b6881611b2c565b9050919050565b7f4f776e61626c653a206e6577206f776e657220697320746865207a65726f206160008201527f6464726573730000000000000000000000000000000000000000000000000000602082015250565b6000611bcb6026836116d4565b9150611bd682611b6f565b604082019050919050565b60006020820190508181036000830152611bfa81611bbe565b9050919050565b7f5265656e7472616e637947756172643a207265656e7472616e742063616c6c00600082015250565b6000611c37601f836116d4565b9150611c4282611c01565b602082019050919050565b60006020820190508181036000830152611c6681611c2a565b9050919050565b7f4f776e61626c653a2063616c6c6572206973206e6f7420746865206f776e6572600082015250565b6000611ca36020836116d4565b9150611cae82611c6d565b602082019050919050565b60006020820190508181036000830152611cd281611c96565b905091905056fea2646970667358221220fb9449c1e9f4c7b58cf7e63de2f0e148a269e10a226e30aca7e0fefc4bed400264736f6c63430008120033",
  "immutableReferences": {},
  "source": "// SPDX-License-Identifier: MIT\r\npragma solidity >=0.8.0 <0.9.0;\r\n\r\nimport \"@openzeppelin/contracts/access/Ownable.sol\";\r\nimport \"@openzeppelin/contracts/security/ReentrancyGuard.sol\";\r\nimport \"@openzeppelin/contracts/token/ERC20/IERC20.sol\";\r\nimport \"./TurtleDocumentation.sol\";\r\n\r\n/**\r\n * @title TurtleEscrow\r\n * @author \r\n * @notice       .\r\n */\r\ncontract TurtleEscrow is Ownable, ReentrancyGuard {\r\n    /**\r\n     * @dev    \r\n     * @notice     .\r\n     * - Created:   \r\n     * - Locked:   \r\n     * - Released:   \r\n     * - Refunded:   \r\n     */\r\n    enum State {\r\n        Created,\r\n        Locked,\r\n        Released,\r\n        Refunded\r\n    }\r\n\r\n    /**\r\n     * @dev    \r\n     * @param buyer  \r\n     * @param seller  \r\n     * @param amount  \r\n     * @param state   \r\n     * @param createdAt   \r\n     * @param lockPeriod  \r\n     */\r\n    struct Transaction {\r\n        address buyer; //  \r\n        address seller; //  \r\n        uint256 amount; //  \r\n        State state; //   \r\n        uint256 createdAt; //   \r\n        uint256 lockPeriod; //  \r\n    }\r\n\r\n    mapping(uint256 => Transaction) public transactions; //  ID    \r\n    uint256 public transactionCount; //   \r\n\r\n    address public arbiter; //  \r\n    uint256 public constant LOCK_PERIOD = 7 days; //    (7)\r\n    IERC20 public token; //  ERC20 \r\n    TurtleDocumentation public turtleDocumentation; // TurtleDocumentation  \r\n\r\n    /**\r\n     * @dev  \r\n     */\r\n    event TransactionCreated(uint256 indexed transactionId, address buyer, address seller, uint256 amount);\r\n    event FundsLocked(uint256 indexed transactionId);\r\n    event FundsReleased(uint256 indexed transactionId);\r\n    event FundsRefunded(uint256 indexed transactionId);\r\n\r\n    /**\r\n     * @dev :    ERC20   \r\n     * @param _token  ERC20  \r\n     * @param _turtleDocumentation TurtleDocumentation  \r\n     */\r\n    constructor(address _token, address _turtleDocumentation) {\r\n        require(_token != address(0) && _turtleDocumentation != address(0), \"Invalid address\");\r\n        token = IERC20(_token);\r\n        turtleDocumentation = TurtleDocumentation(_turtleDocumentation);\r\n        arbiter = turtleDocumentation.owner();\r\n    }\r\n\r\n    /**\r\n     * @dev   \r\n     * @param _seller  \r\n     * @param _amount  \r\n     * @return   ID\r\n     * @notice CEI  (Checks-Effects-Interactions)\r\n     * - Checks:     \r\n     * - Effects:    \r\n     * - Interactions:  \r\n     */\r\n    //   \r\n    function createTransaction(address _seller, uint256 _amount) external returns (uint256) {\r\n        // Check\r\n        require(_seller != address(0), \"Invalid seller address\");\r\n        require(_amount > 0, \"Invalid amount! Amount must be greater than 0\");\r\n\r\n        // Effects\r\n        uint256 transactionId = transactionCount++;\r\n        transactions[transactionId] = Transaction({buyer: msg.sender, seller: _seller, amount: _amount, state: State.Created, createdAt: block.timestamp, lockPeriod: LOCK_PERIOD});\r\n\r\n        // Interactions\r\n        require(token.transferFrom(msg.sender, address(this), _amount), \"Token transfer failed\");\r\n\r\n        emit TransactionCreated(transactionId, msg.sender, _seller, _amount);\r\n        return transactionId;\r\n    }\r\n\r\n    /**\r\n     * @dev  \r\n     * @param _transactionId  ID\r\n     */\r\n    function lockFunds(uint256 _transactionId) external {\r\n        Transaction storage transaction = transactions[_transactionId];\r\n        require(msg.sender == transaction.buyer, \"Only buyer can lock funds\");\r\n        require(transaction.state == State.Created, \"Invalid state\");\r\n\r\n        transaction.state = State.Locked;\r\n        emit FundsLocked(_transactionId);\r\n    }\r\n\r\n    /**\r\n     * @dev   ( )\r\n     * @param _transactionId  ID\r\n     * @notice CEI  (Checks-Effects-Interactions)\r\n     * - Checks:     \r\n     * - Effects:   \r\n     * - Interactions:  \r\n     */\r\n    function releaseFunds(uint256 _transactionId) external nonReentrant {\r\n        // Checks\r\n        Transaction storage transaction = transactions[_transactionId];\r\n        require(msg.sender == transaction.buyer || msg.sender == arbiter, \"Unauthorized\");\r\n        require(transaction.state == State.Locked, \"Invalid state\");\r\n\r\n        // Effects\r\n        transaction.state = State.Released;\r\n\r\n        // Interactions\r\n        bool success = token.transfer(transaction.seller, transaction.amount);\r\n        require(success, \"Token transfer failed\");\r\n\r\n        emit FundsReleased(_transactionId);\r\n    }\r\n\r\n    /**\r\n     * @dev  ( )\r\n     * @param _transactionId  ID\r\n     * @notice CEI  (Checks-Effects-Interactions)\r\n     * - Checks: , ,    \r\n     * - Effects:   \r\n     * - Interactions:  \r\n     */\r\n    function refund(uint256 _transactionId) external nonReentrant {\r\n        // Checks\r\n        Transaction storage transaction = transactions[_transactionId];\r\n        require(msg.sender == transaction.seller || msg.sender == arbiter, \"Unauthorized\");\r\n        require(transaction.state == State.Locked, \"Invalid state\");\r\n        require(block.timestamp >= transaction.createdAt + transaction.lockPeriod, \"Lock period not expired\");\r\n\r\n        // Effects\r\n        transaction.state = State.Refunded;\r\n\r\n        // Interactions\r\n        require(token.transfer(transaction.buyer, transaction.amount), \"Token transfer failed\");\r\n\r\n        emit FundsRefunded(_transactionId);\r\n    }\r\n\r\n    /**\r\n     * @dev    \r\n     * @param _transactionId  ID\r\n     * @return  ,  ,  ,  ,   ,  \r\n     */\r\n    function getTransactionDetails(uint256 _transactionId) external view returns (address, address, uint256, State, uint256, uint256) {\r\n        Transaction storage transaction = transactions[_transactionId];\r\n        return (transaction.buyer, transaction.seller, transaction.amount, transaction.state, transaction.createdAt, transaction.lockPeriod);\r\n    }\r\n\r\n    // /**\r\n    //  * @dev    (onlyOwner )\r\n    //  * @param _newArbiter   \r\n    //  */\r\n    // function setArbiter(address _newArbiter) external onlyOwner {\r\n    //     arbiter = _newArbiter;\r\n    // }\r\n\r\n    /**\r\n     * @dev   \r\n     * @param _transactionId  ID\r\n     * @param _newLockPeriod   \r\n     */\r\n    function updateLockPeriod(uint256 _transactionId, uint256 _newLockPeriod) external {\r\n        Transaction storage transaction = transactions[_transactionId];\r\n        require(msg.sender == transaction.buyer || msg.sender == transaction.seller, \"Unauthorized\");\r\n        require(transaction.state == State.Locked, \"Invalid state\");\r\n        transaction.lockPeriod = _newLockPeriod;\r\n    }\r\n}\r\n",
  "sourcePath": "C:\\goosebbeoms\\gitlab\\specialized\\S11P21C107\\blockchain\\contracts\\TurtleEscrow.sol",
  "compiler": {
    "name": "solc",
    "version": "0.8.18+commit.87f61d96.Emscripten.clang"
  },
  "schemaVersion": "3.4.16",
  "updatedAt": "2024-09-11T01:20:23.242Z",
  "devdoc": {
    "author": "",
    "events": {
      "TransactionCreated(uint256,address,address,uint256)": {
        "details": " "
      }
    },
    "kind": "dev",
    "methods": {
      "constructor": {
        "details": ":    ERC20   ",
        "params": {
          "_token": " ERC20  ",
          "_turtleDocumentation": "TurtleDocumentation  "
        }
      },
      "createTransaction(address,uint256)": {
        "details": "  ",
        "params": {
          "_amount": " ",
          "_seller": " "
        },
        "returns": {
          "_0": "  ID"
        }
      },
      "getTransactionDetails(uint256)": {
        "details": "   ",
        "params": {
          "_transactionId": " ID"
        },
        "returns": {
          "_0": " ,  ,  ,  ,   ,  "
        }
      },
      "lockFunds(uint256)": {
        "details": " ",
        "params": {
          "_transactionId": " ID"
        }
      },
      "owner()": {
        "details": "Returns the address of the current owner."
      },
      "refund(uint256)": {
        "details": " ( )",
        "params": {
          "_transactionId": " ID"
        }
      },
      "releaseFunds(uint256)": {
        "details": "  ( )",
        "params": {
          "_transactionId": " ID"
        }
      },
      "renounceOwnership()": {
        "details": "Leaves the contract without owner. It will not be possible to call `onlyOwner` functions. Can only be called by the current owner. NOTE: Renouncing ownership will leave the contract without an owner, thereby disabling any functionality that is only available to the owner."
      },
      "transferOwnership(address)": {
        "details": "Transfers ownership of the contract to a new account (`newOwner`). Can only be called by the current owner."
      },
      "updateLockPeriod(uint256,uint256)": {
        "details": "  ",
        "params": {
          "_newLockPeriod": "  ",
          "_transactionId": " ID"
        }
      }
    },
    "title": "TurtleEscrow",
    "version": 1
  },
  "userdoc": {
    "kind": "user",
    "methods": {
      "createTransaction(address,uint256)": {
        "notice": "CEI  (Checks-Effects-Interactions) - Checks:      - Effects:     - Interactions:  "
      },
      "refund(uint256)": {
        "notice": "CEI  (Checks-Effects-Interactions) - Checks: , ,     - Effects:    - Interactions:  "
      },
      "releaseFunds(uint256)": {
        "notice": "CEI  (Checks-Effects-Interactions) - Checks:      - Effects:    - Interactions:  "
      }
    },
    "notice": "      .",
    "version": 1
  }
}